{
  "contractName": "AaveSupplyAction",
  "abi": [
    {
      "inputs": [
        {
          "internalType": "address",
          "name": "_aavePoolAddress",
          "type": "address"
        },
        {
          "internalType": "address",
          "name": "_aTokenAddress",
          "type": "address"
        }
      ],
      "stateMutability": "nonpayable",
      "type": "constructor"
    },
    {
      "anonymous": false,
      "inputs": [
        {
          "components": [
            {
              "components": [
                {
                  "internalType": "enum AssetType",
                  "name": "assetType",
                  "type": "uint8"
                },
                {
                  "internalType": "address",
                  "name": "assetAddress",
                  "type": "address"
                }
              ],
              "internalType": "struct Asset",
              "name": "asset",
              "type": "tuple"
            },
            {
              "internalType": "uint256",
              "name": "amount",
              "type": "uint256"
            }
          ],
          "indexed": false,
          "internalType": "struct AssetAmount[]",
          "name": "inputAssets",
          "type": "tuple[]"
        },
        {
          "indexed": false,
          "internalType": "address",
          "name": "onBehalfOf",
          "type": "address"
        }
      ],
      "name": "AaveSupplyActionEvent",
      "type": "event"
    },
    {
      "inputs": [],
      "name": "aTokenAddress",
      "outputs": [
        {
          "internalType": "address",
          "name": "",
          "type": "address"
        }
      ],
      "stateMutability": "view",
      "type": "function"
    },
    {
      "inputs": [],
      "name": "pool",
      "outputs": [
        {
          "internalType": "contract IAaveV3Pool",
          "name": "",
          "type": "address"
        }
      ],
      "stateMutability": "view",
      "type": "function"
    },
    {
      "inputs": [
        {
          "components": [
            {
              "components": [
                {
                  "internalType": "enum AssetType",
                  "name": "assetType",
                  "type": "uint8"
                },
                {
                  "internalType": "address",
                  "name": "assetAddress",
                  "type": "address"
                }
              ],
              "internalType": "struct Asset",
              "name": "asset",
              "type": "tuple"
            },
            {
              "internalType": "uint256",
              "name": "amount",
              "type": "uint256"
            }
          ],
          "internalType": "struct AssetAmount[]",
          "name": "inputAssetAmounts",
          "type": "tuple[]"
        },
        {
          "components": [
            {
              "internalType": "enum AssetType",
              "name": "assetType",
              "type": "uint8"
            },
            {
              "internalType": "address",
              "name": "assetAddress",
              "type": "address"
            }
          ],
          "internalType": "struct Asset[]",
          "name": "outputAssets",
          "type": "tuple[]"
        },
        {
          "internalType": "bytes",
          "name": "data",
          "type": "bytes"
        }
      ],
      "name": "execute",
      "outputs": [
        {
          "components": [
            {
              "components": [
                {
                  "components": [
                    {
                      "internalType": "enum AssetType",
                      "name": "assetType",
                      "type": "uint8"
                    },
                    {
                      "internalType": "address",
                      "name": "assetAddress",
                      "type": "address"
                    }
                  ],
                  "internalType": "struct Asset",
                  "name": "asset",
                  "type": "tuple"
                },
                {
                  "internalType": "uint256",
                  "name": "amount",
                  "type": "uint256"
                }
              ],
              "internalType": "struct AssetAmount[]",
              "name": "outputAssetAmounts",
              "type": "tuple[]"
            },
            {
              "internalType": "int16",
              "name": "nextStepIndex",
              "type": "int16"
            }
          ],
          "internalType": "struct WorkflowStepResult",
          "name": "",
          "type": "tuple"
        }
      ],
      "stateMutability": "payable",
      "type": "function"
    }
  ],
  "bytecode": "0x60c06040523480156200001157600080fd5b506040516200142438038062001424833981810160405281019062000037919062000111565b8173ffffffffffffffffffffffffffffffffffffffff1660808173ffffffffffffffffffffffffffffffffffffffff16815250508073ffffffffffffffffffffffffffffffffffffffff1660a08173ffffffffffffffffffffffffffffffffffffffff1681525050505062000158565b600080fd5b600073ffffffffffffffffffffffffffffffffffffffff82169050919050565b6000620000d982620000ac565b9050919050565b620000eb81620000cc565b8114620000f757600080fd5b50565b6000815190506200010b81620000e0565b92915050565b600080604083850312156200012b576200012a620000a7565b5b60006200013b85828601620000fa565b92505060206200014e85828601620000fa565b9150509250929050565b60805160a0516112996200018b60003960006104b301526000818160c10152818161026401526103bd01526112996000f3fe6080604052600436106100345760003560e01c806316f0115b146100395780632b53501314610064578063dcfc0ced14610094575b600080fd5b34801561004557600080fd5b5061004e6100bf565b60405161005b9190610706565b60405180910390f35b61007e60048036038101906100799190610846565b6100e3565b60405161008b9190610b11565b60405180910390f35b3480156100a057600080fd5b506100a96104b1565b6040516100b69190610b42565b60405180910390f35b7f000000000000000000000000000000000000000000000000000000000000000081565b6100eb610608565b60018787905014610131576040517f08c379a000000000000000000000000000000000000000000000000000000000815260040161012890610be0565b60405180910390fd5b6001600281111561014557610144610926565b5b8787600081811061015957610158610c00565b5b90506060020160000160000160208101906101749190610c54565b600281111561018657610185610926565b5b146101c6576040517f08c379a00000000000000000000000000000000000000000000000000000000081526004016101bd90610ccd565b60405180910390fd5b600083838101906101d79190610de6565b90507f4c0a6bbdb526f04583cf4e07058624ec0dbe9b124669ec166ea200b1a06e1e878888836000015160405161021093929190610fb5565b60405180910390a18787600081811061022c5761022b610c00565b5b90506060020160000160200160208101906102479190610fe7565b73ffffffffffffffffffffffffffffffffffffffff1663095ea7b37f00000000000000000000000000000000000000000000000000000000000000008a8a600081811061029757610296610c00565b5b905060600201604001356040518363ffffffff1660e01b81526004016102be929190611023565b6020604051808303816000875af11580156102dd573d6000803e3d6000fd5b505050506040513d601f19601f820116820180604052508101906103019190611084565b50600073ffffffffffffffffffffffffffffffffffffffff16816000015173ffffffffffffffffffffffffffffffffffffffff16036103bb5760018686905014610380576040517f08c379a000000000000000000000000000000000000000000000000000000000815260040161037790611149565b60405180910390fd5b6040517f08c379a00000000000000000000000000000000000000000000000000000000081526004016103b2906111b5565b60405180910390fd5b7f000000000000000000000000000000000000000000000000000000000000000073ffffffffffffffffffffffffffffffffffffffff1663617ba0378989600081811061040b5761040a610c00565b5b90506060020160000160200160208101906104269190610fe7565b8a8a600081811061043a57610439610c00565b5b90506060020160400135846000015160006040518563ffffffff1660e01b815260040161046a949392919061121e565b600060405180830381600087803b15801561048457600080fd5b505af1158015610498573d6000803e3d6000fd5b505050506104a46104d5565b9150509695505050505050565b7f000000000000000000000000000000000000000000000000000000000000000081565b6104dd610608565b6104ea60008060006104ef565b905090565b6104f7610608565b6000604051806040016040528086600281111561051757610516610926565b5b81526020018573ffffffffffffffffffffffffffffffffffffffff1681525090506000600167ffffffffffffffff81111561055557610554610d03565b5b60405190808252806020026020018201604052801561058e57816020015b61057b610625565b8152602001906001900390816105735790505b509050604051806040016040528083815260200185815250816000815181106105ba576105b9610c00565b5b602002602001018190525060405180604001604052808281526020017fffffffffffffffffffffffffffffffffffffffffffffffffffffffffffffffff60010b815250925050509392505050565b604051806040016040528060608152602001600060010b81525090565b6040518060400160405280610638610645565b8152602001600081525090565b60405180604001604052806000600281111561066457610663610926565b5b8152602001600073ffffffffffffffffffffffffffffffffffffffff1681525090565b600073ffffffffffffffffffffffffffffffffffffffff82169050919050565b6000819050919050565b60006106cc6106c76106c284610687565b6106a7565b610687565b9050919050565b60006106de826106b1565b9050919050565b60006106f0826106d3565b9050919050565b610700816106e5565b82525050565b600060208201905061071b60008301846106f7565b92915050565b6000604051905090565b600080fd5b600080fd5b600080fd5b600080fd5b600080fd5b60008083601f84011261075a57610759610735565b5b8235905067ffffffffffffffff8111156107775761077661073a565b5b6020830191508360608202830111156107935761079261073f565b5b9250929050565b60008083601f8401126107b0576107af610735565b5b8235905067ffffffffffffffff8111156107cd576107cc61073a565b5b6020830191508360408202830111156107e9576107e861073f565b5b9250929050565b60008083601f84011261080657610805610735565b5b8235905067ffffffffffffffff8111156108235761082261073a565b5b60208301915083600182028301111561083f5761083e61073f565b5b9250929050565b600080600080600080606087890312156108635761086261072b565b5b600087013567ffffffffffffffff81111561088157610880610730565b5b61088d89828a01610744565b9650965050602087013567ffffffffffffffff8111156108b0576108af610730565b5b6108bc89828a0161079a565b9450945050604087013567ffffffffffffffff8111156108df576108de610730565b5b6108eb89828a016107f0565b92509250509295509295509295565b600081519050919050565b600082825260208201905092915050565b6000819050602082019050919050565b7f4e487b7100000000000000000000000000000000000000000000000000000000600052602160045260246000fd5b6003811061096657610965610926565b5b50565b600081905061097782610955565b919050565b600061098782610969565b9050919050565b6109978161097c565b82525050565b60006109a882610687565b9050919050565b6109b88161099d565b82525050565b6040820160008201516109d4600085018261098e565b5060208201516109e760208501826109af565b50505050565b6000819050919050565b610a00816109ed565b82525050565b606082016000820151610a1c60008501826109be565b506020820151610a2f60408501826109f7565b50505050565b6000610a418383610a06565b60608301905092915050565b6000602082019050919050565b6000610a65826108fa565b610a6f8185610905565b9350610a7a83610916565b8060005b83811015610aab578151610a928882610a35565b9750610a9d83610a4d565b925050600181019050610a7e565b5085935050505092915050565b60008160010b9050919050565b610ace81610ab8565b82525050565b60006040830160008301518482036000860152610af18282610a5a565b9150506020830151610b066020860182610ac5565b508091505092915050565b60006020820190508181036000830152610b2b8184610ad4565b905092915050565b610b3c8161099d565b82525050565b6000602082019050610b576000830184610b33565b92915050565b600082825260208201905092915050565b7f7468657265206d7573742062652065786163746c79203120696e70757420617360008201527f7365740000000000000000000000000000000000000000000000000000000000602082015250565b6000610bca602383610b5d565b9150610bd582610b6e565b604082019050919050565b60006020820190508181036000830152610bf981610bbd565b9050919050565b7f4e487b7100000000000000000000000000000000000000000000000000000000600052603260045260246000fd5b60038110610c3c57600080fd5b50565b600081359050610c4e81610c2f565b92915050565b600060208284031215610c6a57610c6961072b565b5b6000610c7884828501610c3f565b91505092915050565b7f74686520696e707574206173736574206d75737420626520616e204552433230600082015250565b6000610cb7602083610b5d565b9150610cc282610c81565b602082019050919050565b60006020820190508181036000830152610ce681610caa565b9050919050565b600080fd5b6000601f19601f8301169050919050565b7f4e487b7100000000000000000000000000000000000000000000000000000000600052604160045260246000fd5b610d3b82610cf2565b810181811067ffffffffffffffff82111715610d5a57610d59610d03565b5b80604052505050565b6000610d6d610721565b9050610d798282610d32565b919050565b610d878161099d565b8114610d9257600080fd5b50565b600081359050610da481610d7e565b92915050565b600060208284031215610dc057610dbf610ced565b5b610dca6020610d63565b90506000610dda84828501610d95565b60008301525092915050565b600060208284031215610dfc57610dfb61072b565b5b6000610e0a84828501610daa565b91505092915050565b600082825260208201905092915050565b6000819050919050565b600082905092915050565b6000610e486020840184610c3f565b905092915050565b6000610e5f6020840184610d95565b905092915050565b60408201610e786000830183610e39565b610e85600085018261098e565b50610e936020830183610e50565b610ea060208501826109af565b50505050565b610eaf816109ed565b8114610eba57600080fd5b50565b600081359050610ecc81610ea6565b92915050565b6000610ee16020840184610ebd565b905092915050565b60608201610efa6000830183610e2e565b610f076000850182610e67565b50610f156040830183610ed2565b610f2260408501826109f7565b50505050565b6000610f348383610ee9565b60608301905092915050565b600082905092915050565b6000606082019050919050565b6000610f648385610e13565b9350610f6f82610e24565b8060005b85811015610fa857610f858284610f40565b610f8f8882610f28565b9750610f9a83610f4b565b925050600181019050610f73565b5085925050509392505050565b60006040820190508181036000830152610fd0818587610f58565b9050610fdf6020830184610b33565b949350505050565b600060208284031215610ffd57610ffc61072b565b5b600061100b84828501610d95565b91505092915050565b61101d816109ed565b82525050565b60006040820190506110386000830185610b33565b6110456020830184611014565b9392505050565b60008115159050919050565b6110618161104c565b811461106c57600080fd5b50565b60008151905061107e81611058565b92915050565b60006020828403121561109a5761109961072b565b5b60006110a88482850161106f565b91505092915050565b7f7468657265206d7573742062652065786163746c792031206f7574707574206160008201527f73736574207768656e206b656570696e67207468652061546f6b656e20696e2060208201527f74686520656e67696e6500000000000000000000000000000000000000000000604082015250565b6000611133604a83610b5d565b915061113e826110b1565b606082019050919050565b6000602082019050818103600083015261116281611126565b9050919050565b7f6e6f7420696d706c656d656e7465640000000000000000000000000000000000600082015250565b600061119f600f83610b5d565b91506111aa82611169565b602082019050919050565b600060208201905081810360008301526111ce81611192565b9050919050565b6000819050919050565b600061ffff82169050919050565b60006112086112036111fe846111d5565b6106a7565b6111df565b9050919050565b611218816111ed565b82525050565b60006080820190506112336000830187610b33565b6112406020830186611014565b61124d6040830185610b33565b61125a606083018461120f565b9594505050505056fea2646970667358221220dc41ac33e60f3632cbdfd6b0c2c0f9ca4a146f7c782a3cbaf799e4316c0ca7bc64736f6c634300080d0033",
  "immutableReferences": {
    "7493": [
      {
        "length": 32,
        "start": 193
      },
      {
        "length": 32,
        "start": 612
      },
      {
        "length": 32,
        "start": 957
      }
    ],
    "7495": [
      {
        "length": 32,
        "start": 1203
      }
    ]
  },
  "source": "// SPDX-License-Identifier: MIT\npragma solidity ^0.8.13;\nimport '../../IWorkflowStep.sol';\nimport '../../LibActionHelpers.sol';\nimport './IAaveV3Pool.sol';\nimport '../../model/Workflow.sol';\nimport '../../model/AssetAmount.sol';\nimport '@openzeppelin/contracts/token/ERC20/IERC20.sol';\n// import {IPool} from \"@aave/core-v3/contracts/interfaces/IPool.sol\";\n\n// StargateBridgeAction specific arguments\nstruct AaveSupplyActionArgs {\n  // the address that will receive the aTokens\n  // use addres 0 to leave the assets in the workflow engine (TODO not currently supported)\n  address onBehalfOf;\n}\n\ncontract AaveSupplyAction is IWorkflowStep {\n  IAaveV3Pool public immutable pool;\n  address public immutable aTokenAddress;\n\n  constructor(address _aavePoolAddress, address _aTokenAddress) {\n    pool = IAaveV3Pool(_aavePoolAddress);\n    // TODO maybe waffle can help mock the full IPool interface, which would be need to replace IAaveV3Pool with the full IPool from @aave/core-v3\n    // which would allow us to use it here to look up the aToken address at deploy time based on the pool address\n    aTokenAddress = _aTokenAddress;\n  }\n\n  event AaveSupplyActionEvent(AssetAmount[] inputAssets, address onBehalfOf);\n\n  function execute(\n    AssetAmount[] calldata inputAssetAmounts,\n    Asset[] calldata outputAssets,\n    bytes calldata data\n  ) public payable returns (WorkflowStepResult memory) {\n    // validate\n    require(inputAssetAmounts.length == 1, 'there must be exactly 1 input asset');\n    require(inputAssetAmounts[0].asset.assetType == AssetType.ERC20, 'the input asset must be an ERC20');\n\n    // decode the args\n    AaveSupplyActionArgs memory args = abi.decode(data, (AaveSupplyActionArgs));\n\n    emit AaveSupplyActionEvent(inputAssetAmounts, args.onBehalfOf);\n\n    // approve aave to take the asset\n    IERC20(inputAssetAmounts[0].asset.assetAddress).approve(address(pool), inputAssetAmounts[0].amount);\n\n    if (args.onBehalfOf == address(0)) {\n      // keep the aToken in the engine\n      require(outputAssets.length == 1, 'there must be exactly 1 output asset when keeping the aToken in the engine');\n      // TODO get the amount (before and after to be safe, in case there is residual aTokens left from previous transactions for some reason)\n      // pool.supply(inputAssetAmounts[0].asset.assetAddress, inputAssets[0].amount, address(this), 0);\n      revert('not implemented');\n      // return LibActionHelpers.singleTokenResult(aTokenAddress, <delta amount goes here>);\n    }\n\n    // send the output directly to the end user (or whomever)\n    pool.supply(inputAssetAmounts[0].asset.assetAddress, inputAssetAmounts[0].amount, args.onBehalfOf, 0);\n    return LibActionHelpers.noOutputAssetsResult();\n  }\n}\n",
  "sourcePath": "/home/asdf/fmp3/platform/evm/contracts/actions/aave/AaveSupplyAction.sol",
  "compiler": {
    "name": "solc",
    "version": "0.8.13+commit.abaa5c0e.Emscripten.clang"
  },
  "schemaVersion": "3.4.11",
  "updatedAt": "2023-02-05T18:33:19.028Z",
  "devdoc": {
    "kind": "dev",
    "methods": {},
    "version": 1
  },
  "userdoc": {
    "kind": "user",
    "methods": {},
    "version": 1
  }
}