{
  "contractName": "AddAssetAction",
  "abi": [
    {
      "anonymous": false,
      "inputs": [
        {
          "indexed": false,
          "internalType": "address",
          "name": "userAddress",
          "type": "address"
        },
        {
          "indexed": false,
          "internalType": "enum AssetType",
          "name": "assetType",
          "type": "uint8"
        },
        {
          "indexed": false,
          "internalType": "address",
          "name": "assetAddress",
          "type": "address"
        },
        {
          "indexed": false,
          "internalType": "uint256",
          "name": "amount",
          "type": "uint256"
        }
      ],
      "name": "AssetAdded",
      "type": "event"
    },
    {
      "inputs": [
        {
          "components": [
            {
              "components": [
                {
                  "internalType": "enum AssetType",
                  "name": "assetType",
                  "type": "uint8"
                },
                {
                  "internalType": "address",
                  "name": "assetAddress",
                  "type": "address"
                }
              ],
              "internalType": "struct Asset",
              "name": "asset",
              "type": "tuple"
            },
            {
              "internalType": "uint256",
              "name": "amount",
              "type": "uint256"
            }
          ],
          "internalType": "struct AssetAmount[]",
          "name": "inputAssetAmounts",
          "type": "tuple[]"
        },
        {
          "components": [
            {
              "internalType": "enum AssetType",
              "name": "assetType",
              "type": "uint8"
            },
            {
              "internalType": "address",
              "name": "assetAddress",
              "type": "address"
            }
          ],
          "internalType": "struct Asset[]",
          "name": "outputAssets",
          "type": "tuple[]"
        },
        {
          "internalType": "bytes",
          "name": "data",
          "type": "bytes"
        }
      ],
      "name": "execute",
      "outputs": [
        {
          "components": [
            {
              "components": [
                {
                  "components": [
                    {
                      "internalType": "enum AssetType",
                      "name": "assetType",
                      "type": "uint8"
                    },
                    {
                      "internalType": "address",
                      "name": "assetAddress",
                      "type": "address"
                    }
                  ],
                  "internalType": "struct Asset",
                  "name": "asset",
                  "type": "tuple"
                },
                {
                  "internalType": "uint256",
                  "name": "amount",
                  "type": "uint256"
                }
              ],
              "internalType": "struct AssetAmount[]",
              "name": "outputAssetAmounts",
              "type": "tuple[]"
            },
            {
              "internalType": "int16",
              "name": "nextStepIndex",
              "type": "int16"
            }
          ],
          "internalType": "struct WorkflowStepResult",
          "name": "",
          "type": "tuple"
        }
      ],
      "stateMutability": "payable",
      "type": "function"
    }
  ],
  "bytecode": "0x608060405234801561001057600080fd5b5061135b806100206000396000f3fe60806040526004361061001e5760003560e01c80632b53501314610023575b600080fd5b61003d600480360381019061003891906108a8565b610053565b60405161004a9190610b93565b60405180910390f35b61005b610704565b600087879050146100a1576040517f08c379a000000000000000000000000000000000000000000000000000000000815260040161009890610c38565b60405180910390fd5b600185859050146100e7576040517f08c379a00000000000000000000000000000000000000000000000000000000081526004016100de90610cca565b60405180910390fd5b600160028111156100fb576100fa610988565b5b8585600081811061010f5761010e610cea565b5b90506040020160000160208101906101279190610d3e565b600281111561013957610138610988565b5b14610179576040517f08c379a000000000000000000000000000000000000000000000000000000000815260040161017090610ddd565b60405180910390fd5b6000838381019061018a9190610f36565b90507fabb44722ff409d4247e0b60194fc6cd7b4a416644f1f662172705d211b9470a08160000151878760008181106101c6576101c5610cea565b5b90506040020160000160208101906101de9190610d3e565b888860008181106101f2576101f1610cea565b5b905060400201602001602081019061020a9190610f63565b846020015160405161021f9493929190610fbd565b60405180910390a160008686600081811061023d5761023c610cea565b5b90506040020160200160208101906102559190610f63565b905061026b8183600001513085602001516102b2565b6102a48787600081811061028257610281610cea565b5b905060400201602001602081019061029a9190610f63565b836020015161033b565b925050509695505050505050565b610335846323b872dd60e01b8585856040516024016102d393929190611002565b604051602081830303815290604052907bffffffffffffffffffffffffffffffffffffffffffffffffffffffff19166020820180517bffffffffffffffffffffffffffffffffffffffffffffffffffffffff8381831617835250505050610357565b50505050565b610343610704565b61034f6001848461041e565b905092915050565b60006103b9826040518060400160405280602081526020017f5361666545524332303a206c6f772d6c6576656c2063616c6c206661696c65648152508573ffffffffffffffffffffffffffffffffffffffff166105379092919063ffffffff16565b905060008151111561041957808060200190518101906103d99190611071565b610418576040517f08c379a000000000000000000000000000000000000000000000000000000000815260040161040f90611110565b60405180910390fd5b5b505050565b610426610704565b6000604051806040016040528086600281111561044657610445610988565b5b81526020018573ffffffffffffffffffffffffffffffffffffffff1681525090506000600167ffffffffffffffff81111561048457610483610e13565b5b6040519080825280602002602001820160405280156104bd57816020015b6104aa610721565b8152602001906001900390816104a25790505b509050604051806040016040528083815260200185815250816000815181106104e9576104e8610cea565b5b602002602001018190525060405180604001604052808281526020017fffffffffffffffffffffffffffffffffffffffffffffffffffffffffffffffff60010b815250925050509392505050565b6060610546848460008561054f565b90509392505050565b606082471015610594576040517f08c379a000000000000000000000000000000000000000000000000000000000815260040161058b906111a2565b60405180910390fd5b6000808673ffffffffffffffffffffffffffffffffffffffff1685876040516105bd919061123c565b60006040518083038185875af1925050503d80600081146105fa576040519150601f19603f3d011682016040523d82523d6000602084013e6105ff565b606091505b50915091506106108783838761061c565b92505050949350505050565b6060831561067e5760008351036106765761063685610691565b610675576040517f08c379a000000000000000000000000000000000000000000000000000000000815260040161066c9061129f565b60405180910390fd5b5b829050610689565b61068883836106b4565b5b949350505050565b6000808273ffffffffffffffffffffffffffffffffffffffff163b119050919050565b6000825111156106c75781518083602001fd5b806040517f08c379a00000000000000000000000000000000000000000000000000000000081526004016106fb9190611303565b60405180910390fd5b604051806040016040528060608152602001600060010b81525090565b6040518060400160405280610734610741565b8152602001600081525090565b6040518060400160405280600060028111156107605761075f610988565b5b8152602001600073ffffffffffffffffffffffffffffffffffffffff1681525090565b6000604051905090565b600080fd5b600080fd5b600080fd5b600080fd5b600080fd5b60008083601f8401126107bc576107bb610797565b5b8235905067ffffffffffffffff8111156107d9576107d861079c565b5b6020830191508360608202830111156107f5576107f46107a1565b5b9250929050565b60008083601f84011261081257610811610797565b5b8235905067ffffffffffffffff81111561082f5761082e61079c565b5b60208301915083604082028301111561084b5761084a6107a1565b5b9250929050565b60008083601f84011261086857610867610797565b5b8235905067ffffffffffffffff8111156108855761088461079c565b5b6020830191508360018202830111156108a1576108a06107a1565b5b9250929050565b600080600080600080606087890312156108c5576108c461078d565b5b600087013567ffffffffffffffff8111156108e3576108e2610792565b5b6108ef89828a016107a6565b9650965050602087013567ffffffffffffffff81111561091257610911610792565b5b61091e89828a016107fc565b9450945050604087013567ffffffffffffffff81111561094157610940610792565b5b61094d89828a01610852565b92509250509295509295509295565b600081519050919050565b600082825260208201905092915050565b6000819050602082019050919050565b7f4e487b7100000000000000000000000000000000000000000000000000000000600052602160045260246000fd5b600381106109c8576109c7610988565b5b50565b60008190506109d9826109b7565b919050565b60006109e9826109cb565b9050919050565b6109f9816109de565b82525050565b600073ffffffffffffffffffffffffffffffffffffffff82169050919050565b6000610a2a826109ff565b9050919050565b610a3a81610a1f565b82525050565b604082016000820151610a5660008501826109f0565b506020820151610a696020850182610a31565b50505050565b6000819050919050565b610a8281610a6f565b82525050565b606082016000820151610a9e6000850182610a40565b506020820151610ab16040850182610a79565b50505050565b6000610ac38383610a88565b60608301905092915050565b6000602082019050919050565b6000610ae78261095c565b610af18185610967565b9350610afc83610978565b8060005b83811015610b2d578151610b148882610ab7565b9750610b1f83610acf565b925050600181019050610b00565b5085935050505092915050565b60008160010b9050919050565b610b5081610b3a565b82525050565b60006040830160008301518482036000860152610b738282610adc565b9150506020830151610b886020860182610b47565b508091505092915050565b60006020820190508181036000830152610bad8184610b56565b905092915050565b600082825260208201905092915050565b7f416464546f6b656e416374696f6e206d7573742068617665203020696e70757460008201527f2061737365747300000000000000000000000000000000000000000000000000602082015250565b6000610c22602783610bb5565b9150610c2d82610bc6565b604082019050919050565b60006020820190508181036000830152610c5181610c15565b9050919050565b7f416464546f6b656e416374696f6e206d75737420686176652031206f7574707560008201527f7420617373657400000000000000000000000000000000000000000000000000602082015250565b6000610cb4602783610bb5565b9150610cbf82610c58565b604082019050919050565b60006020820190508181036000830152610ce381610ca7565b9050919050565b7f4e487b7100000000000000000000000000000000000000000000000000000000600052603260045260246000fd5b60038110610d2657600080fd5b50565b600081359050610d3881610d19565b92915050565b600060208284031215610d5457610d5361078d565b5b6000610d6284828501610d29565b91505092915050565b7f416464546f6b656e416374696f6e2063757272656e746c79206f6e6c7920737560008201527f70706f7274732045524332307300000000000000000000000000000000000000602082015250565b6000610dc7602d83610bb5565b9150610dd282610d6b565b604082019050919050565b60006020820190508181036000830152610df681610dba565b9050919050565b600080fd5b6000601f19601f8301169050919050565b7f4e487b7100000000000000000000000000000000000000000000000000000000600052604160045260246000fd5b610e4b82610e02565b810181811067ffffffffffffffff82111715610e6a57610e69610e13565b5b80604052505050565b6000610e7d610783565b9050610e898282610e42565b919050565b610e9781610a1f565b8114610ea257600080fd5b50565b600081359050610eb481610e8e565b92915050565b610ec381610a6f565b8114610ece57600080fd5b50565b600081359050610ee081610eba565b92915050565b600060408284031215610efc57610efb610dfd565b5b610f066040610e73565b90506000610f1684828501610ea5565b6000830152506020610f2a84828501610ed1565b60208301525092915050565b600060408284031215610f4c57610f4b61078d565b5b6000610f5a84828501610ee6565b91505092915050565b600060208284031215610f7957610f7861078d565b5b6000610f8784828501610ea5565b91505092915050565b610f9981610a1f565b82525050565b610fa8816109de565b82525050565b610fb781610a6f565b82525050565b6000608082019050610fd26000830187610f90565b610fdf6020830186610f9f565b610fec6040830185610f90565b610ff96060830184610fae565b95945050505050565b60006060820190506110176000830186610f90565b6110246020830185610f90565b6110316040830184610fae565b949350505050565b60008115159050919050565b61104e81611039565b811461105957600080fd5b50565b60008151905061106b81611045565b92915050565b6000602082840312156110875761108661078d565b5b60006110958482850161105c565b91505092915050565b7f5361666545524332303a204552433230206f7065726174696f6e20646964206e60008201527f6f74207375636365656400000000000000000000000000000000000000000000602082015250565b60006110fa602a83610bb5565b91506111058261109e565b604082019050919050565b60006020820190508181036000830152611129816110ed565b9050919050565b7f416464726573733a20696e73756666696369656e742062616c616e636520666f60008201527f722063616c6c0000000000000000000000000000000000000000000000000000602082015250565b600061118c602683610bb5565b915061119782611130565b604082019050919050565b600060208201905081810360008301526111bb8161117f565b9050919050565b600081519050919050565b600081905092915050565b60005b838110156111f65780820151818401526020810190506111db565b83811115611205576000848401525b50505050565b6000611216826111c2565b61122081856111cd565b93506112308185602086016111d8565b80840191505092915050565b6000611248828461120b565b915081905092915050565b7f416464726573733a2063616c6c20746f206e6f6e2d636f6e7472616374000000600082015250565b6000611289601d83610bb5565b915061129482611253565b602082019050919050565b600060208201905081810360008301526112b88161127c565b9050919050565b600081519050919050565b60006112d5826112bf565b6112df8185610bb5565b93506112ef8185602086016111d8565b6112f881610e02565b840191505092915050565b6000602082019050818103600083015261131d81846112ca565b90509291505056fea26469706673582212204758e6d3c70e99e5e09069c9cec5b8c7284e016e3ec355c13b71fb15da19ce9164736f6c634300080d0033",
  "immutableReferences": {},
  "source": "// SPDX-License-Identifier: MIT\npragma solidity ^0.8.13;\nimport '@openzeppelin/contracts/token/ERC20/utils/SafeERC20.sol';\nimport '../../IWorkflowStep.sol';\nimport '../../LibAsset.sol';\nimport '../../LibActionHelpers.sol';\nimport '../../model/Asset.sol';\nimport '../../model/AssetAmount.sol';\n\nstruct AddAssetActionArgs {\n  address userAddress;\n  uint256 amount;\n}\n\ncontract AddAssetAction is IWorkflowStep {\n  event AssetAdded(address userAddress, AssetType assetType, address assetAddress, uint256 amount);\n\n  function execute(\n    AssetAmount[] calldata inputAssetAmounts,\n    Asset[] calldata outputAssets,\n    bytes calldata data\n  ) external payable returns (WorkflowStepResult memory) {\n    // validate\n    require(inputAssetAmounts.length == 0, 'AddTokenAction must have 0 input assets');\n    require(outputAssets.length == 1, 'AddTokenAction must have 1 output asset');\n    require(outputAssets[0].assetType == AssetType.ERC20, 'AddTokenAction currently only supports ERC20s');\n\n    // decode arguments\n    AddAssetActionArgs memory args = abi.decode(data, (AddAssetActionArgs));\n    emit AssetAdded(args.userAddress, outputAssets[0].assetType, outputAssets[0].assetAddress, args.amount);\n    IERC20 erc20 = IERC20(outputAssets[0].assetAddress);\n\n    // transfer the token to this\n    SafeERC20.safeTransferFrom(erc20, args.userAddress, address(this), args.amount);\n\n    // return amount transferred\n    return LibActionHelpers.singleTokenResult(outputAssets[0].assetAddress, args.amount);\n  }\n}\n",
  "sourcePath": "/home/asdf/fmp3/platform/evm/contracts/actions/addToken/AddAssetAction.sol",
  "compiler": {
    "name": "solc",
    "version": "0.8.13+commit.abaa5c0e.Emscripten.clang"
  },
  "schemaVersion": "3.4.11",
  "updatedAt": "2023-02-05T18:33:19.032Z",
  "devdoc": {
    "kind": "dev",
    "methods": {},
    "version": 1
  },
  "userdoc": {
    "kind": "user",
    "methods": {},
    "version": 1
  }
}