{
  "contractName": "Dictionary",
  "abi": [
    {
      "inputs": [],
      "name": "newInstance",
      "outputs": [
        {
          "components": [
            {
              "components": [
                {
                  "internalType": "uint256",
                  "name": "key",
                  "type": "uint256"
                },
                {
                  "internalType": "uint256",
                  "name": "value",
                  "type": "uint256"
                }
              ],
              "internalType": "struct Dictionary.Entry[100]",
              "name": "entries",
              "type": "tuple[100]"
            },
            {
              "internalType": "uint8",
              "name": "end",
              "type": "uint8"
            }
          ],
          "internalType": "struct Dictionary.DictionaryInstance",
          "name": "",
          "type": "tuple"
        }
      ],
      "stateMutability": "pure",
      "type": "function"
    }
  ],
  "bytecode": "0x61025d610053600b82828239805160001a607314610046577f4e487b7100000000000000000000000000000000000000000000000000000000600052600060045260246000fd5b30600052607381538281f3fe73000000000000000000000000000000000000000030146080604052600436106100355760003560e01c80635219cfa51461003a575b600080fd5b610042610058565b60405161004f919061020b565b60405180910390f35b61006061006f565b61006861006f565b8091505090565b6040518060400160405280610082610092565b8152602001600060ff1681525090565b60405180610c8001604052806064905b6100aa6100c0565b8152602001906001900390816100a25790505090565b604051806040016040528060008152602001600081525090565b600060649050919050565b600081905092915050565b6000819050919050565b6000819050919050565b61010d816100fa565b82525050565b6040820160008201516101296000850182610104565b50602082015161013c6020850182610104565b50505050565b600061014e8383610113565b60408301905092915050565b6000602082019050919050565b610170816100da565b61017a81846100e5565b9250610185826100f0565b8060005b838110156101b657815161019d8782610142565b96506101a88361015a565b925050600181019050610189565b505050505050565b600060ff82169050919050565b6101d4816101be565b82525050565b611920820160008201516101f16000850182610167565b5060208201516102056119008501826101cb565b50505050565b60006119208201905061022160008301846101da565b9291505056fea2646970667358221220a06178dcf48100917cb0c8a7392e4fa911440eab57353c3f44268e537f6b6cbe64736f6c634300080d0033",
  "immutableReferences": {},
  "source": "// SPDX-License-Identifier: MIT\npragma solidity ^0.8.13;\n\n/// @dev An in-memory key/value store\nlibrary Dictionary {\n  uint256 constant MAX_ENTRIES = 100;\n\n  struct Entry {\n    uint256 key;\n    uint256 value;\n  }\n\n  struct DictionaryInstance {\n    Entry[MAX_ENTRIES] entries;\n    uint8 end;\n  }\n\n  function newInstance() external pure returns (DictionaryInstance memory) {\n    DictionaryInstance memory dic;\n    return dic;\n  }\n\n  function get(DictionaryInstance memory entrySet, uint256 key) internal pure returns (uint256) {\n    for (uint8 i = 0; i < entrySet.end; ++i) {\n      if (entrySet.entries[i].key == key) {\n        return entrySet.entries[i].value;\n      }\n    }\n    return 0;\n  }\n\n  function set(\n    DictionaryInstance memory self,\n    uint256 key,\n    uint256 value\n  ) internal pure {\n    // linear search for existing key\n    for (uint8 i = 0; i < self.end; ++i) {\n      if (self.entries[i].key == key) {\n        self.entries[i].value = value;\n        return;\n      }\n    }\n    // if we're still here then key was not found\n    require(self.end < MAX_ENTRIES, 'too many dictionary entries');\n    // add the key/val to the dic at the end\n    self.entries[self.end] = Entry(key, value);\n    ++self.end;\n  }\n\n  function remove(DictionaryInstance memory self, uint256 key) internal pure {\n    uint8 i = 0;\n    for (; i < self.end; ++i) {\n      if (self.entries[i].key == key) {\n        // end is exclusive, so 'at the end' is at index end-1\n        uint8 endMinusOne = self.end - 1;\n        // if it's not at the end, swap the last entry into this newly empty slot\n        if (i != endMinusOne) {\n          self.entries[i] = self.entries[endMinusOne];\n        }\n        // decrement end\n        self.end = endMinusOne;\n        return;\n      }\n    }\n    require(i < self.end, 'key not found while removing');\n  }\n}\n",
  "sourcePath": "/home/asdf/fmp3/platform/evm/contracts/Dictionary.sol",
  "compiler": {
    "name": "solc",
    "version": "0.8.13+commit.abaa5c0e.Emscripten.clang"
  },
  "schemaVersion": "3.4.11",
  "updatedAt": "2023-02-05T18:33:18.989Z",
  "devdoc": {
    "details": "An in-memory key/value store",
    "kind": "dev",
    "methods": {},
    "version": 1
  },
  "userdoc": {
    "kind": "user",
    "methods": {},
    "version": 1
  }
}