{
  "contractName": "FreeMarketBase",
  "abi": [
    {
      "inputs": [
        {
          "internalType": "address",
          "name": "owner",
          "type": "address"
        },
        {
          "internalType": "address",
          "name": "eternalStorage",
          "type": "address"
        },
        {
          "internalType": "address",
          "name": "upstream",
          "type": "address"
        },
        {
          "internalType": "bool",
          "name": "userProxy",
          "type": "bool"
        }
      ],
      "stateMutability": "nonpayable",
      "type": "constructor"
    },
    {
      "anonymous": false,
      "inputs": [
        {
          "indexed": false,
          "internalType": "address",
          "name": "sender",
          "type": "address"
        },
        {
          "indexed": false,
          "internalType": "address",
          "name": "newOwner",
          "type": "address"
        }
      ],
      "name": "LogNewOwner",
      "type": "event"
    },
    {
      "inputs": [],
      "name": "eternalStorageAddress",
      "outputs": [
        {
          "internalType": "address",
          "name": "",
          "type": "address"
        }
      ],
      "stateMutability": "view",
      "type": "function"
    },
    {
      "inputs": [],
      "name": "isUserProxy",
      "outputs": [
        {
          "internalType": "bool",
          "name": "",
          "type": "bool"
        }
      ],
      "stateMutability": "view",
      "type": "function"
    },
    {
      "inputs": [],
      "name": "owner",
      "outputs": [
        {
          "internalType": "address payable",
          "name": "",
          "type": "address"
        }
      ],
      "stateMutability": "view",
      "type": "function"
    },
    {
      "inputs": [
        {
          "internalType": "address payable",
          "name": "newOwner",
          "type": "address"
        }
      ],
      "name": "setOwner",
      "outputs": [],
      "stateMutability": "nonpayable",
      "type": "function"
    },
    {
      "inputs": [],
      "name": "upstreamAddress",
      "outputs": [
        {
          "internalType": "address",
          "name": "",
          "type": "address"
        }
      ],
      "stateMutability": "view",
      "type": "function"
    }
  ],
  "bytecode": "0x608060405234801561001057600080fd5b50604051610694380380610694833981810160405281019061003291906101b4565b83806000806101000a81548173ffffffffffffffffffffffffffffffffffffffff021916908373ffffffffffffffffffffffffffffffffffffffff1602179055505082600160006101000a81548173ffffffffffffffffffffffffffffffffffffffff021916908373ffffffffffffffffffffffffffffffffffffffff16021790555081600260006101000a81548173ffffffffffffffffffffffffffffffffffffffff021916908373ffffffffffffffffffffffffffffffffffffffff16021790555080600260146101000a81548160ff0219169083151502179055505050505061021b565b600080fd5b600073ffffffffffffffffffffffffffffffffffffffff82169050919050565b60006101498261011e565b9050919050565b6101598161013e565b811461016457600080fd5b50565b60008151905061017681610150565b92915050565b60008115159050919050565b6101918161017c565b811461019c57600080fd5b50565b6000815190506101ae81610188565b92915050565b600080600080608085870312156101ce576101cd610119565b5b60006101dc87828801610167565b94505060206101ed87828801610167565b93505060406101fe87828801610167565b925050606061020f8782880161019f565b91505092959194509250565b61046a8061022a6000396000f3fe608060405234801561001057600080fd5b50600436106100575760003560e01c806313af40351461005c57806332b56aaf14610078578063384782fe146100965780638da5cb5b146100b4578063ff05c2a8146100d2575b600080fd5b610076600480360381019061007191906102e3565b6100f0565b005b6100806101fd565b60405161008d9190610331565b60405180910390f35b61009e610223565b6040516100ab9190610331565b60405180910390f35b6100bc610249565b6040516100c9919061035b565b60405180910390f35b6100da61026d565b6040516100e79190610391565b60405180910390f35b60008054906101000a900473ffffffffffffffffffffffffffffffffffffffff1673ffffffffffffffffffffffffffffffffffffffff163373ffffffffffffffffffffffffffffffffffffffff161461014857600080fd5b600073ffffffffffffffffffffffffffffffffffffffff168173ffffffffffffffffffffffffffffffffffffffff160361018157600080fd5b806000806101000a81548173ffffffffffffffffffffffffffffffffffffffff021916908373ffffffffffffffffffffffffffffffffffffffff1602179055507f1f8d7d25344642d919d55999e4664aa452a5f424bc0936ceb9c2b300db7dcbd933826040516101f292919061040b565b60405180910390a150565b600260009054906101000a900473ffffffffffffffffffffffffffffffffffffffff1681565b600160009054906101000a900473ffffffffffffffffffffffffffffffffffffffff1681565b60008054906101000a900473ffffffffffffffffffffffffffffffffffffffff1681565b600260149054906101000a900460ff1681565b600080fd5b600073ffffffffffffffffffffffffffffffffffffffff82169050919050565b60006102b082610285565b9050919050565b6102c0816102a5565b81146102cb57600080fd5b50565b6000813590506102dd816102b7565b92915050565b6000602082840312156102f9576102f8610280565b5b6000610307848285016102ce565b91505092915050565b600061031b82610285565b9050919050565b61032b81610310565b82525050565b60006020820190506103466000830184610322565b92915050565b610355816102a5565b82525050565b6000602082019050610370600083018461034c565b92915050565b60008115159050919050565b61038b81610376565b82525050565b60006020820190506103a66000830184610382565b92915050565b6000819050919050565b60006103d16103cc6103c784610285565b6103ac565b610285565b9050919050565b60006103e3826103b6565b9050919050565b60006103f5826103d8565b9050919050565b610405816103ea565b82525050565b60006040820190506104206000830185610322565b61042d60208301846103fc565b939250505056fea2646970667358221220d14ca8132885515c63671e352efa4b7d890ef137025d57568420c1673668960364736f6c634300080d0033",
  "immutableReferences": {},
  "source": "// SPDX-License-Identifier: MIT\npragma solidity ^0.8.13;\nimport './Ownable.sol';\n\ncontract FreeMarketBase is Ownable {\n  // TODO create getters\n  address public eternalStorageAddress;\n  address public upstreamAddress;\n  bool public isUserProxy;\n\n  constructor(\n    address owner,\n    address eternalStorage,\n    address upstream,\n    bool userProxy\n  ) Ownable(owner) {\n    eternalStorageAddress = eternalStorage;\n    upstreamAddress = upstream;\n    isUserProxy = userProxy;\n  }\n}\n",
  "sourcePath": "/home/asdf/fmp3/platform/evm/contracts/FreeMarketBase.sol",
  "compiler": {
    "name": "solc",
    "version": "0.8.13+commit.abaa5c0e.Emscripten.clang"
  },
  "schemaVersion": "3.4.11",
  "updatedAt": "2023-02-05T18:33:19.000Z",
  "devdoc": {
    "kind": "dev",
    "methods": {},
    "version": 1
  },
  "userdoc": {
    "kind": "user",
    "methods": {},
    "version": 1
  }
}