{
  "contractName": "FrontDoor",
  "abi": [
    {
      "inputs": [],
      "stateMutability": "nonpayable",
      "type": "constructor"
    },
    {
      "anonymous": false,
      "inputs": [
        {
          "indexed": false,
          "internalType": "address",
          "name": "sender",
          "type": "address"
        },
        {
          "indexed": false,
          "internalType": "address",
          "name": "newOwner",
          "type": "address"
        }
      ],
      "name": "LogNewOwner",
      "type": "event"
    },
    {
      "anonymous": false,
      "inputs": [
        {
          "indexed": false,
          "internalType": "address",
          "name": "oldUpstream",
          "type": "address"
        },
        {
          "indexed": false,
          "internalType": "address",
          "name": "newUpstream",
          "type": "address"
        }
      ],
      "name": "UpstreamChanged",
      "type": "event"
    },
    {
      "stateMutability": "payable",
      "type": "fallback"
    },
    {
      "inputs": [],
      "name": "eternalStorageAddress",
      "outputs": [
        {
          "internalType": "address",
          "name": "",
          "type": "address"
        }
      ],
      "stateMutability": "view",
      "type": "function"
    },
    {
      "inputs": [],
      "name": "getUpstream",
      "outputs": [
        {
          "internalType": "address",
          "name": "",
          "type": "address"
        }
      ],
      "stateMutability": "view",
      "type": "function"
    },
    {
      "inputs": [],
      "name": "isUserProxy",
      "outputs": [
        {
          "internalType": "bool",
          "name": "",
          "type": "bool"
        }
      ],
      "stateMutability": "view",
      "type": "function"
    },
    {
      "inputs": [],
      "name": "owner",
      "outputs": [
        {
          "internalType": "address payable",
          "name": "",
          "type": "address"
        }
      ],
      "stateMutability": "view",
      "type": "function"
    },
    {
      "inputs": [
        {
          "internalType": "address payable",
          "name": "newOwner",
          "type": "address"
        }
      ],
      "name": "setOwner",
      "outputs": [],
      "stateMutability": "nonpayable",
      "type": "function"
    },
    {
      "inputs": [],
      "name": "upstreamAddress",
      "outputs": [
        {
          "internalType": "address",
          "name": "",
          "type": "address"
        }
      ],
      "stateMutability": "view",
      "type": "function"
    },
    {
      "stateMutability": "payable",
      "type": "receive"
    },
    {
      "inputs": [
        {
          "internalType": "address",
          "name": "newUpstream",
          "type": "address"
        }
      ],
      "name": "setUpstream",
      "outputs": [],
      "stateMutability": "nonpayable",
      "type": "function"
    }
  ],
  "bytecode": "0x60806040523480156200001157600080fd5b503333306040516200002390620002f7565b620000309291906200034a565b604051809103906000f0801580156200004d573d6000803e3d6000fd5b506000808383838383806000806101000a81548173ffffffffffffffffffffffffffffffffffffffff021916908373ffffffffffffffffffffffffffffffffffffffff1602179055505082600160006101000a81548173ffffffffffffffffffffffffffffffffffffffff021916908373ffffffffffffffffffffffffffffffffffffffff16021790555081600260006101000a81548173ffffffffffffffffffffffffffffffffffffffff021916908373ffffffffffffffffffffffffffffffffffffffff16021790555080600260146101000a81548160ff021916908315150217905550505050505050505060006040516020016200014e90620003d2565b604051602081830303815290604052805190602001209050620001a0600160009054906101000a900473ffffffffffffffffffffffffffffffffffffffff168230620001a760201b620004fa1760201c565b506200055f565b6000808473ffffffffffffffffffffffffffffffffffffffff168484604051602401620001d692919062000404565b6040516020818303038152906040527fca446dd9000000000000000000000000000000000000000000000000000000007bffffffffffffffffffffffffffffffffffffffffffffffffffffffff19166020820180517bffffffffffffffffffffffffffffffffffffffffffffffffffffffff8381831617835250505050604051620002629190620004b4565b600060405180830381855af49150503d80600081146200029f576040519150601f19603f3d011682016040523d82523d6000602084013e620002a4565b606091505b5091509150818190620002ef576040517f08c379a0000000000000000000000000000000000000000000000000000000008152600401620002e691906200053b565b60405180910390fd5b505050505050565b6139038062000fb983390190565b600073ffffffffffffffffffffffffffffffffffffffff82169050919050565b6000620003328262000305565b9050919050565b620003448162000325565b82525050565b600060408201905062000361600083018562000339565b62000370602083018462000339565b9392505050565b600081905092915050565b7f66726f6e74446f6f720000000000000000000000000000000000000000000000600082015250565b6000620003ba60098362000377565b9150620003c78262000382565b600982019050919050565b6000620003df82620003ab565b9150819050919050565b6000819050919050565b620003fe81620003e9565b82525050565b60006040820190506200041b6000830185620003f3565b6200042a602083018462000339565b9392505050565b600081519050919050565b600081905092915050565b60005b83811015620004675780820151818401526020810190506200044a565b8381111562000477576000848401525b50505050565b60006200048a8262000431565b6200049681856200043c565b9350620004a881856020860162000447565b80840191505092915050565b6000620004c282846200047d565b915081905092915050565b600081519050919050565b600082825260208201905092915050565b6000601f19601f8301169050919050565b60006200050782620004cd565b620005138185620004d8565b93506200052581856020860162000447565b6200053081620004e9565b840191505092915050565b60006020820190508181036000830152620005578184620004fa565b905092915050565b610a4a806200056f6000396000f3fe6080604052600436106100745760003560e01c806356dececb1161004e57806356dececb14610173578063742ec6661461019e5780638da5cb5b146101c7578063ff05c2a8146101f25761007b565b806313af4035146100f457806332b56aaf1461011d578063384782fe146101485761007b565b3661007b57005b6100f23073ffffffffffffffffffffffffffffffffffffffff166356dececb6040518163ffffffff1660e01b8152600401602060405180830381865afa1580156100c9573d6000803e3d6000fd5b505050506040513d601f19601f820116820180604052508101906100ed91906106a4565b61021d565b005b34801561010057600080fd5b5061011b6004803603810190610116919061070f565b610243565b005b34801561012957600080fd5b50610132610350565b60405161013f919061074b565b60405180910390f35b34801561015457600080fd5b5061015d610376565b60405161016a919061074b565b60405180910390f35b34801561017f57600080fd5b5061018861039c565b604051610195919061074b565b60405180910390f35b3480156101aa57600080fd5b506101c560048036038101906101c0919061077b565b6103c6565b005b3480156101d357600080fd5b506101dc6104c3565b6040516101e991906107b7565b60405180910390f35b3480156101fe57600080fd5b506102076104e7565b60405161021491906107ed565b60405180910390f35b3660008037600080366000845af43d6000803e806000811461023e573d6000f35b3d6000fd5b60008054906101000a900473ffffffffffffffffffffffffffffffffffffffff1673ffffffffffffffffffffffffffffffffffffffff163373ffffffffffffffffffffffffffffffffffffffff161461029b57600080fd5b600073ffffffffffffffffffffffffffffffffffffffff168173ffffffffffffffffffffffffffffffffffffffff16036102d457600080fd5b806000806101000a81548173ffffffffffffffffffffffffffffffffffffffff021916908373ffffffffffffffffffffffffffffffffffffffff1602179055507f1f8d7d25344642d919d55999e4664aa452a5f424bc0936ceb9c2b300db7dcbd93382604051610345929190610867565b60405180910390a150565b600260009054906101000a900473ffffffffffffffffffffffffffffffffffffffff1681565b600160009054906101000a900473ffffffffffffffffffffffffffffffffffffffff1681565b6000600260009054906101000a900473ffffffffffffffffffffffffffffffffffffffff16905090565b60008054906101000a900473ffffffffffffffffffffffffffffffffffffffff1673ffffffffffffffffffffffffffffffffffffffff163373ffffffffffffffffffffffffffffffffffffffff161461041e57600080fd5b6000600260009054906101000a900473ffffffffffffffffffffffffffffffffffffffff16905081600260006101000a81548173ffffffffffffffffffffffffffffffffffffffff021916908373ffffffffffffffffffffffffffffffffffffffff1602179055507f44046d68f1959a9a0df452473181c07837a948176bf1a8a05c24b69c58c806c581836040516104b7929190610890565b60405180910390a15050565b60008054906101000a900473ffffffffffffffffffffffffffffffffffffffff1681565b600260149054906101000a900460ff1681565b6000808473ffffffffffffffffffffffffffffffffffffffff1684846040516024016105279291906108d2565b6040516020818303038152906040527fca446dd9000000000000000000000000000000000000000000000000000000007bffffffffffffffffffffffffffffffffffffffffffffffffffffffff19166020820180517bffffffffffffffffffffffffffffffffffffffffffffffffffffffff83818316178352505050506040516105b19190610975565b600060405180830381855af49150503d80600081146105ec576040519150601f19603f3d011682016040523d82523d6000602084013e6105f1565b606091505b5091509150818190610639576040517f08c379a000000000000000000000000000000000000000000000000000000000815260040161063091906109f2565b60405180910390fd5b505050505050565b600080fd5b600073ffffffffffffffffffffffffffffffffffffffff82169050919050565b600061067182610646565b9050919050565b61068181610666565b811461068c57600080fd5b50565b60008151905061069e81610678565b92915050565b6000602082840312156106ba576106b9610641565b5b60006106c88482850161068f565b91505092915050565b60006106dc82610646565b9050919050565b6106ec816106d1565b81146106f757600080fd5b50565b600081359050610709816106e3565b92915050565b60006020828403121561072557610724610641565b5b6000610733848285016106fa565b91505092915050565b61074581610666565b82525050565b6000602082019050610760600083018461073c565b92915050565b60008135905061077581610678565b92915050565b60006020828403121561079157610790610641565b5b600061079f84828501610766565b91505092915050565b6107b1816106d1565b82525050565b60006020820190506107cc60008301846107a8565b92915050565b60008115159050919050565b6107e7816107d2565b82525050565b600060208201905061080260008301846107de565b92915050565b6000819050919050565b600061082d61082861082384610646565b610808565b610646565b9050919050565b600061083f82610812565b9050919050565b600061085182610834565b9050919050565b61086181610846565b82525050565b600060408201905061087c600083018561073c565b6108896020830184610858565b9392505050565b60006040820190506108a5600083018561073c565b6108b2602083018461073c565b9392505050565b6000819050919050565b6108cc816108b9565b82525050565b60006040820190506108e760008301856108c3565b6108f4602083018461073c565b9392505050565b600081519050919050565b600081905092915050565b60005b8381101561092f578082015181840152602081019050610914565b8381111561093e576000848401525b50505050565b600061094f826108fb565b6109598185610906565b9350610969818560208601610911565b80840191505092915050565b60006109818284610944565b915081905092915050565b600081519050919050565b600082825260208201905092915050565b6000601f19601f8301169050919050565b60006109c48261098c565b6109ce8185610997565b93506109de818560208601610911565b6109e7816109a8565b840191505092915050565b60006020820190508181036000830152610a0c81846109b9565b90509291505056fea2646970667358221220d9a1b2bf18d5eead1e3dd69cea2258ba95cc99a59322353d5354f18b4863fc4664736f6c634300080d003360806040523480156200001157600080fd5b50604051620039033803806200390383398181016040528101906200003791906200012c565b81806000806101000a81548173ffffffffffffffffffffffffffffffffffffffff021916908373ffffffffffffffffffffffffffffffffffffffff1602179055505080600160006101000a81548173ffffffffffffffffffffffffffffffffffffffff021916908373ffffffffffffffffffffffffffffffffffffffff160217905550505062000173565b600080fd5b600073ffffffffffffffffffffffffffffffffffffffff82169050919050565b6000620000f482620000c7565b9050919050565b6200010681620000e7565b81146200011257600080fd5b50565b6000815190506200012681620000fb565b92915050565b60008060408385031215620001465762000145620000c2565b5b6000620001568582860162000115565b9250506020620001698582860162000115565b9150509250929050565b61378080620001836000396000f3fe608060405234801561001057600080fd5b50600436106103835760003560e01c80637cdb6d07116101de578063c031a1801161010f578063df1a2aa6116100ad578063f6bb3cc41161007c578063f6bb3cc414610bf3578063f90264dd14610c0f578063fa15991c14610c40578063fa6d9e4c14610c7157610383565b8063df1a2aa614610b5b578063e2a4853a14610b8b578063e2b202bf14610ba7578063f283c64214610bc357610383565b8063d3e647e5116100e9578063d3e647e514610aac578063d66e572614610add578063dbaa9bdf14610afb578063dc97d96214610b2b57610383565b8063c031a18014610a30578063ca446dd914610a60578063cd1b841a14610a7c57610383565b8063986e791a1161017c578063a6da297411610156578063a6da297414610984578063abfdcced146109b4578063ba4014fd146109d0578063bd02d0f514610a0057610383565b8063986e791a146108f45780639b0d10fd14610924578063a2ccb5221461095457610383565b80638c160095116101b85780638c1600951461085a5780638da5cb5b14610876578063931281361461089457806396b209f7146108c457610383565b80637cdb6d07146107dd578063814257631461080e578063832860721461082a57610383565b80632e28d084116102b857806361811533116102565780636d52cd40116102305780636d52cd40146107445780636e89955014610775578063705d9fd9146107915780637ae1cfca146107ad57610383565b806361811533146106c6578063619f6cc6146106f75780636a18de8f1461072857610383565b80633e49bed0116102925780633e49bed01461062d5780634e3d4004146106495780634fcee04914610679578063616b59f6146106aa57610383565b80632e28d084146105d95780633374dac7146105f557806339e205231461061157610383565b80631b31e13711610325578063263f0434116102ff578063263f04341461052d57806327b1164a1461055d5780632b7bc72c1461058d5780632c62ff2d146105bd57610383565b80631b31e137146104b15780631c639cc2146104e157806321f8a721146104fd57610383565b8063107f89ad11610361578063107f89ad1461040457806310c5c5da1461043457806313af403514610464578063155d86611461048057610383565b80630191acb7146103885780630e14a376146103b8578063100e2a0a146103d4575b600080fd5b6103a2600480360381019061039d9190612a98565b610ca2565b6040516103af9190612b06565b60405180910390f35b6103d260048036038101906103cd9190612b21565b610d2e565b005b6103ee60048036038101906103e99190612b4e565b610dc1565b6040516103fb9190612b06565b60405180910390f35b61041e60048036038101906104199190612bff565b610e4d565b60405161042b9190612b06565b60405180910390f35b61044e60048036038101906104499190612b21565b610ed9565b60405161045b9190612c61565b60405180910390f35b61047e60048036038101906104799190612cba565b610efd565b005b61049a60048036038101906104959190612ce7565b61100a565b6040516104a8929190612d27565b60405180910390f35b6104cb60048036038101906104c69190612b21565b61103d565b6040516104d89190612c61565b60405180910390f35b6104fb60048036038101906104f69190612d50565b611061565b005b61051760048036038101906105129190612b21565b6110e5565b6040516105249190612d9f565b60405180910390f35b61054760048036038101906105429190612dba565b611122565b6040516105549190612c61565b60405180910390f35b61057760048036038101906105729190612d50565b611151565b6040516105849190612b06565b60405180910390f35b6105a760048036038101906105a29190612d50565b611180565b6040516105b49190612e09565b60405180910390f35b6105d760048036038101906105d29190612b21565b6111af565b005b6105f360048036038101906105ee9190612f6a565b61122f565b005b61060f600480360381019061060a9190612dba565b6112b5565b005b61062b60048036038101906106269190612fc6565b611339565b005b61064760048036038101906106429190613029565b611430565b005b610663600480360381019061065e9190612d50565b6114a6565b6040516106709190612c61565b60405180910390f35b610693600480360381019061068e9190612dba565b6114d5565b6040516106a1929190613069565b60405180910390f35b6106c460048036038101906106bf9190612b21565b611508565b005b6106e060048036038101906106db9190612dba565b611584565b6040516106ee929190613092565b60405180910390f35b610711600480360381019061070c9190612dba565b6115b7565b60405161071f9291906130bb565b60405180910390f35b610742600480360381019061073d9190612d50565b6115ea565b005b61075e60048036038101906107599190612d50565b61166e565b60405161076c929190612d27565b60405180910390f35b61078f600480360381019061078a9190613185565b6116a1565b005b6107ab60048036038101906107a69190612dba565b611727565b005b6107c760048036038101906107c29190612b21565b6117ab565b6040516107d49190612b06565b60405180910390f35b6107f760048036038101906107f29190612dba565b6117d5565b6040516108059291906131e1565b60405180910390f35b61082860048036038101906108239190612ce7565b611808565b005b610844600480360381019061083f9190612b21565b61188c565b6040516108519190612c61565b60405180910390f35b610874600480360381019061086f9190612b21565b6118b0565b005b61087e611924565b60405161088b9190613219565b60405180910390f35b6108ae60048036038101906108a99190612ce7565b611948565b6040516108bb9190612b06565b60405180910390f35b6108de60048036038101906108d99190612dba565b611977565b6040516108eb9190612b06565b60405180910390f35b61090e60048036038101906109099190612b21565b6119a6565b60405161091b91906132bc565b60405180910390f35b61093e60048036038101906109399190612b21565b611a4b565b60405161094b9190612c61565b60405180910390f35b61096e60048036038101906109699190612dba565b611a6f565b60405161097b9190612d9f565b60405180910390f35b61099e60048036038101906109999190612ce7565b611a9e565b6040516109ab9190612c61565b60405180910390f35b6109ce60048036038101906109c9919061330a565b611acd565b005b6109ea60048036038101906109e5919061334a565b611b56565b6040516109f79190612b06565b60405180910390f35b610a1a6004803603810190610a159190612b21565b611be2565b604051610a279190612c61565b60405180910390f35b610a4a6004803603810190610a459190612b21565b611bff565b604051610a5791906133f2565b60405180910390f35b610a7a6004803603810190610a759190612ce7565b611ca4565b005b610a966004803603810190610a919190613414565b611cfa565b604051610aa39190612b06565b60405180910390f35b610ac66004803603810190610ac19190612d50565b611d86565b604051610ad4929190613467565b60405180910390f35b610ae5611db9565b604051610af29190612d9f565b60405180910390f35b610b156004803603810190610b109190612dba565b611de3565b604051610b229190612b06565b60405180910390f35b610b456004803603810190610b409190612b21565b611e12565b604051610b52919061349f565b60405180910390f35b610b756004803603810190610b709190612b21565b611e2f565b604051610b829190612c61565b60405180910390f35b610ba56004803603810190610ba09190612dba565b611e53565b005b610bc16004803603810190610bbc9190612b21565b611ec9565b005b610bdd6004803603810190610bd89190612d50565b611f3d565b604051610bea9190612b06565b60405180910390f35b610c0d6004803603810190610c089190612b21565b611f6c565b005b610c296004803603810190610c249190612dba565b611fe8565b604051610c379291906134ba565b60405180910390f35b610c5a6004803603810190610c559190612dba565b61201b565b604051610c68929190612d27565b60405180910390f35b610c8b6004803603810190610c869190612dba565b61204e565b604051610c999291906134e3565b60405180910390f35b6000600160009054906101000a900473ffffffffffffffffffffffffffffffffffffffff1673ffffffffffffffffffffffffffffffffffffffff163373ffffffffffffffffffffffffffffffffffffffff1614610cfe57600080fd5b610d258383600b60008881526020019081526020016000206120819092919063ffffffff16565b90509392505050565b600160009054906101000a900473ffffffffffffffffffffffffffffffffffffffff1673ffffffffffffffffffffffffffffffffffffffff163373ffffffffffffffffffffffffffffffffffffffff1614610d8857600080fd5b6004600082815260200190815260200160002060006101000a81549073ffffffffffffffffffffffffffffffffffffffff021916905550565b6000600160009054906101000a900473ffffffffffffffffffffffffffffffffffffffff1673ffffffffffffffffffffffffffffffffffffffff163373ffffffffffffffffffffffffffffffffffffffff1614610e1d57600080fd5b610e448383600c60008881526020019081526020016000206120a09092919063ffffffff16565b90509392505050565b6000600160009054906101000a900473ffffffffffffffffffffffffffffffffffffffff1673ffffffffffffffffffffffffffffffffffffffff163373ffffffffffffffffffffffffffffffffffffffff1614610ea957600080fd5b610ed08383600860008881526020019081526020016000206120bc9092919063ffffffff16565b90509392505050565b6000610ef6600a60008481526020019081526020016000206120f1565b9050919050565b60008054906101000a900473ffffffffffffffffffffffffffffffffffffffff1673ffffffffffffffffffffffffffffffffffffffff163373ffffffffffffffffffffffffffffffffffffffff1614610f5557600080fd5b600073ffffffffffffffffffffffffffffffffffffffff168173ffffffffffffffffffffffffffffffffffffffff1603610f8e57600080fd5b806000806101000a81548173ffffffffffffffffffffffffffffffffffffffff021916908373ffffffffffffffffffffffffffffffffffffffff1602179055507f1f8d7d25344642d919d55999e4664aa452a5f424bc0936ceb9c2b300db7dcbd93382604051610fff92919061356b565b60405180910390a150565b600080611032836009600087815260200190815260200160002061210690919063ffffffff16565b915091509250929050565b600061105a600c6000848152602001908152602001600020612148565b9050919050565b600160009054906101000a900473ffffffffffffffffffffffffffffffffffffffff1673ffffffffffffffffffffffffffffffffffffffff163373ffffffffffffffffffffffffffffffffffffffff16146110bb57600080fd5b6110e081600c600085815260200190815260200160002061215d90919063ffffffff16565b505050565b60006004600083815260200190815260200160002060009054906101000a900473ffffffffffffffffffffffffffffffffffffffff169050919050565b600061114982600b600086815260200190815260200160002061217490919063ffffffff16565b905092915050565b600061117882600c600086815260200190815260200160002061219190919063ffffffff16565b905092915050565b60006111a782600a60008681526020019081526020016000206121a890919063ffffffff16565b905092915050565b600160009054906101000a900473ffffffffffffffffffffffffffffffffffffffff1673ffffffffffffffffffffffffffffffffffffffff163373ffffffffffffffffffffffffffffffffffffffff161461120957600080fd5b6006600082815260200190815260200160002060006101000a81549060ff021916905550565b600160009054906101000a900473ffffffffffffffffffffffffffffffffffffffff1673ffffffffffffffffffffffffffffffffffffffff163373ffffffffffffffffffffffffffffffffffffffff161461128957600080fd5b806005600084815260200190815260200160002090805190602001906112b092919061286f565b505050565b600160009054906101000a900473ffffffffffffffffffffffffffffffffffffffff1673ffffffffffffffffffffffffffffffffffffffff163373ffffffffffffffffffffffffffffffffffffffff161461130f57600080fd5b611334816008600085815260200190815260200160002061222490919063ffffffff16565b505050565b60008054906101000a900473ffffffffffffffffffffffffffffffffffffffff1673ffffffffffffffffffffffffffffffffffffffff163373ffffffffffffffffffffffffffffffffffffffff161461139157600080fd5b7f2060d2afda92310906958ae6d876026305adfd6c323562957aae47c55ab042f8600160009054906101000a900473ffffffffffffffffffffffffffffffffffffffff16826040516113e4929190613594565b60405180910390a180600160006101000a81548173ffffffffffffffffffffffffffffffffffffffff021916908373ffffffffffffffffffffffffffffffffffffffff16021790555050565b600160009054906101000a900473ffffffffffffffffffffffffffffffffffffffff1673ffffffffffffffffffffffffffffffffffffffff163373ffffffffffffffffffffffffffffffffffffffff161461148a57600080fd5b8060076000848152602001908152602001600020819055505050565b60006114cd82600c600086815260200190815260200160002061223e90919063ffffffff16565b905092915050565b6000806114fd836008600087815260200190815260200160002061225890919063ffffffff16565b915091509250929050565b600160009054906101000a900473ffffffffffffffffffffffffffffffffffffffff1673ffffffffffffffffffffffffffffffffffffffff163373ffffffffffffffffffffffffffffffffffffffff161461156257600080fd5b60056000828152602001908152602001600020600061158191906128f5565b50565b6000806115ac83600c600087815260200190815260200160002061228490919063ffffffff16565b915091509250929050565b6000806115df83600960008781526020019081526020016000206122ad90919063ffffffff16565b915091509250929050565b600160009054906101000a900473ffffffffffffffffffffffffffffffffffffffff1673ffffffffffffffffffffffffffffffffffffffff163373ffffffffffffffffffffffffffffffffffffffff161461164457600080fd5b61166981600a60008581526020019081526020016000206122d990919063ffffffff16565b505050565b60008061169683600c600087815260200190815260200160002061231290919063ffffffff16565b915091509250929050565b600160009054906101000a900473ffffffffffffffffffffffffffffffffffffffff1673ffffffffffffffffffffffffffffffffffffffff163373ffffffffffffffffffffffffffffffffffffffff16146116fb57600080fd5b80600360008481526020019081526020016000209080519060200190611722929190612935565b505050565b600160009054906101000a900473ffffffffffffffffffffffffffffffffffffffff1673ffffffffffffffffffffffffffffffffffffffff163373ffffffffffffffffffffffffffffffffffffffff161461178157600080fd5b6117a681600b600085815260200190815260200160002061233b90919063ffffffff16565b505050565b60006006600083815260200190815260200160002060009054906101000a900460ff169050919050565b6000806117fd836008600087815260200190815260200160002061235590919063ffffffff16565b915091509250929050565b600160009054906101000a900473ffffffffffffffffffffffffffffffffffffffff1673ffffffffffffffffffffffffffffffffffffffff163373ffffffffffffffffffffffffffffffffffffffff161461186257600080fd5b611887816009600085815260200190815260200160002061238190919063ffffffff16565b505050565b60006118a9600860008481526020019081526020016000206123b1565b9050919050565b600160009054906101000a900473ffffffffffffffffffffffffffffffffffffffff1673ffffffffffffffffffffffffffffffffffffffff163373ffffffffffffffffffffffffffffffffffffffff161461190a57600080fd5b600760008281526020019081526020016000206000905550565b60008054906101000a900473ffffffffffffffffffffffffffffffffffffffff1681565b600061196f82600960008681526020019081526020016000206123c690919063ffffffff16565b905092915050565b600061199e82600860008681526020019081526020016000206123f690919063ffffffff16565b905092915050565b60606003600083815260200190815260200160002080546119c6906135ec565b80601f01602080910402602001604051908101604052809291908181526020018280546119f2906135ec565b8015611a3f5780601f10611a1457610100808354040283529160200191611a3f565b820191906000526020600020905b815481529060010190602001808311611a2257829003601f168201915b50505050509050919050565b6000611a6860096000848152602001908152602001600020612410565b9050919050565b6000611a96826008600086815260200190815260200160002061242590919063ffffffff16565b905092915050565b6000611ac5826009600086815260200190815260200160002061244290919063ffffffff16565b905092915050565b600160009054906101000a900473ffffffffffffffffffffffffffffffffffffffff1673ffffffffffffffffffffffffffffffffffffffff163373ffffffffffffffffffffffffffffffffffffffff1614611b2757600080fd5b806006600084815260200190815260200160002060006101000a81548160ff0219169083151502179055505050565b6000600160009054906101000a900473ffffffffffffffffffffffffffffffffffffffff1673ffffffffffffffffffffffffffffffffffffffff163373ffffffffffffffffffffffffffffffffffffffff1614611bb257600080fd5b611bd98383600960008881526020019081526020016000206124759092919063ffffffff16565b90509392505050565b600060026000838152602001908152602001600020549050919050565b6060600560008381526020019081526020016000208054611c1f906135ec565b80601f0160208091040260200160405190810160405280929190818152602001828054611c4b906135ec565b8015611c985780601f10611c6d57610100808354040283529160200191611c98565b820191906000526020600020905b815481529060010190602001808311611c7b57829003601f168201915b50505050509050919050565b806004600084815260200190815260200160002060006101000a81548173ffffffffffffffffffffffffffffffffffffffff021916908373ffffffffffffffffffffffffffffffffffffffff1602179055505050565b6000600160009054906101000a900473ffffffffffffffffffffffffffffffffffffffff1673ffffffffffffffffffffffffffffffffffffffff163373ffffffffffffffffffffffffffffffffffffffff1614611d5657600080fd5b611d7d8383600a60008881526020019081526020016000206124aa9092919063ffffffff16565b90509392505050565b600080611dae83600a60008781526020019081526020016000206124e590919063ffffffff16565b915091509250929050565b6000600160009054906101000a900473ffffffffffffffffffffffffffffffffffffffff16905090565b6000611e0a82600b600086815260200190815260200160002061253490919063ffffffff16565b905092915050565b600060076000838152602001908152602001600020549050919050565b6000611e4c600b600084815260200190815260200160002061254e565b9050919050565b600160009054906101000a900473ffffffffffffffffffffffffffffffffffffffff1673ffffffffffffffffffffffffffffffffffffffff163373ffffffffffffffffffffffffffffffffffffffff1614611ead57600080fd5b8060026000848152602001908152602001600020819055505050565b600160009054906101000a900473ffffffffffffffffffffffffffffffffffffffff1673ffffffffffffffffffffffffffffffffffffffff163373ffffffffffffffffffffffffffffffffffffffff1614611f2357600080fd5b600260008281526020019081526020016000206000905550565b6000611f6482600a600086815260200190815260200160002061256390919063ffffffff16565b905092915050565b600160009054906101000a900473ffffffffffffffffffffffffffffffffffffffff1673ffffffffffffffffffffffffffffffffffffffff163373ffffffffffffffffffffffffffffffffffffffff1614611fc657600080fd5b600360008281526020019081526020016000206000611fe591906129bb565b50565b60008061201083600b600087815260200190815260200160002061258390919063ffffffff16565b915091509250929050565b60008061204383600b60008781526020019081526020016000206125af90919063ffffffff16565b915091509250929050565b60008061207683600a60008781526020019081526020016000206125db90919063ffffffff16565b915091509250929050565b6000612097846000018460001b8460001b6124aa565b90509392505050565b60006120b384600001848460001b6124aa565b90509392505050565b60006120e8846000018460001b8473ffffffffffffffffffffffffffffffffffffffff1660001b6124aa565b90509392505050565b60006120ff8260000161261b565b9050919050565b600080600080612132866000018673ffffffffffffffffffffffffffffffffffffffff1660001b6124e5565b91509150818160001c9350935050509250929050565b6000612156826000016120f1565b9050919050565b600061216c83600001836122d9565b905092915050565b6000612186836000018360001b6121a8565b60001c905092915050565b60006121a08360000183612563565b905092915050565b6000808360020160008481526020019081526020016000205490506000801b811415806121db57506121da8484612563565b5b61221a576040517f08c379a000000000000000000000000000000000000000000000000000000000815260040161221190613669565b60405180910390fd5b8091505092915050565b6000612236836000018360001b6122d9565b905092915050565b600061224d83600001836121a8565b60001c905092915050565b60008060008061226b86600001866125db565b915091508160001c8160001c9350935050509250929050565b60008060008061229786600001866125db565b91509150818160001c9350935050509250929050565b6000806000806122c086600001866125db565b915091508160001c8160001c9350935050509250929050565b60008260020160008381526020019081526020016000206000905561230a828460000161263090919063ffffffff16565b905092915050565b60008060008061232586600001866124e5565b91509150818160001c9350935050509250929050565b600061234d836000018360001b6122d9565b905092915050565b60008060008061236b866000018660001b6124e5565b91509150818160001c9350935050509250929050565b60006123a9836000018373ffffffffffffffffffffffffffffffffffffffff1660001b6122d9565b905092915050565b60006123bf826000016120f1565b9050919050565b60006123ee836000018373ffffffffffffffffffffffffffffffffffffffff1660001b612563565b905092915050565b6000612408836000018360001b612563565b905092915050565b600061241e826000016120f1565b9050919050565b6000612437836000018360001b6121a8565b60001c905092915050565b600061246a836000018373ffffffffffffffffffffffffffffffffffffffff1660001b6121a8565b60001c905092915050565b60006124a1846000018473ffffffffffffffffffffffffffffffffffffffff1660001b8460001b6124aa565b90509392505050565b600081846002016000858152602001908152602001600020819055506124dc838560000161264790919063ffffffff16565b90509392505050565b60008060008460020160008581526020019081526020016000205490506000801b8103612524576125168585612563565b6000801b925092505061252d565b60018192509250505b9250929050565b6000612546836000018360001b612563565b905092915050565b600061255c826000016120f1565b9050919050565b600061257b828460000161265e90919063ffffffff16565b905092915050565b60008060008061259686600001866125db565b915091508160001c8160001c9350935050509250929050565b6000806000806125c5866000018660001b6124e5565b91509150818160001c9350935050509250929050565b60008060006125f6848660000161267590919063ffffffff16565b9050808560020160008381526020019081526020016000205492509250509250929050565b60006126298260000161268c565b9050919050565b600061263f836000018361269d565b905092915050565b600061265683600001836127b1565b905092915050565b600061266d8360000183612821565b905092915050565b60006126848360000183612844565b905092915050565b600081600001805490509050919050565b600080836001016000848152602001908152602001600020549050600081146127a55760006001826126cf91906136b8565b90506000600186600001805490506126e791906136b8565b9050818114612756576000866000018281548110612708576127076136ec565b5b906000526020600020015490508087600001848154811061272c5761272b6136ec565b5b90600052602060002001819055508387600101600083815260200190815260200160002081905550505b8560000180548061276a5761276961371b565b5b6001900381819060005260206000200160009055905585600101600086815260200190815260200160002060009055600193505050506127ab565b60009150505b92915050565b60006127bd8383612821565b61281657826000018290806001815401808255809150506001900390600052602060002001600090919091909150558260000180549050836001016000848152602001908152602001600020819055506001905061281b565b600090505b92915050565b600080836001016000848152602001908152602001600020541415905092915050565b600082600001828154811061285c5761285b6136ec565b5b9060005260206000200154905092915050565b82805461287b906135ec565b90600052602060002090601f01602090048101928261289d57600085556128e4565b82601f106128b657805160ff19168380011785556128e4565b828001600101855582156128e4579182015b828111156128e35782518255916020019190600101906128c8565b5b5090506128f191906129fb565b5090565b508054612901906135ec565b6000825580601f106129135750612932565b601f01602090049060005260206000209081019061293191906129fb565b5b50565b828054612941906135ec565b90600052602060002090601f01602090048101928261296357600085556129aa565b82601f1061297c57805160ff19168380011785556129aa565b828001600101855582156129aa579182015b828111156129a957825182559160200191906001019061298e565b5b5090506129b791906129fb565b5090565b5080546129c7906135ec565b6000825580601f106129d957506129f8565b601f0160209004906000526020600020908101906129f791906129fb565b5b50565b5b80821115612a145760008160009055506001016129fc565b5090565b6000604051905090565b600080fd5b600080fd5b6000819050919050565b612a3f81612a2c565b8114612a4a57600080fd5b50565b600081359050612a5c81612a36565b92915050565b6000819050919050565b612a7581612a62565b8114612a8057600080fd5b50565b600081359050612a9281612a6c565b92915050565b600080600060608486031215612ab157612ab0612a22565b5b6000612abf86828701612a4d565b9350506020612ad086828701612a83565b9250506040612ae186828701612a83565b9150509250925092565b60008115159050919050565b612b0081612aeb565b82525050565b6000602082019050612b1b6000830184612af7565b92915050565b600060208284031215612b3757612b36612a22565b5b6000612b4584828501612a4d565b91505092915050565b600080600060608486031215612b6757612b66612a22565b5b6000612b7586828701612a4d565b9350506020612b8686828701612a4d565b9250506040612b9786828701612a83565b9150509250925092565b600073ffffffffffffffffffffffffffffffffffffffff82169050919050565b6000612bcc82612ba1565b9050919050565b612bdc81612bc1565b8114612be757600080fd5b50565b600081359050612bf981612bd3565b92915050565b600080600060608486031215612c1857612c17612a22565b5b6000612c2686828701612a4d565b9350506020612c3786828701612a83565b9250506040612c4886828701612bea565b9150509250925092565b612c5b81612a62565b82525050565b6000602082019050612c766000830184612c52565b92915050565b6000612c8782612ba1565b9050919050565b612c9781612c7c565b8114612ca257600080fd5b50565b600081359050612cb481612c8e565b92915050565b600060208284031215612cd057612ccf612a22565b5b6000612cde84828501612ca5565b91505092915050565b60008060408385031215612cfe57612cfd612a22565b5b6000612d0c85828601612a4d565b9250506020612d1d85828601612bea565b9150509250929050565b6000604082019050612d3c6000830185612af7565b612d496020830184612c52565b9392505050565b60008060408385031215612d6757612d66612a22565b5b6000612d7585828601612a4d565b9250506020612d8685828601612a4d565b9150509250929050565b612d9981612bc1565b82525050565b6000602082019050612db46000830184612d90565b92915050565b60008060408385031215612dd157612dd0612a22565b5b6000612ddf85828601612a4d565b9250506020612df085828601612a83565b9150509250929050565b612e0381612a2c565b82525050565b6000602082019050612e1e6000830184612dfa565b92915050565b600080fd5b600080fd5b6000601f19601f8301169050919050565b7f4e487b7100000000000000000000000000000000000000000000000000000000600052604160045260246000fd5b612e7782612e2e565b810181811067ffffffffffffffff82111715612e9657612e95612e3f565b5b80604052505050565b6000612ea9612a18565b9050612eb58282612e6e565b919050565b600067ffffffffffffffff821115612ed557612ed4612e3f565b5b612ede82612e2e565b9050602081019050919050565b82818337600083830152505050565b6000612f0d612f0884612eba565b612e9f565b905082815260208101848484011115612f2957612f28612e29565b5b612f34848285612eeb565b509392505050565b600082601f830112612f5157612f50612e24565b5b8135612f61848260208601612efa565b91505092915050565b60008060408385031215612f8157612f80612a22565b5b6000612f8f85828601612a4d565b925050602083013567ffffffffffffffff811115612fb057612faf612a27565b5b612fbc85828601612f3c565b9150509250929050565b600060208284031215612fdc57612fdb612a22565b5b6000612fea84828501612bea565b91505092915050565b6000819050919050565b61300681612ff3565b811461301157600080fd5b50565b60008135905061302381612ffd565b92915050565b600080604083850312156130405761303f612a22565b5b600061304e85828601612a4d565b925050602061305f85828601613014565b9150509250929050565b600060408201905061307e6000830185612c52565b61308b6020830184612d90565b9392505050565b60006040820190506130a76000830185612dfa565b6130b46020830184612c52565b9392505050565b60006040820190506130d06000830185612d90565b6130dd6020830184612c52565b9392505050565b600067ffffffffffffffff8211156130ff576130fe612e3f565b5b61310882612e2e565b9050602081019050919050565b6000613128613123846130e4565b612e9f565b90508281526020810184848401111561314457613143612e29565b5b61314f848285612eeb565b509392505050565b600082601f83011261316c5761316b612e24565b5b813561317c848260208601613115565b91505092915050565b6000806040838503121561319c5761319b612a22565b5b60006131aa85828601612a4d565b925050602083013567ffffffffffffffff8111156131cb576131ca612a27565b5b6131d785828601613157565b9150509250929050565b60006040820190506131f66000830185612af7565b6132036020830184612d90565b9392505050565b61321381612c7c565b82525050565b600060208201905061322e600083018461320a565b92915050565b600081519050919050565b600082825260208201905092915050565b60005b8381101561326e578082015181840152602081019050613253565b8381111561327d576000848401525b50505050565b600061328e82613234565b613298818561323f565b93506132a8818560208601613250565b6132b181612e2e565b840191505092915050565b600060208201905081810360008301526132d68184613283565b905092915050565b6132e781612aeb565b81146132f257600080fd5b50565b600081359050613304816132de565b92915050565b6000806040838503121561332157613320612a22565b5b600061332f85828601612a4d565b9250506020613340858286016132f5565b9150509250929050565b60008060006060848603121561336357613362612a22565b5b600061337186828701612a4d565b935050602061338286828701612bea565b925050604061339386828701612a83565b9150509250925092565b600081519050919050565b600082825260208201905092915050565b60006133c48261339d565b6133ce81856133a8565b93506133de818560208601613250565b6133e781612e2e565b840191505092915050565b6000602082019050818103600083015261340c81846133b9565b905092915050565b60008060006060848603121561342d5761342c612a22565b5b600061343b86828701612a4d565b935050602061344c86828701612a4d565b925050604061345d86828701612a4d565b9150509250925092565b600060408201905061347c6000830185612af7565b6134896020830184612dfa565b9392505050565b61349981612ff3565b82525050565b60006020820190506134b46000830184613490565b92915050565b60006040820190506134cf6000830185612c52565b6134dc6020830184612c52565b9392505050565b60006040820190506134f86000830185612dfa565b6135056020830184612dfa565b9392505050565b6000819050919050565b600061353161352c61352784612ba1565b61350c565b612ba1565b9050919050565b600061354382613516565b9050919050565b600061355582613538565b9050919050565b6135658161354a565b82525050565b60006040820190506135806000830185612d90565b61358d602083018461355c565b9392505050565b60006040820190506135a96000830185612d90565b6135b66020830184612d90565b9392505050565b7f4e487b7100000000000000000000000000000000000000000000000000000000600052602260045260246000fd5b6000600282049050600182168061360457607f821691505b602082108103613617576136166135bd565b5b50919050565b7f456e756d657261626c654d61703a206e6f6e6578697374656e74206b65790000600082015250565b6000613653601e8361323f565b915061365e8261361d565b602082019050919050565b6000602082019050818103600083015261368281613646565b9050919050565b7f4e487b7100000000000000000000000000000000000000000000000000000000600052601160045260246000fd5b60006136c382612a62565b91506136ce83612a62565b9250828210156136e1576136e0613689565b5b828203905092915050565b7f4e487b7100000000000000000000000000000000000000000000000000000000600052603260045260246000fd5b7f4e487b7100000000000000000000000000000000000000000000000000000000600052603160045260246000fdfea2646970667358221220c2e01ba5add69e880a458ffa3b0c30c17be261847c16ebc648d4511dbebf40fc64736f6c634300080d0033",
  "immutableReferences": {},
  "source": "// SPDX-License-Identifier: MIT\npragma solidity ^0.8.13;\nimport './EternalStorage.sol';\nimport './Proxy.sol';\nimport './LibStorageWriter.sol';\n\ncontract FrontDoor is Proxy {\n  constructor() Proxy(msg.sender, address(new EternalStorage(msg.sender, address(this))), address(0x0), false) {\n    bytes32 key = keccak256(abi.encodePacked('frontDoor'));\n    StorageWriter.setAddress(eternalStorageAddress, key, address(this));\n  }\n\n  event UpstreamChanged(address oldUpstream, address newUpstream);\n\n  function setUpstream(address newUpstream) public onlyOwner {\n    address oldUpstream = upstreamAddress;\n    upstreamAddress = newUpstream;\n    emit UpstreamChanged(oldUpstream, newUpstream);\n  }\n}\n",
  "sourcePath": "/home/asdf/fmp3/platform/evm/contracts/FrontDoor.sol",
  "compiler": {
    "name": "solc",
    "version": "0.8.13+commit.abaa5c0e.Emscripten.clang"
  },
  "schemaVersion": "3.4.11",
  "updatedAt": "2023-02-05T18:33:19.002Z",
  "devdoc": {
    "kind": "dev",
    "methods": {},
    "version": 1
  },
  "userdoc": {
    "kind": "user",
    "methods": {},
    "version": 1
  }
}