{
  "contractName": "MockAavePool",
  "abi": [
    {
      "anonymous": false,
      "inputs": [
        {
          "indexed": false,
          "internalType": "address",
          "name": "asset",
          "type": "address"
        },
        {
          "indexed": false,
          "internalType": "uint256",
          "name": "amount",
          "type": "uint256"
        },
        {
          "indexed": false,
          "internalType": "address",
          "name": "onBehalfOf",
          "type": "address"
        },
        {
          "indexed": false,
          "internalType": "uint16",
          "name": "referralCode",
          "type": "uint16"
        }
      ],
      "name": "Supply",
      "type": "event"
    },
    {
      "anonymous": false,
      "inputs": [
        {
          "indexed": true,
          "internalType": "address",
          "name": "reserve",
          "type": "address"
        },
        {
          "indexed": false,
          "internalType": "address",
          "name": "user",
          "type": "address"
        },
        {
          "indexed": true,
          "internalType": "address",
          "name": "onBehalfOf",
          "type": "address"
        },
        {
          "indexed": false,
          "internalType": "uint256",
          "name": "amount",
          "type": "uint256"
        },
        {
          "indexed": true,
          "internalType": "uint16",
          "name": "referralCode",
          "type": "uint16"
        }
      ],
      "name": "Supply",
      "type": "event"
    },
    {
      "inputs": [],
      "name": "mockAToken",
      "outputs": [
        {
          "internalType": "contract MockToken",
          "name": "",
          "type": "address"
        }
      ],
      "stateMutability": "view",
      "type": "function"
    },
    {
      "inputs": [
        {
          "internalType": "address",
          "name": "asset",
          "type": "address"
        },
        {
          "internalType": "uint256",
          "name": "amount",
          "type": "uint256"
        },
        {
          "internalType": "address",
          "name": "onBehalfOf",
          "type": "address"
        },
        {
          "internalType": "uint16",
          "name": "referralCode",
          "type": "uint16"
        }
      ],
      "name": "supply",
      "outputs": [],
      "stateMutability": "nonpayable",
      "type": "function"
    }
  ],
  "bytecode": "0x60a060405260405161001090610071565b604051809103906000f08015801561002c573d6000803e3d6000fd5b5073ffffffffffffffffffffffffffffffffffffffff1660809073ffffffffffffffffffffffffffffffffffffffff1681525034801561006b57600080fd5b5061007e565b611963806105aa83390190565b60805161050b61009f6000396000818160f801526101c8015261050b6000f3fe608060405234801561001057600080fd5b50600436106100365760003560e01c8063617ba0371461003b578063e8390f7714610057575b600080fd5b610055600480360381019061005091906102bd565b610075565b005b61005f6101c6565b60405161006c9190610383565b60405180910390f35b8373ffffffffffffffffffffffffffffffffffffffff166323b872dd3330866040518463ffffffff1660e01b81526004016100b2939291906103bc565b6020604051808303816000875af11580156100d1573d6000803e3d6000fd5b505050506040513d601f19601f820116820180604052508101906100f5919061042b565b507f000000000000000000000000000000000000000000000000000000000000000073ffffffffffffffffffffffffffffffffffffffff166340c10f1983856040518363ffffffff1660e01b8152600401610151929190610458565b600060405180830381600087803b15801561016b57600080fd5b505af115801561017f573d6000803e3d6000fd5b505050507fb9f27db670c081e21e3981406d212aa9f078019b69843ae23946ce7533379ef2848484846040516101b89493929190610490565b60405180910390a150505050565b7f000000000000000000000000000000000000000000000000000000000000000081565b600080fd5b600073ffffffffffffffffffffffffffffffffffffffff82169050919050565b600061021a826101ef565b9050919050565b61022a8161020f565b811461023557600080fd5b50565b60008135905061024781610221565b92915050565b6000819050919050565b6102608161024d565b811461026b57600080fd5b50565b60008135905061027d81610257565b92915050565b600061ffff82169050919050565b61029a81610283565b81146102a557600080fd5b50565b6000813590506102b781610291565b92915050565b600080600080608085870312156102d7576102d66101ea565b5b60006102e587828801610238565b94505060206102f68782880161026e565b935050604061030787828801610238565b9250506060610318878288016102a8565b91505092959194509250565b6000819050919050565b600061034961034461033f846101ef565b610324565b6101ef565b9050919050565b600061035b8261032e565b9050919050565b600061036d82610350565b9050919050565b61037d81610362565b82525050565b60006020820190506103986000830184610374565b92915050565b6103a78161020f565b82525050565b6103b68161024d565b82525050565b60006060820190506103d1600083018661039e565b6103de602083018561039e565b6103eb60408301846103ad565b949350505050565b60008115159050919050565b610408816103f3565b811461041357600080fd5b50565b600081519050610425816103ff565b92915050565b600060208284031215610441576104406101ea565b5b600061044f84828501610416565b91505092915050565b600060408201905061046d600083018561039e565b61047a60208301846103ad565b9392505050565b61048a81610283565b82525050565b60006080820190506104a5600083018761039e565b6104b260208301866103ad565b6104bf604083018561039e565b6104cc6060830184610481565b9594505050505056fea2646970667358221220021e25546d8ce35d9ae50472d6cb81e2310e7f36de767cb88192113a79c6f49464736f6c634300080d003360806040523480156200001157600080fd5b506040518060400160405280600981526020017f45524332304d6f636b00000000000000000000000000000000000000000000008152506040518060400160405280600481526020017f4532304d00000000000000000000000000000000000000000000000000000000815250816003908051906020019062000096929190620000b8565b508060049080519060200190620000af929190620000b8565b505050620001cc565b828054620000c69062000197565b90600052602060002090601f016020900481019282620000ea576000855562000136565b82601f106200010557805160ff191683800117855562000136565b8280016001018555821562000136579182015b828111156200013557825182559160200191906001019062000118565b5b50905062000145919062000149565b5090565b5b80821115620001645760008160009055506001016200014a565b5090565b7f4e487b7100000000000000000000000000000000000000000000000000000000600052602260045260246000fd5b60006002820490506001821680620001b057607f821691505b602082108103620001c657620001c562000168565b5b50919050565b61178780620001dc6000396000f3fe608060405234801561001057600080fd5b50600436106100cf5760003560e01c806340c10f191161008c5780639dc29fac116100665780639dc29fac14610228578063a457c2d714610244578063a9059cbb14610274578063dd62ed3e146102a4576100cf565b806340c10f19146101be57806370a08231146101da57806395d89b411461020a576100cf565b806306fdde03146100d4578063095ea7b3146100f257806318160ddd1461012257806323b872dd14610140578063313ce56714610170578063395093511461018e575b600080fd5b6100dc6102d4565b6040516100e99190610eb2565b60405180910390f35b61010c60048036038101906101079190610f6d565b610366565b6040516101199190610fc8565b60405180910390f35b61012a610389565b6040516101379190610ff2565b60405180910390f35b61015a6004803603810190610155919061100d565b610393565b6040516101679190610fc8565b60405180910390f35b6101786103c2565b604051610185919061107c565b60405180910390f35b6101a860048036038101906101a39190610f6d565b6103cb565b6040516101b59190610fc8565b60405180910390f35b6101d860048036038101906101d39190610f6d565b610402565b005b6101f460048036038101906101ef9190611097565b610410565b6040516102019190610ff2565b60405180910390f35b610212610458565b60405161021f9190610eb2565b60405180910390f35b610242600480360381019061023d9190610f6d565b6104ea565b005b61025e60048036038101906102599190610f6d565b6104f8565b60405161026b9190610fc8565b60405180910390f35b61028e60048036038101906102899190610f6d565b61056f565b60405161029b9190610fc8565b60405180910390f35b6102be60048036038101906102b991906110c4565b610592565b6040516102cb9190610ff2565b60405180910390f35b6060600380546102e390611133565b80601f016020809104026020016040519081016040528092919081815260200182805461030f90611133565b801561035c5780601f106103315761010080835404028352916020019161035c565b820191906000526020600020905b81548152906001019060200180831161033f57829003601f168201915b5050505050905090565b600080610371610619565b905061037e818585610621565b600191505092915050565b6000600254905090565b60008061039e610619565b90506103ab8582856107ea565b6103b6858585610876565b60019150509392505050565b60006012905090565b6000806103d6610619565b90506103f78185856103e88589610592565b6103f29190611193565b610621565b600191505092915050565b61040c8282610aec565b5050565b60008060008373ffffffffffffffffffffffffffffffffffffffff1673ffffffffffffffffffffffffffffffffffffffff168152602001908152602001600020549050919050565b60606004805461046790611133565b80601f016020809104026020016040519081016040528092919081815260200182805461049390611133565b80156104e05780601f106104b5576101008083540402835291602001916104e0565b820191906000526020600020905b8154815290600101906020018083116104c357829003601f168201915b5050505050905090565b6104f48282610c42565b5050565b600080610503610619565b905060006105118286610592565b905083811015610556576040517f08c379a000000000000000000000000000000000000000000000000000000000815260040161054d9061125b565b60405180910390fd5b6105638286868403610621565b60019250505092915050565b60008061057a610619565b9050610587818585610876565b600191505092915050565b6000600160008473ffffffffffffffffffffffffffffffffffffffff1673ffffffffffffffffffffffffffffffffffffffff16815260200190815260200160002060008373ffffffffffffffffffffffffffffffffffffffff1673ffffffffffffffffffffffffffffffffffffffff16815260200190815260200160002054905092915050565b600033905090565b600073ffffffffffffffffffffffffffffffffffffffff168373ffffffffffffffffffffffffffffffffffffffff1603610690576040517f08c379a0000000000000000000000000000000000000000000000000000000008152600401610687906112ed565b60405180910390fd5b600073ffffffffffffffffffffffffffffffffffffffff168273ffffffffffffffffffffffffffffffffffffffff16036106ff576040517f08c379a00000000000000000000000000000000000000000000000000000000081526004016106f69061137f565b60405180910390fd5b80600160008573ffffffffffffffffffffffffffffffffffffffff1673ffffffffffffffffffffffffffffffffffffffff16815260200190815260200160002060008473ffffffffffffffffffffffffffffffffffffffff1673ffffffffffffffffffffffffffffffffffffffff168152602001908152602001600020819055508173ffffffffffffffffffffffffffffffffffffffff168373ffffffffffffffffffffffffffffffffffffffff167f8c5be1e5ebec7d5bd14f71427d1e84f3dd0314c0f7b2291e5b200ac8c7c3b925836040516107dd9190610ff2565b60405180910390a3505050565b60006107f68484610592565b90507fffffffffffffffffffffffffffffffffffffffffffffffffffffffffffffffff81146108705781811015610862576040517f08c379a0000000000000000000000000000000000000000000000000000000008152600401610859906113eb565b60405180910390fd5b61086f8484848403610621565b5b50505050565b600073ffffffffffffffffffffffffffffffffffffffff168373ffffffffffffffffffffffffffffffffffffffff16036108e5576040517f08c379a00000000000000000000000000000000000000000000000000000000081526004016108dc9061147d565b60405180910390fd5b600073ffffffffffffffffffffffffffffffffffffffff168273ffffffffffffffffffffffffffffffffffffffff1603610954576040517f08c379a000000000000000000000000000000000000000000000000000000000815260040161094b9061150f565b60405180910390fd5b61095f838383610e0f565b60008060008573ffffffffffffffffffffffffffffffffffffffff1673ffffffffffffffffffffffffffffffffffffffff168152602001908152602001600020549050818110156109e5576040517f08c379a00000000000000000000000000000000000000000000000000000000081526004016109dc906115a1565b60405180910390fd5b8181036000808673ffffffffffffffffffffffffffffffffffffffff1673ffffffffffffffffffffffffffffffffffffffff16815260200190815260200160002081905550816000808573ffffffffffffffffffffffffffffffffffffffff1673ffffffffffffffffffffffffffffffffffffffff168152602001908152602001600020600082825401925050819055508273ffffffffffffffffffffffffffffffffffffffff168473ffffffffffffffffffffffffffffffffffffffff167fddf252ad1be2c89b69c2b068fc378daa952ba7f163c4a11628f55a4df523b3ef84604051610ad39190610ff2565b60405180910390a3610ae6848484610e14565b50505050565b600073ffffffffffffffffffffffffffffffffffffffff168273ffffffffffffffffffffffffffffffffffffffff1603610b5b576040517f08c379a0000000000000000000000000000000000000000000000000000000008152600401610b529061160d565b60405180910390fd5b610b6760008383610e0f565b8060026000828254610b799190611193565b92505081905550806000808473ffffffffffffffffffffffffffffffffffffffff1673ffffffffffffffffffffffffffffffffffffffff168152602001908152602001600020600082825401925050819055508173ffffffffffffffffffffffffffffffffffffffff16600073ffffffffffffffffffffffffffffffffffffffff167fddf252ad1be2c89b69c2b068fc378daa952ba7f163c4a11628f55a4df523b3ef83604051610c2a9190610ff2565b60405180910390a3610c3e60008383610e14565b5050565b600073ffffffffffffffffffffffffffffffffffffffff168273ffffffffffffffffffffffffffffffffffffffff1603610cb1576040517f08c379a0000000000000000000000000000000000000000000000000000000008152600401610ca89061169f565b60405180910390fd5b610cbd82600083610e0f565b60008060008473ffffffffffffffffffffffffffffffffffffffff1673ffffffffffffffffffffffffffffffffffffffff16815260200190815260200160002054905081811015610d43576040517f08c379a0000000000000000000000000000000000000000000000000000000008152600401610d3a90611731565b60405180910390fd5b8181036000808573ffffffffffffffffffffffffffffffffffffffff1673ffffffffffffffffffffffffffffffffffffffff1681526020019081526020016000208190555081600260008282540392505081905550600073ffffffffffffffffffffffffffffffffffffffff168373ffffffffffffffffffffffffffffffffffffffff167fddf252ad1be2c89b69c2b068fc378daa952ba7f163c4a11628f55a4df523b3ef84604051610df69190610ff2565b60405180910390a3610e0a83600084610e14565b505050565b505050565b505050565b600081519050919050565b600082825260208201905092915050565b60005b83811015610e53578082015181840152602081019050610e38565b83811115610e62576000848401525b50505050565b6000601f19601f8301169050919050565b6000610e8482610e19565b610e8e8185610e24565b9350610e9e818560208601610e35565b610ea781610e68565b840191505092915050565b60006020820190508181036000830152610ecc8184610e79565b905092915050565b600080fd5b600073ffffffffffffffffffffffffffffffffffffffff82169050919050565b6000610f0482610ed9565b9050919050565b610f1481610ef9565b8114610f1f57600080fd5b50565b600081359050610f3181610f0b565b92915050565b6000819050919050565b610f4a81610f37565b8114610f5557600080fd5b50565b600081359050610f6781610f41565b92915050565b60008060408385031215610f8457610f83610ed4565b5b6000610f9285828601610f22565b9250506020610fa385828601610f58565b9150509250929050565b60008115159050919050565b610fc281610fad565b82525050565b6000602082019050610fdd6000830184610fb9565b92915050565b610fec81610f37565b82525050565b60006020820190506110076000830184610fe3565b92915050565b60008060006060848603121561102657611025610ed4565b5b600061103486828701610f22565b935050602061104586828701610f22565b925050604061105686828701610f58565b9150509250925092565b600060ff82169050919050565b61107681611060565b82525050565b6000602082019050611091600083018461106d565b92915050565b6000602082840312156110ad576110ac610ed4565b5b60006110bb84828501610f22565b91505092915050565b600080604083850312156110db576110da610ed4565b5b60006110e985828601610f22565b92505060206110fa85828601610f22565b9150509250929050565b7f4e487b7100000000000000000000000000000000000000000000000000000000600052602260045260246000fd5b6000600282049050600182168061114b57607f821691505b60208210810361115e5761115d611104565b5b50919050565b7f4e487b7100000000000000000000000000000000000000000000000000000000600052601160045260246000fd5b600061119e82610f37565b91506111a983610f37565b9250827fffffffffffffffffffffffffffffffffffffffffffffffffffffffffffffffff038211156111de576111dd611164565b5b828201905092915050565b7f45524332303a2064656372656173656420616c6c6f77616e63652062656c6f7760008201527f207a65726f000000000000000000000000000000000000000000000000000000602082015250565b6000611245602583610e24565b9150611250826111e9565b604082019050919050565b6000602082019050818103600083015261127481611238565b9050919050565b7f45524332303a20617070726f76652066726f6d20746865207a65726f2061646460008201527f7265737300000000000000000000000000000000000000000000000000000000602082015250565b60006112d7602483610e24565b91506112e28261127b565b604082019050919050565b60006020820190508181036000830152611306816112ca565b9050919050565b7f45524332303a20617070726f766520746f20746865207a65726f20616464726560008201527f7373000000000000000000000000000000000000000000000000000000000000602082015250565b6000611369602283610e24565b91506113748261130d565b604082019050919050565b600060208201905081810360008301526113988161135c565b9050919050565b7f45524332303a20696e73756666696369656e7420616c6c6f77616e6365000000600082015250565b60006113d5601d83610e24565b91506113e08261139f565b602082019050919050565b60006020820190508181036000830152611404816113c8565b9050919050565b7f45524332303a207472616e736665722066726f6d20746865207a65726f20616460008201527f6472657373000000000000000000000000000000000000000000000000000000602082015250565b6000611467602583610e24565b91506114728261140b565b604082019050919050565b600060208201905081810360008301526114968161145a565b9050919050565b7f45524332303a207472616e7366657220746f20746865207a65726f206164647260008201527f6573730000000000000000000000000000000000000000000000000000000000602082015250565b60006114f9602383610e24565b91506115048261149d565b604082019050919050565b60006020820190508181036000830152611528816114ec565b9050919050565b7f45524332303a207472616e7366657220616d6f756e742065786365656473206260008201527f616c616e63650000000000000000000000000000000000000000000000000000602082015250565b600061158b602683610e24565b91506115968261152f565b604082019050919050565b600060208201905081810360008301526115ba8161157e565b9050919050565b7f45524332303a206d696e7420746f20746865207a65726f206164647265737300600082015250565b60006115f7601f83610e24565b9150611602826115c1565b602082019050919050565b60006020820190508181036000830152611626816115ea565b9050919050565b7f45524332303a206275726e2066726f6d20746865207a65726f2061646472657360008201527f7300000000000000000000000000000000000000000000000000000000000000602082015250565b6000611689602183610e24565b91506116948261162d565b604082019050919050565b600060208201905081810360008301526116b88161167c565b9050919050565b7f45524332303a206275726e20616d6f756e7420657863656564732062616c616e60008201527f6365000000000000000000000000000000000000000000000000000000000000602082015250565b600061171b602283610e24565b9150611726826116bf565b604082019050919050565b6000602082019050818103600083015261174a8161170e565b905091905056fea2646970667358221220bd42dcbefda4b16df5e718090ee301623fa854e528e95432be5547519119b79664736f6c634300080d0033",
  "immutableReferences": {
    "7678": [
      {
        "length": 32,
        "start": 248
      },
      {
        "length": 32,
        "start": 456
      }
    ]
  },
  "source": "// SPDX-License-Identifier: MIT\npragma solidity ^0.8.13;\n\nimport './IAaveV3Pool.sol';\nimport '@openzeppelin/contracts/token/ERC20/IERC20.sol';\nimport '../../mocks/MockToken.sol';\n\ncontract MockAavePool is IAaveV3Pool {\n  MockToken public immutable mockAToken = new MockToken();\n\n  event Supply(address asset, uint256 amount, address onBehalfOf, uint16 referralCode);\n\n  function supply(\n    address asset,\n    uint256 amount,\n    address onBehalfOf,\n    uint16 referralCode\n  ) external {\n    // take the asset being supplied, and mint some aToken (equal amounts of each)\n    IERC20(asset).transferFrom(msg.sender, address(this), amount);\n    mockAToken.mint(onBehalfOf, amount);\n    emit Supply(asset, amount, onBehalfOf, referralCode);\n  }\n}\n",
  "sourcePath": "/home/asdf/fmp3/platform/evm/contracts/actions/aave/MockAavePool.sol",
  "compiler": {
    "name": "solc",
    "version": "0.8.13+commit.abaa5c0e.Emscripten.clang"
  },
  "schemaVersion": "3.4.11",
  "updatedAt": "2023-02-05T18:33:19.031Z",
  "devdoc": {
    "kind": "dev",
    "methods": {
      "supply(address,uint256,address,uint16)": {
        "params": {
          "amount": "The amount to be supplied",
          "asset": "The address of the underlying asset to supply",
          "onBehalfOf": "The address that will receive the aTokens, same as msg.sender if the user   wants to receive them on his own wallet, or a different address if the beneficiary of aTokens   is a different wallet",
          "referralCode": "Code used to register the integrator originating the operation, for potential rewards.   0 if the action is executed directly by the user, without any middle-man"
        }
      }
    },
    "version": 1
  },
  "userdoc": {
    "kind": "user",
    "methods": {
      "supply(address,uint256,address,uint16)": {
        "notice": "Supplies an `amount` of underlying asset into the reserve, receiving in return overlying aTokens. - E.g. User supplies 100 USDC and gets in return 100 aUSDC"
      }
    },
    "version": 1
  }
}