{
  "contractName": "MockStargateRouter",
  "abi": [
    {
      "inputs": [],
      "name": "getSwapInvocations",
      "outputs": [
        {
          "components": [
            {
              "internalType": "uint16",
              "name": "dstChainId",
              "type": "uint16"
            },
            {
              "internalType": "uint256",
              "name": "srcPoolId",
              "type": "uint256"
            },
            {
              "internalType": "uint256",
              "name": "dstPoolId",
              "type": "uint256"
            },
            {
              "internalType": "address payable",
              "name": "refundAddress",
              "type": "address"
            },
            {
              "internalType": "uint256",
              "name": "amount",
              "type": "uint256"
            },
            {
              "internalType": "uint256",
              "name": "minAmountOut",
              "type": "uint256"
            },
            {
              "internalType": "bytes",
              "name": "to",
              "type": "bytes"
            },
            {
              "components": [
                {
                  "internalType": "uint256",
                  "name": "dstGasForCall",
                  "type": "uint256"
                },
                {
                  "internalType": "uint256",
                  "name": "dstNativeAmount",
                  "type": "uint256"
                },
                {
                  "internalType": "bytes",
                  "name": "dstNativeAddr",
                  "type": "bytes"
                }
              ],
              "internalType": "struct IStargateRouter.lzTxObj",
              "name": "lzTxParams",
              "type": "tuple"
            },
            {
              "internalType": "bytes",
              "name": "payload",
              "type": "bytes"
            }
          ],
          "internalType": "struct MockStargateRouter.MockStargateRouterSwapArgs[]",
          "name": "",
          "type": "tuple[]"
        }
      ],
      "stateMutability": "view",
      "type": "function"
    },
    {
      "inputs": [
        {
          "internalType": "uint256",
          "name": "i",
          "type": "uint256"
        }
      ],
      "name": "getSwapInvocationAt",
      "outputs": [
        {
          "components": [
            {
              "internalType": "uint16",
              "name": "dstChainId",
              "type": "uint16"
            },
            {
              "internalType": "uint256",
              "name": "srcPoolId",
              "type": "uint256"
            },
            {
              "internalType": "uint256",
              "name": "dstPoolId",
              "type": "uint256"
            },
            {
              "internalType": "address payable",
              "name": "refundAddress",
              "type": "address"
            },
            {
              "internalType": "uint256",
              "name": "amount",
              "type": "uint256"
            },
            {
              "internalType": "uint256",
              "name": "minAmountOut",
              "type": "uint256"
            },
            {
              "internalType": "bytes",
              "name": "to",
              "type": "bytes"
            },
            {
              "components": [
                {
                  "internalType": "uint256",
                  "name": "dstGasForCall",
                  "type": "uint256"
                },
                {
                  "internalType": "uint256",
                  "name": "dstNativeAmount",
                  "type": "uint256"
                },
                {
                  "internalType": "bytes",
                  "name": "dstNativeAddr",
                  "type": "bytes"
                }
              ],
              "internalType": "struct IStargateRouter.lzTxObj",
              "name": "lzTxParams",
              "type": "tuple"
            },
            {
              "internalType": "bytes",
              "name": "payload",
              "type": "bytes"
            }
          ],
          "internalType": "struct MockStargateRouter.MockStargateRouterSwapArgs",
          "name": "",
          "type": "tuple"
        }
      ],
      "stateMutability": "view",
      "type": "function"
    },
    {
      "inputs": [],
      "name": "getSwapInvocationCount",
      "outputs": [
        {
          "internalType": "uint256",
          "name": "",
          "type": "uint256"
        }
      ],
      "stateMutability": "view",
      "type": "function"
    },
    {
      "inputs": [],
      "name": "clear",
      "outputs": [],
      "stateMutability": "nonpayable",
      "type": "function"
    },
    {
      "inputs": [
        {
          "internalType": "uint256",
          "name": "_poolId",
          "type": "uint256"
        },
        {
          "internalType": "uint256",
          "name": "_amountLD",
          "type": "uint256"
        },
        {
          "internalType": "address",
          "name": "_to",
          "type": "address"
        }
      ],
      "name": "addLiquidity",
      "outputs": [],
      "stateMutability": "nonpayable",
      "type": "function"
    },
    {
      "inputs": [
        {
          "internalType": "uint16",
          "name": "_dstChainId",
          "type": "uint16"
        },
        {
          "internalType": "uint256",
          "name": "_srcPoolId",
          "type": "uint256"
        },
        {
          "internalType": "uint256",
          "name": "_dstPoolId",
          "type": "uint256"
        },
        {
          "internalType": "address payable",
          "name": "_refundAddress",
          "type": "address"
        },
        {
          "internalType": "uint256",
          "name": "_amountLD",
          "type": "uint256"
        },
        {
          "internalType": "uint256",
          "name": "_minAmountLD",
          "type": "uint256"
        },
        {
          "components": [
            {
              "internalType": "uint256",
              "name": "dstGasForCall",
              "type": "uint256"
            },
            {
              "internalType": "uint256",
              "name": "dstNativeAmount",
              "type": "uint256"
            },
            {
              "internalType": "bytes",
              "name": "dstNativeAddr",
              "type": "bytes"
            }
          ],
          "internalType": "struct IStargateRouter.lzTxObj",
          "name": "_lzTxParams",
          "type": "tuple"
        },
        {
          "internalType": "bytes",
          "name": "_to",
          "type": "bytes"
        },
        {
          "internalType": "bytes",
          "name": "_payload",
          "type": "bytes"
        }
      ],
      "name": "swap",
      "outputs": [],
      "stateMutability": "payable",
      "type": "function"
    },
    {
      "inputs": [
        {
          "internalType": "uint16",
          "name": "_dstChainId",
          "type": "uint16"
        },
        {
          "internalType": "uint256",
          "name": "_srcPoolId",
          "type": "uint256"
        },
        {
          "internalType": "uint256",
          "name": "_dstPoolId",
          "type": "uint256"
        },
        {
          "internalType": "address payable",
          "name": "_refundAddress",
          "type": "address"
        },
        {
          "internalType": "uint256",
          "name": "_amountLP",
          "type": "uint256"
        },
        {
          "internalType": "uint256",
          "name": "_minAmountLD",
          "type": "uint256"
        },
        {
          "internalType": "bytes",
          "name": "_to",
          "type": "bytes"
        },
        {
          "components": [
            {
              "internalType": "uint256",
              "name": "dstGasForCall",
              "type": "uint256"
            },
            {
              "internalType": "uint256",
              "name": "dstNativeAmount",
              "type": "uint256"
            },
            {
              "internalType": "bytes",
              "name": "dstNativeAddr",
              "type": "bytes"
            }
          ],
          "internalType": "struct IStargateRouter.lzTxObj",
          "name": "_lzTxParams",
          "type": "tuple"
        }
      ],
      "name": "redeemRemote",
      "outputs": [],
      "stateMutability": "payable",
      "type": "function"
    },
    {
      "inputs": [
        {
          "internalType": "uint16",
          "name": "",
          "type": "uint16"
        },
        {
          "internalType": "uint256",
          "name": "",
          "type": "uint256"
        },
        {
          "internalType": "address",
          "name": "",
          "type": "address"
        }
      ],
      "name": "instantRedeemLocal",
      "outputs": [
        {
          "internalType": "uint256",
          "name": "",
          "type": "uint256"
        }
      ],
      "stateMutability": "pure",
      "type": "function"
    },
    {
      "inputs": [
        {
          "internalType": "uint16",
          "name": "_dstChainId",
          "type": "uint16"
        },
        {
          "internalType": "uint256",
          "name": "_srcPoolId",
          "type": "uint256"
        },
        {
          "internalType": "uint256",
          "name": "_dstPoolId",
          "type": "uint256"
        },
        {
          "internalType": "address payable",
          "name": "_refundAddress",
          "type": "address"
        },
        {
          "internalType": "uint256",
          "name": "_amountLP",
          "type": "uint256"
        },
        {
          "internalType": "bytes",
          "name": "_to",
          "type": "bytes"
        },
        {
          "components": [
            {
              "internalType": "uint256",
              "name": "dstGasForCall",
              "type": "uint256"
            },
            {
              "internalType": "uint256",
              "name": "dstNativeAmount",
              "type": "uint256"
            },
            {
              "internalType": "bytes",
              "name": "dstNativeAddr",
              "type": "bytes"
            }
          ],
          "internalType": "struct IStargateRouter.lzTxObj",
          "name": "_lzTxParams",
          "type": "tuple"
        }
      ],
      "name": "redeemLocal",
      "outputs": [],
      "stateMutability": "payable",
      "type": "function"
    },
    {
      "inputs": [
        {
          "internalType": "uint16",
          "name": "_dstChainId",
          "type": "uint16"
        },
        {
          "internalType": "uint256",
          "name": "_srcPoolId",
          "type": "uint256"
        },
        {
          "internalType": "uint256",
          "name": "_dstPoolId",
          "type": "uint256"
        },
        {
          "internalType": "address payable",
          "name": "_refundAddress",
          "type": "address"
        }
      ],
      "name": "sendCredits",
      "outputs": [],
      "stateMutability": "payable",
      "type": "function"
    },
    {
      "inputs": [
        {
          "internalType": "uint16",
          "name": "",
          "type": "uint16"
        },
        {
          "internalType": "uint8",
          "name": "",
          "type": "uint8"
        },
        {
          "internalType": "bytes",
          "name": "",
          "type": "bytes"
        },
        {
          "internalType": "bytes",
          "name": "",
          "type": "bytes"
        },
        {
          "components": [
            {
              "internalType": "uint256",
              "name": "dstGasForCall",
              "type": "uint256"
            },
            {
              "internalType": "uint256",
              "name": "dstNativeAmount",
              "type": "uint256"
            },
            {
              "internalType": "bytes",
              "name": "dstNativeAddr",
              "type": "bytes"
            }
          ],
          "internalType": "struct IStargateRouter.lzTxObj",
          "name": "",
          "type": "tuple"
        }
      ],
      "name": "quoteLayerZeroFee",
      "outputs": [
        {
          "internalType": "uint256",
          "name": "",
          "type": "uint256"
        },
        {
          "internalType": "uint256",
          "name": "",
          "type": "uint256"
        }
      ],
      "stateMutability": "pure",
      "type": "function"
    },
    {
      "inputs": [],
      "name": "factory",
      "outputs": [
        {
          "internalType": "address",
          "name": "",
          "type": "address"
        }
      ],
      "stateMutability": "pure",
      "type": "function"
    }
  ],
  "bytecode": "0x608060405234801561001057600080fd5b50611aa7806100206000396000f3fe6080604052600436106100a75760003560e01c80638b68be29116100645780638b68be291461019c5780638f2e1d18146101d95780639ba3aa74146101f55780639fbf10fc14610211578063c45a01551461022d578063c4de93a514610258576100a7565b80630a512369146100ac57806317293c87146100ea57806352efea6e14610115578063617904311461012c57806384d0dba31461015757806387b21efc14610173575b600080fd5b3480156100b857600080fd5b506100d360048036038101906100ce9190610fdf565b610295565b6040516100e19291906110c6565b60405180910390f35b3480156100f657600080fd5b506100ff6102ab565b60405161010c91906110ef565b60405180910390f35b34801561012157600080fd5b5061012a6102b7565b005b34801561013857600080fd5b5061014161039a565b60405161014e91906113d6565b60405180910390f35b610171600480360381019061016c9190611424565b610676565b005b34801561017f57600080fd5b5061019a60048036038101906101959190611554565b610681565b005b3480156101a857600080fd5b506101c360048036038101906101be91906115a7565b610686565b6040516101d091906116a7565b60405180910390f35b6101f360048036038101906101ee91906116c9565b61093f565b005b61020f600480360381019061020a91906117a7565b610949565b005b61022b6004803603810190610226919061180e565b61094f565b005b34801561023957600080fd5b50610242610b74565b60405161024f9190611945565b60405180910390f35b34801561026457600080fd5b5061027f600480360381019061027a9190611960565b610b79565b60405161028c91906110ef565b60405180910390f35b6000806000809150915097509795505050505050565b60008080549050905090565b5b6000808054905011156103985760008054806102d7576102d66119b3565b5b60019003818190600052602060002090600b0201600080820160006101000a81549061ffff0219169055600182016000905560028201600090556003820160006101000a81549073ffffffffffffffffffffffffffffffffffffffff0219169055600482016000905560058201600090556006820160006103589190610b82565b60078201600080820160009055600182016000905560028201600061037d9190610b82565b5050600a8201600061038f9190610b82565b505090556102b8565b565b60606000805480602002602001604051908101604052809291908181526020016000905b8282101561066d57838290600052602060002090600b0201604051806101200160405290816000820160009054906101000a900461ffff1661ffff1661ffff16815260200160018201548152602001600282015481526020016003820160009054906101000a900473ffffffffffffffffffffffffffffffffffffffff1673ffffffffffffffffffffffffffffffffffffffff1673ffffffffffffffffffffffffffffffffffffffff168152602001600482015481526020016005820154815260200160068201805461049090611a11565b80601f01602080910402602001604051908101604052809291908181526020018280546104bc90611a11565b80156105095780601f106104de57610100808354040283529160200191610509565b820191906000526020600020905b8154815290600101906020018083116104ec57829003601f168201915b5050505050815260200160078201604051806060016040529081600082015481526020016001820154815260200160028201805461054690611a11565b80601f016020809104026020016040519081016040528092919081815260200182805461057290611a11565b80156105bf5780601f10610594576101008083540402835291602001916105bf565b820191906000526020600020905b8154815290600101906020018083116105a257829003601f168201915b5050505050815250508152602001600a820180546105dc90611a11565b80601f016020809104026020016040519081016040528092919081815260200182805461060890611a11565b80156106555780601f1061062a57610100808354040283529160200191610655565b820191906000526020600020905b81548152906001019060200180831161063857829003601f168201915b505050505081525050815260200190600101906103be565b50505050905090565b505050505050505050565b505050565b61068e610bc2565b600082815481106106a2576106a1611a42565b5b90600052602060002090600b0201604051806101200160405290816000820160009054906101000a900461ffff1661ffff1661ffff16815260200160018201548152602001600282015481526020016003820160009054906101000a900473ffffffffffffffffffffffffffffffffffffffff1673ffffffffffffffffffffffffffffffffffffffff1673ffffffffffffffffffffffffffffffffffffffff168152602001600482015481526020016005820154815260200160068201805461076a90611a11565b80601f016020809104026020016040519081016040528092919081815260200182805461079690611a11565b80156107e35780601f106107b8576101008083540402835291602001916107e3565b820191906000526020600020905b8154815290600101906020018083116107c657829003601f168201915b5050505050815260200160078201604051806060016040529081600082015481526020016001820154815260200160028201805461082090611a11565b80601f016020809104026020016040519081016040528092919081815260200182805461084c90611a11565b80156108995780601f1061086e57610100808354040283529160200191610899565b820191906000526020600020905b81548152906001019060200180831161087c57829003601f168201915b5050505050815250508152602001600a820180546108b690611a11565b80601f01602080910402602001604051908101604052809291908181526020018280546108e290611a11565b801561092f5780601f106109045761010080835404028352916020019161092f565b820191906000526020600020905b81548152906001019060200180831161091257829003601f168201915b5050505050815250509050919050565b5050505050505050565b50505050565b60006040518061012001604052808d61ffff1681526020018c81526020018b81526020018a73ffffffffffffffffffffffffffffffffffffffff16815260200189815260200188815260200186868080601f016020809104026020016040519081016040528093929190818152602001838380828437600081840152601f19601f82011690508083019250505050505050815260200187815260200184848080601f016020809104026020016040519081016040528093929190818152602001838380828437600081840152601f19601f8201169050808301925050505050505081525090806001815401808255809150506001900390600052602060002090600b020160009091909190915060008201518160000160006101000a81548161ffff021916908361ffff160217905550602082015181600101556040820151816002015560608201518160030160006101000a81548173ffffffffffffffffffffffffffffffffffffffff021916908373ffffffffffffffffffffffffffffffffffffffff1602179055506080820151816004015560a0820151816005015560c0820151816006019080519060200190610b0a929190610c2e565b5060e08201518160070160008201518160000155602082015181600101556040820151816002019080519060200190610b44929190610c2e565b50505061010082015181600a019080519060200190610b64929190610c2e565b5050505050505050505050505050565b600090565b60009392505050565b508054610b8e90611a11565b6000825580601f10610ba05750610bbf565b601f016020900490600052602060002090810190610bbe9190610cb4565b5b50565b604051806101200160405280600061ffff1681526020016000815260200160008152602001600073ffffffffffffffffffffffffffffffffffffffff168152602001600081526020016000815260200160608152602001610c21610cd1565b8152602001606081525090565b828054610c3a90611a11565b90600052602060002090601f016020900481019282610c5c5760008555610ca3565b82601f10610c7557805160ff1916838001178555610ca3565b82800160010185558215610ca3579182015b82811115610ca2578251825591602001919060010190610c87565b5b509050610cb09190610cb4565b5090565b5b80821115610ccd576000816000905550600101610cb5565b5090565b60405180606001604052806000815260200160008152602001606081525090565b6000604051905090565b600080fd5b600080fd5b600061ffff82169050919050565b610d1d81610d06565b8114610d2857600080fd5b50565b600081359050610d3a81610d14565b92915050565b600060ff82169050919050565b610d5681610d40565b8114610d6157600080fd5b50565b600081359050610d7381610d4d565b92915050565b600080fd5b600080fd5b600080fd5b60008083601f840112610d9e57610d9d610d79565b5b8235905067ffffffffffffffff811115610dbb57610dba610d7e565b5b602083019150836001820283011115610dd757610dd6610d83565b5b9250929050565b600080fd5b6000601f19601f8301169050919050565b7f4e487b7100000000000000000000000000000000000000000000000000000000600052604160045260246000fd5b610e2c82610de3565b810181811067ffffffffffffffff82111715610e4b57610e4a610df4565b5b80604052505050565b6000610e5e610cf2565b9050610e6a8282610e23565b919050565b600080fd5b6000819050919050565b610e8781610e74565b8114610e9257600080fd5b50565b600081359050610ea481610e7e565b92915050565b600080fd5b600067ffffffffffffffff821115610eca57610ec9610df4565b5b610ed382610de3565b9050602081019050919050565b82818337600083830152505050565b6000610f02610efd84610eaf565b610e54565b905082815260208101848484011115610f1e57610f1d610eaa565b5b610f29848285610ee0565b509392505050565b600082601f830112610f4657610f45610d79565b5b8135610f56848260208601610eef565b91505092915050565b600060608284031215610f7557610f74610dde565b5b610f7f6060610e54565b90506000610f8f84828501610e95565b6000830152506020610fa384828501610e95565b602083015250604082013567ffffffffffffffff811115610fc757610fc6610e6f565b5b610fd384828501610f31565b60408301525092915050565b600080600080600080600060a0888a031215610ffe57610ffd610cfc565b5b600061100c8a828b01610d2b565b975050602061101d8a828b01610d64565b965050604088013567ffffffffffffffff81111561103e5761103d610d01565b5b61104a8a828b01610d88565b9550955050606088013567ffffffffffffffff81111561106d5761106c610d01565b5b6110798a828b01610d88565b9350935050608088013567ffffffffffffffff81111561109c5761109b610d01565b5b6110a88a828b01610f5f565b91505092959891949750929550565b6110c081610e74565b82525050565b60006040820190506110db60008301856110b7565b6110e860208301846110b7565b9392505050565b600060208201905061110460008301846110b7565b92915050565b600081519050919050565b600082825260208201905092915050565b6000819050602082019050919050565b61113f81610d06565b82525050565b61114e81610e74565b82525050565b600073ffffffffffffffffffffffffffffffffffffffff82169050919050565b600061117f82611154565b9050919050565b61118f81611174565b82525050565b600081519050919050565b600082825260208201905092915050565b60005b838110156111cf5780820151818401526020810190506111b4565b838111156111de576000848401525b50505050565b60006111ef82611195565b6111f981856111a0565b93506112098185602086016111b1565b61121281610de3565b840191505092915050565b60006060830160008301516112356000860182611145565b5060208301516112486020860182611145565b506040830151848203604086015261126082826111e4565b9150508091505092915050565b6000610120830160008301516112866000860182611136565b5060208301516112996020860182611145565b5060408301516112ac6040860182611145565b5060608301516112bf6060860182611186565b5060808301516112d26080860182611145565b5060a08301516112e560a0860182611145565b5060c083015184820360c08601526112fd82826111e4565b91505060e083015184820360e0860152611317828261121d565b91505061010083015184820361010086015261133382826111e4565b9150508091505092915050565b600061134c838361126d565b905092915050565b6000602082019050919050565b600061136c8261110a565b6113768185611115565b93508360208202850161138885611126565b8060005b858110156113c457848403895281516113a58582611340565b94506113b083611354565b925060208a0199505060018101905061138c565b50829750879550505050505092915050565b600060208201905081810360008301526113f08184611361565b905092915050565b61140181611174565b811461140c57600080fd5b50565b60008135905061141e816113f8565b92915050565b60008060008060008060008060006101008a8c03121561144757611446610cfc565b5b60006114558c828d01610d2b565b99505060206114668c828d01610e95565b98505060406114778c828d01610e95565b97505060606114888c828d0161140f565b96505060806114998c828d01610e95565b95505060a06114aa8c828d01610e95565b94505060c08a013567ffffffffffffffff8111156114cb576114ca610d01565b5b6114d78c828d01610d88565b935093505060e08a013567ffffffffffffffff8111156114fa576114f9610d01565b5b6115068c828d01610f5f565b9150509295985092959850929598565b600061152182611154565b9050919050565b61153181611516565b811461153c57600080fd5b50565b60008135905061154e81611528565b92915050565b60008060006060848603121561156d5761156c610cfc565b5b600061157b86828701610e95565b935050602061158c86828701610e95565b925050604061159d8682870161153f565b9150509250925092565b6000602082840312156115bd576115bc610cfc565b5b60006115cb84828501610e95565b91505092915050565b6000610120830160008301516115ed6000860182611136565b5060208301516116006020860182611145565b5060408301516116136040860182611145565b5060608301516116266060860182611186565b5060808301516116396080860182611145565b5060a083015161164c60a0860182611145565b5060c083015184820360c086015261166482826111e4565b91505060e083015184820360e086015261167e828261121d565b91505061010083015184820361010086015261169a82826111e4565b9150508091505092915050565b600060208201905081810360008301526116c181846115d4565b905092915050565b60008060008060008060008060e0898b0312156116e9576116e8610cfc565b5b60006116f78b828c01610d2b565b98505060206117088b828c01610e95565b97505060406117198b828c01610e95565b965050606061172a8b828c0161140f565b955050608061173b8b828c01610e95565b94505060a089013567ffffffffffffffff81111561175c5761175b610d01565b5b6117688b828c01610d88565b935093505060c089013567ffffffffffffffff81111561178b5761178a610d01565b5b6117978b828c01610f5f565b9150509295985092959890939650565b600080600080608085870312156117c1576117c0610cfc565b5b60006117cf87828801610d2b565b94505060206117e087828801610e95565b93505060406117f187828801610e95565b92505060606118028782880161140f565b91505092959194509250565b60008060008060008060008060008060006101208c8e03121561183457611833610cfc565b5b60006118428e828f01610d2b565b9b505060206118538e828f01610e95565b9a505060406118648e828f01610e95565b99505060606118758e828f0161140f565b98505060806118868e828f01610e95565b97505060a06118978e828f01610e95565b96505060c08c013567ffffffffffffffff8111156118b8576118b7610d01565b5b6118c48e828f01610f5f565b95505060e08c013567ffffffffffffffff8111156118e5576118e4610d01565b5b6118f18e828f01610d88565b94509450506101008c013567ffffffffffffffff81111561191557611914610d01565b5b6119218e828f01610d88565b92509250509295989b509295989b9093969950565b61193f81611516565b82525050565b600060208201905061195a6000830184611936565b92915050565b60008060006060848603121561197957611978610cfc565b5b600061198786828701610d2b565b935050602061199886828701610e95565b92505060406119a98682870161153f565b9150509250925092565b7f4e487b7100000000000000000000000000000000000000000000000000000000600052603160045260246000fd5b7f4e487b7100000000000000000000000000000000000000000000000000000000600052602260045260246000fd5b60006002820490506001821680611a2957607f821691505b602082108103611a3c57611a3b6119e2565b5b50919050565b7f4e487b7100000000000000000000000000000000000000000000000000000000600052603260045260246000fdfea2646970667358221220c8c92de35bac942d8f2e5f22826afec79917426c9da58fc79aa85ce02f14976064736f6c634300080d0033",
  "immutableReferences": {},
  "source": "// SPDX-License-Identifier: BUSL-1.1\n\npragma solidity ^0.8.13;\n\nimport './IStargateRouter.sol';\n\ncontract MockStargateRouter is IStargateRouter {\n  struct MockStargateRouterSwapArgs {\n    uint16 dstChainId;\n    uint256 srcPoolId;\n    uint256 dstPoolId;\n    address payable refundAddress;\n    uint256 amount;\n    uint256 minAmountOut;\n    bytes to;\n    lzTxObj lzTxParams;\n    bytes payload;\n  }\n\n  MockStargateRouterSwapArgs[] internal swapInvocations;\n\n  function getSwapInvocations() public view returns (MockStargateRouterSwapArgs[] memory) {\n    return swapInvocations;\n  }\n\n  function getSwapInvocationAt(uint256 i) public view returns (MockStargateRouterSwapArgs memory) {\n    return swapInvocations[i];\n  }\n\n  function getSwapInvocationCount() public view returns (uint256) {\n    return swapInvocations.length;\n  }\n\n  function clear() public {\n    while (swapInvocations.length > 0) {\n      swapInvocations.pop();\n    }\n  }\n\n  function addLiquidity(\n    uint256 _poolId,\n    uint256 _amountLD,\n    address _to\n  ) external {}\n\n  function swap(\n    uint16 _dstChainId,\n    uint256 _srcPoolId,\n    uint256 _dstPoolId,\n    address payable _refundAddress,\n    uint256 _amountLD,\n    uint256 _minAmountLD,\n    lzTxObj memory _lzTxParams,\n    bytes calldata _to,\n    bytes calldata _payload\n  ) external payable {\n    swapInvocations.push(\n      MockStargateRouterSwapArgs(_dstChainId, _srcPoolId, _dstPoolId, _refundAddress, _amountLD, _minAmountLD, _to, _lzTxParams, _payload)\n    );\n  }\n\n  function redeemRemote(\n    uint16 _dstChainId,\n    uint256 _srcPoolId,\n    uint256 _dstPoolId,\n    address payable _refundAddress,\n    uint256 _amountLP,\n    uint256 _minAmountLD,\n    bytes calldata _to,\n    lzTxObj memory _lzTxParams\n  ) external payable {}\n\n  function instantRedeemLocal(\n    uint16,\n    uint256,\n    address\n  ) external pure returns (uint256) {\n    return 0;\n  }\n\n  function redeemLocal(\n    uint16 _dstChainId,\n    uint256 _srcPoolId,\n    uint256 _dstPoolId,\n    address payable _refundAddress,\n    uint256 _amountLP,\n    bytes calldata _to,\n    lzTxObj memory _lzTxParams\n  ) external payable {}\n\n  function sendCredits(\n    uint16 _dstChainId,\n    uint256 _srcPoolId,\n    uint256 _dstPoolId,\n    address payable _refundAddress\n  ) external payable {}\n\n  function quoteLayerZeroFee(\n    uint16,\n    uint8,\n    bytes calldata,\n    bytes calldata,\n    lzTxObj memory\n  ) external pure returns (uint256, uint256) {\n    return (0, 0);\n  }\n\n  function factory() external pure returns (address) {\n    return address(0);\n  }\n}\n",
  "sourcePath": "/home/asdf/fmp3/platform/evm/contracts/actions/stargate/MockStargateRouter.sol",
  "compiler": {
    "name": "solc",
    "version": "0.8.13+commit.abaa5c0e.Emscripten.clang"
  },
  "schemaVersion": "3.4.11",
  "updatedAt": "2023-02-05T18:33:19.039Z",
  "devdoc": {
    "kind": "dev",
    "methods": {},
    "version": 1
  },
  "userdoc": {
    "kind": "user",
    "methods": {},
    "version": 1
  }
}