{
  "contractName": "MockWorkflowRunner",
  "abi": [
    {
      "anonymous": false,
      "inputs": [
        {
          "indexed": false,
          "internalType": "address",
          "name": "userAddress",
          "type": "address"
        },
        {
          "indexed": false,
          "internalType": "uint256",
          "name": "nonce",
          "type": "uint256"
        },
        {
          "components": [
            {
              "components": [
                {
                  "internalType": "uint16",
                  "name": "actionId",
                  "type": "uint16"
                },
                {
                  "internalType": "address",
                  "name": "actionAddress",
                  "type": "address"
                },
                {
                  "components": [
                    {
                      "components": [
                        {
                          "internalType": "enum AssetType",
                          "name": "assetType",
                          "type": "uint8"
                        },
                        {
                          "internalType": "address",
                          "name": "assetAddress",
                          "type": "address"
                        }
                      ],
                      "internalType": "struct Asset",
                      "name": "asset",
                      "type": "tuple"
                    },
                    {
                      "internalType": "uint256",
                      "name": "amount",
                      "type": "uint256"
                    },
                    {
                      "internalType": "bool",
                      "name": "amountIsPercent",
                      "type": "bool"
                    }
                  ],
                  "internalType": "struct WorkflowStepInputAsset[]",
                  "name": "inputAssets",
                  "type": "tuple[]"
                },
                {
                  "components": [
                    {
                      "internalType": "enum AssetType",
                      "name": "assetType",
                      "type": "uint8"
                    },
                    {
                      "internalType": "address",
                      "name": "assetAddress",
                      "type": "address"
                    }
                  ],
                  "internalType": "struct Asset[]",
                  "name": "outputAssets",
                  "type": "tuple[]"
                },
                {
                  "internalType": "bytes",
                  "name": "data",
                  "type": "bytes"
                },
                {
                  "internalType": "int16",
                  "name": "nextStepIndex",
                  "type": "int16"
                }
              ],
              "internalType": "struct WorkflowStep[]",
              "name": "steps",
              "type": "tuple[]"
            }
          ],
          "indexed": false,
          "internalType": "struct Workflow",
          "name": "workflow",
          "type": "tuple"
        },
        {
          "components": [
            {
              "components": [
                {
                  "internalType": "enum AssetType",
                  "name": "assetType",
                  "type": "uint8"
                },
                {
                  "internalType": "address",
                  "name": "assetAddress",
                  "type": "address"
                }
              ],
              "internalType": "struct Asset",
              "name": "asset",
              "type": "tuple"
            },
            {
              "internalType": "uint256",
              "name": "amount",
              "type": "uint256"
            }
          ],
          "indexed": false,
          "internalType": "struct AssetAmount",
          "name": "startingAsset",
          "type": "tuple"
        }
      ],
      "name": "ContinueWorkflowInvoked",
      "type": "event"
    },
    {
      "inputs": [
        {
          "components": [
            {
              "components": [
                {
                  "internalType": "uint16",
                  "name": "actionId",
                  "type": "uint16"
                },
                {
                  "internalType": "address",
                  "name": "actionAddress",
                  "type": "address"
                },
                {
                  "components": [
                    {
                      "components": [
                        {
                          "internalType": "enum AssetType",
                          "name": "assetType",
                          "type": "uint8"
                        },
                        {
                          "internalType": "address",
                          "name": "assetAddress",
                          "type": "address"
                        }
                      ],
                      "internalType": "struct Asset",
                      "name": "asset",
                      "type": "tuple"
                    },
                    {
                      "internalType": "uint256",
                      "name": "amount",
                      "type": "uint256"
                    },
                    {
                      "internalType": "bool",
                      "name": "amountIsPercent",
                      "type": "bool"
                    }
                  ],
                  "internalType": "struct WorkflowStepInputAsset[]",
                  "name": "inputAssets",
                  "type": "tuple[]"
                },
                {
                  "components": [
                    {
                      "internalType": "enum AssetType",
                      "name": "assetType",
                      "type": "uint8"
                    },
                    {
                      "internalType": "address",
                      "name": "assetAddress",
                      "type": "address"
                    }
                  ],
                  "internalType": "struct Asset[]",
                  "name": "outputAssets",
                  "type": "tuple[]"
                },
                {
                  "internalType": "bytes",
                  "name": "data",
                  "type": "bytes"
                },
                {
                  "internalType": "int16",
                  "name": "nextStepIndex",
                  "type": "int16"
                }
              ],
              "internalType": "struct WorkflowStep[]",
              "name": "steps",
              "type": "tuple[]"
            }
          ],
          "internalType": "struct Workflow",
          "name": "workflow",
          "type": "tuple"
        }
      ],
      "name": "executeWorkflow",
      "outputs": [],
      "stateMutability": "payable",
      "type": "function"
    },
    {
      "inputs": [
        {
          "internalType": "address",
          "name": "userAddress",
          "type": "address"
        },
        {
          "internalType": "uint256",
          "name": "nonce",
          "type": "uint256"
        },
        {
          "components": [
            {
              "components": [
                {
                  "internalType": "uint16",
                  "name": "actionId",
                  "type": "uint16"
                },
                {
                  "internalType": "address",
                  "name": "actionAddress",
                  "type": "address"
                },
                {
                  "components": [
                    {
                      "components": [
                        {
                          "internalType": "enum AssetType",
                          "name": "assetType",
                          "type": "uint8"
                        },
                        {
                          "internalType": "address",
                          "name": "assetAddress",
                          "type": "address"
                        }
                      ],
                      "internalType": "struct Asset",
                      "name": "asset",
                      "type": "tuple"
                    },
                    {
                      "internalType": "uint256",
                      "name": "amount",
                      "type": "uint256"
                    },
                    {
                      "internalType": "bool",
                      "name": "amountIsPercent",
                      "type": "bool"
                    }
                  ],
                  "internalType": "struct WorkflowStepInputAsset[]",
                  "name": "inputAssets",
                  "type": "tuple[]"
                },
                {
                  "components": [
                    {
                      "internalType": "enum AssetType",
                      "name": "assetType",
                      "type": "uint8"
                    },
                    {
                      "internalType": "address",
                      "name": "assetAddress",
                      "type": "address"
                    }
                  ],
                  "internalType": "struct Asset[]",
                  "name": "outputAssets",
                  "type": "tuple[]"
                },
                {
                  "internalType": "bytes",
                  "name": "data",
                  "type": "bytes"
                },
                {
                  "internalType": "int16",
                  "name": "nextStepIndex",
                  "type": "int16"
                }
              ],
              "internalType": "struct WorkflowStep[]",
              "name": "steps",
              "type": "tuple[]"
            }
          ],
          "internalType": "struct Workflow",
          "name": "workflow",
          "type": "tuple"
        },
        {
          "components": [
            {
              "components": [
                {
                  "internalType": "enum AssetType",
                  "name": "assetType",
                  "type": "uint8"
                },
                {
                  "internalType": "address",
                  "name": "assetAddress",
                  "type": "address"
                }
              ],
              "internalType": "struct Asset",
              "name": "asset",
              "type": "tuple"
            },
            {
              "internalType": "uint256",
              "name": "amount",
              "type": "uint256"
            }
          ],
          "internalType": "struct AssetAmount",
          "name": "startingAsset",
          "type": "tuple"
        }
      ],
      "name": "continueWorkflow",
      "outputs": [],
      "stateMutability": "nonpayable",
      "type": "function"
    }
  ],
  "bytecode": "0x608060405234801561001057600080fd5b50610e98806100206000396000f3fe6080604052600436106100295760003560e01c80637bb0be871461002e578063a2af321d1461004a575b600080fd5b610048600480360381019061004391906100f1565b610073565b005b34801561005657600080fd5b50610071600480360381019061006c91906108aa565b610076565b005b50565b7fb8aee72deeda28d9eca3a2dcc6764973fb648b757def87f765dd9537c7c1fc3a848484846040516100ab9493929190610e16565b60405180910390a150505050565b6000604051905090565b600080fd5b600080fd5b600080fd5b6000602082840312156100e8576100e76100cd565b5b81905092915050565b600060208284031215610107576101066100c3565b5b600082013567ffffffffffffffff811115610125576101246100c8565b5b610131848285016100d2565b91505092915050565b600073ffffffffffffffffffffffffffffffffffffffff82169050919050565b60006101658261013a565b9050919050565b6101758161015a565b811461018057600080fd5b50565b6000813590506101928161016c565b92915050565b6000819050919050565b6101ab81610198565b81146101b657600080fd5b50565b6000813590506101c8816101a2565b92915050565b600080fd5b6000601f19601f8301169050919050565b7f4e487b7100000000000000000000000000000000000000000000000000000000600052604160045260246000fd5b61021c826101d3565b810181811067ffffffffffffffff8211171561023b5761023a6101e4565b5b80604052505050565b600061024e6100b9565b905061025a8282610213565b919050565b600080fd5b600080fd5b600067ffffffffffffffff821115610284576102836101e4565b5b602082029050602081019050919050565b600080fd5b600061ffff82169050919050565b6102b18161029a565b81146102bc57600080fd5b50565b6000813590506102ce816102a8565b92915050565b600067ffffffffffffffff8211156102ef576102ee6101e4565b5b602082029050602081019050919050565b6003811061030d57600080fd5b50565b60008135905061031f81610300565b92915050565b60006040828403121561033b5761033a6101ce565b5b6103456040610244565b9050600061035584828501610310565b600083015250602061036984828501610183565b60208301525092915050565b60008115159050919050565b61038a81610375565b811461039557600080fd5b50565b6000813590506103a781610381565b92915050565b6000608082840312156103c3576103c26101ce565b5b6103cd6060610244565b905060006103dd84828501610325565b60008301525060406103f1848285016101b9565b602083015250606061040584828501610398565b60408301525092915050565b600061042461041f846102d4565b610244565b9050808382526020820190506080840283018581111561044757610446610295565b5b835b81811015610470578061045c88826103ad565b845260208401935050608081019050610449565b5050509392505050565b600082601f83011261048f5761048e610264565b5b813561049f848260208601610411565b91505092915050565b600067ffffffffffffffff8211156104c3576104c26101e4565b5b602082029050602081019050919050565b60006104e76104e2846104a8565b610244565b9050808382526020820190506040840283018581111561050a57610509610295565b5b835b81811015610533578061051f8882610325565b84526020840193505060408101905061050c565b5050509392505050565b600082601f83011261055257610551610264565b5b81356105628482602086016104d4565b91505092915050565b600080fd5b600067ffffffffffffffff82111561058b5761058a6101e4565b5b610594826101d3565b9050602081019050919050565b82818337600083830152505050565b60006105c36105be84610570565b610244565b9050828152602081018484840111156105df576105de61056b565b5b6105ea8482856105a1565b509392505050565b600082601f83011261060757610606610264565b5b81356106178482602086016105b0565b91505092915050565b60008160010b9050919050565b61063681610620565b811461064157600080fd5b50565b6000813590506106538161062d565b92915050565b600060c0828403121561066f5761066e6101ce565b5b61067960c0610244565b90506000610689848285016102bf565b600083015250602061069d84828501610183565b602083015250604082013567ffffffffffffffff8111156106c1576106c061025f565b5b6106cd8482850161047a565b604083015250606082013567ffffffffffffffff8111156106f1576106f061025f565b5b6106fd8482850161053d565b606083015250608082013567ffffffffffffffff8111156107215761072061025f565b5b61072d848285016105f2565b60808301525060a061074184828501610644565b60a08301525092915050565b600061076061075b84610269565b610244565b9050808382526020820190506020840283018581111561078357610782610295565b5b835b818110156107ca57803567ffffffffffffffff8111156107a8576107a7610264565b5b8086016107b58982610659565b85526020850194505050602081019050610785565b5050509392505050565b600082601f8301126107e9576107e8610264565b5b81356107f984826020860161074d565b91505092915050565b600060208284031215610818576108176101ce565b5b6108226020610244565b9050600082013567ffffffffffffffff8111156108425761084161025f565b5b61084e848285016107d4565b60008301525092915050565b6000606082840312156108705761086f6101ce565b5b61087a6040610244565b9050600061088a84828501610325565b600083015250604061089e848285016101b9565b60208301525092915050565b60008060008060c085870312156108c4576108c36100c3565b5b60006108d287828801610183565b94505060206108e3878288016101b9565b935050604085013567ffffffffffffffff811115610904576109036100c8565b5b61091087828801610802565b92505060606109218782880161085a565b91505092959194509250565b6109368161015a565b82525050565b61094581610198565b82525050565b600081519050919050565b600082825260208201905092915050565b6000819050602082019050919050565b6109808161029a565b82525050565b61098f8161015a565b82525050565b600081519050919050565b600082825260208201905092915050565b6000819050602082019050919050565b7f4e487b7100000000000000000000000000000000000000000000000000000000600052602160045260246000fd5b60038110610a0157610a006109c1565b5b50565b6000819050610a12826109f0565b919050565b6000610a2282610a04565b9050919050565b610a3281610a17565b82525050565b604082016000820151610a4e6000850182610a29565b506020820151610a616020850182610986565b50505050565b610a7081610198565b82525050565b610a7f81610375565b82525050565b608082016000820151610a9b6000850182610a38565b506020820151610aae6040850182610a67565b506040820151610ac16060850182610a76565b50505050565b6000610ad38383610a85565b60808301905092915050565b6000602082019050919050565b6000610af782610995565b610b0181856109a0565b9350610b0c836109b1565b8060005b83811015610b3d578151610b248882610ac7565b9750610b2f83610adf565b925050600181019050610b10565b5085935050505092915050565b600081519050919050565b600082825260208201905092915050565b6000819050602082019050919050565b6000610b828383610a38565b60408301905092915050565b6000602082019050919050565b6000610ba682610b4a565b610bb08185610b55565b9350610bbb83610b66565b8060005b83811015610bec578151610bd38882610b76565b9750610bde83610b8e565b925050600181019050610bbf565b5085935050505092915050565b600081519050919050565b600082825260208201905092915050565b60005b83811015610c33578082015181840152602081019050610c18565b83811115610c42576000848401525b50505050565b6000610c5382610bf9565b610c5d8185610c04565b9350610c6d818560208601610c15565b610c76816101d3565b840191505092915050565b610c8a81610620565b82525050565b600060c083016000830151610ca86000860182610977565b506020830151610cbb6020860182610986565b5060408301518482036040860152610cd38282610aec565b91505060608301518482036060860152610ced8282610b9b565b91505060808301518482036080860152610d078282610c48565b91505060a0830151610d1c60a0860182610c81565b508091505092915050565b6000610d338383610c90565b905092915050565b6000602082019050919050565b6000610d538261094b565b610d5d8185610956565b935083602082028501610d6f85610967565b8060005b85811015610dab5784840389528151610d8c8582610d27565b9450610d9783610d3b565b925060208a01995050600181019050610d73565b50829750879550505050505092915050565b60006020830160008301518482036000860152610dda8282610d48565b9150508091505092915050565b606082016000820151610dfd6000850182610a38565b506020820151610e106040850182610a67565b50505050565b600060c082019050610e2b600083018761092d565b610e38602083018661093c565b8181036040830152610e4a8185610dbd565b9050610e596060830184610de7565b9594505050505056fea26469706673582212200f987ff38183e4ecea29f2d34da7e4c84173b2e9ea0f76e984d5eceac50cd7f264736f6c634300080d0033",
  "immutableReferences": {},
  "source": "// SPDX-License-Identifier: MIT\npragma solidity ^0.8.13;\nimport '../../IWorkflowRunner.sol';\nimport '../../model/Workflow.sol';\nimport '../../model/AssetAmount.sol';\n\ncontract MockWorkflowRunner is IWorkflowRunner {\n  event ContinueWorkflowInvoked(address userAddress, uint256 nonce, Workflow workflow, AssetAmount startingAsset);\n\n  function executeWorkflow(Workflow calldata workflow) external payable {\n    // empty\n  }\n\n  function continueWorkflow(\n    address userAddress,\n    uint256 nonce,\n    Workflow memory workflow,\n    AssetAmount memory startingAsset\n  ) external {\n    emit ContinueWorkflowInvoked(userAddress, nonce, workflow, startingAsset);\n  }\n}\n",
  "sourcePath": "/home/asdf/fmp3/platform/evm/contracts/actions/stargate/MockWorkflowRunner.sol",
  "compiler": {
    "name": "solc",
    "version": "0.8.13+commit.abaa5c0e.Emscripten.clang"
  },
  "schemaVersion": "3.4.11",
  "updatedAt": "2023-02-05T18:33:19.043Z",
  "devdoc": {
    "kind": "dev",
    "methods": {},
    "version": 1
  },
  "userdoc": {
    "kind": "user",
    "methods": {},
    "version": 1
  }
}