{
  "contractName": "Proxy",
  "abi": [
    {
      "inputs": [
        {
          "internalType": "address",
          "name": "owner",
          "type": "address"
        },
        {
          "internalType": "address",
          "name": "storageAddress",
          "type": "address"
        },
        {
          "internalType": "address",
          "name": "upstream",
          "type": "address"
        },
        {
          "internalType": "bool",
          "name": "userProxy",
          "type": "bool"
        }
      ],
      "stateMutability": "nonpayable",
      "type": "constructor"
    },
    {
      "anonymous": false,
      "inputs": [
        {
          "indexed": false,
          "internalType": "address",
          "name": "sender",
          "type": "address"
        },
        {
          "indexed": false,
          "internalType": "address",
          "name": "newOwner",
          "type": "address"
        }
      ],
      "name": "LogNewOwner",
      "type": "event"
    },
    {
      "stateMutability": "payable",
      "type": "fallback"
    },
    {
      "inputs": [],
      "name": "eternalStorageAddress",
      "outputs": [
        {
          "internalType": "address",
          "name": "",
          "type": "address"
        }
      ],
      "stateMutability": "view",
      "type": "function"
    },
    {
      "inputs": [],
      "name": "isUserProxy",
      "outputs": [
        {
          "internalType": "bool",
          "name": "",
          "type": "bool"
        }
      ],
      "stateMutability": "view",
      "type": "function"
    },
    {
      "inputs": [],
      "name": "owner",
      "outputs": [
        {
          "internalType": "address payable",
          "name": "",
          "type": "address"
        }
      ],
      "stateMutability": "view",
      "type": "function"
    },
    {
      "inputs": [
        {
          "internalType": "address payable",
          "name": "newOwner",
          "type": "address"
        }
      ],
      "name": "setOwner",
      "outputs": [],
      "stateMutability": "nonpayable",
      "type": "function"
    },
    {
      "inputs": [],
      "name": "upstreamAddress",
      "outputs": [
        {
          "internalType": "address",
          "name": "",
          "type": "address"
        }
      ],
      "stateMutability": "view",
      "type": "function"
    },
    {
      "stateMutability": "payable",
      "type": "receive"
    },
    {
      "inputs": [],
      "name": "getUpstream",
      "outputs": [
        {
          "internalType": "address",
          "name": "",
          "type": "address"
        }
      ],
      "stateMutability": "view",
      "type": "function"
    }
  ],
  "bytecode": "0x608060405234801561001057600080fd5b5060405161082e38038061082e833981810160405281019061003291906101bc565b8383838383806000806101000a81548173ffffffffffffffffffffffffffffffffffffffff021916908373ffffffffffffffffffffffffffffffffffffffff1602179055505082600160006101000a81548173ffffffffffffffffffffffffffffffffffffffff021916908373ffffffffffffffffffffffffffffffffffffffff16021790555081600260006101000a81548173ffffffffffffffffffffffffffffffffffffffff021916908373ffffffffffffffffffffffffffffffffffffffff16021790555080600260146101000a81548160ff0219169083151502179055505050505050505050610223565b600080fd5b600073ffffffffffffffffffffffffffffffffffffffff82169050919050565b600061015182610126565b9050919050565b61016181610146565b811461016c57600080fd5b50565b60008151905061017e81610158565b92915050565b60008115159050919050565b61019981610184565b81146101a457600080fd5b50565b6000815190506101b681610190565b92915050565b600080600080608085870312156101d6576101d5610121565b5b60006101e48782880161016f565b94505060206101f58782880161016f565b93505060406102068782880161016f565b9250506060610217878288016101a7565b91505092959194509250565b6105fc806102326000396000f3fe6080604052600436106100595760003560e01c806313af4035146100d957806332b56aaf14610102578063384782fe1461012d57806356dececb146101585780638da5cb5b14610183578063ff05c2a8146101ae57610060565b3661006057005b6100d73073ffffffffffffffffffffffffffffffffffffffff166356dececb6040518163ffffffff1660e01b8152600401602060405180830381865afa1580156100ae573d6000803e3d6000fd5b505050506040513d601f19601f820116820180604052508101906100d2919061041c565b6101d9565b005b3480156100e557600080fd5b5061010060048036038101906100fb9190610487565b6101ff565b005b34801561010e57600080fd5b5061011761030c565b60405161012491906104c3565b60405180910390f35b34801561013957600080fd5b50610142610332565b60405161014f91906104c3565b60405180910390f35b34801561016457600080fd5b5061016d610358565b60405161017a91906104c3565b60405180910390f35b34801561018f57600080fd5b50610198610382565b6040516101a591906104ed565b60405180910390f35b3480156101ba57600080fd5b506101c36103a6565b6040516101d09190610523565b60405180910390f35b3660008037600080366000845af43d6000803e80600081146101fa573d6000f35b3d6000fd5b60008054906101000a900473ffffffffffffffffffffffffffffffffffffffff1673ffffffffffffffffffffffffffffffffffffffff163373ffffffffffffffffffffffffffffffffffffffff161461025757600080fd5b600073ffffffffffffffffffffffffffffffffffffffff168173ffffffffffffffffffffffffffffffffffffffff160361029057600080fd5b806000806101000a81548173ffffffffffffffffffffffffffffffffffffffff021916908373ffffffffffffffffffffffffffffffffffffffff1602179055507f1f8d7d25344642d919d55999e4664aa452a5f424bc0936ceb9c2b300db7dcbd9338260405161030192919061059d565b60405180910390a150565b600260009054906101000a900473ffffffffffffffffffffffffffffffffffffffff1681565b600160009054906101000a900473ffffffffffffffffffffffffffffffffffffffff1681565b6000600260009054906101000a900473ffffffffffffffffffffffffffffffffffffffff16905090565b60008054906101000a900473ffffffffffffffffffffffffffffffffffffffff1681565b600260149054906101000a900460ff1681565b600080fd5b600073ffffffffffffffffffffffffffffffffffffffff82169050919050565b60006103e9826103be565b9050919050565b6103f9816103de565b811461040457600080fd5b50565b600081519050610416816103f0565b92915050565b600060208284031215610432576104316103b9565b5b600061044084828501610407565b91505092915050565b6000610454826103be565b9050919050565b61046481610449565b811461046f57600080fd5b50565b6000813590506104818161045b565b92915050565b60006020828403121561049d5761049c6103b9565b5b60006104ab84828501610472565b91505092915050565b6104bd816103de565b82525050565b60006020820190506104d860008301846104b4565b92915050565b6104e781610449565b82525050565b600060208201905061050260008301846104de565b92915050565b60008115159050919050565b61051d81610508565b82525050565b60006020820190506105386000830184610514565b92915050565b6000819050919050565b600061056361055e610559846103be565b61053e565b6103be565b9050919050565b600061057582610548565b9050919050565b60006105878261056a565b9050919050565b6105978161057c565b82525050565b60006040820190506105b260008301856104b4565b6105bf602083018461058e565b939250505056fea26469706673582212208bf8db98a5c7d42b003ead609d4cfe01fa25c991ee40134e08c7bc7eea5df60f64736f6c634300080d0033",
  "immutableReferences": {},
  "source": "// SPDX-License-Identifier: MIT\npragma solidity ^0.8.13;\nimport './IHasUpstream.sol';\nimport './FreeMarketBase.sol';\n\ncontract Proxy is FreeMarketBase, IHasUpstream {\n  constructor(\n    address owner,\n    address storageAddress,\n    address upstream,\n    bool userProxy\n  ) FreeMarketBase(owner, storageAddress, upstream, userProxy) {}\n\n  function getUpstream() external view virtual returns (address) {\n    return upstreamAddress;\n  }\n\n  /// @dev this forwards all calls generically to upstream, only the owner can invoke this\n  fallback() external payable {\n    // enforce owner authz in upstream\n    // require(owner == msg.sender);\n    _delegate(this.getUpstream());\n  }\n\n  /// @dev this allows this contract to receive ETH\n  receive() external payable {\n    // noop\n  }\n\n  /**\n   * @dev Delegates execution to an implementation contract.\n   * This is a low level function that doesn't return to its internal call site.\n   * It will return to the external caller whatever the implementation returns.\n   */\n  function _delegate(address upstr) internal {\n    assembly {\n      // Copy msg.data. We take full control of memory in this inline assembly\n      // block because it will not return to Solidity code. We overwrite the\n      // Solidity scratch pad at memory position 0.\n      calldatacopy(0, 0, calldatasize())\n      // Call the implementation.\n      // out and outsize are 0 because we don't know the size yet.\n      let result := delegatecall(gas(), upstr, 0, calldatasize(), 0, 0)\n      // Copy the returned data.\n      returndatacopy(0, 0, returndatasize())\n      switch result\n      // delegatecall returns 0 on error.\n      case 0 {\n        revert(0, returndatasize())\n      }\n      default {\n        return(0, returndatasize())\n      }\n      // let ptr := mload(0x40)\n      // calldatacopy(ptr, 0, calldatasize())\n      // let result := delegatecall(gas(), implementation, ptr, calldatasize(), 0, 0)\n      // let size := returndatasize()\n      // returndatacopy(ptr, 0, size)\n      // switch result\n      // case 0 {\n      //   revert(ptr, size)\n      // }\n      // default {\n      //   return(ptr, size)\n      // }\n    }\n  }\n}\n",
  "sourcePath": "/home/asdf/fmp3/platform/evm/contracts/Proxy.sol",
  "compiler": {
    "name": "solc",
    "version": "0.8.13+commit.abaa5c0e.Emscripten.clang"
  },
  "schemaVersion": "3.4.11",
  "updatedAt": "2023-02-05T18:33:19.010Z",
  "devdoc": {
    "kind": "dev",
    "methods": {},
    "version": 1
  },
  "userdoc": {
    "kind": "user",
    "methods": {},
    "version": 1
  }
}