{
  "contractName": "StargateBridgeAction",
  "abi": [
    {
      "inputs": [
        {
          "internalType": "address",
          "name": "_frontDoorAddress",
          "type": "address"
        },
        {
          "internalType": "address",
          "name": "_stargateRouterAddress",
          "type": "address"
        }
      ],
      "stateMutability": "nonpayable",
      "type": "constructor"
    },
    {
      "anonymous": false,
      "inputs": [
        {
          "components": [
            {
              "internalType": "address",
              "name": "userAddress",
              "type": "address"
            },
            {
              "internalType": "uint256",
              "name": "nonce",
              "type": "uint256"
            },
            {
              "components": [
                {
                  "components": [
                    {
                      "internalType": "uint16",
                      "name": "actionId",
                      "type": "uint16"
                    },
                    {
                      "internalType": "address",
                      "name": "actionAddress",
                      "type": "address"
                    },
                    {
                      "components": [
                        {
                          "components": [
                            {
                              "internalType": "enum AssetType",
                              "name": "assetType",
                              "type": "uint8"
                            },
                            {
                              "internalType": "address",
                              "name": "assetAddress",
                              "type": "address"
                            }
                          ],
                          "internalType": "struct Asset",
                          "name": "asset",
                          "type": "tuple"
                        },
                        {
                          "internalType": "uint256",
                          "name": "amount",
                          "type": "uint256"
                        },
                        {
                          "internalType": "bool",
                          "name": "amountIsPercent",
                          "type": "bool"
                        }
                      ],
                      "internalType": "struct WorkflowStepInputAsset[]",
                      "name": "inputAssets",
                      "type": "tuple[]"
                    },
                    {
                      "components": [
                        {
                          "internalType": "enum AssetType",
                          "name": "assetType",
                          "type": "uint8"
                        },
                        {
                          "internalType": "address",
                          "name": "assetAddress",
                          "type": "address"
                        }
                      ],
                      "internalType": "struct Asset[]",
                      "name": "outputAssets",
                      "type": "tuple[]"
                    },
                    {
                      "internalType": "bytes",
                      "name": "data",
                      "type": "bytes"
                    },
                    {
                      "internalType": "int16",
                      "name": "nextStepIndex",
                      "type": "int16"
                    }
                  ],
                  "internalType": "struct WorkflowStep[]",
                  "name": "steps",
                  "type": "tuple[]"
                }
              ],
              "internalType": "struct Workflow",
              "name": "workflow",
              "type": "tuple"
            }
          ],
          "indexed": false,
          "internalType": "struct BridgePayload",
          "name": "bridgePayload",
          "type": "tuple"
        }
      ],
      "name": "SgReceiveCalled",
      "type": "event"
    },
    {
      "inputs": [],
      "name": "frontDoorAddress",
      "outputs": [
        {
          "internalType": "address",
          "name": "",
          "type": "address"
        }
      ],
      "stateMutability": "view",
      "type": "function"
    },
    {
      "inputs": [],
      "name": "stargateRouterAddress",
      "outputs": [
        {
          "internalType": "address",
          "name": "",
          "type": "address"
        }
      ],
      "stateMutability": "view",
      "type": "function"
    },
    {
      "inputs": [
        {
          "components": [
            {
              "components": [
                {
                  "internalType": "enum AssetType",
                  "name": "assetType",
                  "type": "uint8"
                },
                {
                  "internalType": "address",
                  "name": "assetAddress",
                  "type": "address"
                }
              ],
              "internalType": "struct Asset",
              "name": "asset",
              "type": "tuple"
            },
            {
              "internalType": "uint256",
              "name": "amount",
              "type": "uint256"
            }
          ],
          "internalType": "struct AssetAmount[]",
          "name": "inputAssetAmounts",
          "type": "tuple[]"
        },
        {
          "components": [
            {
              "internalType": "enum AssetType",
              "name": "assetType",
              "type": "uint8"
            },
            {
              "internalType": "address",
              "name": "assetAddress",
              "type": "address"
            }
          ],
          "internalType": "struct Asset[]",
          "name": "",
          "type": "tuple[]"
        },
        {
          "internalType": "bytes",
          "name": "data",
          "type": "bytes"
        }
      ],
      "name": "execute",
      "outputs": [
        {
          "components": [
            {
              "components": [
                {
                  "components": [
                    {
                      "internalType": "enum AssetType",
                      "name": "assetType",
                      "type": "uint8"
                    },
                    {
                      "internalType": "address",
                      "name": "assetAddress",
                      "type": "address"
                    }
                  ],
                  "internalType": "struct Asset",
                  "name": "asset",
                  "type": "tuple"
                },
                {
                  "internalType": "uint256",
                  "name": "amount",
                  "type": "uint256"
                }
              ],
              "internalType": "struct AssetAmount[]",
              "name": "outputAssetAmounts",
              "type": "tuple[]"
            },
            {
              "internalType": "int16",
              "name": "nextStepIndex",
              "type": "int16"
            }
          ],
          "internalType": "struct WorkflowStepResult",
          "name": "",
          "type": "tuple"
        }
      ],
      "stateMutability": "payable",
      "type": "function"
    },
    {
      "inputs": [
        {
          "internalType": "uint16",
          "name": "",
          "type": "uint16"
        },
        {
          "internalType": "bytes",
          "name": "",
          "type": "bytes"
        },
        {
          "internalType": "uint256",
          "name": "",
          "type": "uint256"
        },
        {
          "internalType": "address",
          "name": "tokenAddress",
          "type": "address"
        },
        {
          "internalType": "uint256",
          "name": "amount",
          "type": "uint256"
        },
        {
          "internalType": "bytes",
          "name": "payload",
          "type": "bytes"
        }
      ],
      "name": "sgReceive",
      "outputs": [],
      "stateMutability": "nonpayable",
      "type": "function"
    }
  ],
  "bytecode": "0x60c06040523480156200001157600080fd5b506040516200305538038062003055833981810160405281019062000037919062000111565b8173ffffffffffffffffffffffffffffffffffffffff1660808173ffffffffffffffffffffffffffffffffffffffff16815250508073ffffffffffffffffffffffffffffffffffffffff1660a08173ffffffffffffffffffffffffffffffffffffffff1681525050505062000158565b600080fd5b600073ffffffffffffffffffffffffffffffffffffffff82169050919050565b6000620000d982620000ac565b9050919050565b620000eb81620000cc565b8114620000f757600080fd5b50565b6000815190506200010b81620000e0565b92915050565b600080604083850312156200012b576200012a620000a7565b5b60006200013b85828601620000fa565b92505060206200014e85828601620000fa565b9150509250929050565b60805160a051612eb5620001a06000396000818160f5015281816106fe0152818161088b0152610abd0152600081816108670152818161097101526109f00152612eb56000f3fe60806040526004361061003f5760003560e01c80631d2091bf146100445780632b5350131461006f57806350fd910e1461009f578063ab8236f3146100ca575b600080fd5b34801561005057600080fd5b506100596100f3565b6040516100669190611116565b60405180910390f35b61008960048036038101906100849190611256565b610117565b604051610096919061150f565b60405180910390f35b3480156100ab57600080fd5b506100b4610865565b6040516100c19190611116565b60405180910390f35b3480156100d657600080fd5b506100f160048036038101906100ec9190611704565b610889565b005b7f000000000000000000000000000000000000000000000000000000000000000081565b61011f610f90565b610127610fad565b6002888890501461016d576040517f08c379a000000000000000000000000000000000000000000000000000000000815260040161016490611826565b60405180910390fd5b6000600281111561018157610180611336565b5b8888600081811061019557610194611846565b5b90506060020160000160000160208101906101b0919061189a565b60028111156101c2576101c1611336565b5b036102c557600160028111156101db576101da611336565b5b888860018181106101ef576101ee611846565b5b905060600201600001600001602081019061020a919061189a565b600281111561021c5761021b611336565b5b1461025c576040517f08c379a000000000000000000000000000000000000000000000000000000000815260040161025390611913565b60405180910390fd5b878760008181106102705761026f611846565b5b90506060020180360381019061028691906119dd565b8160800181905250878760018181106102a2576102a1611846565b5b9050606002018036038101906102b891906119dd565b8160a00181905250610459565b600060028111156102d9576102d8611336565b5b888860018181106102ed576102ec611846565b5b9050606002016000016000016020810190610308919061189a565b600281111561031a57610319611336565b5b0361041d576001600281111561033357610332611336565b5b8888600081811061034757610346611846565b5b9050606002016000016000016020810190610362919061189a565b600281111561037457610373611336565b5b146103b4576040517f08c379a00000000000000000000000000000000000000000000000000000000081526004016103ab90611913565b60405180910390fd5b878760018181106103c8576103c7611846565b5b9050606002018036038101906103de91906119dd565b8160800181905250878760008181106103fa576103f9611846565b5b90506060020180360381019061041091906119dd565b8160a00181905250610458565b6040517f08c379a000000000000000000000000000000000000000000000000000000000815260040161044f90611a56565b60405180910390fd5b5b6001600281111561046d5761046c611336565b5b8888600081811061048157610480611846565b5b905060600201600001600001602081019061049c919061189a565b60028111156104ae576104ad611336565b5b148061050c5750600060028111156104c9576104c8611336565b5b888860008181106104dd576104dc611846565b5b90506060020160000160000160208101906104f8919061189a565b600281111561050a57610509611336565b5b145b61054b576040517f08c379a000000000000000000000000000000000000000000000000000000000815260040161054290611ae8565b60405180910390fd5b6001600281111561055f5761055e611336565b5b8888600081811061057357610572611846565b5b905060600201600001600001602081019061058e919061189a565b60028111156105a05761059f611336565b5b036105fb576105fa888860008181106105bc576105bb611846565b5b90506060020160000160200160208101906105d79190611b08565b898960008181106105eb576105ea611846565b5b90506060020160400135610a9a565b5b838360009060209261060f93929190611b3f565b81019061061c9190611b7a565b81600001818152505083836020908360000151602061063b9190611bd6565b9261064893929190611b3f565b8101906106559190611d44565b81602001819052508060200151600001516040516020016106769190611dba565b604051602081830303815290604052816040018190525080602001516101000151156106e957620186a0816020015160e00151898960008181106106bd576106bc611846565b5b905060600201604001356106d19190611dd5565b6106db9190611e5e565b8160600181815250506106fc565b806020015160e001518160600181815250505b7f000000000000000000000000000000000000000000000000000000000000000073ffffffffffffffffffffffffffffffffffffffff16639fbf10fc826080015160200151836020015160400151846020015160600151856020015160800151338e8e600081811061077157610770611846565b5b90506060020160400135886060015160405180606001604052808b6020015160a0015181526020018b6020015160c0015181526020018b60200151602001516040516020016107c09190611dba565b6040516020818303038152906040528152508a604001518e8e8d6000015160206107ea9190611bd6565b9080926107f993929190611b3f565b6040518c63ffffffff1660e01b815260040161081e9a9998979695949392919061201d565b6000604051808303818588803b15801561083757600080fd5b505af115801561084b573d6000803e3d6000fd5b5050505050610858610b43565b9150509695505050505050565b7f000000000000000000000000000000000000000000000000000000000000000081565b7f000000000000000000000000000000000000000000000000000000000000000073ffffffffffffffffffffffffffffffffffffffff163373ffffffffffffffffffffffffffffffffffffffff1614610917576040517f08c379a000000000000000000000000000000000000000000000000000000000815260040161090e90612133565b60405180910390fd5b60008180602001905181019061092d919061273f565b90507f72de7385eb5f340578c7a20a1b0e72ad0459bb3f109532f22584d6f4b50ac8bd8160405161095e9190612b19565b60405180910390a16000849050610996817f000000000000000000000000000000000000000000000000000000000000000086610b5d565b600060405180604001604052806040518060400160405280600160028111156109c2576109c1611336565b5b81526020018973ffffffffffffffffffffffffffffffffffffffff16815250815260200186815250905060007f000000000000000000000000000000000000000000000000000000000000000090508073ffffffffffffffffffffffffffffffffffffffff1663a2af321d856000015186602001518760400151866040518563ffffffff1660e01b8152600401610a5c9493929190612b94565b600060405180830381600087803b158015610a7657600080fd5b505af1158015610a8a573d6000803e3d6000fd5b5050505050505050505050505050565b60008290508073ffffffffffffffffffffffffffffffffffffffff1663095ea7b37f0000000000000000000000000000000000000000000000000000000000000000846040518363ffffffff1660e01b8152600401610afa929190612be0565b6020604051808303816000875af1158015610b19573d6000803e3d6000fd5b505050506040513d601f19601f82011682018060405250810190610b3d9190612c09565b50505050565b610b4b610f90565b610b586000806000610be3565b905090565b610bde8363a9059cbb60e01b8484604051602401610b7c929190612be0565b604051602081830303815290604052907bffffffffffffffffffffffffffffffffffffffffffffffffffffffff19166020820180517bffffffffffffffffffffffffffffffffffffffffffffffffffffffff8381831617835250505050610cfc565b505050565b610beb610f90565b60006040518060400160405280866002811115610c0b57610c0a611336565b5b81526020018573ffffffffffffffffffffffffffffffffffffffff1681525090506000600167ffffffffffffffff811115610c4957610c48611581565b5b604051908082528060200260200182016040528015610c8257816020015b610c6f610ff5565b815260200190600190039081610c675790505b50905060405180604001604052808381526020018581525081600081518110610cae57610cad611846565b5b602002602001018190525060405180604001604052808281526020017fffffffffffffffffffffffffffffffffffffffffffffffffffffffffffffffff60010b815250925050509392505050565b6000610d5e826040518060400160405280602081526020017f5361666545524332303a206c6f772d6c6576656c2063616c6c206661696c65648152508573ffffffffffffffffffffffffffffffffffffffff16610dc39092919063ffffffff16565b9050600081511115610dbe5780806020019051810190610d7e9190612c09565b610dbd576040517f08c379a0000000000000000000000000000000000000000000000000000000008152600401610db490612ca8565b60405180910390fd5b5b505050565b6060610dd28484600085610ddb565b90509392505050565b606082471015610e20576040517f08c379a0000000000000000000000000000000000000000000000000000000008152600401610e1790612d3a565b60405180910390fd5b6000808673ffffffffffffffffffffffffffffffffffffffff168587604051610e499190612d96565b60006040518083038185875af1925050503d8060008114610e86576040519150601f19603f3d011682016040523d82523d6000602084013e610e8b565b606091505b5091509150610e9c87838387610ea8565b92505050949350505050565b60608315610f0a576000835103610f0257610ec285610f1d565b610f01576040517f08c379a0000000000000000000000000000000000000000000000000000000008152600401610ef890612df9565b60405180910390fd5b5b829050610f15565b610f148383610f40565b5b949350505050565b6000808273ffffffffffffffffffffffffffffffffffffffff163b119050919050565b600082511115610f535781518083602001fd5b806040517f08c379a0000000000000000000000000000000000000000000000000000000008152600401610f879190612e5d565b60405180910390fd5b604051806040016040528060608152602001600060010b81525090565b6040518060c0016040528060008152602001610fc7611015565b81526020016060815260200160008152602001610fe2610ff5565b8152602001610fef610ff5565b81525090565b6040518060400160405280611008611093565b8152602001600081525090565b604051806101200160405280600073ffffffffffffffffffffffffffffffffffffffff168152602001600073ffffffffffffffffffffffffffffffffffffffff168152602001600061ffff16815260200160008152602001600081526020016000815260200160008152602001600081526020016000151581525090565b6040518060400160405280600060028111156110b2576110b1611336565b5b8152602001600073ffffffffffffffffffffffffffffffffffffffff1681525090565b600073ffffffffffffffffffffffffffffffffffffffff82169050919050565b6000611100826110d5565b9050919050565b611110816110f5565b82525050565b600060208201905061112b6000830184611107565b92915050565b6000604051905090565b600080fd5b600080fd5b600080fd5b600080fd5b600080fd5b60008083601f84011261116a57611169611145565b5b8235905067ffffffffffffffff8111156111875761118661114a565b5b6020830191508360608202830111156111a3576111a261114f565b5b9250929050565b60008083601f8401126111c0576111bf611145565b5b8235905067ffffffffffffffff8111156111dd576111dc61114a565b5b6020830191508360408202830111156111f9576111f861114f565b5b9250929050565b60008083601f84011261121657611215611145565b5b8235905067ffffffffffffffff8111156112335761123261114a565b5b60208301915083600182028301111561124f5761124e61114f565b5b9250929050565b600080600080600080606087890312156112735761127261113b565b5b600087013567ffffffffffffffff81111561129157611290611140565b5b61129d89828a01611154565b9650965050602087013567ffffffffffffffff8111156112c0576112bf611140565b5b6112cc89828a016111aa565b9450945050604087013567ffffffffffffffff8111156112ef576112ee611140565b5b6112fb89828a01611200565b92509250509295509295509295565b600081519050919050565b600082825260208201905092915050565b6000819050602082019050919050565b7f4e487b7100000000000000000000000000000000000000000000000000000000600052602160045260246000fd5b6003811061137657611375611336565b5b50565b600081905061138782611365565b919050565b600061139782611379565b9050919050565b6113a78161138c565b82525050565b6113b6816110f5565b82525050565b6040820160008201516113d2600085018261139e565b5060208201516113e560208501826113ad565b50505050565b6000819050919050565b6113fe816113eb565b82525050565b60608201600082015161141a60008501826113bc565b50602082015161142d60408501826113f5565b50505050565b600061143f8383611404565b60608301905092915050565b6000602082019050919050565b60006114638261130a565b61146d8185611315565b935061147883611326565b8060005b838110156114a95781516114908882611433565b975061149b8361144b565b92505060018101905061147c565b5085935050505092915050565b60008160010b9050919050565b6114cc816114b6565b82525050565b600060408301600083015184820360008601526114ef8282611458565b915050602083015161150460208601826114c3565b508091505092915050565b6000602082019050818103600083015261152981846114d2565b905092915050565b600061ffff82169050919050565b61154881611531565b811461155357600080fd5b50565b6000813590506115658161153f565b92915050565b600080fd5b6000601f19601f8301169050919050565b7f4e487b7100000000000000000000000000000000000000000000000000000000600052604160045260246000fd5b6115b982611570565b810181811067ffffffffffffffff821117156115d8576115d7611581565b5b80604052505050565b60006115eb611131565b90506115f782826115b0565b919050565b600067ffffffffffffffff82111561161757611616611581565b5b61162082611570565b9050602081019050919050565b82818337600083830152505050565b600061164f61164a846115fc565b6115e1565b90508281526020810184848401111561166b5761166a61156b565b5b61167684828561162d565b509392505050565b600082601f83011261169357611692611145565b5b81356116a384826020860161163c565b91505092915050565b6116b5816113eb565b81146116c057600080fd5b50565b6000813590506116d2816116ac565b92915050565b6116e1816110f5565b81146116ec57600080fd5b50565b6000813590506116fe816116d8565b92915050565b60008060008060008060c087890312156117215761172061113b565b5b600061172f89828a01611556565b965050602087013567ffffffffffffffff8111156117505761174f611140565b5b61175c89828a0161167e565b955050604061176d89828a016116c3565b945050606061177e89828a016116ef565b935050608061178f89828a016116c3565b92505060a087013567ffffffffffffffff8111156117b0576117af611140565b5b6117bc89828a0161167e565b9150509295509295509295565b600082825260208201905092915050565b7f7468657265206d757374206265203220696e7075742061737365747300000000600082015250565b6000611810601c836117c9565b915061181b826117da565b602082019050919050565b6000602082019050818103600083015261183f81611803565b9050919050565b7f4e487b7100000000000000000000000000000000000000000000000000000000600052603260045260246000fd5b6003811061188257600080fd5b50565b60008135905061189481611875565b92915050565b6000602082840312156118b0576118af61113b565b5b60006118be84828501611885565b91505092915050565b7f6f6e6520696e707574206173736574206d75737420626520616e204552433230600082015250565b60006118fd6020836117c9565b9150611908826118c7565b602082019050919050565b6000602082019050818103600083015261192c816118f0565b9050919050565b600080fd5b600080fd5b60006040828403121561195357611952611933565b5b61195d60406115e1565b9050600061196d84828501611885565b6000830152506020611981848285016116ef565b60208301525092915050565b6000606082840312156119a3576119a2611933565b5b6119ad60406115e1565b905060006119bd8482850161193d565b60008301525060406119d1848285016116c3565b60208301525092915050565b6000606082840312156119f3576119f261113b565b5b6000611a018482850161198d565b91505092915050565b7f6f6e6520696e707574206173736574206d757374206265206e61746976650000600082015250565b6000611a40601e836117c9565b9150611a4b82611a0a565b602082019050919050565b60006020820190508181036000830152611a6f81611a33565b9050919050565b7f74686520696e707574206173736574206d75737420626520616e20455243323060008201527f206f72204e617469766500000000000000000000000000000000000000000000602082015250565b6000611ad2602a836117c9565b9150611add82611a76565b604082019050919050565b60006020820190508181036000830152611b0181611ac5565b9050919050565b600060208284031215611b1e57611b1d61113b565b5b6000611b2c848285016116ef565b91505092915050565b600080fd5b600080fd5b60008085851115611b5357611b52611b35565b5b83861115611b6457611b63611b3a565b5b6001850283019150848603905094509492505050565b600060208284031215611b9057611b8f61113b565b5b6000611b9e848285016116c3565b91505092915050565b7f4e487b7100000000000000000000000000000000000000000000000000000000600052601160045260246000fd5b6000611be1826113eb565b9150611bec836113eb565b9250827fffffffffffffffffffffffffffffffffffffffffffffffffffffffffffffffff03821115611c2157611c20611ba7565b5b828201905092915050565b60008115159050919050565b611c4181611c2c565b8114611c4c57600080fd5b50565b600081359050611c5e81611c38565b92915050565b60006101208284031215611c7b57611c7a611933565b5b611c866101206115e1565b90506000611c96848285016116ef565b6000830152506020611caa848285016116ef565b6020830152506040611cbe84828501611556565b6040830152506060611cd2848285016116c3565b6060830152506080611ce6848285016116c3565b60808301525060a0611cfa848285016116c3565b60a08301525060c0611d0e848285016116c3565b60c08301525060e0611d22848285016116c3565b60e083015250610100611d3784828501611c4f565b6101008301525092915050565b60006101208284031215611d5b57611d5a61113b565b5b6000611d6984828501611c64565b91505092915050565b60008160601b9050919050565b6000611d8a82611d72565b9050919050565b6000611d9c82611d7f565b9050919050565b611db4611daf826110f5565b611d91565b82525050565b6000611dc68284611da3565b60148201915081905092915050565b6000611de0826113eb565b9150611deb836113eb565b9250817fffffffffffffffffffffffffffffffffffffffffffffffffffffffffffffffff0483118215151615611e2457611e23611ba7565b5b828202905092915050565b7f4e487b7100000000000000000000000000000000000000000000000000000000600052601260045260246000fd5b6000611e69826113eb565b9150611e74836113eb565b925082611e8457611e83611e2f565b5b828204905092915050565b611e9881611531565b82525050565b611ea7816113eb565b82525050565b6000611eb8826110d5565b9050919050565b611ec881611ead565b82525050565b600081519050919050565b600082825260208201905092915050565b60005b83811015611f08578082015181840152602081019050611eed565b83811115611f17576000848401525b50505050565b6000611f2882611ece565b611f328185611ed9565b9350611f42818560208601611eea565b611f4b81611570565b840191505092915050565b6000606083016000830151611f6e60008601826113f5565b506020830151611f8160208601826113f5565b5060408301518482036040860152611f998282611f1d565b9150508091505092915050565b600082825260208201905092915050565b6000611fc282611ece565b611fcc8185611fa6565b9350611fdc818560208601611eea565b611fe581611570565b840191505092915050565b6000611ffc8385611fa6565b935061200983858461162d565b61201283611570565b840190509392505050565b600061012082019050612033600083018d611e8f565b612040602083018c611e9e565b61204d604083018b611e9e565b61205a606083018a611ebf565b6120676080830189611e9e565b61207460a0830188611e9e565b81810360c08301526120868187611f56565b905081810360e083015261209a8186611fb7565b90508181036101008301526120b0818486611ff0565b90509b9a5050505050505050505050565b7f6f6e6c79205374617267617465206973207065726d697474656420746f20636160008201527f6c6c207367526563656976650000000000000000000000000000000000000000602082015250565b600061211d602c836117c9565b9150612128826120c1565b604082019050919050565b6000602082019050818103600083015261214c81612110565b9050919050565b600081519050612162816116d8565b92915050565b600081519050612177816116ac565b92915050565b600067ffffffffffffffff82111561219857612197611581565b5b602082029050602081019050919050565b6000815190506121b88161153f565b92915050565b600067ffffffffffffffff8211156121d9576121d8611581565b5b602082029050602081019050919050565b6000815190506121f981611875565b92915050565b60006040828403121561221557612214611933565b5b61221f60406115e1565b9050600061222f848285016121ea565b600083015250602061224384828501612153565b60208301525092915050565b60008151905061225e81611c38565b92915050565b60006080828403121561227a57612279611933565b5b61228460606115e1565b90506000612294848285016121ff565b60008301525060406122a884828501612168565b60208301525060606122bc8482850161224f565b60408301525092915050565b60006122db6122d6846121be565b6115e1565b905080838252602082019050608084028301858111156122fe576122fd61114f565b5b835b8181101561232757806123138882612264565b845260208401935050608081019050612300565b5050509392505050565b600082601f83011261234657612345611145565b5b81516123568482602086016122c8565b91505092915050565b600067ffffffffffffffff82111561237a57612379611581565b5b602082029050602081019050919050565b600061239e6123998461235f565b6115e1565b905080838252602082019050604084028301858111156123c1576123c061114f565b5b835b818110156123ea57806123d688826121ff565b8452602084019350506040810190506123c3565b5050509392505050565b600082601f83011261240957612408611145565b5b815161241984826020860161238b565b91505092915050565b6000612435612430846115fc565b6115e1565b9050828152602081018484840111156124515761245061156b565b5b61245c848285611eea565b509392505050565b600082601f83011261247957612478611145565b5b8151612489848260208601612422565b91505092915050565b61249b816114b6565b81146124a657600080fd5b50565b6000815190506124b881612492565b92915050565b600060c082840312156124d4576124d3611933565b5b6124de60c06115e1565b905060006124ee848285016121a9565b600083015250602061250284828501612153565b602083015250604082015167ffffffffffffffff81111561252657612525611938565b5b61253284828501612331565b604083015250606082015167ffffffffffffffff81111561255657612555611938565b5b612562848285016123f4565b606083015250608082015167ffffffffffffffff81111561258657612585611938565b5b61259284828501612464565b60808301525060a06125a6848285016124a9565b60a08301525092915050565b60006125c56125c08461217d565b6115e1565b905080838252602082019050602084028301858111156125e8576125e761114f565b5b835b8181101561262f57805167ffffffffffffffff81111561260d5761260c611145565b5b80860161261a89826124be565b855260208501945050506020810190506125ea565b5050509392505050565b600082601f83011261264e5761264d611145565b5b815161265e8482602086016125b2565b91505092915050565b60006020828403121561267d5761267c611933565b5b61268760206115e1565b9050600082015167ffffffffffffffff8111156126a7576126a6611938565b5b6126b384828501612639565b60008301525092915050565b6000606082840312156126d5576126d4611933565b5b6126df60606115e1565b905060006126ef84828501612153565b600083015250602061270384828501612168565b602083015250604082015167ffffffffffffffff81111561272757612726611938565b5b61273384828501612667565b60408301525092915050565b6000602082840312156127555761275461113b565b5b600082015167ffffffffffffffff81111561277357612772611140565b5b61277f848285016126bf565b91505092915050565b600081519050919050565b600082825260208201905092915050565b6000819050602082019050919050565b6127bd81611531565b82525050565b600081519050919050565b600082825260208201905092915050565b6000819050602082019050919050565b6127f881611c2c565b82525050565b60808201600082015161281460008501826113bc565b50602082015161282760408501826113f5565b50604082015161283a60608501826127ef565b50505050565b600061284c83836127fe565b60808301905092915050565b6000602082019050919050565b6000612870826127c3565b61287a81856127ce565b9350612885836127df565b8060005b838110156128b657815161289d8882612840565b97506128a883612858565b925050600181019050612889565b5085935050505092915050565b600081519050919050565b600082825260208201905092915050565b6000819050602082019050919050565b60006128fb83836113bc565b60408301905092915050565b6000602082019050919050565b600061291f826128c3565b61292981856128ce565b9350612934836128df565b8060005b8381101561296557815161294c88826128ef565b975061295783612907565b925050600181019050612938565b5085935050505092915050565b600060c08301600083015161298a60008601826127b4565b50602083015161299d60208601826113ad565b50604083015184820360408601526129b58282612865565b915050606083015184820360608601526129cf8282612914565b915050608083015184820360808601526129e98282611f1d565b91505060a08301516129fe60a08601826114c3565b508091505092915050565b6000612a158383612972565b905092915050565b6000602082019050919050565b6000612a3582612788565b612a3f8185612793565b935083602082028501612a51856127a4565b8060005b85811015612a8d5784840389528151612a6e8582612a09565b9450612a7983612a1d565b925060208a01995050600181019050612a55565b50829750879550505050505092915050565b60006020830160008301518482036000860152612abc8282612a2a565b9150508091505092915050565b6000606083016000830151612ae160008601826113ad565b506020830151612af460208601826113f5565b5060408301518482036040860152612b0c8282612a9f565b9150508091505092915050565b60006020820190508181036000830152612b338184612ac9565b905092915050565b60006020830160008301518482036000860152612b588282612a2a565b9150508091505092915050565b606082016000820151612b7b60008501826113bc565b506020820151612b8e60408501826113f5565b50505050565b600060c082019050612ba96000830187611107565b612bb66020830186611e9e565b8181036040830152612bc88185612b3b565b9050612bd76060830184612b65565b95945050505050565b6000604082019050612bf56000830185611107565b612c026020830184611e9e565b9392505050565b600060208284031215612c1f57612c1e61113b565b5b6000612c2d8482850161224f565b91505092915050565b7f5361666545524332303a204552433230206f7065726174696f6e20646964206e60008201527f6f74207375636365656400000000000000000000000000000000000000000000602082015250565b6000612c92602a836117c9565b9150612c9d82612c36565b604082019050919050565b60006020820190508181036000830152612cc181612c85565b9050919050565b7f416464726573733a20696e73756666696369656e742062616c616e636520666f60008201527f722063616c6c0000000000000000000000000000000000000000000000000000602082015250565b6000612d246026836117c9565b9150612d2f82612cc8565b604082019050919050565b60006020820190508181036000830152612d5381612d17565b9050919050565b600081905092915050565b6000612d7082611ece565b612d7a8185612d5a565b9350612d8a818560208601611eea565b80840191505092915050565b6000612da28284612d65565b915081905092915050565b7f416464726573733a2063616c6c20746f206e6f6e2d636f6e7472616374000000600082015250565b6000612de3601d836117c9565b9150612dee82612dad565b602082019050919050565b60006020820190508181036000830152612e1281612dd6565b9050919050565b600081519050919050565b6000612e2f82612e19565b612e3981856117c9565b9350612e49818560208601611eea565b612e5281611570565b840191505092915050565b60006020820190508181036000830152612e778184612e24565b90509291505056fea26469706673582212208e2091d48f58f5d31c4bb382dbe922906a5f4c9b9d08a1b259ec405be0bebb7764736f6c634300080d0033",
  "immutableReferences": {
    "9196": [
      {
        "length": 32,
        "start": 2151
      },
      {
        "length": 32,
        "start": 2417
      },
      {
        "length": 32,
        "start": 2544
      }
    ],
    "9198": [
      {
        "length": 32,
        "start": 245
      },
      {
        "length": 32,
        "start": 1790
      },
      {
        "length": 32,
        "start": 2187
      },
      {
        "length": 32,
        "start": 2749
      }
    ]
  },
  "source": "// SPDX-License-Identifier: MIT\npragma solidity ^0.8.13;\nimport '../../IWorkflowStep.sol';\nimport '../../IWorkflowRunner.sol';\nimport '../../LibAsset.sol';\nimport '../../LibActionHelpers.sol';\nimport '../../model/Asset.sol';\nimport '../../model/AssetAmount.sol';\nimport '../../model/BridgePayload.sol';\nimport './IStargateRouter.sol';\nimport './IStargateReceiver.sol';\nimport '@openzeppelin/contracts/token/ERC20/IERC20.sol';\nimport '@openzeppelin/contracts/token/ERC20/utils/SafeERC20.sol';\n\n// StargateBridgeAction specific arguments\nstruct StargateBridgeActionArgs {\n  //  addr of the StargateSwapAction on the target chain.\n  address dstActionAddress;\n  // addr of the user (caller on the source chain)\n  address dstUserAddress;\n  // stargate destination chain\n  uint16 dstChainId;\n  // stargate source pool (implies source asset)\n  uint256 srcPoolId;\n  // stargate destination pool (implies destination asset)\n  uint256 dstPoolId;\n  // gas to execute workflow continuation on destination chain\n  uint256 dstGasForCall;\n  // amount of native asset to send to dstUserAddress\n  uint256 dstNativeAmount;\n  // minimum amount of output asset (else the tx on the source chain will revert)\n  uint256 minAmountOut;\n  // if true, minAmountOut passed to stargate\n  bool minAmountOutIsPercent;\n}\n\ncontract StargateBridgeAction is IWorkflowStep, IStargateReceiver {\n  address public immutable frontDoorAddress;\n  address public immutable stargateRouterAddress;\n\n  event SgReceiveCalled(BridgePayload bridgePayload);\n\n  // event StargateBridgeParamsEvent(\n  //   address dstActionAddress,\n  //   address dstUserAddress,\n  //   uint16 dstChainId,\n  //   uint256 srcPoolId,\n  //   uint256 dstPoolId,\n  //   uint256 dstGasForCall,\n  //   uint256 dstNativeAmount,\n  //   uint256 minAmountOut,\n  //   bool minAmountOutIsPercent,\n  //   bytes nextChainWorkflow\n  // );\n\n  constructor(address _frontDoorAddress, address _stargateRouterAddress) {\n    frontDoorAddress = _frontDoorAddress;\n    stargateRouterAddress = _stargateRouterAddress;\n  }\n\n  //  need to gather things up into a struct to prevent 'Stack too deep'\n  struct Locals {\n    uint256 lengthPrefix;\n    StargateBridgeActionArgs sgParams;\n    bytes dstActionAddressEncoded;\n    uint256 minAmountOut;\n    AssetAmount nativeInputAsset;\n    AssetAmount erc20InputAsset;\n  }\n\n  function execute(\n    AssetAmount[] calldata inputAssetAmounts,\n    Asset[] calldata,\n    bytes calldata data\n  ) public payable returns (WorkflowStepResult memory) {\n    Locals memory locals;\n    require(inputAssetAmounts.length == 2, 'there must be 2 input assets');\n    if (inputAssetAmounts[0].asset.assetType == AssetType.Native) {\n      require(inputAssetAmounts[1].asset.assetType == AssetType.ERC20, 'one input asset must be an ERC20');\n      locals.nativeInputAsset = inputAssetAmounts[0];\n      locals.erc20InputAsset = inputAssetAmounts[1];\n    } else if (inputAssetAmounts[1].asset.assetType == AssetType.Native) {\n      require(inputAssetAmounts[0].asset.assetType == AssetType.ERC20, 'one input asset must be an ERC20');\n      locals.nativeInputAsset = inputAssetAmounts[1];\n      locals.erc20InputAsset = inputAssetAmounts[0];\n    } else {\n      revert('one input asset must be native');\n    }\n    require(\n      inputAssetAmounts[0].asset.assetType == AssetType.ERC20 || inputAssetAmounts[0].asset.assetType == AssetType.Native,\n      'the input asset must be an ERC20 or Native'\n    );\n\n    // approve sg to take the token\n    if (inputAssetAmounts[0].asset.assetType == AssetType.ERC20) {\n      approveErc20(inputAssetAmounts[0].asset.assetAddress, inputAssetAmounts[0].amount);\n    }\n\n    // decode the parameters\n    locals.lengthPrefix = abi.decode(data[0:32], (uint256));\n    locals.sgParams = abi.decode(data[32:32 + locals.lengthPrefix], (StargateBridgeActionArgs));\n\n    // address payable refundAddress = payable(msg.sender);\n    locals.dstActionAddressEncoded = abi.encodePacked(locals.sgParams.dstActionAddress);\n    if (locals.sgParams.minAmountOutIsPercent) {\n      locals.minAmountOut = (inputAssetAmounts[0].amount * locals.sgParams.minAmountOut) / 100_000;\n    } else {\n      locals.minAmountOut = locals.sgParams.minAmountOut;\n    }\n\n    // emit Eraseme(locals.nativeInputAsset.amount);\n\n    IStargateRouter(stargateRouterAddress).swap{value: locals.nativeInputAsset.amount}(\n      locals.sgParams.dstChainId,\n      locals.sgParams.srcPoolId,\n      locals.sgParams.dstPoolId,\n      payable(msg.sender), // refundAddreess\n      inputAssetAmounts[0].amount,\n      locals.minAmountOut,\n      IStargateRouter.lzTxObj(\n        locals.sgParams.dstGasForCall,\n        locals.sgParams.dstNativeAmount,\n        abi.encodePacked(locals.sgParams.dstUserAddress)\n      ),\n      locals.dstActionAddressEncoded,\n      data[32 + locals.lengthPrefix:]\n    );\n    return LibActionHelpers.noOutputAssetsResult();\n  }\n\n  function approveErc20(address tokenAddress, uint256 amount) internal {\n    IERC20 inputToken = IERC20(tokenAddress);\n    inputToken.approve(stargateRouterAddress, amount);\n  }\n\n  function sgReceive(\n    uint16, // the remote chainId sending the tokens\n    bytes memory, // the remote Bridge address\n    uint256,\n    address tokenAddress, // the token contract on the local chain\n    uint256 amount, // the qty of local token contract tokens\n    bytes memory payload\n  ) external {\n    require(msg.sender == stargateRouterAddress, 'only Stargate is permitted to call sgReceive');\n    BridgePayload memory bridgePayload = abi.decode(payload, (BridgePayload));\n    // TODO eraseme we don't need this event after everything is debugged\n    emit SgReceiveCalled(bridgePayload);\n\n    // TODO maybe we do delegateProxy here instead to avoid having this xfer\n    IERC20 startingToken = IERC20(tokenAddress);\n    SafeERC20.safeTransfer(startingToken, frontDoorAddress, amount);\n\n    AssetAmount memory startingAsset = AssetAmount(Asset(AssetType.ERC20, tokenAddress), amount);\n    IWorkflowRunner runner = IWorkflowRunner(frontDoorAddress);\n    runner.continueWorkflow(bridgePayload.userAddress, bridgePayload.nonce, bridgePayload.workflow, startingAsset);\n  }\n}\n",
  "sourcePath": "/home/asdf/fmp3/platform/evm/contracts/actions/stargate/StargateBridgeAction.sol",
  "compiler": {
    "name": "solc",
    "version": "0.8.13+commit.abaa5c0e.Emscripten.clang"
  },
  "schemaVersion": "3.4.11",
  "updatedAt": "2023-02-05T18:33:19.046Z",
  "devdoc": {
    "kind": "dev",
    "methods": {},
    "version": 1
  },
  "userdoc": {
    "kind": "user",
    "methods": {},
    "version": 1
  }
}