{
  "contractName": "StepConfigurator",
  "abi": [
    {
      "inputs": [
        {
          "internalType": "address payable",
          "name": "frontDoorAddress",
          "type": "address"
        }
      ],
      "stateMutability": "nonpayable",
      "type": "constructor"
    },
    {
      "anonymous": false,
      "inputs": [
        {
          "indexed": false,
          "internalType": "uint16",
          "name": "actionId",
          "type": "uint16"
        },
        {
          "indexed": false,
          "internalType": "address",
          "name": "actionAddress",
          "type": "address"
        }
      ],
      "name": "ActionAddressSetEvent",
      "type": "event"
    },
    {
      "anonymous": false,
      "inputs": [
        {
          "indexed": false,
          "internalType": "address",
          "name": "sender",
          "type": "address"
        },
        {
          "indexed": false,
          "internalType": "address",
          "name": "newOwner",
          "type": "address"
        }
      ],
      "name": "LogNewOwner",
      "type": "event"
    },
    {
      "inputs": [],
      "name": "eternalStorageAddress",
      "outputs": [
        {
          "internalType": "address",
          "name": "",
          "type": "address"
        }
      ],
      "stateMutability": "view",
      "type": "function"
    },
    {
      "inputs": [],
      "name": "isUserProxy",
      "outputs": [
        {
          "internalType": "bool",
          "name": "",
          "type": "bool"
        }
      ],
      "stateMutability": "view",
      "type": "function"
    },
    {
      "inputs": [],
      "name": "owner",
      "outputs": [
        {
          "internalType": "address payable",
          "name": "",
          "type": "address"
        }
      ],
      "stateMutability": "view",
      "type": "function"
    },
    {
      "inputs": [
        {
          "internalType": "address payable",
          "name": "newOwner",
          "type": "address"
        }
      ],
      "name": "setOwner",
      "outputs": [],
      "stateMutability": "nonpayable",
      "type": "function"
    },
    {
      "inputs": [],
      "name": "upstreamAddress",
      "outputs": [
        {
          "internalType": "address",
          "name": "",
          "type": "address"
        }
      ],
      "stateMutability": "view",
      "type": "function"
    },
    {
      "inputs": [
        {
          "internalType": "uint16",
          "name": "actionId",
          "type": "uint16"
        },
        {
          "internalType": "address",
          "name": "actionAddress",
          "type": "address"
        }
      ],
      "name": "setActionAddress",
      "outputs": [],
      "stateMutability": "nonpayable",
      "type": "function"
    },
    {
      "inputs": [
        {
          "internalType": "uint16",
          "name": "actionId",
          "type": "uint16"
        },
        {
          "internalType": "address",
          "name": "actionAddress",
          "type": "address"
        }
      ],
      "name": "removeActionAddress",
      "outputs": [],
      "stateMutability": "nonpayable",
      "type": "function"
    },
    {
      "inputs": [
        {
          "internalType": "uint16",
          "name": "actionId",
          "type": "uint16"
        }
      ],
      "name": "getActionAddress",
      "outputs": [
        {
          "internalType": "address",
          "name": "",
          "type": "address"
        }
      ],
      "stateMutability": "view",
      "type": "function"
    },
    {
      "inputs": [],
      "name": "getActionCount",
      "outputs": [
        {
          "internalType": "uint256",
          "name": "",
          "type": "uint256"
        }
      ],
      "stateMutability": "view",
      "type": "function"
    },
    {
      "inputs": [
        {
          "internalType": "uint256",
          "name": "index",
          "type": "uint256"
        }
      ],
      "name": "getActionInfoAt",
      "outputs": [
        {
          "components": [
            {
              "internalType": "uint16",
              "name": "actionId",
              "type": "uint16"
            },
            {
              "internalType": "address",
              "name": "latest",
              "type": "address"
            },
            {
              "internalType": "address[]",
              "name": "whitelist",
              "type": "address[]"
            },
            {
              "internalType": "address[]",
              "name": "blacklist",
              "type": "address[]"
            }
          ],
          "internalType": "struct ActionInfo",
          "name": "",
          "type": "tuple"
        }
      ],
      "stateMutability": "view",
      "type": "function"
    }
  ],
  "bytecode": "0x60806040523480156200001157600080fd5b5060405162001ca538038062001ca5833981810160405281019062000037919062000200565b338173ffffffffffffffffffffffffffffffffffffffff1663384782fe6040518163ffffffff1660e01b8152600401602060405180830381865afa15801562000084573d6000803e3d6000fd5b505050506040513d601f19601f82011682018060405250810190620000aa919062000277565b60008083806000806101000a81548173ffffffffffffffffffffffffffffffffffffffff021916908373ffffffffffffffffffffffffffffffffffffffff1602179055505082600160006101000a81548173ffffffffffffffffffffffffffffffffffffffff021916908373ffffffffffffffffffffffffffffffffffffffff16021790555081600260006101000a81548173ffffffffffffffffffffffffffffffffffffffff021916908373ffffffffffffffffffffffffffffffffffffffff16021790555080600260146101000a81548160ff0219169083151502179055505050505050620002a9565b600080fd5b600073ffffffffffffffffffffffffffffffffffffffff82169050919050565b6000620001c8826200019b565b9050919050565b620001da81620001bb565b8114620001e657600080fd5b50565b600081519050620001fa81620001cf565b92915050565b60006020828403121562000219576200021862000196565b5b60006200022984828501620001e9565b91505092915050565b60006200023f826200019b565b9050919050565b620002518162000232565b81146200025d57600080fd5b50565b600081519050620002718162000246565b92915050565b60006020828403121562000290576200028f62000196565b5b6000620002a08482850162000260565b91505092915050565b6119ec80620002b96000396000f3fe608060405234801561001057600080fd5b506004361061009e5760003560e01c80635eecd218116100665780635eecd2181461015b5780638da5cb5b14610179578063caef055c14610197578063fab494d9146101b3578063ff05c2a8146101cf5761009e565b806313af4035146100a35780632de74e04146100bf57806332b56aaf146100ef578063384782fe1461010d5780634755fa141461012b575b600080fd5b6100bd60048036038101906100b89190610ff1565b6101ed565b005b6100d960048036038101906100d49190611054565b6102fa565b6040516100e691906111d8565b60405180910390f35b6100f76107a1565b6040516101049190611209565b60405180910390f35b6101156107c7565b6040516101229190611209565b60405180910390f35b61014560048036038101906101409190611250565b6107ed565b6040516101529190611209565b60405180910390f35b6101636108bc565b604051610170919061128c565b60405180910390f35b610181610987565b60405161018e91906112b6565b60405180910390f35b6101b160048036038101906101ac91906112fd565b6109ab565b005b6101cd60048036038101906101c891906112fd565b610c79565b005b6101d7610ed9565b6040516101e49190611358565b60405180910390f35b60008054906101000a900473ffffffffffffffffffffffffffffffffffffffff1673ffffffffffffffffffffffffffffffffffffffff163373ffffffffffffffffffffffffffffffffffffffff161461024557600080fd5b600073ffffffffffffffffffffffffffffffffffffffff168173ffffffffffffffffffffffffffffffffffffffff160361027e57600080fd5b806000806101000a81548173ffffffffffffffffffffffffffffffffffffffff021916908373ffffffffffffffffffffffffffffffffffffffff1602179055507f1f8d7d25344642d919d55999e4664aa452a5f424bc0936ceb9c2b300db7dcbd933826040516102ef9291906113d2565b60405180910390a150565b610302610f4c565b6000600160009054906101000a900473ffffffffffffffffffffffffffffffffffffffff1690506000808273ffffffffffffffffffffffffffffffffffffffff16634fcee0497fc94d198e6194ea38dbd900920351d7f8e6c6d85b1d3b803fb93c54be008e11fd60001b876040518363ffffffff1660e01b815260040161038a929190611414565b6040805180830381865afa1580156103a6573d6000803e3d6000fd5b505050506040513d601f19601f820116820180604052508101906103ca9190611467565b9150915060006103d983610eec565b905060008473ffffffffffffffffffffffffffffffffffffffff16639b0d10fd836040518263ffffffff1660e01b815260040161041691906114a7565b602060405180830381865afa158015610433573d6000803e3d6000fd5b505050506040513d601f19601f8201168201806040525081019061045791906114c2565b905060008167ffffffffffffffff811115610475576104746114ef565b5b6040519080825280602002602001820160405280156104a35781602001602082028036833780820191505090505b50905060005b828110156105915760008773ffffffffffffffffffffffffffffffffffffffff1663619f6cc686846040518363ffffffff1660e01b81526004016104ee929190611414565b6040805180830381865afa15801561050a573d6000803e3d6000fd5b505050506040513d601f19601f8201168201806040525081019061052e919061151e565b509050808383815181106105455761054461155e565b5b602002602001019073ffffffffffffffffffffffffffffffffffffffff16908173ffffffffffffffffffffffffffffffffffffffff1681525050508061058a906115bc565b90506104a9565b50600061059d86610f1c565b905060008773ffffffffffffffffffffffffffffffffffffffff16639b0d10fd836040518263ffffffff1660e01b81526004016105da91906114a7565b602060405180830381865afa1580156105f7573d6000803e3d6000fd5b505050506040513d601f19601f8201168201806040525081019061061b91906114c2565b905060008167ffffffffffffffff811115610639576106386114ef565b5b6040519080825280602002602001820160405280156106675781602001602082028036833780820191505090505b50905060005b828110156107555760008a73ffffffffffffffffffffffffffffffffffffffff1663619f6cc686846040518363ffffffff1660e01b81526004016106b2929190611414565b6040805180830381865afa1580156106ce573d6000803e3d6000fd5b505050506040513d601f19601f820116820180604052508101906106f2919061151e565b509050808383815181106107095761070861155e565b5b602002602001019073ffffffffffffffffffffffffffffffffffffffff16908173ffffffffffffffffffffffffffffffffffffffff1681525050508061074e906115bc565b905061066d565b5060405180608001604052808961ffff1681526020018873ffffffffffffffffffffffffffffffffffffffff168152602001858152602001828152509950505050505050505050919050565b600260009054906101000a900473ffffffffffffffffffffffffffffffffffffffff1681565b600160009054906101000a900473ffffffffffffffffffffffffffffffffffffffff1681565b600080600160009054906101000a900473ffffffffffffffffffffffffffffffffffffffff1690508073ffffffffffffffffffffffffffffffffffffffff1663a2ccb5227fc94d198e6194ea38dbd900920351d7f8e6c6d85b1d3b803fb93c54be008e11fd60001b856040518363ffffffff1660e01b8152600401610873929190611635565b602060405180830381865afa158015610890573d6000803e3d6000fd5b505050506040513d601f19601f820116820180604052508101906108b4919061165e565b915050919050565b600080600160009054906101000a900473ffffffffffffffffffffffffffffffffffffffff1690508073ffffffffffffffffffffffffffffffffffffffff1663832860727fc94d198e6194ea38dbd900920351d7f8e6c6d85b1d3b803fb93c54be008e11fd60001b6040518263ffffffff1660e01b815260040161094091906114a7565b602060405180830381865afa15801561095d573d6000803e3d6000fd5b505050506040513d601f19601f8201168201806040525081019061098191906114c2565b91505090565b60008054906101000a900473ffffffffffffffffffffffffffffffffffffffff1681565b60008054906101000a900473ffffffffffffffffffffffffffffffffffffffff1673ffffffffffffffffffffffffffffffffffffffff163373ffffffffffffffffffffffffffffffffffffffff1614610a0357600080fd5b6000600160009054906101000a900473ffffffffffffffffffffffffffffffffffffffff16905060008173ffffffffffffffffffffffffffffffffffffffff1663a2ccb5227fc94d198e6194ea38dbd900920351d7f8e6c6d85b1d3b803fb93c54be008e11fd60001b866040518363ffffffff1660e01b8152600401610a8a929190611635565b602060405180830381865afa158015610aa7573d6000803e3d6000fd5b505050506040513d601f19601f82011682018060405250810190610acb919061165e565b90508073ffffffffffffffffffffffffffffffffffffffff168373ffffffffffffffffffffffffffffffffffffffff1603610b3b576040517f08c379a0000000000000000000000000000000000000000000000000000000008152600401610b329061170e565b60405180910390fd5b8173ffffffffffffffffffffffffffffffffffffffff1663ba4014fd610b6086610f1c565b8560006040518463ffffffff1660e01b8152600401610b8193929190611769565b6020604051808303816000875af1158015610ba0573d6000803e3d6000fd5b505050506040513d601f19601f82011682018060405250810190610bc491906117cc565b508173ffffffffffffffffffffffffffffffffffffffff166381425763610bea86610eec565b856040518363ffffffff1660e01b8152600401610c089291906117f9565b600060405180830381600087803b158015610c2257600080fd5b505af1158015610c36573d6000803e3d6000fd5b505050507f6521f3db84836ab4fd0021f24d813643845fccd2100af8ca45695746805aeae88484604051610c6b929190611831565b60405180910390a150505050565b60008054906101000a900473ffffffffffffffffffffffffffffffffffffffff1673ffffffffffffffffffffffffffffffffffffffff163373ffffffffffffffffffffffffffffffffffffffff1614610cd157600080fd5b6000600160009054906101000a900473ffffffffffffffffffffffffffffffffffffffff1690508073ffffffffffffffffffffffffffffffffffffffff1663107f89ad7fc94d198e6194ea38dbd900920351d7f8e6c6d85b1d3b803fb93c54be008e11fd60001b85856040518463ffffffff1660e01b8152600401610d589392919061185a565b6020604051808303816000875af1158015610d77573d6000803e3d6000fd5b505050506040513d601f19601f82011682018060405250810190610d9b91906117cc565b508073ffffffffffffffffffffffffffffffffffffffff1663ba4014fd610dc185610eec565b8460006040518463ffffffff1660e01b8152600401610de293929190611769565b6020604051808303816000875af1158015610e01573d6000803e3d6000fd5b505050506040513d601f19601f82011682018060405250810190610e2591906117cc565b508073ffffffffffffffffffffffffffffffffffffffff166381425763610e4b85610f1c565b846040518363ffffffff1660e01b8152600401610e699291906117f9565b600060405180830381600087803b158015610e8357600080fd5b505af1158015610e97573d6000803e3d6000fd5b505050507f6521f3db84836ab4fd0021f24d813643845fccd2100af8ca45695746805aeae88383604051610ecc929190611831565b60405180910390a1505050565b600260149054906101000a900460ff1681565b600081604051602001610eff919061191e565b604051602081830303815290604052805190602001209050919050565b600081604051602001610f2f9190611990565b604051602081830303815290604052805190602001209050919050565b6040518060800160405280600061ffff168152602001600073ffffffffffffffffffffffffffffffffffffffff16815260200160608152602001606081525090565b600080fd5b600073ffffffffffffffffffffffffffffffffffffffff82169050919050565b6000610fbe82610f93565b9050919050565b610fce81610fb3565b8114610fd957600080fd5b50565b600081359050610feb81610fc5565b92915050565b60006020828403121561100757611006610f8e565b5b600061101584828501610fdc565b91505092915050565b6000819050919050565b6110318161101e565b811461103c57600080fd5b50565b60008135905061104e81611028565b92915050565b60006020828403121561106a57611069610f8e565b5b60006110788482850161103f565b91505092915050565b600061ffff82169050919050565b61109881611081565b82525050565b60006110a982610f93565b9050919050565b6110b98161109e565b82525050565b600081519050919050565b600082825260208201905092915050565b6000819050602082019050919050565b60006110f783836110b0565b60208301905092915050565b6000602082019050919050565b600061111b826110bf565b61112581856110ca565b9350611130836110db565b8060005b8381101561116157815161114888826110eb565b975061115383611103565b925050600181019050611134565b5085935050505092915050565b6000608083016000830151611186600086018261108f565b50602083015161119960208601826110b0565b50604083015184820360408601526111b18282611110565b915050606083015184820360608601526111cb8282611110565b9150508091505092915050565b600060208201905081810360008301526111f2818461116e565b905092915050565b6112038161109e565b82525050565b600060208201905061121e60008301846111fa565b92915050565b61122d81611081565b811461123857600080fd5b50565b60008135905061124a81611224565b92915050565b60006020828403121561126657611265610f8e565b5b60006112748482850161123b565b91505092915050565b6112868161101e565b82525050565b60006020820190506112a1600083018461127d565b92915050565b6112b081610fb3565b82525050565b60006020820190506112cb60008301846112a7565b92915050565b6112da8161109e565b81146112e557600080fd5b50565b6000813590506112f7816112d1565b92915050565b6000806040838503121561131457611313610f8e565b5b60006113228582860161123b565b9250506020611333858286016112e8565b9150509250929050565b60008115159050919050565b6113528161133d565b82525050565b600060208201905061136d6000830184611349565b92915050565b6000819050919050565b600061139861139361138e84610f93565b611373565b610f93565b9050919050565b60006113aa8261137d565b9050919050565b60006113bc8261139f565b9050919050565b6113cc816113b1565b82525050565b60006040820190506113e760008301856111fa565b6113f460208301846113c3565b9392505050565b6000819050919050565b61140e816113fb565b82525050565b60006040820190506114296000830185611405565b611436602083018461127d565b9392505050565b60008151905061144c81611028565b92915050565b600081519050611461816112d1565b92915050565b6000806040838503121561147e5761147d610f8e565b5b600061148c8582860161143d565b925050602061149d85828601611452565b9150509250929050565b60006020820190506114bc6000830184611405565b92915050565b6000602082840312156114d8576114d7610f8e565b5b60006114e68482850161143d565b91505092915050565b7f4e487b7100000000000000000000000000000000000000000000000000000000600052604160045260246000fd5b6000806040838503121561153557611534610f8e565b5b600061154385828601611452565b92505060206115548582860161143d565b9150509250929050565b7f4e487b7100000000000000000000000000000000000000000000000000000000600052603260045260246000fd5b7f4e487b7100000000000000000000000000000000000000000000000000000000600052601160045260246000fd5b60006115c78261101e565b91507fffffffffffffffffffffffffffffffffffffffffffffffffffffffffffffffff82036115f9576115f861158d565b5b600182019050919050565b600061161f61161a61161584611081565b611373565b61101e565b9050919050565b61162f81611604565b82525050565b600060408201905061164a6000830185611405565b6116576020830184611626565b9392505050565b60006020828403121561167457611673610f8e565b5b600061168284828501611452565b91505092915050565b600082825260208201905092915050565b7f63616e6e6f742072656d6f7665206c617465737420616374696f6e206164647260008201527f6573730000000000000000000000000000000000000000000000000000000000602082015250565b60006116f860238361168b565b91506117038261169c565b604082019050919050565b60006020820190508181036000830152611727816116eb565b9050919050565b6000819050919050565b600061175361174e6117498461172e565b611373565b61101e565b9050919050565b61176381611738565b82525050565b600060608201905061177e6000830186611405565b61178b60208301856111fa565b611798604083018461175a565b949350505050565b6117a98161133d565b81146117b457600080fd5b50565b6000815190506117c6816117a0565b92915050565b6000602082840312156117e2576117e1610f8e565b5b60006117f0848285016117b7565b91505092915050565b600060408201905061180e6000830185611405565b61181b60208301846111fa565b9392505050565b61182b81611081565b82525050565b60006040820190506118466000830185611822565b61185360208301846111fa565b9392505050565b600060608201905061186f6000830186611405565b61187c6020830185611626565b61188960408301846111fa565b949350505050565b600081905092915050565b7f616374696f6e57686974654c6973740000000000000000000000000000000000600082015250565b60006118d2600f83611891565b91506118dd8261189c565b600f82019050919050565b60008160f01b9050919050565b6000611900826118e8565b9050919050565b61191861191382611081565b6118f5565b82525050565b6000611929826118c5565b91506119358284611907565b60028201915081905092915050565b7f616374696f6e426c61636b4c6973740000000000000000000000000000000000600082015250565b600061197a600f83611891565b915061198582611944565b600f82019050919050565b600061199b8261196d565b91506119a78284611907565b6002820191508190509291505056fea2646970667358221220619cca665aef9bfad0385f421844ef65689a6a6d31a1d1722b393d7431731a7664736f6c634300080d0033",
  "immutableReferences": {},
  "source": "// SPDX-License-Identifier: MIT\npragma solidity ^0.8.13;\n\nimport '@openzeppelin/contracts/token/ERC20/IERC20.sol';\nimport '@openzeppelin/contracts/token/ERC20/utils/SafeERC20.sol';\nimport '@openzeppelin/contracts/security/ReentrancyGuard.sol';\n\nimport './model/Workflow.sol';\nimport './FrontDoor.sol';\nimport './IWorkflowRunner.sol';\nimport './IActionManager.sol';\nimport './IUserProxyManager.sol';\nimport './UserProxy.sol';\nimport './LibAssetBalances.sol';\nimport './LibStorageWriter.sol';\nimport './EternalStorage.sol';\nimport './IWorkflowStep.sol';\nimport './LibAsset.sol';\n\ncontract StepConfigurator is FreeMarketBase, IActionManager {\n  constructor(address payable frontDoorAddress)\n    FreeMarketBase(\n      msg.sender, // owner\n      FrontDoor(frontDoorAddress).eternalStorageAddress(), // eternal storage address\n      address(0), // upstream (this doesn't have one)\n      false // isUserProxy\n    )\n  {}\n\n  // latestActionAddresses maps actionId to latest and greatest version of that action\n  bytes32 constant latestActionAddresses = 0xc94d198e6194ea38dbd900920351d7f8e6c6d85b1d3b803fb93c54be008e11fd; // keccak256('latestActionAddresses')\n\n  event ActionAddressSetEvent(uint16 actionId, address actionAddress);\n\n  function getActionWhitelistKey(uint16 actionId) internal pure returns (bytes32) {\n    return keccak256(abi.encodePacked('actionWhiteList', actionId));\n  }\n\n  function getActionBlacklistKey(uint16 actionId) internal pure returns (bytes32) {\n    return keccak256(abi.encodePacked('actionBlackList', actionId));\n  }\n\n  function setActionAddress(uint16 actionId, address actionAddress) external onlyOwner {\n    EternalStorage eternalStorage = EternalStorage(eternalStorageAddress);\n    eternalStorage.setEnumerableMapUintToAddress(latestActionAddresses, actionId, actionAddress);\n    // using the white list map like a set, we only care about the keys\n    eternalStorage.setEnumerableMapAddressToUint(getActionWhitelistKey(actionId), actionAddress, 0);\n    eternalStorage.removeEnumerableMapAddressToUint(getActionBlacklistKey(actionId), actionAddress);\n    emit ActionAddressSetEvent(actionId, actionAddress);\n  }\n\n  function removeActionAddress(uint16 actionId, address actionAddress) external onlyOwner {\n    EternalStorage eternalStorage = EternalStorage(eternalStorageAddress);\n    address latest = eternalStorage.getEnumerableMapUintToAddress(latestActionAddresses, actionId);\n    require(actionAddress != latest, 'cannot remove latest action address');\n    eternalStorage.setEnumerableMapAddressToUint(getActionBlacklistKey(actionId), actionAddress, 0);\n    eternalStorage.removeEnumerableMapAddressToUint(getActionWhitelistKey(actionId), actionAddress);\n    emit ActionAddressSetEvent(actionId, actionAddress);\n  }\n\n  function getActionAddress(uint16 actionId) external view returns (address) {\n    EternalStorage eternalStorage = EternalStorage(eternalStorageAddress);\n    return eternalStorage.getEnumerableMapUintToAddress(latestActionAddresses, actionId);\n  }\n\n  function getActionAddressInternal(uint16 actionId) internal view returns (address) {\n    EternalStorage eternalStorage = EternalStorage(eternalStorageAddress);\n    return eternalStorage.getEnumerableMapUintToAddress(latestActionAddresses, actionId);\n  }\n\n  function getActionCount() external view returns (uint256) {\n    EternalStorage eternalStorage = EternalStorage(eternalStorageAddress);\n    return eternalStorage.lengthEnumerableMapUintToAddress(latestActionAddresses);\n  }\n\n  function getActionInfoAt(uint256 index) public view returns (ActionInfo memory) {\n    EternalStorage eternalStorage = EternalStorage(eternalStorageAddress);\n    (uint256 actionId, address actionAddress) = eternalStorage.atEnumerableMapUintToAddress(latestActionAddresses, index);\n\n    bytes32 whitelistKey = getActionWhitelistKey(uint16(actionId));\n    uint256 whitelistCount = eternalStorage.lengthEnumerableMapAddressToUint(whitelistKey);\n    address[] memory whitelist = new address[](whitelistCount);\n    for (uint256 i = 0; i < whitelistCount; ++i) {\n      (address whitelistedAddress, ) = eternalStorage.atEnumerableMapAddressToUint(whitelistKey, i);\n      whitelist[i] = whitelistedAddress;\n    }\n\n    bytes32 blacklistKey = getActionBlacklistKey(uint16(actionId));\n    uint256 blacklistCount = eternalStorage.lengthEnumerableMapAddressToUint(blacklistKey);\n    address[] memory blacklist = new address[](blacklistCount);\n    for (uint256 i = 0; i < blacklistCount; ++i) {\n      (address blacklistedAddress, ) = eternalStorage.atEnumerableMapAddressToUint(blacklistKey, i);\n      blacklist[i] = blacklistedAddress;\n    }\n\n    return ActionInfo(uint16(actionId), actionAddress, whitelist, blacklist);\n  }\n}\n",
  "sourcePath": "/home/asdf/fmp3/platform/evm/contracts/StepConfigurator.sol",
  "compiler": {
    "name": "solc",
    "version": "0.8.13+commit.abaa5c0e.Emscripten.clang"
  },
  "schemaVersion": "3.4.11",
  "updatedAt": "2023-02-05T18:33:19.011Z",
  "devdoc": {
    "kind": "dev",
    "methods": {
      "getActionAddress(uint16)": {
        "details": "Retrieve the address associated with an actionId"
      },
      "getActionCount()": {
        "details": "getActionCount getActionInfoAt together allow enumeration of all actions"
      },
      "setActionAddress(uint16,address)": {
        "details": "Associate a new address with an actionId"
      }
    },
    "version": 1
  },
  "userdoc": {
    "kind": "user",
    "methods": {},
    "version": 1
  }
}