{
  "contractName": "UnwrapEther",
  "abi": [
    {
      "inputs": [
        {
          "internalType": "address",
          "name": "wrappedEtherContractAddress",
          "type": "address"
        }
      ],
      "stateMutability": "nonpayable",
      "type": "constructor"
    },
    {
      "anonymous": false,
      "inputs": [
        {
          "indexed": false,
          "internalType": "address",
          "name": "thisAddr",
          "type": "address"
        },
        {
          "indexed": false,
          "internalType": "uint256",
          "name": "amount",
          "type": "uint256"
        }
      ],
      "name": "EtherUnwrapped",
      "type": "event"
    },
    {
      "inputs": [],
      "name": "wethContractAddress",
      "outputs": [
        {
          "internalType": "address",
          "name": "",
          "type": "address"
        }
      ],
      "stateMutability": "view",
      "type": "function"
    },
    {
      "inputs": [
        {
          "components": [
            {
              "components": [
                {
                  "internalType": "enum AssetType",
                  "name": "assetType",
                  "type": "uint8"
                },
                {
                  "internalType": "address",
                  "name": "assetAddress",
                  "type": "address"
                }
              ],
              "internalType": "struct Asset",
              "name": "asset",
              "type": "tuple"
            },
            {
              "internalType": "uint256",
              "name": "amount",
              "type": "uint256"
            }
          ],
          "internalType": "struct AssetAmount[]",
          "name": "inputAssetAmounts",
          "type": "tuple[]"
        },
        {
          "components": [
            {
              "internalType": "enum AssetType",
              "name": "assetType",
              "type": "uint8"
            },
            {
              "internalType": "address",
              "name": "assetAddress",
              "type": "address"
            }
          ],
          "internalType": "struct Asset[]",
          "name": "",
          "type": "tuple[]"
        },
        {
          "internalType": "bytes",
          "name": "",
          "type": "bytes"
        }
      ],
      "name": "execute",
      "outputs": [
        {
          "components": [
            {
              "components": [
                {
                  "components": [
                    {
                      "internalType": "enum AssetType",
                      "name": "assetType",
                      "type": "uint8"
                    },
                    {
                      "internalType": "address",
                      "name": "assetAddress",
                      "type": "address"
                    }
                  ],
                  "internalType": "struct Asset",
                  "name": "asset",
                  "type": "tuple"
                },
                {
                  "internalType": "uint256",
                  "name": "amount",
                  "type": "uint256"
                }
              ],
              "internalType": "struct AssetAmount[]",
              "name": "outputAssetAmounts",
              "type": "tuple[]"
            },
            {
              "internalType": "int16",
              "name": "nextStepIndex",
              "type": "int16"
            }
          ],
          "internalType": "struct WorkflowStepResult",
          "name": "",
          "type": "tuple"
        }
      ],
      "stateMutability": "payable",
      "type": "function"
    }
  ],
  "bytecode": "0x60a060405234801561001057600080fd5b506040516109e93803806109e9833981810160405281019061003291906100cf565b8073ffffffffffffffffffffffffffffffffffffffff1660808173ffffffffffffffffffffffffffffffffffffffff1681525050506100fc565b600080fd5b600073ffffffffffffffffffffffffffffffffffffffff82169050919050565b600061009c82610071565b9050919050565b6100ac81610091565b81146100b757600080fd5b50565b6000815190506100c9816100a3565b92915050565b6000602082840312156100e5576100e461006c565b5b60006100f3848285016100ba565b91505092915050565b6080516108c56101246000396000818160f00152818161018101526101b601526108c56000f3fe6080604052600436106100295760003560e01c80632b5350131461002e57806360b4eb981461005e575b600080fd5b610048600480360381019061004391906104a7565b610089565b6040516100559190610792565b60405180910390f35b34801561006a57600080fd5b506100736101b4565b60405161008091906107c3565b60405180910390f35b61009161030d565b6000878760008181106100a7576100a66107de565b5b9050606002016040013590507fb341cca6c33b838459f552414b258181dc0a100ee1a1bb5ea3a9a09e8f7dc31f30826040516100e492919061081c565b60405180910390a160007f000000000000000000000000000000000000000000000000000000000000000090508073ffffffffffffffffffffffffffffffffffffffff16632e1a7d4d836040518263ffffffff1660e01b815260040161014a9190610845565b600060405180830381600087803b15801561016457600080fd5b505af1158015610178573d6000803e3d6000fd5b505050506101a67f0000000000000000000000000000000000000000000000000000000000000000836101d8565b925050509695505050505050565b7f000000000000000000000000000000000000000000000000000000000000000081565b6101e061030d565b6101ec600184846101f4565b905092915050565b6101fc61030d565b6000604051806040016040528086600281111561021c5761021b610587565b5b81526020018573ffffffffffffffffffffffffffffffffffffffff1681525090506000600167ffffffffffffffff81111561025a57610259610860565b5b60405190808252806020026020018201604052801561029357816020015b61028061032a565b8152602001906001900390816102785790505b509050604051806040016040528083815260200185815250816000815181106102bf576102be6107de565b5b602002602001018190525060405180604001604052808281526020017fffffffffffffffffffffffffffffffffffffffffffffffffffffffffffffffff60010b815250925050509392505050565b604051806040016040528060608152602001600060010b81525090565b604051806040016040528061033d61034a565b8152602001600081525090565b60405180604001604052806000600281111561036957610368610587565b5b8152602001600073ffffffffffffffffffffffffffffffffffffffff1681525090565b600080fd5b600080fd5b600080fd5b600080fd5b600080fd5b60008083601f8401126103bb576103ba610396565b5b8235905067ffffffffffffffff8111156103d8576103d761039b565b5b6020830191508360608202830111156103f4576103f36103a0565b5b9250929050565b60008083601f84011261041157610410610396565b5b8235905067ffffffffffffffff81111561042e5761042d61039b565b5b60208301915083604082028301111561044a576104496103a0565b5b9250929050565b60008083601f84011261046757610466610396565b5b8235905067ffffffffffffffff8111156104845761048361039b565b5b6020830191508360018202830111156104a05761049f6103a0565b5b9250929050565b600080600080600080606087890312156104c4576104c361038c565b5b600087013567ffffffffffffffff8111156104e2576104e1610391565b5b6104ee89828a016103a5565b9650965050602087013567ffffffffffffffff81111561051157610510610391565b5b61051d89828a016103fb565b9450945050604087013567ffffffffffffffff8111156105405761053f610391565b5b61054c89828a01610451565b92509250509295509295509295565b600081519050919050565b600082825260208201905092915050565b6000819050602082019050919050565b7f4e487b7100000000000000000000000000000000000000000000000000000000600052602160045260246000fd5b600381106105c7576105c6610587565b5b50565b60008190506105d8826105b6565b919050565b60006105e8826105ca565b9050919050565b6105f8816105dd565b82525050565b600073ffffffffffffffffffffffffffffffffffffffff82169050919050565b6000610629826105fe565b9050919050565b6106398161061e565b82525050565b60408201600082015161065560008501826105ef565b5060208201516106686020850182610630565b50505050565b6000819050919050565b6106818161066e565b82525050565b60608201600082015161069d600085018261063f565b5060208201516106b06040850182610678565b50505050565b60006106c28383610687565b60608301905092915050565b6000602082019050919050565b60006106e68261055b565b6106f08185610566565b93506106fb83610577565b8060005b8381101561072c57815161071388826106b6565b975061071e836106ce565b9250506001810190506106ff565b5085935050505092915050565b60008160010b9050919050565b61074f81610739565b82525050565b6000604083016000830151848203600086015261077282826106db565b91505060208301516107876020860182610746565b508091505092915050565b600060208201905081810360008301526107ac8184610755565b905092915050565b6107bd8161061e565b82525050565b60006020820190506107d860008301846107b4565b92915050565b7f4e487b7100000000000000000000000000000000000000000000000000000000600052603260045260246000fd5b6108168161066e565b82525050565b600060408201905061083160008301856107b4565b61083e602083018461080d565b9392505050565b600060208201905061085a600083018461080d565b92915050565b7f4e487b7100000000000000000000000000000000000000000000000000000000600052604160045260246000fdfea264697066735822122064d67deff01f224c68dddbd0c91157c1796d4ca2f31f667529d658ff40327e1764736f6c634300080d0033",
  "immutableReferences": {
    "9637": [
      {
        "length": 32,
        "start": 240
      },
      {
        "length": 32,
        "start": 385
      },
      {
        "length": 32,
        "start": 438
      }
    ]
  },
  "source": "// SPDX-License-Identifier: MIT\npragma solidity ^0.8.13;\nimport '../../IWorkflowStep.sol';\nimport '../../LibAsset.sol';\nimport '../../LibActionHelpers.sol';\nimport '../../model/Asset.sol';\nimport '../../model/AssetAmount.sol';\nimport './Weth.sol';\n\ncontract UnwrapEther is IWorkflowStep {\n  address public immutable wethContractAddress;\n  event EtherUnwrapped(address thisAddr, uint256 amount);\n\n  constructor(address wrappedEtherContractAddress) {\n    wethContractAddress = wrappedEtherContractAddress;\n  }\n\n  function execute(\n    AssetAmount[] calldata inputAssetAmounts,\n    Asset[] calldata,\n    bytes calldata\n  ) external payable returns (WorkflowStepResult memory) {\n    uint256 amount = inputAssetAmounts[0].amount;\n    emit EtherUnwrapped(address(this), amount);\n    Weth weth = Weth(wethContractAddress);\n    weth.withdraw(amount);\n    return LibActionHelpers.singleTokenResult(wethContractAddress, amount);\n  }\n}\n",
  "sourcePath": "/home/asdf/fmp3/platform/evm/contracts/actions/wrappedEther/UnwrapEther.sol",
  "compiler": {
    "name": "solc",
    "version": "0.8.13+commit.abaa5c0e.Emscripten.clang"
  },
  "schemaVersion": "3.4.11",
  "updatedAt": "2023-02-05T18:33:19.055Z",
  "devdoc": {
    "kind": "dev",
    "methods": {},
    "version": 1
  },
  "userdoc": {
    "kind": "user",
    "methods": {},
    "version": 1
  }
}