{
  "contractName": "UserProxy",
  "abi": [
    {
      "inputs": [
        {
          "internalType": "address",
          "name": "owner",
          "type": "address"
        },
        {
          "internalType": "address",
          "name": "eternalStorage",
          "type": "address"
        },
        {
          "internalType": "address",
          "name": "frontDoor",
          "type": "address"
        }
      ],
      "stateMutability": "nonpayable",
      "type": "constructor"
    },
    {
      "anonymous": false,
      "inputs": [
        {
          "indexed": false,
          "internalType": "address",
          "name": "sender",
          "type": "address"
        },
        {
          "indexed": false,
          "internalType": "address",
          "name": "newOwner",
          "type": "address"
        }
      ],
      "name": "LogNewOwner",
      "type": "event"
    },
    {
      "stateMutability": "payable",
      "type": "fallback"
    },
    {
      "inputs": [],
      "name": "eternalStorageAddress",
      "outputs": [
        {
          "internalType": "address",
          "name": "",
          "type": "address"
        }
      ],
      "stateMutability": "view",
      "type": "function"
    },
    {
      "inputs": [],
      "name": "isUserProxy",
      "outputs": [
        {
          "internalType": "bool",
          "name": "",
          "type": "bool"
        }
      ],
      "stateMutability": "view",
      "type": "function"
    },
    {
      "inputs": [],
      "name": "owner",
      "outputs": [
        {
          "internalType": "address payable",
          "name": "",
          "type": "address"
        }
      ],
      "stateMutability": "view",
      "type": "function"
    },
    {
      "inputs": [
        {
          "internalType": "address payable",
          "name": "newOwner",
          "type": "address"
        }
      ],
      "name": "setOwner",
      "outputs": [],
      "stateMutability": "nonpayable",
      "type": "function"
    },
    {
      "inputs": [],
      "name": "upstreamAddress",
      "outputs": [
        {
          "internalType": "address",
          "name": "",
          "type": "address"
        }
      ],
      "stateMutability": "view",
      "type": "function"
    },
    {
      "stateMutability": "payable",
      "type": "receive"
    },
    {
      "inputs": [],
      "name": "getUpstream",
      "outputs": [
        {
          "internalType": "address",
          "name": "",
          "type": "address"
        }
      ],
      "stateMutability": "view",
      "type": "function"
    }
  ],
  "bytecode": "0x608060405234801561001057600080fd5b5060405161085d38038061085d8339818101604052810190610032919061018c565b82828260018383838383806000806101000a81548173ffffffffffffffffffffffffffffffffffffffff021916908373ffffffffffffffffffffffffffffffffffffffff1602179055505082600160006101000a81548173ffffffffffffffffffffffffffffffffffffffff021916908373ffffffffffffffffffffffffffffffffffffffff16021790555081600260006101000a81548173ffffffffffffffffffffffffffffffffffffffff021916908373ffffffffffffffffffffffffffffffffffffffff16021790555080600260146101000a81548160ff02191690831515021790555050505050505050505050506101df565b600080fd5b600073ffffffffffffffffffffffffffffffffffffffff82169050919050565b60006101598261012e565b9050919050565b6101698161014e565b811461017457600080fd5b50565b60008151905061018681610160565b92915050565b6000806000606084860312156101a5576101a4610129565b5b60006101b386828701610177565b93505060206101c486828701610177565b92505060406101d586828701610177565b9150509250925092565b61066f806101ee6000396000f3fe6080604052600436106100595760003560e01c806313af4035146100d957806332b56aaf14610102578063384782fe1461012d57806356dececb146101585780638da5cb5b14610183578063ff05c2a8146101ae57610060565b3661006057005b6100d73073ffffffffffffffffffffffffffffffffffffffff166356dececb6040518163ffffffff1660e01b8152600401602060405180830381865afa1580156100ae573d6000803e3d6000fd5b505050506040513d601f19601f820116820180604052508101906100d2919061048f565b6101d9565b005b3480156100e557600080fd5b5061010060048036038101906100fb91906104fa565b6101ff565b005b34801561010e57600080fd5b5061011761030c565b6040516101249190610536565b60405180910390f35b34801561013957600080fd5b50610142610332565b60405161014f9190610536565b60405180910390f35b34801561016457600080fd5b5061016d610358565b60405161017a9190610536565b60405180910390f35b34801561018f57600080fd5b506101986103f5565b6040516101a59190610560565b60405180910390f35b3480156101ba57600080fd5b506101c3610419565b6040516101d09190610596565b60405180910390f35b3660008037600080366000845af43d6000803e80600081146101fa573d6000f35b3d6000fd5b60008054906101000a900473ffffffffffffffffffffffffffffffffffffffff1673ffffffffffffffffffffffffffffffffffffffff163373ffffffffffffffffffffffffffffffffffffffff161461025757600080fd5b600073ffffffffffffffffffffffffffffffffffffffff168173ffffffffffffffffffffffffffffffffffffffff160361029057600080fd5b806000806101000a81548173ffffffffffffffffffffffffffffffffffffffff021916908373ffffffffffffffffffffffffffffffffffffffff1602179055507f1f8d7d25344642d919d55999e4664aa452a5f424bc0936ceb9c2b300db7dcbd93382604051610301929190610610565b60405180910390a150565b600260009054906101000a900473ffffffffffffffffffffffffffffffffffffffff1681565b600160009054906101000a900473ffffffffffffffffffffffffffffffffffffffff1681565b600080600260009054906101000a900473ffffffffffffffffffffffffffffffffffffffff1690508073ffffffffffffffffffffffffffffffffffffffff166356dececb6040518163ffffffff1660e01b8152600401602060405180830381865afa1580156103cb573d6000803e3d6000fd5b505050506040513d601f19601f820116820180604052508101906103ef919061048f565b91505090565b60008054906101000a900473ffffffffffffffffffffffffffffffffffffffff1681565b600260149054906101000a900460ff1681565b600080fd5b600073ffffffffffffffffffffffffffffffffffffffff82169050919050565b600061045c82610431565b9050919050565b61046c81610451565b811461047757600080fd5b50565b60008151905061048981610463565b92915050565b6000602082840312156104a5576104a461042c565b5b60006104b38482850161047a565b91505092915050565b60006104c782610431565b9050919050565b6104d7816104bc565b81146104e257600080fd5b50565b6000813590506104f4816104ce565b92915050565b6000602082840312156105105761050f61042c565b5b600061051e848285016104e5565b91505092915050565b61053081610451565b82525050565b600060208201905061054b6000830184610527565b92915050565b61055a816104bc565b82525050565b60006020820190506105756000830184610551565b92915050565b60008115159050919050565b6105908161057b565b82525050565b60006020820190506105ab6000830184610587565b92915050565b6000819050919050565b60006105d66105d16105cc84610431565b6105b1565b610431565b9050919050565b60006105e8826105bb565b9050919050565b60006105fa826105dd565b9050919050565b61060a816105ef565b82525050565b60006040820190506106256000830185610527565b6106326020830184610601565b939250505056fea2646970667358221220c860c6f0ff69654a0e8bff248b8764c620216a1b8fdfb746e47c26ccdc0edfaa64736f6c634300080d0033",
  "immutableReferences": {},
  "source": "// SPDX-License-Identifier: MIT\npragma solidity ^0.8.13;\nimport './IHasUpstream.sol';\nimport './Proxy.sol';\n\ncontract UserProxy is Proxy {\n  constructor(\n    address owner,\n    address eternalStorage,\n    address frontDoor\n  ) Proxy(owner, eternalStorage, frontDoor, true) {}\n\n  function getUpstream() external view override returns (address) {\n    IHasUpstream frontDoor = IHasUpstream(upstreamAddress);\n    return frontDoor.getUpstream();\n  }\n}\n",
  "sourcePath": "/home/asdf/fmp3/platform/evm/contracts/UserProxy.sol",
  "compiler": {
    "name": "solc",
    "version": "0.8.13+commit.abaa5c0e.Emscripten.clang"
  },
  "schemaVersion": "3.4.11",
  "updatedAt": "2023-02-05T18:33:19.014Z",
  "devdoc": {
    "kind": "dev",
    "methods": {},
    "version": 1
  },
  "userdoc": {
    "kind": "user",
    "methods": {},
    "version": 1
  }
}