{
  "contractName": "WorkflowRunner",
  "abi": [
    {
      "inputs": [
        {
          "internalType": "address payable",
          "name": "frontDoorAddress",
          "type": "address"
        }
      ],
      "stateMutability": "nonpayable",
      "type": "constructor"
    },
    {
      "anonymous": false,
      "inputs": [
        {
          "indexed": false,
          "internalType": "uint16",
          "name": "actionId",
          "type": "uint16"
        },
        {
          "indexed": false,
          "internalType": "address",
          "name": "actionAddress",
          "type": "address"
        }
      ],
      "name": "ActionAddressSetEvent",
      "type": "event"
    },
    {
      "anonymous": false,
      "inputs": [
        {
          "indexed": false,
          "internalType": "address",
          "name": "sender",
          "type": "address"
        },
        {
          "indexed": false,
          "internalType": "address",
          "name": "newOwner",
          "type": "address"
        }
      ],
      "name": "LogNewOwner",
      "type": "event"
    },
    {
      "anonymous": false,
      "inputs": [
        {
          "components": [
            {
              "internalType": "enum AssetType",
              "name": "assetType",
              "type": "uint8"
            },
            {
              "internalType": "address",
              "name": "assetAddress",
              "type": "address"
            }
          ],
          "indexed": false,
          "internalType": "struct Asset",
          "name": "asset",
          "type": "tuple"
        },
        {
          "indexed": false,
          "internalType": "uint256",
          "name": "amount",
          "type": "uint256"
        }
      ],
      "name": "RemainingAsset",
      "type": "event"
    },
    {
      "anonymous": false,
      "inputs": [
        {
          "indexed": false,
          "internalType": "uint256",
          "name": "nonce",
          "type": "uint256"
        },
        {
          "indexed": false,
          "internalType": "address",
          "name": "userAddress",
          "type": "address"
        },
        {
          "components": [
            {
              "components": [
                {
                  "internalType": "enum AssetType",
                  "name": "assetType",
                  "type": "uint8"
                },
                {
                  "internalType": "address",
                  "name": "assetAddress",
                  "type": "address"
                }
              ],
              "internalType": "struct Asset",
              "name": "asset",
              "type": "tuple"
            },
            {
              "internalType": "uint256",
              "name": "amount",
              "type": "uint256"
            }
          ],
          "indexed": false,
          "internalType": "struct AssetAmount",
          "name": "startingAsset",
          "type": "tuple"
        }
      ],
      "name": "WorkflowContinuation",
      "type": "event"
    },
    {
      "anonymous": false,
      "inputs": [
        {
          "indexed": false,
          "internalType": "address",
          "name": "sender",
          "type": "address"
        }
      ],
      "name": "WorkflowExecution",
      "type": "event"
    },
    {
      "anonymous": false,
      "inputs": [
        {
          "indexed": false,
          "internalType": "uint16",
          "name": "stepIndex",
          "type": "uint16"
        },
        {
          "components": [
            {
              "internalType": "uint16",
              "name": "actionId",
              "type": "uint16"
            },
            {
              "internalType": "address",
              "name": "actionAddress",
              "type": "address"
            },
            {
              "components": [
                {
                  "components": [
                    {
                      "internalType": "enum AssetType",
                      "name": "assetType",
                      "type": "uint8"
                    },
                    {
                      "internalType": "address",
                      "name": "assetAddress",
                      "type": "address"
                    }
                  ],
                  "internalType": "struct Asset",
                  "name": "asset",
                  "type": "tuple"
                },
                {
                  "internalType": "uint256",
                  "name": "amount",
                  "type": "uint256"
                },
                {
                  "internalType": "bool",
                  "name": "amountIsPercent",
                  "type": "bool"
                }
              ],
              "internalType": "struct WorkflowStepInputAsset[]",
              "name": "inputAssets",
              "type": "tuple[]"
            },
            {
              "components": [
                {
                  "internalType": "enum AssetType",
                  "name": "assetType",
                  "type": "uint8"
                },
                {
                  "internalType": "address",
                  "name": "assetAddress",
                  "type": "address"
                }
              ],
              "internalType": "struct Asset[]",
              "name": "outputAssets",
              "type": "tuple[]"
            },
            {
              "internalType": "bytes",
              "name": "data",
              "type": "bytes"
            },
            {
              "internalType": "int16",
              "name": "nextStepIndex",
              "type": "int16"
            }
          ],
          "indexed": false,
          "internalType": "struct WorkflowStep",
          "name": "step",
          "type": "tuple"
        },
        {
          "indexed": false,
          "internalType": "address",
          "name": "actionAddress",
          "type": "address"
        },
        {
          "components": [
            {
              "components": [
                {
                  "internalType": "enum AssetType",
                  "name": "assetType",
                  "type": "uint8"
                },
                {
                  "internalType": "address",
                  "name": "assetAddress",
                  "type": "address"
                }
              ],
              "internalType": "struct Asset",
              "name": "asset",
              "type": "tuple"
            },
            {
              "internalType": "uint256",
              "name": "amount",
              "type": "uint256"
            }
          ],
          "indexed": false,
          "internalType": "struct AssetAmount[]",
          "name": "assetAmounts",
          "type": "tuple[]"
        }
      ],
      "name": "WorkflowStepExecution",
      "type": "event"
    },
    {
      "anonymous": false,
      "inputs": [
        {
          "components": [
            {
              "components": [
                {
                  "components": [
                    {
                      "internalType": "enum AssetType",
                      "name": "assetType",
                      "type": "uint8"
                    },
                    {
                      "internalType": "address",
                      "name": "assetAddress",
                      "type": "address"
                    }
                  ],
                  "internalType": "struct Asset",
                  "name": "asset",
                  "type": "tuple"
                },
                {
                  "internalType": "uint256",
                  "name": "amount",
                  "type": "uint256"
                }
              ],
              "internalType": "struct AssetAmount[]",
              "name": "outputAssetAmounts",
              "type": "tuple[]"
            },
            {
              "internalType": "int16",
              "name": "nextStepIndex",
              "type": "int16"
            }
          ],
          "indexed": false,
          "internalType": "struct WorkflowStepResult",
          "name": "result",
          "type": "tuple"
        }
      ],
      "name": "WorkflowStepResultEvent",
      "type": "event"
    },
    {
      "inputs": [],
      "name": "eternalStorageAddress",
      "outputs": [
        {
          "internalType": "address",
          "name": "",
          "type": "address"
        }
      ],
      "stateMutability": "view",
      "type": "function"
    },
    {
      "inputs": [],
      "name": "isUserProxy",
      "outputs": [
        {
          "internalType": "bool",
          "name": "",
          "type": "bool"
        }
      ],
      "stateMutability": "view",
      "type": "function"
    },
    {
      "inputs": [],
      "name": "owner",
      "outputs": [
        {
          "internalType": "address payable",
          "name": "",
          "type": "address"
        }
      ],
      "stateMutability": "view",
      "type": "function"
    },
    {
      "inputs": [
        {
          "internalType": "address payable",
          "name": "newOwner",
          "type": "address"
        }
      ],
      "name": "setOwner",
      "outputs": [],
      "stateMutability": "nonpayable",
      "type": "function"
    },
    {
      "inputs": [],
      "name": "upstreamAddress",
      "outputs": [
        {
          "internalType": "address",
          "name": "",
          "type": "address"
        }
      ],
      "stateMutability": "view",
      "type": "function"
    },
    {
      "inputs": [
        {
          "internalType": "uint16",
          "name": "actionId",
          "type": "uint16"
        },
        {
          "internalType": "address",
          "name": "actionAddress",
          "type": "address"
        }
      ],
      "name": "setActionAddress",
      "outputs": [],
      "stateMutability": "nonpayable",
      "type": "function"
    },
    {
      "inputs": [
        {
          "internalType": "uint16",
          "name": "actionId",
          "type": "uint16"
        },
        {
          "internalType": "address",
          "name": "actionAddress",
          "type": "address"
        }
      ],
      "name": "removeActionAddress",
      "outputs": [],
      "stateMutability": "nonpayable",
      "type": "function"
    },
    {
      "inputs": [
        {
          "internalType": "uint16",
          "name": "actionId",
          "type": "uint16"
        }
      ],
      "name": "getActionAddress",
      "outputs": [
        {
          "internalType": "address",
          "name": "",
          "type": "address"
        }
      ],
      "stateMutability": "view",
      "type": "function"
    },
    {
      "inputs": [],
      "name": "getActionCount",
      "outputs": [
        {
          "internalType": "uint256",
          "name": "",
          "type": "uint256"
        }
      ],
      "stateMutability": "view",
      "type": "function"
    },
    {
      "inputs": [
        {
          "internalType": "uint256",
          "name": "index",
          "type": "uint256"
        }
      ],
      "name": "getActionInfoAt",
      "outputs": [
        {
          "components": [
            {
              "internalType": "uint16",
              "name": "actionId",
              "type": "uint16"
            },
            {
              "internalType": "address",
              "name": "latest",
              "type": "address"
            },
            {
              "internalType": "address[]",
              "name": "whitelist",
              "type": "address[]"
            },
            {
              "internalType": "address[]",
              "name": "blacklist",
              "type": "address[]"
            }
          ],
          "internalType": "struct ActionInfo",
          "name": "",
          "type": "tuple"
        }
      ],
      "stateMutability": "view",
      "type": "function"
    },
    {
      "inputs": [
        {
          "components": [
            {
              "components": [
                {
                  "internalType": "uint16",
                  "name": "actionId",
                  "type": "uint16"
                },
                {
                  "internalType": "address",
                  "name": "actionAddress",
                  "type": "address"
                },
                {
                  "components": [
                    {
                      "components": [
                        {
                          "internalType": "enum AssetType",
                          "name": "assetType",
                          "type": "uint8"
                        },
                        {
                          "internalType": "address",
                          "name": "assetAddress",
                          "type": "address"
                        }
                      ],
                      "internalType": "struct Asset",
                      "name": "asset",
                      "type": "tuple"
                    },
                    {
                      "internalType": "uint256",
                      "name": "amount",
                      "type": "uint256"
                    },
                    {
                      "internalType": "bool",
                      "name": "amountIsPercent",
                      "type": "bool"
                    }
                  ],
                  "internalType": "struct WorkflowStepInputAsset[]",
                  "name": "inputAssets",
                  "type": "tuple[]"
                },
                {
                  "components": [
                    {
                      "internalType": "enum AssetType",
                      "name": "assetType",
                      "type": "uint8"
                    },
                    {
                      "internalType": "address",
                      "name": "assetAddress",
                      "type": "address"
                    }
                  ],
                  "internalType": "struct Asset[]",
                  "name": "outputAssets",
                  "type": "tuple[]"
                },
                {
                  "internalType": "bytes",
                  "name": "data",
                  "type": "bytes"
                },
                {
                  "internalType": "int16",
                  "name": "nextStepIndex",
                  "type": "int16"
                }
              ],
              "internalType": "struct WorkflowStep[]",
              "name": "steps",
              "type": "tuple[]"
            }
          ],
          "internalType": "struct Workflow",
          "name": "workflow",
          "type": "tuple"
        }
      ],
      "name": "executeWorkflow",
      "outputs": [],
      "stateMutability": "payable",
      "type": "function"
    },
    {
      "inputs": [
        {
          "internalType": "address",
          "name": "userAddress",
          "type": "address"
        },
        {
          "internalType": "uint256",
          "name": "nonce",
          "type": "uint256"
        },
        {
          "components": [
            {
              "components": [
                {
                  "internalType": "uint16",
                  "name": "actionId",
                  "type": "uint16"
                },
                {
                  "internalType": "address",
                  "name": "actionAddress",
                  "type": "address"
                },
                {
                  "components": [
                    {
                      "components": [
                        {
                          "internalType": "enum AssetType",
                          "name": "assetType",
                          "type": "uint8"
                        },
                        {
                          "internalType": "address",
                          "name": "assetAddress",
                          "type": "address"
                        }
                      ],
                      "internalType": "struct Asset",
                      "name": "asset",
                      "type": "tuple"
                    },
                    {
                      "internalType": "uint256",
                      "name": "amount",
                      "type": "uint256"
                    },
                    {
                      "internalType": "bool",
                      "name": "amountIsPercent",
                      "type": "bool"
                    }
                  ],
                  "internalType": "struct WorkflowStepInputAsset[]",
                  "name": "inputAssets",
                  "type": "tuple[]"
                },
                {
                  "components": [
                    {
                      "internalType": "enum AssetType",
                      "name": "assetType",
                      "type": "uint8"
                    },
                    {
                      "internalType": "address",
                      "name": "assetAddress",
                      "type": "address"
                    }
                  ],
                  "internalType": "struct Asset[]",
                  "name": "outputAssets",
                  "type": "tuple[]"
                },
                {
                  "internalType": "bytes",
                  "name": "data",
                  "type": "bytes"
                },
                {
                  "internalType": "int16",
                  "name": "nextStepIndex",
                  "type": "int16"
                }
              ],
              "internalType": "struct WorkflowStep[]",
              "name": "steps",
              "type": "tuple[]"
            }
          ],
          "internalType": "struct Workflow",
          "name": "workflow",
          "type": "tuple"
        },
        {
          "components": [
            {
              "components": [
                {
                  "internalType": "enum AssetType",
                  "name": "assetType",
                  "type": "uint8"
                },
                {
                  "internalType": "address",
                  "name": "assetAddress",
                  "type": "address"
                }
              ],
              "internalType": "struct Asset",
              "name": "asset",
              "type": "tuple"
            },
            {
              "internalType": "uint256",
              "name": "amount",
              "type": "uint256"
            }
          ],
          "internalType": "struct AssetAmount",
          "name": "startingAsset",
          "type": "tuple"
        }
      ],
      "name": "continueWorkflow",
      "outputs": [],
      "stateMutability": "nonpayable",
      "type": "function"
    }
  ],
  "bytecode": "0x60806040523480156200001157600080fd5b5060405162004bcc38038062004bcc833981810160405281019062000037919062000208565b338173ffffffffffffffffffffffffffffffffffffffff1663384782fe6040518163ffffffff1660e01b8152600401602060405180830381865afa15801562000084573d6000803e3d6000fd5b505050506040513d601f19601f82011682018060405250810190620000aa91906200027f565b60008083806000806101000a81548173ffffffffffffffffffffffffffffffffffffffff021916908373ffffffffffffffffffffffffffffffffffffffff1602179055505082600160006101000a81548173ffffffffffffffffffffffffffffffffffffffff021916908373ffffffffffffffffffffffffffffffffffffffff16021790555081600260006101000a81548173ffffffffffffffffffffffffffffffffffffffff021916908373ffffffffffffffffffffffffffffffffffffffff16021790555080600260146101000a81548160ff02191690831515021790555050505050600160038190555050620002b1565b600080fd5b600073ffffffffffffffffffffffffffffffffffffffff82169050919050565b6000620001d082620001a3565b9050919050565b620001e281620001c3565b8114620001ee57600080fd5b50565b6000815190506200020281620001d7565b92915050565b6000602082840312156200022157620002206200019e565b5b60006200023184828501620001f1565b91505092915050565b60006200024782620001a3565b9050919050565b62000259816200023a565b81146200026557600080fd5b50565b60008151905062000279816200024e565b92915050565b6000602082840312156200029857620002976200019e565b5b6000620002a88482850162000268565b91505092915050565b61490b80620002c16000396000f3fe6080604052600436106100a75760003560e01c80637bb0be87116100645780637bb0be87146101d05780638da5cb5b146101ec578063a2af321d14610217578063caef055c14610240578063fab494d914610269578063ff05c2a814610292576100a7565b806313af4035146100ac5780632de74e04146100d557806332b56aaf14610112578063384782fe1461013d5780634755fa14146101685780635eecd218146101a5575b600080fd5b3480156100b857600080fd5b506100d360048036038101906100ce9190612535565b6102bd565b005b3480156100e157600080fd5b506100fc60048036038101906100f79190612598565b6103ca565b604051610109919061271c565b60405180910390f35b34801561011e57600080fd5b50610127610871565b604051610134919061274d565b60405180910390f35b34801561014957600080fd5b50610152610897565b60405161015f919061274d565b60405180910390f35b34801561017457600080fd5b5061018f600480360381019061018a9190612794565b6108bd565b60405161019c919061274d565b60405180910390f35b3480156101b157600080fd5b506101ba61098c565b6040516101c791906127d0565b60405180910390f35b6101ea60048036038101906101e5919061280f565b610a57565b005b3480156101f857600080fd5b50610201610ad7565b60405161020e9190612867565b60405180910390f35b34801561022357600080fd5b5061023e60048036038101906102399190612f50565b610afb565b005b34801561024c57600080fd5b5061026760048036038101906102629190612fd3565b610b3c565b005b34801561027557600080fd5b50610290600480360381019061028b9190612fd3565b610e0a565b005b34801561029e57600080fd5b506102a761106a565b6040516102b49190613022565b60405180910390f35b60008054906101000a900473ffffffffffffffffffffffffffffffffffffffff1673ffffffffffffffffffffffffffffffffffffffff163373ffffffffffffffffffffffffffffffffffffffff161461031557600080fd5b600073ffffffffffffffffffffffffffffffffffffffff168173ffffffffffffffffffffffffffffffffffffffff160361034e57600080fd5b806000806101000a81548173ffffffffffffffffffffffffffffffffffffffff021916908373ffffffffffffffffffffffffffffffffffffffff1602179055507f1f8d7d25344642d919d55999e4664aa452a5f424bc0936ceb9c2b300db7dcbd933826040516103bf92919061309c565b60405180910390a150565b6103d2612397565b6000600160009054906101000a900473ffffffffffffffffffffffffffffffffffffffff1690506000808273ffffffffffffffffffffffffffffffffffffffff16634fcee0497fc94d198e6194ea38dbd900920351d7f8e6c6d85b1d3b803fb93c54be008e11fd60001b876040518363ffffffff1660e01b815260040161045a9291906130de565b6040805180830381865afa158015610476573d6000803e3d6000fd5b505050506040513d601f19601f8201168201806040525081019061049a9190613131565b9150915060006104a98361107d565b905060008473ffffffffffffffffffffffffffffffffffffffff16639b0d10fd836040518263ffffffff1660e01b81526004016104e69190613171565b602060405180830381865afa158015610503573d6000803e3d6000fd5b505050506040513d601f19601f82011682018060405250810190610527919061318c565b905060008167ffffffffffffffff811115610545576105446128c4565b5b6040519080825280602002602001820160405280156105735781602001602082028036833780820191505090505b50905060005b828110156106615760008773ffffffffffffffffffffffffffffffffffffffff1663619f6cc686846040518363ffffffff1660e01b81526004016105be9291906130de565b6040805180830381865afa1580156105da573d6000803e3d6000fd5b505050506040513d601f19601f820116820180604052508101906105fe91906131b9565b50905080838381518110610615576106146131f9565b5b602002602001019073ffffffffffffffffffffffffffffffffffffffff16908173ffffffffffffffffffffffffffffffffffffffff1681525050508061065a90613257565b9050610579565b50600061066d866110ad565b905060008773ffffffffffffffffffffffffffffffffffffffff16639b0d10fd836040518263ffffffff1660e01b81526004016106aa9190613171565b602060405180830381865afa1580156106c7573d6000803e3d6000fd5b505050506040513d601f19601f820116820180604052508101906106eb919061318c565b905060008167ffffffffffffffff811115610709576107086128c4565b5b6040519080825280602002602001820160405280156107375781602001602082028036833780820191505090505b50905060005b828110156108255760008a73ffffffffffffffffffffffffffffffffffffffff1663619f6cc686846040518363ffffffff1660e01b81526004016107829291906130de565b6040805180830381865afa15801561079e573d6000803e3d6000fd5b505050506040513d601f19601f820116820180604052508101906107c291906131b9565b509050808383815181106107d9576107d86131f9565b5b602002602001019073ffffffffffffffffffffffffffffffffffffffff16908173ffffffffffffffffffffffffffffffffffffffff1681525050508061081e90613257565b905061073d565b5060405180608001604052808961ffff1681526020018873ffffffffffffffffffffffffffffffffffffffff168152602001858152602001828152509950505050505050505050919050565b600260009054906101000a900473ffffffffffffffffffffffffffffffffffffffff1681565b600160009054906101000a900473ffffffffffffffffffffffffffffffffffffffff1681565b600080600160009054906101000a900473ffffffffffffffffffffffffffffffffffffffff1690508073ffffffffffffffffffffffffffffffffffffffff1663a2ccb5227fc94d198e6194ea38dbd900920351d7f8e6c6d85b1d3b803fb93c54be008e11fd60001b856040518363ffffffff1660e01b81526004016109439291906132d0565b602060405180830381865afa158015610960573d6000803e3d6000fd5b505050506040513d601f19601f8201168201806040525081019061098491906132f9565b915050919050565b600080600160009054906101000a900473ffffffffffffffffffffffffffffffffffffffff1690508073ffffffffffffffffffffffffffffffffffffffff1663832860727fc94d198e6194ea38dbd900920351d7f8e6c6d85b1d3b803fb93c54be008e11fd60001b6040518263ffffffff1660e01b8152600401610a109190613171565b602060405180830381865afa158015610a2d573d6000803e3d6000fd5b505050506040513d601f19601f82011682018060405250810190610a51919061318c565b91505090565b610a5f6110dd565b60006040518060400160405280604051806040016040528060006002811115610a8b57610a8a613326565b5b8152602001600073ffffffffffffffffffffffffffffffffffffffff16815250815260200160008152509050610acb3383610ac590613355565b8361112c565b50610ad46113d3565b50565b60008054906101000a900473ffffffffffffffffffffffffffffffffffffffff1681565b7f5fb75a336a44ceb6f98a3b8492da063de0d7407916807b030a6703bc96c38712838583604051610b2e9392919061341d565b60405180910390a150505050565b60008054906101000a900473ffffffffffffffffffffffffffffffffffffffff1673ffffffffffffffffffffffffffffffffffffffff163373ffffffffffffffffffffffffffffffffffffffff1614610b9457600080fd5b6000600160009054906101000a900473ffffffffffffffffffffffffffffffffffffffff16905060008173ffffffffffffffffffffffffffffffffffffffff1663a2ccb5227fc94d198e6194ea38dbd900920351d7f8e6c6d85b1d3b803fb93c54be008e11fd60001b866040518363ffffffff1660e01b8152600401610c1b9291906132d0565b602060405180830381865afa158015610c38573d6000803e3d6000fd5b505050506040513d601f19601f82011682018060405250810190610c5c91906132f9565b90508073ffffffffffffffffffffffffffffffffffffffff168373ffffffffffffffffffffffffffffffffffffffff1603610ccc576040517f08c379a0000000000000000000000000000000000000000000000000000000008152600401610cc3906134d7565b60405180910390fd5b8173ffffffffffffffffffffffffffffffffffffffff1663ba4014fd610cf1866110ad565b8560006040518463ffffffff1660e01b8152600401610d1293929190613532565b6020604051808303816000875af1158015610d31573d6000803e3d6000fd5b505050506040513d601f19601f82011682018060405250810190610d55919061357e565b508173ffffffffffffffffffffffffffffffffffffffff166381425763610d7b8661107d565b856040518363ffffffff1660e01b8152600401610d999291906135ab565b600060405180830381600087803b158015610db357600080fd5b505af1158015610dc7573d6000803e3d6000fd5b505050507f6521f3db84836ab4fd0021f24d813643845fccd2100af8ca45695746805aeae88484604051610dfc9291906135e3565b60405180910390a150505050565b60008054906101000a900473ffffffffffffffffffffffffffffffffffffffff1673ffffffffffffffffffffffffffffffffffffffff163373ffffffffffffffffffffffffffffffffffffffff1614610e6257600080fd5b6000600160009054906101000a900473ffffffffffffffffffffffffffffffffffffffff1690508073ffffffffffffffffffffffffffffffffffffffff1663107f89ad7fc94d198e6194ea38dbd900920351d7f8e6c6d85b1d3b803fb93c54be008e11fd60001b85856040518463ffffffff1660e01b8152600401610ee99392919061360c565b6020604051808303816000875af1158015610f08573d6000803e3d6000fd5b505050506040513d601f19601f82011682018060405250810190610f2c919061357e565b508073ffffffffffffffffffffffffffffffffffffffff1663ba4014fd610f528561107d565b8460006040518463ffffffff1660e01b8152600401610f7393929190613532565b6020604051808303816000875af1158015610f92573d6000803e3d6000fd5b505050506040513d601f19601f82011682018060405250810190610fb6919061357e565b508073ffffffffffffffffffffffffffffffffffffffff166381425763610fdc856110ad565b846040518363ffffffff1660e01b8152600401610ffa9291906135ab565b600060405180830381600087803b15801561101457600080fd5b505af1158015611028573d6000803e3d6000fd5b505050507f6521f3db84836ab4fd0021f24d813643845fccd2100af8ca45695746805aeae8838360405161105d9291906135e3565b60405180910390a1505050565b600260149054906101000a900460ff1681565b60008160405160200161109091906136d0565b604051602081830303815290604052805190602001209050919050565b6000816040516020016110c09190613742565b604051602081830303815290604052805190602001209050919050565b600260035403611122576040517f08c379a0000000000000000000000000000000000000000000000000000000008152600401611119906137b4565b60405180910390fd5b6002600381905550565b7fab733976560259f9d55c1241bbffbf64fab725b4a8e1a9ef7e1ab191c234fc768360405161115b919061274d565b60405180910390a1600061116d6123d9565b6000341461118c5761118b600034836113dd9092919063ffffffff16565b5b6000836020015111156111b7576111b683600001518460200151836114359092919063ffffffff16565b5b5b6001156113c257600084600001518361ffff16815181106111dc576111db6131f9565b5b6020026020010151905060006111f18261144d565b905060006112038484604001516114a7565b90507f8fdbe82fed28c06d59a7c7138423002b38f3c01c0befaad7c4afea759c6d9ca68584848460405161123a9493929190613b8f565b60405180910390a160006112588383866060015187608001516116a7565b90507f1be234cf4e8d146a6f5aab8e2b960bac341eb94c350a7b3acc3cb303b0743121816040516112899190613c8e565b60405180910390a160005b82518110156112ff576112ee8382815181106112b3576112b26131f9565b5b6020026020010151600001518483815181106112d2576112d16131f9565b5b602002602001015160200151886117f99092919063ffffffff16565b806112f890613257565b9050611294565b5060005b81600001515181101561137a576113698260000151828151811061132a576113296131f9565b5b6020026020010151600001518360000151838151811061134d5761134c6131f9565b5b602002602001015160200151886114359092919063ffffffff16565b8061137390613257565b9050611303565b507fffffffffffffffffffffffffffffffffffffffffffffffffffffffffffffffff8460a0015160010b036113b257505050506113c2565b8360a001519550505050506111b8565b6113cc8582611811565b5050505050565b6001600381905550565b60008111156114305760006113f28484611b1d565b9050600061141f856000015183600a81106114105761140f6131f9565b5b60200201516020015184611c25565b905061142c858383611c3b565b5050505b505050565b6114488361144284611c83565b836113dd565b505050565b60008073ffffffffffffffffffffffffffffffffffffffff16826020015173ffffffffffffffffffffffffffffffffffffffff160361149a576114938260000151611c9e565b90506114a2565b816020015190505b919050565b60606000825167ffffffffffffffff8111156114c6576114c56128c4565b5b6040519080825280602002602001820160405280156114ff57816020015b6114ec6123fc565b8152602001906001900390816114e45790505b50905060005b835181101561169c576000848281518110611523576115226131f9565b5b602002602001015190508060000151838381518110611545576115446131f9565b5b602002602001015160000181905250600061156d826000015188611d6d90919063ffffffff16565b905081604001511561161957816020015160001080156115945750620186a0826020015111155b6115d3576040517f08c379a00000000000000000000000000000000000000000000000000000000081526004016115ca90613d22565b60405180910390fd5b620186a08260200151826115e79190613d42565b6115f19190613dcb565b848481518110611604576116036131f9565b5b60200260200101516020018181525050611689565b8160200151811115611660576040517f08c379a000000000000000000000000000000000000000000000000000000000815260040161165790613e6e565b60405180910390fd5b8160200151848481518110611678576116776131f9565b5b602002602001015160200181815250505b50508061169590613257565b9050611505565b508091505092915050565b6116af61241c565b6000808673ffffffffffffffffffffffffffffffffffffffff16632b53501360e01b8787876040516024016116e693929190613f47565b604051602081830303815290604052907bffffffffffffffffffffffffffffffffffffffffffffffffffffffff19166020820180517bffffffffffffffffffffffffffffffffffffffffffffffffffffffff83818316178352505050506040516117509190613fcf565b600060405180830381855af49150503d806000811461178b576040519150601f19603f3d011682016040523d82523d6000602084013e611790565b606091505b50915091508181906117d8576040517f08c379a00000000000000000000000000000000000000000000000000000000081526004016117cf919061402a565b60405180910390fd5b50808060200190518101906117ed9190614245565b92505050949350505050565b61180c8361180684611c83565b83611e09565b505050565b60005b61181d82611e61565b60ff168160ff161015611b1857600061183f8284611e6f90919063ffffffff16565b90506000816000015190507fc9b3109043e2a2330d2eb2f8ffdc64c03d637d5deabb0ad117faa08b4e0bb7ab81836020015160405161187f9291906142bd565b60405180910390a16000600281111561189b5761189a613326565b5b816000015160028111156118b2576118b1613326565b5b036119ba57816020015147146118fd576040517f08c379a00000000000000000000000000000000000000000000000000000000081526004016118f490614358565b60405180910390fd5b6000808673ffffffffffffffffffffffffffffffffffffffff1684602001516040516119289061439e565b60006040518083038185875af1925050503d8060008114611965576040519150601f19603f3d011682016040523d82523d6000602084013e61196a565b606091505b50915091508181906119b2576040517f08c379a00000000000000000000000000000000000000000000000000000000081526004016119a9919061402a565b60405180910390fd5b505050611b05565b600160028111156119ce576119cd613326565b5b816000015160028111156119e5576119e4613326565b5b03611ac95760008160200151905060008173ffffffffffffffffffffffffffffffffffffffff166370a08231306040518263ffffffff1660e01b8152600401611a2e919061274d565b602060405180830381865afa158015611a4b573d6000803e3d6000fd5b505050506040513d601f19601f82011682018060405250810190611a6f919061318c565b905080846020015114611ab7576040517f08c379a0000000000000000000000000000000000000000000000000000000008152600401611aae90614425565b60405180910390fd5b611ac2828883611f32565b5050611b04565b6040517f08c379a0000000000000000000000000000000000000000000000000000000008152600401611afb906144b7565b60405180910390fd5b5b505080611b11906144e4565b9050611814565b505050565b600080600090505b836020015160ff16811015611b745782846000015182600a8110611b4c57611b4b6131f9565b5b60200201516000015103611b635780915050611c1f565b80611b6d90613257565b9050611b25565b50600a60ff16836020015160ff1610611bc2576040517f08c379a0000000000000000000000000000000000000000000000000000000008152600401611bb990614559565b60405180910390fd5b604051806040016040528083815260200160008152508360000151846020015160ff16600a8110611bf657611bf56131f9565b5b6020020181905250826020018051809190611c10906144e4565b60ff1660ff1681525060ff1690505b92915050565b60008183611c339190614579565b905092915050565b6000808203611c5357611c4e8484611fb8565b611c79565b81846000015184600a8110611c6b57611c6a6131f9565b5b602002015160200181815250505b8190509392505050565b6000611c9782600001518360200151612025565b9050919050565b600080600160009054906101000a900473ffffffffffffffffffffffffffffffffffffffff1690508073ffffffffffffffffffffffffffffffffffffffff1663a2ccb5227fc94d198e6194ea38dbd900920351d7f8e6c6d85b1d3b803fb93c54be008e11fd60001b856040518363ffffffff1660e01b8152600401611d249291906132d0565b602060405180830381865afa158015611d41573d6000803e3d6000fd5b505050506040513d601f19601f82011682018060405250810190611d6591906132f9565b915050919050565b600080836000015190506000611d8284611c83565b905060005b856020015160ff168161ffff161015611dfb5781838261ffff16600a8110611db257611db16131f9565b5b60200201516000015103611dea57828161ffff16600a8110611dd757611dd66131f9565b5b6020020151602001519350505050611e03565b80611df4906145cf565b9050611d87565b506000925050505b92915050565b6000811115611e5c576000611e1e8484611b1d565b90506000611e4b856000015183600a8110611e3c57611e3b6131f9565b5b6020020151602001518461207b565b9050611e58858383611c3b565b5050505b505050565b600081602001519050919050565b611e776123fc565b826020015160ff168260ff1610611ec3576040517f08c379a0000000000000000000000000000000000000000000000000000000008152600401611eba9061466b565b60405180910390fd5b6000611ef084600001518460ff16600a8110611ee257611ee16131f9565b5b602002015160000151612091565b9050604051806040016040528082815260200185600001518560ff16600a8110611f1d57611f1c6131f9565b5b60200201516020015181525091505092915050565b611fb38363a9059cbb60e01b8484604051602401611f5192919061468b565b604051602081830303815290604052907bffffffffffffffffffffffffffffffffffffffffffffffffffffffff19166020820180517bffffffffffffffffffffffffffffffffffffffffffffffffffffffff8381831617835250505050612103565b505050565b816000015160018360200151611fce91906146b4565b60ff16600a8110611fe257611fe16131f9565b5b6020020151826000015182600a8110611ffe57611ffd6131f9565b5b6020020181905250816020018051612015906146e8565b60ff16908160ff16815250505050565b60008082905060008173ffffffffffffffffffffffffffffffffffffffff1690506000601082901b9050600086600281111561206457612063613326565b5b905060008183179050809550505050505092915050565b600081836120899190614711565b905092915050565b612099612439565b60008261ffff1660028111156120b2576120b1613326565b5b90506000601084901c905060405180604001604052808360028111156120db576120da613326565b5b81526020018273ffffffffffffffffffffffffffffffffffffffff1681525092505050919050565b6000612165826040518060400160405280602081526020017f5361666545524332303a206c6f772d6c6576656c2063616c6c206661696c65648152508573ffffffffffffffffffffffffffffffffffffffff166121ca9092919063ffffffff16565b90506000815111156121c55780806020019051810190612185919061357e565b6121c4576040517f08c379a00000000000000000000000000000000000000000000000000000000081526004016121bb906147b7565b60405180910390fd5b5b505050565b60606121d984846000856121e2565b90509392505050565b606082471015612227576040517f08c379a000000000000000000000000000000000000000000000000000000000815260040161221e90614849565b60405180910390fd5b6000808673ffffffffffffffffffffffffffffffffffffffff1685876040516122509190613fcf565b60006040518083038185875af1925050503d806000811461228d576040519150601f19603f3d011682016040523d82523d6000602084013e612292565b606091505b50915091506122a3878383876122af565b92505050949350505050565b60608315612311576000835103612309576122c985612324565b612308576040517f08c379a00000000000000000000000000000000000000000000000000000000081526004016122ff906148b5565b60405180910390fd5b5b82905061231c565b61231b8383612347565b5b949350505050565b6000808273ffffffffffffffffffffffffffffffffffffffff163b119050919050565b60008251111561235a5781518083602001fd5b806040517f08c379a000000000000000000000000000000000000000000000000000000000815260040161238e919061402a565b60405180910390fd5b6040518060800160405280600061ffff168152602001600073ffffffffffffffffffffffffffffffffffffffff16815260200160608152602001606081525090565b60405180604001604052806123ec61247b565b8152602001600060ff1681525090565b604051806040016040528061240f612439565b8152602001600081525090565b604051806040016040528060608152602001600060010b81525090565b60405180604001604052806000600281111561245857612457613326565b5b8152602001600073ffffffffffffffffffffffffffffffffffffffff1681525090565b604051806101400160405280600a905b6124936124a9565b81526020019060019003908161248b5790505090565b604051806040016040528060008152602001600081525090565b6000604051905090565b600080fd5b600080fd5b600073ffffffffffffffffffffffffffffffffffffffff82169050919050565b6000612502826124d7565b9050919050565b612512816124f7565b811461251d57600080fd5b50565b60008135905061252f81612509565b92915050565b60006020828403121561254b5761254a6124cd565b5b600061255984828501612520565b91505092915050565b6000819050919050565b61257581612562565b811461258057600080fd5b50565b6000813590506125928161256c565b92915050565b6000602082840312156125ae576125ad6124cd565b5b60006125bc84828501612583565b91505092915050565b600061ffff82169050919050565b6125dc816125c5565b82525050565b60006125ed826124d7565b9050919050565b6125fd816125e2565b82525050565b600081519050919050565b600082825260208201905092915050565b6000819050602082019050919050565b600061263b83836125f4565b60208301905092915050565b6000602082019050919050565b600061265f82612603565b612669818561260e565b93506126748361261f565b8060005b838110156126a557815161268c888261262f565b975061269783612647565b925050600181019050612678565b5085935050505092915050565b60006080830160008301516126ca60008601826125d3565b5060208301516126dd60208601826125f4565b50604083015184820360408601526126f58282612654565b9150506060830151848203606086015261270f8282612654565b9150508091505092915050565b6000602082019050818103600083015261273681846126b2565b905092915050565b612747816125e2565b82525050565b6000602082019050612762600083018461273e565b92915050565b612771816125c5565b811461277c57600080fd5b50565b60008135905061278e81612768565b92915050565b6000602082840312156127aa576127a96124cd565b5b60006127b88482850161277f565b91505092915050565b6127ca81612562565b82525050565b60006020820190506127e560008301846127c1565b92915050565b600080fd5b600060208284031215612806576128056127eb565b5b81905092915050565b600060208284031215612825576128246124cd565b5b600082013567ffffffffffffffff811115612843576128426124d2565b5b61284f848285016127f0565b91505092915050565b612861816124f7565b82525050565b600060208201905061287c6000830184612858565b92915050565b61288b816125e2565b811461289657600080fd5b50565b6000813590506128a881612882565b92915050565b600080fd5b6000601f19601f8301169050919050565b7f4e487b7100000000000000000000000000000000000000000000000000000000600052604160045260246000fd5b6128fc826128b3565b810181811067ffffffffffffffff8211171561291b5761291a6128c4565b5b80604052505050565b600061292e6124c3565b905061293a82826128f3565b919050565b600080fd5b600080fd5b600067ffffffffffffffff821115612964576129636128c4565b5b602082029050602081019050919050565b600080fd5b600067ffffffffffffffff821115612995576129946128c4565b5b602082029050602081019050919050565b600381106129b357600080fd5b50565b6000813590506129c5816129a6565b92915050565b6000604082840312156129e1576129e06128ae565b5b6129eb6040612924565b905060006129fb848285016129b6565b6000830152506020612a0f84828501612899565b60208301525092915050565b60008115159050919050565b612a3081612a1b565b8114612a3b57600080fd5b50565b600081359050612a4d81612a27565b92915050565b600060808284031215612a6957612a686128ae565b5b612a736060612924565b90506000612a83848285016129cb565b6000830152506040612a9784828501612583565b6020830152506060612aab84828501612a3e565b60408301525092915050565b6000612aca612ac58461297a565b612924565b90508083825260208201905060808402830185811115612aed57612aec612975565b5b835b81811015612b165780612b028882612a53565b845260208401935050608081019050612aef565b5050509392505050565b600082601f830112612b3557612b34612944565b5b8135612b45848260208601612ab7565b91505092915050565b600067ffffffffffffffff821115612b6957612b686128c4565b5b602082029050602081019050919050565b6000612b8d612b8884612b4e565b612924565b90508083825260208201905060408402830185811115612bb057612baf612975565b5b835b81811015612bd95780612bc588826129cb565b845260208401935050604081019050612bb2565b5050509392505050565b600082601f830112612bf857612bf7612944565b5b8135612c08848260208601612b7a565b91505092915050565b600080fd5b600067ffffffffffffffff821115612c3157612c306128c4565b5b612c3a826128b3565b9050602081019050919050565b82818337600083830152505050565b6000612c69612c6484612c16565b612924565b905082815260208101848484011115612c8557612c84612c11565b5b612c90848285612c47565b509392505050565b600082601f830112612cad57612cac612944565b5b8135612cbd848260208601612c56565b91505092915050565b60008160010b9050919050565b612cdc81612cc6565b8114612ce757600080fd5b50565b600081359050612cf981612cd3565b92915050565b600060c08284031215612d1557612d146128ae565b5b612d1f60c0612924565b90506000612d2f8482850161277f565b6000830152506020612d4384828501612899565b602083015250604082013567ffffffffffffffff811115612d6757612d6661293f565b5b612d7384828501612b20565b604083015250606082013567ffffffffffffffff811115612d9757612d9661293f565b5b612da384828501612be3565b606083015250608082013567ffffffffffffffff811115612dc757612dc661293f565b5b612dd384828501612c98565b60808301525060a0612de784828501612cea565b60a08301525092915050565b6000612e06612e0184612949565b612924565b90508083825260208201905060208402830185811115612e2957612e28612975565b5b835b81811015612e7057803567ffffffffffffffff811115612e4e57612e4d612944565b5b808601612e5b8982612cff565b85526020850194505050602081019050612e2b565b5050509392505050565b600082601f830112612e8f57612e8e612944565b5b8135612e9f848260208601612df3565b91505092915050565b600060208284031215612ebe57612ebd6128ae565b5b612ec86020612924565b9050600082013567ffffffffffffffff811115612ee857612ee761293f565b5b612ef484828501612e7a565b60008301525092915050565b600060608284031215612f1657612f156128ae565b5b612f206040612924565b90506000612f30848285016129cb565b6000830152506040612f4484828501612583565b60208301525092915050565b60008060008060c08587031215612f6a57612f696124cd565b5b6000612f7887828801612899565b9450506020612f8987828801612583565b935050604085013567ffffffffffffffff811115612faa57612fa96124d2565b5b612fb687828801612ea8565b9250506060612fc787828801612f00565b91505092959194509250565b60008060408385031215612fea57612fe96124cd565b5b6000612ff88582860161277f565b925050602061300985828601612899565b9150509250929050565b61301c81612a1b565b82525050565b60006020820190506130376000830184613013565b92915050565b6000819050919050565b600061306261305d613058846124d7565b61303d565b6124d7565b9050919050565b600061307482613047565b9050919050565b600061308682613069565b9050919050565b6130968161307b565b82525050565b60006040820190506130b1600083018561273e565b6130be602083018461308d565b9392505050565b6000819050919050565b6130d8816130c5565b82525050565b60006040820190506130f360008301856130cf565b61310060208301846127c1565b9392505050565b6000815190506131168161256c565b92915050565b60008151905061312b81612882565b92915050565b60008060408385031215613148576131476124cd565b5b600061315685828601613107565b92505060206131678582860161311c565b9150509250929050565b600060208201905061318660008301846130cf565b92915050565b6000602082840312156131a2576131a16124cd565b5b60006131b084828501613107565b91505092915050565b600080604083850312156131d0576131cf6124cd565b5b60006131de8582860161311c565b92505060206131ef85828601613107565b9150509250929050565b7f4e487b7100000000000000000000000000000000000000000000000000000000600052603260045260246000fd5b7f4e487b7100000000000000000000000000000000000000000000000000000000600052601160045260246000fd5b600061326282612562565b91507fffffffffffffffffffffffffffffffffffffffffffffffffffffffffffffffff820361329457613293613228565b5b600182019050919050565b60006132ba6132b56132b0846125c5565b61303d565b612562565b9050919050565b6132ca8161329f565b82525050565b60006040820190506132e560008301856130cf565b6132f260208301846132c1565b9392505050565b60006020828403121561330f5761330e6124cd565b5b600061331d8482850161311c565b91505092915050565b7f4e487b7100000000000000000000000000000000000000000000000000000000600052602160045260246000fd5b60006133613683612ea8565b9050919050565b6003811061337957613378613326565b5b50565b600081905061338a82613368565b919050565b600061339a8261337c565b9050919050565b6133aa8161338f565b82525050565b6040820160008201516133c660008501826133a1565b5060208201516133d960208501826125f4565b50505050565b6133e881612562565b82525050565b60608201600082015161340460008501826133b0565b50602082015161341760408501826133df565b50505050565b600060a08201905061343260008301866127c1565b61343f602083018561273e565b61344c60408301846133ee565b949350505050565b600082825260208201905092915050565b7f63616e6e6f742072656d6f7665206c617465737420616374696f6e206164647260008201527f6573730000000000000000000000000000000000000000000000000000000000602082015250565b60006134c1602383613454565b91506134cc82613465565b604082019050919050565b600060208201905081810360008301526134f0816134b4565b9050919050565b6000819050919050565b600061351c613517613512846134f7565b61303d565b612562565b9050919050565b61352c81613501565b82525050565b600060608201905061354760008301866130cf565b613554602083018561273e565b6135616040830184613523565b949350505050565b60008151905061357881612a27565b92915050565b600060208284031215613594576135936124cd565b5b60006135a284828501613569565b91505092915050565b60006040820190506135c060008301856130cf565b6135cd602083018461273e565b9392505050565b6135dd816125c5565b82525050565b60006040820190506135f860008301856135d4565b613605602083018461273e565b9392505050565b600060608201905061362160008301866130cf565b61362e60208301856132c1565b61363b604083018461273e565b949350505050565b600081905092915050565b7f616374696f6e57686974654c6973740000000000000000000000000000000000600082015250565b6000613684600f83613643565b915061368f8261364e565b600f82019050919050565b60008160f01b9050919050565b60006136b28261369a565b9050919050565b6136ca6136c5826125c5565b6136a7565b82525050565b60006136db82613677565b91506136e782846136b9565b60028201915081905092915050565b7f616374696f6e426c61636b4c6973740000000000000000000000000000000000600082015250565b600061372c600f83613643565b9150613737826136f6565b600f82019050919050565b600061374d8261371f565b915061375982846136b9565b60028201915081905092915050565b7f5265656e7472616e637947756172643a207265656e7472616e742063616c6c00600082015250565b600061379e601f83613454565b91506137a982613768565b602082019050919050565b600060208201905081810360008301526137cd81613791565b9050919050565b600081519050919050565b600082825260208201905092915050565b6000819050602082019050919050565b61380981612a1b565b82525050565b60808201600082015161382560008501826133b0565b50602082015161383860408501826133df565b50604082015161384b6060850182613800565b50505050565b600061385d838361380f565b60808301905092915050565b6000602082019050919050565b6000613881826137d4565b61388b81856137df565b9350613896836137f0565b8060005b838110156138c75781516138ae8882613851565b97506138b983613869565b92505060018101905061389a565b5085935050505092915050565b600081519050919050565b600082825260208201905092915050565b6000819050602082019050919050565b600061390c83836133b0565b60408301905092915050565b6000602082019050919050565b6000613930826138d4565b61393a81856138df565b9350613945836138f0565b8060005b8381101561397657815161395d8882613900565b975061396883613918565b925050600181019050613949565b5085935050505092915050565b600081519050919050565b600082825260208201905092915050565b60005b838110156139bd5780820151818401526020810190506139a2565b838111156139cc576000848401525b50505050565b60006139dd82613983565b6139e7818561398e565b93506139f781856020860161399f565b613a00816128b3565b840191505092915050565b613a1481612cc6565b82525050565b600060c083016000830151613a3260008601826125d3565b506020830151613a4560208601826125f4565b5060408301518482036040860152613a5d8282613876565b91505060608301518482036060860152613a778282613925565b91505060808301518482036080860152613a9182826139d2565b91505060a0830151613aa660a0860182613a0b565b508091505092915050565b600081519050919050565b600082825260208201905092915050565b6000819050602082019050919050565b606082016000820151613af360008501826133b0565b506020820151613b0660408501826133df565b50505050565b6000613b188383613add565b60608301905092915050565b6000602082019050919050565b6000613b3c82613ab1565b613b468185613abc565b9350613b5183613acd565b8060005b83811015613b82578151613b698882613b0c565b9750613b7483613b24565b925050600181019050613b55565b5085935050505092915050565b6000608082019050613ba460008301876135d4565b8181036020830152613bb68186613a1a565b9050613bc5604083018561273e565b8181036060830152613bd78184613b31565b905095945050505050565b600082825260208201905092915050565b6000613bfe82613ab1565b613c088185613be2565b9350613c1383613acd565b8060005b83811015613c44578151613c2b8882613b0c565b9750613c3683613b24565b925050600181019050613c17565b5085935050505092915050565b60006040830160008301518482036000860152613c6e8282613bf3565b9150506020830151613c836020860182613a0b565b508091505092915050565b60006020820190508181036000830152613ca88184613c51565b905092915050565b7f70657263656e74206d757374206265206265747765656e203120616e6420313060008201527f305f303030000000000000000000000000000000000000000000000000000000602082015250565b6000613d0c602583613454565b9150613d1782613cb0565b604082019050919050565b60006020820190508181036000830152613d3b81613cff565b9050919050565b6000613d4d82612562565b9150613d5883612562565b9250817fffffffffffffffffffffffffffffffffffffffffffffffffffffffffffffffff0483118215151615613d9157613d90613228565b5b828202905092915050565b7f4e487b7100000000000000000000000000000000000000000000000000000000600052601260045260246000fd5b6000613dd682612562565b9150613de183612562565b925082613df157613df0613d9c565b5b828204905092915050565b7f6162736f6c75746520616d6f756e74206578636565647320776f726b666c6f7760008201527f2061737365742062616c616e6365000000000000000000000000000000000000602082015250565b6000613e58602e83613454565b9150613e6382613dfc565b604082019050919050565b60006020820190508181036000830152613e8781613e4b565b9050919050565b600082825260208201905092915050565b6000613eaa826138d4565b613eb48185613e8e565b9350613ebf836138f0565b8060005b83811015613ef0578151613ed78882613900565b9750613ee283613918565b925050600181019050613ec3565b5085935050505092915050565b600082825260208201905092915050565b6000613f1982613983565b613f238185613efd565b9350613f3381856020860161399f565b613f3c816128b3565b840191505092915050565b60006060820190508181036000830152613f618186613b31565b90508181036020830152613f758185613e9f565b90508181036040830152613f898184613f0e565b9050949350505050565b600081905092915050565b6000613fa982613983565b613fb38185613f93565b9350613fc381856020860161399f565b80840191505092915050565b6000613fdb8284613f9e565b915081905092915050565b600081519050919050565b6000613ffc82613fe6565b6140068185613454565b935061401681856020860161399f565b61401f816128b3565b840191505092915050565b600060208201905081810360008301526140448184613ff1565b905092915050565b600067ffffffffffffffff821115614067576140666128c4565b5b602082029050602081019050919050565b600081519050614087816129a6565b92915050565b6000604082840312156140a3576140a26128ae565b5b6140ad6040612924565b905060006140bd84828501614078565b60008301525060206140d18482850161311c565b60208301525092915050565b6000606082840312156140f3576140f26128ae565b5b6140fd6040612924565b9050600061410d8482850161408d565b600083015250604061412184828501613107565b60208301525092915050565b600061414061413b8461404c565b612924565b9050808382526020820190506060840283018581111561416357614162612975565b5b835b8181101561418c578061417888826140dd565b845260208401935050606081019050614165565b5050509392505050565b600082601f8301126141ab576141aa612944565b5b81516141bb84826020860161412d565b91505092915050565b6000815190506141d381612cd3565b92915050565b6000604082840312156141ef576141ee6128ae565b5b6141f96040612924565b9050600082015167ffffffffffffffff8111156142195761421861293f565b5b61422584828501614196565b6000830152506020614239848285016141c4565b60208301525092915050565b60006020828403121561425b5761425a6124cd565b5b600082015167ffffffffffffffff811115614279576142786124d2565b5b614285848285016141d9565b91505092915050565b6040820160008201516142a460008501826133a1565b5060208201516142b760208501826125f4565b50505050565b60006060820190506142d2600083018561428e565b6142df60408301846127c1565b9392505050565b7f636f6d7075746564206e61746976652062616c616e636520646f6573206e6f7460008201527f206d617463682061637475616c2062616c616e63650000000000000000000000602082015250565b6000614342603583613454565b915061434d826142e6565b604082019050919050565b6000602082019050818103600083015261437181614335565b9050919050565b50565b6000614388600083613f93565b915061439382614378565b600082019050919050565b60006143a98261437b565b9150819050919050565b7f636f6d707574656420746f6b656e2062616c616e636520646f6573206e6f742060008201527f6d617463682061637475616c2062616c616e6365000000000000000000000000602082015250565b600061440f603483613454565b915061441a826143b3565b604082019050919050565b6000602082019050818103600083015261443e81614402565b9050919050565b7f756e6b6e6f776e206173736574207479706520696e20617373657442616c616e60008201527f6365730000000000000000000000000000000000000000000000000000000000602082015250565b60006144a1602383613454565b91506144ac82614445565b604082019050919050565b600060208201905081810360008301526144d081614494565b9050919050565b600060ff82169050919050565b60006144ef826144d7565b915060ff820361450257614501613228565b5b600182019050919050565b7f746f6f206d616e7920746f6b656e2062616c616e636573000000000000000000600082015250565b6000614543601783613454565b915061454e8261450d565b602082019050919050565b6000602082019050818103600083015261457281614536565b9050919050565b600061458482612562565b915061458f83612562565b9250827fffffffffffffffffffffffffffffffffffffffffffffffffffffffffffffffff038211156145c4576145c3613228565b5b828201905092915050565b60006145da826125c5565b915061ffff82036145ee576145ed613228565b5b600182019050919050565b7f696e646578206f7574206f6620626f756e6473207768696c652061636365737360008201527f696e672061737365742062616c616e6365730000000000000000000000000000602082015250565b6000614655603283613454565b9150614660826145f9565b604082019050919050565b6000602082019050818103600083015261468481614648565b9050919050565b60006040820190506146a0600083018561273e565b6146ad60208301846127c1565b9392505050565b60006146bf826144d7565b91506146ca836144d7565b9250828210156146dd576146dc613228565b5b828203905092915050565b60006146f3826144d7565b91506000820361470657614705613228565b5b600182039050919050565b600061471c82612562565b915061472783612562565b92508282101561473a57614739613228565b5b828203905092915050565b7f5361666545524332303a204552433230206f7065726174696f6e20646964206e60008201527f6f74207375636365656400000000000000000000000000000000000000000000602082015250565b60006147a1602a83613454565b91506147ac82614745565b604082019050919050565b600060208201905081810360008301526147d081614794565b9050919050565b7f416464726573733a20696e73756666696369656e742062616c616e636520666f60008201527f722063616c6c0000000000000000000000000000000000000000000000000000602082015250565b6000614833602683613454565b915061483e826147d7565b604082019050919050565b6000602082019050818103600083015261486281614826565b9050919050565b7f416464726573733a2063616c6c20746f206e6f6e2d636f6e7472616374000000600082015250565b600061489f601d83613454565b91506148aa82614869565b602082019050919050565b600060208201905081810360008301526148ce81614892565b905091905056fea264697066735822122060a128f608a6d19133d4e9b4a5188416e997714aca1d34bb993dd7b0e174fe9f64736f6c634300080d0033",
  "immutableReferences": {},
  "source": "// SPDX-License-Identifier: MIT\npragma solidity ^0.8.13;\n\nimport '@openzeppelin/contracts/token/ERC20/IERC20.sol';\nimport '@openzeppelin/contracts/token/ERC20/utils/SafeERC20.sol';\nimport '@openzeppelin/contracts/security/ReentrancyGuard.sol';\n\nimport './model/Workflow.sol';\nimport './FrontDoor.sol';\nimport './IWorkflowRunner.sol';\nimport './IActionManager.sol';\nimport './IUserProxyManager.sol';\nimport './UserProxy.sol';\nimport './LibAssetBalances.sol';\nimport './LibStorageWriter.sol';\nimport './EternalStorage.sol';\nimport './IWorkflowStep.sol';\nimport './LibAsset.sol';\n\ncontract WorkflowRunner is\n  FreeMarketBase,\n  ReentrancyGuard,\n  IWorkflowRunner, /*IUserProxyManager,*/\n  IActionManager\n{\n  constructor(address payable frontDoorAddress)\n    FreeMarketBase(\n      msg.sender, // owner\n      FrontDoor(frontDoorAddress).eternalStorageAddress(), // eternal storage address\n      address(0), // upstream (this doesn't have one)\n      false // isUserProxy\n    )\n  {}\n\n  // function createUserProxy() external {\n  //   EternalStorage es = EternalStorage(eternalStorageAddress);\n  //   bytes32 key = getUserProxyKey('userProxies', msg.sender);\n  //   address currentAddress = es.getAddress(key);\n  //   require(currentAddress != address(0x0000000000000000), 'user proxy already exists');\n  //   key = keccak256(abi.encodePacked('frontDoor'));\n  //   address frontDoorAddress = es.getAddress(key);\n  //   UserProxy newUserProxy = new UserProxy(payable(msg.sender), eternalStorageAddress, frontDoorAddress);\n  //   address userProxyAddress = address(newUserProxy);\n  //   es.setAddress(key, userProxyAddress);\n  // }\n\n  // latestActionAddresses maps actionId to latest and greatest version of that action\n  bytes32 constant latestActionAddresses = 0xc94d198e6194ea38dbd900920351d7f8e6c6d85b1d3b803fb93c54be008e11fd; // keccak256('latestActionAddresses')\n\n  event ActionAddressSetEvent(uint16 actionId, address actionAddress);\n\n  function getActionWhitelistKey(uint16 actionId) internal pure returns (bytes32) {\n    return keccak256(abi.encodePacked('actionWhiteList', actionId));\n  }\n\n  function getActionBlacklistKey(uint16 actionId) internal pure returns (bytes32) {\n    return keccak256(abi.encodePacked('actionBlackList', actionId));\n  }\n\n  function setActionAddress(uint16 actionId, address actionAddress) external onlyOwner {\n    EternalStorage eternalStorage = EternalStorage(eternalStorageAddress);\n    eternalStorage.setEnumerableMapUintToAddress(latestActionAddresses, actionId, actionAddress);\n    // using the white list map like a set, we only care about the keys\n    eternalStorage.setEnumerableMapAddressToUint(getActionWhitelistKey(actionId), actionAddress, 0);\n    eternalStorage.removeEnumerableMapAddressToUint(getActionBlacklistKey(actionId), actionAddress);\n    emit ActionAddressSetEvent(actionId, actionAddress);\n  }\n\n  function removeActionAddress(uint16 actionId, address actionAddress) external onlyOwner {\n    EternalStorage eternalStorage = EternalStorage(eternalStorageAddress);\n    address latest = eternalStorage.getEnumerableMapUintToAddress(latestActionAddresses, actionId);\n    require(actionAddress != latest, 'cannot remove latest action address');\n    eternalStorage.setEnumerableMapAddressToUint(getActionBlacklistKey(actionId), actionAddress, 0);\n    eternalStorage.removeEnumerableMapAddressToUint(getActionWhitelistKey(actionId), actionAddress);\n    emit ActionAddressSetEvent(actionId, actionAddress);\n  }\n\n  function getActionAddress(uint16 actionId) external view returns (address) {\n    EternalStorage eternalStorage = EternalStorage(eternalStorageAddress);\n    return eternalStorage.getEnumerableMapUintToAddress(latestActionAddresses, actionId);\n  }\n\n  function getActionAddressInternal(uint16 actionId) internal view returns (address) {\n    EternalStorage eternalStorage = EternalStorage(eternalStorageAddress);\n    return eternalStorage.getEnumerableMapUintToAddress(latestActionAddresses, actionId);\n  }\n\n  function getActionCount() external view returns (uint256) {\n    EternalStorage eternalStorage = EternalStorage(eternalStorageAddress);\n    return eternalStorage.lengthEnumerableMapUintToAddress(latestActionAddresses);\n  }\n\n  function getActionInfoAt(uint256 index) public view returns (ActionInfo memory) {\n    EternalStorage eternalStorage = EternalStorage(eternalStorageAddress);\n    (uint256 actionId, address actionAddress) = eternalStorage.atEnumerableMapUintToAddress(latestActionAddresses, index);\n\n    bytes32 whitelistKey = getActionWhitelistKey(uint16(actionId));\n    uint256 whitelistCount = eternalStorage.lengthEnumerableMapAddressToUint(whitelistKey);\n    address[] memory whitelist = new address[](whitelistCount);\n    for (uint256 i = 0; i < whitelistCount; ++i) {\n      (address whitelistedAddress, ) = eternalStorage.atEnumerableMapAddressToUint(whitelistKey, i);\n      whitelist[i] = whitelistedAddress;\n    }\n\n    bytes32 blacklistKey = getActionBlacklistKey(uint16(actionId));\n    uint256 blacklistCount = eternalStorage.lengthEnumerableMapAddressToUint(blacklistKey);\n    address[] memory blacklist = new address[](blacklistCount);\n    for (uint256 i = 0; i < blacklistCount; ++i) {\n      (address blacklistedAddress, ) = eternalStorage.atEnumerableMapAddressToUint(blacklistKey, i);\n      blacklist[i] = blacklistedAddress;\n    }\n\n    return ActionInfo(uint16(actionId), actionAddress, whitelist, blacklist);\n  }\n\n  // function getUserProxyKey(string memory category, address addr) internal pure returns (bytes32) {\n  //   return keccak256(abi.encodePacked(category, addr));\n  // }\n\n  // function getUserProxy() external view returns (address) {\n  //   EternalStorage eternalStorage = EternalStorage(eternalStorageAddress);\n  //   bytes32 key = getUserProxyKey('userProxies', msg.sender);\n  //   return eternalStorage.getAddress(key);\n  // }\n\n  // event  (string msg, uint256 number);\n  event WorkflowExecution(address sender);\n  event WorkflowStepExecution(uint16 stepIndex, WorkflowStep step, address actionAddress, AssetAmount[] assetAmounts);\n  event WorkflowStepResultEvent(WorkflowStepResult result);\n  event RemainingAsset(Asset asset, uint256 amount);\n  // event RemainingAsset(uint8 assetType, address assetAddress, uint256 amount);\n  // event WorkflowStep()\n  using LibAssetBalances for LibAssetBalances.AssetBalances;\n\n  function executeWorkflow(Workflow calldata workflow) external payable nonReentrant {\n    AssetAmount memory startingAssets = AssetAmount(Asset(AssetType.Native, address(0)), 0);\n    executeWorkflow(msg.sender, workflow, startingAssets);\n  }\n\n  function executeWorkflow(\n    address userAddress,\n    Workflow memory workflow,\n    AssetAmount memory startingAsset\n  ) internal {\n    emit WorkflowExecution(userAddress);\n    // workflow starts on the step with index 0\n    uint16 currentStepIndex = 0;\n    // used to keep track of asset balances\n    LibAssetBalances.AssetBalances memory assetBalances;\n    // credit ETH if sent with this call\n    if (msg.value != 0) {\n      assetBalances.credit(0, uint256(msg.value));\n    }\n    // credit any starting assets (if this is a continutation workflow with assets sent by a bridge)\n    if (startingAsset.amount > 0) {\n      assetBalances.credit(startingAsset.asset, startingAsset.amount);\n    }\n\n    // emit ErasemeEvent('length', workflow.steps.length);\n    while (true) {\n      // prepare to invoke the step\n      WorkflowStep memory currentStep = workflow.steps[currentStepIndex];\n      address actionAddress = resolveActionAddress(currentStep);\n      AssetAmount[] memory inputAssetAmounts = resolveAmounts(assetBalances, currentStep.inputAssets);\n      // invoke the step\n      emit WorkflowStepExecution(currentStepIndex, currentStep, actionAddress, inputAssetAmounts);\n      WorkflowStepResult memory stepResult = invokeStep(actionAddress, inputAssetAmounts, currentStep.outputAssets, currentStep.data);\n      emit WorkflowStepResultEvent(stepResult);\n\n      // debit input assets\n      for (uint256 i = 0; i < inputAssetAmounts.length; ++i) {\n        assetBalances.debit(inputAssetAmounts[i].asset, inputAssetAmounts[i].amount);\n      }\n      // credit output assets\n      for (uint256 i = 0; i < stepResult.outputAssetAmounts.length; ++i) {\n        assetBalances.credit(stepResult.outputAssetAmounts[i].asset, stepResult.outputAssetAmounts[i].amount);\n      }\n      if (currentStep.nextStepIndex == -1) {\n        // emit ErasemeEvent('sentinel', uint256(uint16(currentStep.nextStepIndex)));\n        break;\n      }\n      // emit ErasemeEvent('next step index', uint256(uint16(currentStep.nextStepIndex)));\n      currentStepIndex = uint16(currentStep.nextStepIndex);\n      // break;\n    }\n    refundUser(userAddress, assetBalances);\n  }\n\n  function refundUser(address userAddress, LibAssetBalances.AssetBalances memory assetBalances) internal {\n    for (uint8 i = 0; i < assetBalances.getAssetCount(); ++i) {\n      AssetAmount memory ab = assetBalances.getAssetAt(i);\n      Asset memory asset = ab.asset;\n      emit RemainingAsset(asset, ab.amount);\n      if (asset.assetType == AssetType.Native) {\n        require(address(this).balance == ab.amount, 'computed native balance does not match actual balance');\n        (bool sent, bytes memory data) = payable(userAddress).call{value: ab.amount}('');\n        require(sent, string(data));\n      } else if (asset.assetType == AssetType.ERC20) {\n        IERC20 token = IERC20(asset.assetAddress);\n        uint256 amount = token.balanceOf(address(this));\n        require(ab.amount == amount, 'computed token balance does not match actual balance');\n        SafeERC20.safeTransfer(token, userAddress, amount);\n      } else {\n        revert('unknown asset type in assetBalances');\n      }\n    }\n  }\n\n  function invokeStep(\n    address actionAddress,\n    AssetAmount[] memory inputAssetAmounts,\n    Asset[] memory outputAssets,\n    bytes memory data\n  ) internal returns (WorkflowStepResult memory) {\n    (bool success, bytes memory returnData) = actionAddress.delegatecall(\n      abi.encodeWithSelector(IWorkflowStep.execute.selector, inputAssetAmounts, outputAssets, data)\n    );\n    require(success, string(returnData));\n    return abi.decode(returnData, (WorkflowStepResult));\n  }\n\n  function resolveActionAddress(WorkflowStep memory currentStep) internal view returns (address) {\n    // non-zero actionAddress means override/ignore the actionId\n    // TODO do we want a white list of addresses for a given actionId?\n    if (currentStep.actionAddress == address(0)) {\n      return getActionAddressInternal(currentStep.actionId);\n    }\n    return currentStep.actionAddress;\n  }\n\n  function resolveAmounts(LibAssetBalances.AssetBalances memory assetBalances, WorkflowStepInputAsset[] memory inputAssets)\n    internal\n    pure\n    returns (AssetAmount[] memory)\n  {\n    AssetAmount[] memory rv = new AssetAmount[](inputAssets.length);\n    for (uint256 i = 0; i < inputAssets.length; ++i) {\n      WorkflowStepInputAsset memory stepInputAsset = inputAssets[i];\n      rv[i].asset = stepInputAsset.asset;\n      uint256 currentWorkflowAssetBalance = assetBalances.getAssetBalance(stepInputAsset.asset);\n      if (stepInputAsset.amountIsPercent) {\n        require(0 < stepInputAsset.amount && stepInputAsset.amount <= 100_000, 'percent must be between 1 and 100_000');\n        rv[i].amount = (uint256(currentWorkflowAssetBalance) * stepInputAsset.amount) / 100_000;\n      } else {\n        require(currentWorkflowAssetBalance <= stepInputAsset.amount, 'absolute amount exceeds workflow asset balance');\n        rv[i].amount = stepInputAsset.amount;\n      }\n    }\n    return rv;\n  }\n\n  event WorkflowContinuation(uint256 nonce, address userAddress, AssetAmount startingAsset);\n\n  function continueWorkflow(\n    address userAddress,\n    uint256 nonce,\n    Workflow memory workflow,\n    AssetAmount memory startingAsset\n  ) external {\n    emit WorkflowContinuation(nonce, userAddress, startingAsset);\n    // executeWorkflow(userAddress, workflow, startingAsset);\n  }\n}\n",
  "sourcePath": "/home/asdf/fmp3/platform/evm/contracts/WorkflowRunner.sol",
  "compiler": {
    "name": "solc",
    "version": "0.8.13+commit.abaa5c0e.Emscripten.clang"
  },
  "schemaVersion": "3.4.11",
  "updatedAt": "2023-02-05T18:33:19.015Z",
  "devdoc": {
    "kind": "dev",
    "methods": {
      "getActionAddress(uint16)": {
        "details": "Retrieve the address associated with an actionId"
      },
      "getActionCount()": {
        "details": "getActionCount getActionInfoAt together allow enumeration of all actions"
      },
      "setActionAddress(uint16,address)": {
        "details": "Associate a new address with an actionId"
      }
    },
    "version": 1
  },
  "userdoc": {
    "kind": "user",
    "methods": {},
    "version": 1
  }
}