{
  "contractName": "WrapEther",
  "abi": [
    {
      "inputs": [
        {
          "internalType": "address",
          "name": "wrappedEtherContractAddress",
          "type": "address"
        }
      ],
      "stateMutability": "nonpayable",
      "type": "constructor"
    },
    {
      "anonymous": false,
      "inputs": [
        {
          "indexed": false,
          "internalType": "address",
          "name": "thisAddr",
          "type": "address"
        },
        {
          "indexed": false,
          "internalType": "uint256",
          "name": "amount",
          "type": "uint256"
        }
      ],
      "name": "EtherWrapped",
      "type": "event"
    },
    {
      "inputs": [],
      "name": "wethContractAddress",
      "outputs": [
        {
          "internalType": "address",
          "name": "",
          "type": "address"
        }
      ],
      "stateMutability": "view",
      "type": "function"
    },
    {
      "inputs": [
        {
          "components": [
            {
              "components": [
                {
                  "internalType": "enum AssetType",
                  "name": "assetType",
                  "type": "uint8"
                },
                {
                  "internalType": "address",
                  "name": "assetAddress",
                  "type": "address"
                }
              ],
              "internalType": "struct Asset",
              "name": "asset",
              "type": "tuple"
            },
            {
              "internalType": "uint256",
              "name": "amount",
              "type": "uint256"
            }
          ],
          "internalType": "struct AssetAmount[]",
          "name": "inputAssetAmounts",
          "type": "tuple[]"
        },
        {
          "components": [
            {
              "internalType": "enum AssetType",
              "name": "assetType",
              "type": "uint8"
            },
            {
              "internalType": "address",
              "name": "assetAddress",
              "type": "address"
            }
          ],
          "internalType": "struct Asset[]",
          "name": "",
          "type": "tuple[]"
        },
        {
          "internalType": "bytes",
          "name": "",
          "type": "bytes"
        }
      ],
      "name": "execute",
      "outputs": [
        {
          "components": [
            {
              "components": [
                {
                  "components": [
                    {
                      "internalType": "enum AssetType",
                      "name": "assetType",
                      "type": "uint8"
                    },
                    {
                      "internalType": "address",
                      "name": "assetAddress",
                      "type": "address"
                    }
                  ],
                  "internalType": "struct Asset",
                  "name": "asset",
                  "type": "tuple"
                },
                {
                  "internalType": "uint256",
                  "name": "amount",
                  "type": "uint256"
                }
              ],
              "internalType": "struct AssetAmount[]",
              "name": "outputAssetAmounts",
              "type": "tuple[]"
            },
            {
              "internalType": "int16",
              "name": "nextStepIndex",
              "type": "int16"
            }
          ],
          "internalType": "struct WorkflowStepResult",
          "name": "",
          "type": "tuple"
        }
      ],
      "stateMutability": "payable",
      "type": "function"
    }
  ],
  "bytecode": "0x60a060405234801561001057600080fd5b506040516109d53803806109d5833981810160405281019061003291906100cf565b8073ffffffffffffffffffffffffffffffffffffffff1660808173ffffffffffffffffffffffffffffffffffffffff1681525050506100fc565b600080fd5b600073ffffffffffffffffffffffffffffffffffffffff82169050919050565b600061009c82610071565b9050919050565b6100ac81610091565b81146100b757600080fd5b50565b6000815190506100c9816100a3565b92915050565b6000602082840312156100e5576100e461006c565b5b60006100f3848285016100ba565b91505092915050565b6080516108b0610125600039600081816101000152818161018701526101bc01526108b06000f3fe6080604052600436106100295760003560e01c80632b5350131461002e57806360b4eb981461005e575b600080fd5b610048600480360381019061004391906104ad565b610089565b6040516100559190610798565b60405180910390f35b34801561006a57600080fd5b506100736101ba565b60405161008091906107c9565b60405180910390f35b610091610313565b600187879050146100a157600080fd5b6000878760008181106100b7576100b66107e4565b5b9050606002016040013590507fcd07a3ed5c8ab1d424293e4f20ef1d1974fa18c5bad203551e9d123aaa10e35d30826040516100f4929190610822565b60405180910390a160007f000000000000000000000000000000000000000000000000000000000000000090508073ffffffffffffffffffffffffffffffffffffffff1663d0e30db0836040518263ffffffff1660e01b81526004016000604051808303818588803b15801561016957600080fd5b505af115801561017d573d6000803e3d6000fd5b50505050506101ac7f0000000000000000000000000000000000000000000000000000000000000000836101de565b925050509695505050505050565b7f000000000000000000000000000000000000000000000000000000000000000081565b6101e6610313565b6101f2600184846101fa565b905092915050565b610202610313565b600060405180604001604052808660028111156102225761022161058d565b5b81526020018573ffffffffffffffffffffffffffffffffffffffff1681525090506000600167ffffffffffffffff8111156102605761025f61084b565b5b60405190808252806020026020018201604052801561029957816020015b610286610330565b81526020019060019003908161027e5790505b509050604051806040016040528083815260200185815250816000815181106102c5576102c46107e4565b5b602002602001018190525060405180604001604052808281526020017fffffffffffffffffffffffffffffffffffffffffffffffffffffffffffffffff60010b815250925050509392505050565b604051806040016040528060608152602001600060010b81525090565b6040518060400160405280610343610350565b8152602001600081525090565b60405180604001604052806000600281111561036f5761036e61058d565b5b8152602001600073ffffffffffffffffffffffffffffffffffffffff1681525090565b600080fd5b600080fd5b600080fd5b600080fd5b600080fd5b60008083601f8401126103c1576103c061039c565b5b8235905067ffffffffffffffff8111156103de576103dd6103a1565b5b6020830191508360608202830111156103fa576103f96103a6565b5b9250929050565b60008083601f8401126104175761041661039c565b5b8235905067ffffffffffffffff811115610434576104336103a1565b5b6020830191508360408202830111156104505761044f6103a6565b5b9250929050565b60008083601f84011261046d5761046c61039c565b5b8235905067ffffffffffffffff81111561048a576104896103a1565b5b6020830191508360018202830111156104a6576104a56103a6565b5b9250929050565b600080600080600080606087890312156104ca576104c9610392565b5b600087013567ffffffffffffffff8111156104e8576104e7610397565b5b6104f489828a016103ab565b9650965050602087013567ffffffffffffffff81111561051757610516610397565b5b61052389828a01610401565b9450945050604087013567ffffffffffffffff81111561054657610545610397565b5b61055289828a01610457565b92509250509295509295509295565b600081519050919050565b600082825260208201905092915050565b6000819050602082019050919050565b7f4e487b7100000000000000000000000000000000000000000000000000000000600052602160045260246000fd5b600381106105cd576105cc61058d565b5b50565b60008190506105de826105bc565b919050565b60006105ee826105d0565b9050919050565b6105fe816105e3565b82525050565b600073ffffffffffffffffffffffffffffffffffffffff82169050919050565b600061062f82610604565b9050919050565b61063f81610624565b82525050565b60408201600082015161065b60008501826105f5565b50602082015161066e6020850182610636565b50505050565b6000819050919050565b61068781610674565b82525050565b6060820160008201516106a36000850182610645565b5060208201516106b6604085018261067e565b50505050565b60006106c8838361068d565b60608301905092915050565b6000602082019050919050565b60006106ec82610561565b6106f6818561056c565b93506107018361057d565b8060005b8381101561073257815161071988826106bc565b9750610724836106d4565b925050600181019050610705565b5085935050505092915050565b60008160010b9050919050565b6107558161073f565b82525050565b6000604083016000830151848203600086015261077882826106e1565b915050602083015161078d602086018261074c565b508091505092915050565b600060208201905081810360008301526107b2818461075b565b905092915050565b6107c381610624565b82525050565b60006020820190506107de60008301846107ba565b92915050565b7f4e487b7100000000000000000000000000000000000000000000000000000000600052603260045260246000fd5b61081c81610674565b82525050565b600060408201905061083760008301856107ba565b6108446020830184610813565b9392505050565b7f4e487b7100000000000000000000000000000000000000000000000000000000600052604160045260246000fdfea26469706673582212201fffb96a2d1c8e92aad8f672c702b8da3718d6dfd653eec7e6d48e5d1df6365964736f6c634300080d0033",
  "immutableReferences": {
    "9821": [
      {
        "length": 32,
        "start": 256
      },
      {
        "length": 32,
        "start": 391
      },
      {
        "length": 32,
        "start": 444
      }
    ]
  },
  "source": "// SPDX-License-Identifier: MIT\npragma solidity ^0.8.13;\nimport '../../IWorkflowStep.sol';\nimport '../../LibAsset.sol';\nimport '../../LibActionHelpers.sol';\nimport '../../model/Asset.sol';\nimport '../../model/AssetAmount.sol';\nimport './Weth.sol';\n\ncontract WrapEther is IWorkflowStep {\n  address public immutable wethContractAddress;\n  event EtherWrapped(address thisAddr, uint256 amount);\n\n  constructor(address wrappedEtherContractAddress) {\n    wethContractAddress = wrappedEtherContractAddress;\n  }\n\n  function execute(\n    AssetAmount[] calldata inputAssetAmounts,\n    Asset[] calldata,\n    bytes calldata\n  ) external payable returns (WorkflowStepResult memory) {\n    require(inputAssetAmounts.length == 1);\n    uint256 amount = inputAssetAmounts[0].amount;\n    emit EtherWrapped(address(this), amount);\n    Weth weth = Weth(wethContractAddress);\n    weth.deposit{value: amount}();\n    return LibActionHelpers.singleTokenResult(wethContractAddress, amount);\n  }\n}\n",
  "sourcePath": "/home/asdf/fmp3/platform/evm/contracts/actions/wrappedEther/WrapEther.sol",
  "compiler": {
    "name": "solc",
    "version": "0.8.13+commit.abaa5c0e.Emscripten.clang"
  },
  "schemaVersion": "3.4.11",
  "updatedAt": "2023-02-05T18:33:19.057Z",
  "devdoc": {
    "kind": "dev",
    "methods": {},
    "version": 1
  },
  "userdoc": {
    "kind": "user",
    "methods": {},
    "version": 1
  }
}