{
  "address": "0x0724F18B2aA7D6413D3fDcF6c0c27458a8170Dd9",
  "abi": [
    {
      "inputs": [
        {
          "internalType": "address",
          "name": "_routerAddress",
          "type": "address"
        }
      ],
      "stateMutability": "nonpayable",
      "type": "constructor"
    },
    {
      "anonymous": false,
      "inputs": [
        {
          "indexed": false,
          "internalType": "address",
          "name": "from",
          "type": "address"
        },
        {
          "indexed": false,
          "internalType": "address",
          "name": "to",
          "type": "address"
        },
        {
          "indexed": false,
          "internalType": "uint256",
          "name": "amount",
          "type": "uint256"
        },
        {
          "indexed": false,
          "internalType": "bool",
          "name": "useNative",
          "type": "bool"
        }
      ],
      "name": "UniswapExactInActionEvent",
      "type": "event"
    },
    {
      "inputs": [
        {
          "components": [
            {
              "components": [
                {
                  "internalType": "enum AssetType",
                  "name": "assetType",
                  "type": "uint8"
                },
                {
                  "internalType": "address",
                  "name": "assetAddress",
                  "type": "address"
                }
              ],
              "internalType": "struct Asset",
              "name": "asset",
              "type": "tuple"
            },
            {
              "internalType": "uint256",
              "name": "amount",
              "type": "uint256"
            }
          ],
          "internalType": "struct AssetAmount[]",
          "name": "inputAssetAmounts",
          "type": "tuple[]"
        },
        {
          "internalType": "bytes",
          "name": "argData",
          "type": "bytes"
        }
      ],
      "name": "execute",
      "outputs": [
        {
          "components": [
            {
              "components": [
                {
                  "components": [
                    {
                      "internalType": "enum AssetType",
                      "name": "assetType",
                      "type": "uint8"
                    },
                    {
                      "internalType": "address",
                      "name": "assetAddress",
                      "type": "address"
                    }
                  ],
                  "internalType": "struct Asset",
                  "name": "asset",
                  "type": "tuple"
                },
                {
                  "internalType": "uint256",
                  "name": "amount",
                  "type": "uint256"
                }
              ],
              "internalType": "struct AssetAmount[]",
              "name": "inputAssetAmounts",
              "type": "tuple[]"
            },
            {
              "components": [
                {
                  "components": [
                    {
                      "internalType": "enum AssetType",
                      "name": "assetType",
                      "type": "uint8"
                    },
                    {
                      "internalType": "address",
                      "name": "assetAddress",
                      "type": "address"
                    }
                  ],
                  "internalType": "struct Asset",
                  "name": "asset",
                  "type": "tuple"
                },
                {
                  "internalType": "uint256",
                  "name": "amount",
                  "type": "uint256"
                }
              ],
              "internalType": "struct AssetAmount[]",
              "name": "outputAssetAmounts",
              "type": "tuple[]"
            },
            {
              "internalType": "int16",
              "name": "nextStepIndex",
              "type": "int16"
            },
            {
              "internalType": "int24",
              "name": "fee",
              "type": "int24"
            }
          ],
          "internalType": "struct WorkflowStepResult",
          "name": "",
          "type": "tuple"
        }
      ],
      "stateMutability": "payable",
      "type": "function"
    },
    {
      "inputs": [],
      "name": "routerAddress",
      "outputs": [
        {
          "internalType": "address",
          "name": "",
          "type": "address"
        }
      ],
      "stateMutability": "view",
      "type": "function"
    }
  ],
  "transactionHash": "0xd464c65caa1e11cf0d08a1d52aadef7ba4ba24fe0b5771fdc2c04eed0a8cdb90",
  "args": [
    "0x68b3465833fb72A70ecDF485E0e4C7bD8665Fc45"
  ],
  "numDeployments": 1,
  "solcInputHash": "8c163677796a740cdf251f2ecaf4703b",
  "bytecode": "0x60a06040523480156200001157600080fd5b506040516200230b3803806200230b8339818101604052810190620000379190620000dc565b8073ffffffffffffffffffffffffffffffffffffffff1660808173ffffffffffffffffffffffffffffffffffffffff1681525050506200010e565b600080fd5b600073ffffffffffffffffffffffffffffffffffffffff82169050919050565b6000620000a48262000077565b9050919050565b620000b68162000097565b8114620000c257600080fd5b50565b600081519050620000d681620000ab565b92915050565b600060208284031215620000f557620000f462000072565b5b60006200010584828501620000c5565b91505092915050565b6080516121d46200013760003960008181608b01528181610133015261036d01526121d46000f3fe6080604052600436106100295760003560e01c80633268cc561461002e5780637bb26ca714610059575b600080fd5b34801561003a57600080fd5b50610043610089565b6040516100509190611303565b60405180910390f35b610073600480360381019061006e91906113ed565b6100ad565b60405161008091906116bc565b60405180910390f35b7f000000000000000000000000000000000000000000000000000000000000000081565b6100b561120b565b600185859050146100fb576040517f08c379a00000000000000000000000000000000000000000000000000000000081526004016100f290611761565b60405180910390fd5b60008585600081811061011157610110611781565b5b905060600201600001602001602081019061012c91906117dc565b90506101967f00000000000000000000000000000000000000000000000000000000000000008787600081811061016657610165611781565b5b905060600201604001358373ffffffffffffffffffffffffffffffffffffffff1661052e9092919063ffffffff16565b600084848101906101a79190611bcc565b90506000816000015160200151905060008173ffffffffffffffffffffffffffffffffffffffff166370a08231306040518263ffffffff1660e01b81526004016101f19190611303565b602060405180830381865afa15801561020e573d6000803e3d6000fd5b505050506040513d601f19601f820116820180604052508101906102329190611c41565b905060008989600081811061024a57610249611781565b5b905060600201604001359050600061027e8b8b600081811061026f5761026e611781565b5b905060600201604001356105b4565b905060005b85602001515181101561042d576000866020015182815181106102a9576102a8611781565b5b6020026020010151905060006102c28260200151610631565b9050600060018960200151516102d89190611c9d565b8410156103275761032061030886846fffffffffffffffffffffffffffffffff19166106de90919063ffffffff16565b6fffffffffffffffffffffffffffffffff1916610b69565b905061032b565b8590505b60006040518060800160405280856000015181526020013073ffffffffffffffffffffffffffffffffffffffff168152602001838152602001600081525090507f000000000000000000000000000000000000000000000000000000000000000073ffffffffffffffffffffffffffffffffffffffff1663b858183f826040518263ffffffff1660e01b81526004016103c49190611dbc565b6020604051808303816000875af11580156103e3573d6000803e3d6000fd5b505050506040513d601f19601f820116820180604052508101906104079190611c41565b5081876104149190611c9d565b965050505050808061042590611dde565b915050610283565b5060008473ffffffffffffffffffffffffffffffffffffffff166370a08231306040518263ffffffff1660e01b81526004016104699190611303565b602060405180830381865afa158015610486573d6000803e3d6000fd5b505050506040513d601f19601f820116820180604052508101906104aa9190611c41565b905061051986600001516020015185836104c49190611c9d565b61050a8f8f60008181106104db576104da611781565b5b9050606002018036038101906104f19190611e8b565b6104fc600180610c67565b610dac90919063ffffffff16565b610df89092919063ffffffff16565b60400151975050505050505050949350505050565b6105af8363095ea7b360e01b848460405160240161054d929190611ec7565b604051602081830303815290604052907bffffffffffffffffffffffffffffffffffffffffffffffffffffffff19166020820180517bffffffffffffffffffffffffffffffffffffffffffffffffffffffff8381831617835250505050610e96565b505050565b60008082036105c957600060801b905061062c565b600082905060006105d982610f5d565b905060708110156105f2578060700382901b9150610606565b6070811115610605576070810382901c91505b5b607081613fff01901b6dffffffffffffffffffffffffffff83161791508160801b925050505b919050565b600080820361064657600060801b90506106d9565b6000808313610658578260000361065a565b825b9050600061066782610f5d565b90506070811015610680578060700382901b9150610694565b6070811115610693576070810382901c91505b5b607081613f7f01901b6dffffffffffffffffffffffffffff831617915060008412156106d0576f80000000000000000000000000000000821791505b8160801b925050505b919050565b600080617fff60708560801c6fffffffffffffffffffffffffffffffff16901c166fffffffffffffffffffffffffffffffff1690506000617fff60708560801c6fffffffffffffffffffffffffffffffff16901c166fffffffffffffffffffffffffffffffff169050617fff820361087057617fff81036107ff57836fffffffffffffffffffffffffffffffff1916856fffffffffffffffffffffffffffffffff1916036107a7576f8000000000000000000000000000000060801b8416851892505050610b63565b6f8000000000000000000000000000000060801b8486186fffffffffffffffffffffffffffffffff1916036107e25783851792505050610b63565b6f7fff800000000000000000000000000060801b92505050610b63565b600060801b6f7fffffffffffffffffffffffffffffff60801b85166fffffffffffffffffffffffffffffffff19160361084f576f7fff800000000000000000000000000060801b92505050610b63565b6f8000000000000000000000000000000060801b8416851892505050610b63565b617fff81036108ea57600060801b6f7fffffffffffffffffffffffffffffff60801b86166fffffffffffffffffffffffffffffffff1916036108c9576f7fff800000000000000000000000000060801b92505050610b63565b6f8000000000000000000000000000000060801b8516841892505050610b63565b60006dffffffffffffffffffffffffffff8660801c166fffffffffffffffffffffffffffffffff16905060008303610925576001925061093a565b6e010000000000000000000000000000811790505b60006dffffffffffffffffffffffffffff8660801c166fffffffffffffffffffffffffffffffff16905060008303610975576001925061098a565b6e010000000000000000000000000000811790505b8082029150600082036109f657600060801b6f8000000000000000000000000000000060801b878918166fffffffffffffffffffffffffffffffff1916116109d657600060801b6109eb565b6f8000000000000000000000000000000060801b5b945050505050610b63565b828401935060007c0200000000000000000000000000000000000000000000000000000000831015610a5d577c0100000000000000000000000000000000000000000000000000000000831015610a5557610a5083610f5d565b610a58565b60e05b610a60565b60e15b90506140708186011015610a7b576000945060009250610b23565b6140e08186011015610abf57614070851015610aa057846140700383901c9250610ab6565b614070851115610ab557614070850383901b92505b5b60009450610b22565b61c0dd8186011115610ad957617fff945060009250610b21565b6070811115610af0576070810383901c9250610b04565b6070811015610b03578060700383901b92505b5b6dffffffffffffffffffffffffffff831692506140df8186010394505b5b5b82607086901b6f8000000000000000000000000000000060801b898b181660801c6fffffffffffffffffffffffffffffffff16171760801b955050505050505b92915050565b600080617fff60708460801c6fffffffffffffffffffffffffffffffff16901c166fffffffffffffffffffffffffffffffff169050613fff811015610bb2576000915050610c62565b6f800000000000000000000000000000008360801c6fffffffffffffffffffffffffffffffff1610610be357600080fd5b6140fe811115610bf257600080fd5b60006e0100000000000000000000000000006dffffffffffffffffffffffffffff8560801c6fffffffffffffffffffffffffffffffff161617905061406f821015610c46578161406f0381901c9050610c5c565b61406f821115610c5b5761406f820381901b90505b5b80925050505b919050565b610c6f611239565b60008367ffffffffffffffff811115610c8b57610c8a61181f565b5b604051908082528060200260200182016040528015610cc457816020015b610cb1611260565b815260200190600190039081610ca95790505b50905060008367ffffffffffffffff811115610ce357610ce261181f565b5b604051908082528060200260200182016040528015610d1c57816020015b610d09611260565b815260200190600190039081610d015790505b5090506040518060600160405280600081526020016000815260200160405180608001604052808581526020018481526020017ffffffffffffffffffffffffffffffffffffffffffffffffffffffffffffffffe60010b81526020017fffffffffffffffffffffffffffffffffffffffffffffffffffffffffffffffff60020b8152508152509250505092915050565b610db4611239565b81836040015160000151846000018051809190610dd090611dde565b81525081518110610de457610de3611781565b5b602002602001018190525082905092915050565b610e00611239565b6040518060400160405280604051806040016040528060016002811115610e2a57610e2961149a565b5b81526020018673ffffffffffffffffffffffffffffffffffffffff16815250815260200183815250846040015160200151856020018051809190610e6d90611dde565b81525081518110610e8157610e80611781565b5b60200260200101819052508390509392505050565b6000610ef8826040518060400160405280602081526020017f5361666545524332303a206c6f772d6c6576656c2063616c6c206661696c65648152508573ffffffffffffffffffffffffffffffffffffffff1661103e9092919063ffffffff16565b9050600081511115610f585780806020019051810190610f189190611f28565b610f57576040517f08c379a0000000000000000000000000000000000000000000000000000000008152600401610f4e90611fc7565b60405180910390fd5b5b505050565b6000808211610f6b57600080fd5b60007001000000000000000000000000000000008310610f9357608083901c92506080810190505b680100000000000000008310610fb157604083901c92506040810190505b6401000000008310610fcb57602083901c92506020810190505b620100008310610fe357601083901c92506010810190505b6101008310610ffa57600883901c92506008810190505b6010831061101057600483901c92506004810190505b6004831061102657600283901c92506002810190505b60028310611035576001810190505b80915050919050565b606061104d8484600085611056565b90509392505050565b60608247101561109b576040517f08c379a000000000000000000000000000000000000000000000000000000000815260040161109290612059565b60405180910390fd5b6000808673ffffffffffffffffffffffffffffffffffffffff1685876040516110c491906120b5565b60006040518083038185875af1925050503d8060008114611101576040519150601f19603f3d011682016040523d82523d6000602084013e611106565b606091505b509150915061111787838387611123565b92505050949350505050565b6060831561118557600083510361117d5761113d85611198565b61117c576040517f08c379a000000000000000000000000000000000000000000000000000000000815260040161117390612118565b60405180910390fd5b5b829050611190565b61118f83836111bb565b5b949350505050565b6000808273ffffffffffffffffffffffffffffffffffffffff163b119050919050565b6000825111156111ce5781518083602001fd5b806040517f08c379a0000000000000000000000000000000000000000000000000000000008152600401611202919061217c565b60405180910390fd5b60405180608001604052806060815260200160608152602001600060010b8152602001600060020b81525090565b6040518060600160405280600081526020016000815260200161125a61120b565b81525090565b6040518060400160405280611273611280565b8152602001600081525090565b60405180604001604052806000600281111561129f5761129e61149a565b5b8152602001600073ffffffffffffffffffffffffffffffffffffffff1681525090565b600073ffffffffffffffffffffffffffffffffffffffff82169050919050565b60006112ed826112c2565b9050919050565b6112fd816112e2565b82525050565b600060208201905061131860008301846112f4565b92915050565b6000604051905090565b600080fd5b600080fd5b600080fd5b600080fd5b600080fd5b60008083601f84011261135757611356611332565b5b8235905067ffffffffffffffff81111561137457611373611337565b5b6020830191508360608202830111156113905761138f61133c565b5b9250929050565b60008083601f8401126113ad576113ac611332565b5b8235905067ffffffffffffffff8111156113ca576113c9611337565b5b6020830191508360018202830111156113e6576113e561133c565b5b9250929050565b6000806000806040858703121561140757611406611328565b5b600085013567ffffffffffffffff8111156114255761142461132d565b5b61143187828801611341565b9450945050602085013567ffffffffffffffff8111156114545761145361132d565b5b61146087828801611397565b925092505092959194509250565b600081519050919050565b600082825260208201905092915050565b6000819050602082019050919050565b7f4e487b7100000000000000000000000000000000000000000000000000000000600052602160045260246000fd5b600381106114da576114d961149a565b5b50565b60008190506114eb826114c9565b919050565b60006114fb826114dd565b9050919050565b61150b816114f0565b82525050565b61151a816112e2565b82525050565b6040820160008201516115366000850182611502565b5060208201516115496020850182611511565b50505050565b6000819050919050565b6115628161154f565b82525050565b60608201600082015161157e6000850182611520565b5060208201516115916040850182611559565b50505050565b60006115a38383611568565b60608301905092915050565b6000602082019050919050565b60006115c78261146e565b6115d18185611479565b93506115dc8361148a565b8060005b8381101561160d5781516115f48882611597565b97506115ff836115af565b9250506001810190506115e0565b5085935050505092915050565b60008160010b9050919050565b6116308161161a565b82525050565b60008160020b9050919050565b61164c81611636565b82525050565b6000608083016000830151848203600086015261166f82826115bc565b9150506020830151848203602086015261168982826115bc565b915050604083015161169e6040860182611627565b5060608301516116b16060860182611643565b508091505092915050565b600060208201905081810360008301526116d68184611652565b905092915050565b600082825260208201905092915050565b7f7468657265206d7573742062652065786163746c79203120696e70757420617360008201527f7365740000000000000000000000000000000000000000000000000000000000602082015250565b600061174b6023836116de565b9150611756826116ef565b604082019050919050565b6000602082019050818103600083015261177a8161173e565b9050919050565b7f4e487b7100000000000000000000000000000000000000000000000000000000600052603260045260246000fd5b6117b9816112e2565b81146117c457600080fd5b50565b6000813590506117d6816117b0565b92915050565b6000602082840312156117f2576117f1611328565b5b6000611800848285016117c7565b91505092915050565b600080fd5b6000601f19601f8301169050919050565b7f4e487b7100000000000000000000000000000000000000000000000000000000600052604160045260246000fd5b6118578261180e565b810181811067ffffffffffffffff821117156118765761187561181f565b5b80604052505050565b600061188961131e565b9050611895828261184e565b919050565b600080fd5b600381106118ac57600080fd5b50565b6000813590506118be8161189f565b92915050565b6000604082840312156118da576118d9611809565b5b6118e4604061187f565b905060006118f4848285016118af565b6000830152506020611908848285016117c7565b60208301525092915050565b600067ffffffffffffffff82111561192f5761192e61181f565b5b602082029050602081019050919050565b600080fd5b600067ffffffffffffffff8211156119605761195f61181f565b5b6119698261180e565b9050602081019050919050565b82818337600083830152505050565b600061199861199384611945565b61187f565b9050828152602081018484840111156119b4576119b3611940565b5b6119bf848285611976565b509392505050565b600082601f8301126119dc576119db611332565b5b81356119ec848260208601611985565b91505092915050565b6000819050919050565b611a08816119f5565b8114611a1357600080fd5b50565b600081359050611a25816119ff565b92915050565b600060408284031215611a4157611a40611809565b5b611a4b604061187f565b9050600082013567ffffffffffffffff811115611a6b57611a6a61189a565b5b611a77848285016119c7565b6000830152506020611a8b84828501611a16565b60208301525092915050565b6000611aaa611aa584611914565b61187f565b90508083825260208201905060208402830185811115611acd57611acc61133c565b5b835b81811015611b1457803567ffffffffffffffff811115611af257611af1611332565b5b808601611aff8982611a2b565b85526020850194505050602081019050611acf565b5050509392505050565b600082601f830112611b3357611b32611332565b5b8135611b43848260208601611a97565b91505092915050565b600060808284031215611b6257611b61611809565b5b611b6c606061187f565b90506000611b7c848285016118c4565b600083015250604082013567ffffffffffffffff811115611ba057611b9f61189a565b5b611bac84828501611b1e565b6020830152506060611bc084828501611a16565b60408301525092915050565b600060208284031215611be257611be1611328565b5b600082013567ffffffffffffffff811115611c0057611bff61132d565b5b611c0c84828501611b4c565b91505092915050565b611c1e8161154f565b8114611c2957600080fd5b50565b600081519050611c3b81611c15565b92915050565b600060208284031215611c5757611c56611328565b5b6000611c6584828501611c2c565b91505092915050565b7f4e487b7100000000000000000000000000000000000000000000000000000000600052601160045260246000fd5b6000611ca88261154f565b9150611cb38361154f565b925082821015611cc657611cc5611c6e565b5b828203905092915050565b600081519050919050565b600082825260208201905092915050565b60005b83811015611d0b578082015181840152602081019050611cf0565b83811115611d1a576000848401525b50505050565b6000611d2b82611cd1565b611d358185611cdc565b9350611d45818560208601611ced565b611d4e8161180e565b840191505092915050565b60006080830160008301518482036000860152611d768282611d20565b9150506020830151611d8b6020860182611511565b506040830151611d9e6040860182611559565b506060830151611db16060860182611559565b508091505092915050565b60006020820190508181036000830152611dd68184611d59565b905092915050565b6000611de98261154f565b91507fffffffffffffffffffffffffffffffffffffffffffffffffffffffffffffffff8203611e1b57611e1a611c6e565b5b600182019050919050565b600081359050611e3581611c15565b92915050565b600060608284031215611e5157611e50611809565b5b611e5b604061187f565b90506000611e6b848285016118c4565b6000830152506040611e7f84828501611e26565b60208301525092915050565b600060608284031215611ea157611ea0611328565b5b6000611eaf84828501611e3b565b91505092915050565b611ec18161154f565b82525050565b6000604082019050611edc60008301856112f4565b611ee96020830184611eb8565b9392505050565b60008115159050919050565b611f0581611ef0565b8114611f1057600080fd5b50565b600081519050611f2281611efc565b92915050565b600060208284031215611f3e57611f3d611328565b5b6000611f4c84828501611f13565b91505092915050565b7f5361666545524332303a204552433230206f7065726174696f6e20646964206e60008201527f6f74207375636365656400000000000000000000000000000000000000000000602082015250565b6000611fb1602a836116de565b9150611fbc82611f55565b604082019050919050565b60006020820190508181036000830152611fe081611fa4565b9050919050565b7f416464726573733a20696e73756666696369656e742062616c616e636520666f60008201527f722063616c6c0000000000000000000000000000000000000000000000000000602082015250565b60006120436026836116de565b915061204e82611fe7565b604082019050919050565b6000602082019050818103600083015261207281612036565b9050919050565b600081905092915050565b600061208f82611cd1565b6120998185612079565b93506120a9818560208601611ced565b80840191505092915050565b60006120c18284612084565b915081905092915050565b7f416464726573733a2063616c6c20746f206e6f6e2d636f6e7472616374000000600082015250565b6000612102601d836116de565b915061210d826120cc565b602082019050919050565b60006020820190508181036000830152612131816120f5565b9050919050565b600081519050919050565b600061214e82612138565b61215881856116de565b9350612168818560208601611ced565b6121718161180e565b840191505092915050565b600060208201905081810360008301526121968184612143565b90509291505056fea264697066735822122075ec023c7bb75d79d7bdf671578e32139c7849fb6f80f517f8743ebc35027d9064736f6c634300080d0033",
  "devdoc": {
    "kind": "dev",
    "methods": {},
    "version": 1
  },
  "userdoc": {
    "kind": "user",
    "methods": {},
    "version": 1
  },
  "storageLayout": {
    "storage": [],
    "types": null
  }
}