{
  "address": "0x5a739c392778691Bf1a88a978AA1F8e6285b75A5",
  "abi": [
    {
      "inputs": [
        {
          "internalType": "address",
          "name": "_aavePoolAddress",
          "type": "address"
        },
        {
          "internalType": "address",
          "name": "_wethAddress",
          "type": "address"
        }
      ],
      "stateMutability": "nonpayable",
      "type": "constructor"
    },
    {
      "anonymous": false,
      "inputs": [
        {
          "components": [
            {
              "components": [
                {
                  "internalType": "enum AssetType",
                  "name": "assetType",
                  "type": "uint8"
                },
                {
                  "internalType": "address",
                  "name": "assetAddress",
                  "type": "address"
                }
              ],
              "internalType": "struct Asset",
              "name": "asset",
              "type": "tuple"
            },
            {
              "internalType": "uint256",
              "name": "amount",
              "type": "uint256"
            }
          ],
          "indexed": false,
          "internalType": "struct AssetAmount",
          "name": "inputAssetAmount",
          "type": "tuple"
        }
      ],
      "name": "AaveSupplyActionEvent",
      "type": "event"
    },
    {
      "inputs": [
        {
          "components": [
            {
              "components": [
                {
                  "internalType": "enum AssetType",
                  "name": "assetType",
                  "type": "uint8"
                },
                {
                  "internalType": "address",
                  "name": "assetAddress",
                  "type": "address"
                }
              ],
              "internalType": "struct Asset",
              "name": "asset",
              "type": "tuple"
            },
            {
              "internalType": "uint256",
              "name": "amount",
              "type": "uint256"
            }
          ],
          "internalType": "struct AssetAmount[]",
          "name": "assetAmounts",
          "type": "tuple[]"
        },
        {
          "internalType": "bytes",
          "name": "",
          "type": "bytes"
        },
        {
          "internalType": "address",
          "name": "userAddress",
          "type": "address"
        }
      ],
      "name": "execute",
      "outputs": [
        {
          "components": [
            {
              "components": [
                {
                  "components": [
                    {
                      "internalType": "enum AssetType",
                      "name": "assetType",
                      "type": "uint8"
                    },
                    {
                      "internalType": "address",
                      "name": "assetAddress",
                      "type": "address"
                    }
                  ],
                  "internalType": "struct Asset",
                  "name": "asset",
                  "type": "tuple"
                },
                {
                  "internalType": "uint256",
                  "name": "amount",
                  "type": "uint256"
                }
              ],
              "internalType": "struct AssetAmount[]",
              "name": "inputAssetAmounts",
              "type": "tuple[]"
            },
            {
              "components": [
                {
                  "components": [
                    {
                      "internalType": "enum AssetType",
                      "name": "assetType",
                      "type": "uint8"
                    },
                    {
                      "internalType": "address",
                      "name": "assetAddress",
                      "type": "address"
                    }
                  ],
                  "internalType": "struct Asset",
                  "name": "asset",
                  "type": "tuple"
                },
                {
                  "internalType": "uint256",
                  "name": "amount",
                  "type": "uint256"
                }
              ],
              "internalType": "struct AssetAmount[]",
              "name": "outputAssetAmounts",
              "type": "tuple[]"
            },
            {
              "components": [
                {
                  "components": [
                    {
                      "internalType": "enum AssetType",
                      "name": "assetType",
                      "type": "uint8"
                    },
                    {
                      "internalType": "address",
                      "name": "assetAddress",
                      "type": "address"
                    }
                  ],
                  "internalType": "struct Asset",
                  "name": "asset",
                  "type": "tuple"
                },
                {
                  "internalType": "uint256",
                  "name": "amount",
                  "type": "uint256"
                }
              ],
              "internalType": "struct AssetAmount[]",
              "name": "outputAssetAmountsToCaller",
              "type": "tuple[]"
            },
            {
              "internalType": "int16",
              "name": "nextStepIndex",
              "type": "int16"
            },
            {
              "internalType": "int24",
              "name": "fee",
              "type": "int24"
            }
          ],
          "internalType": "struct WorkflowStepResult",
          "name": "",
          "type": "tuple"
        }
      ],
      "stateMutability": "payable",
      "type": "function"
    },
    {
      "inputs": [],
      "name": "poolAddress",
      "outputs": [
        {
          "internalType": "address",
          "name": "",
          "type": "address"
        }
      ],
      "stateMutability": "view",
      "type": "function"
    },
    {
      "inputs": [],
      "name": "wethAddress",
      "outputs": [
        {
          "internalType": "address",
          "name": "",
          "type": "address"
        }
      ],
      "stateMutability": "view",
      "type": "function"
    }
  ],
  "transactionHash": "0x825e2a60bf3edb9c138ab0dd1a50d5df5f1cc49593563e751f9ce82d9693fb85",
  "args": [
    "0x794a61358D6845594F94dc1DB02A252b5b4814aD",
    "0x4200000000000000000000000000000000000006"
  ],
  "numDeployments": 3,
  "solcInputHash": "620875ff7dee368f090e397d342df7c4",
  "bytecode": "0x60c06040523480156200001157600080fd5b5060405162001f8438038062001f84833981810160405281019062000037919062000111565b8173ffffffffffffffffffffffffffffffffffffffff1660808173ffffffffffffffffffffffffffffffffffffffff16815250508073ffffffffffffffffffffffffffffffffffffffff1660a08173ffffffffffffffffffffffffffffffffffffffff1681525050505062000158565b600080fd5b600073ffffffffffffffffffffffffffffffffffffffff82169050919050565b6000620000d982620000ac565b9050919050565b620000eb81620000cc565b8114620000f757600080fd5b50565b6000815190506200010b81620000e0565b92915050565b600080604083850312156200012b576200012a620000a7565b5b60006200013b85828601620000fa565b92505060206200014e85828601620000fa565b9150509250929050565b60805160a051611df3620001916000396000818160e501526101dc01526000818160c10152818161027801526102e10152611df36000f3fe6080604052600436106100345760003560e01c80631755ff21146100395780634f0e0ef314610064578063e025f4021461008f575b600080fd5b34801561004557600080fd5b5061004e6100bf565b60405161005b9190610edf565b60405180910390f35b34801561007057600080fd5b506100796100e3565b6040516100869190610edf565b60405180910390f35b6100a960048036038101906100a49190610ff5565b610107565b6040516100b691906112f2565b60405180910390f35b7f000000000000000000000000000000000000000000000000000000000000000081565b7f000000000000000000000000000000000000000000000000000000000000000081565b61010f610bbc565b60018686905014610155576040517f08c379a000000000000000000000000000000000000000000000000000000000815260040161014c90611397565b60405180910390fd5b7f46fe748530bbf7d655d836d8ce67684c4e9122a23e9d988ca820b9d8e50958b98686600081811061018a576101896113b7565b5b90506060020160405161019d9190611505565b60405180910390a16101ad610bf1565b610200878760008181106101c4576101c36113b7565b5b9050606002018036038101906101da9190611651565b7f000000000000000000000000000000000000000000000000000000000000000061053b565b816020019073ffffffffffffffffffffffffffffffffffffffff16908173ffffffffffffffffffffffffffffffffffffffff16815250508060200151816000019073ffffffffffffffffffffffffffffffffffffffff16908173ffffffffffffffffffffffffffffffffffffffff16815250506102df7f0000000000000000000000000000000000000000000000000000000000000000888860008181106102ab576102aa6113b7565b5b90506060020160400135836000015173ffffffffffffffffffffffffffffffffffffffff1661065e9092919063ffffffff16565b7f0000000000000000000000000000000000000000000000000000000000000000816040019073ffffffffffffffffffffffffffffffffffffffff16908173ffffffffffffffffffffffffffffffffffffffff1681525050806040015173ffffffffffffffffffffffffffffffffffffffff166335ea6a7582602001516040518263ffffffff1660e01b81526004016103789190610edf565b6101e060405180830381865afa158015610396573d6000803e3d6000fd5b505050506040513d601f19601f820116820180604052508101906103ba9190611907565b8160c00181905250806040015173ffffffffffffffffffffffffffffffffffffffff1663617ba0378260200151898960008181106103fb576103fa6113b7565b5b905060600201604001358660006040518563ffffffff1660e01b81526004016104279493929190611989565b600060405180830381600087803b15801561044157600080fd5b505af1158015610455573d6000803e3d6000fd5b5050505061052b6040518060400160405280604051806040016040528060016002811115610486576104856110b6565b5b81526020018560c00151610100015173ffffffffffffffffffffffffffffffffffffffff168152508152602001898960008181106104c7576104c66113b7565b5b9050606002016040013581525061051d898960008181106104eb576104ea6113b7565b5b9050606002018036038101906105019190611651565b61050f6001600060016106e4565b61089090919063ffffffff16565b6108dc90919063ffffffff16565b6060015191505095945050505050565b60008060028111156105505761054f6110b6565b5b836000015160000151600281111561056b5761056a6110b6565b5b0361064c57600073ffffffffffffffffffffffffffffffffffffffff168273ffffffffffffffffffffffffffffffffffffffff16036105df576040517f08c379a00000000000000000000000000000000000000000000000000000000081526004016105d690611a1a565b60405180910390fd5b8173ffffffffffffffffffffffffffffffffffffffff1663d0e30db084602001516040518263ffffffff1660e01b81526004016000604051808303818588803b15801561062b57600080fd5b505af115801561063f573d6000803e3d6000fd5b5050505050819050610658565b82600001516020015190505b92915050565b6106df8363095ea7b360e01b848460405160240161067d929190611a3a565b604051602081830303815290604052907bffffffffffffffffffffffffffffffffffffffffffffffffffffffff19166020820180517bffffffffffffffffffffffffffffffffffffffffffffffffffffffff8381831617835250505050610928565b505050565b6106ec610c8c565b60008467ffffffffffffffff81111561070857610707611536565b5b60405190808252806020026020018201604052801561074157816020015b61072e610cba565b8152602001906001900390816107265790505b50905060008467ffffffffffffffff8111156107605761075f611536565b5b60405190808252806020026020018201604052801561079957816020015b610786610cba565b81526020019060019003908161077e5790505b50905060008467ffffffffffffffff8111156107b8576107b7611536565b5b6040519080825280602002602001820160405280156107f157816020015b6107de610cba565b8152602001906001900390816107d65790505b50905060405180608001604052806000815260200160008152602001600081526020016040518060a001604052808681526020018581526020018481526020017ffffffffffffffffffffffffffffffffffffffffffffffffffffffffffffffffe60010b81526020017fffffffffffffffffffffffffffffffffffffffffffffffffffffffffffffffff60020b81525081525093505050509392505050565b610898610c8c565b818360600151600001518460000180518091906108b490611a92565b815250815181106108c8576108c76113b7565b5b602002602001018190525082905092915050565b6108e4610c8c565b8183606001516040015184604001805180919061090090611a92565b81525081518110610914576109136113b7565b5b602002602001018190525082905092915050565b600061098a826040518060400160405280602081526020017f5361666545524332303a206c6f772d6c6576656c2063616c6c206661696c65648152508573ffffffffffffffffffffffffffffffffffffffff166109ef9092919063ffffffff16565b90506000815111156109ea57808060200190518101906109aa9190611b12565b6109e9576040517f08c379a00000000000000000000000000000000000000000000000000000000081526004016109e090611bb1565b60405180910390fd5b5b505050565b60606109fe8484600085610a07565b90509392505050565b606082471015610a4c576040517f08c379a0000000000000000000000000000000000000000000000000000000008152600401610a4390611c43565b60405180910390fd5b6000808673ffffffffffffffffffffffffffffffffffffffff168587604051610a759190611cd4565b60006040518083038185875af1925050503d8060008114610ab2576040519150601f19603f3d011682016040523d82523d6000602084013e610ab7565b606091505b5091509150610ac887838387610ad4565b92505050949350505050565b60608315610b36576000835103610b2e57610aee85610b49565b610b2d576040517f08c379a0000000000000000000000000000000000000000000000000000000008152600401610b2490611d37565b60405180910390fd5b5b829050610b41565b610b408383610b6c565b5b949350505050565b6000808273ffffffffffffffffffffffffffffffffffffffff163b119050919050565b600082511115610b7f5781518083602001fd5b806040517f08c379a0000000000000000000000000000000000000000000000000000000008152600401610bb39190611d9b565b60405180910390fd5b6040518060a00160405280606081526020016060815260200160608152602001600060010b8152602001600060020b81525090565b6040518060e00160405280600073ffffffffffffffffffffffffffffffffffffffff168152602001600073ffffffffffffffffffffffffffffffffffffffff168152602001600073ffffffffffffffffffffffffffffffffffffffff168152602001600073ffffffffffffffffffffffffffffffffffffffff1681526020016000815260200160008152602001610c86610cda565b81525090565b6040518060800160405280600081526020016000815260200160008152602001610cb4610bbc565b81525090565b6040518060400160405280610ccd610e49565b8152602001600081525090565b604051806101e00160405280610cee610e8b565b815260200160006fffffffffffffffffffffffffffffffff16815260200160006fffffffffffffffffffffffffffffffff16815260200160006fffffffffffffffffffffffffffffffff16815260200160006fffffffffffffffffffffffffffffffff16815260200160006fffffffffffffffffffffffffffffffff168152602001600064ffffffffff168152602001600061ffff168152602001600073ffffffffffffffffffffffffffffffffffffffff168152602001600073ffffffffffffffffffffffffffffffffffffffff168152602001600073ffffffffffffffffffffffffffffffffffffffff168152602001600073ffffffffffffffffffffffffffffffffffffffff16815260200160006fffffffffffffffffffffffffffffffff16815260200160006fffffffffffffffffffffffffffffffff16815260200160006fffffffffffffffffffffffffffffffff1681525090565b604051806040016040528060006002811115610e6857610e676110b6565b5b8152602001600073ffffffffffffffffffffffffffffffffffffffff1681525090565b6040518060200160405280600081525090565b600073ffffffffffffffffffffffffffffffffffffffff82169050919050565b6000610ec982610e9e565b9050919050565b610ed981610ebe565b82525050565b6000602082019050610ef46000830184610ed0565b92915050565b6000604051905090565b600080fd5b600080fd5b600080fd5b600080fd5b600080fd5b60008083601f840112610f3357610f32610f0e565b5b8235905067ffffffffffffffff811115610f5057610f4f610f13565b5b602083019150836060820283011115610f6c57610f6b610f18565b5b9250929050565b60008083601f840112610f8957610f88610f0e565b5b8235905067ffffffffffffffff811115610fa657610fa5610f13565b5b602083019150836001820283011115610fc257610fc1610f18565b5b9250929050565b610fd281610ebe565b8114610fdd57600080fd5b50565b600081359050610fef81610fc9565b92915050565b60008060008060006060868803121561101157611010610f04565b5b600086013567ffffffffffffffff81111561102f5761102e610f09565b5b61103b88828901610f1d565b9550955050602086013567ffffffffffffffff81111561105e5761105d610f09565b5b61106a88828901610f73565b9350935050604061107d88828901610fe0565b9150509295509295909350565b600081519050919050565b600082825260208201905092915050565b6000819050602082019050919050565b7f4e487b7100000000000000000000000000000000000000000000000000000000600052602160045260246000fd5b600381106110f6576110f56110b6565b5b50565b6000819050611107826110e5565b919050565b6000611117826110f9565b9050919050565b6111278161110c565b82525050565b61113681610ebe565b82525050565b604082016000820151611152600085018261111e565b506020820151611165602085018261112d565b50505050565b6000819050919050565b61117e8161116b565b82525050565b60608201600082015161119a600085018261113c565b5060208201516111ad6040850182611175565b50505050565b60006111bf8383611184565b60608301905092915050565b6000602082019050919050565b60006111e38261108a565b6111ed8185611095565b93506111f8836110a6565b8060005b8381101561122957815161121088826111b3565b975061121b836111cb565b9250506001810190506111fc565b5085935050505092915050565b60008160010b9050919050565b61124c81611236565b82525050565b60008160020b9050919050565b61126881611252565b82525050565b600060a083016000830151848203600086015261128b82826111d8565b915050602083015184820360208601526112a582826111d8565b915050604083015184820360408601526112bf82826111d8565b91505060608301516112d46060860182611243565b5060808301516112e7608086018261125f565b508091505092915050565b6000602082019050818103600083015261130c818461126e565b905092915050565b600082825260208201905092915050565b7f7468657265206d7573742062652065786163746c79203120696e70757420617360008201527f7365740000000000000000000000000000000000000000000000000000000000602082015250565b6000611381602383611314565b915061138c82611325565b604082019050919050565b600060208201905081810360008301526113b081611374565b9050919050565b7f4e487b7100000000000000000000000000000000000000000000000000000000600052603260045260246000fd5b600082905092915050565b600381106113fe57600080fd5b50565b600081359050611410816113f1565b92915050565b60006114256020840184611401565b905092915050565b600061143c6020840184610fe0565b905092915050565b604082016114556000830183611416565b611462600085018261111e565b50611470602083018361142d565b61147d602085018261112d565b50505050565b61148c8161116b565b811461149757600080fd5b50565b6000813590506114a981611483565b92915050565b60006114be602084018461149a565b905092915050565b606082016114d760008301836113e6565b6114e46000850182611444565b506114f260408301836114af565b6114ff6040850182611175565b50505050565b600060608201905061151a60008301846114c6565b92915050565b600080fd5b6000601f19601f8301169050919050565b7f4e487b7100000000000000000000000000000000000000000000000000000000600052604160045260246000fd5b61156e82611525565b810181811067ffffffffffffffff8211171561158d5761158c611536565b5b80604052505050565b60006115a0610efa565b90506115ac8282611565565b919050565b6000604082840312156115c7576115c6611520565b5b6115d16040611596565b905060006115e184828501611401565b60008301525060206115f584828501610fe0565b60208301525092915050565b60006060828403121561161757611616611520565b5b6116216040611596565b90506000611631848285016115b1565b60008301525060406116458482850161149a565b60208301525092915050565b60006060828403121561166757611666610f04565b5b600061167584828501611601565b91505092915050565b60008151905061168d81611483565b92915050565b6000602082840312156116a9576116a8611520565b5b6116b36020611596565b905060006116c38482850161167e565b60008301525092915050565b60006fffffffffffffffffffffffffffffffff82169050919050565b6116f4816116cf565b81146116ff57600080fd5b50565b600081519050611711816116eb565b92915050565b600064ffffffffff82169050919050565b61173181611717565b811461173c57600080fd5b50565b60008151905061174e81611728565b92915050565b600061ffff82169050919050565b61176b81611754565b811461177657600080fd5b50565b60008151905061178881611762565b92915050565b60008151905061179d81610fc9565b92915050565b60006101e082840312156117ba576117b9611520565b5b6117c56101e0611596565b905060006117d584828501611693565b60008301525060206117e984828501611702565b60208301525060406117fd84828501611702565b604083015250606061181184828501611702565b606083015250608061182584828501611702565b60808301525060a061183984828501611702565b60a08301525060c061184d8482850161173f565b60c08301525060e061186184828501611779565b60e0830152506101006118768482850161178e565b6101008301525061012061188c8482850161178e565b610120830152506101406118a28482850161178e565b610140830152506101606118b88482850161178e565b610160830152506101806118ce84828501611702565b610180830152506101a06118e484828501611702565b6101a0830152506101c06118fa84828501611702565b6101c08301525092915050565b60006101e0828403121561191e5761191d610f04565b5b600061192c848285016117a3565b91505092915050565b61193e8161116b565b82525050565b6000819050919050565b6000819050919050565b600061197361196e61196984611944565b61194e565b611754565b9050919050565b61198381611958565b82525050565b600060808201905061199e6000830187610ed0565b6119ab6020830186611935565b6119b86040830185610ed0565b6119c5606083018461197a565b95945050505050565b7f77657468206e6f7420737570706f72746564206f6e207468697320636861696e600082015250565b6000611a04602083611314565b9150611a0f826119ce565b602082019050919050565b60006020820190508181036000830152611a33816119f7565b9050919050565b6000604082019050611a4f6000830185610ed0565b611a5c6020830184611935565b9392505050565b7f4e487b7100000000000000000000000000000000000000000000000000000000600052601160045260246000fd5b6000611a9d8261116b565b91507fffffffffffffffffffffffffffffffffffffffffffffffffffffffffffffffff8203611acf57611ace611a63565b5b600182019050919050565b60008115159050919050565b611aef81611ada565b8114611afa57600080fd5b50565b600081519050611b0c81611ae6565b92915050565b600060208284031215611b2857611b27610f04565b5b6000611b3684828501611afd565b91505092915050565b7f5361666545524332303a204552433230206f7065726174696f6e20646964206e60008201527f6f74207375636365656400000000000000000000000000000000000000000000602082015250565b6000611b9b602a83611314565b9150611ba682611b3f565b604082019050919050565b60006020820190508181036000830152611bca81611b8e565b9050919050565b7f416464726573733a20696e73756666696369656e742062616c616e636520666f60008201527f722063616c6c0000000000000000000000000000000000000000000000000000602082015250565b6000611c2d602683611314565b9150611c3882611bd1565b604082019050919050565b60006020820190508181036000830152611c5c81611c20565b9050919050565b600081519050919050565b600081905092915050565b60005b83811015611c97578082015181840152602081019050611c7c565b60008484015250505050565b6000611cae82611c63565b611cb88185611c6e565b9350611cc8818560208601611c79565b80840191505092915050565b6000611ce08284611ca3565b915081905092915050565b7f416464726573733a2063616c6c20746f206e6f6e2d636f6e7472616374000000600082015250565b6000611d21601d83611314565b9150611d2c82611ceb565b602082019050919050565b60006020820190508181036000830152611d5081611d14565b9050919050565b600081519050919050565b6000611d6d82611d57565b611d778185611314565b9350611d87818560208601611c79565b611d9081611525565b840191505092915050565b60006020820190508181036000830152611db58184611d62565b90509291505056fea2646970667358221220e96d8a8b88de84b5135800ffc643fd730dccb5620a4125a86f3e6d4fe2890f8e64736f6c63430008120033",
  "devdoc": {
    "events": {
      "AaveSupplyActionEvent(((uint8,address),uint256))": {
        "params": {
          "inputAssetAmount": "the asset and amout being supplied to Aave."
        }
      }
    },
    "kind": "dev",
    "methods": {},
    "version": 1
  },
  "userdoc": {
    "events": {
      "AaveSupplyActionEvent(((uint8,address),uint256))": {
        "notice": "This event is emitted when an Aave 'supply' action is executed."
      }
    },
    "kind": "user",
    "methods": {},
    "version": 1
  },
  "storageLayout": {
    "storage": [],
    "types": null
  }
}