{
  "address": "0xB10f691b3172761070D95a511F2238aD4b4cE1E2",
  "abi": [
    {
      "inputs": [
        {
          "internalType": "address",
          "name": "_poolAddressProviderAddress",
          "type": "address"
        },
        {
          "internalType": "address",
          "name": "_wethAddress",
          "type": "address"
        }
      ],
      "stateMutability": "nonpayable",
      "type": "constructor"
    },
    {
      "inputs": [
        {
          "components": [
            {
              "components": [
                {
                  "internalType": "enum AssetType",
                  "name": "assetType",
                  "type": "uint8"
                },
                {
                  "internalType": "address",
                  "name": "assetAddress",
                  "type": "address"
                }
              ],
              "internalType": "struct Asset",
              "name": "asset",
              "type": "tuple"
            },
            {
              "internalType": "uint256",
              "name": "amount",
              "type": "uint256"
            }
          ],
          "internalType": "struct AssetAmount[]",
          "name": "inputAssets",
          "type": "tuple[]"
        },
        {
          "internalType": "bytes",
          "name": "argData",
          "type": "bytes"
        },
        {
          "internalType": "address",
          "name": "userAddress",
          "type": "address"
        }
      ],
      "name": "execute",
      "outputs": [
        {
          "components": [
            {
              "components": [
                {
                  "components": [
                    {
                      "internalType": "enum AssetType",
                      "name": "assetType",
                      "type": "uint8"
                    },
                    {
                      "internalType": "address",
                      "name": "assetAddress",
                      "type": "address"
                    }
                  ],
                  "internalType": "struct Asset",
                  "name": "asset",
                  "type": "tuple"
                },
                {
                  "internalType": "uint256",
                  "name": "amount",
                  "type": "uint256"
                }
              ],
              "internalType": "struct AssetAmount[]",
              "name": "inputAssetAmounts",
              "type": "tuple[]"
            },
            {
              "components": [
                {
                  "components": [
                    {
                      "internalType": "enum AssetType",
                      "name": "assetType",
                      "type": "uint8"
                    },
                    {
                      "internalType": "address",
                      "name": "assetAddress",
                      "type": "address"
                    }
                  ],
                  "internalType": "struct Asset",
                  "name": "asset",
                  "type": "tuple"
                },
                {
                  "internalType": "uint256",
                  "name": "amount",
                  "type": "uint256"
                }
              ],
              "internalType": "struct AssetAmount[]",
              "name": "outputAssetAmounts",
              "type": "tuple[]"
            },
            {
              "components": [
                {
                  "components": [
                    {
                      "internalType": "enum AssetType",
                      "name": "assetType",
                      "type": "uint8"
                    },
                    {
                      "internalType": "address",
                      "name": "assetAddress",
                      "type": "address"
                    }
                  ],
                  "internalType": "struct Asset",
                  "name": "asset",
                  "type": "tuple"
                },
                {
                  "internalType": "uint256",
                  "name": "amount",
                  "type": "uint256"
                }
              ],
              "internalType": "struct AssetAmount[]",
              "name": "outputAssetAmountsToCaller",
              "type": "tuple[]"
            },
            {
              "internalType": "int16",
              "name": "nextStepIndex",
              "type": "int16"
            },
            {
              "internalType": "int24",
              "name": "fee",
              "type": "int24"
            }
          ],
          "internalType": "struct WorkflowStepResult",
          "name": "",
          "type": "tuple"
        }
      ],
      "stateMutability": "payable",
      "type": "function"
    },
    {
      "inputs": [],
      "name": "poolAddressProviderAddress",
      "outputs": [
        {
          "internalType": "address",
          "name": "",
          "type": "address"
        }
      ],
      "stateMutability": "view",
      "type": "function"
    },
    {
      "inputs": [],
      "name": "wethAddress",
      "outputs": [
        {
          "internalType": "address",
          "name": "",
          "type": "address"
        }
      ],
      "stateMutability": "view",
      "type": "function"
    }
  ],
  "transactionHash": "0xb656aeb20a7a42ebd11985a85db7b111608214abdbe81174d93a2f576f4fde94",
  "args": [
    "0xa97684ead0e402dC232d5A977953DF7ECBaB3CDb",
    "0x4200000000000000000000000000000000000006"
  ],
  "numDeployments": 2,
  "solcInputHash": "620875ff7dee368f090e397d342df7c4",
  "bytecode": "0x60c06040523480156200001157600080fd5b506040516200130d3803806200130d833981810160405281019062000037919062000111565b8173ffffffffffffffffffffffffffffffffffffffff1660808173ffffffffffffffffffffffffffffffffffffffff16815250508073ffffffffffffffffffffffffffffffffffffffff1660a08173ffffffffffffffffffffffffffffffffffffffff1681525050505062000158565b600080fd5b600073ffffffffffffffffffffffffffffffffffffffff82169050919050565b6000620000d982620000ac565b9050919050565b620000eb81620000cc565b8114620000f757600080fd5b50565b6000815190506200010b81620000e0565b92915050565b600080604083850312156200012b576200012a620000a7565b5b60006200013b85828601620000fa565b92505060206200014e85828601620000fa565b9150509250929050565b60805160a05161117c620001916000396000818160c1015281816101b2015261025001526000818160e501526102bf015261117c6000f3fe6080604052600436106100345760003560e01c80634f0e0ef3146100395780635ee77cb014610064578063e025f4021461008f575b600080fd5b34801561004557600080fd5b5061004e6100bf565b60405161005b91906107f0565b60405180910390f35b34801561007057600080fd5b506100796100e3565b60405161008691906107f0565b60405180910390f35b6100a960048036038101906100a49190610906565b610107565b6040516100b69190610c03565b60405180910390f35b7f000000000000000000000000000000000000000000000000000000000000000081565b7f000000000000000000000000000000000000000000000000000000000000000081565b61010f6106ea565b60018686905014610155576040517f08c379a000000000000000000000000000000000000000000000000000000000815260040161014c90610ca8565b60405180910390fd5b600080600281111561016a576101696109c7565b5b8787600081811061017e5761017d610cc8565b5b90506060020160000160000160208101906101999190610d1c565b60028111156101ab576101aa6109c7565b5b03610276577f000000000000000000000000000000000000000000000000000000000000000073ffffffffffffffffffffffffffffffffffffffff1663d0e30db088886000818110610200576101ff610cc8565b5b905060600201604001356040518263ffffffff1660e01b81526004016000604051808303818588803b15801561023557600080fd5b505af1158015610249573d6000803e3d6000fd5b50505050507f000000000000000000000000000000000000000000000000000000000000000090506102a8565b8686600081811061028a57610289610cc8565b5b90506060020160000160200160208101906102a59190610d49565b90505b600085858101906102b99190610e6f565b905060007f0000000000000000000000000000000000000000000000000000000000000000905060008173ffffffffffffffffffffffffffffffffffffffff1663026b1d5f6040518163ffffffff1660e01b8152600401602060405180830381865afa15801561032d573d6000803e3d6000fd5b505050506040513d601f19601f820116820180604052508101906103519190610eb1565b905060008190508473ffffffffffffffffffffffffffffffffffffffff1663095ea7b3838d8d600081811061038957610388610cc8565b5b905060600201604001356040518363ffffffff1660e01b81526004016103b0929190610eed565b6020604051808303816000875af11580156103cf573d6000803e3d6000fd5b505050506040513d601f19601f820116820180604052508101906103f39190610f4e565b508073ffffffffffffffffffffffffffffffffffffffff1663573ade81868d8d600081811061042557610424610cc8565b5b9050606002016040013587600001518b6040518563ffffffff1660e01b81526004016104549493929190610f7b565b6020604051808303816000875af1158015610473573d6000803e3d6000fd5b505050506040513d601f19601f820116820180604052508101906104979190610fd5565b506104df8b8b60008181106104af576104ae610cc8565b5b9050606002018036038101906104c591906110a2565b6104d1600160006104f3565b61069e90919063ffffffff16565b606001519550505050505095945050505050565b6104fb61071f565b60008367ffffffffffffffff81111561051757610516610d8c565b5b60405190808252806020026020018201604052801561055057816020015b61053d61074d565b8152602001906001900390816105355790505b50905060008367ffffffffffffffff81111561056f5761056e610d8c565b5b6040519080825280602002602001820160405280156105a857816020015b61059561074d565b81526020019060019003908161058d5790505b50905060008067ffffffffffffffff8111156105c7576105c6610d8c565b5b60405190808252806020026020018201604052801561060057816020015b6105ed61074d565b8152602001906001900390816105e55790505b50905060405180608001604052806000815260200160008152602001600081526020016040518060a001604052808681526020018581526020018481526020017ffffffffffffffffffffffffffffffffffffffffffffffffffffffffffffffffe60010b81526020017fffffffffffffffffffffffffffffffffffffffffffffffffffffffffffffffff60020b815250815250935050505092915050565b6106a661071f565b818360600151600001518460000180518091906106c2906110fe565b815250815181106106d6576106d5610cc8565b5b602002602001018190525082905092915050565b6040518060a00160405280606081526020016060815260200160608152602001600060010b8152602001600060020b81525090565b60405180608001604052806000815260200160008152602001600081526020016107476106ea565b81525090565b604051806040016040528061076061076d565b8152602001600081525090565b60405180604001604052806000600281111561078c5761078b6109c7565b5b8152602001600073ffffffffffffffffffffffffffffffffffffffff1681525090565b600073ffffffffffffffffffffffffffffffffffffffff82169050919050565b60006107da826107af565b9050919050565b6107ea816107cf565b82525050565b600060208201905061080560008301846107e1565b92915050565b6000604051905090565b600080fd5b600080fd5b600080fd5b600080fd5b600080fd5b60008083601f8401126108445761084361081f565b5b8235905067ffffffffffffffff81111561086157610860610824565b5b60208301915083606082028301111561087d5761087c610829565b5b9250929050565b60008083601f84011261089a5761089961081f565b5b8235905067ffffffffffffffff8111156108b7576108b6610824565b5b6020830191508360018202830111156108d3576108d2610829565b5b9250929050565b6108e3816107cf565b81146108ee57600080fd5b50565b600081359050610900816108da565b92915050565b60008060008060006060868803121561092257610921610815565b5b600086013567ffffffffffffffff8111156109405761093f61081a565b5b61094c8882890161082e565b9550955050602086013567ffffffffffffffff81111561096f5761096e61081a565b5b61097b88828901610884565b9350935050604061098e888289016108f1565b9150509295509295909350565b600081519050919050565b600082825260208201905092915050565b6000819050602082019050919050565b7f4e487b7100000000000000000000000000000000000000000000000000000000600052602160045260246000fd5b60038110610a0757610a066109c7565b5b50565b6000819050610a18826109f6565b919050565b6000610a2882610a0a565b9050919050565b610a3881610a1d565b82525050565b610a47816107cf565b82525050565b604082016000820151610a636000850182610a2f565b506020820151610a766020850182610a3e565b50505050565b6000819050919050565b610a8f81610a7c565b82525050565b606082016000820151610aab6000850182610a4d565b506020820151610abe6040850182610a86565b50505050565b6000610ad08383610a95565b60608301905092915050565b6000602082019050919050565b6000610af48261099b565b610afe81856109a6565b9350610b09836109b7565b8060005b83811015610b3a578151610b218882610ac4565b9750610b2c83610adc565b925050600181019050610b0d565b5085935050505092915050565b60008160010b9050919050565b610b5d81610b47565b82525050565b60008160020b9050919050565b610b7981610b63565b82525050565b600060a0830160008301518482036000860152610b9c8282610ae9565b91505060208301518482036020860152610bb68282610ae9565b91505060408301518482036040860152610bd08282610ae9565b9150506060830151610be56060860182610b54565b506080830151610bf86080860182610b70565b508091505092915050565b60006020820190508181036000830152610c1d8184610b7f565b905092915050565b600082825260208201905092915050565b7f7468657265206d7573742062652065786163746c79203120696e70757420617360008201527f7365740000000000000000000000000000000000000000000000000000000000602082015250565b6000610c92602383610c25565b9150610c9d82610c36565b604082019050919050565b60006020820190508181036000830152610cc181610c85565b9050919050565b7f4e487b7100000000000000000000000000000000000000000000000000000000600052603260045260246000fd5b60038110610d0457600080fd5b50565b600081359050610d1681610cf7565b92915050565b600060208284031215610d3257610d31610815565b5b6000610d4084828501610d07565b91505092915050565b600060208284031215610d5f57610d5e610815565b5b6000610d6d848285016108f1565b91505092915050565b600080fd5b6000601f19601f8301169050919050565b7f4e487b7100000000000000000000000000000000000000000000000000000000600052604160045260246000fd5b610dc482610d7b565b810181811067ffffffffffffffff82111715610de357610de2610d8c565b5b80604052505050565b6000610df661080b565b9050610e028282610dbb565b919050565b610e1081610a7c565b8114610e1b57600080fd5b50565b600081359050610e2d81610e07565b92915050565b600060208284031215610e4957610e48610d76565b5b610e536020610dec565b90506000610e6384828501610e1e565b60008301525092915050565b600060208284031215610e8557610e84610815565b5b6000610e9384828501610e33565b91505092915050565b600081519050610eab816108da565b92915050565b600060208284031215610ec757610ec6610815565b5b6000610ed584828501610e9c565b91505092915050565b610ee781610a7c565b82525050565b6000604082019050610f0260008301856107e1565b610f0f6020830184610ede565b9392505050565b60008115159050919050565b610f2b81610f16565b8114610f3657600080fd5b50565b600081519050610f4881610f22565b92915050565b600060208284031215610f6457610f63610815565b5b6000610f7284828501610f39565b91505092915050565b6000608082019050610f9060008301876107e1565b610f9d6020830186610ede565b610faa6040830185610ede565b610fb760608301846107e1565b95945050505050565b600081519050610fcf81610e07565b92915050565b600060208284031215610feb57610fea610815565b5b6000610ff984828501610fc0565b91505092915050565b60006040828403121561101857611017610d76565b5b6110226040610dec565b9050600061103284828501610d07565b6000830152506020611046848285016108f1565b60208301525092915050565b60006060828403121561106857611067610d76565b5b6110726040610dec565b9050600061108284828501611002565b600083015250604061109684828501610e1e565b60208301525092915050565b6000606082840312156110b8576110b7610815565b5b60006110c684828501611052565b91505092915050565b7f4e487b7100000000000000000000000000000000000000000000000000000000600052601160045260246000fd5b600061110982610a7c565b91507fffffffffffffffffffffffffffffffffffffffffffffffffffffffffffffffff820361113b5761113a6110cf565b5b60018201905091905056fea26469706673582212201cd6b2bbc5a8e54a460078d3361fab7e0c9e98ea6555e8af3fb27a08ca5030fc64736f6c63430008120033",
  "devdoc": {
    "kind": "dev",
    "methods": {},
    "version": 1
  },
  "userdoc": {
    "kind": "user",
    "methods": {},
    "version": 1
  },
  "storageLayout": {
    "storage": [],
    "types": null
  }
}