{
  "address": "0x7ceDd41B76204326DD4c2D33229091DE065489bc",
  "abi": [
    {
      "inputs": [
        {
          "internalType": "address",
          "name": "_aavePoolAddress",
          "type": "address"
        },
        {
          "internalType": "address",
          "name": "_wethAddress",
          "type": "address"
        }
      ],
      "stateMutability": "nonpayable",
      "type": "constructor"
    },
    {
      "anonymous": false,
      "inputs": [
        {
          "components": [
            {
              "components": [
                {
                  "internalType": "enum AssetType",
                  "name": "assetType",
                  "type": "uint8"
                },
                {
                  "internalType": "address",
                  "name": "assetAddress",
                  "type": "address"
                }
              ],
              "internalType": "struct Asset",
              "name": "asset",
              "type": "tuple"
            },
            {
              "internalType": "uint256",
              "name": "amount",
              "type": "uint256"
            }
          ],
          "indexed": false,
          "internalType": "struct AssetAmount",
          "name": "inputAssetAmount",
          "type": "tuple"
        }
      ],
      "name": "AaveSupplyActionEvent",
      "type": "event"
    },
    {
      "inputs": [
        {
          "components": [
            {
              "components": [
                {
                  "internalType": "enum AssetType",
                  "name": "assetType",
                  "type": "uint8"
                },
                {
                  "internalType": "address",
                  "name": "assetAddress",
                  "type": "address"
                }
              ],
              "internalType": "struct Asset",
              "name": "asset",
              "type": "tuple"
            },
            {
              "internalType": "uint256",
              "name": "amount",
              "type": "uint256"
            }
          ],
          "internalType": "struct AssetAmount[]",
          "name": "assetAmounts",
          "type": "tuple[]"
        },
        {
          "internalType": "bytes",
          "name": "",
          "type": "bytes"
        }
      ],
      "name": "execute",
      "outputs": [
        {
          "components": [
            {
              "components": [
                {
                  "components": [
                    {
                      "internalType": "enum AssetType",
                      "name": "assetType",
                      "type": "uint8"
                    },
                    {
                      "internalType": "address",
                      "name": "assetAddress",
                      "type": "address"
                    }
                  ],
                  "internalType": "struct Asset",
                  "name": "asset",
                  "type": "tuple"
                },
                {
                  "internalType": "uint256",
                  "name": "amount",
                  "type": "uint256"
                }
              ],
              "internalType": "struct AssetAmount[]",
              "name": "inputAssetAmounts",
              "type": "tuple[]"
            },
            {
              "components": [
                {
                  "components": [
                    {
                      "internalType": "enum AssetType",
                      "name": "assetType",
                      "type": "uint8"
                    },
                    {
                      "internalType": "address",
                      "name": "assetAddress",
                      "type": "address"
                    }
                  ],
                  "internalType": "struct Asset",
                  "name": "asset",
                  "type": "tuple"
                },
                {
                  "internalType": "uint256",
                  "name": "amount",
                  "type": "uint256"
                }
              ],
              "internalType": "struct AssetAmount[]",
              "name": "outputAssetAmounts",
              "type": "tuple[]"
            },
            {
              "internalType": "int16",
              "name": "nextStepIndex",
              "type": "int16"
            },
            {
              "internalType": "int24",
              "name": "fee",
              "type": "int24"
            }
          ],
          "internalType": "struct WorkflowStepResult",
          "name": "",
          "type": "tuple"
        }
      ],
      "stateMutability": "payable",
      "type": "function"
    },
    {
      "inputs": [],
      "name": "poolAddress",
      "outputs": [
        {
          "internalType": "address",
          "name": "",
          "type": "address"
        }
      ],
      "stateMutability": "view",
      "type": "function"
    },
    {
      "inputs": [],
      "name": "wethAddress",
      "outputs": [
        {
          "internalType": "address",
          "name": "",
          "type": "address"
        }
      ],
      "stateMutability": "view",
      "type": "function"
    }
  ],
  "transactionHash": "0xe483b73459ee8e693053721dd6444b89ebe30781d4e37285036e837af1c4f9e5",
  "args": [
    "0x794a61358D6845594F94dc1DB02A252b5b4814aD",
    "0x4200000000000000000000000000000000000006"
  ],
  "numDeployments": 1,
  "solcInputHash": "493e9a6283bd5dacdf43b9eacec94df0",
  "bytecode": "0x60c06040523480156200001157600080fd5b50604051620021bf380380620021bf833981810160405281019062000037919062000111565b8173ffffffffffffffffffffffffffffffffffffffff1660808173ffffffffffffffffffffffffffffffffffffffff16815250508073ffffffffffffffffffffffffffffffffffffffff1660a08173ffffffffffffffffffffffffffffffffffffffff1681525050505062000158565b600080fd5b600073ffffffffffffffffffffffffffffffffffffffff82169050919050565b6000620000d982620000ac565b9050919050565b620000eb81620000cc565b8114620000f757600080fd5b50565b6000815190506200010b81620000e0565b92915050565b600080604083850312156200012b576200012a620000a7565b5b60006200013b85828601620000fa565b92505060206200014e85828601620000fa565b9150509250929050565b60805160a05161202e620001916000396000818160e501526101dc01526000818160c1015281816102fa0152610363015261202e6000f3fe6080604052600436106100345760003560e01c80631755ff21146100395780634f0e0ef3146100645780637bb26ca71461008f575b600080fd5b34801561004557600080fd5b5061004e6100bf565b60405161005b919061107b565b60405180910390f35b34801561007057600080fd5b506100796100e3565b604051610086919061107b565b60405180910390f35b6100a960048036038101906100a49190611165565b610107565b6040516100b69190611434565b60405180910390f35b7f000000000000000000000000000000000000000000000000000000000000000081565b7f000000000000000000000000000000000000000000000000000000000000000081565b61010f610d66565b60018585905014610155576040517f08c379a000000000000000000000000000000000000000000000000000000000815260040161014c906114d9565b60405180910390fd5b7f46fe748530bbf7d655d836d8ce67684c4e9122a23e9d988ca820b9d8e50958b98585600081811061018a576101896114f9565b5b90506060020160405161019d9190611673565b60405180910390a16101ad610d94565b610200868660008181106101c4576101c36114f9565b5b9050606002018036038101906101da91906117bf565b7f00000000000000000000000000000000000000000000000000000000000000006106fa565b816020019073ffffffffffffffffffffffffffffffffffffffff16908173ffffffffffffffffffffffffffffffffffffffff16815250508060200151816000019073ffffffffffffffffffffffffffffffffffffffff16908173ffffffffffffffffffffffffffffffffffffffff16815250506000816000015173ffffffffffffffffffffffffffffffffffffffff166370a08231306040518263ffffffff1660e01b81526004016102b2919061107b565b602060405180830381865afa1580156102cf573d6000803e3d6000fd5b505050506040513d601f19601f820116820180604052508101906102f39190611801565b90506103617f00000000000000000000000000000000000000000000000000000000000000008888600081811061032d5761032c6114f9565b5b90506060020160400135846000015173ffffffffffffffffffffffffffffffffffffffff1661081d9092919063ffffffff16565b7f0000000000000000000000000000000000000000000000000000000000000000826040019073ffffffffffffffffffffffffffffffffffffffff16908173ffffffffffffffffffffffffffffffffffffffff1681525050816040015173ffffffffffffffffffffffffffffffffffffffff166335ea6a7583602001516040518263ffffffff1660e01b81526004016103fa919061107b565b6101e060405180830381865afa158015610418573d6000803e3d6000fd5b505050506040513d601f19601f8201168201806040525081019061043c9190611aa2565b8260c001819052508160c001516101000151826060019073ffffffffffffffffffffffffffffffffffffffff16908173ffffffffffffffffffffffffffffffffffffffff1681525050816060015173ffffffffffffffffffffffffffffffffffffffff166370a08231306040518263ffffffff1660e01b81526004016104c2919061107b565b602060405180830381865afa1580156104df573d6000803e3d6000fd5b505050506040513d601f19601f820116820180604052508101906105039190611801565b826080018181525050816040015173ffffffffffffffffffffffffffffffffffffffff1663617ba037836020015189896000818110610545576105446114f9565b5b905060600201604001353060006040518563ffffffff1660e01b81526004016105719493929190611b24565b600060405180830381600087803b15801561058b57600080fd5b505af115801561059f573d6000803e3d6000fd5b50505050816060015173ffffffffffffffffffffffffffffffffffffffff166370a08231306040518263ffffffff1660e01b81526004016105e0919061107b565b602060405180830381865afa1580156105fd573d6000803e3d6000fd5b505050506040513d601f19601f820116820180604052508101906106219190611801565b8260a001818152505081608001518260a0015111610674576040517f08c379a000000000000000000000000000000000000000000000000000000000815260040161066b90611bb5565b60405180910390fd5b6106ea8260c00151610100015183608001518460a001516106959190611c04565b6106db8a8a60008181106106ac576106ab6114f9565b5b9050606002018036038101906106c291906117bf565b6106cd6001806108a3565b6109e890919063ffffffff16565b610a349092919063ffffffff16565b6040015192505050949350505050565b600080600281111561070f5761070e611212565b5b836000015160000151600281111561072a57610729611212565b5b0361080b57600073ffffffffffffffffffffffffffffffffffffffff168273ffffffffffffffffffffffffffffffffffffffff160361079e576040517f08c379a000000000000000000000000000000000000000000000000000000000815260040161079590611c84565b60405180910390fd5b8173ffffffffffffffffffffffffffffffffffffffff1663d0e30db084602001516040518263ffffffff1660e01b81526004016000604051808303818588803b1580156107ea57600080fd5b505af11580156107fe573d6000803e3d6000fd5b5050505050819050610817565b82600001516020015190505b92915050565b61089e8363095ea7b360e01b848460405160240161083c929190611ca4565b604051602081830303815290604052907bffffffffffffffffffffffffffffffffffffffffffffffffffffffff19166020820180517bffffffffffffffffffffffffffffffffffffffffffffffffffffffff8381831617835250505050610ad2565b505050565b6108ab610e2f565b60008367ffffffffffffffff8111156108c7576108c66116a4565b5b60405190808252806020026020018201604052801561090057816020015b6108ed610e56565b8152602001906001900390816108e55790505b50905060008367ffffffffffffffff81111561091f5761091e6116a4565b5b60405190808252806020026020018201604052801561095857816020015b610945610e56565b81526020019060019003908161093d5790505b5090506040518060600160405280600081526020016000815260200160405180608001604052808581526020018481526020017ffffffffffffffffffffffffffffffffffffffffffffffffffffffffffffffffe60010b81526020017fffffffffffffffffffffffffffffffffffffffffffffffffffffffffffffffff60020b8152508152509250505092915050565b6109f0610e2f565b81836040015160000151846000018051809190610a0c90611ccd565b81525081518110610a2057610a1f6114f9565b5b602002602001018190525082905092915050565b610a3c610e2f565b6040518060400160405280604051806040016040528060016002811115610a6657610a65611212565b5b81526020018673ffffffffffffffffffffffffffffffffffffffff16815250815260200183815250846040015160200151856020018051809190610aa990611ccd565b81525081518110610abd57610abc6114f9565b5b60200260200101819052508390509392505050565b6000610b34826040518060400160405280602081526020017f5361666545524332303a206c6f772d6c6576656c2063616c6c206661696c65648152508573ffffffffffffffffffffffffffffffffffffffff16610b999092919063ffffffff16565b9050600081511115610b945780806020019051810190610b549190611d4d565b610b93576040517f08c379a0000000000000000000000000000000000000000000000000000000008152600401610b8a90611dec565b60405180910390fd5b5b505050565b6060610ba88484600085610bb1565b90509392505050565b606082471015610bf6576040517f08c379a0000000000000000000000000000000000000000000000000000000008152600401610bed90611e7e565b60405180910390fd5b6000808673ffffffffffffffffffffffffffffffffffffffff168587604051610c1f9190611f0f565b60006040518083038185875af1925050503d8060008114610c5c576040519150601f19603f3d011682016040523d82523d6000602084013e610c61565b606091505b5091509150610c7287838387610c7e565b92505050949350505050565b60608315610ce0576000835103610cd857610c9885610cf3565b610cd7576040517f08c379a0000000000000000000000000000000000000000000000000000000008152600401610cce90611f72565b60405180910390fd5b5b829050610ceb565b610cea8383610d16565b5b949350505050565b6000808273ffffffffffffffffffffffffffffffffffffffff163b119050919050565b600082511115610d295781518083602001fd5b806040517f08c379a0000000000000000000000000000000000000000000000000000000008152600401610d5d9190611fd6565b60405180910390fd5b60405180608001604052806060815260200160608152602001600060010b8152602001600060020b81525090565b6040518060e00160405280600073ffffffffffffffffffffffffffffffffffffffff168152602001600073ffffffffffffffffffffffffffffffffffffffff168152602001600073ffffffffffffffffffffffffffffffffffffffff168152602001600073ffffffffffffffffffffffffffffffffffffffff1681526020016000815260200160008152602001610e29610e76565b81525090565b60405180606001604052806000815260200160008152602001610e50610d66565b81525090565b6040518060400160405280610e69610fe5565b8152602001600081525090565b604051806101e00160405280610e8a611027565b815260200160006fffffffffffffffffffffffffffffffff16815260200160006fffffffffffffffffffffffffffffffff16815260200160006fffffffffffffffffffffffffffffffff16815260200160006fffffffffffffffffffffffffffffffff16815260200160006fffffffffffffffffffffffffffffffff168152602001600064ffffffffff168152602001600061ffff168152602001600073ffffffffffffffffffffffffffffffffffffffff168152602001600073ffffffffffffffffffffffffffffffffffffffff168152602001600073ffffffffffffffffffffffffffffffffffffffff168152602001600073ffffffffffffffffffffffffffffffffffffffff16815260200160006fffffffffffffffffffffffffffffffff16815260200160006fffffffffffffffffffffffffffffffff16815260200160006fffffffffffffffffffffffffffffffff1681525090565b60405180604001604052806000600281111561100457611003611212565b5b8152602001600073ffffffffffffffffffffffffffffffffffffffff1681525090565b6040518060200160405280600081525090565b600073ffffffffffffffffffffffffffffffffffffffff82169050919050565b60006110658261103a565b9050919050565b6110758161105a565b82525050565b6000602082019050611090600083018461106c565b92915050565b6000604051905090565b600080fd5b600080fd5b600080fd5b600080fd5b600080fd5b60008083601f8401126110cf576110ce6110aa565b5b8235905067ffffffffffffffff8111156110ec576110eb6110af565b5b602083019150836060820283011115611108576111076110b4565b5b9250929050565b60008083601f840112611125576111246110aa565b5b8235905067ffffffffffffffff811115611142576111416110af565b5b60208301915083600182028301111561115e5761115d6110b4565b5b9250929050565b6000806000806040858703121561117f5761117e6110a0565b5b600085013567ffffffffffffffff81111561119d5761119c6110a5565b5b6111a9878288016110b9565b9450945050602085013567ffffffffffffffff8111156111cc576111cb6110a5565b5b6111d88782880161110f565b925092505092959194509250565b600081519050919050565b600082825260208201905092915050565b6000819050602082019050919050565b7f4e487b7100000000000000000000000000000000000000000000000000000000600052602160045260246000fd5b6003811061125257611251611212565b5b50565b600081905061126382611241565b919050565b600061127382611255565b9050919050565b61128381611268565b82525050565b6112928161105a565b82525050565b6040820160008201516112ae600085018261127a565b5060208201516112c16020850182611289565b50505050565b6000819050919050565b6112da816112c7565b82525050565b6060820160008201516112f66000850182611298565b50602082015161130960408501826112d1565b50505050565b600061131b83836112e0565b60608301905092915050565b6000602082019050919050565b600061133f826111e6565b61134981856111f1565b935061135483611202565b8060005b8381101561138557815161136c888261130f565b975061137783611327565b925050600181019050611358565b5085935050505092915050565b60008160010b9050919050565b6113a881611392565b82525050565b60008160020b9050919050565b6113c4816113ae565b82525050565b600060808301600083015184820360008601526113e78282611334565b915050602083015184820360208601526114018282611334565b9150506040830151611416604086018261139f565b50606083015161142960608601826113bb565b508091505092915050565b6000602082019050818103600083015261144e81846113ca565b905092915050565b600082825260208201905092915050565b7f7468657265206d7573742062652065786163746c79203120696e70757420617360008201527f7365740000000000000000000000000000000000000000000000000000000000602082015250565b60006114c3602383611456565b91506114ce82611467565b604082019050919050565b600060208201905081810360008301526114f2816114b6565b9050919050565b7f4e487b7100000000000000000000000000000000000000000000000000000000600052603260045260246000fd5b600082905092915050565b6003811061154057600080fd5b50565b60008135905061155281611533565b92915050565b60006115676020840184611543565b905092915050565b6115788161105a565b811461158357600080fd5b50565b6000813590506115958161156f565b92915050565b60006115aa6020840184611586565b905092915050565b604082016115c36000830183611558565b6115d0600085018261127a565b506115de602083018361159b565b6115eb6020850182611289565b50505050565b6115fa816112c7565b811461160557600080fd5b50565b600081359050611617816115f1565b92915050565b600061162c6020840184611608565b905092915050565b606082016116456000830183611528565b61165260008501826115b2565b50611660604083018361161d565b61166d60408501826112d1565b50505050565b60006060820190506116886000830184611634565b92915050565b600080fd5b6000601f19601f8301169050919050565b7f4e487b7100000000000000000000000000000000000000000000000000000000600052604160045260246000fd5b6116dc82611693565b810181811067ffffffffffffffff821117156116fb576116fa6116a4565b5b80604052505050565b600061170e611096565b905061171a82826116d3565b919050565b6000604082840312156117355761173461168e565b5b61173f6040611704565b9050600061174f84828501611543565b600083015250602061176384828501611586565b60208301525092915050565b6000606082840312156117855761178461168e565b5b61178f6040611704565b9050600061179f8482850161171f565b60008301525060406117b384828501611608565b60208301525092915050565b6000606082840312156117d5576117d46110a0565b5b60006117e38482850161176f565b91505092915050565b6000815190506117fb816115f1565b92915050565b600060208284031215611817576118166110a0565b5b6000611825848285016117ec565b91505092915050565b6000602082840312156118445761184361168e565b5b61184e6020611704565b9050600061185e848285016117ec565b60008301525092915050565b60006fffffffffffffffffffffffffffffffff82169050919050565b61188f8161186a565b811461189a57600080fd5b50565b6000815190506118ac81611886565b92915050565b600064ffffffffff82169050919050565b6118cc816118b2565b81146118d757600080fd5b50565b6000815190506118e9816118c3565b92915050565b600061ffff82169050919050565b611906816118ef565b811461191157600080fd5b50565b600081519050611923816118fd565b92915050565b6000815190506119388161156f565b92915050565b60006101e082840312156119555761195461168e565b5b6119606101e0611704565b905060006119708482850161182e565b60008301525060206119848482850161189d565b60208301525060406119988482850161189d565b60408301525060606119ac8482850161189d565b60608301525060806119c08482850161189d565b60808301525060a06119d48482850161189d565b60a08301525060c06119e8848285016118da565b60c08301525060e06119fc84828501611914565b60e083015250610100611a1184828501611929565b61010083015250610120611a2784828501611929565b61012083015250610140611a3d84828501611929565b61014083015250610160611a5384828501611929565b61016083015250610180611a698482850161189d565b610180830152506101a0611a7f8482850161189d565b6101a0830152506101c0611a958482850161189d565b6101c08301525092915050565b60006101e08284031215611ab957611ab86110a0565b5b6000611ac78482850161193e565b91505092915050565b611ad9816112c7565b82525050565b6000819050919050565b6000819050919050565b6000611b0e611b09611b0484611adf565b611ae9565b6118ef565b9050919050565b611b1e81611af3565b82525050565b6000608082019050611b39600083018761106c565b611b466020830186611ad0565b611b53604083018561106c565b611b606060830184611b15565b95945050505050565b7f61546f6b656e2062616c616e636520646964206e6f7420696e63726561736500600082015250565b6000611b9f601f83611456565b9150611baa82611b69565b602082019050919050565b60006020820190508181036000830152611bce81611b92565b9050919050565b7f4e487b7100000000000000000000000000000000000000000000000000000000600052601160045260246000fd5b6000611c0f826112c7565b9150611c1a836112c7565b9250828203905081811115611c3257611c31611bd5565b5b92915050565b7f77657468206e6f7420737570706f72746564206f6e207468697320636861696e600082015250565b6000611c6e602083611456565b9150611c7982611c38565b602082019050919050565b60006020820190508181036000830152611c9d81611c61565b9050919050565b6000604082019050611cb9600083018561106c565b611cc66020830184611ad0565b9392505050565b6000611cd8826112c7565b91507fffffffffffffffffffffffffffffffffffffffffffffffffffffffffffffffff8203611d0a57611d09611bd5565b5b600182019050919050565b60008115159050919050565b611d2a81611d15565b8114611d3557600080fd5b50565b600081519050611d4781611d21565b92915050565b600060208284031215611d6357611d626110a0565b5b6000611d7184828501611d38565b91505092915050565b7f5361666545524332303a204552433230206f7065726174696f6e20646964206e60008201527f6f74207375636365656400000000000000000000000000000000000000000000602082015250565b6000611dd6602a83611456565b9150611de182611d7a565b604082019050919050565b60006020820190508181036000830152611e0581611dc9565b9050919050565b7f416464726573733a20696e73756666696369656e742062616c616e636520666f60008201527f722063616c6c0000000000000000000000000000000000000000000000000000602082015250565b6000611e68602683611456565b9150611e7382611e0c565b604082019050919050565b60006020820190508181036000830152611e9781611e5b565b9050919050565b600081519050919050565b600081905092915050565b60005b83811015611ed2578082015181840152602081019050611eb7565b60008484015250505050565b6000611ee982611e9e565b611ef38185611ea9565b9350611f03818560208601611eb4565b80840191505092915050565b6000611f1b8284611ede565b915081905092915050565b7f416464726573733a2063616c6c20746f206e6f6e2d636f6e7472616374000000600082015250565b6000611f5c601d83611456565b9150611f6782611f26565b602082019050919050565b60006020820190508181036000830152611f8b81611f4f565b9050919050565b600081519050919050565b6000611fa882611f92565b611fb28185611456565b9350611fc2818560208601611eb4565b611fcb81611693565b840191505092915050565b60006020820190508181036000830152611ff08184611f9d565b90509291505056fea26469706673582212200785ccae9234c3e9763b2cbc17813b83f08ea3a28b5bcca9ed03e04a82752e3064736f6c63430008120033",
  "devdoc": {
    "events": {
      "AaveSupplyActionEvent(((uint8,address),uint256))": {
        "params": {
          "inputAssetAmount": "the asset and amout being supplied to Aave."
        }
      }
    },
    "kind": "dev",
    "methods": {},
    "version": 1
  },
  "userdoc": {
    "events": {
      "AaveSupplyActionEvent(((uint8,address),uint256))": {
        "notice": "This event is emitted when an Aave 'supply' action is executed."
      }
    },
    "kind": "user",
    "methods": {},
    "version": 1
  },
  "storageLayout": {
    "storage": [],
    "types": null
  }
}