{
  "address": "0xBE16638202B7a1600063CC0cAfa1Ff0524E88Ffa",
  "abi": [
    {
      "anonymous": false,
      "inputs": [
        {
          "indexed": false,
          "internalType": "address",
          "name": "fromAddress",
          "type": "address"
        },
        {
          "components": [
            {
              "components": [
                {
                  "internalType": "enum AssetType",
                  "name": "assetType",
                  "type": "uint8"
                },
                {
                  "internalType": "address",
                  "name": "assetAddress",
                  "type": "address"
                }
              ],
              "internalType": "struct Asset",
              "name": "asset",
              "type": "tuple"
            },
            {
              "internalType": "uint256",
              "name": "amount",
              "type": "uint256"
            }
          ],
          "indexed": false,
          "internalType": "struct AssetAmount",
          "name": "assetAmount",
          "type": "tuple"
        }
      ],
      "name": "AssetAdded",
      "type": "event"
    },
    {
      "inputs": [
        {
          "components": [
            {
              "components": [
                {
                  "internalType": "enum AssetType",
                  "name": "assetType",
                  "type": "uint8"
                },
                {
                  "internalType": "address",
                  "name": "assetAddress",
                  "type": "address"
                }
              ],
              "internalType": "struct Asset",
              "name": "asset",
              "type": "tuple"
            },
            {
              "internalType": "uint256",
              "name": "amount",
              "type": "uint256"
            }
          ],
          "internalType": "struct AssetAmount[]",
          "name": "inputAssetAmounts",
          "type": "tuple[]"
        },
        {
          "components": [
            {
              "internalType": "enum AssetType",
              "name": "assetType",
              "type": "uint8"
            },
            {
              "internalType": "address",
              "name": "assetAddress",
              "type": "address"
            }
          ],
          "internalType": "struct Asset[]",
          "name": "outputAssets",
          "type": "tuple[]"
        },
        {
          "internalType": "bytes",
          "name": "data",
          "type": "bytes"
        }
      ],
      "name": "execute",
      "outputs": [
        {
          "components": [
            {
              "components": [
                {
                  "components": [
                    {
                      "internalType": "enum AssetType",
                      "name": "assetType",
                      "type": "uint8"
                    },
                    {
                      "internalType": "address",
                      "name": "assetAddress",
                      "type": "address"
                    }
                  ],
                  "internalType": "struct Asset",
                  "name": "asset",
                  "type": "tuple"
                },
                {
                  "internalType": "uint256",
                  "name": "amount",
                  "type": "uint256"
                }
              ],
              "internalType": "struct AssetAmount[]",
              "name": "outputAssetAmounts",
              "type": "tuple[]"
            },
            {
              "internalType": "int16",
              "name": "nextStepIndex",
              "type": "int16"
            }
          ],
          "internalType": "struct WorkflowStepResult",
          "name": "",
          "type": "tuple"
        }
      ],
      "stateMutability": "payable",
      "type": "function"
    }
  ],
  "transactionHash": "0x56e64396b06df20e1f46721ea525914ed037c3fe6d857a8ecf20202692e30298",
  "args": [],
  "numDeployments": 1,
  "solcInputHash": "4b77f16f16378578c9b3e2d18646eb2d",
  "bytecode": "0x608060405234801561001057600080fd5b50611527806100206000396000f3fe60806040526004361061001e5760003560e01c80632b53501314610023575b600080fd5b61003d6004803603810190610038919061096a565b610053565b60405161004a9190610c55565b60405180910390f35b61005b6107c6565b600087879050146100a1576040517f08c379a000000000000000000000000000000000000000000000000000000000815260040161009890610cfa565b60405180910390fd5b600185859050146100e7576040517f08c379a00000000000000000000000000000000000000000000000000000000081526004016100de90610d8c565b60405180910390fd5b600083838101906100f89190610ee5565b90507fef0c65b079206f52fb80f62c3dec1aa6a7c5f320e5ab20920ba56c7c7a4f02b5816000015160405180604001604052808989600081811061013f5761013e610f12565b5b9050604002018036038101906101559190610fb6565b81526020018460200151815250604051610170929190611021565b60405180910390a16000600281111561018c5761018b610a4a565b5b868660008181106101a05761019f610f12565b5b90506040020160000160208101906101b8919061104a565b60028111156101ca576101c9610a4a565b5b036101e4576101dc6000806000610374565b91505061036a565b600160028111156101f8576101f7610a4a565b5b8686600081811061020c5761020b610f12565b5b9050604002016000016020810190610224919061104a565b600281111561023657610235610a4a565b5b14610276576040517f08c379a000000000000000000000000000000000000000000000000000000000815260040161026d906110e9565b60405180910390fd5b3073ffffffffffffffffffffffffffffffffffffffff16816000015173ffffffffffffffffffffffffffffffffffffffff16036102e8576040517f08c379a00000000000000000000000000000000000000000000000000000000081526004016102df9061117b565b60405180910390fd5b6000868660008181106102fe576102fd610f12565b5b9050604002016020016020810190610316919061119b565b905061032c81836000015130856020015161048d565b6103658787600081811061034357610342610f12565b5b905060400201602001602081019061035b919061119b565b8360200151610516565b925050505b9695505050505050565b61037c6107c6565b6000604051806040016040528086600281111561039c5761039b610a4a565b5b81526020018573ffffffffffffffffffffffffffffffffffffffff1681525090506000600167ffffffffffffffff8111156103da576103d9610dc2565b5b60405190808252806020026020018201604052801561041357816020015b6104006107e3565b8152602001906001900390816103f85790505b5090506040518060400160405280838152602001858152508160008151811061043f5761043e610f12565b5b602002602001018190525060405180604001604052808281526020017fffffffffffffffffffffffffffffffffffffffffffffffffffffffffffffffff60010b815250925050509392505050565b610510846323b872dd60e01b8585856040516024016104ae939291906111d7565b604051602081830303815290604052907bffffffffffffffffffffffffffffffffffffffffffffffffffffffff19166020820180517bffffffffffffffffffffffffffffffffffffffffffffffffffffffff8381831617835250505050610532565b50505050565b61051e6107c6565b61052a60018484610374565b905092915050565b6000610594826040518060400160405280602081526020017f5361666545524332303a206c6f772d6c6576656c2063616c6c206661696c65648152508573ffffffffffffffffffffffffffffffffffffffff166105f99092919063ffffffff16565b90506000815111156105f457808060200190518101906105b49190611246565b6105f3576040517f08c379a00000000000000000000000000000000000000000000000000000000081526004016105ea906112e5565b60405180910390fd5b5b505050565b60606106088484600085610611565b90509392505050565b606082471015610656576040517f08c379a000000000000000000000000000000000000000000000000000000000815260040161064d90611377565b60405180910390fd5b6000808673ffffffffffffffffffffffffffffffffffffffff16858760405161067f9190611408565b60006040518083038185875af1925050503d80600081146106bc576040519150601f19603f3d011682016040523d82523d6000602084013e6106c1565b606091505b50915091506106d2878383876106de565b92505050949350505050565b60608315610740576000835103610738576106f885610753565b610737576040517f08c379a000000000000000000000000000000000000000000000000000000000815260040161072e9061146b565b60405180910390fd5b5b82905061074b565b61074a8383610776565b5b949350505050565b6000808273ffffffffffffffffffffffffffffffffffffffff163b119050919050565b6000825111156107895781518083602001fd5b806040517f08c379a00000000000000000000000000000000000000000000000000000000081526004016107bd91906114cf565b60405180910390fd5b604051806040016040528060608152602001600060010b81525090565b60405180604001604052806107f6610803565b8152602001600081525090565b60405180604001604052806000600281111561082257610821610a4a565b5b8152602001600073ffffffffffffffffffffffffffffffffffffffff1681525090565b6000604051905090565b600080fd5b600080fd5b600080fd5b600080fd5b600080fd5b60008083601f84011261087e5761087d610859565b5b8235905067ffffffffffffffff81111561089b5761089a61085e565b5b6020830191508360608202830111156108b7576108b6610863565b5b9250929050565b60008083601f8401126108d4576108d3610859565b5b8235905067ffffffffffffffff8111156108f1576108f061085e565b5b60208301915083604082028301111561090d5761090c610863565b5b9250929050565b60008083601f84011261092a57610929610859565b5b8235905067ffffffffffffffff8111156109475761094661085e565b5b60208301915083600182028301111561096357610962610863565b5b9250929050565b600080600080600080606087890312156109875761098661084f565b5b600087013567ffffffffffffffff8111156109a5576109a4610854565b5b6109b189828a01610868565b9650965050602087013567ffffffffffffffff8111156109d4576109d3610854565b5b6109e089828a016108be565b9450945050604087013567ffffffffffffffff811115610a0357610a02610854565b5b610a0f89828a01610914565b92509250509295509295509295565b600081519050919050565b600082825260208201905092915050565b6000819050602082019050919050565b7f4e487b7100000000000000000000000000000000000000000000000000000000600052602160045260246000fd5b60038110610a8a57610a89610a4a565b5b50565b6000819050610a9b82610a79565b919050565b6000610aab82610a8d565b9050919050565b610abb81610aa0565b82525050565b600073ffffffffffffffffffffffffffffffffffffffff82169050919050565b6000610aec82610ac1565b9050919050565b610afc81610ae1565b82525050565b604082016000820151610b186000850182610ab2565b506020820151610b2b6020850182610af3565b50505050565b6000819050919050565b610b4481610b31565b82525050565b606082016000820151610b606000850182610b02565b506020820151610b736040850182610b3b565b50505050565b6000610b858383610b4a565b60608301905092915050565b6000602082019050919050565b6000610ba982610a1e565b610bb38185610a29565b9350610bbe83610a3a565b8060005b83811015610bef578151610bd68882610b79565b9750610be183610b91565b925050600181019050610bc2565b5085935050505092915050565b60008160010b9050919050565b610c1281610bfc565b82525050565b60006040830160008301518482036000860152610c358282610b9e565b9150506020830151610c4a6020860182610c09565b508091505092915050565b60006020820190508181036000830152610c6f8184610c18565b905092915050565b600082825260208201905092915050565b7f416464546f6b656e416374696f6e206d7573742068617665203020696e70757460008201527f2061737365747300000000000000000000000000000000000000000000000000602082015250565b6000610ce4602783610c77565b9150610cef82610c88565b604082019050919050565b60006020820190508181036000830152610d1381610cd7565b9050919050565b7f416464546f6b656e416374696f6e206d75737420686176652031206f7574707560008201527f7420617373657400000000000000000000000000000000000000000000000000602082015250565b6000610d76602783610c77565b9150610d8182610d1a565b604082019050919050565b60006020820190508181036000830152610da581610d69565b9050919050565b600080fd5b6000601f19601f8301169050919050565b7f4e487b7100000000000000000000000000000000000000000000000000000000600052604160045260246000fd5b610dfa82610db1565b810181811067ffffffffffffffff82111715610e1957610e18610dc2565b5b80604052505050565b6000610e2c610845565b9050610e388282610df1565b919050565b610e4681610ae1565b8114610e5157600080fd5b50565b600081359050610e6381610e3d565b92915050565b610e7281610b31565b8114610e7d57600080fd5b50565b600081359050610e8f81610e69565b92915050565b600060408284031215610eab57610eaa610dac565b5b610eb56040610e22565b90506000610ec584828501610e54565b6000830152506020610ed984828501610e80565b60208301525092915050565b600060408284031215610efb57610efa61084f565b5b6000610f0984828501610e95565b91505092915050565b7f4e487b7100000000000000000000000000000000000000000000000000000000600052603260045260246000fd5b60038110610f4e57600080fd5b50565b600081359050610f6081610f41565b92915050565b600060408284031215610f7c57610f7b610dac565b5b610f866040610e22565b90506000610f9684828501610f51565b6000830152506020610faa84828501610e54565b60208301525092915050565b600060408284031215610fcc57610fcb61084f565b5b6000610fda84828501610f66565b91505092915050565b610fec81610ae1565b82525050565b6060820160008201516110086000850182610b02565b50602082015161101b6040850182610b3b565b50505050565b60006080820190506110366000830185610fe3565b6110436020830184610ff2565b9392505050565b6000602082840312156110605761105f61084f565b5b600061106e84828501610f51565b91505092915050565b7f416464546f6b656e416374696f6e20737570706f727473206e6174697665206160008201527f6e64204552433230730000000000000000000000000000000000000000000000602082015250565b60006110d3602983610c77565b91506110de82611077565b604082019050919050565b60006020820190508181036000830152611102816110c6565b9050919050565b7f41646441737365742063616e6e6f742070756c6c2066726f6d2046726f6e744460008201527f6f6f720000000000000000000000000000000000000000000000000000000000602082015250565b6000611165602383610c77565b915061117082611109565b604082019050919050565b6000602082019050818103600083015261119481611158565b9050919050565b6000602082840312156111b1576111b061084f565b5b60006111bf84828501610e54565b91505092915050565b6111d181610b31565b82525050565b60006060820190506111ec6000830186610fe3565b6111f96020830185610fe3565b61120660408301846111c8565b949350505050565b60008115159050919050565b6112238161120e565b811461122e57600080fd5b50565b6000815190506112408161121a565b92915050565b60006020828403121561125c5761125b61084f565b5b600061126a84828501611231565b91505092915050565b7f5361666545524332303a204552433230206f7065726174696f6e20646964206e60008201527f6f74207375636365656400000000000000000000000000000000000000000000602082015250565b60006112cf602a83610c77565b91506112da82611273565b604082019050919050565b600060208201905081810360008301526112fe816112c2565b9050919050565b7f416464726573733a20696e73756666696369656e742062616c616e636520666f60008201527f722063616c6c0000000000000000000000000000000000000000000000000000602082015250565b6000611361602683610c77565b915061136c82611305565b604082019050919050565b6000602082019050818103600083015261139081611354565b9050919050565b600081519050919050565b600081905092915050565b60005b838110156113cb5780820151818401526020810190506113b0565b60008484015250505050565b60006113e282611397565b6113ec81856113a2565b93506113fc8185602086016113ad565b80840191505092915050565b600061141482846113d7565b915081905092915050565b7f416464726573733a2063616c6c20746f206e6f6e2d636f6e7472616374000000600082015250565b6000611455601d83610c77565b91506114608261141f565b602082019050919050565b6000602082019050818103600083015261148481611448565b9050919050565b600081519050919050565b60006114a18261148b565b6114ab8185610c77565b93506114bb8185602086016113ad565b6114c481610db1565b840191505092915050565b600060208201905081810360008301526114e98184611496565b90509291505056fea26469706673582212208fce216904c17788c8b91c308aa0b95156a596c8fa04b7c17c92dc9fb3545c9d64736f6c63430008120033",
  "devdoc": {
    "events": {
      "AssetAdded(address,((uint8,address),uint256))": {
        "params": {
          "assetAmount": "The asset and amount that is transferred into this workflow instance",
          "fromAddress": "The address from which the asset is transferred into this workflow instance"
        }
      }
    },
    "kind": "dev",
    "methods": {},
    "version": 1
  },
  "userdoc": {
    "events": {
      "AssetAdded(address,((uint8,address),uint256))": {
        "notice": "This event is emitted when AddAssetAction is executed"
      }
    },
    "kind": "user",
    "methods": {},
    "version": 1
  },
  "storageLayout": {
    "storage": [],
    "types": null
  }
}