{
  "address": "0x287dc6E9a742bE2Bcf131DC11bE5F97A61319fe8",
  "abi": [
    {
      "inputs": [
        {
          "internalType": "address payable",
          "name": "frontDoorAddress",
          "type": "address"
        }
      ],
      "stateMutability": "nonpayable",
      "type": "constructor"
    },
    {
      "anonymous": false,
      "inputs": [
        {
          "indexed": false,
          "internalType": "address",
          "name": "sender",
          "type": "address"
        },
        {
          "indexed": false,
          "internalType": "address",
          "name": "newOwner",
          "type": "address"
        }
      ],
      "name": "LogNewOwner",
      "type": "event"
    },
    {
      "anonymous": false,
      "inputs": [
        {
          "components": [
            {
              "internalType": "enum AssetType",
              "name": "assetType",
              "type": "uint8"
            },
            {
              "internalType": "address",
              "name": "assetAddress",
              "type": "address"
            }
          ],
          "indexed": false,
          "internalType": "struct Asset",
          "name": "asset",
          "type": "tuple"
        },
        {
          "indexed": false,
          "internalType": "uint256",
          "name": "totalAmount",
          "type": "uint256"
        },
        {
          "indexed": false,
          "internalType": "uint256",
          "name": "feeAmount",
          "type": "uint256"
        },
        {
          "indexed": false,
          "internalType": "uint256",
          "name": "userAmount",
          "type": "uint256"
        }
      ],
      "name": "RemainingAsset",
      "type": "event"
    },
    {
      "anonymous": false,
      "inputs": [
        {
          "indexed": false,
          "internalType": "uint16",
          "name": "stepId",
          "type": "uint16"
        },
        {
          "indexed": false,
          "internalType": "address",
          "name": "stepAddress",
          "type": "address"
        }
      ],
      "name": "StepAddressSetEvent",
      "type": "event"
    },
    {
      "anonymous": false,
      "inputs": [
        {
          "indexed": false,
          "internalType": "uint256",
          "name": "nonce",
          "type": "uint256"
        },
        {
          "indexed": false,
          "internalType": "address",
          "name": "userAddress",
          "type": "address"
        },
        {
          "components": [
            {
              "components": [
                {
                  "internalType": "enum AssetType",
                  "name": "assetType",
                  "type": "uint8"
                },
                {
                  "internalType": "address",
                  "name": "assetAddress",
                  "type": "address"
                }
              ],
              "internalType": "struct Asset",
              "name": "asset",
              "type": "tuple"
            },
            {
              "internalType": "uint256",
              "name": "amount",
              "type": "uint256"
            }
          ],
          "indexed": false,
          "internalType": "struct AssetAmount",
          "name": "startingAsset",
          "type": "tuple"
        }
      ],
      "name": "WorkflowContinuation",
      "type": "event"
    },
    {
      "anonymous": false,
      "inputs": [
        {
          "indexed": false,
          "internalType": "address",
          "name": "userAddress",
          "type": "address"
        },
        {
          "components": [
            {
              "components": [
                {
                  "internalType": "uint16",
                  "name": "stepId",
                  "type": "uint16"
                },
                {
                  "internalType": "address",
                  "name": "stepAddress",
                  "type": "address"
                },
                {
                  "components": [
                    {
                      "components": [
                        {
                          "internalType": "enum AssetType",
                          "name": "assetType",
                          "type": "uint8"
                        },
                        {
                          "internalType": "address",
                          "name": "assetAddress",
                          "type": "address"
                        }
                      ],
                      "internalType": "struct Asset",
                      "name": "asset",
                      "type": "tuple"
                    },
                    {
                      "internalType": "uint256",
                      "name": "amount",
                      "type": "uint256"
                    },
                    {
                      "internalType": "bool",
                      "name": "amountIsPercent",
                      "type": "bool"
                    }
                  ],
                  "internalType": "struct WorkflowStepInputAsset[]",
                  "name": "inputAssets",
                  "type": "tuple[]"
                },
                {
                  "components": [
                    {
                      "internalType": "enum AssetType",
                      "name": "assetType",
                      "type": "uint8"
                    },
                    {
                      "internalType": "address",
                      "name": "assetAddress",
                      "type": "address"
                    }
                  ],
                  "internalType": "struct Asset[]",
                  "name": "outputAssets",
                  "type": "tuple[]"
                },
                {
                  "internalType": "bytes",
                  "name": "data",
                  "type": "bytes"
                },
                {
                  "internalType": "int16",
                  "name": "nextStepIndex",
                  "type": "int16"
                }
              ],
              "internalType": "struct WorkflowStep[]",
              "name": "steps",
              "type": "tuple[]"
            }
          ],
          "indexed": false,
          "internalType": "struct Workflow",
          "name": "workflow",
          "type": "tuple"
        }
      ],
      "name": "WorkflowExecution",
      "type": "event"
    },
    {
      "anonymous": false,
      "inputs": [
        {
          "indexed": false,
          "internalType": "uint16",
          "name": "stepIndex",
          "type": "uint16"
        },
        {
          "components": [
            {
              "internalType": "uint16",
              "name": "stepId",
              "type": "uint16"
            },
            {
              "internalType": "address",
              "name": "stepAddress",
              "type": "address"
            },
            {
              "components": [
                {
                  "components": [
                    {
                      "internalType": "enum AssetType",
                      "name": "assetType",
                      "type": "uint8"
                    },
                    {
                      "internalType": "address",
                      "name": "assetAddress",
                      "type": "address"
                    }
                  ],
                  "internalType": "struct Asset",
                  "name": "asset",
                  "type": "tuple"
                },
                {
                  "internalType": "uint256",
                  "name": "amount",
                  "type": "uint256"
                },
                {
                  "internalType": "bool",
                  "name": "amountIsPercent",
                  "type": "bool"
                }
              ],
              "internalType": "struct WorkflowStepInputAsset[]",
              "name": "inputAssets",
              "type": "tuple[]"
            },
            {
              "components": [
                {
                  "internalType": "enum AssetType",
                  "name": "assetType",
                  "type": "uint8"
                },
                {
                  "internalType": "address",
                  "name": "assetAddress",
                  "type": "address"
                }
              ],
              "internalType": "struct Asset[]",
              "name": "outputAssets",
              "type": "tuple[]"
            },
            {
              "internalType": "bytes",
              "name": "data",
              "type": "bytes"
            },
            {
              "internalType": "int16",
              "name": "nextStepIndex",
              "type": "int16"
            }
          ],
          "indexed": false,
          "internalType": "struct WorkflowStep",
          "name": "step",
          "type": "tuple"
        },
        {
          "indexed": false,
          "internalType": "uint16",
          "name": "stepId",
          "type": "uint16"
        },
        {
          "indexed": false,
          "internalType": "address",
          "name": "stepAddress",
          "type": "address"
        },
        {
          "components": [
            {
              "components": [
                {
                  "internalType": "enum AssetType",
                  "name": "assetType",
                  "type": "uint8"
                },
                {
                  "internalType": "address",
                  "name": "assetAddress",
                  "type": "address"
                }
              ],
              "internalType": "struct Asset",
              "name": "asset",
              "type": "tuple"
            },
            {
              "internalType": "uint256",
              "name": "amount",
              "type": "uint256"
            }
          ],
          "indexed": false,
          "internalType": "struct AssetAmount[]",
          "name": "inputAssetAmounts",
          "type": "tuple[]"
        },
        {
          "components": [
            {
              "components": [
                {
                  "components": [
                    {
                      "internalType": "enum AssetType",
                      "name": "assetType",
                      "type": "uint8"
                    },
                    {
                      "internalType": "address",
                      "name": "assetAddress",
                      "type": "address"
                    }
                  ],
                  "internalType": "struct Asset",
                  "name": "asset",
                  "type": "tuple"
                },
                {
                  "internalType": "uint256",
                  "name": "amount",
                  "type": "uint256"
                }
              ],
              "internalType": "struct AssetAmount[]",
              "name": "outputAssetAmounts",
              "type": "tuple[]"
            },
            {
              "internalType": "int16",
              "name": "nextStepIndex",
              "type": "int16"
            }
          ],
          "indexed": false,
          "internalType": "struct WorkflowStepResult",
          "name": "result",
          "type": "tuple"
        }
      ],
      "name": "WorkflowStepExecution",
      "type": "event"
    },
    {
      "inputs": [
        {
          "internalType": "address",
          "name": "userAddress",
          "type": "address"
        },
        {
          "internalType": "uint256",
          "name": "nonce",
          "type": "uint256"
        },
        {
          "components": [
            {
              "components": [
                {
                  "internalType": "uint16",
                  "name": "stepId",
                  "type": "uint16"
                },
                {
                  "internalType": "address",
                  "name": "stepAddress",
                  "type": "address"
                },
                {
                  "components": [
                    {
                      "components": [
                        {
                          "internalType": "enum AssetType",
                          "name": "assetType",
                          "type": "uint8"
                        },
                        {
                          "internalType": "address",
                          "name": "assetAddress",
                          "type": "address"
                        }
                      ],
                      "internalType": "struct Asset",
                      "name": "asset",
                      "type": "tuple"
                    },
                    {
                      "internalType": "uint256",
                      "name": "amount",
                      "type": "uint256"
                    },
                    {
                      "internalType": "bool",
                      "name": "amountIsPercent",
                      "type": "bool"
                    }
                  ],
                  "internalType": "struct WorkflowStepInputAsset[]",
                  "name": "inputAssets",
                  "type": "tuple[]"
                },
                {
                  "components": [
                    {
                      "internalType": "enum AssetType",
                      "name": "assetType",
                      "type": "uint8"
                    },
                    {
                      "internalType": "address",
                      "name": "assetAddress",
                      "type": "address"
                    }
                  ],
                  "internalType": "struct Asset[]",
                  "name": "outputAssets",
                  "type": "tuple[]"
                },
                {
                  "internalType": "bytes",
                  "name": "data",
                  "type": "bytes"
                },
                {
                  "internalType": "int16",
                  "name": "nextStepIndex",
                  "type": "int16"
                }
              ],
              "internalType": "struct WorkflowStep[]",
              "name": "steps",
              "type": "tuple[]"
            }
          ],
          "internalType": "struct Workflow",
          "name": "workflow",
          "type": "tuple"
        },
        {
          "components": [
            {
              "components": [
                {
                  "internalType": "enum AssetType",
                  "name": "assetType",
                  "type": "uint8"
                },
                {
                  "internalType": "address",
                  "name": "assetAddress",
                  "type": "address"
                }
              ],
              "internalType": "struct Asset",
              "name": "asset",
              "type": "tuple"
            },
            {
              "internalType": "uint256",
              "name": "amount",
              "type": "uint256"
            }
          ],
          "internalType": "struct AssetAmount",
          "name": "startingAsset",
          "type": "tuple"
        }
      ],
      "name": "continueWorkflow",
      "outputs": [],
      "stateMutability": "payable",
      "type": "function"
    },
    {
      "inputs": [],
      "name": "eternalStorageAddress",
      "outputs": [
        {
          "internalType": "address",
          "name": "",
          "type": "address"
        }
      ],
      "stateMutability": "view",
      "type": "function"
    },
    {
      "inputs": [
        {
          "components": [
            {
              "components": [
                {
                  "internalType": "uint16",
                  "name": "stepId",
                  "type": "uint16"
                },
                {
                  "internalType": "address",
                  "name": "stepAddress",
                  "type": "address"
                },
                {
                  "components": [
                    {
                      "components": [
                        {
                          "internalType": "enum AssetType",
                          "name": "assetType",
                          "type": "uint8"
                        },
                        {
                          "internalType": "address",
                          "name": "assetAddress",
                          "type": "address"
                        }
                      ],
                      "internalType": "struct Asset",
                      "name": "asset",
                      "type": "tuple"
                    },
                    {
                      "internalType": "uint256",
                      "name": "amount",
                      "type": "uint256"
                    },
                    {
                      "internalType": "bool",
                      "name": "amountIsPercent",
                      "type": "bool"
                    }
                  ],
                  "internalType": "struct WorkflowStepInputAsset[]",
                  "name": "inputAssets",
                  "type": "tuple[]"
                },
                {
                  "components": [
                    {
                      "internalType": "enum AssetType",
                      "name": "assetType",
                      "type": "uint8"
                    },
                    {
                      "internalType": "address",
                      "name": "assetAddress",
                      "type": "address"
                    }
                  ],
                  "internalType": "struct Asset[]",
                  "name": "outputAssets",
                  "type": "tuple[]"
                },
                {
                  "internalType": "bytes",
                  "name": "data",
                  "type": "bytes"
                },
                {
                  "internalType": "int16",
                  "name": "nextStepIndex",
                  "type": "int16"
                }
              ],
              "internalType": "struct WorkflowStep[]",
              "name": "steps",
              "type": "tuple[]"
            }
          ],
          "internalType": "struct Workflow",
          "name": "workflow",
          "type": "tuple"
        }
      ],
      "name": "executeWorkflow",
      "outputs": [],
      "stateMutability": "payable",
      "type": "function"
    },
    {
      "inputs": [
        {
          "internalType": "uint16",
          "name": "stepId",
          "type": "uint16"
        }
      ],
      "name": "getStepAddress",
      "outputs": [
        {
          "internalType": "address",
          "name": "",
          "type": "address"
        }
      ],
      "stateMutability": "view",
      "type": "function"
    },
    {
      "inputs": [],
      "name": "getStepCount",
      "outputs": [
        {
          "internalType": "uint256",
          "name": "",
          "type": "uint256"
        }
      ],
      "stateMutability": "view",
      "type": "function"
    },
    {
      "inputs": [
        {
          "internalType": "uint256",
          "name": "index",
          "type": "uint256"
        }
      ],
      "name": "getStepInfoAt",
      "outputs": [
        {
          "components": [
            {
              "internalType": "uint16",
              "name": "stepId",
              "type": "uint16"
            },
            {
              "internalType": "address",
              "name": "latest",
              "type": "address"
            },
            {
              "internalType": "address[]",
              "name": "whitelist",
              "type": "address[]"
            },
            {
              "internalType": "address[]",
              "name": "blacklist",
              "type": "address[]"
            }
          ],
          "internalType": "struct StepInfo",
          "name": "",
          "type": "tuple"
        }
      ],
      "stateMutability": "view",
      "type": "function"
    },
    {
      "inputs": [],
      "name": "isUserProxy",
      "outputs": [
        {
          "internalType": "bool",
          "name": "",
          "type": "bool"
        }
      ],
      "stateMutability": "view",
      "type": "function"
    },
    {
      "inputs": [],
      "name": "owner",
      "outputs": [
        {
          "internalType": "address payable",
          "name": "",
          "type": "address"
        }
      ],
      "stateMutability": "view",
      "type": "function"
    },
    {
      "inputs": [
        {
          "internalType": "uint16",
          "name": "stepId",
          "type": "uint16"
        },
        {
          "internalType": "address",
          "name": "stepAddress",
          "type": "address"
        }
      ],
      "name": "removeStepAddress",
      "outputs": [],
      "stateMutability": "nonpayable",
      "type": "function"
    },
    {
      "inputs": [
        {
          "internalType": "address payable",
          "name": "newOwner",
          "type": "address"
        }
      ],
      "name": "setOwner",
      "outputs": [],
      "stateMutability": "nonpayable",
      "type": "function"
    },
    {
      "inputs": [
        {
          "internalType": "uint16",
          "name": "stepId",
          "type": "uint16"
        },
        {
          "internalType": "address",
          "name": "stepAddress",
          "type": "address"
        }
      ],
      "name": "setStepAddress",
      "outputs": [],
      "stateMutability": "nonpayable",
      "type": "function"
    },
    {
      "inputs": [],
      "name": "upstreamAddress",
      "outputs": [
        {
          "internalType": "address",
          "name": "",
          "type": "address"
        }
      ],
      "stateMutability": "view",
      "type": "function"
    }
  ],
  "transactionHash": "0x939bca5fabba4e7b501d2c85483eeddf3d2ef3b7c104e85ca50e709964212543",
  "args": [
    "0x83Ca601eA4C897C6f6e2722554EF622002a6DeB8"
  ],
  "numDeployments": 1,
  "solcInputHash": "64abb3edae0095600b48ffc06be95958",
  "bytecode": "0x60806040523480156200001157600080fd5b506040516200562138038062005621833981810160405281019062000037919062000208565b338173ffffffffffffffffffffffffffffffffffffffff1663384782fe6040518163ffffffff1660e01b8152600401602060405180830381865afa15801562000084573d6000803e3d6000fd5b505050506040513d601f19601f82011682018060405250810190620000aa91906200027f565b60008083806000806101000a81548173ffffffffffffffffffffffffffffffffffffffff021916908373ffffffffffffffffffffffffffffffffffffffff1602179055505082600160006101000a81548173ffffffffffffffffffffffffffffffffffffffff021916908373ffffffffffffffffffffffffffffffffffffffff16021790555081600260006101000a81548173ffffffffffffffffffffffffffffffffffffffff021916908373ffffffffffffffffffffffffffffffffffffffff16021790555080600260146101000a81548160ff02191690831515021790555050505050600160038190555050620002b1565b600080fd5b600073ffffffffffffffffffffffffffffffffffffffff82169050919050565b6000620001d082620001a3565b9050919050565b620001e281620001c3565b8114620001ee57600080fd5b50565b6000815190506200020281620001d7565b92915050565b6000602082840312156200022157620002206200019e565b5b60006200023184828501620001f1565b91505092915050565b60006200024782620001a3565b9050919050565b62000259816200023a565b81146200026557600080fd5b50565b60008151905062000279816200024e565b92915050565b6000602082840312156200029857620002976200019e565b5b6000620002a88482850162000268565b91505092915050565b61536080620002c16000396000f3fe6080604052600436106100a75760003560e01c80637bb0be87116100645780637bb0be87146101bc5780638da5cb5b146101d8578063a2af321d14610203578063c4006c811461021f578063f903397714610248578063ff05c2a814610285576100a7565b80630f53b854146100ac57806313af4035146100d557806332b56aaf146100fe578063384782fe14610129578063699a2057146101545780636fd6335114610191575b600080fd5b3480156100b857600080fd5b506100d360048036038101906100ce9190612c77565b6102b0565b005b3480156100e157600080fd5b506100fc60048036038101906100f79190612cf5565b61057e565b005b34801561010a57600080fd5b5061011361068b565b6040516101209190612d31565b60405180910390f35b34801561013557600080fd5b5061013e6106b1565b60405161014b9190612d31565b60405180910390f35b34801561016057600080fd5b5061017b60048036038101906101769190612d82565b6106d7565b6040516101889190612ee6565b60405180910390f35b34801561019d57600080fd5b506101a6610b7e565b6040516101b39190612f17565b60405180910390f35b6101d660048036038101906101d19190612f56565b610c49565b005b3480156101e457600080fd5b506101ed610cc9565b6040516101fa9190612fae565b60405180910390f35b61021d6004803603810190610218919061366b565b610ced565b005b34801561022b57600080fd5b5061024660048036038101906102419190612c77565b610d39565b005b34801561025457600080fd5b5061026f600480360381019061026a91906136ee565b610f99565b60405161027c9190612d31565b60405180910390f35b34801561029157600080fd5b5061029a611068565b6040516102a7919061372a565b60405180910390f35b60008054906101000a900473ffffffffffffffffffffffffffffffffffffffff1673ffffffffffffffffffffffffffffffffffffffff163373ffffffffffffffffffffffffffffffffffffffff161461030857600080fd5b6000600160009054906101000a900473ffffffffffffffffffffffffffffffffffffffff16905060008173ffffffffffffffffffffffffffffffffffffffff1663a2ccb5227fc94d198e6194ea38dbd900920351d7f8e6c6d85b1d3b803fb93c54be008e11fd60001b866040518363ffffffff1660e01b815260040161038f929190613799565b602060405180830381865afa1580156103ac573d6000803e3d6000fd5b505050506040513d601f19601f820116820180604052508101906103d091906137d7565b90508073ffffffffffffffffffffffffffffffffffffffff168373ffffffffffffffffffffffffffffffffffffffff1603610440576040517f08c379a000000000000000000000000000000000000000000000000000000000815260040161043790613887565b60405180910390fd5b8173ffffffffffffffffffffffffffffffffffffffff1663ba4014fd6104658661107b565b8560006040518463ffffffff1660e01b8152600401610486939291906138e2565b6020604051808303816000875af11580156104a5573d6000803e3d6000fd5b505050506040513d601f19601f820116820180604052508101906104c9919061392e565b508173ffffffffffffffffffffffffffffffffffffffff1663814257636104ef866110ab565b856040518363ffffffff1660e01b815260040161050d92919061395b565b600060405180830381600087803b15801561052757600080fd5b505af115801561053b573d6000803e3d6000fd5b505050507f5c250b46b4ab7901af16e469d68737ca13fe0eac242b19f323f7d3608565be7f8484604051610570929190613993565b60405180910390a150505050565b60008054906101000a900473ffffffffffffffffffffffffffffffffffffffff1673ffffffffffffffffffffffffffffffffffffffff163373ffffffffffffffffffffffffffffffffffffffff16146105d657600080fd5b600073ffffffffffffffffffffffffffffffffffffffff168173ffffffffffffffffffffffffffffffffffffffff160361060f57600080fd5b806000806101000a81548173ffffffffffffffffffffffffffffffffffffffff021916908373ffffffffffffffffffffffffffffffffffffffff1602179055507f1f8d7d25344642d919d55999e4664aa452a5f424bc0936ceb9c2b300db7dcbd93382604051610680929190613a11565b60405180910390a150565b600260009054906101000a900473ffffffffffffffffffffffffffffffffffffffff1681565b600160009054906101000a900473ffffffffffffffffffffffffffffffffffffffff1681565b6106df612a9f565b6000600160009054906101000a900473ffffffffffffffffffffffffffffffffffffffff1690506000808273ffffffffffffffffffffffffffffffffffffffff16634fcee0497fc94d198e6194ea38dbd900920351d7f8e6c6d85b1d3b803fb93c54be008e11fd60001b876040518363ffffffff1660e01b8152600401610767929190613a3a565b6040805180830381865afa158015610783573d6000803e3d6000fd5b505050506040513d601f19601f820116820180604052508101906107a79190613a78565b9150915060006107b6836110ab565b905060008473ffffffffffffffffffffffffffffffffffffffff16639b0d10fd836040518263ffffffff1660e01b81526004016107f39190613ab8565b602060405180830381865afa158015610810573d6000803e3d6000fd5b505050506040513d601f19601f820116820180604052508101906108349190613ad3565b905060008167ffffffffffffffff81111561085257610851612fdf565b5b6040519080825280602002602001820160405280156108805781602001602082028036833780820191505090505b50905060005b8281101561096e5760008773ffffffffffffffffffffffffffffffffffffffff1663619f6cc686846040518363ffffffff1660e01b81526004016108cb929190613a3a565b6040805180830381865afa1580156108e7573d6000803e3d6000fd5b505050506040513d601f19601f8201168201806040525081019061090b9190613b00565b5090508083838151811061092257610921613b40565b5b602002602001019073ffffffffffffffffffffffffffffffffffffffff16908173ffffffffffffffffffffffffffffffffffffffff1681525050508061096790613b9e565b9050610886565b50600061097a8661107b565b905060008773ffffffffffffffffffffffffffffffffffffffff16639b0d10fd836040518263ffffffff1660e01b81526004016109b79190613ab8565b602060405180830381865afa1580156109d4573d6000803e3d6000fd5b505050506040513d601f19601f820116820180604052508101906109f89190613ad3565b905060008167ffffffffffffffff811115610a1657610a15612fdf565b5b604051908082528060200260200182016040528015610a445781602001602082028036833780820191505090505b50905060005b82811015610b325760008a73ffffffffffffffffffffffffffffffffffffffff1663619f6cc686846040518363ffffffff1660e01b8152600401610a8f929190613a3a565b6040805180830381865afa158015610aab573d6000803e3d6000fd5b505050506040513d601f19601f82011682018060405250810190610acf9190613b00565b50905080838381518110610ae657610ae5613b40565b5b602002602001019073ffffffffffffffffffffffffffffffffffffffff16908173ffffffffffffffffffffffffffffffffffffffff16815250505080610b2b90613b9e565b9050610a4a565b5060405180608001604052808961ffff1681526020018873ffffffffffffffffffffffffffffffffffffffff168152602001858152602001828152509950505050505050505050919050565b600080600160009054906101000a900473ffffffffffffffffffffffffffffffffffffffff1690508073ffffffffffffffffffffffffffffffffffffffff1663832860727fc94d198e6194ea38dbd900920351d7f8e6c6d85b1d3b803fb93c54be008e11fd60001b6040518263ffffffff1660e01b8152600401610c029190613ab8565b602060405180830381865afa158015610c1f573d6000803e3d6000fd5b505050506040513d601f19601f82011682018060405250810190610c439190613ad3565b91505090565b610c516110db565b60006040518060400160405280604051806040016040528060006002811115610c7d57610c7c613be6565b5b8152602001600073ffffffffffffffffffffffffffffffffffffffff16815250815260200160008152509050610cbd3383610cb790613c15565b8361112a565b50610cc66113a4565b50565b60008054906101000a900473ffffffffffffffffffffffffffffffffffffffff1681565b7f5fb75a336a44ceb6f98a3b8492da063de0d7407916807b030a6703bc96c38712838583604051610d2093929190613cdd565b60405180910390a1610d3384838361112a565b50505050565b60008054906101000a900473ffffffffffffffffffffffffffffffffffffffff1673ffffffffffffffffffffffffffffffffffffffff163373ffffffffffffffffffffffffffffffffffffffff1614610d9157600080fd5b6000600160009054906101000a900473ffffffffffffffffffffffffffffffffffffffff1690508073ffffffffffffffffffffffffffffffffffffffff1663107f89ad7fc94d198e6194ea38dbd900920351d7f8e6c6d85b1d3b803fb93c54be008e11fd60001b85856040518463ffffffff1660e01b8152600401610e1893929190613d14565b6020604051808303816000875af1158015610e37573d6000803e3d6000fd5b505050506040513d601f19601f82011682018060405250810190610e5b919061392e565b508073ffffffffffffffffffffffffffffffffffffffff1663ba4014fd610e81856110ab565b8460006040518463ffffffff1660e01b8152600401610ea2939291906138e2565b6020604051808303816000875af1158015610ec1573d6000803e3d6000fd5b505050506040513d601f19601f82011682018060405250810190610ee5919061392e565b508073ffffffffffffffffffffffffffffffffffffffff166381425763610f0b8561107b565b846040518363ffffffff1660e01b8152600401610f2992919061395b565b600060405180830381600087803b158015610f4357600080fd5b505af1158015610f57573d6000803e3d6000fd5b505050507f5c250b46b4ab7901af16e469d68737ca13fe0eac242b19f323f7d3608565be7f8383604051610f8c929190613993565b60405180910390a1505050565b600080600160009054906101000a900473ffffffffffffffffffffffffffffffffffffffff1690508073ffffffffffffffffffffffffffffffffffffffff1663a2ccb5227fc94d198e6194ea38dbd900920351d7f8e6c6d85b1d3b803fb93c54be008e11fd60001b856040518363ffffffff1660e01b815260040161101f929190613799565b602060405180830381865afa15801561103c573d6000803e3d6000fd5b505050506040513d601f19601f8201168201806040525081019061106091906137d7565b915050919050565b600260149054906101000a900460ff1681565b60008160405160200161108e9190613dd8565b604051602081830303815290604052805190602001209050919050565b6000816040516020016110be9190613e4a565b604051602081830303815290604052805190602001209050919050565b600260035403611120576040517f08c379a000000000000000000000000000000000000000000000000000000000815260040161111790613ebc565b60405180910390fd5b6002600381905550565b7ffd67fb0ff088c2cb3b707935e33c12854f03baac3b19a725ccf2c24c15cc37b0838360405161115b92919061429c565b60405180910390a1600061116d612ae1565b6000341461118c5761118b600034836113ae9092919063ffffffff16565b5b6000836020015111156111b7576111b683600001518460200151836114709092919063ffffffff16565b5b5b60011561139357600084600001518361ffff16815181106111dc576111db613b40565b5b6020026020010151905060006111f182611488565b905060006112038484604001516115d5565b9050600061121b83838660600151876080015161176b565b90507f9bcd7e47da45cdf09ef1c28bf2e75e06aa76ff03e44d86ee2999a61da32a30a88685866000015186868660405161125a969594939291906144ed565b60405180910390a160005b82518110156112d0576112bf83828151811061128457611283613b40565b5b6020026020010151600001518483815181106112a3576112a2613b40565b5b602002602001015160200151886118bd9092919063ffffffff16565b806112c990613b9e565b9050611265565b5060005b81600001515181101561134b5761133a826000015182815181106112fb576112fa613b40565b5b6020026020010151600001518360000151838151811061131e5761131d613b40565b5b602002602001015160200151886114709092919063ffffffff16565b8061134490613b9e565b90506112d4565b507fffffffffffffffffffffffffffffffffffffffffffffffffffffffffffffffff8460a0015160010b036113835750505050611393565b8360a001519550505050506111b8565b61139d85826118d5565b5050505050565b6001600381905550565b600081111561146b5760006113c38484611b47565b90506000806113f1866000015184600a81106113e2576113e1613b40565b5b60200201516020015185611c4f565b915091508161145b5761145a6040518060400160405280600681526020017f637265646974000000000000000000000000000000000000000000000000000081525086886000015186600a811061144b5761144a613b40565b5b60200201516020015187611c7e565b5b611466868483611d3f565b505050505b505050565b6114838361147d84611d87565b836113ae565b505050565b60008073ffffffffffffffffffffffffffffffffffffffff16826020015173ffffffffffffffffffffffffffffffffffffffff16036114d5576114ce8260000151611da2565b90506115d0565b6000600160009054906101000a900473ffffffffffffffffffffffffffffffffffffffff1690508073ffffffffffffffffffffffffffffffffffffffff16639312813661152585600001516110ab565b85602001516040518363ffffffff1660e01b815260040161154792919061395b565b602060405180830381865afa158015611564573d6000803e3d6000fd5b505050506040513d601f19601f82011682018060405250810190611588919061392e565b6115c7576040517f08c379a00000000000000000000000000000000000000000000000000000000081526004016115be906145af565b60405180910390fd5b82602001519150505b919050565b60606000825167ffffffffffffffff8111156115f4576115f3612fdf565b5b60405190808252806020026020018201604052801561162d57816020015b61161a612b04565b8152602001906001900390816116125790505b50905060005b835181101561176057600084828151811061165157611650613b40565b5b60200260200101519050806000015183838151811061167357611672613b40565b5b602002602001015160000181905250600061169b826000015188611e7190919063ffffffff16565b90508160400151156116dd576116b5818360200151611f0d565b8484815181106116c8576116c7613b40565b5b6020026020010151602001818152505061174d565b8160200151811115611724576040517f08c379a000000000000000000000000000000000000000000000000000000000815260040161171b90614641565b60405180910390fd5b816020015184848151811061173c5761173b613b40565b5b602002602001015160200181815250505b50508061175990613b9e565b9050611633565b508091505092915050565b611773612b24565b6000808673ffffffffffffffffffffffffffffffffffffffff16632b53501360e01b8787876040516024016117aa9392919061471a565b604051602081830303815290604052907bffffffffffffffffffffffffffffffffffffffffffffffffffffffff19166020820180517bffffffffffffffffffffffffffffffffffffffffffffffffffffffff838183161783525050505060405161181491906147a2565b600060405180830381855af49150503d806000811461184f576040519150601f19603f3d011682016040523d82523d6000602084013e611854565b606091505b509150915081819061189c576040517f08c379a000000000000000000000000000000000000000000000000000000000815260040161189391906147fd565b60405180910390fd5b50808060200190518101906118b19190614a18565b92505050949350505050565b6118d0836118ca84611d87565b83611f8a565b505050565b60005b6118e18261204c565b60ff168160ff161015611b42576000611903828461205a90919063ffffffff16565b90506000816000015190506000611920836020015161012c611f0d565b905060008184602001516119349190614a61565b90507fb57bad0019da5831064de8f296d1458a6ca8403646dd9c362e9ddbb588cb52c0838560200151848460405161196f9493929190614ac4565b60405180910390a16000600281111561198b5761198a613be6565b5b836000015160028111156119a2576119a1613be6565b5b03611aa75783602001514710156119ee576040517f08c379a00000000000000000000000000000000000000000000000000000000081526004016119e590614b7b565b60405180910390fd5b6000808873ffffffffffffffffffffffffffffffffffffffff1683604051611a1590614bc1565b60006040518083038185875af1925050503d8060008114611a52576040519150601f19603f3d011682016040523d82523d6000602084013e611a57565b606091505b5091509150818190611a9f576040517f08c379a0000000000000000000000000000000000000000000000000000000008152600401611a9691906147fd565b60405180910390fd5b505050611b2d565b60016002811115611abb57611aba613be6565b5b83600001516002811115611ad257611ad1613be6565b5b03611af157600083602001519050611aeb81898461211d565b50611b2c565b6040517f08c379a0000000000000000000000000000000000000000000000000000000008152600401611b2390614c48565b60405180910390fd5b5b5050505080611b3b90614c75565b90506118d8565b505050565b600080600090505b836020015160ff16811015611b9e5782846000015182600a8110611b7657611b75613b40565b5b60200201516000015103611b8d5780915050611c49565b80611b9790613b9e565b9050611b4f565b50600a60ff16836020015160ff1610611bec576040517f08c379a0000000000000000000000000000000000000000000000000000000008152600401611be390614cea565b60405180910390fd5b604051806040016040528083815260200160008152508360000151846020015160ff16600a8110611c2057611c1f613b40565b5b6020020181905250826020018051809190611c3a90614c75565b60ff1660ff1681525060ff1690505b92915050565b6000806000838501905084811015611c6e576000809250925050611c77565b60018192509250505b9250929050565b6000611c89846121a3565b905084611cab82600001516002811115611ca657611ca5613be6565b5b612215565b611cce836020015173ffffffffffffffffffffffffffffffffffffffff166122e3565b611cd786612215565b611ce086612215565b604051602001611cf4959493929190614dd3565b6040516020818303038152906040526040517f08c379a0000000000000000000000000000000000000000000000000000000008152600401611d3691906147fd565b60405180910390fd5b6000808203611d5757611d528484612301565b611d7d565b81846000015184600a8110611d6f57611d6e613b40565b5b602002015160200181815250505b8190509392505050565b6000611d9b8260000151836020015161236e565b9050919050565b600080600160009054906101000a900473ffffffffffffffffffffffffffffffffffffffff1690508073ffffffffffffffffffffffffffffffffffffffff1663a2ccb5227fc94d198e6194ea38dbd900920351d7f8e6c6d85b1d3b803fb93c54be008e11fd60001b856040518363ffffffff1660e01b8152600401611e28929190613799565b602060405180830381865afa158015611e45573d6000803e3d6000fd5b505050506040513d601f19601f82011682018060405250810190611e6991906137d7565b915050919050565b600080836000015190506000611e8684611d87565b905060005b856020015160ff168161ffff161015611eff5781838261ffff16600a8110611eb657611eb5613b40565b5b60200201516000015103611eee57828161ffff16600a8110611edb57611eda613b40565b5b6020020151602001519350505050611f07565b80611ef890614e5a565b9050611e8b565b506000925050505b92915050565b600081600011158015611f235750620186a08211155b611f62576040517f08c379a0000000000000000000000000000000000000000000000000000000008152600401611f5990614ef6565b60405180910390fd5b60008284611f709190614f16565b9050620186a081611f819190614f87565b91505092915050565b6000811115612047576000611f9f8484611b47565b9050600080611fcd866000015184600a8110611fbe57611fbd613b40565b5b602002015160200151856123c4565b9150915081612037576120366040518060400160405280600581526020017f646562697400000000000000000000000000000000000000000000000000000081525086886000015186600a811061202757612026613b40565b5b60200201516020015187611c7e565b5b612042868483611d3f565b505050505b505050565b600081602001519050919050565b612062612b04565b826020015160ff168260ff16106120ae576040517f08c379a00000000000000000000000000000000000000000000000000000000081526004016120a59061502a565b60405180910390fd5b60006120db84600001518460ff16600a81106120cd576120cc613b40565b5b6020020151600001516121a3565b9050604051806040016040528082815260200185600001518560ff16600a811061210857612107613b40565b5b60200201516020015181525091505092915050565b61219e8363a9059cbb60e01b848460405160240161213c92919061504a565b604051602081830303815290604052907bffffffffffffffffffffffffffffffffffffffffffffffffffffffff19166020820180517bffffffffffffffffffffffffffffffffffffffffffffffffffffffff83818316178352505050506123ec565b505050565b6121ab612b41565b60008261ffff1660028111156121c4576121c3613be6565b5b90506000601084901c905060405180604001604052808360028111156121ed576121ec613be6565b5b81526020018273ffffffffffffffffffffffffffffffffffffffff1681525092505050919050565b606060006001612224846124b3565b01905060008167ffffffffffffffff81111561224357612242612fdf565b5b6040519080825280601f01601f1916602001820160405280156122755781602001600182028036833780820191505090505b509050600082602001820190505b6001156122d8578080600190039150507f3031323334353637383961626364656600000000000000000000000000000000600a86061a8153600a85816122cc576122cb614f58565b5b04945060008503612283575b819350505050919050565b60606122fa8260016122f485612606565b01612696565b9050919050565b8160000151600183602001516123179190615073565b60ff16600a811061232b5761232a613b40565b5b6020020151826000015182600a811061234757612346613b40565b5b602002018190525081602001805161235e906150a8565b60ff16908160ff16815250505050565b60008082905060008173ffffffffffffffffffffffffffffffffffffffff1690506000601082901b905060008660028111156123ad576123ac613be6565b5b905060008183179050809550505050505092915050565b600080838311156123db57600080915091506123e5565b6001838503915091505b9250929050565b600061244e826040518060400160405280602081526020017f5361666545524332303a206c6f772d6c6576656c2063616c6c206661696c65648152508573ffffffffffffffffffffffffffffffffffffffff166128d29092919063ffffffff16565b90506000815111156124ae578080602001905181019061246e919061392e565b6124ad576040517f08c379a00000000000000000000000000000000000000000000000000000000081526004016124a490615143565b60405180910390fd5b5b505050565b600080600090507a184f03e93ff9f4daa797ed6e38ed64bf6a1f0100000000000000008310612511577a184f03e93ff9f4daa797ed6e38ed64bf6a1f010000000000000000838161250757612506614f58565b5b0492506040810190505b6d04ee2d6d415b85acef8100000000831061254e576d04ee2d6d415b85acef8100000000838161254457612543614f58565b5b0492506020810190505b662386f26fc10000831061257d57662386f26fc10000838161257357612572614f58565b5b0492506010810190505b6305f5e10083106125a6576305f5e100838161259c5761259b614f58565b5b0492506008810190505b61271083106125cb5761271083816125c1576125c0614f58565b5b0492506004810190505b606483106125ee57606483816125e4576125e3614f58565b5b0492506002810190505b600a83106125fd576001810190505b80915050919050565b600080600090506000608084901c111561262857608083901c92506010810190505b6000604084901c111561264357604083901c92506008810190505b6000602084901c111561265e57602083901c92506004810190505b6000601084901c111561267957601083901c92506002810190505b6000600884901c111561268d576001810190505b80915050919050565b6060600060028360026126a99190614f16565b6126b39190615163565b67ffffffffffffffff8111156126cc576126cb612fdf565b5b6040519080825280601f01601f1916602001820160405280156126fe5781602001600182028036833780820191505090505b5090507f30000000000000000000000000000000000000000000000000000000000000008160008151811061273657612735613b40565b5b60200101907effffffffffffffffffffffffffffffffffffffffffffffffffffffffffffff1916908160001a9053507f78000000000000000000000000000000000000000000000000000000000000008160018151811061279a57612799613b40565b5b60200101907effffffffffffffffffffffffffffffffffffffffffffffffffffffffffffff1916908160001a905350600060018460026127da9190614f16565b6127e49190615163565b90505b6001811115612884577f3031323334353637383961626364656600000000000000000000000000000000600f86166010811061282657612825613b40565b5b1a60f81b82828151811061283d5761283c613b40565b5b60200101907effffffffffffffffffffffffffffffffffffffffffffffffffffffffffffff1916908160001a905350600485901c94508061287d90615197565b90506127e7565b50600084146128c8576040517f08c379a00000000000000000000000000000000000000000000000000000000081526004016128bf9061520c565b60405180910390fd5b8091505092915050565b60606128e184846000856128ea565b90509392505050565b60608247101561292f576040517f08c379a00000000000000000000000000000000000000000000000000000000081526004016129269061529e565b60405180910390fd5b6000808673ffffffffffffffffffffffffffffffffffffffff16858760405161295891906147a2565b60006040518083038185875af1925050503d8060008114612995576040519150601f19603f3d011682016040523d82523d6000602084013e61299a565b606091505b50915091506129ab878383876129b7565b92505050949350505050565b60608315612a19576000835103612a11576129d185612a2c565b612a10576040517f08c379a0000000000000000000000000000000000000000000000000000000008152600401612a079061530a565b60405180910390fd5b5b829050612a24565b612a238383612a4f565b5b949350505050565b6000808273ffffffffffffffffffffffffffffffffffffffff163b119050919050565b600082511115612a625781518083602001fd5b806040517f08c379a0000000000000000000000000000000000000000000000000000000008152600401612a9691906147fd565b60405180910390fd5b6040518060800160405280600061ffff168152602001600073ffffffffffffffffffffffffffffffffffffffff16815260200160608152602001606081525090565b6040518060400160405280612af4612b83565b8152602001600060ff1681525090565b6040518060400160405280612b17612b41565b8152602001600081525090565b604051806040016040528060608152602001600060010b81525090565b604051806040016040528060006002811115612b6057612b5f613be6565b5b8152602001600073ffffffffffffffffffffffffffffffffffffffff1681525090565b604051806101400160405280600a905b612b9b612bb1565b815260200190600190039081612b935790505090565b604051806040016040528060008152602001600081525090565b6000604051905090565b600080fd5b600080fd5b600061ffff82169050919050565b612bf681612bdf565b8114612c0157600080fd5b50565b600081359050612c1381612bed565b92915050565b600073ffffffffffffffffffffffffffffffffffffffff82169050919050565b6000612c4482612c19565b9050919050565b612c5481612c39565b8114612c5f57600080fd5b50565b600081359050612c7181612c4b565b92915050565b60008060408385031215612c8e57612c8d612bd5565b5b6000612c9c85828601612c04565b9250506020612cad85828601612c62565b9150509250929050565b6000612cc282612c19565b9050919050565b612cd281612cb7565b8114612cdd57600080fd5b50565b600081359050612cef81612cc9565b92915050565b600060208284031215612d0b57612d0a612bd5565b5b6000612d1984828501612ce0565b91505092915050565b612d2b81612c39565b82525050565b6000602082019050612d466000830184612d22565b92915050565b6000819050919050565b612d5f81612d4c565b8114612d6a57600080fd5b50565b600081359050612d7c81612d56565b92915050565b600060208284031215612d9857612d97612bd5565b5b6000612da684828501612d6d565b91505092915050565b612db881612bdf565b82525050565b612dc781612c39565b82525050565b600081519050919050565b600082825260208201905092915050565b6000819050602082019050919050565b6000612e058383612dbe565b60208301905092915050565b6000602082019050919050565b6000612e2982612dcd565b612e338185612dd8565b9350612e3e83612de9565b8060005b83811015612e6f578151612e568882612df9565b9750612e6183612e11565b925050600181019050612e42565b5085935050505092915050565b6000608083016000830151612e946000860182612daf565b506020830151612ea76020860182612dbe565b5060408301518482036040860152612ebf8282612e1e565b91505060608301518482036060860152612ed98282612e1e565b9150508091505092915050565b60006020820190508181036000830152612f008184612e7c565b905092915050565b612f1181612d4c565b82525050565b6000602082019050612f2c6000830184612f08565b92915050565b600080fd5b600060208284031215612f4d57612f4c612f32565b5b81905092915050565b600060208284031215612f6c57612f6b612bd5565b5b600082013567ffffffffffffffff811115612f8a57612f89612bda565b5b612f9684828501612f37565b91505092915050565b612fa881612cb7565b82525050565b6000602082019050612fc36000830184612f9f565b92915050565b600080fd5b6000601f19601f8301169050919050565b7f4e487b7100000000000000000000000000000000000000000000000000000000600052604160045260246000fd5b61301782612fce565b810181811067ffffffffffffffff8211171561303657613035612fdf565b5b80604052505050565b6000613049612bcb565b9050613055828261300e565b919050565b600080fd5b600080fd5b600067ffffffffffffffff82111561307f5761307e612fdf565b5b602082029050602081019050919050565b600080fd5b600067ffffffffffffffff8211156130b0576130af612fdf565b5b602082029050602081019050919050565b600381106130ce57600080fd5b50565b6000813590506130e0816130c1565b92915050565b6000604082840312156130fc576130fb612fc9565b5b613106604061303f565b90506000613116848285016130d1565b600083015250602061312a84828501612c62565b60208301525092915050565b60008115159050919050565b61314b81613136565b811461315657600080fd5b50565b60008135905061316881613142565b92915050565b60006080828403121561318457613183612fc9565b5b61318e606061303f565b9050600061319e848285016130e6565b60008301525060406131b284828501612d6d565b60208301525060606131c684828501613159565b60408301525092915050565b60006131e56131e084613095565b61303f565b9050808382526020820190506080840283018581111561320857613207613090565b5b835b81811015613231578061321d888261316e565b84526020840193505060808101905061320a565b5050509392505050565b600082601f8301126132505761324f61305f565b5b81356132608482602086016131d2565b91505092915050565b600067ffffffffffffffff82111561328457613283612fdf565b5b602082029050602081019050919050565b60006132a86132a384613269565b61303f565b905080838252602082019050604084028301858111156132cb576132ca613090565b5b835b818110156132f457806132e088826130e6565b8452602084019350506040810190506132cd565b5050509392505050565b600082601f8301126133135761331261305f565b5b8135613323848260208601613295565b91505092915050565b600080fd5b600067ffffffffffffffff82111561334c5761334b612fdf565b5b61335582612fce565b9050602081019050919050565b82818337600083830152505050565b600061338461337f84613331565b61303f565b9050828152602081018484840111156133a05761339f61332c565b5b6133ab848285613362565b509392505050565b600082601f8301126133c8576133c761305f565b5b81356133d8848260208601613371565b91505092915050565b60008160010b9050919050565b6133f7816133e1565b811461340257600080fd5b50565b600081359050613414816133ee565b92915050565b600060c082840312156134305761342f612fc9565b5b61343a60c061303f565b9050600061344a84828501612c04565b600083015250602061345e84828501612c62565b602083015250604082013567ffffffffffffffff8111156134825761348161305a565b5b61348e8482850161323b565b604083015250606082013567ffffffffffffffff8111156134b2576134b161305a565b5b6134be848285016132fe565b606083015250608082013567ffffffffffffffff8111156134e2576134e161305a565b5b6134ee848285016133b3565b60808301525060a061350284828501613405565b60a08301525092915050565b600061352161351c84613064565b61303f565b9050808382526020820190506020840283018581111561354457613543613090565b5b835b8181101561358b57803567ffffffffffffffff8111156135695761356861305f565b5b808601613576898261341a565b85526020850194505050602081019050613546565b5050509392505050565b600082601f8301126135aa576135a961305f565b5b81356135ba84826020860161350e565b91505092915050565b6000602082840312156135d9576135d8612fc9565b5b6135e3602061303f565b9050600082013567ffffffffffffffff8111156136035761360261305a565b5b61360f84828501613595565b60008301525092915050565b60006060828403121561363157613630612fc9565b5b61363b604061303f565b9050600061364b848285016130e6565b600083015250604061365f84828501612d6d565b60208301525092915050565b60008060008060c0858703121561368557613684612bd5565b5b600061369387828801612c62565b94505060206136a487828801612d6d565b935050604085013567ffffffffffffffff8111156136c5576136c4612bda565b5b6136d1878288016135c3565b92505060606136e28782880161361b565b91505092959194509250565b60006020828403121561370457613703612bd5565b5b600061371284828501612c04565b91505092915050565b61372481613136565b82525050565b600060208201905061373f600083018461371b565b92915050565b6000819050919050565b61375881613745565b82525050565b6000819050919050565b600061378361377e61377984612bdf565b61375e565b612d4c565b9050919050565b61379381613768565b82525050565b60006040820190506137ae600083018561374f565b6137bb602083018461378a565b9392505050565b6000815190506137d181612c4b565b92915050565b6000602082840312156137ed576137ec612bd5565b5b60006137fb848285016137c2565b91505092915050565b600082825260208201905092915050565b7f63616e6e6f742072656d6f7665206c617465737420737465702061646472657360008201527f7300000000000000000000000000000000000000000000000000000000000000602082015250565b6000613871602183613804565b915061387c82613815565b604082019050919050565b600060208201905081810360008301526138a081613864565b9050919050565b6000819050919050565b60006138cc6138c76138c2846138a7565b61375e565b612d4c565b9050919050565b6138dc816138b1565b82525050565b60006060820190506138f7600083018661374f565b6139046020830185612d22565b61391160408301846138d3565b949350505050565b60008151905061392881613142565b92915050565b60006020828403121561394457613943612bd5565b5b600061395284828501613919565b91505092915050565b6000604082019050613970600083018561374f565b61397d6020830184612d22565b9392505050565b61398d81612bdf565b82525050565b60006040820190506139a86000830185613984565b6139b56020830184612d22565b9392505050565b60006139d76139d26139cd84612c19565b61375e565b612c19565b9050919050565b60006139e9826139bc565b9050919050565b60006139fb826139de565b9050919050565b613a0b816139f0565b82525050565b6000604082019050613a266000830185612d22565b613a336020830184613a02565b9392505050565b6000604082019050613a4f600083018561374f565b613a5c6020830184612f08565b9392505050565b600081519050613a7281612d56565b92915050565b60008060408385031215613a8f57613a8e612bd5565b5b6000613a9d85828601613a63565b9250506020613aae858286016137c2565b9150509250929050565b6000602082019050613acd600083018461374f565b92915050565b600060208284031215613ae957613ae8612bd5565b5b6000613af784828501613a63565b91505092915050565b60008060408385031215613b1757613b16612bd5565b5b6000613b25858286016137c2565b9250506020613b3685828601613a63565b9150509250929050565b7f4e487b7100000000000000000000000000000000000000000000000000000000600052603260045260246000fd5b7f4e487b7100000000000000000000000000000000000000000000000000000000600052601160045260246000fd5b6000613ba982612d4c565b91507fffffffffffffffffffffffffffffffffffffffffffffffffffffffffffffffff8203613bdb57613bda613b6f565b5b600182019050919050565b7f4e487b7100000000000000000000000000000000000000000000000000000000600052602160045260246000fd5b6000613c2136836135c3565b9050919050565b60038110613c3957613c38613be6565b5b50565b6000819050613c4a82613c28565b919050565b6000613c5a82613c3c565b9050919050565b613c6a81613c4f565b82525050565b604082016000820151613c866000850182613c61565b506020820151613c996020850182612dbe565b50505050565b613ca881612d4c565b82525050565b606082016000820151613cc46000850182613c70565b506020820151613cd76040850182613c9f565b50505050565b600060a082019050613cf26000830186612f08565b613cff6020830185612d22565b613d0c6040830184613cae565b949350505050565b6000606082019050613d29600083018661374f565b613d36602083018561378a565b613d436040830184612d22565b949350505050565b600081905092915050565b7f73746570426c61636b4c69737400000000000000000000000000000000000000600082015250565b6000613d8c600d83613d4b565b9150613d9782613d56565b600d82019050919050565b60008160f01b9050919050565b6000613dba82613da2565b9050919050565b613dd2613dcd82612bdf565b613daf565b82525050565b6000613de382613d7f565b9150613def8284613dc1565b60028201915081905092915050565b7f7374657057686974654c69737400000000000000000000000000000000000000600082015250565b6000613e34600d83613d4b565b9150613e3f82613dfe565b600d82019050919050565b6000613e5582613e27565b9150613e618284613dc1565b60028201915081905092915050565b7f5265656e7472616e637947756172643a207265656e7472616e742063616c6c00600082015250565b6000613ea6601f83613804565b9150613eb182613e70565b602082019050919050565b60006020820190508181036000830152613ed581613e99565b9050919050565b600081519050919050565b600082825260208201905092915050565b6000819050602082019050919050565b600081519050919050565b600082825260208201905092915050565b6000819050602082019050919050565b613f3d81613136565b82525050565b608082016000820151613f596000850182613c70565b506020820151613f6c6040850182613c9f565b506040820151613f7f6060850182613f34565b50505050565b6000613f918383613f43565b60808301905092915050565b6000602082019050919050565b6000613fb582613f08565b613fbf8185613f13565b9350613fca83613f24565b8060005b83811015613ffb578151613fe28882613f85565b9750613fed83613f9d565b925050600181019050613fce565b5085935050505092915050565b600081519050919050565b600082825260208201905092915050565b6000819050602082019050919050565b60006140408383613c70565b60408301905092915050565b6000602082019050919050565b600061406482614008565b61406e8185614013565b935061407983614024565b8060005b838110156140aa5781516140918882614034565b975061409c8361404c565b92505060018101905061407d565b5085935050505092915050565b600081519050919050565b600082825260208201905092915050565b60005b838110156140f15780820151818401526020810190506140d6565b60008484015250505050565b6000614108826140b7565b61411281856140c2565b93506141228185602086016140d3565b61412b81612fce565b840191505092915050565b61413f816133e1565b82525050565b600060c08301600083015161415d6000860182612daf565b5060208301516141706020860182612dbe565b50604083015184820360408601526141888282613faa565b915050606083015184820360608601526141a28282614059565b915050608083015184820360808601526141bc82826140fd565b91505060a08301516141d160a0860182614136565b508091505092915050565b60006141e88383614145565b905092915050565b6000602082019050919050565b600061420882613edc565b6142128185613ee7565b93508360208202850161422485613ef8565b8060005b85811015614260578484038952815161424185826141dc565b945061424c836141f0565b925060208a01995050600181019050614228565b50829750879550505050505092915050565b6000602083016000830151848203600086015261428f82826141fd565b9150508091505092915050565b60006040820190506142b16000830185612d22565b81810360208301526142c38184614272565b90509392505050565b600060c0830160008301516142e46000860182612daf565b5060208301516142f76020860182612dbe565b506040830151848203604086015261430f8282613faa565b915050606083015184820360608601526143298282614059565b9150506080830151848203608086015261434382826140fd565b91505060a083015161435860a0860182614136565b508091505092915050565b600081519050919050565b600082825260208201905092915050565b6000819050602082019050919050565b6060820160008201516143a56000850182613c70565b5060208201516143b86040850182613c9f565b50505050565b60006143ca838361438f565b60608301905092915050565b6000602082019050919050565b60006143ee82614363565b6143f8818561436e565b93506144038361437f565b8060005b8381101561443457815161441b88826143be565b9750614426836143d6565b925050600181019050614407565b5085935050505092915050565b600082825260208201905092915050565b600061445d82614363565b6144678185614441565b93506144728361437f565b8060005b838110156144a357815161448a88826143be565b9750614495836143d6565b925050600181019050614476565b5085935050505092915050565b600060408301600083015184820360008601526144cd8282614452565b91505060208301516144e26020860182614136565b508091505092915050565b600060c0820190506145026000830189613984565b818103602083015261451481886142cc565b90506145236040830187613984565b6145306060830186612d22565b818103608083015261454281856143e3565b905081810360a083015261455681846144b0565b9050979650505050505050565b7f737465702061646472657373206e6f7420696e207768697465206c6973740000600082015250565b6000614599601e83613804565b91506145a482614563565b602082019050919050565b600060208201905081810360008301526145c88161458c565b9050919050565b7f6162736f6c75746520616d6f756e74206578636565647320776f726b666c6f7760008201527f2061737365742062616c616e6365000000000000000000000000000000000000602082015250565b600061462b602e83613804565b9150614636826145cf565b604082019050919050565b6000602082019050818103600083015261465a8161461e565b9050919050565b600082825260208201905092915050565b600061467d82614008565b6146878185614661565b935061469283614024565b8060005b838110156146c35781516146aa8882614034565b97506146b58361404c565b925050600181019050614696565b5085935050505092915050565b600082825260208201905092915050565b60006146ec826140b7565b6146f681856146d0565b93506147068185602086016140d3565b61470f81612fce565b840191505092915050565b6000606082019050818103600083015261473481866143e3565b905081810360208301526147488185614672565b9050818103604083015261475c81846146e1565b9050949350505050565b600081905092915050565b600061477c826140b7565b6147868185614766565b93506147968185602086016140d3565b80840191505092915050565b60006147ae8284614771565b915081905092915050565b600081519050919050565b60006147cf826147b9565b6147d98185613804565b93506147e98185602086016140d3565b6147f281612fce565b840191505092915050565b6000602082019050818103600083015261481781846147c4565b905092915050565b600067ffffffffffffffff82111561483a57614839612fdf565b5b602082029050602081019050919050565b60008151905061485a816130c1565b92915050565b60006040828403121561487657614875612fc9565b5b614880604061303f565b905060006148908482850161484b565b60008301525060206148a4848285016137c2565b60208301525092915050565b6000606082840312156148c6576148c5612fc9565b5b6148d0604061303f565b905060006148e084828501614860565b60008301525060406148f484828501613a63565b60208301525092915050565b600061491361490e8461481f565b61303f565b9050808382526020820190506060840283018581111561493657614935613090565b5b835b8181101561495f578061494b88826148b0565b845260208401935050606081019050614938565b5050509392505050565b600082601f83011261497e5761497d61305f565b5b815161498e848260208601614900565b91505092915050565b6000815190506149a6816133ee565b92915050565b6000604082840312156149c2576149c1612fc9565b5b6149cc604061303f565b9050600082015167ffffffffffffffff8111156149ec576149eb61305a565b5b6149f884828501614969565b6000830152506020614a0c84828501614997565b60208301525092915050565b600060208284031215614a2e57614a2d612bd5565b5b600082015167ffffffffffffffff811115614a4c57614a4b612bda565b5b614a58848285016149ac565b91505092915050565b6000614a6c82612d4c565b9150614a7783612d4c565b9250828203905081811115614a8f57614a8e613b6f565b5b92915050565b604082016000820151614aab6000850182613c61565b506020820151614abe6020850182612dbe565b50505050565b600060a082019050614ad96000830187614a95565b614ae66040830186612f08565b614af36060830185612f08565b614b006080830184612f08565b95945050505050565b7f636f6d7075746564206e61746976652062616c616e636520697320677265617460008201527f6572207468616e2061637475616c2062616c616e636500000000000000000000602082015250565b6000614b65603683613804565b9150614b7082614b09565b604082019050919050565b60006020820190508181036000830152614b9481614b58565b9050919050565b50565b6000614bab600083614766565b9150614bb682614b9b565b600082019050919050565b6000614bcc82614b9e565b9150819050919050565b7f756e6b6e6f776e206173736574207479706520696e20617373657442616c616e60008201527f6365730000000000000000000000000000000000000000000000000000000000602082015250565b6000614c32602383613804565b9150614c3d82614bd6565b604082019050919050565b60006020820190508181036000830152614c6181614c25565b9050919050565b600060ff82169050919050565b6000614c8082614c68565b915060ff8203614c9357614c92613b6f565b5b600182019050919050565b7f746f6f206d616e7920746f6b656e2062616c616e636573000000000000000000600082015250565b6000614cd4601783613804565b9150614cdf82614c9e565b602082019050919050565b60006020820190508181036000830152614d0381614cc7565b9050919050565b6000614d15826147b9565b614d1f8185613d4b565b9350614d2f8185602086016140d3565b80840191505092915050565b7f206173736574547970653d000000000000000000000000000000000000000000815250565b7f206173736574416464726573733d000000000000000000000000000000000000815250565b7f2076616c75657320000000000000000000000000000000000000000000000000815250565b7f2c20000000000000000000000000000000000000000000000000000000000000815250565b6000614ddf8288614d0a565b9150614dea82614d3b565b600b82019150614dfa8287614d0a565b9150614e0582614d61565b600e82019150614e158286614d0a565b9150614e2082614d87565b600882019150614e308285614d0a565b9150614e3b82614dad565b600282019150614e4b8284614d0a565b91508190509695505050505050565b6000614e6582612bdf565b915061ffff8203614e7957614e78613b6f565b5b600182019050919050565b7f70657263656e74206d757374206265206265747765656e203020616e6420313060008201527f3030303000000000000000000000000000000000000000000000000000000000602082015250565b6000614ee0602483613804565b9150614eeb82614e84565b604082019050919050565b60006020820190508181036000830152614f0f81614ed3565b9050919050565b6000614f2182612d4c565b9150614f2c83612d4c565b9250828202614f3a81612d4c565b91508282048414831517614f5157614f50613b6f565b5b5092915050565b7f4e487b7100000000000000000000000000000000000000000000000000000000600052601260045260246000fd5b6000614f9282612d4c565b9150614f9d83612d4c565b925082614fad57614fac614f58565b5b828204905092915050565b7f696e646578206f7574206f6620626f756e6473207768696c652061636365737360008201527f696e672061737365742062616c616e6365730000000000000000000000000000602082015250565b6000615014603283613804565b915061501f82614fb8565b604082019050919050565b6000602082019050818103600083015261504381615007565b9050919050565b600060408201905061505f6000830185612d22565b61506c6020830184612f08565b9392505050565b600061507e82614c68565b915061508983614c68565b9250828203905060ff8111156150a2576150a1613b6f565b5b92915050565b60006150b382614c68565b9150600082036150c6576150c5613b6f565b5b600182039050919050565b7f5361666545524332303a204552433230206f7065726174696f6e20646964206e60008201527f6f74207375636365656400000000000000000000000000000000000000000000602082015250565b600061512d602a83613804565b9150615138826150d1565b604082019050919050565b6000602082019050818103600083015261515c81615120565b9050919050565b600061516e82612d4c565b915061517983612d4c565b925082820190508082111561519157615190613b6f565b5b92915050565b60006151a282612d4c565b9150600082036151b5576151b4613b6f565b5b600182039050919050565b7f537472696e67733a20686578206c656e67746820696e73756666696369656e74600082015250565b60006151f6602083613804565b9150615201826151c0565b602082019050919050565b60006020820190508181036000830152615225816151e9565b9050919050565b7f416464726573733a20696e73756666696369656e742062616c616e636520666f60008201527f722063616c6c0000000000000000000000000000000000000000000000000000602082015250565b6000615288602683613804565b91506152938261522c565b604082019050919050565b600060208201905081810360008301526152b78161527b565b9050919050565b7f416464726573733a2063616c6c20746f206e6f6e2d636f6e7472616374000000600082015250565b60006152f4601d83613804565b91506152ff826152be565b602082019050919050565b60006020820190508181036000830152615323816152e7565b905091905056fea264697066735822122092ce2b3ef2296e2fe176aba37dd5c0f725eaa1da9ea36bf2dd5bc539d73bc9e764736f6c63430008120033",
  "devdoc": {
    "events": {
      "RemainingAsset((uint8,address),uint256,uint256,uint256)": {
        "params": {
          "asset": "The asset.",
          "feeAmount": "The portion of the total amount that FMP will keep as a fee.",
          "totalAmount": "The total amount of the asset.",
          "userAmount": "The portion of the total amount that is sent to the user."
        }
      },
      "WorkflowContinuation(uint256,address,((uint8,address),uint256))": {
        "params": {
          "nonce": "The nonce provided by the caller on the source chain, used to correlate the source chain workflow segment with this segment.",
          "startingAsset": "The asset that was transferred from the source chain to this chain"
        }
      },
      "WorkflowExecution(address,((uint16,address,((uint8,address),uint256,bool)[],(uint8,address)[],bytes,int16)[]))": {
        "params": {
          "userAddress": "The user for which this workflow is executing.",
          "workflow": "The workflow."
        }
      },
      "WorkflowStepExecution(uint16,(uint16,address,((uint8,address),uint256,bool)[],(uint8,address)[],bytes,int16),uint16,address,((uint8,address),uint256)[],(((uint8,address),uint256)[],int16))": {
        "params": {
          "inputAssetAmounts": "The input assets, with the absolute amount of each asset.",
          "result": "The result returned form the step invocation.",
          "step": "The step configuration.",
          "stepAddress": "The address of the step used for this invocation.",
          "stepId": "The logical id of the step (also repeated in the step param but duplicated here for convenience).",
          "stepIndex": "The index of the step in the Workflow.steps array."
        }
      }
    },
    "kind": "dev",
    "methods": {
      "getStepAddress(uint16)": {
        "details": "Retrieve the address associated with a stepId"
      },
      "getStepCount()": {
        "details": "getStepCount getStepInfoAt together allow enumeration of all steps"
      },
      "setStepAddress(uint16,address)": {
        "details": "Associate a new address with a stepId"
      }
    },
    "version": 1
  },
  "userdoc": {
    "events": {
      "RemainingAsset((uint8,address),uint256,uint256,uint256)": {
        "notice": "This event is emitted after the workflow has completed, once for each asset ramining with a non-zero amount."
      },
      "WorkflowContinuation(uint256,address,((uint8,address),uint256))": {
        "notice": "This event is emitted when this is a continuation of a workflow from another chain"
      },
      "WorkflowExecution(address,((uint16,address,((uint8,address),uint256,bool)[],(uint8,address)[],bytes,int16)[]))": {
        "notice": "This event is emitted when a workflow execution begins."
      },
      "WorkflowStepExecution(uint16,(uint16,address,((uint8,address),uint256,bool)[],(uint8,address)[],bytes,int16),uint16,address,((uint8,address),uint256)[],(((uint8,address),uint256)[],int16))": {
        "notice": "This event is emitted when immediately after invoking a step in the workflow."
      }
    },
    "kind": "user",
    "methods": {},
    "version": 1
  },
  "storageLayout": {
    "storage": [
      {
        "astId": 6893,
        "contract": "contracts/WorkflowRunner.sol:WorkflowRunner",
        "label": "owner",
        "offset": 0,
        "slot": "0",
        "type": "t_address_payable"
      },
      {
        "astId": 5659,
        "contract": "contracts/WorkflowRunner.sol:WorkflowRunner",
        "label": "eternalStorageAddress",
        "offset": 0,
        "slot": "1",
        "type": "t_address"
      },
      {
        "astId": 5661,
        "contract": "contracts/WorkflowRunner.sol:WorkflowRunner",
        "label": "upstreamAddress",
        "offset": 0,
        "slot": "2",
        "type": "t_address"
      },
      {
        "astId": 5663,
        "contract": "contracts/WorkflowRunner.sol:WorkflowRunner",
        "label": "isUserProxy",
        "offset": 20,
        "slot": "2",
        "type": "t_bool"
      },
      {
        "astId": 159,
        "contract": "contracts/WorkflowRunner.sol:WorkflowRunner",
        "label": "_status",
        "offset": 0,
        "slot": "3",
        "type": "t_uint256"
      }
    ],
    "types": {
      "t_address": {
        "encoding": "inplace",
        "label": "address",
        "numberOfBytes": "20"
      },
      "t_address_payable": {
        "encoding": "inplace",
        "label": "address payable",
        "numberOfBytes": "20"
      },
      "t_bool": {
        "encoding": "inplace",
        "label": "bool",
        "numberOfBytes": "1"
      },
      "t_uint256": {
        "encoding": "inplace",
        "label": "uint256",
        "numberOfBytes": "32"
      }
    }
  }
}