{
  "address": "0x5DE1dF35467c24C024E598ae6a2FB98240e62EC7",
  "abi": [
    {
      "inputs": [
        {
          "internalType": "address payable",
          "name": "_frontDoorAddress",
          "type": "address"
        }
      ],
      "stateMutability": "nonpayable",
      "type": "constructor"
    },
    {
      "anonymous": false,
      "inputs": [
        {
          "indexed": false,
          "internalType": "uint256",
          "name": "oldFee",
          "type": "uint256"
        },
        {
          "indexed": false,
          "internalType": "bool",
          "name": "oldFeeIsPercent",
          "type": "bool"
        },
        {
          "indexed": false,
          "internalType": "uint256",
          "name": "newFee",
          "type": "uint256"
        },
        {
          "indexed": false,
          "internalType": "bool",
          "name": "newFeeIsPercent",
          "type": "bool"
        }
      ],
      "name": "DefaultFeeUpdated",
      "type": "event"
    },
    {
      "anonymous": false,
      "inputs": [
        {
          "indexed": false,
          "internalType": "address",
          "name": "sender",
          "type": "address"
        },
        {
          "indexed": false,
          "internalType": "address",
          "name": "newOwner",
          "type": "address"
        }
      ],
      "name": "LogNewOwner",
      "type": "event"
    },
    {
      "anonymous": false,
      "inputs": [
        {
          "indexed": false,
          "internalType": "uint16",
          "name": "stepTypeId",
          "type": "uint16"
        },
        {
          "indexed": false,
          "internalType": "address",
          "name": "stepAddress",
          "type": "address"
        }
      ],
      "name": "StepAddressSetEvent",
      "type": "event"
    },
    {
      "anonymous": false,
      "inputs": [
        {
          "indexed": false,
          "internalType": "uint16",
          "name": "stepTypeId",
          "type": "uint16"
        },
        {
          "indexed": false,
          "internalType": "uint256",
          "name": "oldFee",
          "type": "uint256"
        },
        {
          "indexed": false,
          "internalType": "bool",
          "name": "oldFeeIsPercent",
          "type": "bool"
        },
        {
          "indexed": false,
          "internalType": "uint256",
          "name": "newFee",
          "type": "uint256"
        },
        {
          "indexed": false,
          "internalType": "bool",
          "name": "newFeeIsPercent",
          "type": "bool"
        }
      ],
      "name": "StepFeeUpdated",
      "type": "event"
    },
    {
      "inputs": [
        {
          "internalType": "address",
          "name": "runnerAddress",
          "type": "address"
        }
      ],
      "name": "addRunnerAddress",
      "outputs": [],
      "stateMutability": "nonpayable",
      "type": "function"
    },
    {
      "inputs": [],
      "name": "eternalStorageAddress",
      "outputs": [
        {
          "internalType": "address",
          "name": "",
          "type": "address"
        }
      ],
      "stateMutability": "view",
      "type": "function"
    },
    {
      "inputs": [],
      "name": "frontDoorAddress",
      "outputs": [
        {
          "internalType": "address",
          "name": "",
          "type": "address"
        }
      ],
      "stateMutability": "view",
      "type": "function"
    },
    {
      "inputs": [],
      "name": "getDefaultFee",
      "outputs": [
        {
          "internalType": "uint256",
          "name": "",
          "type": "uint256"
        },
        {
          "internalType": "bool",
          "name": "",
          "type": "bool"
        }
      ],
      "stateMutability": "view",
      "type": "function"
    },
    {
      "inputs": [],
      "name": "getRunnerAddresses",
      "outputs": [
        {
          "internalType": "address[]",
          "name": "",
          "type": "address[]"
        }
      ],
      "stateMutability": "view",
      "type": "function"
    },
    {
      "inputs": [
        {
          "internalType": "uint16",
          "name": "stepTypeId",
          "type": "uint16"
        }
      ],
      "name": "getStepAddress",
      "outputs": [
        {
          "internalType": "address",
          "name": "",
          "type": "address"
        }
      ],
      "stateMutability": "view",
      "type": "function"
    },
    {
      "inputs": [],
      "name": "getStepCount",
      "outputs": [
        {
          "internalType": "uint256",
          "name": "",
          "type": "uint256"
        }
      ],
      "stateMutability": "view",
      "type": "function"
    },
    {
      "inputs": [
        {
          "internalType": "uint16",
          "name": "stepTypeId",
          "type": "uint16"
        }
      ],
      "name": "getStepFee",
      "outputs": [
        {
          "internalType": "uint256",
          "name": "",
          "type": "uint256"
        },
        {
          "internalType": "bool",
          "name": "",
          "type": "bool"
        }
      ],
      "stateMutability": "view",
      "type": "function"
    },
    {
      "inputs": [
        {
          "internalType": "uint256",
          "name": "index",
          "type": "uint256"
        }
      ],
      "name": "getStepInfoAt",
      "outputs": [
        {
          "components": [
            {
              "internalType": "uint16",
              "name": "stepTypeId",
              "type": "uint16"
            },
            {
              "internalType": "bool",
              "name": "feeIsPercent",
              "type": "bool"
            },
            {
              "internalType": "uint256",
              "name": "fee",
              "type": "uint256"
            },
            {
              "internalType": "address",
              "name": "latest",
              "type": "address"
            },
            {
              "internalType": "address[]",
              "name": "whitelist",
              "type": "address[]"
            },
            {
              "internalType": "address[]",
              "name": "blacklist",
              "type": "address[]"
            }
          ],
          "internalType": "struct StepInfo",
          "name": "",
          "type": "tuple"
        }
      ],
      "stateMutability": "view",
      "type": "function"
    },
    {
      "inputs": [],
      "name": "getSubscribers",
      "outputs": [
        {
          "internalType": "address[]",
          "name": "",
          "type": "address[]"
        }
      ],
      "stateMutability": "view",
      "type": "function"
    },
    {
      "inputs": [],
      "name": "isUserProxy",
      "outputs": [
        {
          "internalType": "bool",
          "name": "",
          "type": "bool"
        }
      ],
      "stateMutability": "view",
      "type": "function"
    },
    {
      "inputs": [],
      "name": "owner",
      "outputs": [
        {
          "internalType": "address payable",
          "name": "",
          "type": "address"
        }
      ],
      "stateMutability": "view",
      "type": "function"
    },
    {
      "inputs": [
        {
          "internalType": "address",
          "name": "runnerAddress",
          "type": "address"
        }
      ],
      "name": "removeRunnerAddress",
      "outputs": [],
      "stateMutability": "nonpayable",
      "type": "function"
    },
    {
      "inputs": [
        {
          "internalType": "uint16",
          "name": "stepTypeId",
          "type": "uint16"
        },
        {
          "internalType": "address",
          "name": "stepAddress",
          "type": "address"
        }
      ],
      "name": "removeStepAddress",
      "outputs": [],
      "stateMutability": "nonpayable",
      "type": "function"
    },
    {
      "inputs": [
        {
          "internalType": "uint256",
          "name": "fee",
          "type": "uint256"
        },
        {
          "internalType": "bool",
          "name": "feeIsPercent",
          "type": "bool"
        }
      ],
      "name": "setDefaultFee",
      "outputs": [],
      "stateMutability": "nonpayable",
      "type": "function"
    },
    {
      "inputs": [
        {
          "internalType": "address payable",
          "name": "newOwner",
          "type": "address"
        }
      ],
      "name": "setOwner",
      "outputs": [],
      "stateMutability": "nonpayable",
      "type": "function"
    },
    {
      "inputs": [
        {
          "internalType": "uint16",
          "name": "stepTypeId",
          "type": "uint16"
        },
        {
          "internalType": "address",
          "name": "stepAddress",
          "type": "address"
        }
      ],
      "name": "setStepAddress",
      "outputs": [],
      "stateMutability": "nonpayable",
      "type": "function"
    },
    {
      "inputs": [
        {
          "components": [
            {
              "internalType": "uint16",
              "name": "stepTypeId",
              "type": "uint16"
            },
            {
              "internalType": "bool",
              "name": "feeIsPercent",
              "type": "bool"
            },
            {
              "internalType": "uint256",
              "name": "fee",
              "type": "uint256"
            }
          ],
          "internalType": "struct StepFee[]",
          "name": "stepFeeUpdates",
          "type": "tuple[]"
        }
      ],
      "name": "setStepFees",
      "outputs": [],
      "stateMutability": "nonpayable",
      "type": "function"
    },
    {
      "inputs": [
        {
          "internalType": "address[]",
          "name": "newSubscribers",
          "type": "address[]"
        }
      ],
      "name": "updateSubscribers",
      "outputs": [],
      "stateMutability": "nonpayable",
      "type": "function"
    },
    {
      "inputs": [],
      "name": "upstreamAddress",
      "outputs": [
        {
          "internalType": "address",
          "name": "",
          "type": "address"
        }
      ],
      "stateMutability": "view",
      "type": "function"
    }
  ],
  "transactionHash": "0xce202bc05218fd33f021f5080f976a10158200b45b3e37d911f1d0b2b6f11bfe",
  "args": [
    "0x696b93e408acf1c066839690A365e78C4492c276"
  ],
  "numDeployments": 3,
  "solcInputHash": "d9185c3cd17850e7ae68061d865bb58e",
  "bytecode": "0x60a06040523480156200001157600080fd5b50604051620037e7380380620037e7833981810160405281019062000037919062000234565b338173ffffffffffffffffffffffffffffffffffffffff1663384782fe6040518163ffffffff1660e01b8152600401602060405180830381865afa15801562000084573d6000803e3d6000fd5b505050506040513d601f19601f82011682018060405250810190620000aa9190620002ab565b60008083806000806101000a81548173ffffffffffffffffffffffffffffffffffffffff021916908373ffffffffffffffffffffffffffffffffffffffff1602179055505082600160006101000a81548173ffffffffffffffffffffffffffffffffffffffff021916908373ffffffffffffffffffffffffffffffffffffffff16021790555081600260006101000a81548173ffffffffffffffffffffffffffffffffffffffff021916908373ffffffffffffffffffffffffffffffffffffffff16021790555080600260146101000a81548160ff021916908315150217905550505050508073ffffffffffffffffffffffffffffffffffffffff1660808173ffffffffffffffffffffffffffffffffffffffff168152505050620002dd565b600080fd5b600073ffffffffffffffffffffffffffffffffffffffff82169050919050565b6000620001fc82620001cf565b9050919050565b6200020e81620001ef565b81146200021a57600080fd5b50565b6000815190506200022e8162000203565b92915050565b6000602082840312156200024d576200024c620001ca565b5b60006200025d848285016200021d565b91505092915050565b60006200027382620001cf565b9050919050565b620002858162000266565b81146200029157600080fd5b50565b600081519050620002a5816200027a565b92915050565b600060208284031215620002c457620002c3620001ca565b5b6000620002d48482850162000294565b91505092915050565b6080516134ee620002f9600039600061100101526134ee6000f3fe608060405234801561001057600080fd5b506004361061012c5760003560e01c8063699a2057116100ad5780639566b960116100715780639566b960146102fa5780639c98a5621461032b578063c4006c8114610347578063f903397714610363578063ff05c2a8146103935761012c565b8063699a2057146102565780636fd63351146102865780638a04867b146102a45780638da5cb5b146102c0578063910752cd146102de5761012c565b806332b56aaf116100f457806332b56aaf146101c457806333905e84146101e2578063384782fe146101fe57806350fd910e1461021c57806354f09a011461023a5761012c565b806305cc61ad14610131578063073728ea1461014f5780630f53b8541461016d57806313af40351461018957806321bacf28146101a5575b600080fd5b6101396103b1565b604051610146919061269c565b60405180910390f35b6101576105da565b604051610164919061269c565b60405180910390f35b6101876004803603810190610182919061272e565b610809565b005b6101a3600480360381019061019e91906127ac565b610b67565b005b6101ad610c74565b6040516101bb92919061280d565b60405180910390f35b6101cc610caa565b6040516101d99190612845565b60405180910390f35b6101fc60048036038101906101f791906128c5565b610cd0565b005b610206610fd9565b6040516102139190612845565b60405180910390f35b610224610fff565b6040516102319190612845565b60405180910390f35b610254600480360381019061024f9190612968565b611023565b005b610270600480360381019061026b91906129e1565b6113bc565b60405161027d9190612b3a565b60405180910390f35b61028e6118a6565b60405161029b9190612b5c565b60405180910390f35b6102be60048036038101906102b99190612b77565b611971565b005b6102c8611a99565b6040516102d59190612bb3565b60405180910390f35b6102f860048036038101906102f39190612b77565b611abd565b005b610314600480360381019061030f9190612bce565b611bd0565b60405161032292919061280d565b60405180910390f35b61034560048036038101906103409190612c27565b611c08565b005b610361600480360381019061035c919061272e565b611e5f565b005b61037d60048036038101906103789190612bce565b612164565b60405161038a9190612845565b60405180910390f35b61039b612199565b6040516103a89190612c67565b60405180910390f35b60606000600160009054906101000a900473ffffffffffffffffffffffffffffffffffffffff16905060008173ffffffffffffffffffffffffffffffffffffffff16639b0d10fd7f948010e77eb10f7971665add956670a8ef333384c23ce885d3f97f3020357b5d6040518263ffffffff1660e01b81526004016104359190612c9b565b602060405180830381865afa158015610452573d6000803e3d6000fd5b505050506040513d601f19601f820116820180604052508101906104769190612ccb565b905060008167ffffffffffffffff81111561049457610493612cf8565b5b6040519080825280602002602001820160405280156104c25781602001602082028036833780820191505090505b50905060005b828110156105d05760008473ffffffffffffffffffffffffffffffffffffffff1663619f6cc67f948010e77eb10f7971665add956670a8ef333384c23ce885d3f97f3020357b5d846040518363ffffffff1660e01b815260040161052d929190612d27565b6040805180830381865afa158015610549573d6000803e3d6000fd5b505050506040513d601f19601f8201168201806040525081019061056d9190612d65565b5090508083838151811061058457610583612da5565b5b602002602001019073ffffffffffffffffffffffffffffffffffffffff16908173ffffffffffffffffffffffffffffffffffffffff168152505050806105c990612e03565b90506104c8565b5080935050505090565b60606000600160009054906101000a900473ffffffffffffffffffffffffffffffffffffffff16905060008173ffffffffffffffffffffffffffffffffffffffff16639b0d10fd7f32b7d36eef9191cec628a9b46ddda74b702cf693ad48a065f3f9e5fcc4ea08f560001b6040518263ffffffff1660e01b81526004016106619190612c9b565b602060405180830381865afa15801561067e573d6000803e3d6000fd5b505050506040513d601f19601f820116820180604052508101906106a29190612ccb565b905060008167ffffffffffffffff8111156106c0576106bf612cf8565b5b6040519080825280602002602001820160405280156106ee5781602001602082028036833780820191505090505b50905060005b828110156107ff5760008473ffffffffffffffffffffffffffffffffffffffff1663619f6cc67f32b7d36eef9191cec628a9b46ddda74b702cf693ad48a065f3f9e5fcc4ea08f560001b846040518363ffffffff1660e01b815260040161075c929190612d27565b6040805180830381865afa158015610778573d6000803e3d6000fd5b505050506040513d601f19601f8201168201806040525081019061079c9190612d65565b509050808383815181106107b3576107b2612da5565b5b602002602001019073ffffffffffffffffffffffffffffffffffffffff16908173ffffffffffffffffffffffffffffffffffffffff168152505050806107f890612e03565b90506106f4565b5080935050505090565b60008054906101000a900473ffffffffffffffffffffffffffffffffffffffff1673ffffffffffffffffffffffffffffffffffffffff163373ffffffffffffffffffffffffffffffffffffffff161461086157600080fd5b6000600160009054906101000a900473ffffffffffffffffffffffffffffffffffffffff16905060008173ffffffffffffffffffffffffffffffffffffffff1663a2ccb5227fc94d198e6194ea38dbd900920351d7f8e6c6d85b1d3b803fb93c54be008e11fd60001b866040518363ffffffff1660e01b81526004016108e8929190612e86565b602060405180830381865afa158015610905573d6000803e3d6000fd5b505050506040513d601f19601f820116820180604052508101906109299190612eaf565b90508073ffffffffffffffffffffffffffffffffffffffff168373ffffffffffffffffffffffffffffffffffffffff1603610999576040517f08c379a000000000000000000000000000000000000000000000000000000000815260040161099090612f5f565b60405180910390fd5b8173ffffffffffffffffffffffffffffffffffffffff1663ba4014fd6109be866121ac565b8560006040518463ffffffff1660e01b81526004016109df93929190612fba565b6020604051808303816000875af11580156109fe573d6000803e3d6000fd5b505050506040513d601f19601f82011682018060405250810190610a229190613006565b508173ffffffffffffffffffffffffffffffffffffffff166381425763610a48866121dc565b856040518363ffffffff1660e01b8152600401610a66929190613033565b600060405180830381600087803b158015610a8057600080fd5b505af1158015610a94573d6000803e3d6000fd5b505050508173ffffffffffffffffffffffffffffffffffffffff1663814257637f18fa4b105101c66136345367eab77cd274c0766ec0596b7e8aadd79e9913955560001b856040518363ffffffff1660e01b8152600401610af6929190613033565b600060405180830381600087803b158015610b1057600080fd5b505af1158015610b24573d6000803e3d6000fd5b505050507f5c250b46b4ab7901af16e469d68737ca13fe0eac242b19f323f7d3608565be7f8484604051610b5992919061306b565b60405180910390a150505050565b60008054906101000a900473ffffffffffffffffffffffffffffffffffffffff1673ffffffffffffffffffffffffffffffffffffffff163373ffffffffffffffffffffffffffffffffffffffff1614610bbf57600080fd5b600073ffffffffffffffffffffffffffffffffffffffff168173ffffffffffffffffffffffffffffffffffffffff1603610bf857600080fd5b806000806101000a81548173ffffffffffffffffffffffffffffffffffffffff021916908373ffffffffffffffffffffffffffffffffffffffff1602179055507f1f8d7d25344642d919d55999e4664aa452a5f424bc0936ceb9c2b300db7dcbd93382604051610c699291906130e9565b60405180910390a150565b600080610ca2600160009054906101000a900473ffffffffffffffffffffffffffffffffffffffff1661220c565b915091509091565b600260009054906101000a900473ffffffffffffffffffffffffffffffffffffffff1681565b6000600160009054906101000a900473ffffffffffffffffffffffffffffffffffffffff1690505b600115610eeb5760008173ffffffffffffffffffffffffffffffffffffffff16639b0d10fd7f948010e77eb10f7971665add956670a8ef333384c23ce885d3f97f3020357b5d6040518263ffffffff1660e01b8152600401610d5a9190612c9b565b602060405180830381865afa158015610d77573d6000803e3d6000fd5b505050506040513d601f19601f82011682018060405250810190610d9b9190612ccb565b905060008103610dab5750610eeb565b60008273ffffffffffffffffffffffffffffffffffffffff1663619f6cc67f948010e77eb10f7971665add956670a8ef333384c23ce885d3f97f3020357b5d600185610df79190613112565b6040518363ffffffff1660e01b8152600401610e14929190612d27565b6040805180830381865afa158015610e30573d6000803e3d6000fd5b505050506040513d601f19601f82011682018060405250810190610e549190612d65565b5090508273ffffffffffffffffffffffffffffffffffffffff1663814257637f948010e77eb10f7971665add956670a8ef333384c23ce885d3f97f3020357b5d836040518363ffffffff1660e01b8152600401610eb2929190613033565b600060405180830381600087803b158015610ecc57600080fd5b505af1158015610ee0573d6000803e3d6000fd5b505050505050610cf8565b60005b83839050811015610fd3578173ffffffffffffffffffffffffffffffffffffffff1663ba4014fd7f948010e77eb10f7971665add956670a8ef333384c23ce885d3f97f3020357b5d868685818110610f4957610f48612da5565b5b9050602002016020810190610f5e9190612b77565b60006040518463ffffffff1660e01b8152600401610f7e93929190612fba565b6020604051808303816000875af1158015610f9d573d6000803e3d6000fd5b505050506040513d601f19601f82011682018060405250810190610fc19190613006565b5080610fcc90612e03565b9050610eee565b50505050565b600160009054906101000a900473ffffffffffffffffffffffffffffffffffffffff1681565b7f000000000000000000000000000000000000000000000000000000000000000081565b60008054906101000a900473ffffffffffffffffffffffffffffffffffffffff1673ffffffffffffffffffffffffffffffffffffffff163373ffffffffffffffffffffffffffffffffffffffff161461107b57600080fd5b6000600160009054906101000a900473ffffffffffffffffffffffffffffffffffffffff16905060005b838390508110156113b6578383828181106110c3576110c2612da5565b5b90506060020160200160208101906110db9190613146565b80611124575060007f800000000000000000000000000000000000000000000000000000000000000085858481811061111757611116612da5565b5b9050606002016040013516145b611163576040517f08c379a000000000000000000000000000000000000000000000000000000000815260040161115a906131bf565b60405180910390fd5b600061119885858481811061117b5761117a612da5565b5b90506060020160000160208101906111939190612bce565b6122a7565b905060008373ffffffffffffffffffffffffffffffffffffffff1663bd02d0f5836040518263ffffffff1660e01b81526004016111d59190612c9b565b602060405180830381865afa1580156111f2573d6000803e3d6000fd5b505050506040513d601f19601f820116820180604052508101906112169190612ccb565b9050600061126a8787868181106112305761122f612da5565b5b9050606002016040013588888781811061124d5761124c612da5565b5b90506060020160200160208101906112659190613146565b61230e565b90508181146113a25760008061127f8461234a565b915091507fe4bed5fed2349293688700d428390ab42256a50e167e7d49d77beec4fab218008989888181106112b7576112b6612da5565b5b90506060020160000160208101906112cf9190612bce565b83838c8c8b8181106112e4576112e3612da5565b5b905060600201604001358d8d8c81811061130157611300612da5565b5b90506060020160200160208101906113199190613146565b60405161132a9594939291906131df565b60405180910390a18673ffffffffffffffffffffffffffffffffffffffff1663e2a4853a86856040518363ffffffff1660e01b815260040161136d929190612d27565b600060405180830381600087803b15801561138757600080fd5b505af115801561139b573d6000803e3d6000fd5b5050505050505b505050806113af90612e03565b90506110a5565b50505050565b6113c461255a565b6000600160009054906101000a900473ffffffffffffffffffffffffffffffffffffffff1690506000808273ffffffffffffffffffffffffffffffffffffffff16634fcee0497fc94d198e6194ea38dbd900920351d7f8e6c6d85b1d3b803fb93c54be008e11fd60001b876040518363ffffffff1660e01b815260040161144c929190612d27565b6040805180830381865afa158015611468573d6000803e3d6000fd5b505050506040513d601f19601f8201168201806040525081019061148c9190613232565b91509150600061149b836121dc565b905060008473ffffffffffffffffffffffffffffffffffffffff16639b0d10fd836040518263ffffffff1660e01b81526004016114d89190612c9b565b602060405180830381865afa1580156114f5573d6000803e3d6000fd5b505050506040513d601f19601f820116820180604052508101906115199190612ccb565b905060008167ffffffffffffffff81111561153757611536612cf8565b5b6040519080825280602002602001820160405280156115655781602001602082028036833780820191505090505b50905060005b828110156116535760008773ffffffffffffffffffffffffffffffffffffffff1663619f6cc686846040518363ffffffff1660e01b81526004016115b0929190612d27565b6040805180830381865afa1580156115cc573d6000803e3d6000fd5b505050506040513d601f19601f820116820180604052508101906115f09190612d65565b5090508083838151811061160757611606612da5565b5b602002602001019073ffffffffffffffffffffffffffffffffffffffff16908173ffffffffffffffffffffffffffffffffffffffff1681525050508061164c90612e03565b905061156b565b50600061165f866121ac565b905060008773ffffffffffffffffffffffffffffffffffffffff16639b0d10fd836040518263ffffffff1660e01b815260040161169c9190612c9b565b602060405180830381865afa1580156116b9573d6000803e3d6000fd5b505050506040513d601f19601f820116820180604052508101906116dd9190612ccb565b905060008167ffffffffffffffff8111156116fb576116fa612cf8565b5b6040519080825280602002602001820160405280156117295781602001602082028036833780820191505090505b50905060005b828110156118175760008a73ffffffffffffffffffffffffffffffffffffffff1663619f6cc686846040518363ffffffff1660e01b8152600401611774929190612d27565b6040805180830381865afa158015611790573d6000803e3d6000fd5b505050506040513d601f19601f820116820180604052508101906117b49190612d65565b509050808383815181106117cb576117ca612da5565b5b602002602001019073ffffffffffffffffffffffffffffffffffffffff16908173ffffffffffffffffffffffffffffffffffffffff1681525050508061181090612e03565b905061172f565b50600080611847600160009054906101000a900473ffffffffffffffffffffffffffffffffffffffff168b6123ab565b915091506040518060c001604052808b61ffff16815260200182151581526020018381526020018a73ffffffffffffffffffffffffffffffffffffffff168152602001878152602001848152509b505050505050505050505050919050565b600080600160009054906101000a900473ffffffffffffffffffffffffffffffffffffffff1690508073ffffffffffffffffffffffffffffffffffffffff1663832860727fc94d198e6194ea38dbd900920351d7f8e6c6d85b1d3b803fb93c54be008e11fd60001b6040518263ffffffff1660e01b815260040161192a9190612c9b565b602060405180830381865afa158015611947573d6000803e3d6000fd5b505050506040513d601f19601f8201168201806040525081019061196b9190612ccb565b91505090565b60008054906101000a900473ffffffffffffffffffffffffffffffffffffffff1673ffffffffffffffffffffffffffffffffffffffff163373ffffffffffffffffffffffffffffffffffffffff16146119c957600080fd5b6000600160009054906101000a900473ffffffffffffffffffffffffffffffffffffffff1690508073ffffffffffffffffffffffffffffffffffffffff1663ba4014fd7f32b7d36eef9191cec628a9b46ddda74b702cf693ad48a065f3f9e5fcc4ea08f560001b8460006040518463ffffffff1660e01b8152600401611a5193929190612fba565b6020604051808303816000875af1158015611a70573d6000803e3d6000fd5b505050506040513d601f19601f82011682018060405250810190611a949190613006565b505050565b60008054906101000a900473ffffffffffffffffffffffffffffffffffffffff1681565b60008054906101000a900473ffffffffffffffffffffffffffffffffffffffff1673ffffffffffffffffffffffffffffffffffffffff163373ffffffffffffffffffffffffffffffffffffffff1614611b1557600080fd5b6000600160009054906101000a900473ffffffffffffffffffffffffffffffffffffffff1690508073ffffffffffffffffffffffffffffffffffffffff1663814257637f32b7d36eef9191cec628a9b46ddda74b702cf693ad48a065f3f9e5fcc4ea08f560001b846040518363ffffffff1660e01b8152600401611b9a929190613033565b600060405180830381600087803b158015611bb457600080fd5b505af1158015611bc8573d6000803e3d6000fd5b505050505050565b600080611bff600160009054906101000a900473ffffffffffffffffffffffffffffffffffffffff16846123ab565b91509150915091565b60008054906101000a900473ffffffffffffffffffffffffffffffffffffffff1673ffffffffffffffffffffffffffffffffffffffff163373ffffffffffffffffffffffffffffffffffffffff1614611c6057600080fd5b8080611c8e575060007f80000000000000000000000000000000000000000000000000000000000000008316145b611ccd576040517f08c379a0000000000000000000000000000000000000000000000000000000008152600401611cc4906131bf565b60405180910390fd5b6000600160009054906101000a900473ffffffffffffffffffffffffffffffffffffffff1690506000611d00848461230e565b90506000611d0c612449565b905060008373ffffffffffffffffffffffffffffffffffffffff1663bd02d0f5611d34612449565b6040518263ffffffff1660e01b8152600401611d509190612c9b565b602060405180830381865afa158015611d6d573d6000803e3d6000fd5b505050506040513d601f19601f82011682018060405250810190611d919190612ccb565b9050808314611e57578373ffffffffffffffffffffffffffffffffffffffff1663e2a4853a83856040518363ffffffff1660e01b8152600401611dd5929190612d27565b600060405180830381600087803b158015611def57600080fd5b505af1158015611e03573d6000803e3d6000fd5b50505050600080611e138561234a565b915091507feddfd5447e7ef2b1e4581f32575efd480d5c905f04eae3ff6ec3b90f19811e2b82828a8a604051611e4c9493929190613272565b60405180910390a150505b505050505050565b60008054906101000a900473ffffffffffffffffffffffffffffffffffffffff1673ffffffffffffffffffffffffffffffffffffffff163373ffffffffffffffffffffffffffffffffffffffff1614611eb757600080fd5b6000600160009054906101000a900473ffffffffffffffffffffffffffffffffffffffff1690508073ffffffffffffffffffffffffffffffffffffffff1663107f89ad7fc94d198e6194ea38dbd900920351d7f8e6c6d85b1d3b803fb93c54be008e11fd60001b85856040518463ffffffff1660e01b8152600401611f3e939291906132b7565b6020604051808303816000875af1158015611f5d573d6000803e3d6000fd5b505050506040513d601f19601f82011682018060405250810190611f819190613006565b508073ffffffffffffffffffffffffffffffffffffffff1663ba4014fd611fa7856121dc565b8460006040518463ffffffff1660e01b8152600401611fc893929190612fba565b6020604051808303816000875af1158015611fe7573d6000803e3d6000fd5b505050506040513d601f19601f8201168201806040525081019061200b9190613006565b508073ffffffffffffffffffffffffffffffffffffffff1663ba4014fd7f18fa4b105101c66136345367eab77cd274c0766ec0596b7e8aadd79e9913955560001b8460006040518463ffffffff1660e01b815260040161206d93929190612fba565b6020604051808303816000875af115801561208c573d6000803e3d6000fd5b505050506040513d601f19601f820116820180604052508101906120b09190613006565b508073ffffffffffffffffffffffffffffffffffffffff1663814257636120d6856121ac565b846040518363ffffffff1660e01b81526004016120f4929190613033565b600060405180830381600087803b15801561210e57600080fd5b505af1158015612122573d6000803e3d6000fd5b505050507f5c250b46b4ab7901af16e469d68737ca13fe0eac242b19f323f7d3608565be7f838360405161215792919061306b565b60405180910390a1505050565b6000612192600160009054906101000a900473ffffffffffffffffffffffffffffffffffffffff16836124ac565b9050919050565b600260149054906101000a900460ff1681565b6000816040516020016121bf919061337b565b604051602081830303815290604052805190602001209050919050565b6000816040516020016121ef91906133ed565b604051602081830303815290604052805190602001209050919050565b60008060008373ffffffffffffffffffffffffffffffffffffffff1663bd02d0f5612235612449565b6040518263ffffffff1660e01b81526004016122519190612c9b565b602060405180830381865afa15801561226e573d6000803e3d6000fd5b505050506040513d601f19601f820116820180604052508101906122929190612ccb565b905061229d8161234a565b9250925050915091565b60006040518060400160405280600881526020017f7374657046656573000000000000000000000000000000000000000000000000815250826040516020016122f1929190613479565b604051602081830303815290604052805190602001209050919050565b6000808390508215612340577f8000000000000000000000000000000000000000000000000000000000000000811790505b8091505092915050565b6000806000807f8000000000000000000000000000000000000000000000000000000000000000851611905060007f800000000000000000000000000000000000000000000000000000000000000019851690508082935093505050915091565b60008060008473ffffffffffffffffffffffffffffffffffffffff1663bd02d0f56123d5866122a7565b6040518263ffffffff1660e01b81526004016123f19190612c9b565b602060405180830381865afa15801561240e573d6000803e3d6000fd5b505050506040513d601f19601f820116820180604052508101906124329190612ccb565b905061243d8161234a565b92509250509250929050565b60006040518060400160405280600b81526020017f64656661756c744665657300000000000000000000000000000000000000000081525060405160200161249191906134a1565b60405160208183030381529060405280519060200120905090565b6000808390508073ffffffffffffffffffffffffffffffffffffffff1663a2ccb5227fc94d198e6194ea38dbd900920351d7f8e6c6d85b1d3b803fb93c54be008e11fd60001b856040518363ffffffff1660e01b8152600401612510929190612e86565b602060405180830381865afa15801561252d573d6000803e3d6000fd5b505050506040513d601f19601f820116820180604052508101906125519190612eaf565b91505092915050565b6040518060c00160405280600061ffff16815260200160001515815260200160008152602001600073ffffffffffffffffffffffffffffffffffffffff16815260200160608152602001606081525090565b600081519050919050565b600082825260208201905092915050565b6000819050602082019050919050565b600073ffffffffffffffffffffffffffffffffffffffff82169050919050565b6000612603826125d8565b9050919050565b612613816125f8565b82525050565b6000612625838361260a565b60208301905092915050565b6000602082019050919050565b6000612649826125ac565b61265381856125b7565b935061265e836125c8565b8060005b8381101561268f5781516126768882612619565b975061268183612631565b925050600181019050612662565b5085935050505092915050565b600060208201905081810360008301526126b6818461263e565b905092915050565b600080fd5b600080fd5b600061ffff82169050919050565b6126df816126c8565b81146126ea57600080fd5b50565b6000813590506126fc816126d6565b92915050565b61270b816125f8565b811461271657600080fd5b50565b60008135905061272881612702565b92915050565b60008060408385031215612745576127446126be565b5b6000612753858286016126ed565b925050602061276485828601612719565b9150509250929050565b6000612779826125d8565b9050919050565b6127898161276e565b811461279457600080fd5b50565b6000813590506127a681612780565b92915050565b6000602082840312156127c2576127c16126be565b5b60006127d084828501612797565b91505092915050565b6000819050919050565b6127ec816127d9565b82525050565b60008115159050919050565b612807816127f2565b82525050565b600060408201905061282260008301856127e3565b61282f60208301846127fe565b9392505050565b61283f816125f8565b82525050565b600060208201905061285a6000830184612836565b92915050565b600080fd5b600080fd5b600080fd5b60008083601f84011261288557612884612860565b5b8235905067ffffffffffffffff8111156128a2576128a1612865565b5b6020830191508360208202830111156128be576128bd61286a565b5b9250929050565b600080602083850312156128dc576128db6126be565b5b600083013567ffffffffffffffff8111156128fa576128f96126c3565b5b6129068582860161286f565b92509250509250929050565b60008083601f84011261292857612927612860565b5b8235905067ffffffffffffffff81111561294557612944612865565b5b6020830191508360608202830111156129615761296061286a565b5b9250929050565b6000806020838503121561297f5761297e6126be565b5b600083013567ffffffffffffffff81111561299d5761299c6126c3565b5b6129a985828601612912565b92509250509250929050565b6129be816127d9565b81146129c957600080fd5b50565b6000813590506129db816129b5565b92915050565b6000602082840312156129f7576129f66126be565b5b6000612a05848285016129cc565b91505092915050565b612a17816126c8565b82525050565b612a26816127f2565b82525050565b612a35816127d9565b82525050565b600082825260208201905092915050565b6000612a57826125ac565b612a618185612a3b565b9350612a6c836125c8565b8060005b83811015612a9d578151612a848882612619565b9750612a8f83612631565b925050600181019050612a70565b5085935050505092915050565b600060c083016000830151612ac26000860182612a0e565b506020830151612ad56020860182612a1d565b506040830151612ae86040860182612a2c565b506060830151612afb606086018261260a565b5060808301518482036080860152612b138282612a4c565b91505060a083015184820360a0860152612b2d8282612a4c565b9150508091505092915050565b60006020820190508181036000830152612b548184612aaa565b905092915050565b6000602082019050612b7160008301846127e3565b92915050565b600060208284031215612b8d57612b8c6126be565b5b6000612b9b84828501612719565b91505092915050565b612bad8161276e565b82525050565b6000602082019050612bc86000830184612ba4565b92915050565b600060208284031215612be457612be36126be565b5b6000612bf2848285016126ed565b91505092915050565b612c04816127f2565b8114612c0f57600080fd5b50565b600081359050612c2181612bfb565b92915050565b60008060408385031215612c3e57612c3d6126be565b5b6000612c4c858286016129cc565b9250506020612c5d85828601612c12565b9150509250929050565b6000602082019050612c7c60008301846127fe565b92915050565b6000819050919050565b612c9581612c82565b82525050565b6000602082019050612cb06000830184612c8c565b92915050565b600081519050612cc5816129b5565b92915050565b600060208284031215612ce157612ce06126be565b5b6000612cef84828501612cb6565b91505092915050565b7f4e487b7100000000000000000000000000000000000000000000000000000000600052604160045260246000fd5b6000604082019050612d3c6000830185612c8c565b612d4960208301846127e3565b9392505050565b600081519050612d5f81612702565b92915050565b60008060408385031215612d7c57612d7b6126be565b5b6000612d8a85828601612d50565b9250506020612d9b85828601612cb6565b9150509250929050565b7f4e487b7100000000000000000000000000000000000000000000000000000000600052603260045260246000fd5b7f4e487b7100000000000000000000000000000000000000000000000000000000600052601160045260246000fd5b6000612e0e826127d9565b91507fffffffffffffffffffffffffffffffffffffffffffffffffffffffffffffffff8203612e4057612e3f612dd4565b5b600182019050919050565b6000819050919050565b6000612e70612e6b612e66846126c8565b612e4b565b6127d9565b9050919050565b612e8081612e55565b82525050565b6000604082019050612e9b6000830185612c8c565b612ea86020830184612e77565b9392505050565b600060208284031215612ec557612ec46126be565b5b6000612ed384828501612d50565b91505092915050565b600082825260208201905092915050565b7f63616e6e6f742072656d6f7665206c617465737420737465702061646472657360008201527f7300000000000000000000000000000000000000000000000000000000000000602082015250565b6000612f49602183612edc565b9150612f5482612eed565b604082019050919050565b60006020820190508181036000830152612f7881612f3c565b9050919050565b6000819050919050565b6000612fa4612f9f612f9a84612f7f565b612e4b565b6127d9565b9050919050565b612fb481612f89565b82525050565b6000606082019050612fcf6000830186612c8c565b612fdc6020830185612836565b612fe96040830184612fab565b949350505050565b60008151905061300081612bfb565b92915050565b60006020828403121561301c5761301b6126be565b5b600061302a84828501612ff1565b91505092915050565b60006040820190506130486000830185612c8c565b6130556020830184612836565b9392505050565b613065816126c8565b82525050565b6000604082019050613080600083018561305c565b61308d6020830184612836565b9392505050565b60006130af6130aa6130a5846125d8565b612e4b565b6125d8565b9050919050565b60006130c182613094565b9050919050565b60006130d3826130b6565b9050919050565b6130e3816130c8565b82525050565b60006040820190506130fe6000830185612836565b61310b60208301846130da565b9392505050565b600061311d826127d9565b9150613128836127d9565b92508282039050818111156131405761313f612dd4565b5b92915050565b60006020828403121561315c5761315b6126be565b5b600061316a84828501612c12565b91505092915050565b7f6162736f6c75746520666565206f7574206f6620626f756e6473000000000000600082015250565b60006131a9601a83612edc565b91506131b482613173565b602082019050919050565b600060208201905081810360008301526131d88161319c565b9050919050565b600060a0820190506131f4600083018861305c565b61320160208301876127e3565b61320e60408301866127fe565b61321b60608301856127e3565b61322860808301846127fe565b9695505050505050565b60008060408385031215613249576132486126be565b5b600061325785828601612cb6565b925050602061326885828601612d50565b9150509250929050565b600060808201905061328760008301876127e3565b61329460208301866127fe565b6132a160408301856127e3565b6132ae60608301846127fe565b95945050505050565b60006060820190506132cc6000830186612c8c565b6132d96020830185612e77565b6132e66040830184612836565b949350505050565b600081905092915050565b7f73746570426c61636b4c69737400000000000000000000000000000000000000600082015250565b600061332f600d836132ee565b915061333a826132f9565b600d82019050919050565b60008160f01b9050919050565b600061335d82613345565b9050919050565b613375613370826126c8565b613352565b82525050565b600061338682613322565b91506133928284613364565b60028201915081905092915050565b7f7374657057686974654c69737400000000000000000000000000000000000000600082015250565b60006133d7600d836132ee565b91506133e2826133a1565b600d82019050919050565b60006133f8826133ca565b91506134048284613364565b60028201915081905092915050565b600081519050919050565b60005b8381101561343c578082015181840152602081019050613421565b60008484015250505050565b600061345382613413565b61345d81856132ee565b935061346d81856020860161341e565b80840191505092915050565b60006134858285613448565b91506134918284613364565b6002820191508190509392505050565b60006134ad8284613448565b91508190509291505056fea26469706673582212207d0599cd2f4cd28efc4b1c92a0ad91dc9e233e7b430c6dd71c4c93a67dd9662264736f6c63430008120033",
  "devdoc": {
    "kind": "dev",
    "methods": {},
    "version": 1
  },
  "userdoc": {
    "kind": "user",
    "methods": {},
    "version": 1
  },
  "storageLayout": {
    "storage": [
      {
        "astId": 8323,
        "contract": "contracts/ConfigManager.sol:ConfigManager",
        "label": "owner",
        "offset": 0,
        "slot": "0",
        "type": "t_address_payable"
      },
      {
        "astId": 6747,
        "contract": "contracts/ConfigManager.sol:ConfigManager",
        "label": "eternalStorageAddress",
        "offset": 0,
        "slot": "1",
        "type": "t_address"
      },
      {
        "astId": 6749,
        "contract": "contracts/ConfigManager.sol:ConfigManager",
        "label": "upstreamAddress",
        "offset": 0,
        "slot": "2",
        "type": "t_address"
      },
      {
        "astId": 6751,
        "contract": "contracts/ConfigManager.sol:ConfigManager",
        "label": "isUserProxy",
        "offset": 20,
        "slot": "2",
        "type": "t_bool"
      }
    ],
    "types": {
      "t_address": {
        "encoding": "inplace",
        "label": "address",
        "numberOfBytes": "20"
      },
      "t_address_payable": {
        "encoding": "inplace",
        "label": "address payable",
        "numberOfBytes": "20"
      },
      "t_bool": {
        "encoding": "inplace",
        "label": "bool",
        "numberOfBytes": "1"
      }
    }
  }
}