{
  "address": "0x2C395959aE9CBcD2982E9Bf5b34B83Ca4DBDc6f4",
  "abi": [
    {
      "inputs": [
        {
          "internalType": "address payable",
          "name": "_frontDoorAddress",
          "type": "address"
        }
      ],
      "stateMutability": "nonpayable",
      "type": "constructor"
    },
    {
      "anonymous": false,
      "inputs": [
        {
          "indexed": false,
          "internalType": "uint256",
          "name": "oldFee",
          "type": "uint256"
        },
        {
          "indexed": false,
          "internalType": "bool",
          "name": "oldFeeIsPercent",
          "type": "bool"
        },
        {
          "indexed": false,
          "internalType": "uint256",
          "name": "newFee",
          "type": "uint256"
        },
        {
          "indexed": false,
          "internalType": "bool",
          "name": "newFeeIsPercent",
          "type": "bool"
        }
      ],
      "name": "DefaultFeeUpdated",
      "type": "event"
    },
    {
      "anonymous": false,
      "inputs": [
        {
          "indexed": false,
          "internalType": "address",
          "name": "sender",
          "type": "address"
        },
        {
          "indexed": false,
          "internalType": "address",
          "name": "newOwner",
          "type": "address"
        }
      ],
      "name": "LogNewOwner",
      "type": "event"
    },
    {
      "anonymous": false,
      "inputs": [
        {
          "indexed": false,
          "internalType": "uint16",
          "name": "stepTypeId",
          "type": "uint16"
        },
        {
          "indexed": false,
          "internalType": "address",
          "name": "stepAddress",
          "type": "address"
        }
      ],
      "name": "StepAddressSetEvent",
      "type": "event"
    },
    {
      "anonymous": false,
      "inputs": [
        {
          "indexed": false,
          "internalType": "uint16",
          "name": "stepTypeId",
          "type": "uint16"
        },
        {
          "indexed": false,
          "internalType": "uint256",
          "name": "oldFee",
          "type": "uint256"
        },
        {
          "indexed": false,
          "internalType": "bool",
          "name": "oldFeeIsPercent",
          "type": "bool"
        },
        {
          "indexed": false,
          "internalType": "uint256",
          "name": "newFee",
          "type": "uint256"
        },
        {
          "indexed": false,
          "internalType": "bool",
          "name": "newFeeIsPercent",
          "type": "bool"
        }
      ],
      "name": "StepFeeUpdated",
      "type": "event"
    },
    {
      "inputs": [
        {
          "internalType": "address",
          "name": "runnerAddress",
          "type": "address"
        }
      ],
      "name": "addRunnerAddress",
      "outputs": [],
      "stateMutability": "nonpayable",
      "type": "function"
    },
    {
      "inputs": [],
      "name": "eternalStorageAddress",
      "outputs": [
        {
          "internalType": "address",
          "name": "",
          "type": "address"
        }
      ],
      "stateMutability": "view",
      "type": "function"
    },
    {
      "inputs": [],
      "name": "frontDoorAddress",
      "outputs": [
        {
          "internalType": "address",
          "name": "",
          "type": "address"
        }
      ],
      "stateMutability": "view",
      "type": "function"
    },
    {
      "inputs": [],
      "name": "getAllStepAddesses",
      "outputs": [
        {
          "internalType": "address[]",
          "name": "",
          "type": "address[]"
        }
      ],
      "stateMutability": "view",
      "type": "function"
    },
    {
      "inputs": [],
      "name": "getDefaultFee",
      "outputs": [
        {
          "internalType": "uint256",
          "name": "",
          "type": "uint256"
        },
        {
          "internalType": "bool",
          "name": "",
          "type": "bool"
        }
      ],
      "stateMutability": "view",
      "type": "function"
    },
    {
      "inputs": [],
      "name": "getRunnerAddresses",
      "outputs": [
        {
          "internalType": "address[]",
          "name": "",
          "type": "address[]"
        }
      ],
      "stateMutability": "view",
      "type": "function"
    },
    {
      "inputs": [
        {
          "internalType": "uint16",
          "name": "stepTypeId",
          "type": "uint16"
        }
      ],
      "name": "getStepAddress",
      "outputs": [
        {
          "internalType": "address",
          "name": "",
          "type": "address"
        }
      ],
      "stateMutability": "view",
      "type": "function"
    },
    {
      "inputs": [],
      "name": "getStepCount",
      "outputs": [
        {
          "internalType": "uint256",
          "name": "",
          "type": "uint256"
        }
      ],
      "stateMutability": "view",
      "type": "function"
    },
    {
      "inputs": [
        {
          "internalType": "uint16",
          "name": "stepTypeId",
          "type": "uint16"
        }
      ],
      "name": "getStepFee",
      "outputs": [
        {
          "internalType": "uint256",
          "name": "",
          "type": "uint256"
        },
        {
          "internalType": "bool",
          "name": "",
          "type": "bool"
        }
      ],
      "stateMutability": "view",
      "type": "function"
    },
    {
      "inputs": [
        {
          "internalType": "uint256",
          "name": "index",
          "type": "uint256"
        }
      ],
      "name": "getStepInfoAt",
      "outputs": [
        {
          "components": [
            {
              "internalType": "uint16",
              "name": "stepTypeId",
              "type": "uint16"
            },
            {
              "internalType": "bool",
              "name": "feeIsPercent",
              "type": "bool"
            },
            {
              "internalType": "uint256",
              "name": "fee",
              "type": "uint256"
            },
            {
              "internalType": "address",
              "name": "latest",
              "type": "address"
            },
            {
              "internalType": "address[]",
              "name": "whitelist",
              "type": "address[]"
            },
            {
              "internalType": "address[]",
              "name": "blacklist",
              "type": "address[]"
            }
          ],
          "internalType": "struct StepInfo",
          "name": "",
          "type": "tuple"
        }
      ],
      "stateMutability": "view",
      "type": "function"
    },
    {
      "inputs": [],
      "name": "getSubscribers",
      "outputs": [
        {
          "internalType": "address[]",
          "name": "",
          "type": "address[]"
        }
      ],
      "stateMutability": "view",
      "type": "function"
    },
    {
      "inputs": [],
      "name": "isUserProxy",
      "outputs": [
        {
          "internalType": "bool",
          "name": "",
          "type": "bool"
        }
      ],
      "stateMutability": "view",
      "type": "function"
    },
    {
      "inputs": [],
      "name": "owner",
      "outputs": [
        {
          "internalType": "address payable",
          "name": "",
          "type": "address"
        }
      ],
      "stateMutability": "view",
      "type": "function"
    },
    {
      "inputs": [
        {
          "internalType": "address",
          "name": "runnerAddress",
          "type": "address"
        }
      ],
      "name": "removeRunnerAddress",
      "outputs": [],
      "stateMutability": "nonpayable",
      "type": "function"
    },
    {
      "inputs": [
        {
          "internalType": "uint16",
          "name": "stepTypeId",
          "type": "uint16"
        },
        {
          "internalType": "address",
          "name": "stepAddress",
          "type": "address"
        }
      ],
      "name": "removeStepAddress",
      "outputs": [],
      "stateMutability": "nonpayable",
      "type": "function"
    },
    {
      "inputs": [
        {
          "internalType": "uint256",
          "name": "fee",
          "type": "uint256"
        },
        {
          "internalType": "bool",
          "name": "feeIsPercent",
          "type": "bool"
        }
      ],
      "name": "setDefaultFee",
      "outputs": [],
      "stateMutability": "nonpayable",
      "type": "function"
    },
    {
      "inputs": [
        {
          "internalType": "address payable",
          "name": "newOwner",
          "type": "address"
        }
      ],
      "name": "setOwner",
      "outputs": [],
      "stateMutability": "nonpayable",
      "type": "function"
    },
    {
      "inputs": [
        {
          "internalType": "uint16",
          "name": "stepTypeId",
          "type": "uint16"
        },
        {
          "internalType": "address",
          "name": "stepAddress",
          "type": "address"
        }
      ],
      "name": "setStepAddress",
      "outputs": [],
      "stateMutability": "nonpayable",
      "type": "function"
    },
    {
      "inputs": [
        {
          "components": [
            {
              "internalType": "uint16",
              "name": "stepTypeId",
              "type": "uint16"
            },
            {
              "internalType": "bool",
              "name": "feeIsPercent",
              "type": "bool"
            },
            {
              "internalType": "uint256",
              "name": "fee",
              "type": "uint256"
            }
          ],
          "internalType": "struct StepFee[]",
          "name": "stepFeeUpdates",
          "type": "tuple[]"
        }
      ],
      "name": "setStepFees",
      "outputs": [],
      "stateMutability": "nonpayable",
      "type": "function"
    },
    {
      "inputs": [
        {
          "internalType": "address[]",
          "name": "newSubscribers",
          "type": "address[]"
        }
      ],
      "name": "updateSubscribers",
      "outputs": [],
      "stateMutability": "nonpayable",
      "type": "function"
    },
    {
      "inputs": [],
      "name": "upstreamAddress",
      "outputs": [
        {
          "internalType": "address",
          "name": "",
          "type": "address"
        }
      ],
      "stateMutability": "view",
      "type": "function"
    }
  ],
  "transactionHash": "0xc05acd5e926f3f3e9e68c5409beef965039d0c604df66b412cd75702efbfd51c",
  "args": [
    "0x696b93e408acf1c066839690A365e78C4492c276"
  ],
  "numDeployments": 4,
  "solcInputHash": "fb1a45c3b68a669611eaa8f937a3315a",
  "bytecode": "0x60a06040523480156200001157600080fd5b5060405162003a3f38038062003a3f833981810160405281019062000037919062000234565b338173ffffffffffffffffffffffffffffffffffffffff1663384782fe6040518163ffffffff1660e01b8152600401602060405180830381865afa15801562000084573d6000803e3d6000fd5b505050506040513d601f19601f82011682018060405250810190620000aa9190620002ab565b60008083806000806101000a81548173ffffffffffffffffffffffffffffffffffffffff021916908373ffffffffffffffffffffffffffffffffffffffff1602179055505082600160006101000a81548173ffffffffffffffffffffffffffffffffffffffff021916908373ffffffffffffffffffffffffffffffffffffffff16021790555081600260006101000a81548173ffffffffffffffffffffffffffffffffffffffff021916908373ffffffffffffffffffffffffffffffffffffffff16021790555080600260146101000a81548160ff021916908315150217905550505050508073ffffffffffffffffffffffffffffffffffffffff1660808173ffffffffffffffffffffffffffffffffffffffff168152505050620002dd565b600080fd5b600073ffffffffffffffffffffffffffffffffffffffff82169050919050565b6000620001fc82620001cf565b9050919050565b6200020e81620001ef565b81146200021a57600080fd5b50565b6000815190506200022e8162000203565b92915050565b6000602082840312156200024d576200024c620001ca565b5b60006200025d848285016200021d565b91505092915050565b60006200027382620001cf565b9050919050565b620002858162000266565b81146200029157600080fd5b50565b600081519050620002a5816200027a565b92915050565b600060208284031215620002c457620002c3620001ca565b5b6000620002d48482850162000294565b91505092915050565b608051613746620002f9600039600061102a01526137466000f3fe608060405234801561001057600080fd5b50600436106101375760003560e01c80635b6496f4116100b8578063910752cd1161007c578063910752cd146103075780639566b960146103235780639c98a56214610354578063c4006c8114610370578063f90339771461038c578063ff05c2a8146103bc57610137565b80635b6496f414610261578063699a20571461027f5780636fd63351146102af5780638a04867b146102cd5780638da5cb5b146102e957610137565b806332b56aaf116100ff57806332b56aaf146101cf57806333905e84146101ed578063384782fe1461020957806350fd910e1461022757806354f09a011461024557610137565b806305cc61ad1461013c578063073728ea1461015a5780630f53b8541461017857806313af40351461019457806321bacf28146101b0575b600080fd5b6101446103da565b60405161015191906128f4565b60405180910390f35b610162610603565b60405161016f91906128f4565b60405180910390f35b610192600480360381019061018d9190612986565b610832565b005b6101ae60048036038101906101a99190612a04565b610b90565b005b6101b8610c9d565b6040516101c6929190612a65565b60405180910390f35b6101d7610cd3565b6040516101e49190612a9d565b60405180910390f35b61020760048036038101906102029190612b1d565b610cf9565b005b610211611002565b60405161021e9190612a9d565b60405180910390f35b61022f611028565b60405161023c9190612a9d565b60405180910390f35b61025f600480360381019061025a9190612bc0565b61104c565b005b6102696113e5565b60405161027691906128f4565b60405180910390f35b61029960048036038101906102949190612c39565b611614565b6040516102a69190612d92565b60405180910390f35b6102b7611afe565b6040516102c49190612db4565b60405180910390f35b6102e760048036038101906102e29190612dcf565b611bc9565b005b6102f1611cf1565b6040516102fe9190612e0b565b60405180910390f35b610321600480360381019061031c9190612dcf565b611d15565b005b61033d60048036038101906103389190612e26565b611e28565b60405161034b929190612a65565b60405180910390f35b61036e60048036038101906103699190612e7f565b611e60565b005b61038a60048036038101906103859190612986565b6120b7565b005b6103a660048036038101906103a19190612e26565b6123bc565b6040516103b39190612a9d565b60405180910390f35b6103c46123f1565b6040516103d19190612ebf565b60405180910390f35b60606000600160009054906101000a900473ffffffffffffffffffffffffffffffffffffffff16905060008173ffffffffffffffffffffffffffffffffffffffff16639b0d10fd7f948010e77eb10f7971665add956670a8ef333384c23ce885d3f97f3020357b5d6040518263ffffffff1660e01b815260040161045e9190612ef3565b602060405180830381865afa15801561047b573d6000803e3d6000fd5b505050506040513d601f19601f8201168201806040525081019061049f9190612f23565b905060008167ffffffffffffffff8111156104bd576104bc612f50565b5b6040519080825280602002602001820160405280156104eb5781602001602082028036833780820191505090505b50905060005b828110156105f95760008473ffffffffffffffffffffffffffffffffffffffff1663619f6cc67f948010e77eb10f7971665add956670a8ef333384c23ce885d3f97f3020357b5d846040518363ffffffff1660e01b8152600401610556929190612f7f565b6040805180830381865afa158015610572573d6000803e3d6000fd5b505050506040513d601f19601f820116820180604052508101906105969190612fbd565b509050808383815181106105ad576105ac612ffd565b5b602002602001019073ffffffffffffffffffffffffffffffffffffffff16908173ffffffffffffffffffffffffffffffffffffffff168152505050806105f29061305b565b90506104f1565b5080935050505090565b60606000600160009054906101000a900473ffffffffffffffffffffffffffffffffffffffff16905060008173ffffffffffffffffffffffffffffffffffffffff16639b0d10fd7f32b7d36eef9191cec628a9b46ddda74b702cf693ad48a065f3f9e5fcc4ea08f560001b6040518263ffffffff1660e01b815260040161068a9190612ef3565b602060405180830381865afa1580156106a7573d6000803e3d6000fd5b505050506040513d601f19601f820116820180604052508101906106cb9190612f23565b905060008167ffffffffffffffff8111156106e9576106e8612f50565b5b6040519080825280602002602001820160405280156107175781602001602082028036833780820191505090505b50905060005b828110156108285760008473ffffffffffffffffffffffffffffffffffffffff1663619f6cc67f32b7d36eef9191cec628a9b46ddda74b702cf693ad48a065f3f9e5fcc4ea08f560001b846040518363ffffffff1660e01b8152600401610785929190612f7f565b6040805180830381865afa1580156107a1573d6000803e3d6000fd5b505050506040513d601f19601f820116820180604052508101906107c59190612fbd565b509050808383815181106107dc576107db612ffd565b5b602002602001019073ffffffffffffffffffffffffffffffffffffffff16908173ffffffffffffffffffffffffffffffffffffffff168152505050806108219061305b565b905061071d565b5080935050505090565b60008054906101000a900473ffffffffffffffffffffffffffffffffffffffff1673ffffffffffffffffffffffffffffffffffffffff163373ffffffffffffffffffffffffffffffffffffffff161461088a57600080fd5b6000600160009054906101000a900473ffffffffffffffffffffffffffffffffffffffff16905060008173ffffffffffffffffffffffffffffffffffffffff1663a2ccb5227fc94d198e6194ea38dbd900920351d7f8e6c6d85b1d3b803fb93c54be008e11fd60001b866040518363ffffffff1660e01b81526004016109119291906130de565b602060405180830381865afa15801561092e573d6000803e3d6000fd5b505050506040513d601f19601f820116820180604052508101906109529190613107565b90508073ffffffffffffffffffffffffffffffffffffffff168373ffffffffffffffffffffffffffffffffffffffff16036109c2576040517f08c379a00000000000000000000000000000000000000000000000000000000081526004016109b9906131b7565b60405180910390fd5b8173ffffffffffffffffffffffffffffffffffffffff1663ba4014fd6109e786612404565b8560006040518463ffffffff1660e01b8152600401610a0893929190613212565b6020604051808303816000875af1158015610a27573d6000803e3d6000fd5b505050506040513d601f19601f82011682018060405250810190610a4b919061325e565b508173ffffffffffffffffffffffffffffffffffffffff166381425763610a7186612434565b856040518363ffffffff1660e01b8152600401610a8f92919061328b565b600060405180830381600087803b158015610aa957600080fd5b505af1158015610abd573d6000803e3d6000fd5b505050508173ffffffffffffffffffffffffffffffffffffffff1663814257637f18fa4b105101c66136345367eab77cd274c0766ec0596b7e8aadd79e9913955560001b856040518363ffffffff1660e01b8152600401610b1f92919061328b565b600060405180830381600087803b158015610b3957600080fd5b505af1158015610b4d573d6000803e3d6000fd5b505050507f5c250b46b4ab7901af16e469d68737ca13fe0eac242b19f323f7d3608565be7f8484604051610b829291906132c3565b60405180910390a150505050565b60008054906101000a900473ffffffffffffffffffffffffffffffffffffffff1673ffffffffffffffffffffffffffffffffffffffff163373ffffffffffffffffffffffffffffffffffffffff1614610be857600080fd5b600073ffffffffffffffffffffffffffffffffffffffff168173ffffffffffffffffffffffffffffffffffffffff1603610c2157600080fd5b806000806101000a81548173ffffffffffffffffffffffffffffffffffffffff021916908373ffffffffffffffffffffffffffffffffffffffff1602179055507f1f8d7d25344642d919d55999e4664aa452a5f424bc0936ceb9c2b300db7dcbd93382604051610c92929190613341565b60405180910390a150565b600080610ccb600160009054906101000a900473ffffffffffffffffffffffffffffffffffffffff16612464565b915091509091565b600260009054906101000a900473ffffffffffffffffffffffffffffffffffffffff1681565b6000600160009054906101000a900473ffffffffffffffffffffffffffffffffffffffff1690505b600115610f145760008173ffffffffffffffffffffffffffffffffffffffff16639b0d10fd7f948010e77eb10f7971665add956670a8ef333384c23ce885d3f97f3020357b5d6040518263ffffffff1660e01b8152600401610d839190612ef3565b602060405180830381865afa158015610da0573d6000803e3d6000fd5b505050506040513d601f19601f82011682018060405250810190610dc49190612f23565b905060008103610dd45750610f14565b60008273ffffffffffffffffffffffffffffffffffffffff1663619f6cc67f948010e77eb10f7971665add956670a8ef333384c23ce885d3f97f3020357b5d600185610e20919061336a565b6040518363ffffffff1660e01b8152600401610e3d929190612f7f565b6040805180830381865afa158015610e59573d6000803e3d6000fd5b505050506040513d601f19601f82011682018060405250810190610e7d9190612fbd565b5090508273ffffffffffffffffffffffffffffffffffffffff1663814257637f948010e77eb10f7971665add956670a8ef333384c23ce885d3f97f3020357b5d836040518363ffffffff1660e01b8152600401610edb92919061328b565b600060405180830381600087803b158015610ef557600080fd5b505af1158015610f09573d6000803e3d6000fd5b505050505050610d21565b60005b83839050811015610ffc578173ffffffffffffffffffffffffffffffffffffffff1663ba4014fd7f948010e77eb10f7971665add956670a8ef333384c23ce885d3f97f3020357b5d868685818110610f7257610f71612ffd565b5b9050602002016020810190610f879190612dcf565b60006040518463ffffffff1660e01b8152600401610fa793929190613212565b6020604051808303816000875af1158015610fc6573d6000803e3d6000fd5b505050506040513d601f19601f82011682018060405250810190610fea919061325e565b5080610ff59061305b565b9050610f17565b50505050565b600160009054906101000a900473ffffffffffffffffffffffffffffffffffffffff1681565b7f000000000000000000000000000000000000000000000000000000000000000081565b60008054906101000a900473ffffffffffffffffffffffffffffffffffffffff1673ffffffffffffffffffffffffffffffffffffffff163373ffffffffffffffffffffffffffffffffffffffff16146110a457600080fd5b6000600160009054906101000a900473ffffffffffffffffffffffffffffffffffffffff16905060005b838390508110156113df578383828181106110ec576110eb612ffd565b5b9050606002016020016020810190611104919061339e565b8061114d575060007f80000000000000000000000000000000000000000000000000000000000000008585848181106111405761113f612ffd565b5b9050606002016040013516145b61118c576040517f08c379a000000000000000000000000000000000000000000000000000000000815260040161118390613417565b60405180910390fd5b60006111c18585848181106111a4576111a3612ffd565b5b90506060020160000160208101906111bc9190612e26565b6124ff565b905060008373ffffffffffffffffffffffffffffffffffffffff1663bd02d0f5836040518263ffffffff1660e01b81526004016111fe9190612ef3565b602060405180830381865afa15801561121b573d6000803e3d6000fd5b505050506040513d601f19601f8201168201806040525081019061123f9190612f23565b9050600061129387878681811061125957611258612ffd565b5b9050606002016040013588888781811061127657611275612ffd565b5b905060600201602001602081019061128e919061339e565b612566565b90508181146113cb576000806112a8846125a2565b915091507fe4bed5fed2349293688700d428390ab42256a50e167e7d49d77beec4fab218008989888181106112e0576112df612ffd565b5b90506060020160000160208101906112f89190612e26565b83838c8c8b81811061130d5761130c612ffd565b5b905060600201604001358d8d8c81811061132a57611329612ffd565b5b9050606002016020016020810190611342919061339e565b604051611353959493929190613437565b60405180910390a18673ffffffffffffffffffffffffffffffffffffffff1663e2a4853a86856040518363ffffffff1660e01b8152600401611396929190612f7f565b600060405180830381600087803b1580156113b057600080fd5b505af11580156113c4573d6000803e3d6000fd5b5050505050505b505050806113d89061305b565b90506110ce565b50505050565b60606000600160009054906101000a900473ffffffffffffffffffffffffffffffffffffffff16905060008173ffffffffffffffffffffffffffffffffffffffff16639b0d10fd7f18fa4b105101c66136345367eab77cd274c0766ec0596b7e8aadd79e9913955560001b6040518263ffffffff1660e01b815260040161146c9190612ef3565b602060405180830381865afa158015611489573d6000803e3d6000fd5b505050506040513d601f19601f820116820180604052508101906114ad9190612f23565b905060008167ffffffffffffffff8111156114cb576114ca612f50565b5b6040519080825280602002602001820160405280156114f95781602001602082028036833780820191505090505b50905060005b8281101561160a5760008473ffffffffffffffffffffffffffffffffffffffff1663619f6cc67f18fa4b105101c66136345367eab77cd274c0766ec0596b7e8aadd79e9913955560001b846040518363ffffffff1660e01b8152600401611567929190612f7f565b6040805180830381865afa158015611583573d6000803e3d6000fd5b505050506040513d601f19601f820116820180604052508101906115a79190612fbd565b509050808383815181106115be576115bd612ffd565b5b602002602001019073ffffffffffffffffffffffffffffffffffffffff16908173ffffffffffffffffffffffffffffffffffffffff168152505050806116039061305b565b90506114ff565b5080935050505090565b61161c6127b2565b6000600160009054906101000a900473ffffffffffffffffffffffffffffffffffffffff1690506000808273ffffffffffffffffffffffffffffffffffffffff16634fcee0497fc94d198e6194ea38dbd900920351d7f8e6c6d85b1d3b803fb93c54be008e11fd60001b876040518363ffffffff1660e01b81526004016116a4929190612f7f565b6040805180830381865afa1580156116c0573d6000803e3d6000fd5b505050506040513d601f19601f820116820180604052508101906116e4919061348a565b9150915060006116f383612434565b905060008473ffffffffffffffffffffffffffffffffffffffff16639b0d10fd836040518263ffffffff1660e01b81526004016117309190612ef3565b602060405180830381865afa15801561174d573d6000803e3d6000fd5b505050506040513d601f19601f820116820180604052508101906117719190612f23565b905060008167ffffffffffffffff81111561178f5761178e612f50565b5b6040519080825280602002602001820160405280156117bd5781602001602082028036833780820191505090505b50905060005b828110156118ab5760008773ffffffffffffffffffffffffffffffffffffffff1663619f6cc686846040518363ffffffff1660e01b8152600401611808929190612f7f565b6040805180830381865afa158015611824573d6000803e3d6000fd5b505050506040513d601f19601f820116820180604052508101906118489190612fbd565b5090508083838151811061185f5761185e612ffd565b5b602002602001019073ffffffffffffffffffffffffffffffffffffffff16908173ffffffffffffffffffffffffffffffffffffffff168152505050806118a49061305b565b90506117c3565b5060006118b786612404565b905060008773ffffffffffffffffffffffffffffffffffffffff16639b0d10fd836040518263ffffffff1660e01b81526004016118f49190612ef3565b602060405180830381865afa158015611911573d6000803e3d6000fd5b505050506040513d601f19601f820116820180604052508101906119359190612f23565b905060008167ffffffffffffffff81111561195357611952612f50565b5b6040519080825280602002602001820160405280156119815781602001602082028036833780820191505090505b50905060005b82811015611a6f5760008a73ffffffffffffffffffffffffffffffffffffffff1663619f6cc686846040518363ffffffff1660e01b81526004016119cc929190612f7f565b6040805180830381865afa1580156119e8573d6000803e3d6000fd5b505050506040513d601f19601f82011682018060405250810190611a0c9190612fbd565b50905080838381518110611a2357611a22612ffd565b5b602002602001019073ffffffffffffffffffffffffffffffffffffffff16908173ffffffffffffffffffffffffffffffffffffffff16815250505080611a689061305b565b9050611987565b50600080611a9f600160009054906101000a900473ffffffffffffffffffffffffffffffffffffffff168b612603565b915091506040518060c001604052808b61ffff16815260200182151581526020018381526020018a73ffffffffffffffffffffffffffffffffffffffff168152602001878152602001848152509b505050505050505050505050919050565b600080600160009054906101000a900473ffffffffffffffffffffffffffffffffffffffff1690508073ffffffffffffffffffffffffffffffffffffffff1663832860727fc94d198e6194ea38dbd900920351d7f8e6c6d85b1d3b803fb93c54be008e11fd60001b6040518263ffffffff1660e01b8152600401611b829190612ef3565b602060405180830381865afa158015611b9f573d6000803e3d6000fd5b505050506040513d601f19601f82011682018060405250810190611bc39190612f23565b91505090565b60008054906101000a900473ffffffffffffffffffffffffffffffffffffffff1673ffffffffffffffffffffffffffffffffffffffff163373ffffffffffffffffffffffffffffffffffffffff1614611c2157600080fd5b6000600160009054906101000a900473ffffffffffffffffffffffffffffffffffffffff1690508073ffffffffffffffffffffffffffffffffffffffff1663ba4014fd7f32b7d36eef9191cec628a9b46ddda74b702cf693ad48a065f3f9e5fcc4ea08f560001b8460006040518463ffffffff1660e01b8152600401611ca993929190613212565b6020604051808303816000875af1158015611cc8573d6000803e3d6000fd5b505050506040513d601f19601f82011682018060405250810190611cec919061325e565b505050565b60008054906101000a900473ffffffffffffffffffffffffffffffffffffffff1681565b60008054906101000a900473ffffffffffffffffffffffffffffffffffffffff1673ffffffffffffffffffffffffffffffffffffffff163373ffffffffffffffffffffffffffffffffffffffff1614611d6d57600080fd5b6000600160009054906101000a900473ffffffffffffffffffffffffffffffffffffffff1690508073ffffffffffffffffffffffffffffffffffffffff1663814257637f32b7d36eef9191cec628a9b46ddda74b702cf693ad48a065f3f9e5fcc4ea08f560001b846040518363ffffffff1660e01b8152600401611df292919061328b565b600060405180830381600087803b158015611e0c57600080fd5b505af1158015611e20573d6000803e3d6000fd5b505050505050565b600080611e57600160009054906101000a900473ffffffffffffffffffffffffffffffffffffffff1684612603565b91509150915091565b60008054906101000a900473ffffffffffffffffffffffffffffffffffffffff1673ffffffffffffffffffffffffffffffffffffffff163373ffffffffffffffffffffffffffffffffffffffff1614611eb857600080fd5b8080611ee6575060007f80000000000000000000000000000000000000000000000000000000000000008316145b611f25576040517f08c379a0000000000000000000000000000000000000000000000000000000008152600401611f1c90613417565b60405180910390fd5b6000600160009054906101000a900473ffffffffffffffffffffffffffffffffffffffff1690506000611f588484612566565b90506000611f646126a1565b905060008373ffffffffffffffffffffffffffffffffffffffff1663bd02d0f5611f8c6126a1565b6040518263ffffffff1660e01b8152600401611fa89190612ef3565b602060405180830381865afa158015611fc5573d6000803e3d6000fd5b505050506040513d601f19601f82011682018060405250810190611fe99190612f23565b90508083146120af578373ffffffffffffffffffffffffffffffffffffffff1663e2a4853a83856040518363ffffffff1660e01b815260040161202d929190612f7f565b600060405180830381600087803b15801561204757600080fd5b505af115801561205b573d6000803e3d6000fd5b5050505060008061206b856125a2565b915091507feddfd5447e7ef2b1e4581f32575efd480d5c905f04eae3ff6ec3b90f19811e2b82828a8a6040516120a494939291906134ca565b60405180910390a150505b505050505050565b60008054906101000a900473ffffffffffffffffffffffffffffffffffffffff1673ffffffffffffffffffffffffffffffffffffffff163373ffffffffffffffffffffffffffffffffffffffff161461210f57600080fd5b6000600160009054906101000a900473ffffffffffffffffffffffffffffffffffffffff1690508073ffffffffffffffffffffffffffffffffffffffff1663107f89ad7fc94d198e6194ea38dbd900920351d7f8e6c6d85b1d3b803fb93c54be008e11fd60001b85856040518463ffffffff1660e01b81526004016121969392919061350f565b6020604051808303816000875af11580156121b5573d6000803e3d6000fd5b505050506040513d601f19601f820116820180604052508101906121d9919061325e565b508073ffffffffffffffffffffffffffffffffffffffff1663ba4014fd6121ff85612434565b8460006040518463ffffffff1660e01b815260040161222093929190613212565b6020604051808303816000875af115801561223f573d6000803e3d6000fd5b505050506040513d601f19601f82011682018060405250810190612263919061325e565b508073ffffffffffffffffffffffffffffffffffffffff1663ba4014fd7f18fa4b105101c66136345367eab77cd274c0766ec0596b7e8aadd79e9913955560001b8460006040518463ffffffff1660e01b81526004016122c593929190613212565b6020604051808303816000875af11580156122e4573d6000803e3d6000fd5b505050506040513d601f19601f82011682018060405250810190612308919061325e565b508073ffffffffffffffffffffffffffffffffffffffff16638142576361232e85612404565b846040518363ffffffff1660e01b815260040161234c92919061328b565b600060405180830381600087803b15801561236657600080fd5b505af115801561237a573d6000803e3d6000fd5b505050507f5c250b46b4ab7901af16e469d68737ca13fe0eac242b19f323f7d3608565be7f83836040516123af9291906132c3565b60405180910390a1505050565b60006123ea600160009054906101000a900473ffffffffffffffffffffffffffffffffffffffff1683612704565b9050919050565b600260149054906101000a900460ff1681565b60008160405160200161241791906135d3565b604051602081830303815290604052805190602001209050919050565b6000816040516020016124479190613645565b604051602081830303815290604052805190602001209050919050565b60008060008373ffffffffffffffffffffffffffffffffffffffff1663bd02d0f561248d6126a1565b6040518263ffffffff1660e01b81526004016124a99190612ef3565b602060405180830381865afa1580156124c6573d6000803e3d6000fd5b505050506040513d601f19601f820116820180604052508101906124ea9190612f23565b90506124f5816125a2565b9250925050915091565b60006040518060400160405280600881526020017f7374657046656573000000000000000000000000000000000000000000000000815250826040516020016125499291906136d1565b604051602081830303815290604052805190602001209050919050565b6000808390508215612598577f8000000000000000000000000000000000000000000000000000000000000000811790505b8091505092915050565b6000806000807f8000000000000000000000000000000000000000000000000000000000000000851611905060007f800000000000000000000000000000000000000000000000000000000000000019851690508082935093505050915091565b60008060008473ffffffffffffffffffffffffffffffffffffffff1663bd02d0f561262d866124ff565b6040518263ffffffff1660e01b81526004016126499190612ef3565b602060405180830381865afa158015612666573d6000803e3d6000fd5b505050506040513d601f19601f8201168201806040525081019061268a9190612f23565b9050612695816125a2565b92509250509250929050565b60006040518060400160405280600b81526020017f64656661756c74466565730000000000000000000000000000000000000000008152506040516020016126e991906136f9565b60405160208183030381529060405280519060200120905090565b6000808390508073ffffffffffffffffffffffffffffffffffffffff1663a2ccb5227fc94d198e6194ea38dbd900920351d7f8e6c6d85b1d3b803fb93c54be008e11fd60001b856040518363ffffffff1660e01b81526004016127689291906130de565b602060405180830381865afa158015612785573d6000803e3d6000fd5b505050506040513d601f19601f820116820180604052508101906127a99190613107565b91505092915050565b6040518060c00160405280600061ffff16815260200160001515815260200160008152602001600073ffffffffffffffffffffffffffffffffffffffff16815260200160608152602001606081525090565b600081519050919050565b600082825260208201905092915050565b6000819050602082019050919050565b600073ffffffffffffffffffffffffffffffffffffffff82169050919050565b600061285b82612830565b9050919050565b61286b81612850565b82525050565b600061287d8383612862565b60208301905092915050565b6000602082019050919050565b60006128a182612804565b6128ab818561280f565b93506128b683612820565b8060005b838110156128e75781516128ce8882612871565b97506128d983612889565b9250506001810190506128ba565b5085935050505092915050565b6000602082019050818103600083015261290e8184612896565b905092915050565b600080fd5b600080fd5b600061ffff82169050919050565b61293781612920565b811461294257600080fd5b50565b6000813590506129548161292e565b92915050565b61296381612850565b811461296e57600080fd5b50565b6000813590506129808161295a565b92915050565b6000806040838503121561299d5761299c612916565b5b60006129ab85828601612945565b92505060206129bc85828601612971565b9150509250929050565b60006129d182612830565b9050919050565b6129e1816129c6565b81146129ec57600080fd5b50565b6000813590506129fe816129d8565b92915050565b600060208284031215612a1a57612a19612916565b5b6000612a28848285016129ef565b91505092915050565b6000819050919050565b612a4481612a31565b82525050565b60008115159050919050565b612a5f81612a4a565b82525050565b6000604082019050612a7a6000830185612a3b565b612a876020830184612a56565b9392505050565b612a9781612850565b82525050565b6000602082019050612ab26000830184612a8e565b92915050565b600080fd5b600080fd5b600080fd5b60008083601f840112612add57612adc612ab8565b5b8235905067ffffffffffffffff811115612afa57612af9612abd565b5b602083019150836020820283011115612b1657612b15612ac2565b5b9250929050565b60008060208385031215612b3457612b33612916565b5b600083013567ffffffffffffffff811115612b5257612b5161291b565b5b612b5e85828601612ac7565b92509250509250929050565b60008083601f840112612b8057612b7f612ab8565b5b8235905067ffffffffffffffff811115612b9d57612b9c612abd565b5b602083019150836060820283011115612bb957612bb8612ac2565b5b9250929050565b60008060208385031215612bd757612bd6612916565b5b600083013567ffffffffffffffff811115612bf557612bf461291b565b5b612c0185828601612b6a565b92509250509250929050565b612c1681612a31565b8114612c2157600080fd5b50565b600081359050612c3381612c0d565b92915050565b600060208284031215612c4f57612c4e612916565b5b6000612c5d84828501612c24565b91505092915050565b612c6f81612920565b82525050565b612c7e81612a4a565b82525050565b612c8d81612a31565b82525050565b600082825260208201905092915050565b6000612caf82612804565b612cb98185612c93565b9350612cc483612820565b8060005b83811015612cf5578151612cdc8882612871565b9750612ce783612889565b925050600181019050612cc8565b5085935050505092915050565b600060c083016000830151612d1a6000860182612c66565b506020830151612d2d6020860182612c75565b506040830151612d406040860182612c84565b506060830151612d536060860182612862565b5060808301518482036080860152612d6b8282612ca4565b91505060a083015184820360a0860152612d858282612ca4565b9150508091505092915050565b60006020820190508181036000830152612dac8184612d02565b905092915050565b6000602082019050612dc96000830184612a3b565b92915050565b600060208284031215612de557612de4612916565b5b6000612df384828501612971565b91505092915050565b612e05816129c6565b82525050565b6000602082019050612e206000830184612dfc565b92915050565b600060208284031215612e3c57612e3b612916565b5b6000612e4a84828501612945565b91505092915050565b612e5c81612a4a565b8114612e6757600080fd5b50565b600081359050612e7981612e53565b92915050565b60008060408385031215612e9657612e95612916565b5b6000612ea485828601612c24565b9250506020612eb585828601612e6a565b9150509250929050565b6000602082019050612ed46000830184612a56565b92915050565b6000819050919050565b612eed81612eda565b82525050565b6000602082019050612f086000830184612ee4565b92915050565b600081519050612f1d81612c0d565b92915050565b600060208284031215612f3957612f38612916565b5b6000612f4784828501612f0e565b91505092915050565b7f4e487b7100000000000000000000000000000000000000000000000000000000600052604160045260246000fd5b6000604082019050612f946000830185612ee4565b612fa16020830184612a3b565b9392505050565b600081519050612fb78161295a565b92915050565b60008060408385031215612fd457612fd3612916565b5b6000612fe285828601612fa8565b9250506020612ff385828601612f0e565b9150509250929050565b7f4e487b7100000000000000000000000000000000000000000000000000000000600052603260045260246000fd5b7f4e487b7100000000000000000000000000000000000000000000000000000000600052601160045260246000fd5b600061306682612a31565b91507fffffffffffffffffffffffffffffffffffffffffffffffffffffffffffffffff82036130985761309761302c565b5b600182019050919050565b6000819050919050565b60006130c86130c36130be84612920565b6130a3565b612a31565b9050919050565b6130d8816130ad565b82525050565b60006040820190506130f36000830185612ee4565b61310060208301846130cf565b9392505050565b60006020828403121561311d5761311c612916565b5b600061312b84828501612fa8565b91505092915050565b600082825260208201905092915050565b7f63616e6e6f742072656d6f7665206c617465737420737465702061646472657360008201527f7300000000000000000000000000000000000000000000000000000000000000602082015250565b60006131a1602183613134565b91506131ac82613145565b604082019050919050565b600060208201905081810360008301526131d081613194565b9050919050565b6000819050919050565b60006131fc6131f76131f2846131d7565b6130a3565b612a31565b9050919050565b61320c816131e1565b82525050565b60006060820190506132276000830186612ee4565b6132346020830185612a8e565b6132416040830184613203565b949350505050565b60008151905061325881612e53565b92915050565b60006020828403121561327457613273612916565b5b600061328284828501613249565b91505092915050565b60006040820190506132a06000830185612ee4565b6132ad6020830184612a8e565b9392505050565b6132bd81612920565b82525050565b60006040820190506132d860008301856132b4565b6132e56020830184612a8e565b9392505050565b60006133076133026132fd84612830565b6130a3565b612830565b9050919050565b6000613319826132ec565b9050919050565b600061332b8261330e565b9050919050565b61333b81613320565b82525050565b60006040820190506133566000830185612a8e565b6133636020830184613332565b9392505050565b600061337582612a31565b915061338083612a31565b92508282039050818111156133985761339761302c565b5b92915050565b6000602082840312156133b4576133b3612916565b5b60006133c284828501612e6a565b91505092915050565b7f6162736f6c75746520666565206f7574206f6620626f756e6473000000000000600082015250565b6000613401601a83613134565b915061340c826133cb565b602082019050919050565b60006020820190508181036000830152613430816133f4565b9050919050565b600060a08201905061344c60008301886132b4565b6134596020830187612a3b565b6134666040830186612a56565b6134736060830185612a3b565b6134806080830184612a56565b9695505050505050565b600080604083850312156134a1576134a0612916565b5b60006134af85828601612f0e565b92505060206134c085828601612fa8565b9150509250929050565b60006080820190506134df6000830187612a3b565b6134ec6020830186612a56565b6134f96040830185612a3b565b6135066060830184612a56565b95945050505050565b60006060820190506135246000830186612ee4565b61353160208301856130cf565b61353e6040830184612a8e565b949350505050565b600081905092915050565b7f73746570426c61636b4c69737400000000000000000000000000000000000000600082015250565b6000613587600d83613546565b915061359282613551565b600d82019050919050565b60008160f01b9050919050565b60006135b58261359d565b9050919050565b6135cd6135c882612920565b6135aa565b82525050565b60006135de8261357a565b91506135ea82846135bc565b60028201915081905092915050565b7f7374657057686974654c69737400000000000000000000000000000000000000600082015250565b600061362f600d83613546565b915061363a826135f9565b600d82019050919050565b600061365082613622565b915061365c82846135bc565b60028201915081905092915050565b600081519050919050565b60005b83811015613694578082015181840152602081019050613679565b60008484015250505050565b60006136ab8261366b565b6136b58185613546565b93506136c5818560208601613676565b80840191505092915050565b60006136dd82856136a0565b91506136e982846135bc565b6002820191508190509392505050565b600061370582846136a0565b91508190509291505056fea26469706673582212204b209dffbb1485592b5398b72f2f3188f57fb17dc42b77d87936cf846e46f88964736f6c63430008120033",
  "devdoc": {
    "kind": "dev",
    "methods": {},
    "version": 1
  },
  "userdoc": {
    "kind": "user",
    "methods": {},
    "version": 1
  },
  "storageLayout": {
    "storage": [
      {
        "astId": 8388,
        "contract": "contracts/ConfigManager.sol:ConfigManager",
        "label": "owner",
        "offset": 0,
        "slot": "0",
        "type": "t_address_payable"
      },
      {
        "astId": 6812,
        "contract": "contracts/ConfigManager.sol:ConfigManager",
        "label": "eternalStorageAddress",
        "offset": 0,
        "slot": "1",
        "type": "t_address"
      },
      {
        "astId": 6814,
        "contract": "contracts/ConfigManager.sol:ConfigManager",
        "label": "upstreamAddress",
        "offset": 0,
        "slot": "2",
        "type": "t_address"
      },
      {
        "astId": 6816,
        "contract": "contracts/ConfigManager.sol:ConfigManager",
        "label": "isUserProxy",
        "offset": 20,
        "slot": "2",
        "type": "t_bool"
      }
    ],
    "types": {
      "t_address": {
        "encoding": "inplace",
        "label": "address",
        "numberOfBytes": "20"
      },
      "t_address_payable": {
        "encoding": "inplace",
        "label": "address payable",
        "numberOfBytes": "20"
      },
      "t_bool": {
        "encoding": "inplace",
        "label": "bool",
        "numberOfBytes": "1"
      }
    }
  }
}