{
  "address": "0x0724F18B2aA7D6413D3fDcF6c0c27458a8170Dd9",
  "abi": [
    {
      "anonymous": false,
      "inputs": [
        {
          "components": [
            {
              "components": [
                {
                  "internalType": "enum AssetType",
                  "name": "assetType",
                  "type": "uint8"
                },
                {
                  "internalType": "address",
                  "name": "assetAddress",
                  "type": "address"
                }
              ],
              "internalType": "struct Asset",
              "name": "asset",
              "type": "tuple"
            },
            {
              "internalType": "uint256",
              "name": "amount",
              "type": "uint256"
            }
          ],
          "indexed": false,
          "internalType": "struct AssetAmount",
          "name": "assetAmount",
          "type": "tuple"
        }
      ],
      "name": "AssetAdded",
      "type": "event"
    },
    {
      "inputs": [
        {
          "components": [
            {
              "components": [
                {
                  "internalType": "enum AssetType",
                  "name": "assetType",
                  "type": "uint8"
                },
                {
                  "internalType": "address",
                  "name": "assetAddress",
                  "type": "address"
                }
              ],
              "internalType": "struct Asset",
              "name": "asset",
              "type": "tuple"
            },
            {
              "internalType": "uint256",
              "name": "amount",
              "type": "uint256"
            }
          ],
          "internalType": "struct AssetAmount[]",
          "name": "assetAmounts",
          "type": "tuple[]"
        },
        {
          "internalType": "bytes",
          "name": "",
          "type": "bytes"
        }
      ],
      "name": "execute",
      "outputs": [
        {
          "components": [
            {
              "components": [
                {
                  "components": [
                    {
                      "internalType": "enum AssetType",
                      "name": "assetType",
                      "type": "uint8"
                    },
                    {
                      "internalType": "address",
                      "name": "assetAddress",
                      "type": "address"
                    }
                  ],
                  "internalType": "struct Asset",
                  "name": "asset",
                  "type": "tuple"
                },
                {
                  "internalType": "uint256",
                  "name": "amount",
                  "type": "uint256"
                }
              ],
              "internalType": "struct AssetAmount[]",
              "name": "inputAssetAmounts",
              "type": "tuple[]"
            },
            {
              "components": [
                {
                  "components": [
                    {
                      "internalType": "enum AssetType",
                      "name": "assetType",
                      "type": "uint8"
                    },
                    {
                      "internalType": "address",
                      "name": "assetAddress",
                      "type": "address"
                    }
                  ],
                  "internalType": "struct Asset",
                  "name": "asset",
                  "type": "tuple"
                },
                {
                  "internalType": "uint256",
                  "name": "amount",
                  "type": "uint256"
                }
              ],
              "internalType": "struct AssetAmount[]",
              "name": "outputAssetAmounts",
              "type": "tuple[]"
            },
            {
              "internalType": "int16",
              "name": "nextStepIndex",
              "type": "int16"
            }
          ],
          "internalType": "struct WorkflowStepResult",
          "name": "",
          "type": "tuple"
        }
      ],
      "stateMutability": "payable",
      "type": "function"
    }
  ],
  "transactionHash": "0xa2edb335cfe98d4acf630b0028fa98f584ab390faade6003ae6bc63d03f322a0",
  "args": [],
  "numDeployments": 1,
  "solcInputHash": "42a63c07b7b3b26b36cc60cdb849df8a",
  "bytecode": "0x608060405234801561001057600080fd5b50611465806100206000396000f3fe60806040526004361061001e5760003560e01c80637bb26ca714610023575b600080fd5b61003d60048036038101906100389190610996565b610053565b60405161004a9190610c68565b60405180910390f35b61005b610824565b600185859050146100a1576040517f08c379a000000000000000000000000000000000000000000000000000000000815260040161009890610d0d565b60405180910390fd5b7fe69b1fa8a2307790ac35f91c6e1b14f0d0827edb30c3f450804581f0cf5c140a858560008181106100d6576100d5610d2d565b5b9050606002016040516100e99190610ea7565b60405180910390a16000600281111561010557610104610a43565b5b8585600081811061011957610118610d2d565b5b90506060020160000160000160208101906101349190610ec2565b600281111561014657610145610a43565b5b036101c0578484600081811061015f5761015e610d2d565b5b9050606002016040013534146101aa576040517f08c379a00000000000000000000000000000000000000000000000000000000081526004016101a190610f61565b60405180910390fd5b6101b560008061034d565b604001519050610345565b600160028111156101d4576101d3610a43565b5b858560008181106101e8576101e7610d2d565b5b90506060020160000160000160208101906102039190610ec2565b600281111561021557610214610a43565b5b14610255576040517f08c379a000000000000000000000000000000000000000000000000000000000815260040161024c90610ff3565b60405180910390fd5b60008585600081811061026b5761026a610d2d565b5b90506060020160000160200160208101906102869190611013565b90506102d23330888860008181106102a1576102a0610d2d565b5b905060600201604001358473ffffffffffffffffffffffffffffffffffffffff16610469909392919063ffffffff16565b61033d868660008181106102e9576102e8610d2d565b5b90506060020160000160200160208101906103049190611013565b8787600081811061031857610317610d2d565b5b9050606002016040013561032e6000600161034d565b6104f29092919063ffffffff16565b604001519150505b949350505050565b610355610848565b60008367ffffffffffffffff81111561037157610370611040565b5b6040519080825280602002602001820160405280156103aa57816020015b61039761086f565b81526020019060019003908161038f5790505b50905060008367ffffffffffffffff8111156103c9576103c8611040565b5b60405190808252806020026020018201604052801561040257816020015b6103ef61086f565b8152602001906001900390816103e75790505b5090506040518060600160405280600081526020016000815260200160405180606001604052808581526020018481526020017ffffffffffffffffffffffffffffffffffffffffffffffffffffffffffffffffe60010b8152508152509250505092915050565b6104ec846323b872dd60e01b85858560405160240161048a9392919061108d565b604051602081830303815290604052907bffffffffffffffffffffffffffffffffffffffffffffffffffffffff19166020820180517bffffffffffffffffffffffffffffffffffffffffffffffffffffffff8381831617835250505050610590565b50505050565b6104fa610848565b604051806040016040528060405180604001604052806001600281111561052457610523610a43565b5b81526020018673ffffffffffffffffffffffffffffffffffffffff16815250815260200183815250846040015160200151856020018051809190610567906110f3565b8152508151811061057b5761057a610d2d565b5b60200260200101819052508390509392505050565b60006105f2826040518060400160405280602081526020017f5361666545524332303a206c6f772d6c6576656c2063616c6c206661696c65648152508573ffffffffffffffffffffffffffffffffffffffff166106579092919063ffffffff16565b905060008151111561065257808060200190518101906106129190611173565b610651576040517f08c379a000000000000000000000000000000000000000000000000000000000815260040161064890611212565b60405180910390fd5b5b505050565b6060610666848460008561066f565b90509392505050565b6060824710156106b4576040517f08c379a00000000000000000000000000000000000000000000000000000000081526004016106ab906112a4565b60405180910390fd5b6000808673ffffffffffffffffffffffffffffffffffffffff1685876040516106dd9190611335565b60006040518083038185875af1925050503d806000811461071a576040519150601f19603f3d011682016040523d82523d6000602084013e61071f565b606091505b50915091506107308783838761073c565b92505050949350505050565b6060831561079e57600083510361079657610756856107b1565b610795576040517f08c379a000000000000000000000000000000000000000000000000000000000815260040161078c90611398565b60405180910390fd5b5b8290506107a9565b6107a883836107d4565b5b949350505050565b6000808273ffffffffffffffffffffffffffffffffffffffff163b119050919050565b6000825111156107e75781518083602001fd5b806040517f08c379a000000000000000000000000000000000000000000000000000000000815260040161081b919061140d565b60405180910390fd5b60405180606001604052806060815260200160608152602001600060010b81525090565b60405180606001604052806000815260200160008152602001610869610824565b81525090565b604051806040016040528061088261088f565b8152602001600081525090565b6040518060400160405280600060028111156108ae576108ad610a43565b5b8152602001600073ffffffffffffffffffffffffffffffffffffffff1681525090565b600080fd5b600080fd5b600080fd5b600080fd5b600080fd5b60008083601f840112610900576108ff6108db565b5b8235905067ffffffffffffffff81111561091d5761091c6108e0565b5b602083019150836060820283011115610939576109386108e5565b5b9250929050565b60008083601f840112610956576109556108db565b5b8235905067ffffffffffffffff811115610973576109726108e0565b5b60208301915083600182028301111561098f5761098e6108e5565b5b9250929050565b600080600080604085870312156109b0576109af6108d1565b5b600085013567ffffffffffffffff8111156109ce576109cd6108d6565b5b6109da878288016108ea565b9450945050602085013567ffffffffffffffff8111156109fd576109fc6108d6565b5b610a0987828801610940565b925092505092959194509250565b600081519050919050565b600082825260208201905092915050565b6000819050602082019050919050565b7f4e487b7100000000000000000000000000000000000000000000000000000000600052602160045260246000fd5b60038110610a8357610a82610a43565b5b50565b6000819050610a9482610a72565b919050565b6000610aa482610a86565b9050919050565b610ab481610a99565b82525050565b600073ffffffffffffffffffffffffffffffffffffffff82169050919050565b6000610ae582610aba565b9050919050565b610af581610ada565b82525050565b604082016000820151610b116000850182610aab565b506020820151610b246020850182610aec565b50505050565b6000819050919050565b610b3d81610b2a565b82525050565b606082016000820151610b596000850182610afb565b506020820151610b6c6040850182610b34565b50505050565b6000610b7e8383610b43565b60608301905092915050565b6000602082019050919050565b6000610ba282610a17565b610bac8185610a22565b9350610bb783610a33565b8060005b83811015610be8578151610bcf8882610b72565b9750610bda83610b8a565b925050600181019050610bbb565b5085935050505092915050565b60008160010b9050919050565b610c0b81610bf5565b82525050565b60006060830160008301518482036000860152610c2e8282610b97565b91505060208301518482036020860152610c488282610b97565b9150506040830151610c5d6040860182610c02565b508091505092915050565b60006020820190508181036000830152610c828184610c11565b905092915050565b600082825260208201905092915050565b7f416464546f6b656e416374696f6e206d7573742068617665203120417373657460008201527f416d6f756e740000000000000000000000000000000000000000000000000000602082015250565b6000610cf7602683610c8a565b9150610d0282610c9b565b604082019050919050565b60006020820190508181036000830152610d2681610cea565b9050919050565b7f4e487b7100000000000000000000000000000000000000000000000000000000600052603260045260246000fd5b600082905092915050565b60038110610d7457600080fd5b50565b600081359050610d8681610d67565b92915050565b6000610d9b6020840184610d77565b905092915050565b610dac81610ada565b8114610db757600080fd5b50565b600081359050610dc981610da3565b92915050565b6000610dde6020840184610dba565b905092915050565b60408201610df76000830183610d8c565b610e046000850182610aab565b50610e126020830183610dcf565b610e1f6020850182610aec565b50505050565b610e2e81610b2a565b8114610e3957600080fd5b50565b600081359050610e4b81610e25565b92915050565b6000610e606020840184610e3c565b905092915050565b60608201610e796000830183610d5c565b610e866000850182610de6565b50610e946040830183610e51565b610ea16040850182610b34565b50505050565b6000606082019050610ebc6000830184610e68565b92915050565b600060208284031215610ed857610ed76108d1565b5b6000610ee684828501610d77565b91505092915050565b7f6e617469766520616d6f756e742073686f756c64206d61746368206d73672e7660008201527f616c756500000000000000000000000000000000000000000000000000000000602082015250565b6000610f4b602483610c8a565b9150610f5682610eef565b604082019050919050565b60006020820190508181036000830152610f7a81610f3e565b9050919050565b7f416464546f6b656e416374696f6e20737570706f727473206e6174697665206160008201527f6e64204552433230730000000000000000000000000000000000000000000000602082015250565b6000610fdd602983610c8a565b9150610fe882610f81565b604082019050919050565b6000602082019050818103600083015261100c81610fd0565b9050919050565b600060208284031215611029576110286108d1565b5b600061103784828501610dba565b91505092915050565b7f4e487b7100000000000000000000000000000000000000000000000000000000600052604160045260246000fd5b61107881610ada565b82525050565b61108781610b2a565b82525050565b60006060820190506110a2600083018661106f565b6110af602083018561106f565b6110bc604083018461107e565b949350505050565b7f4e487b7100000000000000000000000000000000000000000000000000000000600052601160045260246000fd5b60006110fe82610b2a565b91507fffffffffffffffffffffffffffffffffffffffffffffffffffffffffffffffff82036111305761112f6110c4565b5b600182019050919050565b60008115159050919050565b6111508161113b565b811461115b57600080fd5b50565b60008151905061116d81611147565b92915050565b600060208284031215611189576111886108d1565b5b60006111978482850161115e565b91505092915050565b7f5361666545524332303a204552433230206f7065726174696f6e20646964206e60008201527f6f74207375636365656400000000000000000000000000000000000000000000602082015250565b60006111fc602a83610c8a565b9150611207826111a0565b604082019050919050565b6000602082019050818103600083015261122b816111ef565b9050919050565b7f416464726573733a20696e73756666696369656e742062616c616e636520666f60008201527f722063616c6c0000000000000000000000000000000000000000000000000000602082015250565b600061128e602683610c8a565b915061129982611232565b604082019050919050565b600060208201905081810360008301526112bd81611281565b9050919050565b600081519050919050565b600081905092915050565b60005b838110156112f85780820151818401526020810190506112dd565b60008484015250505050565b600061130f826112c4565b61131981856112cf565b93506113298185602086016112da565b80840191505092915050565b60006113418284611304565b915081905092915050565b7f416464726573733a2063616c6c20746f206e6f6e2d636f6e7472616374000000600082015250565b6000611382601d83610c8a565b915061138d8261134c565b602082019050919050565b600060208201905081810360008301526113b181611375565b9050919050565b600081519050919050565b6000601f19601f8301169050919050565b60006113df826113b8565b6113e98185610c8a565b93506113f98185602086016112da565b611402816113c3565b840191505092915050565b6000602082019050818103600083015261142781846113d4565b90509291505056fea264697066735822122000538157bad925bba00995602eead0141c60a45c12c1c3125ac50681f984e11b64736f6c63430008120033",
  "devdoc": {
    "events": {
      "AssetAdded(((uint8,address),uint256))": {
        "params": {
          "assetAmount": "The asset and amount that is transferred into this workflow instance"
        }
      }
    },
    "kind": "dev",
    "methods": {},
    "version": 1
  },
  "userdoc": {
    "events": {
      "AssetAdded(((uint8,address),uint256))": {
        "notice": "This event is emitted when AddAssetAction is executed"
      }
    },
    "kind": "user",
    "methods": {},
    "version": 1
  },
  "storageLayout": {
    "storage": [],
    "types": null
  }
}