{
  "address": "0x22b1c5C2C9251622f7eFb76E356104E5aF0e996A",
  "abi": [
    {
      "anonymous": false,
      "inputs": [
        {
          "components": [
            {
              "components": [
                {
                  "internalType": "enum AssetType",
                  "name": "assetType",
                  "type": "uint8"
                },
                {
                  "internalType": "address",
                  "name": "assetAddress",
                  "type": "address"
                }
              ],
              "internalType": "struct Asset",
              "name": "asset",
              "type": "tuple"
            },
            {
              "internalType": "uint256",
              "name": "amount",
              "type": "uint256"
            }
          ],
          "indexed": false,
          "internalType": "struct AssetAmount",
          "name": "assetAmount",
          "type": "tuple"
        }
      ],
      "name": "AssetAdded",
      "type": "event"
    },
    {
      "inputs": [
        {
          "components": [
            {
              "components": [
                {
                  "internalType": "enum AssetType",
                  "name": "assetType",
                  "type": "uint8"
                },
                {
                  "internalType": "address",
                  "name": "assetAddress",
                  "type": "address"
                }
              ],
              "internalType": "struct Asset",
              "name": "asset",
              "type": "tuple"
            },
            {
              "internalType": "uint256",
              "name": "amount",
              "type": "uint256"
            }
          ],
          "internalType": "struct AssetAmount[]",
          "name": "assetAmounts",
          "type": "tuple[]"
        },
        {
          "internalType": "bytes",
          "name": "",
          "type": "bytes"
        }
      ],
      "name": "execute",
      "outputs": [
        {
          "components": [
            {
              "components": [
                {
                  "components": [
                    {
                      "internalType": "enum AssetType",
                      "name": "assetType",
                      "type": "uint8"
                    },
                    {
                      "internalType": "address",
                      "name": "assetAddress",
                      "type": "address"
                    }
                  ],
                  "internalType": "struct Asset",
                  "name": "asset",
                  "type": "tuple"
                },
                {
                  "internalType": "uint256",
                  "name": "amount",
                  "type": "uint256"
                }
              ],
              "internalType": "struct AssetAmount[]",
              "name": "inputAssetAmounts",
              "type": "tuple[]"
            },
            {
              "components": [
                {
                  "components": [
                    {
                      "internalType": "enum AssetType",
                      "name": "assetType",
                      "type": "uint8"
                    },
                    {
                      "internalType": "address",
                      "name": "assetAddress",
                      "type": "address"
                    }
                  ],
                  "internalType": "struct Asset",
                  "name": "asset",
                  "type": "tuple"
                },
                {
                  "internalType": "uint256",
                  "name": "amount",
                  "type": "uint256"
                }
              ],
              "internalType": "struct AssetAmount[]",
              "name": "outputAssetAmounts",
              "type": "tuple[]"
            },
            {
              "internalType": "int16",
              "name": "nextStepIndex",
              "type": "int16"
            },
            {
              "internalType": "int24",
              "name": "fee",
              "type": "int24"
            }
          ],
          "internalType": "struct WorkflowStepResult",
          "name": "",
          "type": "tuple"
        }
      ],
      "stateMutability": "payable",
      "type": "function"
    }
  ],
  "transactionHash": "0x5c869c03e7287d497ad2f5ba4831a334d58f52521c3780c77dc3c86d569ac4c6",
  "args": [],
  "numDeployments": 1,
  "solcInputHash": "02d2baa2ada0a9ecd22b96536c0dd955",
  "bytecode": "0x608060405234801561001057600080fd5b506114c7806100206000396000f3fe60806040526004361061001e5760003560e01c80637bb26ca714610023575b600080fd5b61003d600480360381019061003891906109c9565b610053565b60405161004a9190610cca565b60405180910390f35b61005b61084d565b600185859050146100a1576040517f08c379a000000000000000000000000000000000000000000000000000000000815260040161009890610d6f565b60405180910390fd5b7fe69b1fa8a2307790ac35f91c6e1b14f0d0827edb30c3f450804581f0cf5c140a858560008181106100d6576100d5610d8f565b5b9050606002016040516100e99190610f09565b60405180910390a16000600281111561010557610104610a76565b5b8585600081811061011957610118610d8f565b5b90506060020160000160000160208101906101349190610f24565b600281111561014657610145610a76565b5b036101c0578484600081811061015f5761015e610d8f565b5b9050606002016040013534146101aa576040517f08c379a00000000000000000000000000000000000000000000000000000000081526004016101a190610fc3565b60405180910390fd5b6101b560008061034d565b604001519050610345565b600160028111156101d4576101d3610a76565b5b858560008181106101e8576101e7610d8f565b5b90506060020160000160000160208101906102039190610f24565b600281111561021557610214610a76565b5b14610255576040517f08c379a000000000000000000000000000000000000000000000000000000000815260040161024c90611055565b60405180910390fd5b60008585600081811061026b5761026a610d8f565b5b90506060020160000160200160208101906102869190611075565b90506102d23330888860008181106102a1576102a0610d8f565b5b905060600201604001358473ffffffffffffffffffffffffffffffffffffffff16610492909392919063ffffffff16565b61033d868660008181106102e9576102e8610d8f565b5b90506060020160000160200160208101906103049190611075565b8787600081811061031857610317610d8f565b5b9050606002016040013561032e6000600161034d565b61051b9092919063ffffffff16565b604001519150505b949350505050565b61035561087b565b60008367ffffffffffffffff811115610371576103706110a2565b5b6040519080825280602002602001820160405280156103aa57816020015b6103976108a2565b81526020019060019003908161038f5790505b50905060008367ffffffffffffffff8111156103c9576103c86110a2565b5b60405190808252806020026020018201604052801561040257816020015b6103ef6108a2565b8152602001906001900390816103e75790505b5090506040518060600160405280600081526020016000815260200160405180608001604052808581526020018481526020017ffffffffffffffffffffffffffffffffffffffffffffffffffffffffffffffffe60010b81526020017fffffffffffffffffffffffffffffffffffffffffffffffffffffffffffffffff60020b8152508152509250505092915050565b610515846323b872dd60e01b8585856040516024016104b3939291906110ef565b604051602081830303815290604052907bffffffffffffffffffffffffffffffffffffffffffffffffffffffff19166020820180517bffffffffffffffffffffffffffffffffffffffffffffffffffffffff83818316178352505050506105b9565b50505050565b61052361087b565b604051806040016040528060405180604001604052806001600281111561054d5761054c610a76565b5b81526020018673ffffffffffffffffffffffffffffffffffffffff1681525081526020018381525084604001516020015185602001805180919061059090611155565b815250815181106105a4576105a3610d8f565b5b60200260200101819052508390509392505050565b600061061b826040518060400160405280602081526020017f5361666545524332303a206c6f772d6c6576656c2063616c6c206661696c65648152508573ffffffffffffffffffffffffffffffffffffffff166106809092919063ffffffff16565b905060008151111561067b578080602001905181019061063b91906111d5565b61067a576040517f08c379a000000000000000000000000000000000000000000000000000000000815260040161067190611274565b60405180910390fd5b5b505050565b606061068f8484600085610698565b90509392505050565b6060824710156106dd576040517f08c379a00000000000000000000000000000000000000000000000000000000081526004016106d490611306565b60405180910390fd5b6000808673ffffffffffffffffffffffffffffffffffffffff1685876040516107069190611397565b60006040518083038185875af1925050503d8060008114610743576040519150601f19603f3d011682016040523d82523d6000602084013e610748565b606091505b509150915061075987838387610765565b92505050949350505050565b606083156107c75760008351036107bf5761077f856107da565b6107be576040517f08c379a00000000000000000000000000000000000000000000000000000000081526004016107b5906113fa565b60405180910390fd5b5b8290506107d2565b6107d183836107fd565b5b949350505050565b6000808273ffffffffffffffffffffffffffffffffffffffff163b119050919050565b6000825111156108105781518083602001fd5b806040517f08c379a0000000000000000000000000000000000000000000000000000000008152600401610844919061146f565b60405180910390fd5b60405180608001604052806060815260200160608152602001600060010b8152602001600060020b81525090565b6040518060600160405280600081526020016000815260200161089c61084d565b81525090565b60405180604001604052806108b56108c2565b8152602001600081525090565b6040518060400160405280600060028111156108e1576108e0610a76565b5b8152602001600073ffffffffffffffffffffffffffffffffffffffff1681525090565b600080fd5b600080fd5b600080fd5b600080fd5b600080fd5b60008083601f8401126109335761093261090e565b5b8235905067ffffffffffffffff8111156109505761094f610913565b5b60208301915083606082028301111561096c5761096b610918565b5b9250929050565b60008083601f8401126109895761098861090e565b5b8235905067ffffffffffffffff8111156109a6576109a5610913565b5b6020830191508360018202830111156109c2576109c1610918565b5b9250929050565b600080600080604085870312156109e3576109e2610904565b5b600085013567ffffffffffffffff811115610a0157610a00610909565b5b610a0d8782880161091d565b9450945050602085013567ffffffffffffffff811115610a3057610a2f610909565b5b610a3c87828801610973565b925092505092959194509250565b600081519050919050565b600082825260208201905092915050565b6000819050602082019050919050565b7f4e487b7100000000000000000000000000000000000000000000000000000000600052602160045260246000fd5b60038110610ab657610ab5610a76565b5b50565b6000819050610ac782610aa5565b919050565b6000610ad782610ab9565b9050919050565b610ae781610acc565b82525050565b600073ffffffffffffffffffffffffffffffffffffffff82169050919050565b6000610b1882610aed565b9050919050565b610b2881610b0d565b82525050565b604082016000820151610b446000850182610ade565b506020820151610b576020850182610b1f565b50505050565b6000819050919050565b610b7081610b5d565b82525050565b606082016000820151610b8c6000850182610b2e565b506020820151610b9f6040850182610b67565b50505050565b6000610bb18383610b76565b60608301905092915050565b6000602082019050919050565b6000610bd582610a4a565b610bdf8185610a55565b9350610bea83610a66565b8060005b83811015610c1b578151610c028882610ba5565b9750610c0d83610bbd565b925050600181019050610bee565b5085935050505092915050565b60008160010b9050919050565b610c3e81610c28565b82525050565b60008160020b9050919050565b610c5a81610c44565b82525050565b60006080830160008301518482036000860152610c7d8282610bca565b91505060208301518482036020860152610c978282610bca565b9150506040830151610cac6040860182610c35565b506060830151610cbf6060860182610c51565b508091505092915050565b60006020820190508181036000830152610ce48184610c60565b905092915050565b600082825260208201905092915050565b7f416464546f6b656e416374696f6e206d7573742068617665203120417373657460008201527f416d6f756e740000000000000000000000000000000000000000000000000000602082015250565b6000610d59602683610cec565b9150610d6482610cfd565b604082019050919050565b60006020820190508181036000830152610d8881610d4c565b9050919050565b7f4e487b7100000000000000000000000000000000000000000000000000000000600052603260045260246000fd5b600082905092915050565b60038110610dd657600080fd5b50565b600081359050610de881610dc9565b92915050565b6000610dfd6020840184610dd9565b905092915050565b610e0e81610b0d565b8114610e1957600080fd5b50565b600081359050610e2b81610e05565b92915050565b6000610e406020840184610e1c565b905092915050565b60408201610e596000830183610dee565b610e666000850182610ade565b50610e746020830183610e31565b610e816020850182610b1f565b50505050565b610e9081610b5d565b8114610e9b57600080fd5b50565b600081359050610ead81610e87565b92915050565b6000610ec26020840184610e9e565b905092915050565b60608201610edb6000830183610dbe565b610ee86000850182610e48565b50610ef66040830183610eb3565b610f036040850182610b67565b50505050565b6000606082019050610f1e6000830184610eca565b92915050565b600060208284031215610f3a57610f39610904565b5b6000610f4884828501610dd9565b91505092915050565b7f6e617469766520616d6f756e742073686f756c64206d61746368206d73672e7660008201527f616c756500000000000000000000000000000000000000000000000000000000602082015250565b6000610fad602483610cec565b9150610fb882610f51565b604082019050919050565b60006020820190508181036000830152610fdc81610fa0565b9050919050565b7f416464546f6b656e416374696f6e20737570706f727473206e6174697665206160008201527f6e64204552433230730000000000000000000000000000000000000000000000602082015250565b600061103f602983610cec565b915061104a82610fe3565b604082019050919050565b6000602082019050818103600083015261106e81611032565b9050919050565b60006020828403121561108b5761108a610904565b5b600061109984828501610e1c565b91505092915050565b7f4e487b7100000000000000000000000000000000000000000000000000000000600052604160045260246000fd5b6110da81610b0d565b82525050565b6110e981610b5d565b82525050565b600060608201905061110460008301866110d1565b61111160208301856110d1565b61111e60408301846110e0565b949350505050565b7f4e487b7100000000000000000000000000000000000000000000000000000000600052601160045260246000fd5b600061116082610b5d565b91507fffffffffffffffffffffffffffffffffffffffffffffffffffffffffffffffff820361119257611191611126565b5b600182019050919050565b60008115159050919050565b6111b28161119d565b81146111bd57600080fd5b50565b6000815190506111cf816111a9565b92915050565b6000602082840312156111eb576111ea610904565b5b60006111f9848285016111c0565b91505092915050565b7f5361666545524332303a204552433230206f7065726174696f6e20646964206e60008201527f6f74207375636365656400000000000000000000000000000000000000000000602082015250565b600061125e602a83610cec565b915061126982611202565b604082019050919050565b6000602082019050818103600083015261128d81611251565b9050919050565b7f416464726573733a20696e73756666696369656e742062616c616e636520666f60008201527f722063616c6c0000000000000000000000000000000000000000000000000000602082015250565b60006112f0602683610cec565b91506112fb82611294565b604082019050919050565b6000602082019050818103600083015261131f816112e3565b9050919050565b600081519050919050565b600081905092915050565b60005b8381101561135a57808201518184015260208101905061133f565b60008484015250505050565b600061137182611326565b61137b8185611331565b935061138b81856020860161133c565b80840191505092915050565b60006113a38284611366565b915081905092915050565b7f416464726573733a2063616c6c20746f206e6f6e2d636f6e7472616374000000600082015250565b60006113e4601d83610cec565b91506113ef826113ae565b602082019050919050565b60006020820190508181036000830152611413816113d7565b9050919050565b600081519050919050565b6000601f19601f8301169050919050565b60006114418261141a565b61144b8185610cec565b935061145b81856020860161133c565b61146481611425565b840191505092915050565b600060208201905081810360008301526114898184611436565b90509291505056fea2646970667358221220ebf22f3173264d6c83fa769a0d8a098e3241be23d4b7f8425d0609ebe65bb51464736f6c63430008120033",
  "devdoc": {
    "events": {
      "AssetAdded(((uint8,address),uint256))": {
        "params": {
          "assetAmount": "The asset and amount that is transferred into this workflow instance"
        }
      }
    },
    "kind": "dev",
    "methods": {},
    "version": 1
  },
  "userdoc": {
    "events": {
      "AssetAdded(((uint8,address),uint256))": {
        "notice": "This event is emitted when AddAssetAction is executed"
      }
    },
    "kind": "user",
    "methods": {},
    "version": 1
  },
  "storageLayout": {
    "storage": [],
    "types": null
  }
}