{
  "address": "0x6D712CB50297b97b79dE784d10F487C00d7f8c2C",
  "abi": [
    {
      "inputs": [
        {
          "internalType": "address",
          "name": "_aavePoolAddress",
          "type": "address"
        }
      ],
      "stateMutability": "nonpayable",
      "type": "constructor"
    },
    {
      "anonymous": false,
      "inputs": [
        {
          "components": [
            {
              "components": [
                {
                  "internalType": "enum AssetType",
                  "name": "assetType",
                  "type": "uint8"
                },
                {
                  "internalType": "address",
                  "name": "assetAddress",
                  "type": "address"
                }
              ],
              "internalType": "struct Asset",
              "name": "asset",
              "type": "tuple"
            },
            {
              "internalType": "uint256",
              "name": "amount",
              "type": "uint256"
            }
          ],
          "indexed": false,
          "internalType": "struct AssetAmount",
          "name": "inputAssetAmount",
          "type": "tuple"
        }
      ],
      "name": "AaveSupplyActionEvent",
      "type": "event"
    },
    {
      "inputs": [
        {
          "components": [
            {
              "components": [
                {
                  "internalType": "enum AssetType",
                  "name": "assetType",
                  "type": "uint8"
                },
                {
                  "internalType": "address",
                  "name": "assetAddress",
                  "type": "address"
                }
              ],
              "internalType": "struct Asset",
              "name": "asset",
              "type": "tuple"
            },
            {
              "internalType": "uint256",
              "name": "amount",
              "type": "uint256"
            }
          ],
          "internalType": "struct AssetAmount[]",
          "name": "assetAmounts",
          "type": "tuple[]"
        },
        {
          "internalType": "bytes",
          "name": "",
          "type": "bytes"
        }
      ],
      "name": "execute",
      "outputs": [
        {
          "components": [
            {
              "components": [
                {
                  "components": [
                    {
                      "internalType": "enum AssetType",
                      "name": "assetType",
                      "type": "uint8"
                    },
                    {
                      "internalType": "address",
                      "name": "assetAddress",
                      "type": "address"
                    }
                  ],
                  "internalType": "struct Asset",
                  "name": "asset",
                  "type": "tuple"
                },
                {
                  "internalType": "uint256",
                  "name": "amount",
                  "type": "uint256"
                }
              ],
              "internalType": "struct AssetAmount[]",
              "name": "inputAssetAmounts",
              "type": "tuple[]"
            },
            {
              "components": [
                {
                  "components": [
                    {
                      "internalType": "enum AssetType",
                      "name": "assetType",
                      "type": "uint8"
                    },
                    {
                      "internalType": "address",
                      "name": "assetAddress",
                      "type": "address"
                    }
                  ],
                  "internalType": "struct Asset",
                  "name": "asset",
                  "type": "tuple"
                },
                {
                  "internalType": "uint256",
                  "name": "amount",
                  "type": "uint256"
                }
              ],
              "internalType": "struct AssetAmount[]",
              "name": "outputAssetAmounts",
              "type": "tuple[]"
            },
            {
              "internalType": "int16",
              "name": "nextStepIndex",
              "type": "int16"
            },
            {
              "internalType": "int24",
              "name": "fee",
              "type": "int24"
            }
          ],
          "internalType": "struct WorkflowStepResult",
          "name": "",
          "type": "tuple"
        }
      ],
      "stateMutability": "payable",
      "type": "function"
    },
    {
      "inputs": [],
      "name": "poolAddress",
      "outputs": [
        {
          "internalType": "address",
          "name": "",
          "type": "address"
        }
      ],
      "stateMutability": "view",
      "type": "function"
    }
  ],
  "transactionHash": "0x8e4f6b39d76d85c2b7ee81f626275207ce8957d0a9cbda994ffc6d3a75270511",
  "args": [
    "0x87870Bca3F3fD6335C3F4ce8392D69350B4fA4E2"
  ],
  "numDeployments": 1,
  "solcInputHash": "95e69282f9bd955036d237f67db53de4",
  "bytecode": "0x60a06040523480156200001157600080fd5b506040516200202b3803806200202b8339818101604052810190620000379190620000dc565b8073ffffffffffffffffffffffffffffffffffffffff1660808173ffffffffffffffffffffffffffffffffffffffff1681525050506200010e565b600080fd5b600073ffffffffffffffffffffffffffffffffffffffff82169050919050565b6000620000a48262000077565b9050919050565b620000b68162000097565b8114620000c257600080fd5b50565b600081519050620000d681620000ab565b92915050565b600060208284031215620000f557620000f462000072565b5b60006200010584828501620000c5565b91505092915050565b608051611ef46200013760003960008181608b0152818161025301526102bc0152611ef46000f3fe6080604052600436106100295760003560e01c80631755ff211461002e5780637bb26ca714610059575b600080fd5b34801561003a57600080fd5b50610043610089565b6040516100509190610ee7565b60405180910390f35b610073600480360381019061006e9190610fd1565b6100ad565b60405161008091906112a0565b60405180910390f35b7f000000000000000000000000000000000000000000000000000000000000000081565b6100b5610bef565b600185859050146100fb576040517f08c379a00000000000000000000000000000000000000000000000000000000081526004016100f290611345565b60405180910390fd5b6001600281111561010f5761010e61107e565b5b8585600081811061012357610122611365565b5b905060600201600001600001602081019061013e91906113b9565b60028111156101505761014f61107e565b5b14610190576040517f08c379a000000000000000000000000000000000000000000000000000000000815260040161018790611432565b60405180910390fd5b7f46fe748530bbf7d655d836d8ce67684c4e9122a23e9d988ca820b9d8e50958b9858560008181106101c5576101c4611365565b5b9050606002016040516101d89190611578565b60405180910390a16101e8610c1d565b858560008181106101fc576101fb611365565b5b90506060020160000160200160208101906102179190611593565b816000019073ffffffffffffffffffffffffffffffffffffffff16908173ffffffffffffffffffffffffffffffffffffffff16815250506102ba7f00000000000000000000000000000000000000000000000000000000000000008787600081811061028657610285611365565b5b90506060020160400135836000015173ffffffffffffffffffffffffffffffffffffffff166106a69092919063ffffffff16565b7f0000000000000000000000000000000000000000000000000000000000000000816020019073ffffffffffffffffffffffffffffffffffffffff16908173ffffffffffffffffffffffffffffffffffffffff1681525050806020015173ffffffffffffffffffffffffffffffffffffffff166335ea6a758787600081811061034657610345611365565b5b90506060020160000160200160208101906103619190611593565b6040518263ffffffff1660e01b815260040161037d9190610ee7565b6101e060405180830381865afa15801561039b573d6000803e3d6000fd5b505050506040513d601f19601f820116820180604052508101906103bf91906118da565b8160a001819052508060a001516101000151816040019073ffffffffffffffffffffffffffffffffffffffff16908173ffffffffffffffffffffffffffffffffffffffff1681525050806040015173ffffffffffffffffffffffffffffffffffffffff166370a08231306040518263ffffffff1660e01b81526004016104459190610ee7565b602060405180830381865afa158015610462573d6000803e3d6000fd5b505050506040513d601f19601f820116820180604052508101906104869190611908565b816060018181525050806020015173ffffffffffffffffffffffffffffffffffffffff1663617ba037878760008181106104c3576104c2611365565b5b90506060020160000160200160208101906104de9190611593565b888860008181106104f2576104f1611365565b5b905060600201604001353060006040518563ffffffff1660e01b815260040161051e9493929190611989565b600060405180830381600087803b15801561053857600080fd5b505af115801561054c573d6000803e3d6000fd5b50505050806040015173ffffffffffffffffffffffffffffffffffffffff166370a08231306040518263ffffffff1660e01b815260040161058d9190610ee7565b602060405180830381865afa1580156105aa573d6000803e3d6000fd5b505050506040513d601f19601f820116820180604052508101906105ce9190611908565b8160800181815250508060600151816080015111610621576040517f08c379a000000000000000000000000000000000000000000000000000000000815260040161061890611a1a565b60405180910390fd5b6106978160a001516101000151826060015183608001516106429190611a69565b6106888989600081811061065957610658611365565b5b90506060020180360381019061066f9190611b3d565b61067a60018061072c565b61087190919063ffffffff16565b6108bd9092919063ffffffff16565b60400151915050949350505050565b6107278363095ea7b360e01b84846040516024016106c5929190611b6a565b604051602081830303815290604052907bffffffffffffffffffffffffffffffffffffffffffffffffffffffff19166020820180517bffffffffffffffffffffffffffffffffffffffffffffffffffffffff838183161783525050505061095b565b505050565b610734610c9b565b60008367ffffffffffffffff8111156107505761074f6115d6565b5b60405190808252806020026020018201604052801561078957816020015b610776610cc2565b81526020019060019003908161076e5790505b50905060008367ffffffffffffffff8111156107a8576107a76115d6565b5b6040519080825280602002602001820160405280156107e157816020015b6107ce610cc2565b8152602001906001900390816107c65790505b5090506040518060600160405280600081526020016000815260200160405180608001604052808581526020018481526020017ffffffffffffffffffffffffffffffffffffffffffffffffffffffffffffffffe60010b81526020017fffffffffffffffffffffffffffffffffffffffffffffffffffffffffffffffff60020b8152508152509250505092915050565b610879610c9b565b8183604001516000015184600001805180919061089590611b93565b815250815181106108a9576108a8611365565b5b602002602001018190525082905092915050565b6108c5610c9b565b60405180604001604052806040518060400160405280600160028111156108ef576108ee61107e565b5b81526020018673ffffffffffffffffffffffffffffffffffffffff1681525081526020018381525084604001516020015185602001805180919061093290611b93565b8152508151811061094657610945611365565b5b60200260200101819052508390509392505050565b60006109bd826040518060400160405280602081526020017f5361666545524332303a206c6f772d6c6576656c2063616c6c206661696c65648152508573ffffffffffffffffffffffffffffffffffffffff16610a229092919063ffffffff16565b9050600081511115610a1d57808060200190518101906109dd9190611c13565b610a1c576040517f08c379a0000000000000000000000000000000000000000000000000000000008152600401610a1390611cb2565b60405180910390fd5b5b505050565b6060610a318484600085610a3a565b90509392505050565b606082471015610a7f576040517f08c379a0000000000000000000000000000000000000000000000000000000008152600401610a7690611d44565b60405180910390fd5b6000808673ffffffffffffffffffffffffffffffffffffffff168587604051610aa89190611dd5565b60006040518083038185875af1925050503d8060008114610ae5576040519150601f19603f3d011682016040523d82523d6000602084013e610aea565b606091505b5091509150610afb87838387610b07565b92505050949350505050565b60608315610b69576000835103610b6157610b2185610b7c565b610b60576040517f08c379a0000000000000000000000000000000000000000000000000000000008152600401610b5790611e38565b60405180910390fd5b5b829050610b74565b610b738383610b9f565b5b949350505050565b6000808273ffffffffffffffffffffffffffffffffffffffff163b119050919050565b600082511115610bb25781518083602001fd5b806040517f08c379a0000000000000000000000000000000000000000000000000000000008152600401610be69190611e9c565b60405180910390fd5b60405180608001604052806060815260200160608152602001600060010b8152602001600060020b81525090565b6040518060c00160405280600073ffffffffffffffffffffffffffffffffffffffff168152602001600073ffffffffffffffffffffffffffffffffffffffff168152602001600073ffffffffffffffffffffffffffffffffffffffff1681526020016000815260200160008152602001610c95610ce2565b81525090565b60405180606001604052806000815260200160008152602001610cbc610bef565b81525090565b6040518060400160405280610cd5610e51565b8152602001600081525090565b604051806101e00160405280610cf6610e93565b815260200160006fffffffffffffffffffffffffffffffff16815260200160006fffffffffffffffffffffffffffffffff16815260200160006fffffffffffffffffffffffffffffffff16815260200160006fffffffffffffffffffffffffffffffff16815260200160006fffffffffffffffffffffffffffffffff168152602001600064ffffffffff168152602001600061ffff168152602001600073ffffffffffffffffffffffffffffffffffffffff168152602001600073ffffffffffffffffffffffffffffffffffffffff168152602001600073ffffffffffffffffffffffffffffffffffffffff168152602001600073ffffffffffffffffffffffffffffffffffffffff16815260200160006fffffffffffffffffffffffffffffffff16815260200160006fffffffffffffffffffffffffffffffff16815260200160006fffffffffffffffffffffffffffffffff1681525090565b604051806040016040528060006002811115610e7057610e6f61107e565b5b8152602001600073ffffffffffffffffffffffffffffffffffffffff1681525090565b6040518060200160405280600081525090565b600073ffffffffffffffffffffffffffffffffffffffff82169050919050565b6000610ed182610ea6565b9050919050565b610ee181610ec6565b82525050565b6000602082019050610efc6000830184610ed8565b92915050565b6000604051905090565b600080fd5b600080fd5b600080fd5b600080fd5b600080fd5b60008083601f840112610f3b57610f3a610f16565b5b8235905067ffffffffffffffff811115610f5857610f57610f1b565b5b602083019150836060820283011115610f7457610f73610f20565b5b9250929050565b60008083601f840112610f9157610f90610f16565b5b8235905067ffffffffffffffff811115610fae57610fad610f1b565b5b602083019150836001820283011115610fca57610fc9610f20565b5b9250929050565b60008060008060408587031215610feb57610fea610f0c565b5b600085013567ffffffffffffffff81111561100957611008610f11565b5b61101587828801610f25565b9450945050602085013567ffffffffffffffff81111561103857611037610f11565b5b61104487828801610f7b565b925092505092959194509250565b600081519050919050565b600082825260208201905092915050565b6000819050602082019050919050565b7f4e487b7100000000000000000000000000000000000000000000000000000000600052602160045260246000fd5b600381106110be576110bd61107e565b5b50565b60008190506110cf826110ad565b919050565b60006110df826110c1565b9050919050565b6110ef816110d4565b82525050565b6110fe81610ec6565b82525050565b60408201600082015161111a60008501826110e6565b50602082015161112d60208501826110f5565b50505050565b6000819050919050565b61114681611133565b82525050565b6060820160008201516111626000850182611104565b506020820151611175604085018261113d565b50505050565b6000611187838361114c565b60608301905092915050565b6000602082019050919050565b60006111ab82611052565b6111b5818561105d565b93506111c08361106e565b8060005b838110156111f15781516111d8888261117b565b97506111e383611193565b9250506001810190506111c4565b5085935050505092915050565b60008160010b9050919050565b611214816111fe565b82525050565b60008160020b9050919050565b6112308161121a565b82525050565b6000608083016000830151848203600086015261125382826111a0565b9150506020830151848203602086015261126d82826111a0565b9150506040830151611282604086018261120b565b5060608301516112956060860182611227565b508091505092915050565b600060208201905081810360008301526112ba8184611236565b905092915050565b600082825260208201905092915050565b7f7468657265206d7573742062652065786163746c79203120696e70757420617360008201527f7365740000000000000000000000000000000000000000000000000000000000602082015250565b600061132f6023836112c2565b915061133a826112d3565b604082019050919050565b6000602082019050818103600083015261135e81611322565b9050919050565b7f4e487b7100000000000000000000000000000000000000000000000000000000600052603260045260246000fd5b600381106113a157600080fd5b50565b6000813590506113b381611394565b92915050565b6000602082840312156113cf576113ce610f0c565b5b60006113dd848285016113a4565b91505092915050565b7f74686520696e707574206173736574206d75737420626520616e204552433230600082015250565b600061141c6020836112c2565b9150611427826113e6565b602082019050919050565b6000602082019050818103600083015261144b8161140f565b9050919050565b600082905092915050565b600061146c60208401846113a4565b905092915050565b61147d81610ec6565b811461148857600080fd5b50565b60008135905061149a81611474565b92915050565b60006114af602084018461148b565b905092915050565b604082016114c8600083018361145d565b6114d560008501826110e6565b506114e360208301836114a0565b6114f060208501826110f5565b50505050565b6114ff81611133565b811461150a57600080fd5b50565b60008135905061151c816114f6565b92915050565b6000611531602084018461150d565b905092915050565b6060820161154a6000830183611452565b61155760008501826114b7565b506115656040830183611522565b611572604085018261113d565b50505050565b600060608201905061158d6000830184611539565b92915050565b6000602082840312156115a9576115a8610f0c565b5b60006115b78482850161148b565b91505092915050565b600080fd5b6000601f19601f8301169050919050565b7f4e487b7100000000000000000000000000000000000000000000000000000000600052604160045260246000fd5b61160e826115c5565b810181811067ffffffffffffffff8211171561162d5761162c6115d6565b5b80604052505050565b6000611640610f02565b905061164c8282611605565b919050565b600081519050611660816114f6565b92915050565b60006020828403121561167c5761167b6115c0565b5b6116866020611636565b9050600061169684828501611651565b60008301525092915050565b60006fffffffffffffffffffffffffffffffff82169050919050565b6116c7816116a2565b81146116d257600080fd5b50565b6000815190506116e4816116be565b92915050565b600064ffffffffff82169050919050565b611704816116ea565b811461170f57600080fd5b50565b600081519050611721816116fb565b92915050565b600061ffff82169050919050565b61173e81611727565b811461174957600080fd5b50565b60008151905061175b81611735565b92915050565b60008151905061177081611474565b92915050565b60006101e0828403121561178d5761178c6115c0565b5b6117986101e0611636565b905060006117a884828501611666565b60008301525060206117bc848285016116d5565b60208301525060406117d0848285016116d5565b60408301525060606117e4848285016116d5565b60608301525060806117f8848285016116d5565b60808301525060a061180c848285016116d5565b60a08301525060c061182084828501611712565b60c08301525060e06118348482850161174c565b60e08301525061010061184984828501611761565b6101008301525061012061185f84828501611761565b6101208301525061014061187584828501611761565b6101408301525061016061188b84828501611761565b610160830152506101806118a1848285016116d5565b610180830152506101a06118b7848285016116d5565b6101a0830152506101c06118cd848285016116d5565b6101c08301525092915050565b60006101e082840312156118f1576118f0610f0c565b5b60006118ff84828501611776565b91505092915050565b60006020828403121561191e5761191d610f0c565b5b600061192c84828501611651565b91505092915050565b61193e81611133565b82525050565b6000819050919050565b6000819050919050565b600061197361196e61196984611944565b61194e565b611727565b9050919050565b61198381611958565b82525050565b600060808201905061199e6000830187610ed8565b6119ab6020830186611935565b6119b86040830185610ed8565b6119c5606083018461197a565b95945050505050565b7f61546f6b656e2062616c616e636520646964206e6f7420696e63726561736500600082015250565b6000611a04601f836112c2565b9150611a0f826119ce565b602082019050919050565b60006020820190508181036000830152611a33816119f7565b9050919050565b7f4e487b7100000000000000000000000000000000000000000000000000000000600052601160045260246000fd5b6000611a7482611133565b9150611a7f83611133565b9250828203905081811115611a9757611a96611a3a565b5b92915050565b600060408284031215611ab357611ab26115c0565b5b611abd6040611636565b90506000611acd848285016113a4565b6000830152506020611ae18482850161148b565b60208301525092915050565b600060608284031215611b0357611b026115c0565b5b611b0d6040611636565b90506000611b1d84828501611a9d565b6000830152506040611b318482850161150d565b60208301525092915050565b600060608284031215611b5357611b52610f0c565b5b6000611b6184828501611aed565b91505092915050565b6000604082019050611b7f6000830185610ed8565b611b8c6020830184611935565b9392505050565b6000611b9e82611133565b91507fffffffffffffffffffffffffffffffffffffffffffffffffffffffffffffffff8203611bd057611bcf611a3a565b5b600182019050919050565b60008115159050919050565b611bf081611bdb565b8114611bfb57600080fd5b50565b600081519050611c0d81611be7565b92915050565b600060208284031215611c2957611c28610f0c565b5b6000611c3784828501611bfe565b91505092915050565b7f5361666545524332303a204552433230206f7065726174696f6e20646964206e60008201527f6f74207375636365656400000000000000000000000000000000000000000000602082015250565b6000611c9c602a836112c2565b9150611ca782611c40565b604082019050919050565b60006020820190508181036000830152611ccb81611c8f565b9050919050565b7f416464726573733a20696e73756666696369656e742062616c616e636520666f60008201527f722063616c6c0000000000000000000000000000000000000000000000000000602082015250565b6000611d2e6026836112c2565b9150611d3982611cd2565b604082019050919050565b60006020820190508181036000830152611d5d81611d21565b9050919050565b600081519050919050565b600081905092915050565b60005b83811015611d98578082015181840152602081019050611d7d565b60008484015250505050565b6000611daf82611d64565b611db98185611d6f565b9350611dc9818560208601611d7a565b80840191505092915050565b6000611de18284611da4565b915081905092915050565b7f416464726573733a2063616c6c20746f206e6f6e2d636f6e7472616374000000600082015250565b6000611e22601d836112c2565b9150611e2d82611dec565b602082019050919050565b60006020820190508181036000830152611e5181611e15565b9050919050565b600081519050919050565b6000611e6e82611e58565b611e7881856112c2565b9350611e88818560208601611d7a565b611e91816115c5565b840191505092915050565b60006020820190508181036000830152611eb68184611e63565b90509291505056fea26469706673582212200bee6ea849db78945a9746eaadacef5f1224662379fdad00a18e572d10452c8764736f6c63430008120033",
  "devdoc": {
    "events": {
      "AaveSupplyActionEvent(((uint8,address),uint256))": {
        "params": {
          "inputAssetAmount": "the asset and amout being supplied to Aave."
        }
      }
    },
    "kind": "dev",
    "methods": {},
    "version": 1
  },
  "userdoc": {
    "events": {
      "AaveSupplyActionEvent(((uint8,address),uint256))": {
        "notice": "This event is emitted when an Aave 'supply' action is executed."
      }
    },
    "kind": "user",
    "methods": {},
    "version": 1
  },
  "storageLayout": {
    "storage": [],
    "types": null
  }
}