{"contracts/MockStargateRouter.sol":{"MockStargateRouter":{"abi":[{"inputs":[{"internalType":"uint256","name":"_poolId","type":"uint256"},{"internalType":"uint256","name":"_amountLD","type":"uint256"},{"internalType":"address","name":"_to","type":"address"}],"name":"addLiquidity","outputs":[],"stateMutability":"nonpayable","type":"function"},{"inputs":[],"name":"clear","outputs":[],"stateMutability":"nonpayable","type":"function"},{"inputs":[],"name":"factory","outputs":[{"internalType":"address","name":"","type":"address"}],"stateMutability":"pure","type":"function"},{"inputs":[{"internalType":"uint256","name":"i","type":"uint256"}],"name":"getSwapInvocationAt","outputs":[{"components":[{"internalType":"uint16","name":"dstChainId","type":"uint16"},{"internalType":"uint256","name":"srcPoolId","type":"uint256"},{"internalType":"uint256","name":"dstPoolId","type":"uint256"},{"internalType":"address payable","name":"refundAddress","type":"address"},{"internalType":"uint256","name":"amount","type":"uint256"},{"internalType":"uint256","name":"minAmountOut","type":"uint256"},{"internalType":"bytes","name":"to","type":"bytes"},{"components":[{"internalType":"uint256","name":"dstGasForCall","type":"uint256"},{"internalType":"uint256","name":"dstNativeAmount","type":"uint256"},{"internalType":"bytes","name":"dstNativeAddr","type":"bytes"}],"internalType":"struct IStargateRouter.lzTxObj","name":"lzTxParams","type":"tuple"},{"internalType":"bytes","name":"payload","type":"bytes"}],"internalType":"struct MockStargateRouter.MockStargateRouterSwapArgs","name":"","type":"tuple"}],"stateMutability":"view","type":"function"},{"inputs":[],"name":"getSwapInvocationCount","outputs":[{"internalType":"uint256","name":"","type":"uint256"}],"stateMutability":"view","type":"function"},{"inputs":[],"name":"getSwapInvocations","outputs":[{"components":[{"internalType":"uint16","name":"dstChainId","type":"uint16"},{"internalType":"uint256","name":"srcPoolId","type":"uint256"},{"internalType":"uint256","name":"dstPoolId","type":"uint256"},{"internalType":"address payable","name":"refundAddress","type":"address"},{"internalType":"uint256","name":"amount","type":"uint256"},{"internalType":"uint256","name":"minAmountOut","type":"uint256"},{"internalType":"bytes","name":"to","type":"bytes"},{"components":[{"internalType":"uint256","name":"dstGasForCall","type":"uint256"},{"internalType":"uint256","name":"dstNativeAmount","type":"uint256"},{"internalType":"bytes","name":"dstNativeAddr","type":"bytes"}],"internalType":"struct IStargateRouter.lzTxObj","name":"lzTxParams","type":"tuple"},{"internalType":"bytes","name":"payload","type":"bytes"}],"internalType":"struct MockStargateRouter.MockStargateRouterSwapArgs[]","name":"","type":"tuple[]"}],"stateMutability":"view","type":"function"},{"inputs":[{"internalType":"uint16","name":"","type":"uint16"},{"internalType":"uint256","name":"","type":"uint256"},{"internalType":"address","name":"","type":"address"}],"name":"instantRedeemLocal","outputs":[{"internalType":"uint256","name":"","type":"uint256"}],"stateMutability":"pure","type":"function"},{"inputs":[{"internalType":"uint16","name":"","type":"uint16"},{"internalType":"uint8","name":"","type":"uint8"},{"internalType":"bytes","name":"","type":"bytes"},{"internalType":"bytes","name":"","type":"bytes"},{"components":[{"internalType":"uint256","name":"dstGasForCall","type":"uint256"},{"internalType":"uint256","name":"dstNativeAmount","type":"uint256"},{"internalType":"bytes","name":"dstNativeAddr","type":"bytes"}],"internalType":"struct IStargateRouter.lzTxObj","name":"","type":"tuple"}],"name":"quoteLayerZeroFee","outputs":[{"internalType":"uint256","name":"","type":"uint256"},{"internalType":"uint256","name":"","type":"uint256"}],"stateMutability":"pure","type":"function"},{"inputs":[{"internalType":"uint16","name":"_dstChainId","type":"uint16"},{"internalType":"uint256","name":"_srcPoolId","type":"uint256"},{"internalType":"uint256","name":"_dstPoolId","type":"uint256"},{"internalType":"address payable","name":"_refundAddress","type":"address"},{"internalType":"uint256","name":"_amountLP","type":"uint256"},{"internalType":"bytes","name":"_to","type":"bytes"},{"components":[{"internalType":"uint256","name":"dstGasForCall","type":"uint256"},{"internalType":"uint256","name":"dstNativeAmount","type":"uint256"},{"internalType":"bytes","name":"dstNativeAddr","type":"bytes"}],"internalType":"struct IStargateRouter.lzTxObj","name":"_lzTxParams","type":"tuple"}],"name":"redeemLocal","outputs":[],"stateMutability":"payable","type":"function"},{"inputs":[{"internalType":"uint16","name":"_dstChainId","type":"uint16"},{"internalType":"uint256","name":"_srcPoolId","type":"uint256"},{"internalType":"uint256","name":"_dstPoolId","type":"uint256"},{"internalType":"address payable","name":"_refundAddress","type":"address"},{"internalType":"uint256","name":"_amountLP","type":"uint256"},{"internalType":"uint256","name":"_minAmountLD","type":"uint256"},{"internalType":"bytes","name":"_to","type":"bytes"},{"components":[{"internalType":"uint256","name":"dstGasForCall","type":"uint256"},{"internalType":"uint256","name":"dstNativeAmount","type":"uint256"},{"internalType":"bytes","name":"dstNativeAddr","type":"bytes"}],"internalType":"struct IStargateRouter.lzTxObj","name":"_lzTxParams","type":"tuple"}],"name":"redeemRemote","outputs":[],"stateMutability":"payable","type":"function"},{"inputs":[{"internalType":"uint16","name":"_dstChainId","type":"uint16"},{"internalType":"uint256","name":"_srcPoolId","type":"uint256"},{"internalType":"uint256","name":"_dstPoolId","type":"uint256"},{"internalType":"address payable","name":"_refundAddress","type":"address"}],"name":"sendCredits","outputs":[],"stateMutability":"payable","type":"function"},{"inputs":[{"internalType":"uint16","name":"_dstChainId","type":"uint16"},{"internalType":"uint256","name":"_srcPoolId","type":"uint256"},{"internalType":"uint256","name":"_dstPoolId","type":"uint256"},{"internalType":"address payable","name":"_refundAddress","type":"address"},{"internalType":"uint256","name":"_amountLD","type":"uint256"},{"internalType":"uint256","name":"_minAmountLD","type":"uint256"},{"components":[{"internalType":"uint256","name":"dstGasForCall","type":"uint256"},{"internalType":"uint256","name":"dstNativeAmount","type":"uint256"},{"internalType":"bytes","name":"dstNativeAddr","type":"bytes"}],"internalType":"struct IStargateRouter.lzTxObj","name":"_lzTxParams","type":"tuple"},{"internalType":"bytes","name":"_to","type":"bytes"},{"internalType":"bytes","name":"_payload","type":"bytes"}],"name":"swap","outputs":[],"stateMutability":"payable","type":"function"}],"devdoc":{"kind":"dev","methods":{},"version":1},"evm":{"bytecode":{"linkReferences":{},"object":"608060405234801561001057600080fd5b50611c81806100206000396000f3fe6080604052600436106100a75760003560e01c80638b68be29116100645780638b68be291461019c5780638f2e1d18146101d95780639ba3aa74146101f55780639fbf10fc14610211578063c45a01551461022d578063c4de93a514610258576100a7565b80630a512369146100ac57806317293c87146100ea57806352efea6e14610115578063617904311461012c57806384d0dba31461015757806387b21efc14610173575b600080fd5b3480156100b857600080fd5b506100d360048036038101906100ce9190610f44565b610295565b6040516100e192919061102b565b60405180910390f35b3480156100f657600080fd5b506100ff6102ab565b60405161010c9190611054565b60405180910390f35b34801561012157600080fd5b5061012a6102b7565b005b34801561013857600080fd5b5061014161039a565b60405161014e9190611332565b60405180910390f35b610171600480360381019061016c9190611380565b610676565b005b34801561017f57600080fd5b5061019a600480360381019061019591906114b0565b610681565b005b3480156101a857600080fd5b506101c360048036038101906101be9190611503565b610686565b6040516101d09190611603565b60405180910390f35b6101f360048036038101906101ee9190611625565b61093f565b005b61020f600480360381019061020a9190611703565b610949565b005b61022b6004803603810190610226919061176a565b61094f565b005b34801561023957600080fd5b50610242610b5f565b60405161024f91906118a1565b60405180910390f35b34801561026457600080fd5b5061027f600480360381019061027a91906118bc565b610b64565b60405161028c9190611054565b60405180910390f35b6000806000809150915097509795505050505050565b60008080549050905090565b5b6000808054905011156103985760008054806102d7576102d661190f565b5b60019003818190600052602060002090600b0201600080820160006101000a81549061ffff0219169055600182016000905560028201600090556003820160006101000a81549073ffffffffffffffffffffffffffffffffffffffff0219169055600482016000905560058201600090556006820160006103589190610b6d565b60078201600080820160009055600182016000905560028201600061037d9190610b6d565b5050600a8201600061038f9190610b6d565b505090556102b8565b565b60606000805480602002602001604051908101604052809291908181526020016000905b8282101561066d57838290600052602060002090600b0201604051806101200160405290816000820160009054906101000a900461ffff1661ffff1661ffff16815260200160018201548152602001600282015481526020016003820160009054906101000a900473ffffffffffffffffffffffffffffffffffffffff1673ffffffffffffffffffffffffffffffffffffffff1673ffffffffffffffffffffffffffffffffffffffff16815260200160048201548152602001600582015481526020016006820180546104909061196d565b80601f01602080910402602001604051908101604052809291908181526020018280546104bc9061196d565b80156105095780601f106104de57610100808354040283529160200191610509565b820191906000526020600020905b8154815290600101906020018083116104ec57829003601f168201915b505050505081526020016007820160405180606001604052908160008201548152602001600182015481526020016002820180546105469061196d565b80601f01602080910402602001604051908101604052809291908181526020018280546105729061196d565b80156105bf5780601f10610594576101008083540402835291602001916105bf565b820191906000526020600020905b8154815290600101906020018083116105a257829003601f168201915b5050505050815250508152602001600a820180546105dc9061196d565b80601f01602080910402602001604051908101604052809291908181526020018280546106089061196d565b80156106555780601f1061062a57610100808354040283529160200191610655565b820191906000526020600020905b81548152906001019060200180831161063857829003601f168201915b505050505081525050815260200190600101906103be565b50505050905090565b505050505050505050565b505050565b61068e610bad565b600082815481106106a2576106a161199e565b5b90600052602060002090600b0201604051806101200160405290816000820160009054906101000a900461ffff1661ffff1661ffff16815260200160018201548152602001600282015481526020016003820160009054906101000a900473ffffffffffffffffffffffffffffffffffffffff1673ffffffffffffffffffffffffffffffffffffffff1673ffffffffffffffffffffffffffffffffffffffff168152602001600482015481526020016005820154815260200160068201805461076a9061196d565b80601f01602080910402602001604051908101604052809291908181526020018280546107969061196d565b80156107e35780601f106107b8576101008083540402835291602001916107e3565b820191906000526020600020905b8154815290600101906020018083116107c657829003601f168201915b505050505081526020016007820160405180606001604052908160008201548152602001600182015481526020016002820180546108209061196d565b80601f016020809104026020016040519081016040528092919081815260200182805461084c9061196d565b80156108995780601f1061086e57610100808354040283529160200191610899565b820191906000526020600020905b81548152906001019060200180831161087c57829003601f168201915b5050505050815250508152602001600a820180546108b69061196d565b80601f01602080910402602001604051908101604052809291908181526020018280546108e29061196d565b801561092f5780601f106109045761010080835404028352916020019161092f565b820191906000526020600020905b81548152906001019060200180831161091257829003601f168201915b5050505050815250509050919050565b5050505050505050565b50505050565b60006040518061012001604052808d61ffff1681526020018c81526020018b81526020018a73ffffffffffffffffffffffffffffffffffffffff16815260200189815260200188815260200186868080601f016020809104026020016040519081016040528093929190818152602001838380828437600081840152601f19601f82011690508083019250505050505050815260200187815260200184848080601f016020809104026020016040519081016040528093929190818152602001838380828437600081840152601f19601f8201169050808301925050505050505081525090806001815401808255809150506001900390600052602060002090600b020160009091909190915060008201518160000160006101000a81548161ffff021916908361ffff160217905550602082015181600101556040820151816002015560608201518160030160006101000a81548173ffffffffffffffffffffffffffffffffffffffff021916908373ffffffffffffffffffffffffffffffffffffffff1602179055506080820151816004015560a0820151816005015560c0820151816006019081610b039190611b79565b5060e08201518160070160008201518160000155602082015181600101556040820151816002019081610b369190611b79565b50505061010082015181600a019081610b4f9190611b79565b5050505050505050505050505050565b600090565b60009392505050565b508054610b799061196d565b6000825580601f10610b8b5750610baa565b601f016020900490600052602060002090810190610ba99190610c19565b5b50565b604051806101200160405280600061ffff1681526020016000815260200160008152602001600073ffffffffffffffffffffffffffffffffffffffff168152602001600081526020016000815260200160608152602001610c0c610c36565b8152602001606081525090565b5b80821115610c32576000816000905550600101610c1a565b5090565b60405180606001604052806000815260200160008152602001606081525090565b6000604051905090565b600080fd5b600080fd5b600061ffff82169050919050565b610c8281610c6b565b8114610c8d57600080fd5b50565b600081359050610c9f81610c79565b92915050565b600060ff82169050919050565b610cbb81610ca5565b8114610cc657600080fd5b50565b600081359050610cd881610cb2565b92915050565b600080fd5b600080fd5b600080fd5b60008083601f840112610d0357610d02610cde565b5b8235905067ffffffffffffffff811115610d2057610d1f610ce3565b5b602083019150836001820283011115610d3c57610d3b610ce8565b5b9250929050565b600080fd5b6000601f19601f8301169050919050565b7f4e487b7100000000000000000000000000000000000000000000000000000000600052604160045260246000fd5b610d9182610d48565b810181811067ffffffffffffffff82111715610db057610daf610d59565b5b80604052505050565b6000610dc3610c57565b9050610dcf8282610d88565b919050565b600080fd5b6000819050919050565b610dec81610dd9565b8114610df757600080fd5b50565b600081359050610e0981610de3565b92915050565b600080fd5b600067ffffffffffffffff821115610e2f57610e2e610d59565b5b610e3882610d48565b9050602081019050919050565b82818337600083830152505050565b6000610e67610e6284610e14565b610db9565b905082815260208101848484011115610e8357610e82610e0f565b5b610e8e848285610e45565b509392505050565b600082601f830112610eab57610eaa610cde565b5b8135610ebb848260208601610e54565b91505092915050565b600060608284031215610eda57610ed9610d43565b5b610ee46060610db9565b90506000610ef484828501610dfa565b6000830152506020610f0884828501610dfa565b602083015250604082013567ffffffffffffffff811115610f2c57610f2b610dd4565b5b610f3884828501610e96565b60408301525092915050565b600080600080600080600060a0888a031215610f6357610f62610c61565b5b6000610f718a828b01610c90565b9750506020610f828a828b01610cc9565b965050604088013567ffffffffffffffff811115610fa357610fa2610c66565b5b610faf8a828b01610ced565b9550955050606088013567ffffffffffffffff811115610fd257610fd1610c66565b5b610fde8a828b01610ced565b9350935050608088013567ffffffffffffffff81111561100157611000610c66565b5b61100d8a828b01610ec4565b91505092959891949750929550565b61102581610dd9565b82525050565b6000604082019050611040600083018561101c565b61104d602083018461101c565b9392505050565b6000602082019050611069600083018461101c565b92915050565b600081519050919050565b600082825260208201905092915050565b6000819050602082019050919050565b6110a481610c6b565b82525050565b6110b381610dd9565b82525050565b600073ffffffffffffffffffffffffffffffffffffffff82169050919050565b60006110e4826110b9565b9050919050565b6110f4816110d9565b82525050565b600081519050919050565b600082825260208201905092915050565b60005b83811015611134578082015181840152602081019050611119565b60008484015250505050565b600061114b826110fa565b6111558185611105565b9350611165818560208601611116565b61116e81610d48565b840191505092915050565b600060608301600083015161119160008601826110aa565b5060208301516111a460208601826110aa565b50604083015184820360408601526111bc8282611140565b9150508091505092915050565b6000610120830160008301516111e2600086018261109b565b5060208301516111f560208601826110aa565b50604083015161120860408601826110aa565b50606083015161121b60608601826110eb565b50608083015161122e60808601826110aa565b5060a083015161124160a08601826110aa565b5060c083015184820360c08601526112598282611140565b91505060e083015184820360e08601526112738282611179565b91505061010083015184820361010086015261128f8282611140565b9150508091505092915050565b60006112a883836111c9565b905092915050565b6000602082019050919050565b60006112c88261106f565b6112d2818561107a565b9350836020820285016112e48561108b565b8060005b858110156113205784840389528151611301858261129c565b945061130c836112b0565b925060208a019950506001810190506112e8565b50829750879550505050505092915050565b6000602082019050818103600083015261134c81846112bd565b905092915050565b61135d816110d9565b811461136857600080fd5b50565b60008135905061137a81611354565b92915050565b60008060008060008060008060006101008a8c0312156113a3576113a2610c61565b5b60006113b18c828d01610c90565b99505060206113c28c828d01610dfa565b98505060406113d38c828d01610dfa565b97505060606113e48c828d0161136b565b96505060806113f58c828d01610dfa565b95505060a06114068c828d01610dfa565b94505060c08a013567ffffffffffffffff81111561142757611426610c66565b5b6114338c828d01610ced565b935093505060e08a013567ffffffffffffffff81111561145657611455610c66565b5b6114628c828d01610ec4565b9150509295985092959850929598565b600061147d826110b9565b9050919050565b61148d81611472565b811461149857600080fd5b50565b6000813590506114aa81611484565b92915050565b6000806000606084860312156114c9576114c8610c61565b5b60006114d786828701610dfa565b93505060206114e886828701610dfa565b92505060406114f98682870161149b565b9150509250925092565b60006020828403121561151957611518610c61565b5b600061152784828501610dfa565b91505092915050565b600061012083016000830151611549600086018261109b565b50602083015161155c60208601826110aa565b50604083015161156f60408601826110aa565b50606083015161158260608601826110eb565b50608083015161159560808601826110aa565b5060a08301516115a860a08601826110aa565b5060c083015184820360c08601526115c08282611140565b91505060e083015184820360e08601526115da8282611179565b9150506101008301518482036101008601526115f68282611140565b9150508091505092915050565b6000602082019050818103600083015261161d8184611530565b905092915050565b60008060008060008060008060e0898b03121561164557611644610c61565b5b60006116538b828c01610c90565b98505060206116648b828c01610dfa565b97505060406116758b828c01610dfa565b96505060606116868b828c0161136b565b95505060806116978b828c01610dfa565b94505060a089013567ffffffffffffffff8111156116b8576116b7610c66565b5b6116c48b828c01610ced565b935093505060c089013567ffffffffffffffff8111156116e7576116e6610c66565b5b6116f38b828c01610ec4565b9150509295985092959890939650565b6000806000806080858703121561171d5761171c610c61565b5b600061172b87828801610c90565b945050602061173c87828801610dfa565b935050604061174d87828801610dfa565b925050606061175e8782880161136b565b91505092959194509250565b60008060008060008060008060008060006101208c8e0312156117905761178f610c61565b5b600061179e8e828f01610c90565b9b505060206117af8e828f01610dfa565b9a505060406117c08e828f01610dfa565b99505060606117d18e828f0161136b565b98505060806117e28e828f01610dfa565b97505060a06117f38e828f01610dfa565b96505060c08c013567ffffffffffffffff81111561181457611813610c66565b5b6118208e828f01610ec4565b95505060e08c013567ffffffffffffffff81111561184157611840610c66565b5b61184d8e828f01610ced565b94509450506101008c013567ffffffffffffffff81111561187157611870610c66565b5b61187d8e828f01610ced565b92509250509295989b509295989b9093969950565b61189b81611472565b82525050565b60006020820190506118b66000830184611892565b92915050565b6000806000606084860312156118d5576118d4610c61565b5b60006118e386828701610c90565b93505060206118f486828701610dfa565b92505060406119058682870161149b565b9150509250925092565b7f4e487b7100000000000000000000000000000000000000000000000000000000600052603160045260246000fd5b7f4e487b7100000000000000000000000000000000000000000000000000000000600052602260045260246000fd5b6000600282049050600182168061198557607f821691505b6020821081036119985761199761193e565b5b50919050565b7f4e487b7100000000000000000000000000000000000000000000000000000000600052603260045260246000fd5b60008190508160005260206000209050919050565b60006020601f8301049050919050565b600082821b905092915050565b600060088302611a2f7fffffffffffffffffffffffffffffffffffffffffffffffffffffffffffffffff826119f2565b611a3986836119f2565b95508019841693508086168417925050509392505050565b6000819050919050565b6000611a76611a71611a6c84610dd9565b611a51565b610dd9565b9050919050565b6000819050919050565b611a9083611a5b565b611aa4611a9c82611a7d565b8484546119ff565b825550505050565b600090565b611ab9611aac565b611ac4818484611a87565b505050565b5b81811015611ae857611add600082611ab1565b600181019050611aca565b5050565b601f821115611b2d57611afe816119cd565b611b07846119e2565b81016020851015611b16578190505b611b2a611b22856119e2565b830182611ac9565b50505b505050565b600082821c905092915050565b6000611b5060001984600802611b32565b1980831691505092915050565b6000611b698383611b3f565b9150826002028217905092915050565b611b82826110fa565b67ffffffffffffffff811115611b9b57611b9a610d59565b5b611ba5825461196d565b611bb0828285611aec565b600060209050601f831160018114611be35760008415611bd1578287015190505b611bdb8582611b5d565b865550611c43565b601f198416611bf1866119cd565b60005b82811015611c1957848901518255600182019150602085019450602081019050611bf4565b86831015611c365784890151611c32601f891682611b3f565b8355505b6001600288020188555050505b50505050505056fea26469706673582212208f4c82bb4e6f9f60bf1ca4eb250222b364684d7ea711c29372104d66b7d85a4d64736f6c63430008120033","opcodes":"PUSH1 0x80 PUSH1 0x40 MSTORE CALLVALUE DUP1 ISZERO PUSH2 0x10 JUMPI PUSH1 0x0 DUP1 REVERT JUMPDEST POP PUSH2 0x1C81 DUP1 PUSH2 0x20 PUSH1 0x0 CODECOPY PUSH1 0x0 RETURN INVALID PUSH1 0x80 PUSH1 0x40 MSTORE PUSH1 0x4 CALLDATASIZE LT PUSH2 0xA7 JUMPI PUSH1 0x0 CALLDATALOAD PUSH1 0xE0 SHR DUP1 PUSH4 0x8B68BE29 GT PUSH2 0x64 JUMPI DUP1 PUSH4 0x8B68BE29 EQ PUSH2 0x19C JUMPI DUP1 PUSH4 0x8F2E1D18 EQ PUSH2 0x1D9 JUMPI DUP1 PUSH4 0x9BA3AA74 EQ PUSH2 0x1F5 JUMPI DUP1 PUSH4 0x9FBF10FC EQ PUSH2 0x211 JUMPI DUP1 PUSH4 0xC45A0155 EQ PUSH2 0x22D JUMPI DUP1 PUSH4 0xC4DE93A5 EQ PUSH2 0x258 JUMPI PUSH2 0xA7 JUMP JUMPDEST DUP1 PUSH4 0xA512369 EQ PUSH2 0xAC JUMPI DUP1 PUSH4 0x17293C87 EQ PUSH2 0xEA JUMPI DUP1 PUSH4 0x52EFEA6E EQ PUSH2 0x115 JUMPI DUP1 PUSH4 0x61790431 EQ PUSH2 0x12C JUMPI DUP1 PUSH4 0x84D0DBA3 EQ PUSH2 0x157 JUMPI DUP1 PUSH4 0x87B21EFC EQ PUSH2 0x173 JUMPI JUMPDEST PUSH1 0x0 DUP1 REVERT JUMPDEST CALLVALUE DUP1 ISZERO PUSH2 0xB8 JUMPI PUSH1 0x0 DUP1 REVERT JUMPDEST POP PUSH2 0xD3 PUSH1 0x4 DUP1 CALLDATASIZE SUB DUP2 ADD SWAP1 PUSH2 0xCE SWAP2 SWAP1 PUSH2 0xF44 JUMP JUMPDEST PUSH2 0x295 JUMP JUMPDEST PUSH1 0x40 MLOAD PUSH2 0xE1 SWAP3 SWAP2 SWAP1 PUSH2 0x102B JUMP JUMPDEST PUSH1 0x40 MLOAD DUP1 SWAP2 SUB SWAP1 RETURN JUMPDEST CALLVALUE DUP1 ISZERO PUSH2 0xF6 JUMPI PUSH1 0x0 DUP1 REVERT JUMPDEST POP PUSH2 0xFF PUSH2 0x2AB JUMP JUMPDEST PUSH1 0x40 MLOAD PUSH2 0x10C SWAP2 SWAP1 PUSH2 0x1054 JUMP JUMPDEST PUSH1 0x40 MLOAD DUP1 SWAP2 SUB SWAP1 RETURN JUMPDEST CALLVALUE DUP1 ISZERO PUSH2 0x121 JUMPI PUSH1 0x0 DUP1 REVERT JUMPDEST POP PUSH2 0x12A PUSH2 0x2B7 JUMP JUMPDEST STOP JUMPDEST CALLVALUE DUP1 ISZERO PUSH2 0x138 JUMPI PUSH1 0x0 DUP1 REVERT JUMPDEST POP PUSH2 0x141 PUSH2 0x39A JUMP JUMPDEST PUSH1 0x40 MLOAD PUSH2 0x14E SWAP2 SWAP1 PUSH2 0x1332 JUMP JUMPDEST PUSH1 0x40 MLOAD DUP1 SWAP2 SUB SWAP1 RETURN JUMPDEST PUSH2 0x171 PUSH1 0x4 DUP1 CALLDATASIZE SUB DUP2 ADD SWAP1 PUSH2 0x16C SWAP2 SWAP1 PUSH2 0x1380 JUMP JUMPDEST PUSH2 0x676 JUMP JUMPDEST STOP JUMPDEST CALLVALUE DUP1 ISZERO PUSH2 0x17F JUMPI PUSH1 0x0 DUP1 REVERT JUMPDEST POP PUSH2 0x19A PUSH1 0x4 DUP1 CALLDATASIZE SUB DUP2 ADD SWAP1 PUSH2 0x195 SWAP2 SWAP1 PUSH2 0x14B0 JUMP JUMPDEST PUSH2 0x681 JUMP JUMPDEST STOP JUMPDEST CALLVALUE DUP1 ISZERO PUSH2 0x1A8 JUMPI PUSH1 0x0 DUP1 REVERT JUMPDEST POP PUSH2 0x1C3 PUSH1 0x4 DUP1 CALLDATASIZE SUB DUP2 ADD SWAP1 PUSH2 0x1BE SWAP2 SWAP1 PUSH2 0x1503 JUMP JUMPDEST PUSH2 0x686 JUMP JUMPDEST PUSH1 0x40 MLOAD PUSH2 0x1D0 SWAP2 SWAP1 PUSH2 0x1603 JUMP JUMPDEST PUSH1 0x40 MLOAD DUP1 SWAP2 SUB SWAP1 RETURN JUMPDEST PUSH2 0x1F3 PUSH1 0x4 DUP1 CALLDATASIZE SUB DUP2 ADD SWAP1 PUSH2 0x1EE SWAP2 SWAP1 PUSH2 0x1625 JUMP JUMPDEST PUSH2 0x93F JUMP JUMPDEST STOP JUMPDEST PUSH2 0x20F PUSH1 0x4 DUP1 CALLDATASIZE SUB DUP2 ADD SWAP1 PUSH2 0x20A SWAP2 SWAP1 PUSH2 0x1703 JUMP JUMPDEST PUSH2 0x949 JUMP JUMPDEST STOP JUMPDEST PUSH2 0x22B PUSH1 0x4 DUP1 CALLDATASIZE SUB DUP2 ADD SWAP1 PUSH2 0x226 SWAP2 SWAP1 PUSH2 0x176A JUMP JUMPDEST PUSH2 0x94F JUMP JUMPDEST STOP JUMPDEST CALLVALUE DUP1 ISZERO PUSH2 0x239 JUMPI PUSH1 0x0 DUP1 REVERT JUMPDEST POP PUSH2 0x242 PUSH2 0xB5F JUMP JUMPDEST PUSH1 0x40 MLOAD PUSH2 0x24F SWAP2 SWAP1 PUSH2 0x18A1 JUMP JUMPDEST PUSH1 0x40 MLOAD DUP1 SWAP2 SUB SWAP1 RETURN JUMPDEST CALLVALUE DUP1 ISZERO PUSH2 0x264 JUMPI PUSH1 0x0 DUP1 REVERT JUMPDEST POP PUSH2 0x27F PUSH1 0x4 DUP1 CALLDATASIZE SUB DUP2 ADD SWAP1 PUSH2 0x27A SWAP2 SWAP1 PUSH2 0x18BC JUMP JUMPDEST PUSH2 0xB64 JUMP JUMPDEST PUSH1 0x40 MLOAD PUSH2 0x28C SWAP2 SWAP1 PUSH2 0x1054 JUMP JUMPDEST PUSH1 0x40 MLOAD DUP1 SWAP2 SUB SWAP1 RETURN JUMPDEST PUSH1 0x0 DUP1 PUSH1 0x0 DUP1 SWAP2 POP SWAP2 POP SWAP8 POP SWAP8 SWAP6 POP POP POP POP POP POP JUMP JUMPDEST PUSH1 0x0 DUP1 DUP1 SLOAD SWAP1 POP SWAP1 POP SWAP1 JUMP JUMPDEST JUMPDEST PUSH1 0x0 DUP1 DUP1 SLOAD SWAP1 POP GT ISZERO PUSH2 0x398 JUMPI PUSH1 0x0 DUP1 SLOAD DUP1 PUSH2 0x2D7 JUMPI PUSH2 0x2D6 PUSH2 0x190F JUMP JUMPDEST JUMPDEST PUSH1 0x1 SWAP1 SUB DUP2 DUP2 SWAP1 PUSH1 0x0 MSTORE PUSH1 0x20 PUSH1 0x0 KECCAK256 SWAP1 PUSH1 0xB MUL ADD PUSH1 0x0 DUP1 DUP3 ADD PUSH1 0x0 PUSH2 0x100 EXP DUP2 SLOAD SWAP1 PUSH2 0xFFFF MUL NOT AND SWAP1 SSTORE PUSH1 0x1 DUP3 ADD PUSH1 0x0 SWAP1 SSTORE PUSH1 0x2 DUP3 ADD PUSH1 0x0 SWAP1 SSTORE PUSH1 0x3 DUP3 ADD PUSH1 0x0 PUSH2 0x100 EXP DUP2 SLOAD SWAP1 PUSH20 0xFFFFFFFFFFFFFFFFFFFFFFFFFFFFFFFFFFFFFFFF MUL NOT AND SWAP1 SSTORE PUSH1 0x4 DUP3 ADD PUSH1 0x0 SWAP1 SSTORE PUSH1 0x5 DUP3 ADD PUSH1 0x0 SWAP1 SSTORE PUSH1 0x6 DUP3 ADD PUSH1 0x0 PUSH2 0x358 SWAP2 SWAP1 PUSH2 0xB6D JUMP JUMPDEST PUSH1 0x7 DUP3 ADD PUSH1 0x0 DUP1 DUP3 ADD PUSH1 0x0 SWAP1 SSTORE PUSH1 0x1 DUP3 ADD PUSH1 0x0 SWAP1 SSTORE PUSH1 0x2 DUP3 ADD PUSH1 0x0 PUSH2 0x37D SWAP2 SWAP1 PUSH2 0xB6D JUMP JUMPDEST POP POP PUSH1 0xA DUP3 ADD PUSH1 0x0 PUSH2 0x38F SWAP2 SWAP1 PUSH2 0xB6D JUMP JUMPDEST POP POP SWAP1 SSTORE PUSH2 0x2B8 JUMP JUMPDEST JUMP JUMPDEST PUSH1 0x60 PUSH1 0x0 DUP1 SLOAD DUP1 PUSH1 0x20 MUL PUSH1 0x20 ADD PUSH1 0x40 MLOAD SWAP1 DUP2 ADD PUSH1 0x40 MSTORE DUP1 SWAP3 SWAP2 SWAP1 DUP2 DUP2 MSTORE PUSH1 0x20 ADD PUSH1 0x0 SWAP1 JUMPDEST DUP3 DUP3 LT ISZERO PUSH2 0x66D JUMPI DUP4 DUP3 SWAP1 PUSH1 0x0 MSTORE PUSH1 0x20 PUSH1 0x0 KECCAK256 SWAP1 PUSH1 0xB MUL ADD PUSH1 0x40 MLOAD DUP1 PUSH2 0x120 ADD PUSH1 0x40 MSTORE SWAP1 DUP2 PUSH1 0x0 DUP3 ADD PUSH1 0x0 SWAP1 SLOAD SWAP1 PUSH2 0x100 EXP SWAP1 DIV PUSH2 0xFFFF AND PUSH2 0xFFFF AND PUSH2 0xFFFF AND DUP2 MSTORE PUSH1 0x20 ADD PUSH1 0x1 DUP3 ADD SLOAD DUP2 MSTORE PUSH1 0x20 ADD PUSH1 0x2 DUP3 ADD SLOAD DUP2 MSTORE PUSH1 0x20 ADD PUSH1 0x3 DUP3 ADD PUSH1 0x0 SWAP1 SLOAD SWAP1 PUSH2 0x100 EXP SWAP1 DIV PUSH20 0xFFFFFFFFFFFFFFFFFFFFFFFFFFFFFFFFFFFFFFFF AND PUSH20 0xFFFFFFFFFFFFFFFFFFFFFFFFFFFFFFFFFFFFFFFF AND PUSH20 0xFFFFFFFFFFFFFFFFFFFFFFFFFFFFFFFFFFFFFFFF AND DUP2 MSTORE PUSH1 0x20 ADD PUSH1 0x4 DUP3 ADD SLOAD DUP2 MSTORE PUSH1 0x20 ADD PUSH1 0x5 DUP3 ADD SLOAD DUP2 MSTORE PUSH1 0x20 ADD PUSH1 0x6 DUP3 ADD DUP1 SLOAD PUSH2 0x490 SWAP1 PUSH2 0x196D JUMP JUMPDEST DUP1 PUSH1 0x1F ADD PUSH1 0x20 DUP1 SWAP2 DIV MUL PUSH1 0x20 ADD PUSH1 0x40 MLOAD SWAP1 DUP2 ADD PUSH1 0x40 MSTORE DUP1 SWAP3 SWAP2 SWAP1 DUP2 DUP2 MSTORE PUSH1 0x20 ADD DUP3 DUP1 SLOAD PUSH2 0x4BC SWAP1 PUSH2 0x196D JUMP JUMPDEST DUP1 ISZERO PUSH2 0x509 JUMPI DUP1 PUSH1 0x1F LT PUSH2 0x4DE JUMPI PUSH2 0x100 DUP1 DUP4 SLOAD DIV MUL DUP4 MSTORE SWAP2 PUSH1 0x20 ADD SWAP2 PUSH2 0x509 JUMP JUMPDEST DUP3 ADD SWAP2 SWAP1 PUSH1 0x0 MSTORE PUSH1 0x20 PUSH1 0x0 KECCAK256 SWAP1 JUMPDEST DUP2 SLOAD DUP2 MSTORE SWAP1 PUSH1 0x1 ADD SWAP1 PUSH1 0x20 ADD DUP1 DUP4 GT PUSH2 0x4EC JUMPI DUP3 SWAP1 SUB PUSH1 0x1F AND DUP3 ADD SWAP2 JUMPDEST POP POP POP POP POP DUP2 MSTORE PUSH1 0x20 ADD PUSH1 0x7 DUP3 ADD PUSH1 0x40 MLOAD DUP1 PUSH1 0x60 ADD PUSH1 0x40 MSTORE SWAP1 DUP2 PUSH1 0x0 DUP3 ADD SLOAD DUP2 MSTORE PUSH1 0x20 ADD PUSH1 0x1 DUP3 ADD SLOAD DUP2 MSTORE PUSH1 0x20 ADD PUSH1 0x2 DUP3 ADD DUP1 SLOAD PUSH2 0x546 SWAP1 PUSH2 0x196D JUMP JUMPDEST DUP1 PUSH1 0x1F ADD PUSH1 0x20 DUP1 SWAP2 DIV MUL PUSH1 0x20 ADD PUSH1 0x40 MLOAD SWAP1 DUP2 ADD PUSH1 0x40 MSTORE DUP1 SWAP3 SWAP2 SWAP1 DUP2 DUP2 MSTORE PUSH1 0x20 ADD DUP3 DUP1 SLOAD PUSH2 0x572 SWAP1 PUSH2 0x196D JUMP JUMPDEST DUP1 ISZERO PUSH2 0x5BF JUMPI DUP1 PUSH1 0x1F LT PUSH2 0x594 JUMPI PUSH2 0x100 DUP1 DUP4 SLOAD DIV MUL DUP4 MSTORE SWAP2 PUSH1 0x20 ADD SWAP2 PUSH2 0x5BF JUMP JUMPDEST DUP3 ADD SWAP2 SWAP1 PUSH1 0x0 MSTORE PUSH1 0x20 PUSH1 0x0 KECCAK256 SWAP1 JUMPDEST DUP2 SLOAD DUP2 MSTORE SWAP1 PUSH1 0x1 ADD SWAP1 PUSH1 0x20 ADD DUP1 DUP4 GT PUSH2 0x5A2 JUMPI DUP3 SWAP1 SUB PUSH1 0x1F AND DUP3 ADD SWAP2 JUMPDEST POP POP POP POP POP DUP2 MSTORE POP POP DUP2 MSTORE PUSH1 0x20 ADD PUSH1 0xA DUP3 ADD DUP1 SLOAD PUSH2 0x5DC SWAP1 PUSH2 0x196D JUMP JUMPDEST DUP1 PUSH1 0x1F ADD PUSH1 0x20 DUP1 SWAP2 DIV MUL PUSH1 0x20 ADD PUSH1 0x40 MLOAD SWAP1 DUP2 ADD PUSH1 0x40 MSTORE DUP1 SWAP3 SWAP2 SWAP1 DUP2 DUP2 MSTORE PUSH1 0x20 ADD DUP3 DUP1 SLOAD PUSH2 0x608 SWAP1 PUSH2 0x196D JUMP JUMPDEST DUP1 ISZERO PUSH2 0x655 JUMPI DUP1 PUSH1 0x1F LT PUSH2 0x62A JUMPI PUSH2 0x100 DUP1 DUP4 SLOAD DIV MUL DUP4 MSTORE SWAP2 PUSH1 0x20 ADD SWAP2 PUSH2 0x655 JUMP JUMPDEST DUP3 ADD SWAP2 SWAP1 PUSH1 0x0 MSTORE PUSH1 0x20 PUSH1 0x0 KECCAK256 SWAP1 JUMPDEST DUP2 SLOAD DUP2 MSTORE SWAP1 PUSH1 0x1 ADD SWAP1 PUSH1 0x20 ADD DUP1 DUP4 GT PUSH2 0x638 JUMPI DUP3 SWAP1 SUB PUSH1 0x1F AND DUP3 ADD SWAP2 JUMPDEST POP POP POP POP POP DUP2 MSTORE POP POP DUP2 MSTORE PUSH1 0x20 ADD SWAP1 PUSH1 0x1 ADD SWAP1 PUSH2 0x3BE JUMP JUMPDEST POP POP POP POP SWAP1 POP SWAP1 JUMP JUMPDEST POP POP POP POP POP POP POP POP POP JUMP JUMPDEST POP POP POP JUMP JUMPDEST PUSH2 0x68E PUSH2 0xBAD JUMP JUMPDEST PUSH1 0x0 DUP3 DUP2 SLOAD DUP2 LT PUSH2 0x6A2 JUMPI PUSH2 0x6A1 PUSH2 0x199E JUMP JUMPDEST JUMPDEST SWAP1 PUSH1 0x0 MSTORE PUSH1 0x20 PUSH1 0x0 KECCAK256 SWAP1 PUSH1 0xB MUL ADD PUSH1 0x40 MLOAD DUP1 PUSH2 0x120 ADD PUSH1 0x40 MSTORE SWAP1 DUP2 PUSH1 0x0 DUP3 ADD PUSH1 0x0 SWAP1 SLOAD SWAP1 PUSH2 0x100 EXP SWAP1 DIV PUSH2 0xFFFF AND PUSH2 0xFFFF AND PUSH2 0xFFFF AND DUP2 MSTORE PUSH1 0x20 ADD PUSH1 0x1 DUP3 ADD SLOAD DUP2 MSTORE PUSH1 0x20 ADD PUSH1 0x2 DUP3 ADD SLOAD DUP2 MSTORE PUSH1 0x20 ADD PUSH1 0x3 DUP3 ADD PUSH1 0x0 SWAP1 SLOAD SWAP1 PUSH2 0x100 EXP SWAP1 DIV PUSH20 0xFFFFFFFFFFFFFFFFFFFFFFFFFFFFFFFFFFFFFFFF AND PUSH20 0xFFFFFFFFFFFFFFFFFFFFFFFFFFFFFFFFFFFFFFFF AND PUSH20 0xFFFFFFFFFFFFFFFFFFFFFFFFFFFFFFFFFFFFFFFF AND DUP2 MSTORE PUSH1 0x20 ADD PUSH1 0x4 DUP3 ADD SLOAD DUP2 MSTORE PUSH1 0x20 ADD PUSH1 0x5 DUP3 ADD SLOAD DUP2 MSTORE PUSH1 0x20 ADD PUSH1 0x6 DUP3 ADD DUP1 SLOAD PUSH2 0x76A SWAP1 PUSH2 0x196D JUMP JUMPDEST DUP1 PUSH1 0x1F ADD PUSH1 0x20 DUP1 SWAP2 DIV MUL PUSH1 0x20 ADD PUSH1 0x40 MLOAD SWAP1 DUP2 ADD PUSH1 0x40 MSTORE DUP1 SWAP3 SWAP2 SWAP1 DUP2 DUP2 MSTORE PUSH1 0x20 ADD DUP3 DUP1 SLOAD PUSH2 0x796 SWAP1 PUSH2 0x196D JUMP JUMPDEST DUP1 ISZERO PUSH2 0x7E3 JUMPI DUP1 PUSH1 0x1F LT PUSH2 0x7B8 JUMPI PUSH2 0x100 DUP1 DUP4 SLOAD DIV MUL DUP4 MSTORE SWAP2 PUSH1 0x20 ADD SWAP2 PUSH2 0x7E3 JUMP JUMPDEST DUP3 ADD SWAP2 SWAP1 PUSH1 0x0 MSTORE PUSH1 0x20 PUSH1 0x0 KECCAK256 SWAP1 JUMPDEST DUP2 SLOAD DUP2 MSTORE SWAP1 PUSH1 0x1 ADD SWAP1 PUSH1 0x20 ADD DUP1 DUP4 GT PUSH2 0x7C6 JUMPI DUP3 SWAP1 SUB PUSH1 0x1F AND DUP3 ADD SWAP2 JUMPDEST POP POP POP POP POP DUP2 MSTORE PUSH1 0x20 ADD PUSH1 0x7 DUP3 ADD PUSH1 0x40 MLOAD DUP1 PUSH1 0x60 ADD PUSH1 0x40 MSTORE SWAP1 DUP2 PUSH1 0x0 DUP3 ADD SLOAD DUP2 MSTORE PUSH1 0x20 ADD PUSH1 0x1 DUP3 ADD SLOAD DUP2 MSTORE PUSH1 0x20 ADD PUSH1 0x2 DUP3 ADD DUP1 SLOAD PUSH2 0x820 SWAP1 PUSH2 0x196D JUMP JUMPDEST DUP1 PUSH1 0x1F ADD PUSH1 0x20 DUP1 SWAP2 DIV MUL PUSH1 0x20 ADD PUSH1 0x40 MLOAD SWAP1 DUP2 ADD PUSH1 0x40 MSTORE DUP1 SWAP3 SWAP2 SWAP1 DUP2 DUP2 MSTORE PUSH1 0x20 ADD DUP3 DUP1 SLOAD PUSH2 0x84C SWAP1 PUSH2 0x196D JUMP JUMPDEST DUP1 ISZERO PUSH2 0x899 JUMPI DUP1 PUSH1 0x1F LT PUSH2 0x86E JUMPI PUSH2 0x100 DUP1 DUP4 SLOAD DIV MUL DUP4 MSTORE SWAP2 PUSH1 0x20 ADD SWAP2 PUSH2 0x899 JUMP JUMPDEST DUP3 ADD SWAP2 SWAP1 PUSH1 0x0 MSTORE PUSH1 0x20 PUSH1 0x0 KECCAK256 SWAP1 JUMPDEST DUP2 SLOAD DUP2 MSTORE SWAP1 PUSH1 0x1 ADD SWAP1 PUSH1 0x20 ADD DUP1 DUP4 GT PUSH2 0x87C JUMPI DUP3 SWAP1 SUB PUSH1 0x1F AND DUP3 ADD SWAP2 JUMPDEST POP POP POP POP POP DUP2 MSTORE POP POP DUP2 MSTORE PUSH1 0x20 ADD PUSH1 0xA DUP3 ADD DUP1 SLOAD PUSH2 0x8B6 SWAP1 PUSH2 0x196D JUMP JUMPDEST DUP1 PUSH1 0x1F ADD PUSH1 0x20 DUP1 SWAP2 DIV MUL PUSH1 0x20 ADD PUSH1 0x40 MLOAD SWAP1 DUP2 ADD PUSH1 0x40 MSTORE DUP1 SWAP3 SWAP2 SWAP1 DUP2 DUP2 MSTORE PUSH1 0x20 ADD DUP3 DUP1 SLOAD PUSH2 0x8E2 SWAP1 PUSH2 0x196D JUMP JUMPDEST DUP1 ISZERO PUSH2 0x92F JUMPI DUP1 PUSH1 0x1F LT PUSH2 0x904 JUMPI PUSH2 0x100 DUP1 DUP4 SLOAD DIV MUL DUP4 MSTORE SWAP2 PUSH1 0x20 ADD SWAP2 PUSH2 0x92F JUMP JUMPDEST DUP3 ADD SWAP2 SWAP1 PUSH1 0x0 MSTORE PUSH1 0x20 PUSH1 0x0 KECCAK256 SWAP1 JUMPDEST DUP2 SLOAD DUP2 MSTORE SWAP1 PUSH1 0x1 ADD SWAP1 PUSH1 0x20 ADD DUP1 DUP4 GT PUSH2 0x912 JUMPI DUP3 SWAP1 SUB PUSH1 0x1F AND DUP3 ADD SWAP2 JUMPDEST POP POP POP POP POP DUP2 MSTORE POP POP SWAP1 POP SWAP2 SWAP1 POP JUMP JUMPDEST POP POP POP POP POP POP POP POP JUMP JUMPDEST POP POP POP POP JUMP JUMPDEST PUSH1 0x0 PUSH1 0x40 MLOAD DUP1 PUSH2 0x120 ADD PUSH1 0x40 MSTORE DUP1 DUP14 PUSH2 0xFFFF AND DUP2 MSTORE PUSH1 0x20 ADD DUP13 DUP2 MSTORE PUSH1 0x20 ADD DUP12 DUP2 MSTORE PUSH1 0x20 ADD DUP11 PUSH20 0xFFFFFFFFFFFFFFFFFFFFFFFFFFFFFFFFFFFFFFFF AND DUP2 MSTORE PUSH1 0x20 ADD DUP10 DUP2 MSTORE PUSH1 0x20 ADD DUP9 DUP2 MSTORE PUSH1 0x20 ADD DUP7 DUP7 DUP1 DUP1 PUSH1 0x1F ADD PUSH1 0x20 DUP1 SWAP2 DIV MUL PUSH1 0x20 ADD PUSH1 0x40 MLOAD SWAP1 DUP2 ADD PUSH1 0x40 MSTORE DUP1 SWAP4 SWAP3 SWAP2 SWAP1 DUP2 DUP2 MSTORE PUSH1 0x20 ADD DUP4 DUP4 DUP1 DUP3 DUP5 CALLDATACOPY PUSH1 0x0 DUP2 DUP5 ADD MSTORE PUSH1 0x1F NOT PUSH1 0x1F DUP3 ADD AND SWAP1 POP DUP1 DUP4 ADD SWAP3 POP POP POP POP POP POP POP DUP2 MSTORE PUSH1 0x20 ADD DUP8 DUP2 MSTORE PUSH1 0x20 ADD DUP5 DUP5 DUP1 DUP1 PUSH1 0x1F ADD PUSH1 0x20 DUP1 SWAP2 DIV MUL PUSH1 0x20 ADD PUSH1 0x40 MLOAD SWAP1 DUP2 ADD PUSH1 0x40 MSTORE DUP1 SWAP4 SWAP3 SWAP2 SWAP1 DUP2 DUP2 MSTORE PUSH1 0x20 ADD DUP4 DUP4 DUP1 DUP3 DUP5 CALLDATACOPY PUSH1 0x0 DUP2 DUP5 ADD MSTORE PUSH1 0x1F NOT PUSH1 0x1F DUP3 ADD AND SWAP1 POP DUP1 DUP4 ADD SWAP3 POP POP POP POP POP POP POP DUP2 MSTORE POP SWAP1 DUP1 PUSH1 0x1 DUP2 SLOAD ADD DUP1 DUP3 SSTORE DUP1 SWAP2 POP POP PUSH1 0x1 SWAP1 SUB SWAP1 PUSH1 0x0 MSTORE PUSH1 0x20 PUSH1 0x0 KECCAK256 SWAP1 PUSH1 0xB MUL ADD PUSH1 0x0 SWAP1 SWAP2 SWAP1 SWAP2 SWAP1 SWAP2 POP PUSH1 0x0 DUP3 ADD MLOAD DUP2 PUSH1 0x0 ADD PUSH1 0x0 PUSH2 0x100 EXP DUP2 SLOAD DUP2 PUSH2 0xFFFF MUL NOT AND SWAP1 DUP4 PUSH2 0xFFFF AND MUL OR SWAP1 SSTORE POP PUSH1 0x20 DUP3 ADD MLOAD DUP2 PUSH1 0x1 ADD SSTORE PUSH1 0x40 DUP3 ADD MLOAD DUP2 PUSH1 0x2 ADD SSTORE PUSH1 0x60 DUP3 ADD MLOAD DUP2 PUSH1 0x3 ADD PUSH1 0x0 PUSH2 0x100 EXP DUP2 SLOAD DUP2 PUSH20 0xFFFFFFFFFFFFFFFFFFFFFFFFFFFFFFFFFFFFFFFF MUL NOT AND SWAP1 DUP4 PUSH20 0xFFFFFFFFFFFFFFFFFFFFFFFFFFFFFFFFFFFFFFFF AND MUL OR SWAP1 SSTORE POP PUSH1 0x80 DUP3 ADD MLOAD DUP2 PUSH1 0x4 ADD SSTORE PUSH1 0xA0 DUP3 ADD MLOAD DUP2 PUSH1 0x5 ADD SSTORE PUSH1 0xC0 DUP3 ADD MLOAD DUP2 PUSH1 0x6 ADD SWAP1 DUP2 PUSH2 0xB03 SWAP2 SWAP1 PUSH2 0x1B79 JUMP JUMPDEST POP PUSH1 0xE0 DUP3 ADD MLOAD DUP2 PUSH1 0x7 ADD PUSH1 0x0 DUP3 ADD MLOAD DUP2 PUSH1 0x0 ADD SSTORE PUSH1 0x20 DUP3 ADD MLOAD DUP2 PUSH1 0x1 ADD SSTORE PUSH1 0x40 DUP3 ADD MLOAD DUP2 PUSH1 0x2 ADD SWAP1 DUP2 PUSH2 0xB36 SWAP2 SWAP1 PUSH2 0x1B79 JUMP JUMPDEST POP POP POP PUSH2 0x100 DUP3 ADD MLOAD DUP2 PUSH1 0xA ADD SWAP1 DUP2 PUSH2 0xB4F SWAP2 SWAP1 PUSH2 0x1B79 JUMP JUMPDEST POP POP POP POP POP POP POP POP POP POP POP POP POP POP JUMP JUMPDEST PUSH1 0x0 SWAP1 JUMP JUMPDEST PUSH1 0x0 SWAP4 SWAP3 POP POP POP JUMP JUMPDEST POP DUP1 SLOAD PUSH2 0xB79 SWAP1 PUSH2 0x196D JUMP JUMPDEST PUSH1 0x0 DUP3 SSTORE DUP1 PUSH1 0x1F LT PUSH2 0xB8B JUMPI POP PUSH2 0xBAA JUMP JUMPDEST PUSH1 0x1F ADD PUSH1 0x20 SWAP1 DIV SWAP1 PUSH1 0x0 MSTORE PUSH1 0x20 PUSH1 0x0 KECCAK256 SWAP1 DUP2 ADD SWAP1 PUSH2 0xBA9 SWAP2 SWAP1 PUSH2 0xC19 JUMP JUMPDEST JUMPDEST POP JUMP JUMPDEST PUSH1 0x40 MLOAD DUP1 PUSH2 0x120 ADD PUSH1 0x40 MSTORE DUP1 PUSH1 0x0 PUSH2 0xFFFF AND DUP2 MSTORE PUSH1 0x20 ADD PUSH1 0x0 DUP2 MSTORE PUSH1 0x20 ADD PUSH1 0x0 DUP2 MSTORE PUSH1 0x20 ADD PUSH1 0x0 PUSH20 0xFFFFFFFFFFFFFFFFFFFFFFFFFFFFFFFFFFFFFFFF AND DUP2 MSTORE PUSH1 0x20 ADD PUSH1 0x0 DUP2 MSTORE PUSH1 0x20 ADD PUSH1 0x0 DUP2 MSTORE PUSH1 0x20 ADD PUSH1 0x60 DUP2 MSTORE PUSH1 0x20 ADD PUSH2 0xC0C PUSH2 0xC36 JUMP JUMPDEST DUP2 MSTORE PUSH1 0x20 ADD PUSH1 0x60 DUP2 MSTORE POP SWAP1 JUMP JUMPDEST JUMPDEST DUP1 DUP3 GT ISZERO PUSH2 0xC32 JUMPI PUSH1 0x0 DUP2 PUSH1 0x0 SWAP1 SSTORE POP PUSH1 0x1 ADD PUSH2 0xC1A JUMP JUMPDEST POP SWAP1 JUMP JUMPDEST PUSH1 0x40 MLOAD DUP1 PUSH1 0x60 ADD PUSH1 0x40 MSTORE DUP1 PUSH1 0x0 DUP2 MSTORE PUSH1 0x20 ADD PUSH1 0x0 DUP2 MSTORE PUSH1 0x20 ADD PUSH1 0x60 DUP2 MSTORE POP SWAP1 JUMP JUMPDEST PUSH1 0x0 PUSH1 0x40 MLOAD SWAP1 POP SWAP1 JUMP JUMPDEST PUSH1 0x0 DUP1 REVERT JUMPDEST PUSH1 0x0 DUP1 REVERT JUMPDEST PUSH1 0x0 PUSH2 0xFFFF DUP3 AND SWAP1 POP SWAP2 SWAP1 POP JUMP JUMPDEST PUSH2 0xC82 DUP2 PUSH2 0xC6B JUMP JUMPDEST DUP2 EQ PUSH2 0xC8D JUMPI PUSH1 0x0 DUP1 REVERT JUMPDEST POP JUMP JUMPDEST PUSH1 0x0 DUP2 CALLDATALOAD SWAP1 POP PUSH2 0xC9F DUP2 PUSH2 0xC79 JUMP JUMPDEST SWAP3 SWAP2 POP POP JUMP JUMPDEST PUSH1 0x0 PUSH1 0xFF DUP3 AND SWAP1 POP SWAP2 SWAP1 POP JUMP JUMPDEST PUSH2 0xCBB DUP2 PUSH2 0xCA5 JUMP JUMPDEST DUP2 EQ PUSH2 0xCC6 JUMPI PUSH1 0x0 DUP1 REVERT JUMPDEST POP JUMP JUMPDEST PUSH1 0x0 DUP2 CALLDATALOAD SWAP1 POP PUSH2 0xCD8 DUP2 PUSH2 0xCB2 JUMP JUMPDEST SWAP3 SWAP2 POP POP JUMP JUMPDEST PUSH1 0x0 DUP1 REVERT JUMPDEST PUSH1 0x0 DUP1 REVERT JUMPDEST PUSH1 0x0 DUP1 REVERT JUMPDEST PUSH1 0x0 DUP1 DUP4 PUSH1 0x1F DUP5 ADD SLT PUSH2 0xD03 JUMPI PUSH2 0xD02 PUSH2 0xCDE JUMP JUMPDEST JUMPDEST DUP3 CALLDATALOAD SWAP1 POP PUSH8 0xFFFFFFFFFFFFFFFF DUP2 GT ISZERO PUSH2 0xD20 JUMPI PUSH2 0xD1F PUSH2 0xCE3 JUMP JUMPDEST JUMPDEST PUSH1 0x20 DUP4 ADD SWAP2 POP DUP4 PUSH1 0x1 DUP3 MUL DUP4 ADD GT ISZERO PUSH2 0xD3C JUMPI PUSH2 0xD3B PUSH2 0xCE8 JUMP JUMPDEST JUMPDEST SWAP3 POP SWAP3 SWAP1 POP JUMP JUMPDEST PUSH1 0x0 DUP1 REVERT JUMPDEST PUSH1 0x0 PUSH1 0x1F NOT PUSH1 0x1F DUP4 ADD AND SWAP1 POP SWAP2 SWAP1 POP JUMP JUMPDEST PUSH32 0x4E487B7100000000000000000000000000000000000000000000000000000000 PUSH1 0x0 MSTORE PUSH1 0x41 PUSH1 0x4 MSTORE PUSH1 0x24 PUSH1 0x0 REVERT JUMPDEST PUSH2 0xD91 DUP3 PUSH2 0xD48 JUMP JUMPDEST DUP2 ADD DUP2 DUP2 LT PUSH8 0xFFFFFFFFFFFFFFFF DUP3 GT OR ISZERO PUSH2 0xDB0 JUMPI PUSH2 0xDAF PUSH2 0xD59 JUMP JUMPDEST JUMPDEST DUP1 PUSH1 0x40 MSTORE POP POP POP JUMP JUMPDEST PUSH1 0x0 PUSH2 0xDC3 PUSH2 0xC57 JUMP JUMPDEST SWAP1 POP PUSH2 0xDCF DUP3 DUP3 PUSH2 0xD88 JUMP JUMPDEST SWAP2 SWAP1 POP JUMP JUMPDEST PUSH1 0x0 DUP1 REVERT JUMPDEST PUSH1 0x0 DUP2 SWAP1 POP SWAP2 SWAP1 POP JUMP JUMPDEST PUSH2 0xDEC DUP2 PUSH2 0xDD9 JUMP JUMPDEST DUP2 EQ PUSH2 0xDF7 JUMPI PUSH1 0x0 DUP1 REVERT JUMPDEST POP JUMP JUMPDEST PUSH1 0x0 DUP2 CALLDATALOAD SWAP1 POP PUSH2 0xE09 DUP2 PUSH2 0xDE3 JUMP JUMPDEST SWAP3 SWAP2 POP POP JUMP JUMPDEST PUSH1 0x0 DUP1 REVERT JUMPDEST PUSH1 0x0 PUSH8 0xFFFFFFFFFFFFFFFF DUP3 GT ISZERO PUSH2 0xE2F JUMPI PUSH2 0xE2E PUSH2 0xD59 JUMP JUMPDEST JUMPDEST PUSH2 0xE38 DUP3 PUSH2 0xD48 JUMP JUMPDEST SWAP1 POP PUSH1 0x20 DUP2 ADD SWAP1 POP SWAP2 SWAP1 POP JUMP JUMPDEST DUP3 DUP2 DUP4 CALLDATACOPY PUSH1 0x0 DUP4 DUP4 ADD MSTORE POP POP POP JUMP JUMPDEST PUSH1 0x0 PUSH2 0xE67 PUSH2 0xE62 DUP5 PUSH2 0xE14 JUMP JUMPDEST PUSH2 0xDB9 JUMP JUMPDEST SWAP1 POP DUP3 DUP2 MSTORE PUSH1 0x20 DUP2 ADD DUP5 DUP5 DUP5 ADD GT ISZERO PUSH2 0xE83 JUMPI PUSH2 0xE82 PUSH2 0xE0F JUMP JUMPDEST JUMPDEST PUSH2 0xE8E DUP5 DUP3 DUP6 PUSH2 0xE45 JUMP JUMPDEST POP SWAP4 SWAP3 POP POP POP JUMP JUMPDEST PUSH1 0x0 DUP3 PUSH1 0x1F DUP4 ADD SLT PUSH2 0xEAB JUMPI PUSH2 0xEAA PUSH2 0xCDE JUMP JUMPDEST JUMPDEST DUP2 CALLDATALOAD PUSH2 0xEBB DUP5 DUP3 PUSH1 0x20 DUP7 ADD PUSH2 0xE54 JUMP JUMPDEST SWAP2 POP POP SWAP3 SWAP2 POP POP JUMP JUMPDEST PUSH1 0x0 PUSH1 0x60 DUP3 DUP5 SUB SLT ISZERO PUSH2 0xEDA JUMPI PUSH2 0xED9 PUSH2 0xD43 JUMP JUMPDEST JUMPDEST PUSH2 0xEE4 PUSH1 0x60 PUSH2 0xDB9 JUMP JUMPDEST SWAP1 POP PUSH1 0x0 PUSH2 0xEF4 DUP5 DUP3 DUP6 ADD PUSH2 0xDFA JUMP JUMPDEST PUSH1 0x0 DUP4 ADD MSTORE POP PUSH1 0x20 PUSH2 0xF08 DUP5 DUP3 DUP6 ADD PUSH2 0xDFA JUMP JUMPDEST PUSH1 0x20 DUP4 ADD MSTORE POP PUSH1 0x40 DUP3 ADD CALLDATALOAD PUSH8 0xFFFFFFFFFFFFFFFF DUP2 GT ISZERO PUSH2 0xF2C JUMPI PUSH2 0xF2B PUSH2 0xDD4 JUMP JUMPDEST JUMPDEST PUSH2 0xF38 DUP5 DUP3 DUP6 ADD PUSH2 0xE96 JUMP JUMPDEST PUSH1 0x40 DUP4 ADD MSTORE POP SWAP3 SWAP2 POP POP JUMP JUMPDEST PUSH1 0x0 DUP1 PUSH1 0x0 DUP1 PUSH1 0x0 DUP1 PUSH1 0x0 PUSH1 0xA0 DUP9 DUP11 SUB SLT ISZERO PUSH2 0xF63 JUMPI PUSH2 0xF62 PUSH2 0xC61 JUMP JUMPDEST JUMPDEST PUSH1 0x0 PUSH2 0xF71 DUP11 DUP3 DUP12 ADD PUSH2 0xC90 JUMP JUMPDEST SWAP8 POP POP PUSH1 0x20 PUSH2 0xF82 DUP11 DUP3 DUP12 ADD PUSH2 0xCC9 JUMP JUMPDEST SWAP7 POP POP PUSH1 0x40 DUP9 ADD CALLDATALOAD PUSH8 0xFFFFFFFFFFFFFFFF DUP2 GT ISZERO PUSH2 0xFA3 JUMPI PUSH2 0xFA2 PUSH2 0xC66 JUMP JUMPDEST JUMPDEST PUSH2 0xFAF DUP11 DUP3 DUP12 ADD PUSH2 0xCED JUMP JUMPDEST SWAP6 POP SWAP6 POP POP PUSH1 0x60 DUP9 ADD CALLDATALOAD PUSH8 0xFFFFFFFFFFFFFFFF DUP2 GT ISZERO PUSH2 0xFD2 JUMPI PUSH2 0xFD1 PUSH2 0xC66 JUMP JUMPDEST JUMPDEST PUSH2 0xFDE DUP11 DUP3 DUP12 ADD PUSH2 0xCED JUMP JUMPDEST SWAP4 POP SWAP4 POP POP PUSH1 0x80 DUP9 ADD CALLDATALOAD PUSH8 0xFFFFFFFFFFFFFFFF DUP2 GT ISZERO PUSH2 0x1001 JUMPI PUSH2 0x1000 PUSH2 0xC66 JUMP JUMPDEST JUMPDEST PUSH2 0x100D DUP11 DUP3 DUP12 ADD PUSH2 0xEC4 JUMP JUMPDEST SWAP2 POP POP SWAP3 SWAP6 SWAP9 SWAP2 SWAP5 SWAP8 POP SWAP3 SWAP6 POP JUMP JUMPDEST PUSH2 0x1025 DUP2 PUSH2 0xDD9 JUMP JUMPDEST DUP3 MSTORE POP POP JUMP JUMPDEST PUSH1 0x0 PUSH1 0x40 DUP3 ADD SWAP1 POP PUSH2 0x1040 PUSH1 0x0 DUP4 ADD DUP6 PUSH2 0x101C JUMP JUMPDEST PUSH2 0x104D PUSH1 0x20 DUP4 ADD DUP5 PUSH2 0x101C JUMP JUMPDEST SWAP4 SWAP3 POP POP POP JUMP JUMPDEST PUSH1 0x0 PUSH1 0x20 DUP3 ADD SWAP1 POP PUSH2 0x1069 PUSH1 0x0 DUP4 ADD DUP5 PUSH2 0x101C JUMP JUMPDEST SWAP3 SWAP2 POP POP JUMP JUMPDEST PUSH1 0x0 DUP2 MLOAD SWAP1 POP SWAP2 SWAP1 POP JUMP JUMPDEST PUSH1 0x0 DUP3 DUP3 MSTORE PUSH1 0x20 DUP3 ADD SWAP1 POP SWAP3 SWAP2 POP POP JUMP JUMPDEST PUSH1 0x0 DUP2 SWAP1 POP PUSH1 0x20 DUP3 ADD SWAP1 POP SWAP2 SWAP1 POP JUMP JUMPDEST PUSH2 0x10A4 DUP2 PUSH2 0xC6B JUMP JUMPDEST DUP3 MSTORE POP POP JUMP JUMPDEST PUSH2 0x10B3 DUP2 PUSH2 0xDD9 JUMP JUMPDEST DUP3 MSTORE POP POP JUMP JUMPDEST PUSH1 0x0 PUSH20 0xFFFFFFFFFFFFFFFFFFFFFFFFFFFFFFFFFFFFFFFF DUP3 AND SWAP1 POP SWAP2 SWAP1 POP JUMP JUMPDEST PUSH1 0x0 PUSH2 0x10E4 DUP3 PUSH2 0x10B9 JUMP JUMPDEST SWAP1 POP SWAP2 SWAP1 POP JUMP JUMPDEST PUSH2 0x10F4 DUP2 PUSH2 0x10D9 JUMP JUMPDEST DUP3 MSTORE POP POP JUMP JUMPDEST PUSH1 0x0 DUP2 MLOAD SWAP1 POP SWAP2 SWAP1 POP JUMP JUMPDEST PUSH1 0x0 DUP3 DUP3 MSTORE PUSH1 0x20 DUP3 ADD SWAP1 POP SWAP3 SWAP2 POP POP JUMP JUMPDEST PUSH1 0x0 JUMPDEST DUP4 DUP2 LT ISZERO PUSH2 0x1134 JUMPI DUP1 DUP3 ADD MLOAD DUP2 DUP5 ADD MSTORE PUSH1 0x20 DUP2 ADD SWAP1 POP PUSH2 0x1119 JUMP JUMPDEST PUSH1 0x0 DUP5 DUP5 ADD MSTORE POP POP POP POP JUMP JUMPDEST PUSH1 0x0 PUSH2 0x114B DUP3 PUSH2 0x10FA JUMP JUMPDEST PUSH2 0x1155 DUP2 DUP6 PUSH2 0x1105 JUMP JUMPDEST SWAP4 POP PUSH2 0x1165 DUP2 DUP6 PUSH1 0x20 DUP7 ADD PUSH2 0x1116 JUMP JUMPDEST PUSH2 0x116E DUP2 PUSH2 0xD48 JUMP JUMPDEST DUP5 ADD SWAP2 POP POP SWAP3 SWAP2 POP POP JUMP JUMPDEST PUSH1 0x0 PUSH1 0x60 DUP4 ADD PUSH1 0x0 DUP4 ADD MLOAD PUSH2 0x1191 PUSH1 0x0 DUP7 ADD DUP3 PUSH2 0x10AA JUMP JUMPDEST POP PUSH1 0x20 DUP4 ADD MLOAD PUSH2 0x11A4 PUSH1 0x20 DUP7 ADD DUP3 PUSH2 0x10AA JUMP JUMPDEST POP PUSH1 0x40 DUP4 ADD MLOAD DUP5 DUP3 SUB PUSH1 0x40 DUP7 ADD MSTORE PUSH2 0x11BC DUP3 DUP3 PUSH2 0x1140 JUMP JUMPDEST SWAP2 POP POP DUP1 SWAP2 POP POP SWAP3 SWAP2 POP POP JUMP JUMPDEST PUSH1 0x0 PUSH2 0x120 DUP4 ADD PUSH1 0x0 DUP4 ADD MLOAD PUSH2 0x11E2 PUSH1 0x0 DUP7 ADD DUP3 PUSH2 0x109B JUMP JUMPDEST POP PUSH1 0x20 DUP4 ADD MLOAD PUSH2 0x11F5 PUSH1 0x20 DUP7 ADD DUP3 PUSH2 0x10AA JUMP JUMPDEST POP PUSH1 0x40 DUP4 ADD MLOAD PUSH2 0x1208 PUSH1 0x40 DUP7 ADD DUP3 PUSH2 0x10AA JUMP JUMPDEST POP PUSH1 0x60 DUP4 ADD MLOAD PUSH2 0x121B PUSH1 0x60 DUP7 ADD DUP3 PUSH2 0x10EB JUMP JUMPDEST POP PUSH1 0x80 DUP4 ADD MLOAD PUSH2 0x122E PUSH1 0x80 DUP7 ADD DUP3 PUSH2 0x10AA JUMP JUMPDEST POP PUSH1 0xA0 DUP4 ADD MLOAD PUSH2 0x1241 PUSH1 0xA0 DUP7 ADD DUP3 PUSH2 0x10AA JUMP JUMPDEST POP PUSH1 0xC0 DUP4 ADD MLOAD DUP5 DUP3 SUB PUSH1 0xC0 DUP7 ADD MSTORE PUSH2 0x1259 DUP3 DUP3 PUSH2 0x1140 JUMP JUMPDEST SWAP2 POP POP PUSH1 0xE0 DUP4 ADD MLOAD DUP5 DUP3 SUB PUSH1 0xE0 DUP7 ADD MSTORE PUSH2 0x1273 DUP3 DUP3 PUSH2 0x1179 JUMP JUMPDEST SWAP2 POP POP PUSH2 0x100 DUP4 ADD MLOAD DUP5 DUP3 SUB PUSH2 0x100 DUP7 ADD MSTORE PUSH2 0x128F DUP3 DUP3 PUSH2 0x1140 JUMP JUMPDEST SWAP2 POP POP DUP1 SWAP2 POP POP SWAP3 SWAP2 POP POP JUMP JUMPDEST PUSH1 0x0 PUSH2 0x12A8 DUP4 DUP4 PUSH2 0x11C9 JUMP JUMPDEST SWAP1 POP SWAP3 SWAP2 POP POP JUMP JUMPDEST PUSH1 0x0 PUSH1 0x20 DUP3 ADD SWAP1 POP SWAP2 SWAP1 POP JUMP JUMPDEST PUSH1 0x0 PUSH2 0x12C8 DUP3 PUSH2 0x106F JUMP JUMPDEST PUSH2 0x12D2 DUP2 DUP6 PUSH2 0x107A JUMP JUMPDEST SWAP4 POP DUP4 PUSH1 0x20 DUP3 MUL DUP6 ADD PUSH2 0x12E4 DUP6 PUSH2 0x108B JUMP JUMPDEST DUP1 PUSH1 0x0 JUMPDEST DUP6 DUP2 LT ISZERO PUSH2 0x1320 JUMPI DUP5 DUP5 SUB DUP10 MSTORE DUP2 MLOAD PUSH2 0x1301 DUP6 DUP3 PUSH2 0x129C JUMP JUMPDEST SWAP5 POP PUSH2 0x130C DUP4 PUSH2 0x12B0 JUMP JUMPDEST SWAP3 POP PUSH1 0x20 DUP11 ADD SWAP10 POP POP PUSH1 0x1 DUP2 ADD SWAP1 POP PUSH2 0x12E8 JUMP JUMPDEST POP DUP3 SWAP8 POP DUP8 SWAP6 POP POP POP POP POP POP SWAP3 SWAP2 POP POP JUMP JUMPDEST PUSH1 0x0 PUSH1 0x20 DUP3 ADD SWAP1 POP DUP2 DUP2 SUB PUSH1 0x0 DUP4 ADD MSTORE PUSH2 0x134C DUP2 DUP5 PUSH2 0x12BD JUMP JUMPDEST SWAP1 POP SWAP3 SWAP2 POP POP JUMP JUMPDEST PUSH2 0x135D DUP2 PUSH2 0x10D9 JUMP JUMPDEST DUP2 EQ PUSH2 0x1368 JUMPI PUSH1 0x0 DUP1 REVERT JUMPDEST POP JUMP JUMPDEST PUSH1 0x0 DUP2 CALLDATALOAD SWAP1 POP PUSH2 0x137A DUP2 PUSH2 0x1354 JUMP JUMPDEST SWAP3 SWAP2 POP POP JUMP JUMPDEST PUSH1 0x0 DUP1 PUSH1 0x0 DUP1 PUSH1 0x0 DUP1 PUSH1 0x0 DUP1 PUSH1 0x0 PUSH2 0x100 DUP11 DUP13 SUB SLT ISZERO PUSH2 0x13A3 JUMPI PUSH2 0x13A2 PUSH2 0xC61 JUMP JUMPDEST JUMPDEST PUSH1 0x0 PUSH2 0x13B1 DUP13 DUP3 DUP14 ADD PUSH2 0xC90 JUMP JUMPDEST SWAP10 POP POP PUSH1 0x20 PUSH2 0x13C2 DUP13 DUP3 DUP14 ADD PUSH2 0xDFA JUMP JUMPDEST SWAP9 POP POP PUSH1 0x40 PUSH2 0x13D3 DUP13 DUP3 DUP14 ADD PUSH2 0xDFA JUMP JUMPDEST SWAP8 POP POP PUSH1 0x60 PUSH2 0x13E4 DUP13 DUP3 DUP14 ADD PUSH2 0x136B JUMP JUMPDEST SWAP7 POP POP PUSH1 0x80 PUSH2 0x13F5 DUP13 DUP3 DUP14 ADD PUSH2 0xDFA JUMP JUMPDEST SWAP6 POP POP PUSH1 0xA0 PUSH2 0x1406 DUP13 DUP3 DUP14 ADD PUSH2 0xDFA JUMP JUMPDEST SWAP5 POP POP PUSH1 0xC0 DUP11 ADD CALLDATALOAD PUSH8 0xFFFFFFFFFFFFFFFF DUP2 GT ISZERO PUSH2 0x1427 JUMPI PUSH2 0x1426 PUSH2 0xC66 JUMP JUMPDEST JUMPDEST PUSH2 0x1433 DUP13 DUP3 DUP14 ADD PUSH2 0xCED JUMP JUMPDEST SWAP4 POP SWAP4 POP POP PUSH1 0xE0 DUP11 ADD CALLDATALOAD PUSH8 0xFFFFFFFFFFFFFFFF DUP2 GT ISZERO PUSH2 0x1456 JUMPI PUSH2 0x1455 PUSH2 0xC66 JUMP JUMPDEST JUMPDEST PUSH2 0x1462 DUP13 DUP3 DUP14 ADD PUSH2 0xEC4 JUMP JUMPDEST SWAP2 POP POP SWAP3 SWAP6 SWAP9 POP SWAP3 SWAP6 SWAP9 POP SWAP3 SWAP6 SWAP9 JUMP JUMPDEST PUSH1 0x0 PUSH2 0x147D DUP3 PUSH2 0x10B9 JUMP JUMPDEST SWAP1 POP SWAP2 SWAP1 POP JUMP JUMPDEST PUSH2 0x148D DUP2 PUSH2 0x1472 JUMP JUMPDEST DUP2 EQ PUSH2 0x1498 JUMPI PUSH1 0x0 DUP1 REVERT JUMPDEST POP JUMP JUMPDEST PUSH1 0x0 DUP2 CALLDATALOAD SWAP1 POP PUSH2 0x14AA DUP2 PUSH2 0x1484 JUMP JUMPDEST SWAP3 SWAP2 POP POP JUMP JUMPDEST PUSH1 0x0 DUP1 PUSH1 0x0 PUSH1 0x60 DUP5 DUP7 SUB SLT ISZERO PUSH2 0x14C9 JUMPI PUSH2 0x14C8 PUSH2 0xC61 JUMP JUMPDEST JUMPDEST PUSH1 0x0 PUSH2 0x14D7 DUP7 DUP3 DUP8 ADD PUSH2 0xDFA JUMP JUMPDEST SWAP4 POP POP PUSH1 0x20 PUSH2 0x14E8 DUP7 DUP3 DUP8 ADD PUSH2 0xDFA JUMP JUMPDEST SWAP3 POP POP PUSH1 0x40 PUSH2 0x14F9 DUP7 DUP3 DUP8 ADD PUSH2 0x149B JUMP JUMPDEST SWAP2 POP POP SWAP3 POP SWAP3 POP SWAP3 JUMP JUMPDEST PUSH1 0x0 PUSH1 0x20 DUP3 DUP5 SUB SLT ISZERO PUSH2 0x1519 JUMPI PUSH2 0x1518 PUSH2 0xC61 JUMP JUMPDEST JUMPDEST PUSH1 0x0 PUSH2 0x1527 DUP5 DUP3 DUP6 ADD PUSH2 0xDFA JUMP JUMPDEST SWAP2 POP POP SWAP3 SWAP2 POP POP JUMP JUMPDEST PUSH1 0x0 PUSH2 0x120 DUP4 ADD PUSH1 0x0 DUP4 ADD MLOAD PUSH2 0x1549 PUSH1 0x0 DUP7 ADD DUP3 PUSH2 0x109B JUMP JUMPDEST POP PUSH1 0x20 DUP4 ADD MLOAD PUSH2 0x155C PUSH1 0x20 DUP7 ADD DUP3 PUSH2 0x10AA JUMP JUMPDEST POP PUSH1 0x40 DUP4 ADD MLOAD PUSH2 0x156F PUSH1 0x40 DUP7 ADD DUP3 PUSH2 0x10AA JUMP JUMPDEST POP PUSH1 0x60 DUP4 ADD MLOAD PUSH2 0x1582 PUSH1 0x60 DUP7 ADD DUP3 PUSH2 0x10EB JUMP JUMPDEST POP PUSH1 0x80 DUP4 ADD MLOAD PUSH2 0x1595 PUSH1 0x80 DUP7 ADD DUP3 PUSH2 0x10AA JUMP JUMPDEST POP PUSH1 0xA0 DUP4 ADD MLOAD PUSH2 0x15A8 PUSH1 0xA0 DUP7 ADD DUP3 PUSH2 0x10AA JUMP JUMPDEST POP PUSH1 0xC0 DUP4 ADD MLOAD DUP5 DUP3 SUB PUSH1 0xC0 DUP7 ADD MSTORE PUSH2 0x15C0 DUP3 DUP3 PUSH2 0x1140 JUMP JUMPDEST SWAP2 POP POP PUSH1 0xE0 DUP4 ADD MLOAD DUP5 DUP3 SUB PUSH1 0xE0 DUP7 ADD MSTORE PUSH2 0x15DA DUP3 DUP3 PUSH2 0x1179 JUMP JUMPDEST SWAP2 POP POP PUSH2 0x100 DUP4 ADD MLOAD DUP5 DUP3 SUB PUSH2 0x100 DUP7 ADD MSTORE PUSH2 0x15F6 DUP3 DUP3 PUSH2 0x1140 JUMP JUMPDEST SWAP2 POP POP DUP1 SWAP2 POP POP SWAP3 SWAP2 POP POP JUMP JUMPDEST PUSH1 0x0 PUSH1 0x20 DUP3 ADD SWAP1 POP DUP2 DUP2 SUB PUSH1 0x0 DUP4 ADD MSTORE PUSH2 0x161D DUP2 DUP5 PUSH2 0x1530 JUMP JUMPDEST SWAP1 POP SWAP3 SWAP2 POP POP JUMP JUMPDEST PUSH1 0x0 DUP1 PUSH1 0x0 DUP1 PUSH1 0x0 DUP1 PUSH1 0x0 DUP1 PUSH1 0xE0 DUP10 DUP12 SUB SLT ISZERO PUSH2 0x1645 JUMPI PUSH2 0x1644 PUSH2 0xC61 JUMP JUMPDEST JUMPDEST PUSH1 0x0 PUSH2 0x1653 DUP12 DUP3 DUP13 ADD PUSH2 0xC90 JUMP JUMPDEST SWAP9 POP POP PUSH1 0x20 PUSH2 0x1664 DUP12 DUP3 DUP13 ADD PUSH2 0xDFA JUMP JUMPDEST SWAP8 POP POP PUSH1 0x40 PUSH2 0x1675 DUP12 DUP3 DUP13 ADD PUSH2 0xDFA JUMP JUMPDEST SWAP7 POP POP PUSH1 0x60 PUSH2 0x1686 DUP12 DUP3 DUP13 ADD PUSH2 0x136B JUMP JUMPDEST SWAP6 POP POP PUSH1 0x80 PUSH2 0x1697 DUP12 DUP3 DUP13 ADD PUSH2 0xDFA JUMP JUMPDEST SWAP5 POP POP PUSH1 0xA0 DUP10 ADD CALLDATALOAD PUSH8 0xFFFFFFFFFFFFFFFF DUP2 GT ISZERO PUSH2 0x16B8 JUMPI PUSH2 0x16B7 PUSH2 0xC66 JUMP JUMPDEST JUMPDEST PUSH2 0x16C4 DUP12 DUP3 DUP13 ADD PUSH2 0xCED JUMP JUMPDEST SWAP4 POP SWAP4 POP POP PUSH1 0xC0 DUP10 ADD CALLDATALOAD PUSH8 0xFFFFFFFFFFFFFFFF DUP2 GT ISZERO PUSH2 0x16E7 JUMPI PUSH2 0x16E6 PUSH2 0xC66 JUMP JUMPDEST JUMPDEST PUSH2 0x16F3 DUP12 DUP3 DUP13 ADD PUSH2 0xEC4 JUMP JUMPDEST SWAP2 POP POP SWAP3 SWAP6 SWAP9 POP SWAP3 SWAP6 SWAP9 SWAP1 SWAP4 SWAP7 POP JUMP JUMPDEST PUSH1 0x0 DUP1 PUSH1 0x0 DUP1 PUSH1 0x80 DUP6 DUP8 SUB SLT ISZERO PUSH2 0x171D JUMPI PUSH2 0x171C PUSH2 0xC61 JUMP JUMPDEST JUMPDEST PUSH1 0x0 PUSH2 0x172B DUP8 DUP3 DUP9 ADD PUSH2 0xC90 JUMP JUMPDEST SWAP5 POP POP PUSH1 0x20 PUSH2 0x173C DUP8 DUP3 DUP9 ADD PUSH2 0xDFA JUMP JUMPDEST SWAP4 POP POP PUSH1 0x40 PUSH2 0x174D DUP8 DUP3 DUP9 ADD PUSH2 0xDFA JUMP JUMPDEST SWAP3 POP POP PUSH1 0x60 PUSH2 0x175E DUP8 DUP3 DUP9 ADD PUSH2 0x136B JUMP JUMPDEST SWAP2 POP POP SWAP3 SWAP6 SWAP2 SWAP5 POP SWAP3 POP JUMP JUMPDEST PUSH1 0x0 DUP1 PUSH1 0x0 DUP1 PUSH1 0x0 DUP1 PUSH1 0x0 DUP1 PUSH1 0x0 DUP1 PUSH1 0x0 PUSH2 0x120 DUP13 DUP15 SUB SLT ISZERO PUSH2 0x1790 JUMPI PUSH2 0x178F PUSH2 0xC61 JUMP JUMPDEST JUMPDEST PUSH1 0x0 PUSH2 0x179E DUP15 DUP3 DUP16 ADD PUSH2 0xC90 JUMP JUMPDEST SWAP12 POP POP PUSH1 0x20 PUSH2 0x17AF DUP15 DUP3 DUP16 ADD PUSH2 0xDFA JUMP JUMPDEST SWAP11 POP POP PUSH1 0x40 PUSH2 0x17C0 DUP15 DUP3 DUP16 ADD PUSH2 0xDFA JUMP JUMPDEST SWAP10 POP POP PUSH1 0x60 PUSH2 0x17D1 DUP15 DUP3 DUP16 ADD PUSH2 0x136B JUMP JUMPDEST SWAP9 POP POP PUSH1 0x80 PUSH2 0x17E2 DUP15 DUP3 DUP16 ADD PUSH2 0xDFA JUMP JUMPDEST SWAP8 POP POP PUSH1 0xA0 PUSH2 0x17F3 DUP15 DUP3 DUP16 ADD PUSH2 0xDFA JUMP JUMPDEST SWAP7 POP POP PUSH1 0xC0 DUP13 ADD CALLDATALOAD PUSH8 0xFFFFFFFFFFFFFFFF DUP2 GT ISZERO PUSH2 0x1814 JUMPI PUSH2 0x1813 PUSH2 0xC66 JUMP JUMPDEST JUMPDEST PUSH2 0x1820 DUP15 DUP3 DUP16 ADD PUSH2 0xEC4 JUMP JUMPDEST SWAP6 POP POP PUSH1 0xE0 DUP13 ADD CALLDATALOAD PUSH8 0xFFFFFFFFFFFFFFFF DUP2 GT ISZERO PUSH2 0x1841 JUMPI PUSH2 0x1840 PUSH2 0xC66 JUMP JUMPDEST JUMPDEST PUSH2 0x184D DUP15 DUP3 DUP16 ADD PUSH2 0xCED JUMP JUMPDEST SWAP5 POP SWAP5 POP POP PUSH2 0x100 DUP13 ADD CALLDATALOAD PUSH8 0xFFFFFFFFFFFFFFFF DUP2 GT ISZERO PUSH2 0x1871 JUMPI PUSH2 0x1870 PUSH2 0xC66 JUMP JUMPDEST JUMPDEST PUSH2 0x187D DUP15 DUP3 DUP16 ADD PUSH2 0xCED JUMP JUMPDEST SWAP3 POP SWAP3 POP POP SWAP3 SWAP6 SWAP9 SWAP12 POP SWAP3 SWAP6 SWAP9 SWAP12 SWAP1 SWAP4 SWAP7 SWAP10 POP JUMP JUMPDEST PUSH2 0x189B DUP2 PUSH2 0x1472 JUMP JUMPDEST DUP3 MSTORE POP POP JUMP JUMPDEST PUSH1 0x0 PUSH1 0x20 DUP3 ADD SWAP1 POP PUSH2 0x18B6 PUSH1 0x0 DUP4 ADD DUP5 PUSH2 0x1892 JUMP JUMPDEST SWAP3 SWAP2 POP POP JUMP JUMPDEST PUSH1 0x0 DUP1 PUSH1 0x0 PUSH1 0x60 DUP5 DUP7 SUB SLT ISZERO PUSH2 0x18D5 JUMPI PUSH2 0x18D4 PUSH2 0xC61 JUMP JUMPDEST JUMPDEST PUSH1 0x0 PUSH2 0x18E3 DUP7 DUP3 DUP8 ADD PUSH2 0xC90 JUMP JUMPDEST SWAP4 POP POP PUSH1 0x20 PUSH2 0x18F4 DUP7 DUP3 DUP8 ADD PUSH2 0xDFA JUMP JUMPDEST SWAP3 POP POP PUSH1 0x40 PUSH2 0x1905 DUP7 DUP3 DUP8 ADD PUSH2 0x149B JUMP JUMPDEST SWAP2 POP POP SWAP3 POP SWAP3 POP SWAP3 JUMP JUMPDEST PUSH32 0x4E487B7100000000000000000000000000000000000000000000000000000000 PUSH1 0x0 MSTORE PUSH1 0x31 PUSH1 0x4 MSTORE PUSH1 0x24 PUSH1 0x0 REVERT JUMPDEST PUSH32 0x4E487B7100000000000000000000000000000000000000000000000000000000 PUSH1 0x0 MSTORE PUSH1 0x22 PUSH1 0x4 MSTORE PUSH1 0x24 PUSH1 0x0 REVERT JUMPDEST PUSH1 0x0 PUSH1 0x2 DUP3 DIV SWAP1 POP PUSH1 0x1 DUP3 AND DUP1 PUSH2 0x1985 JUMPI PUSH1 0x7F DUP3 AND SWAP2 POP JUMPDEST PUSH1 0x20 DUP3 LT DUP2 SUB PUSH2 0x1998 JUMPI PUSH2 0x1997 PUSH2 0x193E JUMP JUMPDEST JUMPDEST POP SWAP2 SWAP1 POP JUMP JUMPDEST PUSH32 0x4E487B7100000000000000000000000000000000000000000000000000000000 PUSH1 0x0 MSTORE PUSH1 0x32 PUSH1 0x4 MSTORE PUSH1 0x24 PUSH1 0x0 REVERT JUMPDEST PUSH1 0x0 DUP2 SWAP1 POP DUP2 PUSH1 0x0 MSTORE PUSH1 0x20 PUSH1 0x0 KECCAK256 SWAP1 POP SWAP2 SWAP1 POP JUMP JUMPDEST PUSH1 0x0 PUSH1 0x20 PUSH1 0x1F DUP4 ADD DIV SWAP1 POP SWAP2 SWAP1 POP JUMP JUMPDEST PUSH1 0x0 DUP3 DUP3 SHL SWAP1 POP SWAP3 SWAP2 POP POP JUMP JUMPDEST PUSH1 0x0 PUSH1 0x8 DUP4 MUL PUSH2 0x1A2F PUSH32 0xFFFFFFFFFFFFFFFFFFFFFFFFFFFFFFFFFFFFFFFFFFFFFFFFFFFFFFFFFFFFFFFF DUP3 PUSH2 0x19F2 JUMP JUMPDEST PUSH2 0x1A39 DUP7 DUP4 PUSH2 0x19F2 JUMP JUMPDEST SWAP6 POP DUP1 NOT DUP5 AND SWAP4 POP DUP1 DUP7 AND DUP5 OR SWAP3 POP POP POP SWAP4 SWAP3 POP POP POP JUMP JUMPDEST PUSH1 0x0 DUP2 SWAP1 POP SWAP2 SWAP1 POP JUMP JUMPDEST PUSH1 0x0 PUSH2 0x1A76 PUSH2 0x1A71 PUSH2 0x1A6C DUP5 PUSH2 0xDD9 JUMP JUMPDEST PUSH2 0x1A51 JUMP JUMPDEST PUSH2 0xDD9 JUMP JUMPDEST SWAP1 POP SWAP2 SWAP1 POP JUMP JUMPDEST PUSH1 0x0 DUP2 SWAP1 POP SWAP2 SWAP1 POP JUMP JUMPDEST PUSH2 0x1A90 DUP4 PUSH2 0x1A5B JUMP JUMPDEST PUSH2 0x1AA4 PUSH2 0x1A9C DUP3 PUSH2 0x1A7D JUMP JUMPDEST DUP5 DUP5 SLOAD PUSH2 0x19FF JUMP JUMPDEST DUP3 SSTORE POP POP POP POP JUMP JUMPDEST PUSH1 0x0 SWAP1 JUMP JUMPDEST PUSH2 0x1AB9 PUSH2 0x1AAC JUMP JUMPDEST PUSH2 0x1AC4 DUP2 DUP5 DUP5 PUSH2 0x1A87 JUMP JUMPDEST POP POP POP JUMP JUMPDEST JUMPDEST DUP2 DUP2 LT ISZERO PUSH2 0x1AE8 JUMPI PUSH2 0x1ADD PUSH1 0x0 DUP3 PUSH2 0x1AB1 JUMP JUMPDEST PUSH1 0x1 DUP2 ADD SWAP1 POP PUSH2 0x1ACA JUMP JUMPDEST POP POP JUMP JUMPDEST PUSH1 0x1F DUP3 GT ISZERO PUSH2 0x1B2D JUMPI PUSH2 0x1AFE DUP2 PUSH2 0x19CD JUMP JUMPDEST PUSH2 0x1B07 DUP5 PUSH2 0x19E2 JUMP JUMPDEST DUP2 ADD PUSH1 0x20 DUP6 LT ISZERO PUSH2 0x1B16 JUMPI DUP2 SWAP1 POP JUMPDEST PUSH2 0x1B2A PUSH2 0x1B22 DUP6 PUSH2 0x19E2 JUMP JUMPDEST DUP4 ADD DUP3 PUSH2 0x1AC9 JUMP JUMPDEST POP POP JUMPDEST POP POP POP JUMP JUMPDEST PUSH1 0x0 DUP3 DUP3 SHR SWAP1 POP SWAP3 SWAP2 POP POP JUMP JUMPDEST PUSH1 0x0 PUSH2 0x1B50 PUSH1 0x0 NOT DUP5 PUSH1 0x8 MUL PUSH2 0x1B32 JUMP JUMPDEST NOT DUP1 DUP4 AND SWAP2 POP POP SWAP3 SWAP2 POP POP JUMP JUMPDEST PUSH1 0x0 PUSH2 0x1B69 DUP4 DUP4 PUSH2 0x1B3F JUMP JUMPDEST SWAP2 POP DUP3 PUSH1 0x2 MUL DUP3 OR SWAP1 POP SWAP3 SWAP2 POP POP JUMP JUMPDEST PUSH2 0x1B82 DUP3 PUSH2 0x10FA JUMP JUMPDEST PUSH8 0xFFFFFFFFFFFFFFFF DUP2 GT ISZERO PUSH2 0x1B9B JUMPI PUSH2 0x1B9A PUSH2 0xD59 JUMP JUMPDEST JUMPDEST PUSH2 0x1BA5 DUP3 SLOAD PUSH2 0x196D JUMP JUMPDEST PUSH2 0x1BB0 DUP3 DUP3 DUP6 PUSH2 0x1AEC JUMP JUMPDEST PUSH1 0x0 PUSH1 0x20 SWAP1 POP PUSH1 0x1F DUP4 GT PUSH1 0x1 DUP2 EQ PUSH2 0x1BE3 JUMPI PUSH1 0x0 DUP5 ISZERO PUSH2 0x1BD1 JUMPI DUP3 DUP8 ADD MLOAD SWAP1 POP JUMPDEST PUSH2 0x1BDB DUP6 DUP3 PUSH2 0x1B5D JUMP JUMPDEST DUP7 SSTORE POP PUSH2 0x1C43 JUMP JUMPDEST PUSH1 0x1F NOT DUP5 AND PUSH2 0x1BF1 DUP7 PUSH2 0x19CD JUMP JUMPDEST PUSH1 0x0 JUMPDEST DUP3 DUP2 LT ISZERO PUSH2 0x1C19 JUMPI DUP5 DUP10 ADD MLOAD DUP3 SSTORE PUSH1 0x1 DUP3 ADD SWAP2 POP PUSH1 0x20 DUP6 ADD SWAP5 POP PUSH1 0x20 DUP2 ADD SWAP1 POP PUSH2 0x1BF4 JUMP JUMPDEST DUP7 DUP4 LT ISZERO PUSH2 0x1C36 JUMPI DUP5 DUP10 ADD MLOAD PUSH2 0x1C32 PUSH1 0x1F DUP10 AND DUP3 PUSH2 0x1B3F JUMP JUMPDEST DUP4 SSTORE POP JUMPDEST PUSH1 0x1 PUSH1 0x2 DUP9 MUL ADD DUP9 SSTORE POP POP POP JUMPDEST POP POP POP POP POP POP JUMP INVALID LOG2 PUSH5 0x6970667358 0x22 SLT KECCAK256 DUP16 0x4C DUP3 0xBB 0x4E PUSH16 0x9F60BF1CA4EB250222B364684D7EA711 0xC2 SWAP4 PUSH19 0x104D66B7D85A4D64736F6C6343000812003300 "},"gasEstimates":{"creation":{"codeDepositCost":"1459400","executionCost":"1527","totalCost":"1460927"},"external":{"addLiquidity(uint256,uint256,address)":"infinite","clear()":"infinite","factory()":"466","getSwapInvocationAt(uint256)":"infinite","getSwapInvocationCount()":"2468","getSwapInvocations()":"infinite","instantRedeemLocal(uint16,uint256,address)":"infinite","quoteLayerZeroFee(uint16,uint8,bytes,bytes,(uint256,uint256,bytes))":"infinite","redeemLocal(uint16,uint256,uint256,address,uint256,bytes,(uint256,uint256,bytes))":"infinite","redeemRemote(uint16,uint256,uint256,address,uint256,uint256,bytes,(uint256,uint256,bytes))":"infinite","sendCredits(uint16,uint256,uint256,address)":"infinite","swap(uint16,uint256,uint256,address,uint256,uint256,(uint256,uint256,bytes),bytes,bytes)":"infinite"}},"methodIdentifiers":{"addLiquidity(uint256,uint256,address)":"87b21efc","clear()":"52efea6e","factory()":"c45a0155","getSwapInvocationAt(uint256)":"8b68be29","getSwapInvocationCount()":"17293c87","getSwapInvocations()":"61790431","instantRedeemLocal(uint16,uint256,address)":"c4de93a5","quoteLayerZeroFee(uint16,uint8,bytes,bytes,(uint256,uint256,bytes))":"0a512369","redeemLocal(uint16,uint256,uint256,address,uint256,bytes,(uint256,uint256,bytes))":"8f2e1d18","redeemRemote(uint16,uint256,uint256,address,uint256,uint256,bytes,(uint256,uint256,bytes))":"84d0dba3","sendCredits(uint16,uint256,uint256,address)":"9ba3aa74","swap(uint16,uint256,uint256,address,uint256,uint256,(uint256,uint256,bytes),bytes,bytes)":"9fbf10fc"}},"storageLayout":{"storage":[{"astId":2133,"contract":"contracts/MockStargateRouter.sol:MockStargateRouter","label":"swapInvocations","offset":0,"slot":"0","type":"t_array(t_struct(MockStargateRouterSwapArgs)2129_storage)dyn_storage"}],"types":{"t_address_payable":{"encoding":"inplace","label":"address payable","numberOfBytes":"20"},"t_array(t_struct(MockStargateRouterSwapArgs)2129_storage)dyn_storage":{"base":"t_struct(MockStargateRouterSwapArgs)2129_storage","encoding":"dynamic_array","label":"struct MockStargateRouter.MockStargateRouterSwapArgs[]","numberOfBytes":"32"},"t_bytes_storage":{"encoding":"bytes","label":"bytes","numberOfBytes":"32"},"t_struct(MockStargateRouterSwapArgs)2129_storage":{"encoding":"inplace","label":"struct MockStargateRouter.MockStargateRouterSwapArgs","members":[{"astId":2111,"contract":"contracts/MockStargateRouter.sol:MockStargateRouter","label":"dstChainId","offset":0,"slot":"0","type":"t_uint16"},{"astId":2113,"contract":"contracts/MockStargateRouter.sol:MockStargateRouter","label":"srcPoolId","offset":0,"slot":"1","type":"t_uint256"},{"astId":2115,"contract":"contracts/MockStargateRouter.sol:MockStargateRouter","label":"dstPoolId","offset":0,"slot":"2","type":"t_uint256"},{"astId":2117,"contract":"contracts/MockStargateRouter.sol:MockStargateRouter","label":"refundAddress","offset":0,"slot":"3","type":"t_address_payable"},{"astId":2119,"contract":"contracts/MockStargateRouter.sol:MockStargateRouter","label":"amount","offset":0,"slot":"4","type":"t_uint256"},{"astId":2121,"contract":"contracts/MockStargateRouter.sol:MockStargateRouter","label":"minAmountOut","offset":0,"slot":"5","type":"t_uint256"},{"astId":2123,"contract":"contracts/MockStargateRouter.sol:MockStargateRouter","label":"to","offset":0,"slot":"6","type":"t_bytes_storage"},{"astId":2126,"contract":"contracts/MockStargateRouter.sol:MockStargateRouter","label":"lzTxParams","offset":0,"slot":"7","type":"t_struct(lzTxObj)1994_storage"},{"astId":2128,"contract":"contracts/MockStargateRouter.sol:MockStargateRouter","label":"payload","offset":0,"slot":"10","type":"t_bytes_storage"}],"numberOfBytes":"352"},"t_struct(lzTxObj)1994_storage":{"encoding":"inplace","label":"struct IStargateRouter.lzTxObj","members":[{"astId":1989,"contract":"contracts/MockStargateRouter.sol:MockStargateRouter","label":"dstGasForCall","offset":0,"slot":"0","type":"t_uint256"},{"astId":1991,"contract":"contracts/MockStargateRouter.sol:MockStargateRouter","label":"dstNativeAmount","offset":0,"slot":"1","type":"t_uint256"},{"astId":1993,"contract":"contracts/MockStargateRouter.sol:MockStargateRouter","label":"dstNativeAddr","offset":0,"slot":"2","type":"t_bytes_storage"}],"numberOfBytes":"96"},"t_uint16":{"encoding":"inplace","label":"uint16","numberOfBytes":"2"},"t_uint256":{"encoding":"inplace","label":"uint256","numberOfBytes":"32"}}},"userdoc":{"kind":"user","methods":{},"version":1}}}}