{
  "address": "0x41309991fFDe518bDB64DD38Cbe2313AaC562814",
  "abi": [
    {
      "inputs": [
        {
          "internalType": "address",
          "name": "_aavePoolAddress",
          "type": "address"
        }
      ],
      "stateMutability": "nonpayable",
      "type": "constructor"
    },
    {
      "anonymous": false,
      "inputs": [
        {
          "components": [
            {
              "components": [
                {
                  "internalType": "enum AssetType",
                  "name": "assetType",
                  "type": "uint8"
                },
                {
                  "internalType": "address",
                  "name": "assetAddress",
                  "type": "address"
                }
              ],
              "internalType": "struct Asset",
              "name": "asset",
              "type": "tuple"
            },
            {
              "internalType": "uint256",
              "name": "amount",
              "type": "uint256"
            }
          ],
          "indexed": false,
          "internalType": "struct AssetAmount",
          "name": "inputAssetAmount",
          "type": "tuple"
        }
      ],
      "name": "AaveSupplyActionEvent",
      "type": "event"
    },
    {
      "inputs": [
        {
          "components": [
            {
              "components": [
                {
                  "internalType": "enum AssetType",
                  "name": "assetType",
                  "type": "uint8"
                },
                {
                  "internalType": "address",
                  "name": "assetAddress",
                  "type": "address"
                }
              ],
              "internalType": "struct Asset",
              "name": "asset",
              "type": "tuple"
            },
            {
              "internalType": "uint256",
              "name": "amount",
              "type": "uint256"
            }
          ],
          "internalType": "struct AssetAmount[]",
          "name": "assetAmounts",
          "type": "tuple[]"
        },
        {
          "internalType": "bytes",
          "name": "",
          "type": "bytes"
        }
      ],
      "name": "execute",
      "outputs": [
        {
          "components": [
            {
              "components": [
                {
                  "components": [
                    {
                      "internalType": "enum AssetType",
                      "name": "assetType",
                      "type": "uint8"
                    },
                    {
                      "internalType": "address",
                      "name": "assetAddress",
                      "type": "address"
                    }
                  ],
                  "internalType": "struct Asset",
                  "name": "asset",
                  "type": "tuple"
                },
                {
                  "internalType": "uint256",
                  "name": "amount",
                  "type": "uint256"
                }
              ],
              "internalType": "struct AssetAmount[]",
              "name": "inputAssetAmounts",
              "type": "tuple[]"
            },
            {
              "components": [
                {
                  "components": [
                    {
                      "internalType": "enum AssetType",
                      "name": "assetType",
                      "type": "uint8"
                    },
                    {
                      "internalType": "address",
                      "name": "assetAddress",
                      "type": "address"
                    }
                  ],
                  "internalType": "struct Asset",
                  "name": "asset",
                  "type": "tuple"
                },
                {
                  "internalType": "uint256",
                  "name": "amount",
                  "type": "uint256"
                }
              ],
              "internalType": "struct AssetAmount[]",
              "name": "outputAssetAmounts",
              "type": "tuple[]"
            },
            {
              "internalType": "int16",
              "name": "nextStepIndex",
              "type": "int16"
            }
          ],
          "internalType": "struct WorkflowStepResult",
          "name": "",
          "type": "tuple"
        }
      ],
      "stateMutability": "payable",
      "type": "function"
    },
    {
      "inputs": [],
      "name": "poolAddress",
      "outputs": [
        {
          "internalType": "address",
          "name": "",
          "type": "address"
        }
      ],
      "stateMutability": "view",
      "type": "function"
    }
  ],
  "transactionHash": "0xfca3955843460c42834f6c66859c0b571bb9f5b5525f86e46977aa4a9e275063",
  "args": [
    "0x9fC08527858ae3E70AFF353DCe4F05568874F187"
  ],
  "numDeployments": 1,
  "solcInputHash": "7a8268dba9311d47bfd24fc65b4ac9e4",
  "bytecode": "0x60a06040523480156200001157600080fd5b5060405162001fc938038062001fc98339818101604052810190620000379190620000dc565b8073ffffffffffffffffffffffffffffffffffffffff1660808173ffffffffffffffffffffffffffffffffffffffff1681525050506200010e565b600080fd5b600073ffffffffffffffffffffffffffffffffffffffff82169050919050565b6000620000a48262000077565b9050919050565b620000b68162000097565b8114620000c257600080fd5b50565b600081519050620000d681620000ab565b92915050565b600060208284031215620000f557620000f462000072565b5b60006200010584828501620000c5565b91505092915050565b608051611e926200013760003960008181608b0152818161025301526102bc0152611e926000f3fe6080604052600436106100295760003560e01c80631755ff211461002e5780637bb26ca714610059575b600080fd5b34801561003a57600080fd5b50610043610089565b6040516100509190610eb4565b60405180910390f35b610073600480360381019061006e9190610f9e565b6100ad565b604051610080919061123e565b60405180910390f35b7f000000000000000000000000000000000000000000000000000000000000000081565b6100b5610bc6565b600185859050146100fb576040517f08c379a00000000000000000000000000000000000000000000000000000000081526004016100f2906112e3565b60405180910390fd5b6001600281111561010f5761010e61104b565b5b8585600081811061012357610122611303565b5b905060600201600001600001602081019061013e9190611357565b60028111156101505761014f61104b565b5b14610190576040517f08c379a0000000000000000000000000000000000000000000000000000000008152600401610187906113d0565b60405180910390fd5b7f46fe748530bbf7d655d836d8ce67684c4e9122a23e9d988ca820b9d8e50958b9858560008181106101c5576101c4611303565b5b9050606002016040516101d89190611516565b60405180910390a16101e8610bea565b858560008181106101fc576101fb611303565b5b90506060020160000160200160208101906102179190611531565b816000019073ffffffffffffffffffffffffffffffffffffffff16908173ffffffffffffffffffffffffffffffffffffffff16815250506102ba7f00000000000000000000000000000000000000000000000000000000000000008787600081811061028657610285611303565b5b90506060020160400135836000015173ffffffffffffffffffffffffffffffffffffffff166106a69092919063ffffffff16565b7f0000000000000000000000000000000000000000000000000000000000000000816020019073ffffffffffffffffffffffffffffffffffffffff16908173ffffffffffffffffffffffffffffffffffffffff1681525050806020015173ffffffffffffffffffffffffffffffffffffffff166335ea6a758787600081811061034657610345611303565b5b90506060020160000160200160208101906103619190611531565b6040518263ffffffff1660e01b815260040161037d9190610eb4565b6101e060405180830381865afa15801561039b573d6000803e3d6000fd5b505050506040513d601f19601f820116820180604052508101906103bf9190611878565b8160a001819052508060a001516101000151816040019073ffffffffffffffffffffffffffffffffffffffff16908173ffffffffffffffffffffffffffffffffffffffff1681525050806040015173ffffffffffffffffffffffffffffffffffffffff166370a08231306040518263ffffffff1660e01b81526004016104459190610eb4565b602060405180830381865afa158015610462573d6000803e3d6000fd5b505050506040513d601f19601f8201168201806040525081019061048691906118a6565b816060018181525050806020015173ffffffffffffffffffffffffffffffffffffffff1663617ba037878760008181106104c3576104c2611303565b5b90506060020160000160200160208101906104de9190611531565b888860008181106104f2576104f1611303565b5b905060600201604001353060006040518563ffffffff1660e01b815260040161051e9493929190611927565b600060405180830381600087803b15801561053857600080fd5b505af115801561054c573d6000803e3d6000fd5b50505050806040015173ffffffffffffffffffffffffffffffffffffffff166370a08231306040518263ffffffff1660e01b815260040161058d9190610eb4565b602060405180830381865afa1580156105aa573d6000803e3d6000fd5b505050506040513d601f19601f820116820180604052508101906105ce91906118a6565b8160800181815250508060600151816080015111610621576040517f08c379a0000000000000000000000000000000000000000000000000000000008152600401610618906119b8565b60405180910390fd5b6106978160a001516101000151826060015183608001516106429190611a07565b6106888989600081811061065957610658611303565b5b90506060020180360381019061066f9190611adb565b61067a60018061072c565b61084890919063ffffffff16565b6108949092919063ffffffff16565b60400151915050949350505050565b6107278363095ea7b360e01b84846040516024016106c5929190611b08565b604051602081830303815290604052907bffffffffffffffffffffffffffffffffffffffffffffffffffffffff19166020820180517bffffffffffffffffffffffffffffffffffffffffffffffffffffffff8381831617835250505050610932565b505050565b610734610c68565b60008367ffffffffffffffff8111156107505761074f611574565b5b60405190808252806020026020018201604052801561078957816020015b610776610c8f565b81526020019060019003908161076e5790505b50905060008367ffffffffffffffff8111156107a8576107a7611574565b5b6040519080825280602002602001820160405280156107e157816020015b6107ce610c8f565b8152602001906001900390816107c65790505b5090506040518060600160405280600081526020016000815260200160405180606001604052808581526020018481526020017ffffffffffffffffffffffffffffffffffffffffffffffffffffffffffffffffe60010b8152508152509250505092915050565b610850610c68565b8183604001516000015184600001805180919061086c90611b31565b815250815181106108805761087f611303565b5b602002602001018190525082905092915050565b61089c610c68565b60405180604001604052806040518060400160405280600160028111156108c6576108c561104b565b5b81526020018673ffffffffffffffffffffffffffffffffffffffff1681525081526020018381525084604001516020015185602001805180919061090990611b31565b8152508151811061091d5761091c611303565b5b60200260200101819052508390509392505050565b6000610994826040518060400160405280602081526020017f5361666545524332303a206c6f772d6c6576656c2063616c6c206661696c65648152508573ffffffffffffffffffffffffffffffffffffffff166109f99092919063ffffffff16565b90506000815111156109f457808060200190518101906109b49190611bb1565b6109f3576040517f08c379a00000000000000000000000000000000000000000000000000000000081526004016109ea90611c50565b60405180910390fd5b5b505050565b6060610a088484600085610a11565b90509392505050565b606082471015610a56576040517f08c379a0000000000000000000000000000000000000000000000000000000008152600401610a4d90611ce2565b60405180910390fd5b6000808673ffffffffffffffffffffffffffffffffffffffff168587604051610a7f9190611d73565b60006040518083038185875af1925050503d8060008114610abc576040519150601f19603f3d011682016040523d82523d6000602084013e610ac1565b606091505b5091509150610ad287838387610ade565b92505050949350505050565b60608315610b40576000835103610b3857610af885610b53565b610b37576040517f08c379a0000000000000000000000000000000000000000000000000000000008152600401610b2e90611dd6565b60405180910390fd5b5b829050610b4b565b610b4a8383610b76565b5b949350505050565b6000808273ffffffffffffffffffffffffffffffffffffffff163b119050919050565b600082511115610b895781518083602001fd5b806040517f08c379a0000000000000000000000000000000000000000000000000000000008152600401610bbd9190611e3a565b60405180910390fd5b60405180606001604052806060815260200160608152602001600060010b81525090565b6040518060c00160405280600073ffffffffffffffffffffffffffffffffffffffff168152602001600073ffffffffffffffffffffffffffffffffffffffff168152602001600073ffffffffffffffffffffffffffffffffffffffff1681526020016000815260200160008152602001610c62610caf565b81525090565b60405180606001604052806000815260200160008152602001610c89610bc6565b81525090565b6040518060400160405280610ca2610e1e565b8152602001600081525090565b604051806101e00160405280610cc3610e60565b815260200160006fffffffffffffffffffffffffffffffff16815260200160006fffffffffffffffffffffffffffffffff16815260200160006fffffffffffffffffffffffffffffffff16815260200160006fffffffffffffffffffffffffffffffff16815260200160006fffffffffffffffffffffffffffffffff168152602001600064ffffffffff168152602001600061ffff168152602001600073ffffffffffffffffffffffffffffffffffffffff168152602001600073ffffffffffffffffffffffffffffffffffffffff168152602001600073ffffffffffffffffffffffffffffffffffffffff168152602001600073ffffffffffffffffffffffffffffffffffffffff16815260200160006fffffffffffffffffffffffffffffffff16815260200160006fffffffffffffffffffffffffffffffff16815260200160006fffffffffffffffffffffffffffffffff1681525090565b604051806040016040528060006002811115610e3d57610e3c61104b565b5b8152602001600073ffffffffffffffffffffffffffffffffffffffff1681525090565b6040518060200160405280600081525090565b600073ffffffffffffffffffffffffffffffffffffffff82169050919050565b6000610e9e82610e73565b9050919050565b610eae81610e93565b82525050565b6000602082019050610ec96000830184610ea5565b92915050565b6000604051905090565b600080fd5b600080fd5b600080fd5b600080fd5b600080fd5b60008083601f840112610f0857610f07610ee3565b5b8235905067ffffffffffffffff811115610f2557610f24610ee8565b5b602083019150836060820283011115610f4157610f40610eed565b5b9250929050565b60008083601f840112610f5e57610f5d610ee3565b5b8235905067ffffffffffffffff811115610f7b57610f7a610ee8565b5b602083019150836001820283011115610f9757610f96610eed565b5b9250929050565b60008060008060408587031215610fb857610fb7610ed9565b5b600085013567ffffffffffffffff811115610fd657610fd5610ede565b5b610fe287828801610ef2565b9450945050602085013567ffffffffffffffff81111561100557611004610ede565b5b61101187828801610f48565b925092505092959194509250565b600081519050919050565b600082825260208201905092915050565b6000819050602082019050919050565b7f4e487b7100000000000000000000000000000000000000000000000000000000600052602160045260246000fd5b6003811061108b5761108a61104b565b5b50565b600081905061109c8261107a565b919050565b60006110ac8261108e565b9050919050565b6110bc816110a1565b82525050565b6110cb81610e93565b82525050565b6040820160008201516110e760008501826110b3565b5060208201516110fa60208501826110c2565b50505050565b6000819050919050565b61111381611100565b82525050565b60608201600082015161112f60008501826110d1565b506020820151611142604085018261110a565b50505050565b60006111548383611119565b60608301905092915050565b6000602082019050919050565b60006111788261101f565b611182818561102a565b935061118d8361103b565b8060005b838110156111be5781516111a58882611148565b97506111b083611160565b925050600181019050611191565b5085935050505092915050565b60008160010b9050919050565b6111e1816111cb565b82525050565b60006060830160008301518482036000860152611204828261116d565b9150506020830151848203602086015261121e828261116d565b915050604083015161123360408601826111d8565b508091505092915050565b6000602082019050818103600083015261125881846111e7565b905092915050565b600082825260208201905092915050565b7f7468657265206d7573742062652065786163746c79203120696e70757420617360008201527f7365740000000000000000000000000000000000000000000000000000000000602082015250565b60006112cd602383611260565b91506112d882611271565b604082019050919050565b600060208201905081810360008301526112fc816112c0565b9050919050565b7f4e487b7100000000000000000000000000000000000000000000000000000000600052603260045260246000fd5b6003811061133f57600080fd5b50565b60008135905061135181611332565b92915050565b60006020828403121561136d5761136c610ed9565b5b600061137b84828501611342565b91505092915050565b7f74686520696e707574206173736574206d75737420626520616e204552433230600082015250565b60006113ba602083611260565b91506113c582611384565b602082019050919050565b600060208201905081810360008301526113e9816113ad565b9050919050565b600082905092915050565b600061140a6020840184611342565b905092915050565b61141b81610e93565b811461142657600080fd5b50565b60008135905061143881611412565b92915050565b600061144d6020840184611429565b905092915050565b6040820161146660008301836113fb565b61147360008501826110b3565b50611481602083018361143e565b61148e60208501826110c2565b50505050565b61149d81611100565b81146114a857600080fd5b50565b6000813590506114ba81611494565b92915050565b60006114cf60208401846114ab565b905092915050565b606082016114e860008301836113f0565b6114f56000850182611455565b5061150360408301836114c0565b611510604085018261110a565b50505050565b600060608201905061152b60008301846114d7565b92915050565b60006020828403121561154757611546610ed9565b5b600061155584828501611429565b91505092915050565b600080fd5b6000601f19601f8301169050919050565b7f4e487b7100000000000000000000000000000000000000000000000000000000600052604160045260246000fd5b6115ac82611563565b810181811067ffffffffffffffff821117156115cb576115ca611574565b5b80604052505050565b60006115de610ecf565b90506115ea82826115a3565b919050565b6000815190506115fe81611494565b92915050565b60006020828403121561161a5761161961155e565b5b61162460206115d4565b90506000611634848285016115ef565b60008301525092915050565b60006fffffffffffffffffffffffffffffffff82169050919050565b61166581611640565b811461167057600080fd5b50565b6000815190506116828161165c565b92915050565b600064ffffffffff82169050919050565b6116a281611688565b81146116ad57600080fd5b50565b6000815190506116bf81611699565b92915050565b600061ffff82169050919050565b6116dc816116c5565b81146116e757600080fd5b50565b6000815190506116f9816116d3565b92915050565b60008151905061170e81611412565b92915050565b60006101e0828403121561172b5761172a61155e565b5b6117366101e06115d4565b9050600061174684828501611604565b600083015250602061175a84828501611673565b602083015250604061176e84828501611673565b604083015250606061178284828501611673565b606083015250608061179684828501611673565b60808301525060a06117aa84828501611673565b60a08301525060c06117be848285016116b0565b60c08301525060e06117d2848285016116ea565b60e0830152506101006117e7848285016116ff565b610100830152506101206117fd848285016116ff565b61012083015250610140611813848285016116ff565b61014083015250610160611829848285016116ff565b6101608301525061018061183f84828501611673565b610180830152506101a061185584828501611673565b6101a0830152506101c061186b84828501611673565b6101c08301525092915050565b60006101e0828403121561188f5761188e610ed9565b5b600061189d84828501611714565b91505092915050565b6000602082840312156118bc576118bb610ed9565b5b60006118ca848285016115ef565b91505092915050565b6118dc81611100565b82525050565b6000819050919050565b6000819050919050565b600061191161190c611907846118e2565b6118ec565b6116c5565b9050919050565b611921816118f6565b82525050565b600060808201905061193c6000830187610ea5565b61194960208301866118d3565b6119566040830185610ea5565b6119636060830184611918565b95945050505050565b7f61546f6b656e2062616c616e636520646964206e6f7420696e63726561736500600082015250565b60006119a2601f83611260565b91506119ad8261196c565b602082019050919050565b600060208201905081810360008301526119d181611995565b9050919050565b7f4e487b7100000000000000000000000000000000000000000000000000000000600052601160045260246000fd5b6000611a1282611100565b9150611a1d83611100565b9250828203905081811115611a3557611a346119d8565b5b92915050565b600060408284031215611a5157611a5061155e565b5b611a5b60406115d4565b90506000611a6b84828501611342565b6000830152506020611a7f84828501611429565b60208301525092915050565b600060608284031215611aa157611aa061155e565b5b611aab60406115d4565b90506000611abb84828501611a3b565b6000830152506040611acf848285016114ab565b60208301525092915050565b600060608284031215611af157611af0610ed9565b5b6000611aff84828501611a8b565b91505092915050565b6000604082019050611b1d6000830185610ea5565b611b2a60208301846118d3565b9392505050565b6000611b3c82611100565b91507fffffffffffffffffffffffffffffffffffffffffffffffffffffffffffffffff8203611b6e57611b6d6119d8565b5b600182019050919050565b60008115159050919050565b611b8e81611b79565b8114611b9957600080fd5b50565b600081519050611bab81611b85565b92915050565b600060208284031215611bc757611bc6610ed9565b5b6000611bd584828501611b9c565b91505092915050565b7f5361666545524332303a204552433230206f7065726174696f6e20646964206e60008201527f6f74207375636365656400000000000000000000000000000000000000000000602082015250565b6000611c3a602a83611260565b9150611c4582611bde565b604082019050919050565b60006020820190508181036000830152611c6981611c2d565b9050919050565b7f416464726573733a20696e73756666696369656e742062616c616e636520666f60008201527f722063616c6c0000000000000000000000000000000000000000000000000000602082015250565b6000611ccc602683611260565b9150611cd782611c70565b604082019050919050565b60006020820190508181036000830152611cfb81611cbf565b9050919050565b600081519050919050565b600081905092915050565b60005b83811015611d36578082015181840152602081019050611d1b565b60008484015250505050565b6000611d4d82611d02565b611d578185611d0d565b9350611d67818560208601611d18565b80840191505092915050565b6000611d7f8284611d42565b915081905092915050565b7f416464726573733a2063616c6c20746f206e6f6e2d636f6e7472616374000000600082015250565b6000611dc0601d83611260565b9150611dcb82611d8a565b602082019050919050565b60006020820190508181036000830152611def81611db3565b9050919050565b600081519050919050565b6000611e0c82611df6565b611e168185611260565b9350611e26818560208601611d18565b611e2f81611563565b840191505092915050565b60006020820190508181036000830152611e548184611e01565b90509291505056fea2646970667358221220135b71efb548d6553866e527b1dd17888ee6a976fa01d2fbc63f772b3fece25764736f6c63430008120033",
  "devdoc": {
    "events": {
      "AaveSupplyActionEvent(((uint8,address),uint256))": {
        "params": {
          "inputAssetAmount": "the asset and amout being supplied to Aave."
        }
      }
    },
    "kind": "dev",
    "methods": {},
    "version": 1
  },
  "userdoc": {
    "events": {
      "AaveSupplyActionEvent(((uint8,address),uint256))": {
        "notice": "This event is emitted when an Aave 'supply' action is executed."
      }
    },
    "kind": "user",
    "methods": {},
    "version": 1
  },
  "storageLayout": {
    "storage": [],
    "types": null
  }
}