{
  "address": "0x95a771b576e76D921C66D96f6eb4FC47eC2Cd051",
  "abi": [
    {
      "inputs": [
        {
          "internalType": "address",
          "name": "_aavePoolAddress",
          "type": "address"
        }
      ],
      "stateMutability": "nonpayable",
      "type": "constructor"
    },
    {
      "anonymous": false,
      "inputs": [
        {
          "components": [
            {
              "components": [
                {
                  "internalType": "enum AssetType",
                  "name": "assetType",
                  "type": "uint8"
                },
                {
                  "internalType": "address",
                  "name": "assetAddress",
                  "type": "address"
                }
              ],
              "internalType": "struct Asset",
              "name": "asset",
              "type": "tuple"
            },
            {
              "internalType": "uint256",
              "name": "amount",
              "type": "uint256"
            }
          ],
          "indexed": false,
          "internalType": "struct AssetAmount",
          "name": "inputAssetAmount",
          "type": "tuple"
        }
      ],
      "name": "AaveSupplyActionEvent",
      "type": "event"
    },
    {
      "inputs": [
        {
          "components": [
            {
              "components": [
                {
                  "internalType": "enum AssetType",
                  "name": "assetType",
                  "type": "uint8"
                },
                {
                  "internalType": "address",
                  "name": "assetAddress",
                  "type": "address"
                }
              ],
              "internalType": "struct Asset",
              "name": "asset",
              "type": "tuple"
            },
            {
              "internalType": "uint256",
              "name": "amount",
              "type": "uint256"
            }
          ],
          "internalType": "struct AssetAmount[]",
          "name": "inputAssetAmounts",
          "type": "tuple[]"
        },
        {
          "components": [
            {
              "internalType": "enum AssetType",
              "name": "assetType",
              "type": "uint8"
            },
            {
              "internalType": "address",
              "name": "assetAddress",
              "type": "address"
            }
          ],
          "internalType": "struct Asset[]",
          "name": "",
          "type": "tuple[]"
        },
        {
          "internalType": "bytes",
          "name": "",
          "type": "bytes"
        }
      ],
      "name": "execute",
      "outputs": [
        {
          "components": [
            {
              "components": [
                {
                  "components": [
                    {
                      "internalType": "enum AssetType",
                      "name": "assetType",
                      "type": "uint8"
                    },
                    {
                      "internalType": "address",
                      "name": "assetAddress",
                      "type": "address"
                    }
                  ],
                  "internalType": "struct Asset",
                  "name": "asset",
                  "type": "tuple"
                },
                {
                  "internalType": "uint256",
                  "name": "amount",
                  "type": "uint256"
                }
              ],
              "internalType": "struct AssetAmount[]",
              "name": "outputAssetAmounts",
              "type": "tuple[]"
            },
            {
              "internalType": "int16",
              "name": "nextStepIndex",
              "type": "int16"
            }
          ],
          "internalType": "struct WorkflowStepResult",
          "name": "",
          "type": "tuple"
        }
      ],
      "stateMutability": "payable",
      "type": "function"
    },
    {
      "inputs": [],
      "name": "poolAddress",
      "outputs": [
        {
          "internalType": "address",
          "name": "",
          "type": "address"
        }
      ],
      "stateMutability": "view",
      "type": "function"
    }
  ],
  "transactionHash": "0xedd518c87e2831c6532f0e3e0c6e2da3e347dd35e54465ce97b44fd5d4d8d81d",
  "args": [
    "0xC81e66bBE8B45FBDAE11e4E71CBE76a121e5b8Ba"
  ],
  "numDeployments": 1,
  "solcInputHash": "271ac2a339904fbc77866af596dbe7a5",
  "bytecode": "0x60a06040523480156200001157600080fd5b5060405162001c8038038062001c808339818101604052810190620000379190620000dc565b8073ffffffffffffffffffffffffffffffffffffffff1660808173ffffffffffffffffffffffffffffffffffffffff1681525050506200010e565b600080fd5b600073ffffffffffffffffffffffffffffffffffffffff82169050919050565b6000620000a48262000077565b9050919050565b620000b68162000097565b8114620000c257600080fd5b50565b600081519050620000d681620000ab565b92915050565b600060208284031215620000f557620000f462000072565b5b60006200010584828501620000c5565b91505092915050565b608051611b496200013760003960008181608b01528181610218015261027f0152611b496000f3fe6080604052600436106100295760003560e01c80631755ff211461002e5780632b53501314610059575b600080fd5b34801561003a57600080fd5b50610043610089565b6040516100509190610b56565b60405180910390f35b610073600480360381019061006e9190610c96565b6100ad565b6040516100809190610f4f565b60405180910390f35b7f000000000000000000000000000000000000000000000000000000000000000081565b6100b5610a96565b600187879050146100fb576040517f08c379a00000000000000000000000000000000000000000000000000000000081526004016100f290610ff4565b60405180910390fd5b6001600281111561010f5761010e610d76565b5b8787600081811061012357610122611014565b5b905060600201600001600001602081019061013e9190611068565b60028111156101505761014f610d76565b5b14610190576040517f08c379a0000000000000000000000000000000000000000000000000000000008152600401610187906110e1565b60405180910390fd5b7f46fe748530bbf7d655d836d8ce67684c4e9122a23e9d988ca820b9d8e50958b9878760008181106101c5576101c4611014565b5b9050606002016040516101d89190611227565b60405180910390a16000878760008181106101f6576101f5611014565b5b90506060020160000160200160208101906102119190611242565b905061027b7f00000000000000000000000000000000000000000000000000000000000000008989600081811061024b5761024a611014565b5b905060600201604001358373ffffffffffffffffffffffffffffffffffffffff1661057e9092919063ffffffff16565b60007f0000000000000000000000000000000000000000000000000000000000000000905060008173ffffffffffffffffffffffffffffffffffffffff166335ea6a758b8b60008181106102d2576102d1611014565b5b90506060020160000160200160208101906102ed9190611242565b6040518263ffffffff1660e01b81526004016103099190610b56565b6101e060405180830381865afa158015610327573d6000803e3d6000fd5b505050506040513d601f19601f8201168201806040525081019061034b9190611589565b90506000816101000151905060008173ffffffffffffffffffffffffffffffffffffffff166370a08231306040518263ffffffff1660e01b81526004016103929190610b56565b602060405180830381865afa1580156103af573d6000803e3d6000fd5b505050506040513d601f19601f820116820180604052508101906103d391906115b7565b90508373ffffffffffffffffffffffffffffffffffffffff1663617ba0378d8d600081811061040557610404611014565b5b90506060020160000160200160208101906104209190611242565b8e8e600081811061043457610433611014565b5b905060600201604001353060006040518563ffffffff1660e01b81526004016104609493929190611638565b600060405180830381600087803b15801561047a57600080fd5b505af115801561048e573d6000803e3d6000fd5b5050505060008273ffffffffffffffffffffffffffffffffffffffff166370a08231306040518263ffffffff1660e01b81526004016104cd9190610b56565b602060405180830381865afa1580156104ea573d6000803e3d6000fd5b505050506040513d601f19601f8201168201806040525081019061050e91906115b7565b9050818111610552576040517f08c379a0000000000000000000000000000000000000000000000000000000008152600401610549906116c9565b60405180910390fd5b61056c84610100015183836105679190611718565b6106cd565b96505050505050509695505050505050565b6000811480610608575060008373ffffffffffffffffffffffffffffffffffffffff1663dd62ed3e30856040518363ffffffff1660e01b81526004016105c592919061174c565b602060405180830381865afa1580156105e2573d6000803e3d6000fd5b505050506040513d601f19601f8201168201806040525081019061060691906115b7565b145b610647576040517f08c379a000000000000000000000000000000000000000000000000000000000815260040161063e906117e7565b60405180910390fd5b6106c88363095ea7b360e01b8484604051602401610666929190611807565b604051602081830303815290604052907bffffffffffffffffffffffffffffffffffffffffffffffffffffffff19166020820180517bffffffffffffffffffffffffffffffffffffffffffffffffffffffff83818316178352505050506106e9565b505050565b6106d5610a96565b6106e1600184846107b0565b905092915050565b600061074b826040518060400160405280602081526020017f5361666545524332303a206c6f772d6c6576656c2063616c6c206661696c65648152508573ffffffffffffffffffffffffffffffffffffffff166108c99092919063ffffffff16565b90506000815111156107ab578080602001905181019061076b9190611868565b6107aa576040517f08c379a00000000000000000000000000000000000000000000000000000000081526004016107a190611907565b60405180910390fd5b5b505050565b6107b8610a96565b600060405180604001604052808660028111156107d8576107d7610d76565b5b81526020018573ffffffffffffffffffffffffffffffffffffffff1681525090506000600167ffffffffffffffff81111561081657610815611285565b5b60405190808252806020026020018201604052801561084f57816020015b61083c610ab3565b8152602001906001900390816108345790505b5090506040518060400160405280838152602001858152508160008151811061087b5761087a611014565b5b602002602001018190525060405180604001604052808281526020017fffffffffffffffffffffffffffffffffffffffffffffffffffffffffffffffff60010b815250925050509392505050565b60606108d884846000856108e1565b90509392505050565b606082471015610926576040517f08c379a000000000000000000000000000000000000000000000000000000000815260040161091d90611999565b60405180910390fd5b6000808673ffffffffffffffffffffffffffffffffffffffff16858760405161094f9190611a2a565b60006040518083038185875af1925050503d806000811461098c576040519150601f19603f3d011682016040523d82523d6000602084013e610991565b606091505b50915091506109a2878383876109ae565b92505050949350505050565b60608315610a10576000835103610a08576109c885610a23565b610a07576040517f08c379a00000000000000000000000000000000000000000000000000000000081526004016109fe90611a8d565b60405180910390fd5b5b829050610a1b565b610a1a8383610a46565b5b949350505050565b6000808273ffffffffffffffffffffffffffffffffffffffff163b119050919050565b600082511115610a595781518083602001fd5b806040517f08c379a0000000000000000000000000000000000000000000000000000000008152600401610a8d9190611af1565b60405180910390fd5b604051806040016040528060608152602001600060010b81525090565b6040518060400160405280610ac6610ad3565b8152602001600081525090565b604051806040016040528060006002811115610af257610af1610d76565b5b8152602001600073ffffffffffffffffffffffffffffffffffffffff1681525090565b600073ffffffffffffffffffffffffffffffffffffffff82169050919050565b6000610b4082610b15565b9050919050565b610b5081610b35565b82525050565b6000602082019050610b6b6000830184610b47565b92915050565b6000604051905090565b600080fd5b600080fd5b600080fd5b600080fd5b600080fd5b60008083601f840112610baa57610ba9610b85565b5b8235905067ffffffffffffffff811115610bc757610bc6610b8a565b5b602083019150836060820283011115610be357610be2610b8f565b5b9250929050565b60008083601f840112610c0057610bff610b85565b5b8235905067ffffffffffffffff811115610c1d57610c1c610b8a565b5b602083019150836040820283011115610c3957610c38610b8f565b5b9250929050565b60008083601f840112610c5657610c55610b85565b5b8235905067ffffffffffffffff811115610c7357610c72610b8a565b5b602083019150836001820283011115610c8f57610c8e610b8f565b5b9250929050565b60008060008060008060608789031215610cb357610cb2610b7b565b5b600087013567ffffffffffffffff811115610cd157610cd0610b80565b5b610cdd89828a01610b94565b9650965050602087013567ffffffffffffffff811115610d0057610cff610b80565b5b610d0c89828a01610bea565b9450945050604087013567ffffffffffffffff811115610d2f57610d2e610b80565b5b610d3b89828a01610c40565b92509250509295509295509295565b600081519050919050565b600082825260208201905092915050565b6000819050602082019050919050565b7f4e487b7100000000000000000000000000000000000000000000000000000000600052602160045260246000fd5b60038110610db657610db5610d76565b5b50565b6000819050610dc782610da5565b919050565b6000610dd782610db9565b9050919050565b610de781610dcc565b82525050565b610df681610b35565b82525050565b604082016000820151610e126000850182610dde565b506020820151610e256020850182610ded565b50505050565b6000819050919050565b610e3e81610e2b565b82525050565b606082016000820151610e5a6000850182610dfc565b506020820151610e6d6040850182610e35565b50505050565b6000610e7f8383610e44565b60608301905092915050565b6000602082019050919050565b6000610ea382610d4a565b610ead8185610d55565b9350610eb883610d66565b8060005b83811015610ee9578151610ed08882610e73565b9750610edb83610e8b565b925050600181019050610ebc565b5085935050505092915050565b60008160010b9050919050565b610f0c81610ef6565b82525050565b60006040830160008301518482036000860152610f2f8282610e98565b9150506020830151610f446020860182610f03565b508091505092915050565b60006020820190508181036000830152610f698184610f12565b905092915050565b600082825260208201905092915050565b7f7468657265206d7573742062652065786163746c79203120696e70757420617360008201527f7365740000000000000000000000000000000000000000000000000000000000602082015250565b6000610fde602383610f71565b9150610fe982610f82565b604082019050919050565b6000602082019050818103600083015261100d81610fd1565b9050919050565b7f4e487b7100000000000000000000000000000000000000000000000000000000600052603260045260246000fd5b6003811061105057600080fd5b50565b60008135905061106281611043565b92915050565b60006020828403121561107e5761107d610b7b565b5b600061108c84828501611053565b91505092915050565b7f74686520696e707574206173736574206d75737420626520616e204552433230600082015250565b60006110cb602083610f71565b91506110d682611095565b602082019050919050565b600060208201905081810360008301526110fa816110be565b9050919050565b600082905092915050565b600061111b6020840184611053565b905092915050565b61112c81610b35565b811461113757600080fd5b50565b60008135905061114981611123565b92915050565b600061115e602084018461113a565b905092915050565b60408201611177600083018361110c565b6111846000850182610dde565b50611192602083018361114f565b61119f6020850182610ded565b50505050565b6111ae81610e2b565b81146111b957600080fd5b50565b6000813590506111cb816111a5565b92915050565b60006111e060208401846111bc565b905092915050565b606082016111f96000830183611101565b6112066000850182611166565b5061121460408301836111d1565b6112216040850182610e35565b50505050565b600060608201905061123c60008301846111e8565b92915050565b60006020828403121561125857611257610b7b565b5b60006112668482850161113a565b91505092915050565b600080fd5b6000601f19601f8301169050919050565b7f4e487b7100000000000000000000000000000000000000000000000000000000600052604160045260246000fd5b6112bd82611274565b810181811067ffffffffffffffff821117156112dc576112db611285565b5b80604052505050565b60006112ef610b71565b90506112fb82826112b4565b919050565b60008151905061130f816111a5565b92915050565b60006020828403121561132b5761132a61126f565b5b61133560206112e5565b9050600061134584828501611300565b60008301525092915050565b60006fffffffffffffffffffffffffffffffff82169050919050565b61137681611351565b811461138157600080fd5b50565b6000815190506113938161136d565b92915050565b600064ffffffffff82169050919050565b6113b381611399565b81146113be57600080fd5b50565b6000815190506113d0816113aa565b92915050565b600061ffff82169050919050565b6113ed816113d6565b81146113f857600080fd5b50565b60008151905061140a816113e4565b92915050565b60008151905061141f81611123565b92915050565b60006101e0828403121561143c5761143b61126f565b5b6114476101e06112e5565b9050600061145784828501611315565b600083015250602061146b84828501611384565b602083015250604061147f84828501611384565b604083015250606061149384828501611384565b60608301525060806114a784828501611384565b60808301525060a06114bb84828501611384565b60a08301525060c06114cf848285016113c1565b60c08301525060e06114e3848285016113fb565b60e0830152506101006114f884828501611410565b6101008301525061012061150e84828501611410565b6101208301525061014061152484828501611410565b6101408301525061016061153a84828501611410565b6101608301525061018061155084828501611384565b610180830152506101a061156684828501611384565b6101a0830152506101c061157c84828501611384565b6101c08301525092915050565b60006101e082840312156115a05761159f610b7b565b5b60006115ae84828501611425565b91505092915050565b6000602082840312156115cd576115cc610b7b565b5b60006115db84828501611300565b91505092915050565b6115ed81610e2b565b82525050565b6000819050919050565b6000819050919050565b600061162261161d611618846115f3565b6115fd565b6113d6565b9050919050565b61163281611607565b82525050565b600060808201905061164d6000830187610b47565b61165a60208301866115e4565b6116676040830185610b47565b6116746060830184611629565b95945050505050565b7f61546f6b656e2062616c616e636520646964206e6f7420696e63726561736500600082015250565b60006116b3601f83610f71565b91506116be8261167d565b602082019050919050565b600060208201905081810360008301526116e2816116a6565b9050919050565b7f4e487b7100000000000000000000000000000000000000000000000000000000600052601160045260246000fd5b600061172382610e2b565b915061172e83610e2b565b9250828203905081811115611746576117456116e9565b5b92915050565b60006040820190506117616000830185610b47565b61176e6020830184610b47565b9392505050565b7f5361666545524332303a20617070726f76652066726f6d206e6f6e2d7a65726f60008201527f20746f206e6f6e2d7a65726f20616c6c6f77616e636500000000000000000000602082015250565b60006117d1603683610f71565b91506117dc82611775565b604082019050919050565b60006020820190508181036000830152611800816117c4565b9050919050565b600060408201905061181c6000830185610b47565b61182960208301846115e4565b9392505050565b60008115159050919050565b61184581611830565b811461185057600080fd5b50565b6000815190506118628161183c565b92915050565b60006020828403121561187e5761187d610b7b565b5b600061188c84828501611853565b91505092915050565b7f5361666545524332303a204552433230206f7065726174696f6e20646964206e60008201527f6f74207375636365656400000000000000000000000000000000000000000000602082015250565b60006118f1602a83610f71565b91506118fc82611895565b604082019050919050565b60006020820190508181036000830152611920816118e4565b9050919050565b7f416464726573733a20696e73756666696369656e742062616c616e636520666f60008201527f722063616c6c0000000000000000000000000000000000000000000000000000602082015250565b6000611983602683610f71565b915061198e82611927565b604082019050919050565b600060208201905081810360008301526119b281611976565b9050919050565b600081519050919050565b600081905092915050565b60005b838110156119ed5780820151818401526020810190506119d2565b60008484015250505050565b6000611a04826119b9565b611a0e81856119c4565b9350611a1e8185602086016119cf565b80840191505092915050565b6000611a3682846119f9565b915081905092915050565b7f416464726573733a2063616c6c20746f206e6f6e2d636f6e7472616374000000600082015250565b6000611a77601d83610f71565b9150611a8282611a41565b602082019050919050565b60006020820190508181036000830152611aa681611a6a565b9050919050565b600081519050919050565b6000611ac382611aad565b611acd8185610f71565b9350611add8185602086016119cf565b611ae681611274565b840191505092915050565b60006020820190508181036000830152611b0b8184611ab8565b90509291505056fea2646970667358221220070020dde88f461f071ddee2929a0da20f14cbf11fb4b54d2b3fc083ec2483b864736f6c63430008120033",
  "devdoc": {
    "events": {
      "AaveSupplyActionEvent(((uint8,address),uint256))": {
        "params": {
          "inputAssetAmount": "the asset and amout being supplied to Aave."
        }
      }
    },
    "kind": "dev",
    "methods": {},
    "version": 1
  },
  "userdoc": {
    "events": {
      "AaveSupplyActionEvent(((uint8,address),uint256))": {
        "notice": "This event is emitted when an Aave 'supply' action is executed."
      }
    },
    "kind": "user",
    "methods": {},
    "version": 1
  },
  "storageLayout": {
    "storage": [],
    "types": null
  }
}