{
  "address": "0x00a39F9aBD4Baae6759F10c4715C327fC25b90B6",
  "abi": [
    {
      "inputs": [
        {
          "internalType": "address",
          "name": "_frontDoorAddress",
          "type": "address"
        },
        {
          "internalType": "address",
          "name": "_stargateRouterAddress",
          "type": "address"
        }
      ],
      "stateMutability": "nonpayable",
      "type": "constructor"
    },
    {
      "anonymous": false,
      "inputs": [
        {
          "indexed": false,
          "internalType": "address",
          "name": "tokenAddress",
          "type": "address"
        },
        {
          "indexed": false,
          "internalType": "uint256",
          "name": "amount",
          "type": "uint256"
        },
        {
          "components": [
            {
              "internalType": "address",
              "name": "userAddress",
              "type": "address"
            },
            {
              "internalType": "uint256",
              "name": "nonce",
              "type": "uint256"
            },
            {
              "components": [
                {
                  "components": [
                    {
                      "internalType": "uint16",
                      "name": "stepTypeId",
                      "type": "uint16"
                    },
                    {
                      "internalType": "address",
                      "name": "stepAddress",
                      "type": "address"
                    },
                    {
                      "components": [
                        {
                          "components": [
                            {
                              "internalType": "enum AssetType",
                              "name": "assetType",
                              "type": "uint8"
                            },
                            {
                              "internalType": "address",
                              "name": "assetAddress",
                              "type": "address"
                            }
                          ],
                          "internalType": "struct Asset",
                          "name": "asset",
                          "type": "tuple"
                        },
                        {
                          "internalType": "uint256",
                          "name": "amount",
                          "type": "uint256"
                        },
                        {
                          "internalType": "bool",
                          "name": "amountIsPercent",
                          "type": "bool"
                        }
                      ],
                      "internalType": "struct WorkflowStepInputAsset[]",
                      "name": "inputAssets",
                      "type": "tuple[]"
                    },
                    {
                      "internalType": "bytes",
                      "name": "argData",
                      "type": "bytes"
                    },
                    {
                      "internalType": "int16",
                      "name": "nextStepIndex",
                      "type": "int16"
                    }
                  ],
                  "internalType": "struct WorkflowStep[]",
                  "name": "steps",
                  "type": "tuple[]"
                }
              ],
              "internalType": "struct Workflow",
              "name": "workflow",
              "type": "tuple"
            }
          ],
          "indexed": false,
          "internalType": "struct BridgePayload",
          "name": "bridgePayload",
          "type": "tuple"
        }
      ],
      "name": "SgReceiveCalled",
      "type": "event"
    },
    {
      "anonymous": false,
      "inputs": [
        {
          "indexed": false,
          "internalType": "uint256",
          "name": "nativeAmount",
          "type": "uint256"
        },
        {
          "indexed": false,
          "internalType": "uint256",
          "name": "assetAmount",
          "type": "uint256"
        },
        {
          "indexed": false,
          "internalType": "address",
          "name": "dstActionAddress",
          "type": "address"
        },
        {
          "indexed": false,
          "internalType": "uint16",
          "name": "dstChainId",
          "type": "uint16"
        },
        {
          "indexed": false,
          "internalType": "uint256",
          "name": "srcPoolId",
          "type": "uint256"
        },
        {
          "indexed": false,
          "internalType": "uint256",
          "name": "dstPoolId",
          "type": "uint256"
        },
        {
          "indexed": false,
          "internalType": "uint256",
          "name": "dstGasForCall",
          "type": "uint256"
        },
        {
          "indexed": false,
          "internalType": "uint256",
          "name": "dstNativeAmount",
          "type": "uint256"
        },
        {
          "indexed": false,
          "internalType": "uint256",
          "name": "minAmountOut",
          "type": "uint256"
        },
        {
          "indexed": false,
          "internalType": "bytes",
          "name": "continuationWorkflow",
          "type": "bytes"
        }
      ],
      "name": "StargateBridgeParamsEvent",
      "type": "event"
    },
    {
      "anonymous": false,
      "inputs": [
        {
          "indexed": false,
          "internalType": "string",
          "name": "bridgeName",
          "type": "string"
        },
        {
          "indexed": false,
          "internalType": "uint256",
          "name": "targetChainId",
          "type": "uint256"
        },
        {
          "indexed": false,
          "internalType": "uint256",
          "name": "nonce",
          "type": "uint256"
        }
      ],
      "name": "WorkflowBridged",
      "type": "event"
    },
    {
      "inputs": [
        {
          "components": [
            {
              "components": [
                {
                  "internalType": "enum AssetType",
                  "name": "assetType",
                  "type": "uint8"
                },
                {
                  "internalType": "address",
                  "name": "assetAddress",
                  "type": "address"
                }
              ],
              "internalType": "struct Asset",
              "name": "asset",
              "type": "tuple"
            },
            {
              "internalType": "uint256",
              "name": "amount",
              "type": "uint256"
            }
          ],
          "internalType": "struct AssetAmount[]",
          "name": "inputAssetAmounts",
          "type": "tuple[]"
        },
        {
          "internalType": "bytes",
          "name": "argData",
          "type": "bytes"
        }
      ],
      "name": "execute",
      "outputs": [
        {
          "components": [
            {
              "components": [
                {
                  "components": [
                    {
                      "internalType": "enum AssetType",
                      "name": "assetType",
                      "type": "uint8"
                    },
                    {
                      "internalType": "address",
                      "name": "assetAddress",
                      "type": "address"
                    }
                  ],
                  "internalType": "struct Asset",
                  "name": "asset",
                  "type": "tuple"
                },
                {
                  "internalType": "uint256",
                  "name": "amount",
                  "type": "uint256"
                }
              ],
              "internalType": "struct AssetAmount[]",
              "name": "inputAssetAmounts",
              "type": "tuple[]"
            },
            {
              "components": [
                {
                  "components": [
                    {
                      "internalType": "enum AssetType",
                      "name": "assetType",
                      "type": "uint8"
                    },
                    {
                      "internalType": "address",
                      "name": "assetAddress",
                      "type": "address"
                    }
                  ],
                  "internalType": "struct Asset",
                  "name": "asset",
                  "type": "tuple"
                },
                {
                  "internalType": "uint256",
                  "name": "amount",
                  "type": "uint256"
                }
              ],
              "internalType": "struct AssetAmount[]",
              "name": "outputAssetAmounts",
              "type": "tuple[]"
            },
            {
              "internalType": "int16",
              "name": "nextStepIndex",
              "type": "int16"
            }
          ],
          "internalType": "struct WorkflowStepResult",
          "name": "",
          "type": "tuple"
        }
      ],
      "stateMutability": "payable",
      "type": "function"
    },
    {
      "inputs": [],
      "name": "frontDoorAddress",
      "outputs": [
        {
          "internalType": "address",
          "name": "",
          "type": "address"
        }
      ],
      "stateMutability": "view",
      "type": "function"
    },
    {
      "inputs": [
        {
          "internalType": "uint16",
          "name": "",
          "type": "uint16"
        },
        {
          "internalType": "bytes",
          "name": "",
          "type": "bytes"
        },
        {
          "internalType": "uint256",
          "name": "",
          "type": "uint256"
        },
        {
          "internalType": "address",
          "name": "tokenAddress",
          "type": "address"
        },
        {
          "internalType": "uint256",
          "name": "amount",
          "type": "uint256"
        },
        {
          "internalType": "bytes",
          "name": "payload",
          "type": "bytes"
        }
      ],
      "name": "sgReceive",
      "outputs": [],
      "stateMutability": "nonpayable",
      "type": "function"
    },
    {
      "inputs": [],
      "name": "stargateRouterAddress",
      "outputs": [
        {
          "internalType": "address",
          "name": "",
          "type": "address"
        }
      ],
      "stateMutability": "view",
      "type": "function"
    }
  ],
  "transactionHash": "0x714fc4e605db38bbc7b0671fff524369adf2537be5883862c9fb4abbd9652c08",
  "args": [
    "0x2F9B7C80906ac5814Acb9A12Ea4dd38453d38d0a",
    "0x7612aE2a34E5A363E137De748801FB4c86499152"
  ],
  "numDeployments": 1,
  "solcInputHash": "1cbdd3f386b138d9901840a1c7fa9de8",
  "bytecode": "0x60c06040523480156200001157600080fd5b5060405162002f2238038062002f22833981810160405281019062000037919062000111565b8173ffffffffffffffffffffffffffffffffffffffff1660808173ffffffffffffffffffffffffffffffffffffffff16815250508073ffffffffffffffffffffffffffffffffffffffff1660a08173ffffffffffffffffffffffffffffffffffffffff1681525050505062000158565b600080fd5b600073ffffffffffffffffffffffffffffffffffffffff82169050919050565b6000620000d982620000ac565b9050919050565b620000eb81620000cc565b8114620000f757600080fd5b50565b6000815190506200010b81620000e0565b92915050565b600080604083850312156200012b576200012a620000a7565b5b60006200013b85828601620000fa565b92505060206200014e85828601620000fa565b9150509250929050565b60805160a051612d82620001a06000396000818160f50152818161076d015281816109d00152610c0601526000818161011901528181610aba0152610b390152612d826000f3fe60806040526004361061003f5760003560e01c80631d2091bf1461004457806350fd910e1461006f5780637bb26ca71461009a578063ab8236f3146100ca575b600080fd5b34801561005057600080fd5b506100596100f3565b6040516100669190611141565b60405180910390f35b34801561007b57600080fd5b50610084610117565b6040516100919190611141565b60405180910390f35b6100b460048036038101906100af919061122b565b61013b565b6040516100c191906114cb565b60405180910390f35b3480156100d657600080fd5b506100f160048036038101906100ec91906116c0565b6109ce565b005b7f000000000000000000000000000000000000000000000000000000000000000081565b7f000000000000000000000000000000000000000000000000000000000000000081565b610143610fa6565b61014b610fca565b60028686905014610191576040517f08c379a0000000000000000000000000000000000000000000000000000000008152600401610188906117e2565b60405180910390fd5b600060028111156101a5576101a46112d8565b5b868660008181106101b9576101b8611802565b5b90506060020160000160000160208101906101d49190611856565b60028111156101e6576101e56112d8565b5b036102e957600160028111156101ff576101fe6112d8565b5b8686600181811061021357610212611802565b5b905060600201600001600001602081019061022e9190611856565b60028111156102405761023f6112d8565b5b14610280576040517f08c379a0000000000000000000000000000000000000000000000000000000008152600401610277906118cf565b60405180910390fd5b8585600081811061029457610293611802565b5b9050606002018036038101906102aa9190611999565b8160800181905250858560018181106102c6576102c5611802565b5b9050606002018036038101906102dc9190611999565b8160a0018190525061047d565b600060028111156102fd576102fc6112d8565b5b8686600181811061031157610310611802565b5b905060600201600001600001602081019061032c9190611856565b600281111561033e5761033d6112d8565b5b036104415760016002811115610357576103566112d8565b5b8686600081811061036b5761036a611802565b5b90506060020160000160000160208101906103869190611856565b6002811115610398576103976112d8565b5b146103d8576040517f08c379a00000000000000000000000000000000000000000000000000000000081526004016103cf906118cf565b60405180910390fd5b858560018181106103ec576103eb611802565b5b9050606002018036038101906104029190611999565b81608001819052508585600081811061041e5761041d611802565b5b9050606002018036038101906104349190611999565b8160a0018190525061047c565b6040517f08c379a000000000000000000000000000000000000000000000000000000000815260040161047390611a12565b60405180910390fd5b5b60016002811115610491576104906112d8565b5b868660008181106104a5576104a4611802565b5b90506060020160000160000160208101906104c09190611856565b60028111156104d2576104d16112d8565b5b14806105305750600060028111156104ed576104ec6112d8565b5b8686600081811061050157610500611802565b5b905060600201600001600001602081019061051c9190611856565b600281111561052e5761052d6112d8565b5b145b61056f576040517f08c379a000000000000000000000000000000000000000000000000000000000815260040161056690611aa4565b60405180910390fd5b60016002811115610583576105826112d8565b5b8686600081811061059757610596611802565b5b90506060020160000160000160208101906105b29190611856565b60028111156105c4576105c36112d8565b5b0361061f5761061e868660008181106105e0576105df611802565b5b90506060020160000160200160208101906105fb9190611ac4565b8787600081811061060f5761060e611802565b5b90506060020160400135610be3565b5b838381019061062e9190611c51565b816020018190525080602001516000015160405160200161064f9190611ce2565b604051602081830303815290604052816040018190525080602001516101000151156106c257620186a0816020015160e001518787600081811061069657610695611802565b5b905060600201604001356106aa9190611d2c565b6106b49190611d9d565b8160600181815250506106d5565b806020015160e001518160600181815250505b7fc919a44972f2a555d7b70313ba420f3ece86780db879b0e70e766c61ae84ad5c8160800151602001518260a0015160200151836020015160000151846020015160400151856020015160600151866020015160800151876020015160a00151886020015160c0015189606001518a6020015161012001516040516107639a99989796959493929190611e6b565b60405180910390a17f000000000000000000000000000000000000000000000000000000000000000073ffffffffffffffffffffffffffffffffffffffff16639fbf10fc826080015160200151836020015160400151846020015160600151856020015160800151338760a0015160200151886060015160405180606001604052808b6020015160a0015181526020018b6020015160c0015181526020018b602001516020015160405160200161081a9190611ce2565b6040516020818303038152906040528152508a604001518b6020015161012001516040518b63ffffffff1660e01b815260040161085f99989796959493929190611fc9565b6000604051808303818588803b15801561087857600080fd5b505af115801561088c573d6000803e3d6000fd5b50505050507fdf22701bc484d488000c2610394ffd56812c1fe36560a24cd51af6e84288bd08816020015160400151826020015161014001516040516108d39291906120f2565b60405180910390a160405180606001604052808787808060200260200160405190810160405280939291908181526020016000905b82821015610938578484839050606002018036038101906109299190611999565b81526020019060010190610908565b50505050508152602001600067ffffffffffffffff81111561095d5761095c61153d565b5b60405190808252806020026020018201604052801561099657816020015b610983611012565b81526020019060019003908161097b5790505b5081526020017ffffffffffffffffffffffffffffffffffffffffffffffffffffffffffffffffe60010b815250915050949350505050565b7f000000000000000000000000000000000000000000000000000000000000000073ffffffffffffffffffffffffffffffffffffffff163373ffffffffffffffffffffffffffffffffffffffff1614610a5c576040517f08c379a0000000000000000000000000000000000000000000000000000000008152600401610a53906121a0565b60405180910390fd5b600081806020019051810190610a7291906126b9565b90507fe5fefd44a64b2d0c3a50b523f9b1ce614cdc6d245fb16b50eb752bb08c85a354848483604051610aa7939291906129ca565b60405180910390a16000849050610adf817f000000000000000000000000000000000000000000000000000000000000000086610c8c565b60006040518060400160405280604051806040016040528060016002811115610b0b57610b0a6112d8565b5b81526020018973ffffffffffffffffffffffffffffffffffffffff16815250815260200186815250905060007f000000000000000000000000000000000000000000000000000000000000000090508073ffffffffffffffffffffffffffffffffffffffff1663844bb1cc856000015186602001518760400151866040518563ffffffff1660e01b8152600401610ba59493929190612a61565b600060405180830381600087803b158015610bbf57600080fd5b505af1158015610bd3573d6000803e3d6000fd5b5050505050505050505050505050565b60008290508073ffffffffffffffffffffffffffffffffffffffff1663095ea7b37f0000000000000000000000000000000000000000000000000000000000000000846040518363ffffffff1660e01b8152600401610c43929190612aad565b6020604051808303816000875af1158015610c62573d6000803e3d6000fd5b505050506040513d601f19601f82011682018060405250810190610c869190612ad6565b50505050565b610d0d8363a9059cbb60e01b8484604051602401610cab929190612aad565b604051602081830303815290604052907bffffffffffffffffffffffffffffffffffffffffffffffffffffffff19166020820180517bffffffffffffffffffffffffffffffffffffffffffffffffffffffff8381831617835250505050610d12565b505050565b6000610d74826040518060400160405280602081526020017f5361666545524332303a206c6f772d6c6576656c2063616c6c206661696c65648152508573ffffffffffffffffffffffffffffffffffffffff16610dd99092919063ffffffff16565b9050600081511115610dd45780806020019051810190610d949190612ad6565b610dd3576040517f08c379a0000000000000000000000000000000000000000000000000000000008152600401610dca90612b75565b60405180910390fd5b5b505050565b6060610de88484600085610df1565b90509392505050565b606082471015610e36576040517f08c379a0000000000000000000000000000000000000000000000000000000008152600401610e2d90612c07565b60405180910390fd5b6000808673ffffffffffffffffffffffffffffffffffffffff168587604051610e5f9190612c63565b60006040518083038185875af1925050503d8060008114610e9c576040519150601f19603f3d011682016040523d82523d6000602084013e610ea1565b606091505b5091509150610eb287838387610ebe565b92505050949350505050565b60608315610f20576000835103610f1857610ed885610f33565b610f17576040517f08c379a0000000000000000000000000000000000000000000000000000000008152600401610f0e90612cc6565b60405180910390fd5b5b829050610f2b565b610f2a8383610f56565b5b949350505050565b6000808273ffffffffffffffffffffffffffffffffffffffff163b119050919050565b600082511115610f695781518083602001fd5b806040517f08c379a0000000000000000000000000000000000000000000000000000000008152600401610f9d9190612d2a565b60405180910390fd5b60405180606001604052806060815260200160608152602001600060010b81525090565b6040518060c0016040528060008152602001610fe4611032565b81526020016060815260200160008152602001610fff611012565b815260200161100c611012565b81525090565b60405180604001604052806110256110be565b8152602001600081525090565b604051806101600160405280600073ffffffffffffffffffffffffffffffffffffffff168152602001600073ffffffffffffffffffffffffffffffffffffffff168152602001600061ffff168152602001600081526020016000815260200160008152602001600081526020016000815260200160001515815260200160608152602001600081525090565b6040518060400160405280600060028111156110dd576110dc6112d8565b5b8152602001600073ffffffffffffffffffffffffffffffffffffffff1681525090565b600073ffffffffffffffffffffffffffffffffffffffff82169050919050565b600061112b82611100565b9050919050565b61113b81611120565b82525050565b60006020820190506111566000830184611132565b92915050565b6000604051905090565b600080fd5b600080fd5b600080fd5b600080fd5b600080fd5b60008083601f84011261119557611194611170565b5b8235905067ffffffffffffffff8111156111b2576111b1611175565b5b6020830191508360608202830111156111ce576111cd61117a565b5b9250929050565b60008083601f8401126111eb576111ea611170565b5b8235905067ffffffffffffffff81111561120857611207611175565b5b6020830191508360018202830111156112245761122361117a565b5b9250929050565b6000806000806040858703121561124557611244611166565b5b600085013567ffffffffffffffff8111156112635761126261116b565b5b61126f8782880161117f565b9450945050602085013567ffffffffffffffff8111156112925761129161116b565b5b61129e878288016111d5565b925092505092959194509250565b600081519050919050565b600082825260208201905092915050565b6000819050602082019050919050565b7f4e487b7100000000000000000000000000000000000000000000000000000000600052602160045260246000fd5b60038110611318576113176112d8565b5b50565b600081905061132982611307565b919050565b60006113398261131b565b9050919050565b6113498161132e565b82525050565b61135881611120565b82525050565b6040820160008201516113746000850182611340565b506020820151611387602085018261134f565b50505050565b6000819050919050565b6113a08161138d565b82525050565b6060820160008201516113bc600085018261135e565b5060208201516113cf6040850182611397565b50505050565b60006113e183836113a6565b60608301905092915050565b6000602082019050919050565b6000611405826112ac565b61140f81856112b7565b935061141a836112c8565b8060005b8381101561144b57815161143288826113d5565b975061143d836113ed565b92505060018101905061141e565b5085935050505092915050565b60008160010b9050919050565b61146e81611458565b82525050565b6000606083016000830151848203600086015261149182826113fa565b915050602083015184820360208601526114ab82826113fa565b91505060408301516114c06040860182611465565b508091505092915050565b600060208201905081810360008301526114e58184611474565b905092915050565b600061ffff82169050919050565b611504816114ed565b811461150f57600080fd5b50565b600081359050611521816114fb565b92915050565b600080fd5b6000601f19601f8301169050919050565b7f4e487b7100000000000000000000000000000000000000000000000000000000600052604160045260246000fd5b6115758261152c565b810181811067ffffffffffffffff821117156115945761159361153d565b5b80604052505050565b60006115a761115c565b90506115b3828261156c565b919050565b600067ffffffffffffffff8211156115d3576115d261153d565b5b6115dc8261152c565b9050602081019050919050565b82818337600083830152505050565b600061160b611606846115b8565b61159d565b90508281526020810184848401111561162757611626611527565b5b6116328482856115e9565b509392505050565b600082601f83011261164f5761164e611170565b5b813561165f8482602086016115f8565b91505092915050565b6116718161138d565b811461167c57600080fd5b50565b60008135905061168e81611668565b92915050565b61169d81611120565b81146116a857600080fd5b50565b6000813590506116ba81611694565b92915050565b60008060008060008060c087890312156116dd576116dc611166565b5b60006116eb89828a01611512565b965050602087013567ffffffffffffffff81111561170c5761170b61116b565b5b61171889828a0161163a565b955050604061172989828a0161167f565b945050606061173a89828a016116ab565b935050608061174b89828a0161167f565b92505060a087013567ffffffffffffffff81111561176c5761176b61116b565b5b61177889828a0161163a565b9150509295509295509295565b600082825260208201905092915050565b7f7468657265206d757374206265203220696e7075742061737365747300000000600082015250565b60006117cc601c83611785565b91506117d782611796565b602082019050919050565b600060208201905081810360008301526117fb816117bf565b9050919050565b7f4e487b7100000000000000000000000000000000000000000000000000000000600052603260045260246000fd5b6003811061183e57600080fd5b50565b60008135905061185081611831565b92915050565b60006020828403121561186c5761186b611166565b5b600061187a84828501611841565b91505092915050565b7f6f6e6520696e707574206173736574206d75737420626520616e204552433230600082015250565b60006118b9602083611785565b91506118c482611883565b602082019050919050565b600060208201905081810360008301526118e8816118ac565b9050919050565b600080fd5b600080fd5b60006040828403121561190f5761190e6118ef565b5b611919604061159d565b9050600061192984828501611841565b600083015250602061193d848285016116ab565b60208301525092915050565b60006060828403121561195f5761195e6118ef565b5b611969604061159d565b90506000611979848285016118f9565b600083015250604061198d8482850161167f565b60208301525092915050565b6000606082840312156119af576119ae611166565b5b60006119bd84828501611949565b91505092915050565b7f6f6e6520696e707574206173736574206d757374206265206e61746976650000600082015250565b60006119fc601e83611785565b9150611a07826119c6565b602082019050919050565b60006020820190508181036000830152611a2b816119ef565b9050919050565b7f74686520696e707574206173736574206d75737420626520616e20455243323060008201527f206f72204e617469766500000000000000000000000000000000000000000000602082015250565b6000611a8e602a83611785565b9150611a9982611a32565b604082019050919050565b60006020820190508181036000830152611abd81611a81565b9050919050565b600060208284031215611ada57611ad9611166565b5b6000611ae8848285016116ab565b91505092915050565b60008115159050919050565b611b0681611af1565b8114611b1157600080fd5b50565b600081359050611b2381611afd565b92915050565b60006101608284031215611b4057611b3f6118ef565b5b611b4b61016061159d565b90506000611b5b848285016116ab565b6000830152506020611b6f848285016116ab565b6020830152506040611b8384828501611512565b6040830152506060611b978482850161167f565b6060830152506080611bab8482850161167f565b60808301525060a0611bbf8482850161167f565b60a08301525060c0611bd38482850161167f565b60c08301525060e0611be78482850161167f565b60e083015250610100611bfc84828501611b14565b6101008301525061012082013567ffffffffffffffff811115611c2257611c216118f4565b5b611c2e8482850161163a565b61012083015250610140611c448482850161167f565b6101408301525092915050565b600060208284031215611c6757611c66611166565b5b600082013567ffffffffffffffff811115611c8557611c8461116b565b5b611c9184828501611b29565b91505092915050565b60008160601b9050919050565b6000611cb282611c9a565b9050919050565b6000611cc482611ca7565b9050919050565b611cdc611cd782611120565b611cb9565b82525050565b6000611cee8284611ccb565b60148201915081905092915050565b7f4e487b7100000000000000000000000000000000000000000000000000000000600052601160045260246000fd5b6000611d378261138d565b9150611d428361138d565b9250828202611d508161138d565b91508282048414831517611d6757611d66611cfd565b5b5092915050565b7f4e487b7100000000000000000000000000000000000000000000000000000000600052601260045260246000fd5b6000611da88261138d565b9150611db38361138d565b925082611dc357611dc2611d6e565b5b828204905092915050565b611dd78161138d565b82525050565b611de6816114ed565b82525050565b600081519050919050565b600082825260208201905092915050565b60005b83811015611e26578082015181840152602081019050611e0b565b60008484015250505050565b6000611e3d82611dec565b611e478185611df7565b9350611e57818560208601611e08565b611e608161152c565b840191505092915050565b600061014082019050611e81600083018d611dce565b611e8e602083018c611dce565b611e9b604083018b611132565b611ea8606083018a611ddd565b611eb56080830189611dce565b611ec260a0830188611dce565b611ecf60c0830187611dce565b611edc60e0830186611dce565b611eea610100830185611dce565b818103610120830152611efd8184611e32565b90509b9a5050505050505050505050565b6000611f1982611100565b9050919050565b611f2981611f0e565b82525050565b600082825260208201905092915050565b6000611f4b82611dec565b611f558185611f2f565b9350611f65818560208601611e08565b611f6e8161152c565b840191505092915050565b6000606083016000830151611f916000860182611397565b506020830151611fa46020860182611397565b5060408301518482036040860152611fbc8282611f40565b9150508091505092915050565b600061012082019050611fdf600083018c611ddd565b611fec602083018b611dce565b611ff9604083018a611dce565b6120066060830189611f20565b6120136080830188611dce565b61202060a0830187611dce565b81810360c08301526120328186611f79565b905081810360e08301526120468185611e32565b905081810361010083015261205b8184611e32565b90509a9950505050505050505050565b7f5374617267617465000000000000000000000000000000000000000000000000600082015250565b60006120a1600883611785565b91506120ac8261206b565b602082019050919050565b6000819050919050565b60006120dc6120d76120d2846114ed565b6120b7565b61138d565b9050919050565b6120ec816120c1565b82525050565b6000606082019050818103600083015261210b81612094565b905061211a60208301856120e3565b6121276040830184611dce565b9392505050565b7f6f6e6c79205374617267617465206973207065726d697474656420746f20636160008201527f6c6c207367526563656976650000000000000000000000000000000000000000602082015250565b600061218a602c83611785565b91506121958261212e565b604082019050919050565b600060208201905081810360008301526121b98161217d565b9050919050565b6000815190506121cf81611694565b92915050565b6000815190506121e481611668565b92915050565b600067ffffffffffffffff8211156122055761220461153d565b5b602082029050602081019050919050565b600081519050612225816114fb565b92915050565b600067ffffffffffffffff8211156122465761224561153d565b5b602082029050602081019050919050565b60008151905061226681611831565b92915050565b600060408284031215612282576122816118ef565b5b61228c604061159d565b9050600061229c84828501612257565b60008301525060206122b0848285016121c0565b60208301525092915050565b6000815190506122cb81611afd565b92915050565b6000608082840312156122e7576122e66118ef565b5b6122f1606061159d565b905060006123018482850161226c565b6000830152506040612315848285016121d5565b6020830152506060612329848285016122bc565b60408301525092915050565b60006123486123438461222b565b61159d565b9050808382526020820190506080840283018581111561236b5761236a61117a565b5b835b81811015612394578061238088826122d1565b84526020840193505060808101905061236d565b5050509392505050565b600082601f8301126123b3576123b2611170565b5b81516123c3848260208601612335565b91505092915050565b60006123df6123da846115b8565b61159d565b9050828152602081018484840111156123fb576123fa611527565b5b612406848285611e08565b509392505050565b600082601f83011261242357612422611170565b5b81516124338482602086016123cc565b91505092915050565b61244581611458565b811461245057600080fd5b50565b6000815190506124628161243c565b92915050565b600060a0828403121561247e5761247d6118ef565b5b61248860a061159d565b9050600061249884828501612216565b60008301525060206124ac848285016121c0565b602083015250604082015167ffffffffffffffff8111156124d0576124cf6118f4565b5b6124dc8482850161239e565b604083015250606082015167ffffffffffffffff811115612500576124ff6118f4565b5b61250c8482850161240e565b606083015250608061252084828501612453565b60808301525092915050565b600061253f61253a846121ea565b61159d565b905080838252602082019050602084028301858111156125625761256161117a565b5b835b818110156125a957805167ffffffffffffffff81111561258757612586611170565b5b8086016125948982612468565b85526020850194505050602081019050612564565b5050509392505050565b600082601f8301126125c8576125c7611170565b5b81516125d884826020860161252c565b91505092915050565b6000602082840312156125f7576125f66118ef565b5b612601602061159d565b9050600082015167ffffffffffffffff811115612621576126206118f4565b5b61262d848285016125b3565b60008301525092915050565b60006060828403121561264f5761264e6118ef565b5b612659606061159d565b90506000612669848285016121c0565b600083015250602061267d848285016121d5565b602083015250604082015167ffffffffffffffff8111156126a1576126a06118f4565b5b6126ad848285016125e1565b60408301525092915050565b6000602082840312156126cf576126ce611166565b5b600082015167ffffffffffffffff8111156126ed576126ec61116b565b5b6126f984828501612639565b91505092915050565b600081519050919050565b600082825260208201905092915050565b6000819050602082019050919050565b612737816114ed565b82525050565b600081519050919050565b600082825260208201905092915050565b6000819050602082019050919050565b61277281611af1565b82525050565b60808201600082015161278e600085018261135e565b5060208201516127a16040850182611397565b5060408201516127b46060850182612769565b50505050565b60006127c68383612778565b60808301905092915050565b6000602082019050919050565b60006127ea8261273d565b6127f48185612748565b93506127ff83612759565b8060005b8381101561283057815161281788826127ba565b9750612822836127d2565b925050600181019050612803565b5085935050505092915050565b600060a083016000830151612855600086018261272e565b506020830151612868602086018261134f565b506040830151848203604086015261288082826127df565b9150506060830151848203606086015261289a8282611f40565b91505060808301516128af6080860182611465565b508091505092915050565b60006128c6838361283d565b905092915050565b6000602082019050919050565b60006128e682612702565b6128f0818561270d565b9350836020820285016129028561271e565b8060005b8581101561293e578484038952815161291f85826128ba565b945061292a836128ce565b925060208a01995050600181019050612906565b50829750879550505050505092915050565b6000602083016000830151848203600086015261296d82826128db565b9150508091505092915050565b6000606083016000830151612992600086018261134f565b5060208301516129a56020860182611397565b50604083015184820360408601526129bd8282612950565b9150508091505092915050565b60006060820190506129df6000830186611132565b6129ec6020830185611dce565b81810360408301526129fe818461297a565b9050949350505050565b60006020830160008301518482036000860152612a2582826128db565b9150508091505092915050565b606082016000820151612a48600085018261135e565b506020820151612a5b6040850182611397565b50505050565b600060c082019050612a766000830187611132565b612a836020830186611dce565b8181036040830152612a958185612a08565b9050612aa46060830184612a32565b95945050505050565b6000604082019050612ac26000830185611132565b612acf6020830184611dce565b9392505050565b600060208284031215612aec57612aeb611166565b5b6000612afa848285016122bc565b91505092915050565b7f5361666545524332303a204552433230206f7065726174696f6e20646964206e60008201527f6f74207375636365656400000000000000000000000000000000000000000000602082015250565b6000612b5f602a83611785565b9150612b6a82612b03565b604082019050919050565b60006020820190508181036000830152612b8e81612b52565b9050919050565b7f416464726573733a20696e73756666696369656e742062616c616e636520666f60008201527f722063616c6c0000000000000000000000000000000000000000000000000000602082015250565b6000612bf1602683611785565b9150612bfc82612b95565b604082019050919050565b60006020820190508181036000830152612c2081612be4565b9050919050565b600081905092915050565b6000612c3d82611dec565b612c478185612c27565b9350612c57818560208601611e08565b80840191505092915050565b6000612c6f8284612c32565b915081905092915050565b7f416464726573733a2063616c6c20746f206e6f6e2d636f6e7472616374000000600082015250565b6000612cb0601d83611785565b9150612cbb82612c7a565b602082019050919050565b60006020820190508181036000830152612cdf81612ca3565b9050919050565b600081519050919050565b6000612cfc82612ce6565b612d068185611785565b9350612d16818560208601611e08565b612d1f8161152c565b840191505092915050565b60006020820190508181036000830152612d448184612cf1565b90509291505056fea26469706673582212202a145320c574442b9d889e9d79da6afa41cb9dcc38222a41a33725c0ca8b7a9764736f6c63430008120033",
  "devdoc": {
    "events": {
      "SgReceiveCalled(address,uint256,(address,uint256,((uint16,address,((uint8,address),uint256,bool)[],bytes,int16)[])))": {
        "params": {
          "bridgePayload": "the payload that was sent along with the erc20.",
          "tokenAddress": "the address of the erc20 that was transfered from the source chain to this chain.abi"
        }
      }
    },
    "kind": "dev",
    "methods": {},
    "version": 1
  },
  "userdoc": {
    "events": {
      "SgReceiveCalled(address,uint256,(address,uint256,((uint16,address,((uint8,address),uint256,bool)[],bytes,int16)[])))": {
        "notice": "This event is emitted on the destination chain when Stargate invokes our sgReceive method"
      }
    },
    "kind": "user",
    "methods": {},
    "version": 1
  },
  "storageLayout": {
    "storage": [],
    "types": null
  }
}