{
  "address": "0xe356623ae3f7cB3F12177B386F9a80053ba2A227",
  "abi": [
    {
      "inputs": [
        {
          "internalType": "address",
          "name": "_frontDoorAddress",
          "type": "address"
        },
        {
          "internalType": "address",
          "name": "_stargateRouterAddress",
          "type": "address"
        }
      ],
      "stateMutability": "nonpayable",
      "type": "constructor"
    },
    {
      "anonymous": false,
      "inputs": [
        {
          "indexed": false,
          "internalType": "address",
          "name": "tokenAddress",
          "type": "address"
        },
        {
          "indexed": false,
          "internalType": "uint256",
          "name": "amount",
          "type": "uint256"
        },
        {
          "components": [
            {
              "internalType": "address",
              "name": "userAddress",
              "type": "address"
            },
            {
              "internalType": "uint256",
              "name": "nonce",
              "type": "uint256"
            },
            {
              "components": [
                {
                  "components": [
                    {
                      "internalType": "uint16",
                      "name": "stepId",
                      "type": "uint16"
                    },
                    {
                      "internalType": "address",
                      "name": "stepAddress",
                      "type": "address"
                    },
                    {
                      "components": [
                        {
                          "components": [
                            {
                              "internalType": "enum AssetType",
                              "name": "assetType",
                              "type": "uint8"
                            },
                            {
                              "internalType": "address",
                              "name": "assetAddress",
                              "type": "address"
                            }
                          ],
                          "internalType": "struct Asset",
                          "name": "asset",
                          "type": "tuple"
                        },
                        {
                          "internalType": "uint256",
                          "name": "amount",
                          "type": "uint256"
                        },
                        {
                          "internalType": "bool",
                          "name": "amountIsPercent",
                          "type": "bool"
                        }
                      ],
                      "internalType": "struct WorkflowStepInputAsset[]",
                      "name": "inputAssets",
                      "type": "tuple[]"
                    },
                    {
                      "components": [
                        {
                          "internalType": "enum AssetType",
                          "name": "assetType",
                          "type": "uint8"
                        },
                        {
                          "internalType": "address",
                          "name": "assetAddress",
                          "type": "address"
                        }
                      ],
                      "internalType": "struct Asset[]",
                      "name": "outputAssets",
                      "type": "tuple[]"
                    },
                    {
                      "internalType": "bytes",
                      "name": "data",
                      "type": "bytes"
                    },
                    {
                      "internalType": "int16",
                      "name": "nextStepIndex",
                      "type": "int16"
                    }
                  ],
                  "internalType": "struct WorkflowStep[]",
                  "name": "steps",
                  "type": "tuple[]"
                }
              ],
              "internalType": "struct Workflow",
              "name": "workflow",
              "type": "tuple"
            }
          ],
          "indexed": false,
          "internalType": "struct BridgePayload",
          "name": "bridgePayload",
          "type": "tuple"
        }
      ],
      "name": "SgReceiveCalled",
      "type": "event"
    },
    {
      "anonymous": false,
      "inputs": [
        {
          "indexed": false,
          "internalType": "uint256",
          "name": "nativeAmount",
          "type": "uint256"
        },
        {
          "indexed": false,
          "internalType": "uint256",
          "name": "assetAmount",
          "type": "uint256"
        },
        {
          "indexed": false,
          "internalType": "address",
          "name": "dstActionAddress",
          "type": "address"
        },
        {
          "indexed": false,
          "internalType": "uint16",
          "name": "dstChainId",
          "type": "uint16"
        },
        {
          "indexed": false,
          "internalType": "uint256",
          "name": "srcPoolId",
          "type": "uint256"
        },
        {
          "indexed": false,
          "internalType": "uint256",
          "name": "dstPoolId",
          "type": "uint256"
        },
        {
          "indexed": false,
          "internalType": "uint256",
          "name": "dstGasForCall",
          "type": "uint256"
        },
        {
          "indexed": false,
          "internalType": "uint256",
          "name": "dstNativeAmount",
          "type": "uint256"
        },
        {
          "indexed": false,
          "internalType": "uint256",
          "name": "minAmountOut",
          "type": "uint256"
        },
        {
          "indexed": false,
          "internalType": "bytes",
          "name": "continuationWorkflow",
          "type": "bytes"
        }
      ],
      "name": "StargateBridgeParamsEvent",
      "type": "event"
    },
    {
      "anonymous": false,
      "inputs": [
        {
          "indexed": false,
          "internalType": "string",
          "name": "bridgeName",
          "type": "string"
        },
        {
          "indexed": false,
          "internalType": "uint256",
          "name": "targetChainId",
          "type": "uint256"
        },
        {
          "indexed": false,
          "internalType": "uint256",
          "name": "nonce",
          "type": "uint256"
        }
      ],
      "name": "WorkflowBridged",
      "type": "event"
    },
    {
      "inputs": [
        {
          "components": [
            {
              "components": [
                {
                  "internalType": "enum AssetType",
                  "name": "assetType",
                  "type": "uint8"
                },
                {
                  "internalType": "address",
                  "name": "assetAddress",
                  "type": "address"
                }
              ],
              "internalType": "struct Asset",
              "name": "asset",
              "type": "tuple"
            },
            {
              "internalType": "uint256",
              "name": "amount",
              "type": "uint256"
            }
          ],
          "internalType": "struct AssetAmount[]",
          "name": "inputAssetAmounts",
          "type": "tuple[]"
        },
        {
          "components": [
            {
              "internalType": "enum AssetType",
              "name": "assetType",
              "type": "uint8"
            },
            {
              "internalType": "address",
              "name": "assetAddress",
              "type": "address"
            }
          ],
          "internalType": "struct Asset[]",
          "name": "",
          "type": "tuple[]"
        },
        {
          "internalType": "bytes",
          "name": "data",
          "type": "bytes"
        }
      ],
      "name": "execute",
      "outputs": [
        {
          "components": [
            {
              "components": [
                {
                  "components": [
                    {
                      "internalType": "enum AssetType",
                      "name": "assetType",
                      "type": "uint8"
                    },
                    {
                      "internalType": "address",
                      "name": "assetAddress",
                      "type": "address"
                    }
                  ],
                  "internalType": "struct Asset",
                  "name": "asset",
                  "type": "tuple"
                },
                {
                  "internalType": "uint256",
                  "name": "amount",
                  "type": "uint256"
                }
              ],
              "internalType": "struct AssetAmount[]",
              "name": "outputAssetAmounts",
              "type": "tuple[]"
            },
            {
              "internalType": "int16",
              "name": "nextStepIndex",
              "type": "int16"
            }
          ],
          "internalType": "struct WorkflowStepResult",
          "name": "",
          "type": "tuple"
        }
      ],
      "stateMutability": "payable",
      "type": "function"
    },
    {
      "inputs": [],
      "name": "frontDoorAddress",
      "outputs": [
        {
          "internalType": "address",
          "name": "",
          "type": "address"
        }
      ],
      "stateMutability": "view",
      "type": "function"
    },
    {
      "inputs": [
        {
          "internalType": "uint16",
          "name": "",
          "type": "uint16"
        },
        {
          "internalType": "bytes",
          "name": "",
          "type": "bytes"
        },
        {
          "internalType": "uint256",
          "name": "",
          "type": "uint256"
        },
        {
          "internalType": "address",
          "name": "tokenAddress",
          "type": "address"
        },
        {
          "internalType": "uint256",
          "name": "amount",
          "type": "uint256"
        },
        {
          "internalType": "bytes",
          "name": "payload",
          "type": "bytes"
        }
      ],
      "name": "sgReceive",
      "outputs": [],
      "stateMutability": "nonpayable",
      "type": "function"
    },
    {
      "inputs": [],
      "name": "stargateRouterAddress",
      "outputs": [
        {
          "internalType": "address",
          "name": "",
          "type": "address"
        }
      ],
      "stateMutability": "view",
      "type": "function"
    }
  ],
  "transactionHash": "0x64d7e04d20fd5c979b3e1116416c496611d1e114ce082b76032e6bb19fbfa76b",
  "args": [
    "0xe6513ebDaED868CF776C46a580b2f5F50ef514bA",
    "0x7612aE2a34E5A363E137De748801FB4c86499152"
  ],
  "numDeployments": 1,
  "solcInputHash": "c10c7e7c88a2a0fb99d9429db1ffc1ef",
  "bytecode": "0x60c06040523480156200001157600080fd5b506040516200319b3803806200319b833981810160405281019062000037919062000111565b8173ffffffffffffffffffffffffffffffffffffffff1660808173ffffffffffffffffffffffffffffffffffffffff16815250508073ffffffffffffffffffffffffffffffffffffffff1660a08173ffffffffffffffffffffffffffffffffffffffff1681525050505062000158565b600080fd5b600073ffffffffffffffffffffffffffffffffffffffff82169050919050565b6000620000d982620000ac565b9050919050565b620000eb81620000cc565b8114620000f757600080fd5b50565b6000815190506200010b81620000e0565b92915050565b600080604083850312156200012b576200012a620000a7565b5b60006200013b85828601620000fa565b92505060206200014e85828601620000fa565b9150509250929050565b60805160a051612ffb620001a06000396000818160f501528181610749015281816108f20152610b280152600081816108ce015281816109dc0152610a5b0152612ffb6000f3fe60806040526004361061003f5760003560e01c80631d2091bf146100445780632b5350131461006f57806350fd910e1461009f578063ab8236f3146100ca575b600080fd5b34801561005057600080fd5b506100596100f3565b604051610066919061118f565b60405180910390f35b610089600480360381019061008491906112cf565b610117565b6040516100969190611588565b60405180910390f35b3480156100ab57600080fd5b506100b46108cc565b6040516100c1919061118f565b60405180910390f35b3480156100d657600080fd5b506100f160048036038101906100ec919061177d565b6108f0565b005b7f000000000000000000000000000000000000000000000000000000000000000081565b61011f610ffb565b610127611018565b6002888890501461016d576040517f08c379a00000000000000000000000000000000000000000000000000000000081526004016101649061189f565b60405180910390fd5b60006002811115610181576101806113af565b5b88886000818110610195576101946118bf565b5b90506060020160000160000160208101906101b09190611913565b60028111156101c2576101c16113af565b5b036102c557600160028111156101db576101da6113af565b5b888860018181106101ef576101ee6118bf565b5b905060600201600001600001602081019061020a9190611913565b600281111561021c5761021b6113af565b5b1461025c576040517f08c379a00000000000000000000000000000000000000000000000000000000081526004016102539061198c565b60405180910390fd5b878760008181106102705761026f6118bf565b5b9050606002018036038101906102869190611a56565b8160800181905250878760018181106102a2576102a16118bf565b5b9050606002018036038101906102b89190611a56565b8160a00181905250610459565b600060028111156102d9576102d86113af565b5b888860018181106102ed576102ec6118bf565b5b90506060020160000160000160208101906103089190611913565b600281111561031a576103196113af565b5b0361041d5760016002811115610333576103326113af565b5b88886000818110610347576103466118bf565b5b90506060020160000160000160208101906103629190611913565b6002811115610374576103736113af565b5b146103b4576040517f08c379a00000000000000000000000000000000000000000000000000000000081526004016103ab9061198c565b60405180910390fd5b878760018181106103c8576103c76118bf565b5b9050606002018036038101906103de9190611a56565b8160800181905250878760008181106103fa576103f96118bf565b5b9050606002018036038101906104109190611a56565b8160a00181905250610458565b6040517f08c379a000000000000000000000000000000000000000000000000000000000815260040161044f90611acf565b60405180910390fd5b5b6001600281111561046d5761046c6113af565b5b88886000818110610481576104806118bf565b5b905060600201600001600001602081019061049c9190611913565b60028111156104ae576104ad6113af565b5b148061050c5750600060028111156104c9576104c86113af565b5b888860008181106104dd576104dc6118bf565b5b90506060020160000160000160208101906104f89190611913565b600281111561050a576105096113af565b5b145b61054b576040517f08c379a000000000000000000000000000000000000000000000000000000000815260040161054290611b61565b60405180910390fd5b6001600281111561055f5761055e6113af565b5b88886000818110610573576105726118bf565b5b905060600201600001600001602081019061058e9190611913565b60028111156105a05761059f6113af565b5b036105fb576105fa888860008181106105bc576105bb6118bf565b5b90506060020160000160200160208101906105d79190611b81565b898960008181106105eb576105ea6118bf565b5b90506060020160400135610b05565b5b838381019061060a9190611d0e565b816020018190525080602001516000015160405160200161062b9190611d9f565b6040516020818303038152906040528160400181905250806020015161010001511561069e57620186a0816020015160e0015189896000818110610672576106716118bf565b5b905060600201604001356106869190611de9565b6106909190611e5a565b8160600181815250506106b1565b806020015160e001518160600181815250505b7fc919a44972f2a555d7b70313ba420f3ece86780db879b0e70e766c61ae84ad5c8160800151602001518260a0015160200151836020015160000151846020015160400151856020015160600151866020015160800151876020015160a00151886020015160c0015189606001518a60200151610120015160405161073f9a99989796959493929190611f28565b60405180910390a17f000000000000000000000000000000000000000000000000000000000000000073ffffffffffffffffffffffffffffffffffffffff16639fbf10fc826080015160200151836020015160400151846020015160600151856020015160800151338760a0015160200151886060015160405180606001604052808b6020015160a0015181526020018b6020015160c0015181526020018b60200151602001516040516020016107f69190611d9f565b6040516020818303038152906040528152508a604001518b6020015161012001516040518b63ffffffff1660e01b815260040161083b99989796959493929190612086565b6000604051808303818588803b15801561085457600080fd5b505af1158015610868573d6000803e3d6000fd5b50505050507fdf22701bc484d488000c2610394ffd56812c1fe36560a24cd51af6e84288bd08816020015160400151826020015161014001516040516108af9291906121af565b60405180910390a16108bf610bae565b9150509695505050505050565b7f000000000000000000000000000000000000000000000000000000000000000081565b7f000000000000000000000000000000000000000000000000000000000000000073ffffffffffffffffffffffffffffffffffffffff163373ffffffffffffffffffffffffffffffffffffffff161461097e576040517f08c379a00000000000000000000000000000000000000000000000000000000081526004016109759061225d565b60405180910390fd5b6000818060200190518101906109949190612869565b90507f226d9657b52eed64d1e7560a4c93878dd511f9d06bd467e4320764272e0159818484836040516109c993929190612c43565b60405180910390a16000849050610a01817f000000000000000000000000000000000000000000000000000000000000000086610bc8565b60006040518060400160405280604051806040016040528060016002811115610a2d57610a2c6113af565b5b81526020018973ffffffffffffffffffffffffffffffffffffffff16815250815260200186815250905060007f000000000000000000000000000000000000000000000000000000000000000090508073ffffffffffffffffffffffffffffffffffffffff1663a2af321d856000015186602001518760400151866040518563ffffffff1660e01b8152600401610ac79493929190612cda565b600060405180830381600087803b158015610ae157600080fd5b505af1158015610af5573d6000803e3d6000fd5b5050505050505050505050505050565b60008290508073ffffffffffffffffffffffffffffffffffffffff1663095ea7b37f0000000000000000000000000000000000000000000000000000000000000000846040518363ffffffff1660e01b8152600401610b65929190612d26565b6020604051808303816000875af1158015610b84573d6000803e3d6000fd5b505050506040513d601f19601f82011682018060405250810190610ba89190612d4f565b50505050565b610bb6610ffb565b610bc36000806000610c4e565b905090565b610c498363a9059cbb60e01b8484604051602401610be7929190612d26565b604051602081830303815290604052907bffffffffffffffffffffffffffffffffffffffffffffffffffffffff19166020820180517bffffffffffffffffffffffffffffffffffffffffffffffffffffffff8381831617835250505050610d67565b505050565b610c56610ffb565b60006040518060400160405280866002811115610c7657610c756113af565b5b81526020018573ffffffffffffffffffffffffffffffffffffffff1681525090506000600167ffffffffffffffff811115610cb457610cb36115fa565b5b604051908082528060200260200182016040528015610ced57816020015b610cda611060565b815260200190600190039081610cd25790505b50905060405180604001604052808381526020018581525081600081518110610d1957610d186118bf565b5b602002602001018190525060405180604001604052808281526020017fffffffffffffffffffffffffffffffffffffffffffffffffffffffffffffffff60010b815250925050509392505050565b6000610dc9826040518060400160405280602081526020017f5361666545524332303a206c6f772d6c6576656c2063616c6c206661696c65648152508573ffffffffffffffffffffffffffffffffffffffff16610e2e9092919063ffffffff16565b9050600081511115610e295780806020019051810190610de99190612d4f565b610e28576040517f08c379a0000000000000000000000000000000000000000000000000000000008152600401610e1f90612dee565b60405180910390fd5b5b505050565b6060610e3d8484600085610e46565b90509392505050565b606082471015610e8b576040517f08c379a0000000000000000000000000000000000000000000000000000000008152600401610e8290612e80565b60405180910390fd5b6000808673ffffffffffffffffffffffffffffffffffffffff168587604051610eb49190612edc565b60006040518083038185875af1925050503d8060008114610ef1576040519150601f19603f3d011682016040523d82523d6000602084013e610ef6565b606091505b5091509150610f0787838387610f13565b92505050949350505050565b60608315610f75576000835103610f6d57610f2d85610f88565b610f6c576040517f08c379a0000000000000000000000000000000000000000000000000000000008152600401610f6390612f3f565b60405180910390fd5b5b829050610f80565b610f7f8383610fab565b5b949350505050565b6000808273ffffffffffffffffffffffffffffffffffffffff163b119050919050565b600082511115610fbe5781518083602001fd5b806040517f08c379a0000000000000000000000000000000000000000000000000000000008152600401610ff29190612fa3565b60405180910390fd5b604051806040016040528060608152602001600060010b81525090565b6040518060c0016040528060008152602001611032611080565b8152602001606081526020016000815260200161104d611060565b815260200161105a611060565b81525090565b604051806040016040528061107361110c565b8152602001600081525090565b604051806101600160405280600073ffffffffffffffffffffffffffffffffffffffff168152602001600073ffffffffffffffffffffffffffffffffffffffff168152602001600061ffff168152602001600081526020016000815260200160008152602001600081526020016000815260200160001515815260200160608152602001600081525090565b60405180604001604052806000600281111561112b5761112a6113af565b5b8152602001600073ffffffffffffffffffffffffffffffffffffffff1681525090565b600073ffffffffffffffffffffffffffffffffffffffff82169050919050565b60006111798261114e565b9050919050565b6111898161116e565b82525050565b60006020820190506111a46000830184611180565b92915050565b6000604051905090565b600080fd5b600080fd5b600080fd5b600080fd5b600080fd5b60008083601f8401126111e3576111e26111be565b5b8235905067ffffffffffffffff811115611200576111ff6111c3565b5b60208301915083606082028301111561121c5761121b6111c8565b5b9250929050565b60008083601f840112611239576112386111be565b5b8235905067ffffffffffffffff811115611256576112556111c3565b5b602083019150836040820283011115611272576112716111c8565b5b9250929050565b60008083601f84011261128f5761128e6111be565b5b8235905067ffffffffffffffff8111156112ac576112ab6111c3565b5b6020830191508360018202830111156112c8576112c76111c8565b5b9250929050565b600080600080600080606087890312156112ec576112eb6111b4565b5b600087013567ffffffffffffffff81111561130a576113096111b9565b5b61131689828a016111cd565b9650965050602087013567ffffffffffffffff811115611339576113386111b9565b5b61134589828a01611223565b9450945050604087013567ffffffffffffffff811115611368576113676111b9565b5b61137489828a01611279565b92509250509295509295509295565b600081519050919050565b600082825260208201905092915050565b6000819050602082019050919050565b7f4e487b7100000000000000000000000000000000000000000000000000000000600052602160045260246000fd5b600381106113ef576113ee6113af565b5b50565b6000819050611400826113de565b919050565b6000611410826113f2565b9050919050565b61142081611405565b82525050565b61142f8161116e565b82525050565b60408201600082015161144b6000850182611417565b50602082015161145e6020850182611426565b50505050565b6000819050919050565b61147781611464565b82525050565b6060820160008201516114936000850182611435565b5060208201516114a6604085018261146e565b50505050565b60006114b8838361147d565b60608301905092915050565b6000602082019050919050565b60006114dc82611383565b6114e6818561138e565b93506114f18361139f565b8060005b8381101561152257815161150988826114ac565b9750611514836114c4565b9250506001810190506114f5565b5085935050505092915050565b60008160010b9050919050565b6115458161152f565b82525050565b6000604083016000830151848203600086015261156882826114d1565b915050602083015161157d602086018261153c565b508091505092915050565b600060208201905081810360008301526115a2818461154b565b905092915050565b600061ffff82169050919050565b6115c1816115aa565b81146115cc57600080fd5b50565b6000813590506115de816115b8565b92915050565b600080fd5b6000601f19601f8301169050919050565b7f4e487b7100000000000000000000000000000000000000000000000000000000600052604160045260246000fd5b611632826115e9565b810181811067ffffffffffffffff82111715611651576116506115fa565b5b80604052505050565b60006116646111aa565b90506116708282611629565b919050565b600067ffffffffffffffff8211156116905761168f6115fa565b5b611699826115e9565b9050602081019050919050565b82818337600083830152505050565b60006116c86116c384611675565b61165a565b9050828152602081018484840111156116e4576116e36115e4565b5b6116ef8482856116a6565b509392505050565b600082601f83011261170c5761170b6111be565b5b813561171c8482602086016116b5565b91505092915050565b61172e81611464565b811461173957600080fd5b50565b60008135905061174b81611725565b92915050565b61175a8161116e565b811461176557600080fd5b50565b60008135905061177781611751565b92915050565b60008060008060008060c0878903121561179a576117996111b4565b5b60006117a889828a016115cf565b965050602087013567ffffffffffffffff8111156117c9576117c86111b9565b5b6117d589828a016116f7565b95505060406117e689828a0161173c565b94505060606117f789828a01611768565b935050608061180889828a0161173c565b92505060a087013567ffffffffffffffff811115611829576118286111b9565b5b61183589828a016116f7565b9150509295509295509295565b600082825260208201905092915050565b7f7468657265206d757374206265203220696e7075742061737365747300000000600082015250565b6000611889601c83611842565b915061189482611853565b602082019050919050565b600060208201905081810360008301526118b88161187c565b9050919050565b7f4e487b7100000000000000000000000000000000000000000000000000000000600052603260045260246000fd5b600381106118fb57600080fd5b50565b60008135905061190d816118ee565b92915050565b600060208284031215611929576119286111b4565b5b6000611937848285016118fe565b91505092915050565b7f6f6e6520696e707574206173736574206d75737420626520616e204552433230600082015250565b6000611976602083611842565b915061198182611940565b602082019050919050565b600060208201905081810360008301526119a581611969565b9050919050565b600080fd5b600080fd5b6000604082840312156119cc576119cb6119ac565b5b6119d6604061165a565b905060006119e6848285016118fe565b60008301525060206119fa84828501611768565b60208301525092915050565b600060608284031215611a1c57611a1b6119ac565b5b611a26604061165a565b90506000611a36848285016119b6565b6000830152506040611a4a8482850161173c565b60208301525092915050565b600060608284031215611a6c57611a6b6111b4565b5b6000611a7a84828501611a06565b91505092915050565b7f6f6e6520696e707574206173736574206d757374206265206e61746976650000600082015250565b6000611ab9601e83611842565b9150611ac482611a83565b602082019050919050565b60006020820190508181036000830152611ae881611aac565b9050919050565b7f74686520696e707574206173736574206d75737420626520616e20455243323060008201527f206f72204e617469766500000000000000000000000000000000000000000000602082015250565b6000611b4b602a83611842565b9150611b5682611aef565b604082019050919050565b60006020820190508181036000830152611b7a81611b3e565b9050919050565b600060208284031215611b9757611b966111b4565b5b6000611ba584828501611768565b91505092915050565b60008115159050919050565b611bc381611bae565b8114611bce57600080fd5b50565b600081359050611be081611bba565b92915050565b60006101608284031215611bfd57611bfc6119ac565b5b611c0861016061165a565b90506000611c1884828501611768565b6000830152506020611c2c84828501611768565b6020830152506040611c40848285016115cf565b6040830152506060611c548482850161173c565b6060830152506080611c688482850161173c565b60808301525060a0611c7c8482850161173c565b60a08301525060c0611c908482850161173c565b60c08301525060e0611ca48482850161173c565b60e083015250610100611cb984828501611bd1565b6101008301525061012082013567ffffffffffffffff811115611cdf57611cde6119b1565b5b611ceb848285016116f7565b61012083015250610140611d018482850161173c565b6101408301525092915050565b600060208284031215611d2457611d236111b4565b5b600082013567ffffffffffffffff811115611d4257611d416111b9565b5b611d4e84828501611be6565b91505092915050565b60008160601b9050919050565b6000611d6f82611d57565b9050919050565b6000611d8182611d64565b9050919050565b611d99611d948261116e565b611d76565b82525050565b6000611dab8284611d88565b60148201915081905092915050565b7f4e487b7100000000000000000000000000000000000000000000000000000000600052601160045260246000fd5b6000611df482611464565b9150611dff83611464565b9250828202611e0d81611464565b91508282048414831517611e2457611e23611dba565b5b5092915050565b7f4e487b7100000000000000000000000000000000000000000000000000000000600052601260045260246000fd5b6000611e6582611464565b9150611e7083611464565b925082611e8057611e7f611e2b565b5b828204905092915050565b611e9481611464565b82525050565b611ea3816115aa565b82525050565b600081519050919050565b600082825260208201905092915050565b60005b83811015611ee3578082015181840152602081019050611ec8565b60008484015250505050565b6000611efa82611ea9565b611f048185611eb4565b9350611f14818560208601611ec5565b611f1d816115e9565b840191505092915050565b600061014082019050611f3e600083018d611e8b565b611f4b602083018c611e8b565b611f58604083018b611180565b611f65606083018a611e9a565b611f726080830189611e8b565b611f7f60a0830188611e8b565b611f8c60c0830187611e8b565b611f9960e0830186611e8b565b611fa7610100830185611e8b565b818103610120830152611fba8184611eef565b90509b9a5050505050505050505050565b6000611fd68261114e565b9050919050565b611fe681611fcb565b82525050565b600082825260208201905092915050565b600061200882611ea9565b6120128185611fec565b9350612022818560208601611ec5565b61202b816115e9565b840191505092915050565b600060608301600083015161204e600086018261146e565b506020830151612061602086018261146e565b50604083015184820360408601526120798282611ffd565b9150508091505092915050565b60006101208201905061209c600083018c611e9a565b6120a9602083018b611e8b565b6120b6604083018a611e8b565b6120c36060830189611fdd565b6120d06080830188611e8b565b6120dd60a0830187611e8b565b81810360c08301526120ef8186612036565b905081810360e08301526121038185611eef565b90508181036101008301526121188184611eef565b90509a9950505050505050505050565b7f5374617267617465000000000000000000000000000000000000000000000000600082015250565b600061215e600883611842565b915061216982612128565b602082019050919050565b6000819050919050565b600061219961219461218f846115aa565b612174565b611464565b9050919050565b6121a98161217e565b82525050565b600060608201905081810360008301526121c881612151565b90506121d760208301856121a0565b6121e46040830184611e8b565b9392505050565b7f6f6e6c79205374617267617465206973207065726d697474656420746f20636160008201527f6c6c207367526563656976650000000000000000000000000000000000000000602082015250565b6000612247602c83611842565b9150612252826121eb565b604082019050919050565b600060208201905081810360008301526122768161223a565b9050919050565b60008151905061228c81611751565b92915050565b6000815190506122a181611725565b92915050565b600067ffffffffffffffff8211156122c2576122c16115fa565b5b602082029050602081019050919050565b6000815190506122e2816115b8565b92915050565b600067ffffffffffffffff821115612303576123026115fa565b5b602082029050602081019050919050565b600081519050612323816118ee565b92915050565b60006040828403121561233f5761233e6119ac565b5b612349604061165a565b9050600061235984828501612314565b600083015250602061236d8482850161227d565b60208301525092915050565b60008151905061238881611bba565b92915050565b6000608082840312156123a4576123a36119ac565b5b6123ae606061165a565b905060006123be84828501612329565b60008301525060406123d284828501612292565b60208301525060606123e684828501612379565b60408301525092915050565b6000612405612400846122e8565b61165a565b90508083825260208201905060808402830185811115612428576124276111c8565b5b835b81811015612451578061243d888261238e565b84526020840193505060808101905061242a565b5050509392505050565b600082601f8301126124705761246f6111be565b5b81516124808482602086016123f2565b91505092915050565b600067ffffffffffffffff8211156124a4576124a36115fa565b5b602082029050602081019050919050565b60006124c86124c384612489565b61165a565b905080838252602082019050604084028301858111156124eb576124ea6111c8565b5b835b8181101561251457806125008882612329565b8452602084019350506040810190506124ed565b5050509392505050565b600082601f830112612533576125326111be565b5b81516125438482602086016124b5565b91505092915050565b600061255f61255a84611675565b61165a565b90508281526020810184848401111561257b5761257a6115e4565b5b612586848285611ec5565b509392505050565b600082601f8301126125a3576125a26111be565b5b81516125b384826020860161254c565b91505092915050565b6125c58161152f565b81146125d057600080fd5b50565b6000815190506125e2816125bc565b92915050565b600060c082840312156125fe576125fd6119ac565b5b61260860c061165a565b90506000612618848285016122d3565b600083015250602061262c8482850161227d565b602083015250604082015167ffffffffffffffff8111156126505761264f6119b1565b5b61265c8482850161245b565b604083015250606082015167ffffffffffffffff8111156126805761267f6119b1565b5b61268c8482850161251e565b606083015250608082015167ffffffffffffffff8111156126b0576126af6119b1565b5b6126bc8482850161258e565b60808301525060a06126d0848285016125d3565b60a08301525092915050565b60006126ef6126ea846122a7565b61165a565b90508083825260208201905060208402830185811115612712576127116111c8565b5b835b8181101561275957805167ffffffffffffffff811115612737576127366111be565b5b80860161274489826125e8565b85526020850194505050602081019050612714565b5050509392505050565b600082601f830112612778576127776111be565b5b81516127888482602086016126dc565b91505092915050565b6000602082840312156127a7576127a66119ac565b5b6127b1602061165a565b9050600082015167ffffffffffffffff8111156127d1576127d06119b1565b5b6127dd84828501612763565b60008301525092915050565b6000606082840312156127ff576127fe6119ac565b5b612809606061165a565b905060006128198482850161227d565b600083015250602061282d84828501612292565b602083015250604082015167ffffffffffffffff811115612851576128506119b1565b5b61285d84828501612791565b60408301525092915050565b60006020828403121561287f5761287e6111b4565b5b600082015167ffffffffffffffff81111561289d5761289c6111b9565b5b6128a9848285016127e9565b91505092915050565b600081519050919050565b600082825260208201905092915050565b6000819050602082019050919050565b6128e7816115aa565b82525050565b600081519050919050565b600082825260208201905092915050565b6000819050602082019050919050565b61292281611bae565b82525050565b60808201600082015161293e6000850182611435565b506020820151612951604085018261146e565b5060408201516129646060850182612919565b50505050565b60006129768383612928565b60808301905092915050565b6000602082019050919050565b600061299a826128ed565b6129a481856128f8565b93506129af83612909565b8060005b838110156129e05781516129c7888261296a565b97506129d283612982565b9250506001810190506129b3565b5085935050505092915050565b600081519050919050565b600082825260208201905092915050565b6000819050602082019050919050565b6000612a258383611435565b60408301905092915050565b6000602082019050919050565b6000612a49826129ed565b612a5381856129f8565b9350612a5e83612a09565b8060005b83811015612a8f578151612a768882612a19565b9750612a8183612a31565b925050600181019050612a62565b5085935050505092915050565b600060c083016000830151612ab460008601826128de565b506020830151612ac76020860182611426565b5060408301518482036040860152612adf828261298f565b91505060608301518482036060860152612af98282612a3e565b91505060808301518482036080860152612b138282611ffd565b91505060a0830151612b2860a086018261153c565b508091505092915050565b6000612b3f8383612a9c565b905092915050565b6000602082019050919050565b6000612b5f826128b2565b612b6981856128bd565b935083602082028501612b7b856128ce565b8060005b85811015612bb75784840389528151612b988582612b33565b9450612ba383612b47565b925060208a01995050600181019050612b7f565b50829750879550505050505092915050565b60006020830160008301518482036000860152612be68282612b54565b9150508091505092915050565b6000606083016000830151612c0b6000860182611426565b506020830151612c1e602086018261146e565b5060408301518482036040860152612c368282612bc9565b9150508091505092915050565b6000606082019050612c586000830186611180565b612c656020830185611e8b565b8181036040830152612c778184612bf3565b9050949350505050565b60006020830160008301518482036000860152612c9e8282612b54565b9150508091505092915050565b606082016000820151612cc16000850182611435565b506020820151612cd4604085018261146e565b50505050565b600060c082019050612cef6000830187611180565b612cfc6020830186611e8b565b8181036040830152612d0e8185612c81565b9050612d1d6060830184612cab565b95945050505050565b6000604082019050612d3b6000830185611180565b612d486020830184611e8b565b9392505050565b600060208284031215612d6557612d646111b4565b5b6000612d7384828501612379565b91505092915050565b7f5361666545524332303a204552433230206f7065726174696f6e20646964206e60008201527f6f74207375636365656400000000000000000000000000000000000000000000602082015250565b6000612dd8602a83611842565b9150612de382612d7c565b604082019050919050565b60006020820190508181036000830152612e0781612dcb565b9050919050565b7f416464726573733a20696e73756666696369656e742062616c616e636520666f60008201527f722063616c6c0000000000000000000000000000000000000000000000000000602082015250565b6000612e6a602683611842565b9150612e7582612e0e565b604082019050919050565b60006020820190508181036000830152612e9981612e5d565b9050919050565b600081905092915050565b6000612eb682611ea9565b612ec08185612ea0565b9350612ed0818560208601611ec5565b80840191505092915050565b6000612ee88284612eab565b915081905092915050565b7f416464726573733a2063616c6c20746f206e6f6e2d636f6e7472616374000000600082015250565b6000612f29601d83611842565b9150612f3482612ef3565b602082019050919050565b60006020820190508181036000830152612f5881612f1c565b9050919050565b600081519050919050565b6000612f7582612f5f565b612f7f8185611842565b9350612f8f818560208601611ec5565b612f98816115e9565b840191505092915050565b60006020820190508181036000830152612fbd8184612f6a565b90509291505056fea264697066735822122092ea071b821c0b0e1d07e8003da5716ca000925359a6fc90dea0acbcbb1b262964736f6c63430008120033",
  "devdoc": {
    "events": {
      "SgReceiveCalled(address,uint256,(address,uint256,((uint16,address,((uint8,address),uint256,bool)[],(uint8,address)[],bytes,int16)[])))": {
        "params": {
          "bridgePayload": "the payload that was sent along with the erc20.",
          "tokenAddress": "the address of the erc20 that was transfered from the source chain to this chain.abi"
        }
      }
    },
    "kind": "dev",
    "methods": {},
    "version": 1
  },
  "userdoc": {
    "events": {
      "SgReceiveCalled(address,uint256,(address,uint256,((uint16,address,((uint8,address),uint256,bool)[],(uint8,address)[],bytes,int16)[])))": {
        "notice": "This event is emitted on the destination chain when Stargate invokes our sgReceive method"
      }
    },
    "kind": "user",
    "methods": {},
    "version": 1
  },
  "storageLayout": {
    "storage": [],
    "types": null
  }
}