{
  "address": "0xbBD45Ea6B720D6DFe31D23425D802fE7B51a6B8f",
  "abi": [
    {
      "inputs": [
        {
          "internalType": "address",
          "name": "_routerAddress",
          "type": "address"
        },
        {
          "internalType": "address",
          "name": "_wethAddress",
          "type": "address"
        }
      ],
      "stateMutability": "nonpayable",
      "type": "constructor"
    },
    {
      "anonymous": false,
      "inputs": [
        {
          "indexed": false,
          "internalType": "address",
          "name": "from",
          "type": "address"
        },
        {
          "indexed": false,
          "internalType": "address",
          "name": "to",
          "type": "address"
        },
        {
          "indexed": false,
          "internalType": "uint256",
          "name": "amount",
          "type": "uint256"
        },
        {
          "indexed": false,
          "internalType": "bool",
          "name": "useNative",
          "type": "bool"
        }
      ],
      "name": "UniswapExactInActionEvent",
      "type": "event"
    },
    {
      "stateMutability": "payable",
      "type": "fallback"
    },
    {
      "inputs": [
        {
          "components": [
            {
              "components": [
                {
                  "internalType": "enum AssetType",
                  "name": "assetType",
                  "type": "uint8"
                },
                {
                  "internalType": "address",
                  "name": "assetAddress",
                  "type": "address"
                }
              ],
              "internalType": "struct Asset",
              "name": "asset",
              "type": "tuple"
            },
            {
              "internalType": "uint256",
              "name": "amount",
              "type": "uint256"
            }
          ],
          "internalType": "struct AssetAmount[]",
          "name": "inputAssetAmounts",
          "type": "tuple[]"
        },
        {
          "internalType": "bytes",
          "name": "argData",
          "type": "bytes"
        },
        {
          "internalType": "address",
          "name": "",
          "type": "address"
        }
      ],
      "name": "execute",
      "outputs": [
        {
          "components": [
            {
              "components": [
                {
                  "components": [
                    {
                      "internalType": "enum AssetType",
                      "name": "assetType",
                      "type": "uint8"
                    },
                    {
                      "internalType": "address",
                      "name": "assetAddress",
                      "type": "address"
                    }
                  ],
                  "internalType": "struct Asset",
                  "name": "asset",
                  "type": "tuple"
                },
                {
                  "internalType": "uint256",
                  "name": "amount",
                  "type": "uint256"
                }
              ],
              "internalType": "struct AssetAmount[]",
              "name": "inputAssetAmounts",
              "type": "tuple[]"
            },
            {
              "components": [
                {
                  "components": [
                    {
                      "internalType": "enum AssetType",
                      "name": "assetType",
                      "type": "uint8"
                    },
                    {
                      "internalType": "address",
                      "name": "assetAddress",
                      "type": "address"
                    }
                  ],
                  "internalType": "struct Asset",
                  "name": "asset",
                  "type": "tuple"
                },
                {
                  "internalType": "uint256",
                  "name": "amount",
                  "type": "uint256"
                }
              ],
              "internalType": "struct AssetAmount[]",
              "name": "outputAssetAmounts",
              "type": "tuple[]"
            },
            {
              "components": [
                {
                  "components": [
                    {
                      "internalType": "enum AssetType",
                      "name": "assetType",
                      "type": "uint8"
                    },
                    {
                      "internalType": "address",
                      "name": "assetAddress",
                      "type": "address"
                    }
                  ],
                  "internalType": "struct Asset",
                  "name": "asset",
                  "type": "tuple"
                },
                {
                  "internalType": "uint256",
                  "name": "amount",
                  "type": "uint256"
                }
              ],
              "internalType": "struct AssetAmount[]",
              "name": "outputAssetAmountsToCaller",
              "type": "tuple[]"
            },
            {
              "internalType": "int16",
              "name": "nextStepIndex",
              "type": "int16"
            },
            {
              "internalType": "int24",
              "name": "fee",
              "type": "int24"
            }
          ],
          "internalType": "struct WorkflowStepResult",
          "name": "",
          "type": "tuple"
        }
      ],
      "stateMutability": "payable",
      "type": "function"
    },
    {
      "inputs": [],
      "name": "routerAddress",
      "outputs": [
        {
          "internalType": "address",
          "name": "",
          "type": "address"
        }
      ],
      "stateMutability": "view",
      "type": "function"
    },
    {
      "inputs": [],
      "name": "wethAddress",
      "outputs": [
        {
          "internalType": "address",
          "name": "",
          "type": "address"
        }
      ],
      "stateMutability": "view",
      "type": "function"
    },
    {
      "stateMutability": "payable",
      "type": "receive"
    }
  ],
  "transactionHash": "0xfb91e83d657faaabb46fdc61866b145e643d67704f691dab8ec77257c1a1bd7c",
  "args": [
    "0x68b3465833fb72A70ecDF485E0e4C7bD8665Fc45",
    "0x4200000000000000000000000000000000000006"
  ],
  "numDeployments": 2,
  "solcInputHash": "ec806ee132f115316a906865674b1d6a",
  "bytecode": "0x60c06040523480156200001157600080fd5b506040516200300c3803806200300c833981810160405281019062000037919062000115565b81818173ffffffffffffffffffffffffffffffffffffffff1660808173ffffffffffffffffffffffffffffffffffffffff16815250508073ffffffffffffffffffffffffffffffffffffffff1660a08173ffffffffffffffffffffffffffffffffffffffff1681525050505050506200015c565b600080fd5b600073ffffffffffffffffffffffffffffffffffffffff82169050919050565b6000620000dd82620000b0565b9050919050565b620000ef81620000d0565b8114620000fb57600080fd5b50565b6000815190506200010f81620000e4565b92915050565b600080604083850312156200012f576200012e620000ab565b5b60006200013f85828601620000fe565b92505060206200015285828601620000fe565b9150509250929050565b60805160a051612e69620001a36000396000818160ed01528181610361015281816104e2015261082401526000818160c9015281816103fd01526117810152612e696000f3fe6080604052600436106100385760003560e01c80633268cc56146100415780634f0e0ef31461006c578063e025f402146100975761003f565b3661003f57005b005b34801561004d57600080fd5b506100566100c7565b6040516100639190611d53565b60405180910390f35b34801561007857600080fd5b506100816100eb565b60405161008e9190611d53565b60405180910390f35b6100b160048036038101906100ac9190611e69565b61010f565b6040516100be9190612166565b60405180910390f35b7f000000000000000000000000000000000000000000000000000000000000000081565b7f000000000000000000000000000000000000000000000000000000000000000081565b610117611b41565b6001868690501461015d576040517f08c379a00000000000000000000000000000000000000000000000000000000081526004016101549061220b565b60405180910390fd5b610165611b76565b848481019061017491906125ee565b816000018190525061018d81600001516040015161093e565b81602001906fffffffffffffffffffffffffffffffff191690816fffffffffffffffffffffffffffffffff1916815250508060000151600001516020015173ffffffffffffffffffffffffffffffffffffffff16878760008181106101f5576101f4612637565b5b90506060020160000160200160208101906102109190612666565b73ffffffffffffffffffffffffffffffffffffffff16148015610290575080600001516000015160000151600281111561024d5761024c611f2a565b5b8787600081811061026157610260612637565b5b905060600201600001600001602081019061027c9190612693565b600281111561028e5761028d611f2a565b5b145b156103325761032660405180604001604052808360000151600001518152602001898960008181106102c5576102c4612637565b5b90506060020160400135815250610318898960008181106102e9576102e8612637565b5b9050606002018036038101906102ff919061273c565b61030a6001806109eb565b610b9690919063ffffffff16565b610be290919063ffffffff16565b60600151915050610935565b6103858787600081811061034957610348612637565b5b90506060020180360381019061035f919061273c565b7f0000000000000000000000000000000000000000000000000000000000000000610c2e565b816040019073ffffffffffffffffffffffffffffffffffffffff16908173ffffffffffffffffffffffffffffffffffffffff16815250508060400151816060019073ffffffffffffffffffffffffffffffffffffffff16908173ffffffffffffffffffffffffffffffffffffffff16815250506104647f0000000000000000000000000000000000000000000000000000000000000000888860008181106104305761042f612637565b5b90506060020160400135836060015173ffffffffffffffffffffffffffffffffffffffff16610d519092919063ffffffff16565b80600001516000015160200151816080019073ffffffffffffffffffffffffffffffffffffffff16908173ffffffffffffffffffffffffffffffffffffffff1681525050600060028111156104bc576104bb611f2a565b5b8160000151600001516000015160028111156104db576104da611f2a565b5b03610539577f0000000000000000000000000000000000000000000000000000000000000000816080019073ffffffffffffffffffffffffffffffffffffffff16908173ffffffffffffffffffffffffffffffffffffffff16815250505b6000816080015190508073ffffffffffffffffffffffffffffffffffffffff166370a08231306040518263ffffffff1660e01b815260040161057b9190611d53565b602060405180830381865afa158015610598573d6000803e3d6000fd5b505050506040513d601f19601f820116820180604052508101906105bc919061277e565b82610100018181525050878760008181106105da576105d9612637565b5b905060600201604001358260c00181815250506106138888600081811061060457610603612637565b5b90506060020160400135610dd7565b8260e001906fffffffffffffffffffffffffffffffff191690816fffffffffffffffffffffffffffffffff1916815250506106648260c0015183600001516020015184604001518560800151610e54565b8073ffffffffffffffffffffffffffffffffffffffff166370a08231306040518263ffffffff1660e01b815260040161069d9190611d53565b602060405180830381865afa1580156106ba573d6000803e3d6000fd5b505050506040513d601f19601f820116820180604052508101906106de919061277e565b826101200181815250508161010001518261012001516106fe91906127da565b8261014001818152505061075161073983602001518460e001516fffffffffffffffffffffffffffffffff1916610f4490919063ffffffff16565b6fffffffffffffffffffffffffffffffff19166113cf565b8261016001818152505081610160015182610140015110156107ea57600061077d8361014001516114cd565b61078b8461016001516114cd565b60405160200161079c929190612946565b6040516020818303038152906040529050806040517f08c379a00000000000000000000000000000000000000000000000000000000081526004016107e191906129b9565b60405180910390fd5b600060028111156107fe576107fd611f2a565b5b82600001516000015160000151600281111561081d5761081c611f2a565b5b036108b3577f000000000000000000000000000000000000000000000000000000000000000073ffffffffffffffffffffffffffffffffffffffff16632e1a7d4d8361014001516040518263ffffffff1660e01b815260040161088091906129ea565b600060405180830381600087803b15801561089a57600080fd5b505af11580156108ae573d6000803e3d6000fd5b505050505b61092c6040518060400160405280846000015160000151815260200184610140015181525061091e8a8a60008181106108ef576108ee612637565b5b905060600201803603810190610905919061273c565b6109106001806109eb565b610b9690919063ffffffff16565b610be290919063ffffffff16565b60600151925050505b95945050505050565b600080820361095357600060801b90506109e6565b60008083136109655782600003610967565b825b905060006109748261159b565b9050607081101561098d578060700382901b91506109a1565b60708111156109a0576070810382901c91505b5b607081613f7f01901b6dffffffffffffffffffffffffffff831617915060008412156109dd576f80000000000000000000000000000000821791505b8160801b925050505b919050565b6109f3611c5b565b60008367ffffffffffffffff811115610a0f57610a0e612241565b5b604051908082528060200260200182016040528015610a4857816020015b610a35611c89565b815260200190600190039081610a2d5790505b50905060008367ffffffffffffffff811115610a6757610a66612241565b5b604051908082528060200260200182016040528015610aa057816020015b610a8d611c89565b815260200190600190039081610a855790505b50905060008067ffffffffffffffff811115610abf57610abe612241565b5b604051908082528060200260200182016040528015610af857816020015b610ae5611c89565b815260200190600190039081610add5790505b50905060405180608001604052806000815260200160008152602001600081526020016040518060a001604052808681526020018581526020018481526020017ffffffffffffffffffffffffffffffffffffffffffffffffffffffffffffffffe60010b81526020017fffffffffffffffffffffffffffffffffffffffffffffffffffffffffffffffff60020b815250815250935050505092915050565b610b9e611c5b565b81836060015160000151846000018051809190610bba90612a05565b81525081518110610bce57610bcd612637565b5b602002602001018190525082905092915050565b610bea611c5b565b81836060015160200151846020018051809190610c0690612a05565b81525081518110610c1a57610c19612637565b5b602002602001018190525082905092915050565b6000806002811115610c4357610c42611f2a565b5b8360000151600001516002811115610c5e57610c5d611f2a565b5b03610d3f57600073ffffffffffffffffffffffffffffffffffffffff168273ffffffffffffffffffffffffffffffffffffffff1603610cd2576040517f08c379a0000000000000000000000000000000000000000000000000000000008152600401610cc990612a99565b60405180910390fd5b8173ffffffffffffffffffffffffffffffffffffffff1663d0e30db084602001516040518263ffffffff1660e01b81526004016000604051808303818588803b158015610d1e57600080fd5b505af1158015610d32573d6000803e3d6000fd5b5050505050819050610d4b565b82600001516020015190505b92915050565b610dd28363095ea7b360e01b8484604051602401610d70929190612ab9565b604051602081830303815290604052907bffffffffffffffffffffffffffffffffffffffffffffffffffffffff19166020820180517bffffffffffffffffffffffffffffffffffffffffffffffffffffffff838183161783525050505061167c565b505050565b6000808203610dec57600060801b9050610e4f565b60008290506000610dfc8261159b565b90506070811015610e15578060700382901b9150610e29565b6070811115610e28576070810382901c91505b5b607081613fff01901b6dffffffffffffffffffffffffffff83161791508160801b925050505b919050565b600082905060008290506000610e6987610dd7565b905060005b8651811015610f3a576000878281518110610e8c57610e8b612637565b5b602002602001015190506000610ea5826020015161093e565b9050600060018a51610eb791906127da565b841015610f0657610eff610ee786846fffffffffffffffffffffffffffffffff1916610f4490919063ffffffff16565b6fffffffffffffffffffffffffffffffff19166113cf565b9050610f0a565b8a90505b610f18836000015182611743565b808b610f2491906127da565b9a5050505080610f3390612a05565b9050610e6e565b5050505050505050565b600080617fff60708560801c6fffffffffffffffffffffffffffffffff16901c166fffffffffffffffffffffffffffffffff1690506000617fff60708560801c6fffffffffffffffffffffffffffffffff16901c166fffffffffffffffffffffffffffffffff169050617fff82036110d657617fff810361106557836fffffffffffffffffffffffffffffffff1916856fffffffffffffffffffffffffffffffff19160361100d576f8000000000000000000000000000000060801b84168518925050506113c9565b6f8000000000000000000000000000000060801b8486186fffffffffffffffffffffffffffffffff19160361104857838517925050506113c9565b6f7fff800000000000000000000000000060801b925050506113c9565b600060801b6f7fffffffffffffffffffffffffffffff60801b85166fffffffffffffffffffffffffffffffff1916036110b5576f7fff800000000000000000000000000060801b925050506113c9565b6f8000000000000000000000000000000060801b84168518925050506113c9565b617fff810361115057600060801b6f7fffffffffffffffffffffffffffffff60801b86166fffffffffffffffffffffffffffffffff19160361112f576f7fff800000000000000000000000000060801b925050506113c9565b6f8000000000000000000000000000000060801b85168418925050506113c9565b60006dffffffffffffffffffffffffffff8660801c166fffffffffffffffffffffffffffffffff1690506000830361118b57600192506111a0565b6e010000000000000000000000000000811790505b60006dffffffffffffffffffffffffffff8660801c166fffffffffffffffffffffffffffffffff169050600083036111db57600192506111f0565b6e010000000000000000000000000000811790505b80820291506000820361125c57600060801b6f8000000000000000000000000000000060801b878918166fffffffffffffffffffffffffffffffff19161161123c57600060801b611251565b6f8000000000000000000000000000000060801b5b9450505050506113c9565b828401935060007c02000000000000000000000000000000000000000000000000000000008310156112c3577c01000000000000000000000000000000000000000000000000000000008310156112bb576112b68361159b565b6112be565b60e05b6112c6565b60e15b905061407081860110156112e1576000945060009250611389565b6140e081860110156113255761407085101561130657846140700383901c925061131c565b61407085111561131b57614070850383901b92505b5b60009450611388565b61c0dd818601111561133f57617fff945060009250611387565b6070811115611356576070810383901c925061136a565b6070811015611369578060700383901b92505b5b6dffffffffffffffffffffffffffff831692506140df8186010394505b5b5b82607086901b6f8000000000000000000000000000000060801b898b181660801c6fffffffffffffffffffffffffffffffff16171760801b955050505050505b92915050565b600080617fff60708460801c6fffffffffffffffffffffffffffffffff16901c166fffffffffffffffffffffffffffffffff169050613fff8110156114185760009150506114c8565b6f800000000000000000000000000000008360801c6fffffffffffffffffffffffffffffffff161061144957600080fd5b6140fe81111561145857600080fd5b60006e0100000000000000000000000000006dffffffffffffffffffffffffffff8560801c6fffffffffffffffffffffffffffffffff161617905061406f8210156114ac578161406f0381901c90506114c2565b61406f8211156114c15761406f820381901b90505b5b80925050505b919050565b6060600060016114dc84611821565b01905060008167ffffffffffffffff8111156114fb576114fa612241565b5b6040519080825280601f01601f19166020018201604052801561152d5781602001600182028036833780820191505090505b509050600082602001820190505b600115611590578080600190039150507f3031323334353637383961626364656600000000000000000000000000000000600a86061a8153600a858161158457611583612ae2565b5b0494506000850361153b575b819350505050919050565b60008082116115a957600080fd5b600070010000000000000000000000000000000083106115d157608083901c92506080810190505b6801000000000000000083106115ef57604083901c92506040810190505b640100000000831061160957602083901c92506020810190505b62010000831061162157601083901c92506010810190505b610100831061163857600883901c92506008810190505b6010831061164e57600483901c92506004810190505b6004831061166457600283901c92506002810190505b60028310611673576001810190505b80915050919050565b60006116de826040518060400160405280602081526020017f5361666545524332303a206c6f772d6c6576656c2063616c6c206661696c65648152508573ffffffffffffffffffffffffffffffffffffffff166119749092919063ffffffff16565b905060008151111561173e57808060200190518101906116fe9190612b49565b61173d576040517f08c379a000000000000000000000000000000000000000000000000000000000815260040161173490612be8565b60405180910390fd5b5b505050565b600060405180608001604052808481526020013073ffffffffffffffffffffffffffffffffffffffff168152602001838152602001600081525090507f000000000000000000000000000000000000000000000000000000000000000073ffffffffffffffffffffffffffffffffffffffff1663b858183f826040518263ffffffff1660e01b81526004016117d89190612cc0565b6020604051808303816000875af11580156117f7573d6000803e3d6000fd5b505050506040513d601f19601f8201168201806040525081019061181b919061277e565b50505050565b600080600090507a184f03e93ff9f4daa797ed6e38ed64bf6a1f010000000000000000831061187f577a184f03e93ff9f4daa797ed6e38ed64bf6a1f010000000000000000838161187557611874612ae2565b5b0492506040810190505b6d04ee2d6d415b85acef810000000083106118bc576d04ee2d6d415b85acef810000000083816118b2576118b1612ae2565b5b0492506020810190505b662386f26fc1000083106118eb57662386f26fc1000083816118e1576118e0612ae2565b5b0492506010810190505b6305f5e1008310611914576305f5e100838161190a57611909612ae2565b5b0492506008810190505b612710831061193957612710838161192f5761192e612ae2565b5b0492506004810190505b6064831061195c576064838161195257611951612ae2565b5b0492506002810190505b600a831061196b576001810190505b80915050919050565b6060611983848460008561198c565b90509392505050565b6060824710156119d1576040517f08c379a00000000000000000000000000000000000000000000000000000000081526004016119c890612d54565b60405180910390fd5b6000808673ffffffffffffffffffffffffffffffffffffffff1685876040516119fa9190612db0565b60006040518083038185875af1925050503d8060008114611a37576040519150601f19603f3d011682016040523d82523d6000602084013e611a3c565b606091505b5091509150611a4d87838387611a59565b92505050949350505050565b60608315611abb576000835103611ab357611a7385611ace565b611ab2576040517f08c379a0000000000000000000000000000000000000000000000000000000008152600401611aa990612e13565b60405180910390fd5b5b829050611ac6565b611ac58383611af1565b5b949350505050565b6000808273ffffffffffffffffffffffffffffffffffffffff163b119050919050565b600082511115611b045781518083602001fd5b806040517f08c379a0000000000000000000000000000000000000000000000000000000008152600401611b3891906129b9565b60405180910390fd5b6040518060a00160405280606081526020016060815260200160608152602001600060010b8152602001600060020b81525090565b604051806101800160405280611b8a611ca9565b815260200160006fffffffffffffffffffffffffffffffff19168152602001600073ffffffffffffffffffffffffffffffffffffffff168152602001600073ffffffffffffffffffffffffffffffffffffffff168152602001600073ffffffffffffffffffffffffffffffffffffffff168152602001600073ffffffffffffffffffffffffffffffffffffffff1681526020016000815260200160006fffffffffffffffffffffffffffffffff19168152602001600081526020016000815260200160008152602001600081525090565b6040518060800160405280600081526020016000815260200160008152602001611c83611b41565b81525090565b6040518060400160405280611c9c611cd0565b8152602001600081525090565b6040518060600160405280611cbc611cd0565b815260200160608152602001600081525090565b604051806040016040528060006002811115611cef57611cee611f2a565b5b8152602001600073ffffffffffffffffffffffffffffffffffffffff1681525090565b600073ffffffffffffffffffffffffffffffffffffffff82169050919050565b6000611d3d82611d12565b9050919050565b611d4d81611d32565b82525050565b6000602082019050611d686000830184611d44565b92915050565b6000604051905090565b600080fd5b600080fd5b600080fd5b600080fd5b600080fd5b60008083601f840112611da757611da6611d82565b5b8235905067ffffffffffffffff811115611dc457611dc3611d87565b5b602083019150836060820283011115611de057611ddf611d8c565b5b9250929050565b60008083601f840112611dfd57611dfc611d82565b5b8235905067ffffffffffffffff811115611e1a57611e19611d87565b5b602083019150836001820283011115611e3657611e35611d8c565b5b9250929050565b611e4681611d32565b8114611e5157600080fd5b50565b600081359050611e6381611e3d565b92915050565b600080600080600060608688031215611e8557611e84611d78565b5b600086013567ffffffffffffffff811115611ea357611ea2611d7d565b5b611eaf88828901611d91565b9550955050602086013567ffffffffffffffff811115611ed257611ed1611d7d565b5b611ede88828901611de7565b93509350506040611ef188828901611e54565b9150509295509295909350565b600081519050919050565b600082825260208201905092915050565b6000819050602082019050919050565b7f4e487b7100000000000000000000000000000000000000000000000000000000600052602160045260246000fd5b60038110611f6a57611f69611f2a565b5b50565b6000819050611f7b82611f59565b919050565b6000611f8b82611f6d565b9050919050565b611f9b81611f80565b82525050565b611faa81611d32565b82525050565b604082016000820151611fc66000850182611f92565b506020820151611fd96020850182611fa1565b50505050565b6000819050919050565b611ff281611fdf565b82525050565b60608201600082015161200e6000850182611fb0565b5060208201516120216040850182611fe9565b50505050565b60006120338383611ff8565b60608301905092915050565b6000602082019050919050565b600061205782611efe565b6120618185611f09565b935061206c83611f1a565b8060005b8381101561209d5781516120848882612027565b975061208f8361203f565b925050600181019050612070565b5085935050505092915050565b60008160010b9050919050565b6120c0816120aa565b82525050565b60008160020b9050919050565b6120dc816120c6565b82525050565b600060a08301600083015184820360008601526120ff828261204c565b91505060208301518482036020860152612119828261204c565b91505060408301518482036040860152612133828261204c565b915050606083015161214860608601826120b7565b50608083015161215b60808601826120d3565b508091505092915050565b6000602082019050818103600083015261218081846120e2565b905092915050565b600082825260208201905092915050565b7f7468657265206d7573742062652065786163746c79203120696e70757420617360008201527f7365740000000000000000000000000000000000000000000000000000000000602082015250565b60006121f5602383612188565b915061220082612199565b604082019050919050565b60006020820190508181036000830152612224816121e8565b9050919050565b600080fd5b6000601f19601f8301169050919050565b7f4e487b7100000000000000000000000000000000000000000000000000000000600052604160045260246000fd5b61227982612230565b810181811067ffffffffffffffff8211171561229857612297612241565b5b80604052505050565b60006122ab611d6e565b90506122b78282612270565b919050565b600080fd5b600381106122ce57600080fd5b50565b6000813590506122e0816122c1565b92915050565b6000604082840312156122fc576122fb61222b565b5b61230660406122a1565b90506000612316848285016122d1565b600083015250602061232a84828501611e54565b60208301525092915050565b600067ffffffffffffffff82111561235157612350612241565b5b602082029050602081019050919050565b600080fd5b600067ffffffffffffffff82111561238257612381612241565b5b61238b82612230565b9050602081019050919050565b82818337600083830152505050565b60006123ba6123b584612367565b6122a1565b9050828152602081018484840111156123d6576123d5612362565b5b6123e1848285612398565b509392505050565b600082601f8301126123fe576123fd611d82565b5b813561240e8482602086016123a7565b91505092915050565b6000819050919050565b61242a81612417565b811461243557600080fd5b50565b60008135905061244781612421565b92915050565b6000604082840312156124635761246261222b565b5b61246d60406122a1565b9050600082013567ffffffffffffffff81111561248d5761248c6122bc565b5b612499848285016123e9565b60008301525060206124ad84828501612438565b60208301525092915050565b60006124cc6124c784612336565b6122a1565b905080838252602082019050602084028301858111156124ef576124ee611d8c565b5b835b8181101561253657803567ffffffffffffffff81111561251457612513611d82565b5b808601612521898261244d565b855260208501945050506020810190506124f1565b5050509392505050565b600082601f83011261255557612554611d82565b5b81356125658482602086016124b9565b91505092915050565b6000608082840312156125845761258361222b565b5b61258e60606122a1565b9050600061259e848285016122e6565b600083015250604082013567ffffffffffffffff8111156125c2576125c16122bc565b5b6125ce84828501612540565b60208301525060606125e284828501612438565b60408301525092915050565b60006020828403121561260457612603611d78565b5b600082013567ffffffffffffffff81111561262257612621611d7d565b5b61262e8482850161256e565b91505092915050565b7f4e487b7100000000000000000000000000000000000000000000000000000000600052603260045260246000fd5b60006020828403121561267c5761267b611d78565b5b600061268a84828501611e54565b91505092915050565b6000602082840312156126a9576126a8611d78565b5b60006126b7848285016122d1565b91505092915050565b6126c981611fdf565b81146126d457600080fd5b50565b6000813590506126e6816126c0565b92915050565b6000606082840312156127025761270161222b565b5b61270c60406122a1565b9050600061271c848285016122e6565b6000830152506040612730848285016126d7565b60208301525092915050565b60006060828403121561275257612751611d78565b5b6000612760848285016126ec565b91505092915050565b600081519050612778816126c0565b92915050565b60006020828403121561279457612793611d78565b5b60006127a284828501612769565b91505092915050565b7f4e487b7100000000000000000000000000000000000000000000000000000000600052601160045260246000fd5b60006127e582611fdf565b91506127f083611fdf565b925082821015612803576128026127ab565b5b828203905092915050565b600081905092915050565b7f616d6f756e7420726563656976656420697320776f727365207468616e20776f60008201527f72737420746f6c657261626c6520616d6f756e743a2000000000000000000000602082015250565b600061287560368361280e565b915061288082612819565b603682019050919050565b600081519050919050565b60005b838110156128b4578082015181840152602081019050612899565b838111156128c3576000848401525b50505050565b60006128d48261288b565b6128de818561280e565b93506128ee818560208601612896565b80840191505092915050565b7f203c200000000000000000000000000000000000000000000000000000000000600082015250565b600061293060038361280e565b915061293b826128fa565b600382019050919050565b600061295182612868565b915061295d82856128c9565b915061296882612923565b915061297482846128c9565b91508190509392505050565b600061298b8261288b565b6129958185612188565b93506129a5818560208601612896565b6129ae81612230565b840191505092915050565b600060208201905081810360008301526129d38184612980565b905092915050565b6129e481611fdf565b82525050565b60006020820190506129ff60008301846129db565b92915050565b6000612a1082611fdf565b91507fffffffffffffffffffffffffffffffffffffffffffffffffffffffffffffffff8203612a4257612a416127ab565b5b600182019050919050565b7f77657468206e6f7420737570706f72746564206f6e207468697320636861696e600082015250565b6000612a83602083612188565b9150612a8e82612a4d565b602082019050919050565b60006020820190508181036000830152612ab281612a76565b9050919050565b6000604082019050612ace6000830185611d44565b612adb60208301846129db565b9392505050565b7f4e487b7100000000000000000000000000000000000000000000000000000000600052601260045260246000fd5b60008115159050919050565b612b2681612b11565b8114612b3157600080fd5b50565b600081519050612b4381612b1d565b92915050565b600060208284031215612b5f57612b5e611d78565b5b6000612b6d84828501612b34565b91505092915050565b7f5361666545524332303a204552433230206f7065726174696f6e20646964206e60008201527f6f74207375636365656400000000000000000000000000000000000000000000602082015250565b6000612bd2602a83612188565b9150612bdd82612b76565b604082019050919050565b60006020820190508181036000830152612c0181612bc5565b9050919050565b600081519050919050565b600082825260208201905092915050565b6000612c2f82612c08565b612c398185612c13565b9350612c49818560208601612896565b612c5281612230565b840191505092915050565b60006080830160008301518482036000860152612c7a8282612c24565b9150506020830151612c8f6020860182611fa1565b506040830151612ca26040860182611fe9565b506060830151612cb56060860182611fe9565b508091505092915050565b60006020820190508181036000830152612cda8184612c5d565b905092915050565b7f416464726573733a20696e73756666696369656e742062616c616e636520666f60008201527f722063616c6c0000000000000000000000000000000000000000000000000000602082015250565b6000612d3e602683612188565b9150612d4982612ce2565b604082019050919050565b60006020820190508181036000830152612d6d81612d31565b9050919050565b600081905092915050565b6000612d8a82612c08565b612d948185612d74565b9350612da4818560208601612896565b80840191505092915050565b6000612dbc8284612d7f565b915081905092915050565b7f416464726573733a2063616c6c20746f206e6f6e2d636f6e7472616374000000600082015250565b6000612dfd601d83612188565b9150612e0882612dc7565b602082019050919050565b60006020820190508181036000830152612e2c81612df0565b905091905056fea26469706673582212205a4b46b1b6b12274656cf3ee1bb85cb5eadce875216915d503fe9fce13fecafe64736f6c634300080d0033",
  "devdoc": {
    "kind": "dev",
    "methods": {},
    "version": 1
  },
  "userdoc": {
    "kind": "user",
    "methods": {},
    "version": 1
  },
  "storageLayout": {
    "storage": [],
    "types": null
  }
}