{
  "address": "0x22Eba4A686A85F62E27922933911296b76f8fA4c",
  "abi": [
    {
      "inputs": [
        {
          "internalType": "address",
          "name": "_routerAddress",
          "type": "address"
        },
        {
          "internalType": "address",
          "name": "_wethAddress",
          "type": "address"
        }
      ],
      "stateMutability": "nonpayable",
      "type": "constructor"
    },
    {
      "anonymous": false,
      "inputs": [
        {
          "indexed": false,
          "internalType": "address",
          "name": "from",
          "type": "address"
        },
        {
          "indexed": false,
          "internalType": "address",
          "name": "to",
          "type": "address"
        },
        {
          "indexed": false,
          "internalType": "uint256",
          "name": "amount",
          "type": "uint256"
        },
        {
          "indexed": false,
          "internalType": "bool",
          "name": "useNative",
          "type": "bool"
        }
      ],
      "name": "UniswapExactOutActionEvent",
      "type": "event"
    },
    {
      "stateMutability": "payable",
      "type": "fallback"
    },
    {
      "inputs": [
        {
          "components": [
            {
              "components": [
                {
                  "internalType": "enum AssetType",
                  "name": "assetType",
                  "type": "uint8"
                },
                {
                  "internalType": "address",
                  "name": "assetAddress",
                  "type": "address"
                }
              ],
              "internalType": "struct Asset",
              "name": "asset",
              "type": "tuple"
            },
            {
              "internalType": "uint256",
              "name": "amount",
              "type": "uint256"
            }
          ],
          "internalType": "struct AssetAmount[]",
          "name": "inputAssetAmounts",
          "type": "tuple[]"
        },
        {
          "internalType": "bytes",
          "name": "argData",
          "type": "bytes"
        }
      ],
      "name": "execute",
      "outputs": [
        {
          "components": [
            {
              "components": [
                {
                  "components": [
                    {
                      "internalType": "enum AssetType",
                      "name": "assetType",
                      "type": "uint8"
                    },
                    {
                      "internalType": "address",
                      "name": "assetAddress",
                      "type": "address"
                    }
                  ],
                  "internalType": "struct Asset",
                  "name": "asset",
                  "type": "tuple"
                },
                {
                  "internalType": "uint256",
                  "name": "amount",
                  "type": "uint256"
                }
              ],
              "internalType": "struct AssetAmount[]",
              "name": "inputAssetAmounts",
              "type": "tuple[]"
            },
            {
              "components": [
                {
                  "components": [
                    {
                      "internalType": "enum AssetType",
                      "name": "assetType",
                      "type": "uint8"
                    },
                    {
                      "internalType": "address",
                      "name": "assetAddress",
                      "type": "address"
                    }
                  ],
                  "internalType": "struct Asset",
                  "name": "asset",
                  "type": "tuple"
                },
                {
                  "internalType": "uint256",
                  "name": "amount",
                  "type": "uint256"
                }
              ],
              "internalType": "struct AssetAmount[]",
              "name": "outputAssetAmounts",
              "type": "tuple[]"
            },
            {
              "components": [
                {
                  "components": [
                    {
                      "internalType": "enum AssetType",
                      "name": "assetType",
                      "type": "uint8"
                    },
                    {
                      "internalType": "address",
                      "name": "assetAddress",
                      "type": "address"
                    }
                  ],
                  "internalType": "struct Asset",
                  "name": "asset",
                  "type": "tuple"
                },
                {
                  "internalType": "uint256",
                  "name": "amount",
                  "type": "uint256"
                }
              ],
              "internalType": "struct AssetAmount[]",
              "name": "outputAssetAmountsToCaller",
              "type": "tuple[]"
            },
            {
              "internalType": "int16",
              "name": "nextStepIndex",
              "type": "int16"
            },
            {
              "internalType": "int24",
              "name": "fee",
              "type": "int24"
            }
          ],
          "internalType": "struct WorkflowStepResult",
          "name": "",
          "type": "tuple"
        }
      ],
      "stateMutability": "payable",
      "type": "function"
    },
    {
      "inputs": [],
      "name": "routerAddress",
      "outputs": [
        {
          "internalType": "address",
          "name": "",
          "type": "address"
        }
      ],
      "stateMutability": "view",
      "type": "function"
    },
    {
      "inputs": [],
      "name": "wethAddress",
      "outputs": [
        {
          "internalType": "address",
          "name": "",
          "type": "address"
        }
      ],
      "stateMutability": "view",
      "type": "function"
    },
    {
      "stateMutability": "payable",
      "type": "receive"
    }
  ],
  "transactionHash": "0x929c65063ab7ef9380dda9a2b37b5a3eb9ccd1b5754b09171485e434e99512e6",
  "args": [
    "0x68b3465833fb72A70ecDF485E0e4C7bD8665Fc45",
    "0x4200000000000000000000000000000000000006"
  ],
  "numDeployments": 1,
  "solcInputHash": "6fa10d5c0a9f548fae3fff637d02ef9b",
  "bytecode": "0x60c06040523480156200001157600080fd5b5060405162002f5d38038062002f5d833981810160405281019062000037919062000115565b81818173ffffffffffffffffffffffffffffffffffffffff1660808173ffffffffffffffffffffffffffffffffffffffff16815250508073ffffffffffffffffffffffffffffffffffffffff1660a08173ffffffffffffffffffffffffffffffffffffffff1681525050505050506200015c565b600080fd5b600073ffffffffffffffffffffffffffffffffffffffff82169050919050565b6000620000dd82620000b0565b9050919050565b620000ef81620000d0565b8114620000fb57600080fd5b50565b6000815190506200010f81620000e4565b92915050565b600080604083850312156200012f576200012e620000ab565b5b60006200013f85828601620000fe565b92505060206200015285828601620000fe565b9150509250929050565b60805160a051612d9e620001bf6000396000818160ed01528181610354015281816103cb01528181610423015281816104a80152818161069801528181610a970152610b6f01526000818160c90152818161061001526118e90152612d9e6000f3fe6080604052600436106100385760003560e01c80633268cc56146100415780634f0e0ef31461006c5780637bb26ca7146100975761003f565b3661003f57005b005b34801561004d57600080fd5b506100566100c7565b6040516100639190611d8a565b60405180910390f35b34801561007857600080fd5b506100816100eb565b60405161008e9190611d8a565b60405180910390f35b6100b160048036038101906100ac9190611e74565b61010f565b6040516100be919061215d565b60405180910390f35b7f000000000000000000000000000000000000000000000000000000000000000081565b7f000000000000000000000000000000000000000000000000000000000000000081565b610117611b56565b6000858590501461015d576040517f08c379a000000000000000000000000000000000000000000000000000000000815260040161015490612202565b60405180910390fd5b610165611b8b565b83838101906101749190612665565b81600001819052508060000151602001516020015173ffffffffffffffffffffffffffffffffffffffff168160000151600001516020015173ffffffffffffffffffffffffffffffffffffffff1614801561020a57508060000151602001516000015160028111156101e9576101e8611f21565b5b81600001516000015160000151600281111561020857610207611f21565b5b145b15610274576000604051806040016040528083600001516000015181526020018360000151604001518152509050610267816102598361024b600180610c78565b610e2390919063ffffffff16565b610e6f90919063ffffffff16565b6060015192505050610c70565b610285816000015160800151610ebb565b81602001906fffffffffffffffffffffffffffffffff191690816fffffffffffffffffffffffffffffffff1916815250506102c7816000015160400151610f68565b8160c001906fffffffffffffffffffffffffffffffff191690816fffffffffffffffffffffffffffffffff1916815250506000600281111561030c5761030b611f21565b5b81600001516000015160000151600281111561032b5761032a611f21565b5b0361050357478160e0018181525050600073ffffffffffffffffffffffffffffffffffffffff167f000000000000000000000000000000000000000000000000000000000000000073ffffffffffffffffffffffffffffffffffffffff16036103c9576040517f08c379a00000000000000000000000000000000000000000000000000000000081526004016103c0906126fa565b60405180910390fd5b7f0000000000000000000000000000000000000000000000000000000000000000816060019073ffffffffffffffffffffffffffffffffffffffff16908173ffffffffffffffffffffffffffffffffffffffff16815250507f000000000000000000000000000000000000000000000000000000000000000073ffffffffffffffffffffffffffffffffffffffff1663d0e30db08260e001516040518263ffffffff1660e01b81526004016000604051808303818588803b15801561048d57600080fd5b505af11580156104a1573d6000803e3d6000fd5b50505050507f0000000000000000000000000000000000000000000000000000000000000000816040019073ffffffffffffffffffffffffffffffffffffffff16908173ffffffffffffffffffffffffffffffffffffffff168152505061060b565b80600001516000015160200151816040019073ffffffffffffffffffffffffffffffffffffffff16908173ffffffffffffffffffffffffffffffffffffffff16815250508060400151816060019073ffffffffffffffffffffffffffffffffffffffff16908173ffffffffffffffffffffffffffffffffffffffff1681525050806060015173ffffffffffffffffffffffffffffffffffffffff166370a08231306040518263ffffffff1660e01b81526004016105c09190611d8a565b602060405180830381865afa1580156105dd573d6000803e3d6000fd5b505050506040513d601f19601f82011682018060405250810190610601919061272f565b8160e00181815250505b61065e7f00000000000000000000000000000000000000000000000000000000000000008260e00151836060015173ffffffffffffffffffffffffffffffffffffffff16610fe59092919063ffffffff16565b6000600281111561067257610671611f21565b5b81600001516020015160000151600281111561069157610690611f21565b5b036106f3577f0000000000000000000000000000000000000000000000000000000000000000816080019073ffffffffffffffffffffffffffffffffffffffff16908173ffffffffffffffffffffffffffffffffffffffff1681525050610738565b80600001516020015160200151816080019073ffffffffffffffffffffffffffffffffffffffff16908173ffffffffffffffffffffffffffffffffffffffff16815250505b80608001518160a0019073ffffffffffffffffffffffffffffffffffffffff16908173ffffffffffffffffffffffffffffffffffffffff16815250508060a0015173ffffffffffffffffffffffffffffffffffffffff166370a08231306040518263ffffffff1660e01b81526004016107b19190611d8a565b602060405180830381865afa1580156107ce573d6000803e3d6000fd5b505050506040513d601f19601f820116820180604052508101906107f2919061272f565b816101200181815250506108208160000151604001518260000151606001518360400151846080015161106b565b8060a0015173ffffffffffffffffffffffffffffffffffffffff166370a08231306040518263ffffffff1660e01b815260040161085d9190611d8a565b602060405180830381865afa15801561087a573d6000803e3d6000fd5b505050506040513d601f19601f8201168201806040525081019061089e919061272f565b816101400181815250508061012001518161014001516108be919061278b565b8161016001818152505080600001516040015181610160015114610917576040517f08c379a000000000000000000000000000000000000000000000000000000000815260040161090e90612831565b60405180910390fd5b806060015173ffffffffffffffffffffffffffffffffffffffff166370a08231306040518263ffffffff1660e01b81526004016109549190611d8a565b602060405180830381865afa158015610971573d6000803e3d6000fd5b505050506040513d601f19601f82011682018060405250810190610995919061272f565b816101000181815250508061010001518160e001516109b4919061278b565b81610180018181525050610a076109ef82602001518360c001516fffffffffffffffffffffffffffffffff191661115b90919063ffffffff16565b6fffffffffffffffffffffffffffffffff19166115e6565b816101a0018181525050806101a0015181610180015110610a5d576040517f08c379a0000000000000000000000000000000000000000000000000000000008152600401610a54906128c3565b60405180910390fd5b60006002811115610a7157610a70611f21565b5b816000015160000151600001516002811115610a9057610a8f611f21565b5b03610b35577f000000000000000000000000000000000000000000000000000000000000000073ffffffffffffffffffffffffffffffffffffffff16632e1a7d4d8261018001518360e00151610ae6919061278b565b6040518263ffffffff1660e01b8152600401610b0291906128f2565b600060405180830381600087803b158015610b1c57600080fd5b505af1158015610b30573d6000803e3d6000fd5b505050505b60006002811115610b4957610b48611f21565b5b816000015160200151600001516002811115610b6857610b67611f21565b5b03610bf7577f000000000000000000000000000000000000000000000000000000000000000073ffffffffffffffffffffffffffffffffffffffff1663d0e30db08260000151604001516040518263ffffffff1660e01b81526004016000604051808303818588803b158015610bdd57600080fd5b505af1158015610bf1573d6000803e3d6000fd5b50505050505b610c6860405180604001604052808360000151602001518152602001836101600151815250610c5a60405180604001604052808560000151600001518152602001856101800151815250610c4c600180610c78565b610e2390919063ffffffff16565b610e6f90919063ffffffff16565b606001519150505b949350505050565b610c80611c7e565b60008367ffffffffffffffff811115610c9c57610c9b612238565b5b604051908082528060200260200182016040528015610cd557816020015b610cc2611cac565b815260200190600190039081610cba5790505b50905060008367ffffffffffffffff811115610cf457610cf3612238565b5b604051908082528060200260200182016040528015610d2d57816020015b610d1a611cac565b815260200190600190039081610d125790505b50905060008067ffffffffffffffff811115610d4c57610d4b612238565b5b604051908082528060200260200182016040528015610d8557816020015b610d72611cac565b815260200190600190039081610d6a5790505b50905060405180608001604052806000815260200160008152602001600081526020016040518060a001604052808681526020018581526020018481526020017ffffffffffffffffffffffffffffffffffffffffffffffffffffffffffffffffe60010b81526020017fffffffffffffffffffffffffffffffffffffffffffffffffffffffffffffffff60020b815250815250935050505092915050565b610e2b611c7e565b81836060015160000151846000018051809190610e479061290d565b81525081518110610e5b57610e5a612955565b5b602002602001018190525082905092915050565b610e77611c7e565b81836060015160200151846020018051809190610e939061290d565b81525081518110610ea757610ea6612955565b5b602002602001018190525082905092915050565b6000808203610ed057600060801b9050610f63565b6000808313610ee25782600003610ee4565b825b90506000610ef1826116e4565b90506070811015610f0a578060700382901b9150610f1e565b6070811115610f1d576070810382901c91505b5b607081613f7f01901b6dffffffffffffffffffffffffffff83161791506000841215610f5a576f80000000000000000000000000000000821791505b8160801b925050505b919050565b6000808203610f7d57600060801b9050610fe0565b60008290506000610f8d826116e4565b90506070811015610fa6578060700382901b9150610fba565b6070811115610fb9576070810382901c91505b5b607081613fff01901b6dffffffffffffffffffffffffffff83161791508160801b925050505b919050565b6110668363095ea7b360e01b8484604051602401611004929190612984565b604051602081830303815290604052907bffffffffffffffffffffffffffffffffffffffffffffffffffffffff19166020820180517bffffffffffffffffffffffffffffffffffffffffffffffffffffffff83818316178352505050506117c5565b505050565b60008290506000829050600061108087610f68565b905060005b86518110156111515760008782815181106110a3576110a2612955565b5b6020026020010151905060006110bc8260200151610ebb565b9050600060018a516110ce919061278b565b84101561111d576111166110fe86846fffffffffffffffffffffffffffffffff191661115b90919063ffffffff16565b6fffffffffffffffffffffffffffffffff19166115e6565b9050611121565b8a90505b61112f83600001518261188c565b808b61113b919061278b565b9a505050508061114a9061290d565b9050611085565b5050505050505050565b600080617fff60708560801c6fffffffffffffffffffffffffffffffff16901c166fffffffffffffffffffffffffffffffff1690506000617fff60708560801c6fffffffffffffffffffffffffffffffff16901c166fffffffffffffffffffffffffffffffff169050617fff82036112ed57617fff810361127c57836fffffffffffffffffffffffffffffffff1916856fffffffffffffffffffffffffffffffff191603611224576f8000000000000000000000000000000060801b84168518925050506115e0565b6f8000000000000000000000000000000060801b8486186fffffffffffffffffffffffffffffffff19160361125f57838517925050506115e0565b6f7fff800000000000000000000000000060801b925050506115e0565b600060801b6f7fffffffffffffffffffffffffffffff60801b85166fffffffffffffffffffffffffffffffff1916036112cc576f7fff800000000000000000000000000060801b925050506115e0565b6f8000000000000000000000000000000060801b84168518925050506115e0565b617fff810361136757600060801b6f7fffffffffffffffffffffffffffffff60801b86166fffffffffffffffffffffffffffffffff191603611346576f7fff800000000000000000000000000060801b925050506115e0565b6f8000000000000000000000000000000060801b85168418925050506115e0565b60006dffffffffffffffffffffffffffff8660801c166fffffffffffffffffffffffffffffffff169050600083036113a257600192506113b7565b6e010000000000000000000000000000811790505b60006dffffffffffffffffffffffffffff8660801c166fffffffffffffffffffffffffffffffff169050600083036113f25760019250611407565b6e010000000000000000000000000000811790505b80820291506000820361147357600060801b6f8000000000000000000000000000000060801b878918166fffffffffffffffffffffffffffffffff19161161145357600060801b611468565b6f8000000000000000000000000000000060801b5b9450505050506115e0565b828401935060007c02000000000000000000000000000000000000000000000000000000008310156114da577c01000000000000000000000000000000000000000000000000000000008310156114d2576114cd836116e4565b6114d5565b60e05b6114dd565b60e15b905061407081860110156114f85760009450600092506115a0565b6140e0818601101561153c5761407085101561151d57846140700383901c9250611533565b61407085111561153257614070850383901b92505b5b6000945061159f565b61c0dd818601111561155657617fff94506000925061159e565b607081111561156d576070810383901c9250611581565b6070811015611580578060700383901b92505b5b6dffffffffffffffffffffffffffff831692506140df8186010394505b5b5b82607086901b6f8000000000000000000000000000000060801b898b181660801c6fffffffffffffffffffffffffffffffff16171760801b955050505050505b92915050565b600080617fff60708460801c6fffffffffffffffffffffffffffffffff16901c166fffffffffffffffffffffffffffffffff169050613fff81101561162f5760009150506116df565b6f800000000000000000000000000000008360801c6fffffffffffffffffffffffffffffffff161061166057600080fd5b6140fe81111561166f57600080fd5b60006e0100000000000000000000000000006dffffffffffffffffffffffffffff8560801c6fffffffffffffffffffffffffffffffff161617905061406f8210156116c3578161406f0381901c90506116d9565b61406f8211156116d85761406f820381901b90505b5b80925050505b919050565b60008082116116f257600080fd5b6000700100000000000000000000000000000000831061171a57608083901c92506080810190505b68010000000000000000831061173857604083901c92506040810190505b640100000000831061175257602083901c92506020810190505b62010000831061176a57601083901c92506010810190505b610100831061178157600883901c92506008810190505b6010831061179757600483901c92506004810190505b600483106117ad57600283901c92506002810190505b600283106117bc576001810190505b80915050919050565b6000611827826040518060400160405280602081526020017f5361666545524332303a206c6f772d6c6576656c2063616c6c206661696c65648152508573ffffffffffffffffffffffffffffffffffffffff166119899092919063ffffffff16565b9050600081511115611887578080602001905181019061184791906129e5565b611886576040517f08c379a000000000000000000000000000000000000000000000000000000000815260040161187d90612a84565b60405180910390fd5b5b505050565b600060405180608001604052808481526020013073ffffffffffffffffffffffffffffffffffffffff1681526020018381526020017fffffffffffffffffffffffffffffffffffffffffffffffffffffffffffffffff81525090507f000000000000000000000000000000000000000000000000000000000000000073ffffffffffffffffffffffffffffffffffffffff166309b81346826040518263ffffffff1660e01b81526004016119409190612b8f565b6020604051808303816000875af115801561195f573d6000803e3d6000fd5b505050506040513d601f19601f82011682018060405250810190611983919061272f565b50505050565b606061199884846000856119a1565b90509392505050565b6060824710156119e6576040517f08c379a00000000000000000000000000000000000000000000000000000000081526004016119dd90612c23565b60405180910390fd5b6000808673ffffffffffffffffffffffffffffffffffffffff168587604051611a0f9190612c7f565b60006040518083038185875af1925050503d8060008114611a4c576040519150601f19603f3d011682016040523d82523d6000602084013e611a51565b606091505b5091509150611a6287838387611a6e565b92505050949350505050565b60608315611ad0576000835103611ac857611a8885611ae3565b611ac7576040517f08c379a0000000000000000000000000000000000000000000000000000000008152600401611abe90612ce2565b60405180910390fd5b5b829050611adb565b611ada8383611b06565b5b949350505050565b6000808273ffffffffffffffffffffffffffffffffffffffff163b119050919050565b600082511115611b195781518083602001fd5b806040517f08c379a0000000000000000000000000000000000000000000000000000000008152600401611b4d9190612d46565b60405180910390fd5b6040518060a00160405280606081526020016060815260200160608152602001600060010b8152602001600060020b81525090565b604051806101c00160405280611b9f611ccc565b815260200160006fffffffffffffffffffffffffffffffff19168152602001600073ffffffffffffffffffffffffffffffffffffffff168152602001600073ffffffffffffffffffffffffffffffffffffffff168152602001600073ffffffffffffffffffffffffffffffffffffffff168152602001600073ffffffffffffffffffffffffffffffffffffffff16815260200160006fffffffffffffffffffffffffffffffff19168152602001600081526020016000815260200160008152602001600081526020016000815260200160008152602001600081525090565b6040518060800160405280600081526020016000815260200160008152602001611ca6611b56565b81525090565b6040518060400160405280611cbf611d07565b8152602001600081525090565b6040518060a00160405280611cdf611d07565b8152602001611cec611d07565b81526020016000815260200160608152602001600081525090565b604051806040016040528060006002811115611d2657611d25611f21565b5b8152602001600073ffffffffffffffffffffffffffffffffffffffff1681525090565b600073ffffffffffffffffffffffffffffffffffffffff82169050919050565b6000611d7482611d49565b9050919050565b611d8481611d69565b82525050565b6000602082019050611d9f6000830184611d7b565b92915050565b6000604051905090565b600080fd5b600080fd5b600080fd5b600080fd5b600080fd5b60008083601f840112611dde57611ddd611db9565b5b8235905067ffffffffffffffff811115611dfb57611dfa611dbe565b5b602083019150836060820283011115611e1757611e16611dc3565b5b9250929050565b60008083601f840112611e3457611e33611db9565b5b8235905067ffffffffffffffff811115611e5157611e50611dbe565b5b602083019150836001820283011115611e6d57611e6c611dc3565b5b9250929050565b60008060008060408587031215611e8e57611e8d611daf565b5b600085013567ffffffffffffffff811115611eac57611eab611db4565b5b611eb887828801611dc8565b9450945050602085013567ffffffffffffffff811115611edb57611eda611db4565b5b611ee787828801611e1e565b925092505092959194509250565b600081519050919050565b600082825260208201905092915050565b6000819050602082019050919050565b7f4e487b7100000000000000000000000000000000000000000000000000000000600052602160045260246000fd5b60038110611f6157611f60611f21565b5b50565b6000819050611f7282611f50565b919050565b6000611f8282611f64565b9050919050565b611f9281611f77565b82525050565b611fa181611d69565b82525050565b604082016000820151611fbd6000850182611f89565b506020820151611fd06020850182611f98565b50505050565b6000819050919050565b611fe981611fd6565b82525050565b6060820160008201516120056000850182611fa7565b5060208201516120186040850182611fe0565b50505050565b600061202a8383611fef565b60608301905092915050565b6000602082019050919050565b600061204e82611ef5565b6120588185611f00565b935061206383611f11565b8060005b8381101561209457815161207b888261201e565b975061208683612036565b925050600181019050612067565b5085935050505092915050565b60008160010b9050919050565b6120b7816120a1565b82525050565b60008160020b9050919050565b6120d3816120bd565b82525050565b600060a08301600083015184820360008601526120f68282612043565b915050602083015184820360208601526121108282612043565b9150506040830151848203604086015261212a8282612043565b915050606083015161213f60608601826120ae565b50608083015161215260808601826120ca565b508091505092915050565b6000602082019050818103600083015261217781846120d9565b905092915050565b600082825260208201905092915050565b7f74686572652073686f75646e277420626520616e7920696e707574206173736560008201527f7473000000000000000000000000000000000000000000000000000000000000602082015250565b60006121ec60228361217f565b91506121f782612190565b604082019050919050565b6000602082019050818103600083015261221b816121df565b9050919050565b600080fd5b6000601f19601f8301169050919050565b7f4e487b7100000000000000000000000000000000000000000000000000000000600052604160045260246000fd5b61227082612227565b810181811067ffffffffffffffff8211171561228f5761228e612238565b5b80604052505050565b60006122a2611da5565b90506122ae8282612267565b919050565b600080fd5b600381106122c557600080fd5b50565b6000813590506122d7816122b8565b92915050565b6122e681611d69565b81146122f157600080fd5b50565b600081359050612303816122dd565b92915050565b60006040828403121561231f5761231e612222565b5b6123296040612298565b90506000612339848285016122c8565b600083015250602061234d848285016122f4565b60208301525092915050565b61236281611fd6565b811461236d57600080fd5b50565b60008135905061237f81612359565b92915050565b600067ffffffffffffffff8211156123a05761239f612238565b5b602082029050602081019050919050565b600080fd5b600067ffffffffffffffff8211156123d1576123d0612238565b5b6123da82612227565b9050602081019050919050565b82818337600083830152505050565b6000612409612404846123b6565b612298565b905082815260208101848484011115612425576124246123b1565b5b6124308482856123e7565b509392505050565b600082601f83011261244d5761244c611db9565b5b813561245d8482602086016123f6565b91505092915050565b6000819050919050565b61247981612466565b811461248457600080fd5b50565b60008135905061249681612470565b92915050565b6000604082840312156124b2576124b1612222565b5b6124bc6040612298565b9050600082013567ffffffffffffffff8111156124dc576124db6122b3565b5b6124e884828501612438565b60008301525060206124fc84828501612487565b60208301525092915050565b600061251b61251684612385565b612298565b9050808382526020820190506020840283018581111561253e5761253d611dc3565b5b835b8181101561258557803567ffffffffffffffff81111561256357612562611db9565b5b808601612570898261249c565b85526020850194505050602081019050612540565b5050509392505050565b600082601f8301126125a4576125a3611db9565b5b81356125b4848260208601612508565b91505092915050565b600060e082840312156125d3576125d2612222565b5b6125dd60a0612298565b905060006125ed84828501612309565b600083015250604061260184828501612309565b602083015250608061261584828501612370565b60408301525060a082013567ffffffffffffffff811115612639576126386122b3565b5b6126458482850161258f565b60608301525060c061265984828501612487565b60808301525092915050565b60006020828403121561267b5761267a611daf565b5b600082013567ffffffffffffffff81111561269957612698611db4565b5b6126a5848285016125bd565b91505092915050565b7f77657468206e6f7420737570706f72746564206f6e207468697320636861696e600082015250565b60006126e460208361217f565b91506126ef826126ae565b602082019050919050565b60006020820190508181036000830152612713816126d7565b9050919050565b60008151905061272981612359565b92915050565b60006020828403121561274557612744611daf565b5b60006127538482850161271a565b91505092915050565b7f4e487b7100000000000000000000000000000000000000000000000000000000600052601160045260246000fd5b600061279682611fd6565b91506127a183611fd6565b9250828210156127b4576127b361275c565b5b828203905092915050565b7f616d6f756e7420726563656976656420646964206e6f74206d6174636820616d60008201527f6f756e74206f7574000000000000000000000000000000000000000000000000602082015250565b600061281b60288361217f565b9150612826826127bf565b604082019050919050565b6000602082019050818103600083015261284a8161280e565b9050919050565b7f616d6f756e742074616b656e20657863656564656420776f727374206578636860008201527f616e676520726174650000000000000000000000000000000000000000000000602082015250565b60006128ad60298361217f565b91506128b882612851565b604082019050919050565b600060208201905081810360008301526128dc816128a0565b9050919050565b6128ec81611fd6565b82525050565b600060208201905061290760008301846128e3565b92915050565b600061291882611fd6565b91507fffffffffffffffffffffffffffffffffffffffffffffffffffffffffffffffff820361294a5761294961275c565b5b600182019050919050565b7f4e487b7100000000000000000000000000000000000000000000000000000000600052603260045260246000fd5b60006040820190506129996000830185611d7b565b6129a660208301846128e3565b9392505050565b60008115159050919050565b6129c2816129ad565b81146129cd57600080fd5b50565b6000815190506129df816129b9565b92915050565b6000602082840312156129fb576129fa611daf565b5b6000612a09848285016129d0565b91505092915050565b7f5361666545524332303a204552433230206f7065726174696f6e20646964206e60008201527f6f74207375636365656400000000000000000000000000000000000000000000602082015250565b6000612a6e602a8361217f565b9150612a7982612a12565b604082019050919050565b60006020820190508181036000830152612a9d81612a61565b9050919050565b600081519050919050565b600082825260208201905092915050565b60005b83811015612ade578082015181840152602081019050612ac3565b83811115612aed576000848401525b50505050565b6000612afe82612aa4565b612b088185612aaf565b9350612b18818560208601612ac0565b612b2181612227565b840191505092915050565b60006080830160008301518482036000860152612b498282612af3565b9150506020830151612b5e6020860182611f98565b506040830151612b716040860182611fe0565b506060830151612b846060860182611fe0565b508091505092915050565b60006020820190508181036000830152612ba98184612b2c565b905092915050565b7f416464726573733a20696e73756666696369656e742062616c616e636520666f60008201527f722063616c6c0000000000000000000000000000000000000000000000000000602082015250565b6000612c0d60268361217f565b9150612c1882612bb1565b604082019050919050565b60006020820190508181036000830152612c3c81612c00565b9050919050565b600081905092915050565b6000612c5982612aa4565b612c638185612c43565b9350612c73818560208601612ac0565b80840191505092915050565b6000612c8b8284612c4e565b915081905092915050565b7f416464726573733a2063616c6c20746f206e6f6e2d636f6e7472616374000000600082015250565b6000612ccc601d8361217f565b9150612cd782612c96565b602082019050919050565b60006020820190508181036000830152612cfb81612cbf565b9050919050565b600081519050919050565b6000612d1882612d02565b612d22818561217f565b9350612d32818560208601612ac0565b612d3b81612227565b840191505092915050565b60006020820190508181036000830152612d608184612d0d565b90509291505056fea26469706673582212201b99d29b5c1b628d27894f10c8c198071808f69d69fcb45328508d957df7196364736f6c634300080d0033",
  "devdoc": {
    "kind": "dev",
    "methods": {},
    "version": 1
  },
  "userdoc": {
    "kind": "user",
    "methods": {},
    "version": 1
  },
  "storageLayout": {
    "storage": [],
    "types": null
  }
}