{
  "address": "0xE257a6aA52B464F22B7Af947bCA6090D44dfA3c3",
  "abi": [
    {
      "inputs": [
        {
          "internalType": "address",
          "name": "_poolAddressProviderAddress",
          "type": "address"
        },
        {
          "internalType": "address",
          "name": "_wethAddress",
          "type": "address"
        }
      ],
      "stateMutability": "nonpayable",
      "type": "constructor"
    },
    {
      "inputs": [
        {
          "components": [
            {
              "components": [
                {
                  "internalType": "enum AssetType",
                  "name": "assetType",
                  "type": "uint8"
                },
                {
                  "internalType": "address",
                  "name": "assetAddress",
                  "type": "address"
                }
              ],
              "internalType": "struct Asset",
              "name": "asset",
              "type": "tuple"
            },
            {
              "internalType": "uint256",
              "name": "amount",
              "type": "uint256"
            }
          ],
          "internalType": "struct AssetAmount[]",
          "name": "inputAssets",
          "type": "tuple[]"
        },
        {
          "internalType": "bytes",
          "name": "argData",
          "type": "bytes"
        }
      ],
      "name": "execute",
      "outputs": [
        {
          "components": [
            {
              "components": [
                {
                  "components": [
                    {
                      "internalType": "enum AssetType",
                      "name": "assetType",
                      "type": "uint8"
                    },
                    {
                      "internalType": "address",
                      "name": "assetAddress",
                      "type": "address"
                    }
                  ],
                  "internalType": "struct Asset",
                  "name": "asset",
                  "type": "tuple"
                },
                {
                  "internalType": "uint256",
                  "name": "amount",
                  "type": "uint256"
                }
              ],
              "internalType": "struct AssetAmount[]",
              "name": "inputAssetAmounts",
              "type": "tuple[]"
            },
            {
              "components": [
                {
                  "components": [
                    {
                      "internalType": "enum AssetType",
                      "name": "assetType",
                      "type": "uint8"
                    },
                    {
                      "internalType": "address",
                      "name": "assetAddress",
                      "type": "address"
                    }
                  ],
                  "internalType": "struct Asset",
                  "name": "asset",
                  "type": "tuple"
                },
                {
                  "internalType": "uint256",
                  "name": "amount",
                  "type": "uint256"
                }
              ],
              "internalType": "struct AssetAmount[]",
              "name": "outputAssetAmounts",
              "type": "tuple[]"
            },
            {
              "components": [
                {
                  "components": [
                    {
                      "internalType": "enum AssetType",
                      "name": "assetType",
                      "type": "uint8"
                    },
                    {
                      "internalType": "address",
                      "name": "assetAddress",
                      "type": "address"
                    }
                  ],
                  "internalType": "struct Asset",
                  "name": "asset",
                  "type": "tuple"
                },
                {
                  "internalType": "uint256",
                  "name": "amount",
                  "type": "uint256"
                }
              ],
              "internalType": "struct AssetAmount[]",
              "name": "outputAssetAmountsToCaller",
              "type": "tuple[]"
            },
            {
              "internalType": "int16",
              "name": "nextStepIndex",
              "type": "int16"
            },
            {
              "internalType": "int24",
              "name": "fee",
              "type": "int24"
            }
          ],
          "internalType": "struct WorkflowStepResult",
          "name": "",
          "type": "tuple"
        }
      ],
      "stateMutability": "payable",
      "type": "function"
    },
    {
      "inputs": [],
      "name": "poolAddressProviderAddress",
      "outputs": [
        {
          "internalType": "address",
          "name": "",
          "type": "address"
        }
      ],
      "stateMutability": "view",
      "type": "function"
    },
    {
      "inputs": [],
      "name": "wethAddress",
      "outputs": [
        {
          "internalType": "address",
          "name": "",
          "type": "address"
        }
      ],
      "stateMutability": "view",
      "type": "function"
    }
  ],
  "transactionHash": "0x6c7070f13ca6fb661f83c4295ed20fb084db1f938bafc3321efbc3331f5a3d12",
  "args": [
    "0xa97684ead0e402dC232d5A977953DF7ECBaB3CDb",
    "0x82aF49447D8a07e3bd95BD0d56f35241523fBab1"
  ],
  "numDeployments": 1,
  "solcInputHash": "34a315e70aa05d95d9dbdd4f3a2e3e7e",
  "bytecode": "0x60c06040523480156200001157600080fd5b50604051620012f8380380620012f8833981810160405281019062000037919062000111565b8173ffffffffffffffffffffffffffffffffffffffff1660808173ffffffffffffffffffffffffffffffffffffffff16815250508073ffffffffffffffffffffffffffffffffffffffff1660a08173ffffffffffffffffffffffffffffffffffffffff1681525050505062000158565b600080fd5b600073ffffffffffffffffffffffffffffffffffffffff82169050919050565b6000620000d982620000ac565b9050919050565b620000eb81620000cc565b8114620000f757600080fd5b50565b6000815190506200010b81620000e0565b92915050565b600080604083850312156200012b576200012a620000a7565b5b60006200013b85828601620000fa565b92505060206200014e85828601620000fa565b9150509250929050565b60805160a051611167620001916000396000818160c1015281816101b2015261025001526000818160e501526102bf01526111676000f3fe6080604052600436106100345760003560e01c80634f0e0ef3146100395780635ee77cb0146100645780637bb26ca71461008f575b600080fd5b34801561004557600080fd5b5061004e6100bf565b60405161005b91906107ef565b60405180910390f35b34801561007057600080fd5b506100796100e3565b60405161008691906107ef565b60405180910390f35b6100a960048036038101906100a491906108d9565b610107565b6040516100b69190610bc2565b60405180910390f35b7f000000000000000000000000000000000000000000000000000000000000000081565b7f000000000000000000000000000000000000000000000000000000000000000081565b61010f6106e9565b60018585905014610155576040517f08c379a000000000000000000000000000000000000000000000000000000000815260040161014c90610c67565b60405180910390fd5b600080600281111561016a57610169610986565b5b8686600081811061017e5761017d610c87565b5b90506060020160000160000160208101906101999190610cdb565b60028111156101ab576101aa610986565b5b03610276577f000000000000000000000000000000000000000000000000000000000000000073ffffffffffffffffffffffffffffffffffffffff1663d0e30db087876000818110610200576101ff610c87565b5b905060600201604001356040518263ffffffff1660e01b81526004016000604051808303818588803b15801561023557600080fd5b505af1158015610249573d6000803e3d6000fd5b50505050507f000000000000000000000000000000000000000000000000000000000000000090506102a8565b8585600081811061028a57610289610c87565b5b90506060020160000160200160208101906102a59190610d34565b90505b600084848101906102b99190610e5a565b905060007f0000000000000000000000000000000000000000000000000000000000000000905060008173ffffffffffffffffffffffffffffffffffffffff1663026b1d5f6040518163ffffffff1660e01b8152600401602060405180830381865afa15801561032d573d6000803e3d6000fd5b505050506040513d601f19601f820116820180604052508101906103519190610e9c565b905060008190508473ffffffffffffffffffffffffffffffffffffffff1663095ea7b3838c8c600081811061038957610388610c87565b5b905060600201604001356040518363ffffffff1660e01b81526004016103b0929190610ed8565b6020604051808303816000875af11580156103cf573d6000803e3d6000fd5b505050506040513d601f19601f820116820180604052508101906103f39190610f39565b508073ffffffffffffffffffffffffffffffffffffffff1663573ade81868c8c600081811061042557610424610c87565b5b905060600201604001358760000151336040518563ffffffff1660e01b81526004016104549493929190610f66565b6020604051808303816000875af1158015610473573d6000803e3d6000fd5b505050506040513d601f19601f820116820180604052508101906104979190610fc0565b506104df8a8a60008181106104af576104ae610c87565b5b9050606002018036038101906104c5919061108d565b6104d1600160006104f2565b61069d90919063ffffffff16565b6060015195505050505050949350505050565b6104fa61071e565b60008367ffffffffffffffff81111561051657610515610d77565b5b60405190808252806020026020018201604052801561054f57816020015b61053c61074c565b8152602001906001900390816105345790505b50905060008367ffffffffffffffff81111561056e5761056d610d77565b5b6040519080825280602002602001820160405280156105a757816020015b61059461074c565b81526020019060019003908161058c5790505b50905060008067ffffffffffffffff8111156105c6576105c5610d77565b5b6040519080825280602002602001820160405280156105ff57816020015b6105ec61074c565b8152602001906001900390816105e45790505b50905060405180608001604052806000815260200160008152602001600081526020016040518060a001604052808681526020018581526020018481526020017ffffffffffffffffffffffffffffffffffffffffffffffffffffffffffffffffe60010b81526020017fffffffffffffffffffffffffffffffffffffffffffffffffffffffffffffffff60020b815250815250935050505092915050565b6106a561071e565b818360600151600001518460000180518091906106c1906110e9565b815250815181106106d5576106d4610c87565b5b602002602001018190525082905092915050565b6040518060a00160405280606081526020016060815260200160608152602001600060010b8152602001600060020b81525090565b60405180608001604052806000815260200160008152602001600081526020016107466106e9565b81525090565b604051806040016040528061075f61076c565b8152602001600081525090565b60405180604001604052806000600281111561078b5761078a610986565b5b8152602001600073ffffffffffffffffffffffffffffffffffffffff1681525090565b600073ffffffffffffffffffffffffffffffffffffffff82169050919050565b60006107d9826107ae565b9050919050565b6107e9816107ce565b82525050565b600060208201905061080460008301846107e0565b92915050565b6000604051905090565b600080fd5b600080fd5b600080fd5b600080fd5b600080fd5b60008083601f8401126108435761084261081e565b5b8235905067ffffffffffffffff8111156108605761085f610823565b5b60208301915083606082028301111561087c5761087b610828565b5b9250929050565b60008083601f8401126108995761089861081e565b5b8235905067ffffffffffffffff8111156108b6576108b5610823565b5b6020830191508360018202830111156108d2576108d1610828565b5b9250929050565b600080600080604085870312156108f3576108f2610814565b5b600085013567ffffffffffffffff81111561091157610910610819565b5b61091d8782880161082d565b9450945050602085013567ffffffffffffffff8111156109405761093f610819565b5b61094c87828801610883565b925092505092959194509250565b600081519050919050565b600082825260208201905092915050565b6000819050602082019050919050565b7f4e487b7100000000000000000000000000000000000000000000000000000000600052602160045260246000fd5b600381106109c6576109c5610986565b5b50565b60008190506109d7826109b5565b919050565b60006109e7826109c9565b9050919050565b6109f7816109dc565b82525050565b610a06816107ce565b82525050565b604082016000820151610a2260008501826109ee565b506020820151610a3560208501826109fd565b50505050565b6000819050919050565b610a4e81610a3b565b82525050565b606082016000820151610a6a6000850182610a0c565b506020820151610a7d6040850182610a45565b50505050565b6000610a8f8383610a54565b60608301905092915050565b6000602082019050919050565b6000610ab38261095a565b610abd8185610965565b9350610ac883610976565b8060005b83811015610af9578151610ae08882610a83565b9750610aeb83610a9b565b925050600181019050610acc565b5085935050505092915050565b60008160010b9050919050565b610b1c81610b06565b82525050565b60008160020b9050919050565b610b3881610b22565b82525050565b600060a0830160008301518482036000860152610b5b8282610aa8565b91505060208301518482036020860152610b758282610aa8565b91505060408301518482036040860152610b8f8282610aa8565b9150506060830151610ba46060860182610b13565b506080830151610bb76080860182610b2f565b508091505092915050565b60006020820190508181036000830152610bdc8184610b3e565b905092915050565b600082825260208201905092915050565b7f7468657265206d7573742062652065786163746c79203120696e70757420617360008201527f7365740000000000000000000000000000000000000000000000000000000000602082015250565b6000610c51602383610be4565b9150610c5c82610bf5565b604082019050919050565b60006020820190508181036000830152610c8081610c44565b9050919050565b7f4e487b7100000000000000000000000000000000000000000000000000000000600052603260045260246000fd5b60038110610cc357600080fd5b50565b600081359050610cd581610cb6565b92915050565b600060208284031215610cf157610cf0610814565b5b6000610cff84828501610cc6565b91505092915050565b610d11816107ce565b8114610d1c57600080fd5b50565b600081359050610d2e81610d08565b92915050565b600060208284031215610d4a57610d49610814565b5b6000610d5884828501610d1f565b91505092915050565b600080fd5b6000601f19601f8301169050919050565b7f4e487b7100000000000000000000000000000000000000000000000000000000600052604160045260246000fd5b610daf82610d66565b810181811067ffffffffffffffff82111715610dce57610dcd610d77565b5b80604052505050565b6000610de161080a565b9050610ded8282610da6565b919050565b610dfb81610a3b565b8114610e0657600080fd5b50565b600081359050610e1881610df2565b92915050565b600060208284031215610e3457610e33610d61565b5b610e3e6020610dd7565b90506000610e4e84828501610e09565b60008301525092915050565b600060208284031215610e7057610e6f610814565b5b6000610e7e84828501610e1e565b91505092915050565b600081519050610e9681610d08565b92915050565b600060208284031215610eb257610eb1610814565b5b6000610ec084828501610e87565b91505092915050565b610ed281610a3b565b82525050565b6000604082019050610eed60008301856107e0565b610efa6020830184610ec9565b9392505050565b60008115159050919050565b610f1681610f01565b8114610f2157600080fd5b50565b600081519050610f3381610f0d565b92915050565b600060208284031215610f4f57610f4e610814565b5b6000610f5d84828501610f24565b91505092915050565b6000608082019050610f7b60008301876107e0565b610f886020830186610ec9565b610f956040830185610ec9565b610fa260608301846107e0565b95945050505050565b600081519050610fba81610df2565b92915050565b600060208284031215610fd657610fd5610814565b5b6000610fe484828501610fab565b91505092915050565b60006040828403121561100357611002610d61565b5b61100d6040610dd7565b9050600061101d84828501610cc6565b600083015250602061103184828501610d1f565b60208301525092915050565b60006060828403121561105357611052610d61565b5b61105d6040610dd7565b9050600061106d84828501610fed565b600083015250604061108184828501610e09565b60208301525092915050565b6000606082840312156110a3576110a2610814565b5b60006110b18482850161103d565b91505092915050565b7f4e487b7100000000000000000000000000000000000000000000000000000000600052601160045260246000fd5b60006110f482610a3b565b91507fffffffffffffffffffffffffffffffffffffffffffffffffffffffffffffffff8203611126576111256110ba565b5b60018201905091905056fea2646970667358221220b09e6e8ea2a6a2efa6f556f700c5bce86dc70bedd91255775bb904ea655915de64736f6c63430008120033",
  "devdoc": {
    "kind": "dev",
    "methods": {},
    "version": 1
  },
  "userdoc": {
    "kind": "user",
    "methods": {},
    "version": 1
  },
  "storageLayout": {
    "storage": [],
    "types": null
  }
}