{
  "address": "0x8067cc8c72a84B7DddC6c272028Af56744dB5d43",
  "abi": [
    {
      "inputs": [
        {
          "internalType": "address",
          "name": "_poolAddressProviderAddress",
          "type": "address"
        },
        {
          "internalType": "address",
          "name": "_wethAddress",
          "type": "address"
        }
      ],
      "stateMutability": "nonpayable",
      "type": "constructor"
    },
    {
      "anonymous": false,
      "inputs": [
        {
          "indexed": false,
          "internalType": "address",
          "name": "debtToken",
          "type": "address"
        },
        {
          "indexed": false,
          "internalType": "uint256",
          "name": "amount",
          "type": "uint256"
        },
        {
          "indexed": false,
          "internalType": "uint256",
          "name": "interestRateMode",
          "type": "uint256"
        },
        {
          "indexed": false,
          "internalType": "address",
          "name": "assetAddress",
          "type": "address"
        },
        {
          "indexed": false,
          "internalType": "uint8",
          "name": "v",
          "type": "uint8"
        },
        {
          "indexed": false,
          "internalType": "bytes32",
          "name": "r",
          "type": "bytes32"
        },
        {
          "indexed": false,
          "internalType": "bytes32",
          "name": "s",
          "type": "bytes32"
        }
      ],
      "name": "Eraseme",
      "type": "event"
    },
    {
      "stateMutability": "payable",
      "type": "fallback"
    },
    {
      "inputs": [
        {
          "internalType": "bytes",
          "name": "argData",
          "type": "bytes"
        }
      ],
      "name": "afterAll",
      "outputs": [],
      "stateMutability": "payable",
      "type": "function"
    },
    {
      "inputs": [
        {
          "internalType": "bytes",
          "name": "argData",
          "type": "bytes"
        }
      ],
      "name": "beforeAll",
      "outputs": [],
      "stateMutability": "payable",
      "type": "function"
    },
    {
      "inputs": [
        {
          "components": [
            {
              "components": [
                {
                  "internalType": "enum AssetType",
                  "name": "assetType",
                  "type": "uint8"
                },
                {
                  "internalType": "address",
                  "name": "assetAddress",
                  "type": "address"
                }
              ],
              "internalType": "struct Asset",
              "name": "asset",
              "type": "tuple"
            },
            {
              "internalType": "uint256",
              "name": "amount",
              "type": "uint256"
            }
          ],
          "internalType": "struct AssetAmount[]",
          "name": "",
          "type": "tuple[]"
        },
        {
          "internalType": "bytes",
          "name": "argData",
          "type": "bytes"
        }
      ],
      "name": "execute",
      "outputs": [
        {
          "components": [
            {
              "components": [
                {
                  "components": [
                    {
                      "internalType": "enum AssetType",
                      "name": "assetType",
                      "type": "uint8"
                    },
                    {
                      "internalType": "address",
                      "name": "assetAddress",
                      "type": "address"
                    }
                  ],
                  "internalType": "struct Asset",
                  "name": "asset",
                  "type": "tuple"
                },
                {
                  "internalType": "uint256",
                  "name": "amount",
                  "type": "uint256"
                }
              ],
              "internalType": "struct AssetAmount[]",
              "name": "inputAssetAmounts",
              "type": "tuple[]"
            },
            {
              "components": [
                {
                  "components": [
                    {
                      "internalType": "enum AssetType",
                      "name": "assetType",
                      "type": "uint8"
                    },
                    {
                      "internalType": "address",
                      "name": "assetAddress",
                      "type": "address"
                    }
                  ],
                  "internalType": "struct Asset",
                  "name": "asset",
                  "type": "tuple"
                },
                {
                  "internalType": "uint256",
                  "name": "amount",
                  "type": "uint256"
                }
              ],
              "internalType": "struct AssetAmount[]",
              "name": "outputAssetAmounts",
              "type": "tuple[]"
            },
            {
              "components": [
                {
                  "components": [
                    {
                      "internalType": "enum AssetType",
                      "name": "assetType",
                      "type": "uint8"
                    },
                    {
                      "internalType": "address",
                      "name": "assetAddress",
                      "type": "address"
                    }
                  ],
                  "internalType": "struct Asset",
                  "name": "asset",
                  "type": "tuple"
                },
                {
                  "internalType": "uint256",
                  "name": "amount",
                  "type": "uint256"
                }
              ],
              "internalType": "struct AssetAmount[]",
              "name": "outputAssetAmountsToCaller",
              "type": "tuple[]"
            },
            {
              "internalType": "int16",
              "name": "nextStepIndex",
              "type": "int16"
            },
            {
              "internalType": "int24",
              "name": "fee",
              "type": "int24"
            }
          ],
          "internalType": "struct WorkflowStepResult",
          "name": "",
          "type": "tuple"
        }
      ],
      "stateMutability": "payable",
      "type": "function"
    },
    {
      "inputs": [],
      "name": "poolAddressProviderAddress",
      "outputs": [
        {
          "internalType": "address",
          "name": "",
          "type": "address"
        }
      ],
      "stateMutability": "view",
      "type": "function"
    },
    {
      "inputs": [],
      "name": "wethAddress",
      "outputs": [
        {
          "internalType": "address",
          "name": "",
          "type": "address"
        }
      ],
      "stateMutability": "view",
      "type": "function"
    },
    {
      "stateMutability": "payable",
      "type": "receive"
    }
  ],
  "transactionHash": "0x8374241589ff2bb6414c84c8774213a721128e06da71c1ca9856552b7fc77ba6",
  "args": [
    "0xa97684ead0e402dC232d5A977953DF7ECBaB3CDb",
    "0x82aF49447D8a07e3bd95BD0d56f35241523fBab1"
  ],
  "numDeployments": 1,
  "solcInputHash": "34a315e70aa05d95d9dbdd4f3a2e3e7e",
  "bytecode": "0x6101006040523480156200001257600080fd5b506040516200323d3803806200323d833981810160405281019062000038919062000311565b8173ffffffffffffffffffffffffffffffffffffffff1660808173ffffffffffffffffffffffffffffffffffffffff16815250508073ffffffffffffffffffffffffffffffffffffffff1660a08173ffffffffffffffffffffffffffffffffffffffff1681525050620000ba6305f5e1006200013360201b620003b01760201c565b6fffffffffffffffffffffffffffffffff191660c0816fffffffffffffffffffffffffffffffff191681525050620000fe600a6200013360201b620003b01760201c565b6fffffffffffffffffffffffffffffffff191660e0816fffffffffffffffffffffffffffffffff191681525050505062000358565b60008082036200014a57600060801b9050620001b8565b600082905060006200016282620001bd60201b60201c565b905060708110156200017d578060700382901b915062000192565b607081111562000191576070810382901c91505b5b607081613fff01901b6dffffffffffffffffffffffffffff83161791508160801b925050505b919050565b6000808211620001cc57600080fd5b60007001000000000000000000000000000000008310620001f557608083901c92506080810190505b6801000000000000000083106200021457604083901c92506040810190505b64010000000083106200022f57602083901c92506020810190505b6201000083106200024857601083901c92506010810190505b61010083106200026057600883901c92506008810190505b601083106200027757600483901c92506004810190505b600483106200028e57600283901c92506002810190505b600283106200029e576001810190505b80915050919050565b600080fd5b600073ffffffffffffffffffffffffffffffffffffffff82169050919050565b6000620002d982620002ac565b9050919050565b620002eb81620002cc565b8114620002f757600080fd5b50565b6000815190506200030b81620002e0565b92915050565b600080604083850312156200032b576200032a620002a7565b5b60006200033b85828601620002fa565b92505060206200034e85828601620002fa565b9150509250929050565b60805160a05160c05160e051612e8b620003b260003960005050600081816107ce0152610820015260008181610117015281816101c501526102c201526000818161013b0152818161043201526105830152612e8b6000f3fe60806040526004361061004e5760003560e01c80634f0e0ef3146100575780635ee77cb0146100825780637bb26ca7146100ad578063b4110e0a146100dd578063d538a144146100f957610055565b3661005557005b005b34801561006357600080fd5b5061006c610115565b6040516100799190611ae4565b60405180910390f35b34801561008e57600080fd5b50610097610139565b6040516100a49190611ae4565b60405180910390f35b6100c760048036038101906100c29190611bce565b61015d565b6040516100d49190611eb7565b60405180910390f35b6100f760048036038101906100f29190611ed9565b610394565b005b610113600480360381019061010e9190611ed9565b6103a2565b005b7f000000000000000000000000000000000000000000000000000000000000000081565b7f000000000000000000000000000000000000000000000000000000000000000081565b6101656119de565b600083838101906101769190612182565b9050600081600001519050600061018b61042d565b90506000600160028111156101a3576101a2611c7b565b5b84604001516000015160028111156101be576101bd611c7b565b5b146101e9577f00000000000000000000000000000000000000000000000000000000000000006101f3565b8360400151602001515b90508360600151156102115761020e846000015182846104ce565b92505b8173ffffffffffffffffffffffffffffffffffffffff1663a415bcad828587602001518860800151336040518663ffffffff1660e01b815260040161025a9594939291906121cd565b600060405180830381600087803b15801561027457600080fd5b505af1158015610288573d6000803e3d6000fd5b50505050600060028111156102a05761029f611c7b565b5b84604001516000015160028111156102bb576102ba611c7b565b5b0361034c577f000000000000000000000000000000000000000000000000000000000000000073ffffffffffffffffffffffffffffffffffffffff16632e1a7d4d846040518263ffffffff1660e01b81526004016103199190612220565b600060405180830381600087803b15801561033357600080fd5b505af1158015610347573d6000803e3d6000fd5b505050505b6103826040518060400160405280866040015181526020018581525061037460006001610901565b610aac90919063ffffffff16565b60600151945050505050949350505050565b61039e8282610af8565b5050565b6103ac8282610af8565b5050565b60008082036103c557600060801b9050610428565b600082905060006103d582610d8f565b905060708110156103ee578060700382901b9150610402565b6070811115610401576070810382901c91505b5b607081613fff01901b6dffffffffffffffffffffffffffff83161791508160801b925050505b919050565b6000807f0000000000000000000000000000000000000000000000000000000000000000905060008173ffffffffffffffffffffffffffffffffffffffff1663026b1d5f6040518163ffffffff1660e01b8152600401602060405180830381865afa1580156104a0573d6000803e3d6000fd5b505050506040513d601f19601f820116820180604052508101906104c49190612250565b9050809250505090565b60008060008060008060008773ffffffffffffffffffffffffffffffffffffffff1663bf92857c336040518263ffffffff1660e01b81526004016105129190611ae4565b60c060405180830381865afa15801561052f573d6000803e3d6000fd5b505050506040513d601f19601f820116820180604052508101906105539190612292565b809650819750829850839b50849950859a505050505050505050505050600061057c8287610e70565b90506000807f0000000000000000000000000000000000000000000000000000000000000000905060008173ffffffffffffffffffffffffffffffffffffffff1663fca513a86040518163ffffffff1660e01b8152600401602060405180830381865afa1580156105f1573d6000803e3d6000fd5b505050506040513d601f19601f820116820180604052508101906106159190612250565b90506000600167ffffffffffffffff81111561063457610633611f3c565b5b6040519080825280602002602001820160405280156106625781602001602082028036833780820191505090505b509050888160008151811061067a5761067961231f565b5b602002602001019073ffffffffffffffffffffffffffffffffffffffff16908173ffffffffffffffffffffffffffffffffffffffff16815250508173ffffffffffffffffffffffffffffffffffffffff16639d23d9f2826040518263ffffffff1660e01b81526004016106ed91906123fd565b600060405180830381865afa15801561070a573d6000803e3d6000fd5b505050506040513d6000823e3d601f19601f8201168201806040525081019061073391906124e2565b6000815181106107465761074561231f565b5b6020026020010151935050505060008673ffffffffffffffffffffffffffffffffffffffff1663313ce5676040518163ffffffff1660e01b8152600401602060405180830381865afa1580156107a0573d6000803e3d6000fd5b505050506040513d601f19601f820116820180604052508101906107c49190612564565b90506000806108177f00000000000000000000000000000000000000000000000000000000000000006107f6866103b0565b6fffffffffffffffffffffffffffffffff1916610eed90919063ffffffff16565b905060006108697f0000000000000000000000000000000000000000000000000000000000000000610848886103b0565b6fffffffffffffffffffffffffffffffff1916610eed90919063ffffffff16565b905061089182826fffffffffffffffffffffffffffffffff1916610eed90919063ffffffff16565b9250505060006108ac83600a6108a791906126f3565b6103b0565b90506108d481836fffffffffffffffffffffffffffffffff19166113ae90919063ffffffff16565b91506108f2826fffffffffffffffffffffffffffffffff1916611839565b96505050505050509392505050565b610909611a13565b60008367ffffffffffffffff81111561092557610924611f3c565b5b60405190808252806020026020018201604052801561095e57816020015b61094b611a41565b8152602001906001900390816109435790505b50905060008367ffffffffffffffff81111561097d5761097c611f3c565b5b6040519080825280602002602001820160405280156109b657816020015b6109a3611a41565b81526020019060019003908161099b5790505b50905060008067ffffffffffffffff8111156109d5576109d4611f3c565b5b604051908082528060200260200182016040528015610a0e57816020015b6109fb611a41565b8152602001906001900390816109f35790505b50905060405180608001604052806000815260200160008152602001600081526020016040518060a001604052808681526020018581526020018481526020017ffffffffffffffffffffffffffffffffffffffffffffffffffffffffffffffffe60010b81526020017fffffffffffffffffffffffffffffffffffffffffffffffffffffffffffffffff60020b815250815250935050505092915050565b610ab4611a13565b81836060015160200151846020018051809190610ad09061273e565b81525081518110610ae457610ae361231f565b5b602002602001018190525082905092915050565b60008282810190610b099190612934565b90506000610b1561042d565b905060005b8251811015610d88576000610b6c83858481518110610b3c57610b3b61231f565b5b602002602001015160400151868581518110610b5b57610b5a61231f565b5b602002602001015160200151611937565b90507faf7a7c4c43180d3264ffb50739bd6032e52bbae7f1ef9507d54dd54e80ee06c281858481518110610ba357610ba261231f565b5b602002602001015160000151868581518110610bc257610bc161231f565b5b602002602001015160200151878681518110610be157610be061231f565b5b602002602001015160400151888781518110610c0057610bff61231f565b5b602002602001015160600151898881518110610c1f57610c1e61231f565b5b6020026020010151608001518a8981518110610c3e57610c3d61231f565b5b602002602001015160a00151604051610c5d979695949392919061299b565b60405180910390a18073ffffffffffffffffffffffffffffffffffffffff16630b52d5583330878681518110610c9657610c9561231f565b5b6020026020010151600001517fffffffffffffffffffffffffffffffffffffffffffffffffffffffffffffffff898881518110610cd657610cd561231f565b5b6020026020010151606001518a8981518110610cf557610cf461231f565b5b6020026020010151608001518b8a81518110610d1457610d1361231f565b5b602002602001015160a001516040518863ffffffff1660e01b8152600401610d429796959493929190612a0a565b600060405180830381600087803b158015610d5c57600080fd5b505af1158015610d70573d6000803e3d6000fd5b50505050508080610d809061273e565b915050610b1a565b5050505050565b6000808211610d9d57600080fd5b60007001000000000000000000000000000000008310610dc557608083901c92506080810190505b680100000000000000008310610de357604083901c92506040810190505b6401000000008310610dfd57602083901c92506020810190505b620100008310610e1557601083901c92506010810190505b6101008310610e2c57600883901c92506008810190505b60108310610e4257600483901c92506004810190505b60048310610e5857600283901c92506002810190505b60028310610e67576001810190505b80915050919050565b600081600011158015610e865750620186a08211155b610ec5576040517f08c379a0000000000000000000000000000000000000000000000000000000008152600401610ebc90612afc565b60405180910390fd5b60008284610ed39190612b1c565b9050620186a081610ee49190612b8d565b91505092915050565b600080617fff60708560801c6fffffffffffffffffffffffffffffffff16901c166fffffffffffffffffffffffffffffffff1690506000617fff60708560801c6fffffffffffffffffffffffffffffffff16901c166fffffffffffffffffffffffffffffffff169050617fff8203610fa657617fff8103610f85576f7fff800000000000000000000000000060801b925050506113a8565b6f8000000000000000000000000000000060801b84168518925050506113a8565b617fff810361102457600060801b6dffffffffffffffffffffffffffff60801b85166fffffffffffffffffffffffffffffffff191614610ffd576f7fff800000000000000000000000000060801b925050506113a8565b6f8000000000000000000000000000000060801b84861816600060801b17925050506113a8565b600060801b6f7fffffffffffffffffffffffffffffff60801b85166fffffffffffffffffffffffffffffffff1916036110dd57600060801b6f7fffffffffffffffffffffffffffffff60801b86166fffffffffffffffffffffffffffffffff1916036110a7576f7fff800000000000000000000000000060801b925050506113a8565b6f8000000000000000000000000000000060801b848618166f7fff000000000000000000000000000060801b17925050506113a8565b60006dffffffffffffffffffffffffffff8560801c166fffffffffffffffffffffffffffffffff16905060008203611118576001915061112d565b6e010000000000000000000000000000811790505b60006dffffffffffffffffffffffffffff8760801c166fffffffffffffffffffffffffffffffff16905060008403611190576000811461118b57600061117282610d8f565b60e20390508082901b9150600194506072810384019350505b6111a9565b60726e0100000000000000000000000000008217901b90505b8181816111b9576111b8612b5e565b5b0490506000810361122357600060801b6f8000000000000000000000000000000060801b878918166fffffffffffffffffffffffffffffffff19161161120357600060801b611218565b6f8000000000000000000000000000000060801b5b9450505050506113a8565b6d100000000000000000000000000081101561124257611241612bbe565b5b60006e0800000000000000000000000000008210156112a3576e040000000000000000000000000000821015611298576e020000000000000000000000000000821015611290576070611293565b60715b61129b565b60725b60ff166112ad565b6112ac82610d8f565b5b9050614071840181860111156112cb57617fff945060009150611368565b83613ffc8287010110156112e6576000945060009150611367565b83613f8c8287010110156113345783613ffc860111156113115783613ffc86010382901b915061132b565b83613ffc8601101561132a57613ffc8585030382901c91505b5b60009450611366565b6070811115611347576070810382901c91505b6dffffffffffffffffffffffffffff8216915083613f8d828701010394505b5b5b81607086901b6f8000000000000000000000000000000060801b898b181660801c6fffffffffffffffffffffffffffffffff16171760801b955050505050505b92915050565b600080617fff60708560801c6fffffffffffffffffffffffffffffffff16901c166fffffffffffffffffffffffffffffffff1690506000617fff60708560801c6fffffffffffffffffffffffffffffffff16901c166fffffffffffffffffffffffffffffffff169050617fff820361154057617fff81036114cf57836fffffffffffffffffffffffffffffffff1916856fffffffffffffffffffffffffffffffff191603611477576f8000000000000000000000000000000060801b8416851892505050611833565b6f8000000000000000000000000000000060801b8486186fffffffffffffffffffffffffffffffff1916036114b25783851792505050611833565b6f7fff800000000000000000000000000060801b92505050611833565b600060801b6f7fffffffffffffffffffffffffffffff60801b85166fffffffffffffffffffffffffffffffff19160361151f576f7fff800000000000000000000000000060801b92505050611833565b6f8000000000000000000000000000000060801b8416851892505050611833565b617fff81036115ba57600060801b6f7fffffffffffffffffffffffffffffff60801b86166fffffffffffffffffffffffffffffffff191603611599576f7fff800000000000000000000000000060801b92505050611833565b6f8000000000000000000000000000000060801b8516841892505050611833565b60006dffffffffffffffffffffffffffff8660801c166fffffffffffffffffffffffffffffffff169050600083036115f5576001925061160a565b6e010000000000000000000000000000811790505b60006dffffffffffffffffffffffffffff8660801c166fffffffffffffffffffffffffffffffff16905060008303611645576001925061165a565b6e010000000000000000000000000000811790505b8082029150600082036116c657600060801b6f8000000000000000000000000000000060801b878918166fffffffffffffffffffffffffffffffff1916116116a657600060801b6116bb565b6f8000000000000000000000000000000060801b5b945050505050611833565b828401935060007c020000000000000000000000000000000000000000000000000000000083101561172d577c01000000000000000000000000000000000000000000000000000000008310156117255761172083610d8f565b611728565b60e05b611730565b60e15b9050614070818601101561174b5760009450600092506117f3565b6140e0818601101561178f5761407085101561177057846140700383901c9250611786565b61407085111561178557614070850383901b92505b5b600094506117f2565b61c0dd81860111156117a957617fff9450600092506117f1565b60708111156117c0576070810383901c92506117d4565b60708110156117d3578060700383901b92505b5b6dffffffffffffffffffffffffffff831692506140df8186010394505b5b5b82607086901b6f8000000000000000000000000000000060801b898b181660801c6fffffffffffffffffffffffffffffffff16171760801b955050505050505b92915050565b600080617fff60708460801c6fffffffffffffffffffffffffffffffff16901c166fffffffffffffffffffffffffffffffff169050613fff811015611882576000915050611932565b6f800000000000000000000000000000008360801c6fffffffffffffffffffffffffffffffff16106118b357600080fd5b6140fe8111156118c257600080fd5b60006e0100000000000000000000000000006dffffffffffffffffffffffffffff8560801c6fffffffffffffffffffffffffffffffff161617905061406f821015611916578161406f0381901c905061192c565b61406f82111561192b5761406f820381901b90505b5b80925050505b919050565b6000808473ffffffffffffffffffffffffffffffffffffffff166335ea6a75856040518263ffffffff1660e01b81526004016119739190611ae4565b6101e060405180830381865afa158015611991573d6000803e3d6000fd5b505050506040513d601f19601f820116820180604052508101906119b59190612e27565b9050600183036119cd578061012001519150506119d7565b8061014001519150505b9392505050565b6040518060a00160405280606081526020016060815260200160608152602001600060010b8152602001600060020b81525090565b6040518060800160405280600081526020016000815260200160008152602001611a3b6119de565b81525090565b6040518060400160405280611a54611a61565b8152602001600081525090565b604051806040016040528060006002811115611a8057611a7f611c7b565b5b8152602001600073ffffffffffffffffffffffffffffffffffffffff1681525090565b600073ffffffffffffffffffffffffffffffffffffffff82169050919050565b6000611ace82611aa3565b9050919050565b611ade81611ac3565b82525050565b6000602082019050611af96000830184611ad5565b92915050565b6000604051905090565b600080fd5b600080fd5b600080fd5b600080fd5b600080fd5b60008083601f840112611b3857611b37611b13565b5b8235905067ffffffffffffffff811115611b5557611b54611b18565b5b602083019150836060820283011115611b7157611b70611b1d565b5b9250929050565b60008083601f840112611b8e57611b8d611b13565b5b8235905067ffffffffffffffff811115611bab57611baa611b18565b5b602083019150836001820283011115611bc757611bc6611b1d565b5b9250929050565b60008060008060408587031215611be857611be7611b09565b5b600085013567ffffffffffffffff811115611c0657611c05611b0e565b5b611c1287828801611b22565b9450945050602085013567ffffffffffffffff811115611c3557611c34611b0e565b5b611c4187828801611b78565b925092505092959194509250565b600081519050919050565b600082825260208201905092915050565b6000819050602082019050919050565b7f4e487b7100000000000000000000000000000000000000000000000000000000600052602160045260246000fd5b60038110611cbb57611cba611c7b565b5b50565b6000819050611ccc82611caa565b919050565b6000611cdc82611cbe565b9050919050565b611cec81611cd1565b82525050565b611cfb81611ac3565b82525050565b604082016000820151611d176000850182611ce3565b506020820151611d2a6020850182611cf2565b50505050565b6000819050919050565b611d4381611d30565b82525050565b606082016000820151611d5f6000850182611d01565b506020820151611d726040850182611d3a565b50505050565b6000611d848383611d49565b60608301905092915050565b6000602082019050919050565b6000611da882611c4f565b611db28185611c5a565b9350611dbd83611c6b565b8060005b83811015611dee578151611dd58882611d78565b9750611de083611d90565b925050600181019050611dc1565b5085935050505092915050565b60008160010b9050919050565b611e1181611dfb565b82525050565b60008160020b9050919050565b611e2d81611e17565b82525050565b600060a0830160008301518482036000860152611e508282611d9d565b91505060208301518482036020860152611e6a8282611d9d565b91505060408301518482036040860152611e848282611d9d565b9150506060830151611e996060860182611e08565b506080830151611eac6080860182611e24565b508091505092915050565b60006020820190508181036000830152611ed18184611e33565b905092915050565b60008060208385031215611ef057611eef611b09565b5b600083013567ffffffffffffffff811115611f0e57611f0d611b0e565b5b611f1a85828601611b78565b92509250509250929050565b600080fd5b6000601f19601f8301169050919050565b7f4e487b7100000000000000000000000000000000000000000000000000000000600052604160045260246000fd5b611f7482611f2b565b810181811067ffffffffffffffff82111715611f9357611f92611f3c565b5b80604052505050565b6000611fa6611aff565b9050611fb28282611f6b565b919050565b611fc081611d30565b8114611fcb57600080fd5b50565b600081359050611fdd81611fb7565b92915050565b60038110611ff057600080fd5b50565b60008135905061200281611fe3565b92915050565b61201181611ac3565b811461201c57600080fd5b50565b60008135905061202e81612008565b92915050565b60006040828403121561204a57612049611f26565b5b6120546040611f9c565b9050600061206484828501611ff3565b60008301525060206120788482850161201f565b60208301525092915050565b60008115159050919050565b61209981612084565b81146120a457600080fd5b50565b6000813590506120b681612090565b92915050565b600061ffff82169050919050565b6120d3816120bc565b81146120de57600080fd5b50565b6000813590506120f0816120ca565b92915050565b600060c0828403121561210c5761210b611f26565b5b61211660a0611f9c565b9050600061212684828501611fce565b600083015250602061213a84828501611fce565b602083015250604061214e84828501612034565b6040830152506080612162848285016120a7565b60608301525060a0612176848285016120e1565b60808301525092915050565b600060c0828403121561219857612197611b09565b5b60006121a6848285016120f6565b91505092915050565b6121b881611d30565b82525050565b6121c7816120bc565b82525050565b600060a0820190506121e26000830188611ad5565b6121ef60208301876121af565b6121fc60408301866121af565b61220960608301856121be565b6122166080830184611ad5565b9695505050505050565b600060208201905061223560008301846121af565b92915050565b60008151905061224a81612008565b92915050565b60006020828403121561226657612265611b09565b5b60006122748482850161223b565b91505092915050565b60008151905061228c81611fb7565b92915050565b60008060008060008060c087890312156122af576122ae611b09565b5b60006122bd89828a0161227d565b96505060206122ce89828a0161227d565b95505060406122df89828a0161227d565b94505060606122f089828a0161227d565b935050608061230189828a0161227d565b92505060a061231289828a0161227d565b9150509295509295509295565b7f4e487b7100000000000000000000000000000000000000000000000000000000600052603260045260246000fd5b600081519050919050565b600082825260208201905092915050565b6000819050602082019050919050565b60006123868383611cf2565b60208301905092915050565b6000602082019050919050565b60006123aa8261234e565b6123b48185612359565b93506123bf8361236a565b8060005b838110156123f05781516123d7888261237a565b97506123e283612392565b9250506001810190506123c3565b5085935050505092915050565b60006020820190508181036000830152612417818461239f565b905092915050565b600067ffffffffffffffff82111561243a57612439611f3c565b5b602082029050602081019050919050565b600061245e6124598461241f565b611f9c565b9050808382526020820190506020840283018581111561248157612480611b1d565b5b835b818110156124aa5780612496888261227d565b845260208401935050602081019050612483565b5050509392505050565b600082601f8301126124c9576124c8611b13565b5b81516124d984826020860161244b565b91505092915050565b6000602082840312156124f8576124f7611b09565b5b600082015167ffffffffffffffff81111561251657612515611b0e565b5b612522848285016124b4565b91505092915050565b600060ff82169050919050565b6125418161252b565b811461254c57600080fd5b50565b60008151905061255e81612538565b92915050565b60006020828403121561257a57612579611b09565b5b60006125888482850161254f565b91505092915050565b7f4e487b7100000000000000000000000000000000000000000000000000000000600052601160045260246000fd5b60008160011c9050919050565b6000808291508390505b6001851115612617578086048111156125f3576125f2612591565b5b60018516156126025780820291505b8081029050612610856125c0565b94506125d7565b94509492505050565b60008261263057600190506126ec565b8161263e57600090506126ec565b8160018114612654576002811461265e5761268d565b60019150506126ec565b60ff8411156126705761266f612591565b5b8360020a91508482111561268757612686612591565b5b506126ec565b5060208310610133831016604e8410600b84101617156126c25782820a9050838111156126bd576126bc612591565b5b6126ec565b6126cf84848460016125cd565b925090508184048111156126e6576126e5612591565b5b81810290505b9392505050565b60006126fe82611d30565b91506127098361252b565b92506127367fffffffffffffffffffffffffffffffffffffffffffffffffffffffffffffffff8484612620565b905092915050565b600061274982611d30565b91507fffffffffffffffffffffffffffffffffffffffffffffffffffffffffffffffff820361277b5761277a612591565b5b600182019050919050565b600067ffffffffffffffff8211156127a1576127a0611f3c565b5b602082029050602081019050919050565b6000813590506127c181612538565b92915050565b6000819050919050565b6127da816127c7565b81146127e557600080fd5b50565b6000813590506127f7816127d1565b92915050565b600060c0828403121561281357612812611f26565b5b61281d60c0611f9c565b9050600061282d84828501611fce565b600083015250602061284184828501611fce565b60208301525060406128558482850161201f565b6040830152506060612869848285016127b2565b606083015250608061287d848285016127e8565b60808301525060a0612891848285016127e8565b60a08301525092915050565b60006128b06128ab84612786565b611f9c565b90508083825260208201905060c084028301858111156128d3576128d2611b1d565b5b835b818110156128fc57806128e888826127fd565b84526020840193505060c0810190506128d5565b5050509392505050565b600082601f83011261291b5761291a611b13565b5b813561292b84826020860161289d565b91505092915050565b60006020828403121561294a57612949611b09565b5b600082013567ffffffffffffffff81111561296857612967611b0e565b5b61297484828501612906565b91505092915050565b6129868161252b565b82525050565b612995816127c7565b82525050565b600060e0820190506129b0600083018a611ad5565b6129bd60208301896121af565b6129ca60408301886121af565b6129d76060830187611ad5565b6129e4608083018661297d565b6129f160a083018561298c565b6129fe60c083018461298c565b98975050505050505050565b600060e082019050612a1f600083018a611ad5565b612a2c6020830189611ad5565b612a3960408301886121af565b612a4660608301876121af565b612a53608083018661297d565b612a6060a083018561298c565b612a6d60c083018461298c565b98975050505050505050565b600082825260208201905092915050565b7f70657263656e74206d757374206265206265747765656e203020616e6420313060008201527f3030303000000000000000000000000000000000000000000000000000000000602082015250565b6000612ae6602483612a79565b9150612af182612a8a565b604082019050919050565b60006020820190508181036000830152612b1581612ad9565b9050919050565b6000612b2782611d30565b9150612b3283611d30565b9250828202612b4081611d30565b91508282048414831517612b5757612b56612591565b5b5092915050565b7f4e487b7100000000000000000000000000000000000000000000000000000000600052601260045260246000fd5b6000612b9882611d30565b9150612ba383611d30565b925082612bb357612bb2612b5e565b5b828204905092915050565b7f4e487b7100000000000000000000000000000000000000000000000000000000600052600160045260246000fd5b600060208284031215612c0357612c02611f26565b5b612c0d6020611f9c565b90506000612c1d8482850161227d565b60008301525092915050565b60006fffffffffffffffffffffffffffffffff82169050919050565b612c4e81612c29565b8114612c5957600080fd5b50565b600081519050612c6b81612c45565b92915050565b600064ffffffffff82169050919050565b612c8b81612c71565b8114612c9657600080fd5b50565b600081519050612ca881612c82565b92915050565b600081519050612cbd816120ca565b92915050565b60006101e08284031215612cda57612cd9611f26565b5b612ce56101e0611f9c565b90506000612cf584828501612bed565b6000830152506020612d0984828501612c5c565b6020830152506040612d1d84828501612c5c565b6040830152506060612d3184828501612c5c565b6060830152506080612d4584828501612c5c565b60808301525060a0612d5984828501612c5c565b60a08301525060c0612d6d84828501612c99565b60c08301525060e0612d8184828501612cae565b60e083015250610100612d968482850161223b565b61010083015250610120612dac8482850161223b565b61012083015250610140612dc28482850161223b565b61014083015250610160612dd88482850161223b565b61016083015250610180612dee84828501612c5c565b610180830152506101a0612e0484828501612c5c565b6101a0830152506101c0612e1a84828501612c5c565b6101c08301525092915050565b60006101e08284031215612e3e57612e3d611b09565b5b6000612e4c84828501612cc3565b9150509291505056fea2646970667358221220e493ec0f7c78feb918fe528599e98ff1ed0938e0024cb5efcd449d2b9bcbd0b064736f6c63430008120033",
  "devdoc": {
    "kind": "dev",
    "methods": {
      "afterAll(bytes)": {
        "params": {
          "argData": "Step specific arguments in ABI encoding"
        }
      },
      "beforeAll(bytes)": {
        "params": {
          "argData": "Step specific arguments in ABI encoding"
        }
      }
    },
    "version": 1
  },
  "userdoc": {
    "kind": "user",
    "methods": {
      "afterAll(bytes)": {
        "notice": "called by WorkflowRunner to execute some logic after the workflow ends."
      },
      "beforeAll(bytes)": {
        "notice": "called by WorkflowRunner to execute some logic before the workflow starts."
      }
    },
    "version": 1
  },
  "storageLayout": {
    "storage": [],
    "types": null
  }
}