{
  "address": "0x860d4ded98d32B7Ab601898294Bd7d3bCBDBa095",
  "abi": [
    {
      "inputs": [
        {
          "internalType": "address",
          "name": "_frontDoorAddress",
          "type": "address"
        },
        {
          "internalType": "address",
          "name": "_stargateComposerAddress",
          "type": "address"
        }
      ],
      "stateMutability": "nonpayable",
      "type": "constructor"
    },
    {
      "anonymous": false,
      "inputs": [
        {
          "indexed": false,
          "internalType": "string",
          "name": "reason",
          "type": "string"
        }
      ],
      "name": "ContinuationFailure",
      "type": "event"
    },
    {
      "anonymous": false,
      "inputs": [
        {
          "indexed": false,
          "internalType": "bytes",
          "name": "reason",
          "type": "bytes"
        }
      ],
      "name": "ContinuationFailure",
      "type": "event"
    },
    {
      "anonymous": false,
      "inputs": [
        {
          "indexed": false,
          "internalType": "uint256",
          "name": "reason",
          "type": "uint256"
        }
      ],
      "name": "ContinuationFailure",
      "type": "event"
    },
    {
      "anonymous": false,
      "inputs": [],
      "name": "ContinuationSuccess",
      "type": "event"
    },
    {
      "anonymous": false,
      "inputs": [
        {
          "indexed": false,
          "internalType": "address",
          "name": "tokenAddress",
          "type": "address"
        },
        {
          "indexed": false,
          "internalType": "uint256",
          "name": "amount",
          "type": "uint256"
        },
        {
          "components": [
            {
              "internalType": "address",
              "name": "userAddress",
              "type": "address"
            },
            {
              "internalType": "uint256",
              "name": "nonce",
              "type": "uint256"
            },
            {
              "components": [
                {
                  "internalType": "address",
                  "name": "workflowRunnerAddress",
                  "type": "address"
                },
                {
                  "components": [
                    {
                      "internalType": "uint16",
                      "name": "stepTypeId",
                      "type": "uint16"
                    },
                    {
                      "internalType": "address",
                      "name": "stepAddress",
                      "type": "address"
                    },
                    {
                      "components": [
                        {
                          "internalType": "bool",
                          "name": "sourceIsCaller",
                          "type": "bool"
                        },
                        {
                          "internalType": "bool",
                          "name": "amountIsPercent",
                          "type": "bool"
                        },
                        {
                          "components": [
                            {
                              "internalType": "enum AssetType",
                              "name": "assetType",
                              "type": "uint8"
                            },
                            {
                              "internalType": "address",
                              "name": "assetAddress",
                              "type": "address"
                            }
                          ],
                          "internalType": "struct Asset",
                          "name": "asset",
                          "type": "tuple"
                        },
                        {
                          "internalType": "uint256",
                          "name": "amount",
                          "type": "uint256"
                        }
                      ],
                      "internalType": "struct WorkflowStepInputAsset[]",
                      "name": "inputAssets",
                      "type": "tuple[]"
                    },
                    {
                      "internalType": "bytes",
                      "name": "argData",
                      "type": "bytes"
                    },
                    {
                      "internalType": "int16",
                      "name": "nextStepIndex",
                      "type": "int16"
                    }
                  ],
                  "internalType": "struct WorkflowStep[]",
                  "name": "steps",
                  "type": "tuple[]"
                },
                {
                  "components": [
                    {
                      "internalType": "uint16",
                      "name": "stepTypeId",
                      "type": "uint16"
                    },
                    {
                      "internalType": "address",
                      "name": "stepAddress",
                      "type": "address"
                    },
                    {
                      "internalType": "bytes",
                      "name": "argData",
                      "type": "bytes"
                    }
                  ],
                  "internalType": "struct BeforeAfter[]",
                  "name": "beforeAll",
                  "type": "tuple[]"
                },
                {
                  "components": [
                    {
                      "internalType": "uint16",
                      "name": "stepTypeId",
                      "type": "uint16"
                    },
                    {
                      "internalType": "address",
                      "name": "stepAddress",
                      "type": "address"
                    },
                    {
                      "internalType": "bytes",
                      "name": "argData",
                      "type": "bytes"
                    }
                  ],
                  "internalType": "struct BeforeAfter[]",
                  "name": "afterAll",
                  "type": "tuple[]"
                }
              ],
              "internalType": "struct Workflow",
              "name": "workflow",
              "type": "tuple"
            }
          ],
          "indexed": false,
          "internalType": "struct BridgePayload",
          "name": "bridgePayload",
          "type": "tuple"
        }
      ],
      "name": "SgReceiveCalled",
      "type": "event"
    },
    {
      "anonymous": false,
      "inputs": [
        {
          "indexed": false,
          "internalType": "uint256",
          "name": "nativeAmount",
          "type": "uint256"
        },
        {
          "indexed": false,
          "internalType": "uint256",
          "name": "assetAmount",
          "type": "uint256"
        },
        {
          "indexed": false,
          "internalType": "address",
          "name": "dstActionAddress",
          "type": "address"
        },
        {
          "indexed": false,
          "internalType": "uint16",
          "name": "dstChainId",
          "type": "uint16"
        },
        {
          "indexed": false,
          "internalType": "uint256",
          "name": "srcPoolId",
          "type": "uint256"
        },
        {
          "indexed": false,
          "internalType": "uint256",
          "name": "dstPoolId",
          "type": "uint256"
        },
        {
          "indexed": false,
          "internalType": "uint256",
          "name": "dstGasForCall",
          "type": "uint256"
        },
        {
          "indexed": false,
          "internalType": "uint256",
          "name": "dstNativeAmount",
          "type": "uint256"
        },
        {
          "indexed": false,
          "internalType": "uint256",
          "name": "minAmountOut",
          "type": "uint256"
        },
        {
          "indexed": false,
          "internalType": "bytes",
          "name": "continuationWorkflow",
          "type": "bytes"
        }
      ],
      "name": "StargateBridgeParamsEvent",
      "type": "event"
    },
    {
      "anonymous": false,
      "inputs": [
        {
          "indexed": false,
          "internalType": "string",
          "name": "stepType",
          "type": "string"
        },
        {
          "indexed": false,
          "internalType": "uint16",
          "name": "targetChain",
          "type": "uint16"
        },
        {
          "indexed": false,
          "internalType": "uint256",
          "name": "nonce",
          "type": "uint256"
        },
        {
          "components": [
            {
              "components": [
                {
                  "internalType": "enum AssetType",
                  "name": "assetType",
                  "type": "uint8"
                },
                {
                  "internalType": "address",
                  "name": "assetAddress",
                  "type": "address"
                }
              ],
              "internalType": "struct Asset",
              "name": "asset",
              "type": "tuple"
            },
            {
              "internalType": "uint256",
              "name": "amount",
              "type": "uint256"
            }
          ],
          "indexed": false,
          "internalType": "struct AssetAmount[]",
          "name": "expectedAssets",
          "type": "tuple[]"
        },
        {
          "indexed": false,
          "internalType": "bytes",
          "name": "continuationWorkflow",
          "type": "bytes"
        }
      ],
      "name": "WorkflowBridged",
      "type": "event"
    },
    {
      "inputs": [
        {
          "components": [
            {
              "components": [
                {
                  "internalType": "enum AssetType",
                  "name": "assetType",
                  "type": "uint8"
                },
                {
                  "internalType": "address",
                  "name": "assetAddress",
                  "type": "address"
                }
              ],
              "internalType": "struct Asset",
              "name": "asset",
              "type": "tuple"
            },
            {
              "internalType": "uint256",
              "name": "amount",
              "type": "uint256"
            }
          ],
          "internalType": "struct AssetAmount[]",
          "name": "inputAssetAmounts",
          "type": "tuple[]"
        },
        {
          "internalType": "bytes",
          "name": "argData",
          "type": "bytes"
        },
        {
          "internalType": "address",
          "name": "userAddress",
          "type": "address"
        }
      ],
      "name": "execute",
      "outputs": [
        {
          "components": [
            {
              "components": [
                {
                  "components": [
                    {
                      "internalType": "enum AssetType",
                      "name": "assetType",
                      "type": "uint8"
                    },
                    {
                      "internalType": "address",
                      "name": "assetAddress",
                      "type": "address"
                    }
                  ],
                  "internalType": "struct Asset",
                  "name": "asset",
                  "type": "tuple"
                },
                {
                  "internalType": "uint256",
                  "name": "amount",
                  "type": "uint256"
                }
              ],
              "internalType": "struct AssetAmount[]",
              "name": "inputAssetAmounts",
              "type": "tuple[]"
            },
            {
              "components": [
                {
                  "components": [
                    {
                      "internalType": "enum AssetType",
                      "name": "assetType",
                      "type": "uint8"
                    },
                    {
                      "internalType": "address",
                      "name": "assetAddress",
                      "type": "address"
                    }
                  ],
                  "internalType": "struct Asset",
                  "name": "asset",
                  "type": "tuple"
                },
                {
                  "internalType": "uint256",
                  "name": "amount",
                  "type": "uint256"
                }
              ],
              "internalType": "struct AssetAmount[]",
              "name": "outputAssetAmounts",
              "type": "tuple[]"
            },
            {
              "components": [
                {
                  "components": [
                    {
                      "internalType": "enum AssetType",
                      "name": "assetType",
                      "type": "uint8"
                    },
                    {
                      "internalType": "address",
                      "name": "assetAddress",
                      "type": "address"
                    }
                  ],
                  "internalType": "struct Asset",
                  "name": "asset",
                  "type": "tuple"
                },
                {
                  "internalType": "uint256",
                  "name": "amount",
                  "type": "uint256"
                }
              ],
              "internalType": "struct AssetAmount[]",
              "name": "outputAssetAmountsToCaller",
              "type": "tuple[]"
            },
            {
              "internalType": "int16",
              "name": "nextStepIndex",
              "type": "int16"
            },
            {
              "internalType": "int24",
              "name": "fee",
              "type": "int24"
            }
          ],
          "internalType": "struct WorkflowStepResult",
          "name": "",
          "type": "tuple"
        }
      ],
      "stateMutability": "payable",
      "type": "function"
    },
    {
      "inputs": [],
      "name": "frontDoorAddress",
      "outputs": [
        {
          "internalType": "address",
          "name": "",
          "type": "address"
        }
      ],
      "stateMutability": "view",
      "type": "function"
    },
    {
      "inputs": [
        {
          "internalType": "uint16",
          "name": "",
          "type": "uint16"
        },
        {
          "internalType": "bytes",
          "name": "",
          "type": "bytes"
        },
        {
          "internalType": "uint256",
          "name": "",
          "type": "uint256"
        },
        {
          "internalType": "address",
          "name": "tokenAddress",
          "type": "address"
        },
        {
          "internalType": "uint256",
          "name": "amount",
          "type": "uint256"
        },
        {
          "internalType": "bytes",
          "name": "payload",
          "type": "bytes"
        }
      ],
      "name": "sgReceive",
      "outputs": [],
      "stateMutability": "nonpayable",
      "type": "function"
    },
    {
      "inputs": [],
      "name": "stargateComposerAddress",
      "outputs": [
        {
          "internalType": "address",
          "name": "",
          "type": "address"
        }
      ],
      "stateMutability": "view",
      "type": "function"
    }
  ],
  "transactionHash": "0x73d3b0b88e97ecdb881dca4e0a69e4074d344a0456ea563c363231b8370fc49b",
  "args": [
    "0x5DE1dF35467c24C024E598ae6a2FB98240e62EC7",
    "0xeCc19E177d24551aA7ed6Bc6FE566eCa726CC8a9"
  ],
  "numDeployments": 9,
  "solcInputHash": "10b448533b086788d99dce4077413fca",
  "bytecode": "0x60c06040523480156200001157600080fd5b5060405162003ad038038062003ad0833981810160405281019062000037919062000111565b8173ffffffffffffffffffffffffffffffffffffffff1660808173ffffffffffffffffffffffffffffffffffffffff16815250508073ffffffffffffffffffffffffffffffffffffffff1660a08173ffffffffffffffffffffffffffffffffffffffff1681525050505062000158565b600080fd5b600073ffffffffffffffffffffffffffffffffffffffff82169050919050565b6000620000d982620000ac565b9050919050565b620000eb81620000cc565b8114620000f757600080fd5b50565b6000815190506200010b81620000e0565b92915050565b600080604083850312156200012b576200012a620000a7565b5b60006200013b85828601620000fa565b92505060206200014e85828601620000fa565b9150509250929050565b60805160a051613930620001a0600039600081816101190152818161013d01528181610b6a015261112101526000818160f501528181610227015261031a01526139306000f3fe60806040526004361061003f5760003560e01c806350fd910e146100445780635c105fb51461006f578063ab8236f31461009a578063e025f402146100c3575b600080fd5b34801561005057600080fd5b506100596100f3565b6040516100669190611703565b60405180910390f35b34801561007b57600080fd5b50610084610117565b6040516100919190611703565b60405180910390f35b3480156100a657600080fd5b506100c160048036038101906100bc9190611914565b61013b565b005b6100dd60048036038101906100d89190611a8f565b610538565b6040516100ea9190611d82565b60405180910390f35b7f000000000000000000000000000000000000000000000000000000000000000081565b7f000000000000000000000000000000000000000000000000000000000000000081565b7f000000000000000000000000000000000000000000000000000000000000000073ffffffffffffffffffffffffffffffffffffffff163373ffffffffffffffffffffffffffffffffffffffff16146101c9576040517f08c379a00000000000000000000000000000000000000000000000000000000081526004016101c090611e27565b60405180910390fd5b6000818060200190518101906101df9190612590565b90507f4f31af10fbc47589d01f25facb43603bbacc066cf89414bb7bb2575bd33ec06184848360405161021493929190612a71565b60405180910390a1600084905061024c817f000000000000000000000000000000000000000000000000000000000000000086610f7f565b6000600167ffffffffffffffff81111561026957610268611787565b5b6040519080825280602002602001820160405280156102a257816020015b61028f61154e565b8152602001906001900390816102875790505b50905060405180604001604052806040518060400160405280600160028111156102cf576102ce611b50565b5b81526020018973ffffffffffffffffffffffffffffffffffffffff168152508152602001868152508160008151811061030b5761030a612aaf565b5b602002602001018190525060007f0000000000000000000000000000000000000000000000000000000000000000905060008173ffffffffffffffffffffffffffffffffffffffff16631c7b2649866000015187602001518860400151876040518563ffffffff1660e01b81526004016103889493929190612bbe565b600060405180830381600087803b1580156103a257600080fd5b505af19250505080156103b3575060015b6104e5576103bf612c1e565b806308c379a00361041b57506103d3612c40565b806103de5750610475565b7ffda340082949e098c3dd025a930d09f52326dc91cc6e06a752d91f7586308b858160405161040d9190612d14565b60405180910390a1506104e0565b634e487b71036104755761042d612d36565b906104385750610475565b7f82bb88474c1b4f5c8c0da3a05d71c0d92f04a6e50a272b0da1ddac3ce649f60b816040516104679190612d57565b60405180910390a1506104e0565b3d80600081146104a1576040519150601f19603f3d011682016040523d82523d6000602084013e6104a6565b606091505b507f12b66dc35d0dae0c1d5c52a2e47be74c041aacb614a7aa119c2a231fb4d4d07a816040516104d69190612dbc565b60405180910390a1505b610516565b7f700d3395f2bce78f97bd5a2b23366c66cfcbc8bac44e35f89af808e63fbc932860405160405180910390a1600190505b8061052b5761052a84866000015189611091565b5b5050505050505050505050565b61054061156e565b6105486115a3565b6002878790501461058e576040517f08c379a000000000000000000000000000000000000000000000000000000000815260040161058590612e2a565b60405180910390fd5b600060028111156105a2576105a1611b50565b5b878760008181106105b6576105b5612aaf565b5b90506060020160000160000160208101906105d19190612e5f565b60028111156105e3576105e2611b50565b5b036106e657600160028111156105fc576105fb611b50565b5b878760018181106106105761060f612aaf565b5b905060600201600001600001602081019061062b9190612e5f565b600281111561063d5761063c611b50565b5b1461067d576040517f08c379a000000000000000000000000000000000000000000000000000000000815260040161067490612ed8565b60405180910390fd5b8686600081811061069157610690612aaf565b5b9050606002018036038101906106a79190612f98565b8160800181905250868660018181106106c3576106c2612aaf565b5b9050606002018036038101906106d99190612f98565b8160a0018190525061087a565b600060028111156106fa576106f9611b50565b5b8787600181811061070e5761070d612aaf565b5b90506060020160000160000160208101906107299190612e5f565b600281111561073b5761073a611b50565b5b0361083e576001600281111561075457610753611b50565b5b8787600081811061076857610767612aaf565b5b90506060020160000160000160208101906107839190612e5f565b600281111561079557610794611b50565b5b146107d5576040517f08c379a00000000000000000000000000000000000000000000000000000000081526004016107cc90612ed8565b60405180910390fd5b868660018181106107e9576107e8612aaf565b5b9050606002018036038101906107ff9190612f98565b81608001819052508686600081811061081b5761081a612aaf565b5b9050606002018036038101906108319190612f98565b8160a00181905250610879565b6040517f08c379a000000000000000000000000000000000000000000000000000000000815260040161087090613011565b60405180910390fd5b5b6001600281111561088e5761088d611b50565b5b878760008181106108a2576108a1612aaf565b5b90506060020160000160000160208101906108bd9190612e5f565b60028111156108cf576108ce611b50565b5b148061092d5750600060028111156108ea576108e9611b50565b5b878760008181106108fe576108fd612aaf565b5b90506060020160000160000160208101906109199190612e5f565b600281111561092b5761092a611b50565b5b145b61096c576040517f08c379a0000000000000000000000000000000000000000000000000000000008152600401610963906130a3565b60405180910390fd5b600160028111156109805761097f611b50565b5b8787600081811061099457610993612aaf565b5b90506060020160000160000160208101906109af9190612e5f565b60028111156109c1576109c0611b50565b5b03610a1c57610a1b878760008181106109dd576109dc612aaf565b5b90506060020160000160200160208101906109f891906130c3565b88886000818110610a0c57610a0b612aaf565b5b90506060020160400135611117565b5b8484810190610a2b9190613243565b8160200181905250806020015160000151604051602001610a4c91906132d4565b60405160208183030381529060405281604001819052508060200151610100015115610abf57620186a0816020015160e0015188886000818110610a9357610a92612aaf565b5b90506060020160400135610aa7919061331e565b610ab1919061338f565b816060018181525050610ad2565b806020015160e001518160600181815250505b7fc919a44972f2a555d7b70313ba420f3ece86780db879b0e70e766c61ae84ad5c8160800151602001518260a0015160200151836020015160000151846020015160400151856020015160600151866020015160800151876020015160a00151886020015160c0015189606001518a602001516101200151604051610b609a999897969594939291906133cf565b60405180910390a17f000000000000000000000000000000000000000000000000000000000000000073ffffffffffffffffffffffffffffffffffffffff16639fbf10fc826080015160200151836020015160400151846020015160600151856020015160800151888760a0015160200151886060015160405180606001604052808b6020015160a0015181526020018b6020015160c0015181526020018b6020015160200151604051602001610c1791906132d4565b6040516020818303038152906040528152508a604001518b6020015161012001516040518b63ffffffff1660e01b8152600401610c5c999897969594939291906134e3565b6000604051808303818588803b158015610c7557600080fd5b505af1158015610c89573d6000803e3d6000fd5b5050505050600081602001516101200151511115610e08576000600167ffffffffffffffff811115610cbe57610cbd611787565b5b604051908082528060200260200182016040528015610cf757816020015b610ce461154e565b815260200190600190039081610cdc5790505b5090508160a0015181600081518110610d1357610d12612aaf565b5b6020026020010181905250816060015181600081518110610d3757610d36612aaf565b5b60200260200101516020018181525050600082602001516101600151610daa57600067ffffffffffffffff811115610d7257610d71611787565b5b6040519080825280601f01601f191660200182016040528015610da45781602001600182028036833780820191505090505b50610db5565b826020015161012001515b90507f92cabcced306320fcb4c1a1d8c0cec733aea48602b9740e521a95ae20030009d836020015160400151846020015161014001518484604051610dfd94939291906135d1565b60405180910390a150505b6040518060a001604052808888808060200260200160405190810160405280939291908181526020016000905b82821015610e6557848483905060600201803603810190610e569190612f98565b81526020019060010190610e35565b50505050508152602001600067ffffffffffffffff811115610e8a57610e89611787565b5b604051908082528060200260200182016040528015610ec357816020015b610eb061154e565b815260200190600190039081610ea85790505b508152602001600067ffffffffffffffff811115610ee457610ee3611787565b5b604051908082528060200260200182016040528015610f1d57816020015b610f0a61154e565b815260200190600190039081610f025790505b5081526020017ffffffffffffffffffffffffffffffffffffffffffffffffffffffffffffffffe60010b81526020017fffffffffffffffffffffffffffffffffffffffffffffffffffffffffffffffff60020b81525091505095945050505050565b60008373ffffffffffffffffffffffffffffffffffffffff1663dd62ed3e30856040518363ffffffff1660e01b8152600401610fbc929190613637565b602060405180830381865afa158015610fd9573d6000803e3d6000fd5b505050506040513d601f19601f82011682018060405250810190610ffd9190613660565b905061108b8463095ea7b360e01b858585611018919061368d565b6040516024016110299291906136c1565b604051602081830303815290604052907bffffffffffffffffffffffffffffffffffffffffffffffffffffffff19166020820180517bffffffffffffffffffffffffffffffffffffffffffffffffffffffff838183161783525050505061116c565b50505050565b6111128363a9059cbb60e01b84846040516024016110b09291906136c1565b604051602081830303815290604052907bffffffffffffffffffffffffffffffffffffffffffffffffffffffff19166020820180517bffffffffffffffffffffffffffffffffffffffffffffffffffffffff838183161783525050505061116c565b505050565b60008290506111677f0000000000000000000000000000000000000000000000000000000000000000838373ffffffffffffffffffffffffffffffffffffffff166112349092919063ffffffff16565b505050565b60006111ce826040518060400160405280602081526020017f5361666545524332303a206c6f772d6c6576656c2063616c6c206661696c65648152508573ffffffffffffffffffffffffffffffffffffffff166112ba9092919063ffffffff16565b90506000815114806111f05750808060200190518101906111ef91906136ea565b5b61122f576040517f08c379a000000000000000000000000000000000000000000000000000000000815260040161122690613789565b60405180910390fd5b505050565b6112b58363095ea7b360e01b84846040516024016112539291906136c1565b604051602081830303815290604052907bffffffffffffffffffffffffffffffffffffffffffffffffffffffff19166020820180517bffffffffffffffffffffffffffffffffffffffffffffffffffffffff83818316178352505050506112d2565b505050565b60606112c98484600085611399565b90509392505050565b6000611334826040518060400160405280602081526020017f5361666545524332303a206c6f772d6c6576656c2063616c6c206661696c65648152508573ffffffffffffffffffffffffffffffffffffffff166112ba9092919063ffffffff16565b9050600081511115611394578080602001905181019061135491906136ea565b611393576040517f08c379a000000000000000000000000000000000000000000000000000000000815260040161138a90613789565b60405180910390fd5b5b505050565b6060824710156113de576040517f08c379a00000000000000000000000000000000000000000000000000000000081526004016113d59061381b565b60405180910390fd5b6000808673ffffffffffffffffffffffffffffffffffffffff1685876040516114079190613877565b60006040518083038185875af1925050503d8060008114611444576040519150601f19603f3d011682016040523d82523d6000602084013e611449565b606091505b509150915061145a87838387611466565b92505050949350505050565b606083156114c85760008351036114c057611480856114db565b6114bf576040517f08c379a00000000000000000000000000000000000000000000000000000000081526004016114b6906138da565b60405180910390fd5b5b8290506114d3565b6114d283836114fe565b5b949350505050565b6000808273ffffffffffffffffffffffffffffffffffffffff163b119050919050565b6000825111156115115781518083602001fd5b806040517f08c379a00000000000000000000000000000000000000000000000000000000081526004016115459190612d14565b60405180910390fd5b60405180604001604052806115616115eb565b8152602001600081525090565b6040518060a00160405280606081526020016060815260200160608152602001600060010b8152602001600060020b81525090565b6040518060c00160405280600081526020016115bd61162d565b815260200160608152602001600081526020016115d861154e565b81526020016115e561154e565b81525090565b60405180604001604052806000600281111561160a57611609611b50565b5b8152602001600073ffffffffffffffffffffffffffffffffffffffff1681525090565b604051806101800160405280600073ffffffffffffffffffffffffffffffffffffffff168152602001600073ffffffffffffffffffffffffffffffffffffffff168152602001600061ffff168152602001600081526020016000815260200160008152602001600081526020016000815260200160001515815260200160608152602001600081526020016000151581525090565b600073ffffffffffffffffffffffffffffffffffffffff82169050919050565b60006116ed826116c2565b9050919050565b6116fd816116e2565b82525050565b600060208201905061171860008301846116f4565b92915050565b6000604051905090565b600080fd5b600080fd5b600061ffff82169050919050565b61174981611732565b811461175457600080fd5b50565b60008135905061176681611740565b92915050565b600080fd5b600080fd5b6000601f19601f8301169050919050565b7f4e487b7100000000000000000000000000000000000000000000000000000000600052604160045260246000fd5b6117bf82611776565b810181811067ffffffffffffffff821117156117de576117dd611787565b5b80604052505050565b60006117f161171e565b90506117fd82826117b6565b919050565b600067ffffffffffffffff82111561181d5761181c611787565b5b61182682611776565b9050602081019050919050565b82818337600083830152505050565b600061185561185084611802565b6117e7565b90508281526020810184848401111561187157611870611771565b5b61187c848285611833565b509392505050565b600082601f8301126118995761189861176c565b5b81356118a9848260208601611842565b91505092915050565b6000819050919050565b6118c5816118b2565b81146118d057600080fd5b50565b6000813590506118e2816118bc565b92915050565b6118f1816116e2565b81146118fc57600080fd5b50565b60008135905061190e816118e8565b92915050565b60008060008060008060c0878903121561193157611930611728565b5b600061193f89828a01611757565b965050602087013567ffffffffffffffff8111156119605761195f61172d565b5b61196c89828a01611884565b955050604061197d89828a016118d3565b945050606061198e89828a016118ff565b935050608061199f89828a016118d3565b92505060a087013567ffffffffffffffff8111156119c0576119bf61172d565b5b6119cc89828a01611884565b9150509295509295509295565b600080fd5b600080fd5b60008083601f8401126119f9576119f861176c565b5b8235905067ffffffffffffffff811115611a1657611a156119d9565b5b602083019150836060820283011115611a3257611a316119de565b5b9250929050565b60008083601f840112611a4f57611a4e61176c565b5b8235905067ffffffffffffffff811115611a6c57611a6b6119d9565b5b602083019150836001820283011115611a8857611a876119de565b5b9250929050565b600080600080600060608688031215611aab57611aaa611728565b5b600086013567ffffffffffffffff811115611ac957611ac861172d565b5b611ad5888289016119e3565b9550955050602086013567ffffffffffffffff811115611af857611af761172d565b5b611b0488828901611a39565b93509350506040611b17888289016118ff565b9150509295509295909350565b600081519050919050565b600082825260208201905092915050565b6000819050602082019050919050565b7f4e487b7100000000000000000000000000000000000000000000000000000000600052602160045260246000fd5b60038110611b9057611b8f611b50565b5b50565b6000819050611ba182611b7f565b919050565b6000611bb182611b93565b9050919050565b611bc181611ba6565b82525050565b611bd0816116e2565b82525050565b604082016000820151611bec6000850182611bb8565b506020820151611bff6020850182611bc7565b50505050565b611c0e816118b2565b82525050565b606082016000820151611c2a6000850182611bd6565b506020820151611c3d6040850182611c05565b50505050565b6000611c4f8383611c14565b60608301905092915050565b6000602082019050919050565b6000611c7382611b24565b611c7d8185611b2f565b9350611c8883611b40565b8060005b83811015611cb9578151611ca08882611c43565b9750611cab83611c5b565b925050600181019050611c8c565b5085935050505092915050565b60008160010b9050919050565b611cdc81611cc6565b82525050565b60008160020b9050919050565b611cf881611ce2565b82525050565b600060a0830160008301518482036000860152611d1b8282611c68565b91505060208301518482036020860152611d358282611c68565b91505060408301518482036040860152611d4f8282611c68565b9150506060830151611d646060860182611cd3565b506080830151611d776080860182611cef565b508091505092915050565b60006020820190508181036000830152611d9c8184611cfe565b905092915050565b600082825260208201905092915050565b7f6f6e6c79205374617267617465206973207065726d697474656420746f20636160008201527f6c6c207367526563656976650000000000000000000000000000000000000000602082015250565b6000611e11602c83611da4565b9150611e1c82611db5565b604082019050919050565b60006020820190508181036000830152611e4081611e04565b9050919050565b600080fd5b600080fd5b600081519050611e60816118e8565b92915050565b600081519050611e75816118bc565b92915050565b600067ffffffffffffffff821115611e9657611e95611787565b5b602082029050602081019050919050565b600081519050611eb681611740565b92915050565b600067ffffffffffffffff821115611ed757611ed6611787565b5b602082029050602081019050919050565b60008115159050919050565b611efd81611ee8565b8114611f0857600080fd5b50565b600081519050611f1a81611ef4565b92915050565b60038110611f2d57600080fd5b50565b600081519050611f3f81611f20565b92915050565b600060408284031215611f5b57611f5a611e47565b5b611f6560406117e7565b90506000611f7584828501611f30565b6000830152506020611f8984828501611e51565b60208301525092915050565b600060a08284031215611fab57611faa611e47565b5b611fb560806117e7565b90506000611fc584828501611f0b565b6000830152506020611fd984828501611f0b565b6020830152506040611fed84828501611f45565b604083015250608061200184828501611e66565b60608301525092915050565b600061202061201b84611ebc565b6117e7565b90508083825260208201905060a08402830185811115612043576120426119de565b5b835b8181101561206c57806120588882611f95565b84526020840193505060a081019050612045565b5050509392505050565b600082601f83011261208b5761208a61176c565b5b815161209b84826020860161200d565b91505092915050565b60005b838110156120c25780820151818401526020810190506120a7565b60008484015250505050565b60006120e16120dc84611802565b6117e7565b9050828152602081018484840111156120fd576120fc611771565b5b6121088482856120a4565b509392505050565b600082601f8301126121255761212461176c565b5b81516121358482602086016120ce565b91505092915050565b61214781611cc6565b811461215257600080fd5b50565b6000815190506121648161213e565b92915050565b600060a082840312156121805761217f611e47565b5b61218a60a06117e7565b9050600061219a84828501611ea7565b60008301525060206121ae84828501611e51565b602083015250604082015167ffffffffffffffff8111156121d2576121d1611e4c565b5b6121de84828501612076565b604083015250606082015167ffffffffffffffff81111561220257612201611e4c565b5b61220e84828501612110565b606083015250608061222284828501612155565b60808301525092915050565b600061224161223c84611e7b565b6117e7565b90508083825260208201905060208402830185811115612264576122636119de565b5b835b818110156122ab57805167ffffffffffffffff8111156122895761228861176c565b5b808601612296898261216a565b85526020850194505050602081019050612266565b5050509392505050565b600082601f8301126122ca576122c961176c565b5b81516122da84826020860161222e565b91505092915050565b600067ffffffffffffffff8211156122fe576122fd611787565b5b602082029050602081019050919050565b60006060828403121561232557612324611e47565b5b61232f60606117e7565b9050600061233f84828501611ea7565b600083015250602061235384828501611e51565b602083015250604082015167ffffffffffffffff81111561237757612376611e4c565b5b61238384828501612110565b60408301525092915050565b60006123a261239d846122e3565b6117e7565b905080838252602082019050602084028301858111156123c5576123c46119de565b5b835b8181101561240c57805167ffffffffffffffff8111156123ea576123e961176c565b5b8086016123f7898261230f565b855260208501945050506020810190506123c7565b5050509392505050565b600082601f83011261242b5761242a61176c565b5b815161243b84826020860161238f565b91505092915050565b60006080828403121561245a57612459611e47565b5b61246460806117e7565b9050600061247484828501611e51565b600083015250602082015167ffffffffffffffff81111561249857612497611e4c565b5b6124a4848285016122b5565b602083015250604082015167ffffffffffffffff8111156124c8576124c7611e4c565b5b6124d484828501612416565b604083015250606082015167ffffffffffffffff8111156124f8576124f7611e4c565b5b61250484828501612416565b60608301525092915050565b60006060828403121561252657612525611e47565b5b61253060606117e7565b9050600061254084828501611e51565b600083015250602061255484828501611e66565b602083015250604082015167ffffffffffffffff81111561257857612577611e4c565b5b61258484828501612444565b60408301525092915050565b6000602082840312156125a6576125a5611728565b5b600082015167ffffffffffffffff8111156125c4576125c361172d565b5b6125d084828501612510565b91505092915050565b6125e2816118b2565b82525050565b600081519050919050565b600082825260208201905092915050565b6000819050602082019050919050565b61261d81611732565b82525050565b600081519050919050565b600082825260208201905092915050565b6000819050602082019050919050565b61265881611ee8565b82525050565b60a082016000820151612674600085018261264f565b506020820151612687602085018261264f565b50604082015161269a6040850182611bd6565b5060608201516126ad6080850182611c05565b50505050565b60006126bf838361265e565b60a08301905092915050565b6000602082019050919050565b60006126e382612623565b6126ed818561262e565b93506126f88361263f565b8060005b8381101561272957815161271088826126b3565b975061271b836126cb565b9250506001810190506126fc565b5085935050505092915050565b600081519050919050565b600082825260208201905092915050565b600061275d82612736565b6127678185612741565b93506127778185602086016120a4565b61278081611776565b840191505092915050565b600060a0830160008301516127a36000860182612614565b5060208301516127b66020860182611bc7565b50604083015184820360408601526127ce82826126d8565b915050606083015184820360608601526127e88282612752565b91505060808301516127fd6080860182611cd3565b508091505092915050565b6000612814838361278b565b905092915050565b6000602082019050919050565b6000612834826125e8565b61283e81856125f3565b93508360208202850161285085612604565b8060005b8581101561288c578484038952815161286d8582612808565b94506128788361281c565b925060208a01995050600181019050612854565b50829750879550505050505092915050565b600081519050919050565b600082825260208201905092915050565b6000819050602082019050919050565b60006060830160008301516128e26000860182612614565b5060208301516128f56020860182611bc7565b506040830151848203604086015261290d8282612752565b9150508091505092915050565b600061292683836128ca565b905092915050565b6000602082019050919050565b60006129468261289e565b61295081856128a9565b935083602082028501612962856128ba565b8060005b8581101561299e578484038952815161297f858261291a565b945061298a8361292e565b925060208a01995050600181019050612966565b50829750879550505050505092915050565b60006080830160008301516129c86000860182611bc7565b50602083015184820360208601526129e08282612829565b915050604083015184820360408601526129fa828261293b565b91505060608301518482036060860152612a14828261293b565b9150508091505092915050565b6000606083016000830151612a396000860182611bc7565b506020830151612a4c6020860182611c05565b5060408301518482036040860152612a6482826129b0565b9150508091505092915050565b6000606082019050612a8660008301866116f4565b612a9360208301856125d9565b8181036040830152612aa58184612a21565b9050949350505050565b7f4e487b7100000000000000000000000000000000000000000000000000000000600052603260045260246000fd5b6000608083016000830151612af66000860182611bc7565b5060208301518482036020860152612b0e8282612829565b91505060408301518482036040860152612b28828261293b565b91505060608301518482036060860152612b42828261293b565b9150508091505092915050565b600082825260208201905092915050565b6000612b6b82611b24565b612b758185612b4f565b9350612b8083611b40565b8060005b83811015612bb1578151612b988882611c43565b9750612ba383611c5b565b925050600181019050612b84565b5085935050505092915050565b6000608082019050612bd360008301876116f4565b612be060208301866125d9565b8181036040830152612bf28185612ade565b90508181036060830152612c068184612b60565b905095945050505050565b60008160e01c9050919050565b600060033d1115612c3d5760046000803e612c3a600051612c11565b90505b90565b600060443d10612ccd57612c5261171e565b60043d036004823e80513d602482011167ffffffffffffffff82111715612c7a575050612ccd565b808201805167ffffffffffffffff811115612c985750505050612ccd565b80602083010160043d038501811115612cb5575050505050612ccd565b612cc4826020018501866117b6565b82955050505050505b90565b600081519050919050565b6000612ce682612cd0565b612cf08185611da4565b9350612d008185602086016120a4565b612d0981611776565b840191505092915050565b60006020820190508181036000830152612d2e8184612cdb565b905092915050565b60008060233d1115612d53576020600460003e6001915060005190505b9091565b6000602082019050612d6c60008301846125d9565b92915050565b600082825260208201905092915050565b6000612d8e82612736565b612d988185612d72565b9350612da88185602086016120a4565b612db181611776565b840191505092915050565b60006020820190508181036000830152612dd68184612d83565b905092915050565b7f7468657265206d757374206265203220696e7075742061737365747300000000600082015250565b6000612e14601c83611da4565b9150612e1f82612dde565b602082019050919050565b60006020820190508181036000830152612e4381612e07565b9050919050565b600081359050612e5981611f20565b92915050565b600060208284031215612e7557612e74611728565b5b6000612e8384828501612e4a565b91505092915050565b7f6f6e6520696e707574206173736574206d75737420626520616e204552433230600082015250565b6000612ec2602083611da4565b9150612ecd82612e8c565b602082019050919050565b60006020820190508181036000830152612ef181612eb5565b9050919050565b600060408284031215612f0e57612f0d611e47565b5b612f1860406117e7565b90506000612f2884828501612e4a565b6000830152506020612f3c848285016118ff565b60208301525092915050565b600060608284031215612f5e57612f5d611e47565b5b612f6860406117e7565b90506000612f7884828501612ef8565b6000830152506040612f8c848285016118d3565b60208301525092915050565b600060608284031215612fae57612fad611728565b5b6000612fbc84828501612f48565b91505092915050565b7f6f6e6520696e707574206173736574206d757374206265206e61746976650000600082015250565b6000612ffb601e83611da4565b915061300682612fc5565b602082019050919050565b6000602082019050818103600083015261302a81612fee565b9050919050565b7f74686520696e707574206173736574206d75737420626520616e20455243323060008201527f206f72204e617469766500000000000000000000000000000000000000000000602082015250565b600061308d602a83611da4565b915061309882613031565b604082019050919050565b600060208201905081810360008301526130bc81613080565b9050919050565b6000602082840312156130d9576130d8611728565b5b60006130e7848285016118ff565b91505092915050565b6000813590506130ff81611ef4565b92915050565b6000610180828403121561311c5761311b611e47565b5b6131276101806117e7565b90506000613137848285016118ff565b600083015250602061314b848285016118ff565b602083015250604061315f84828501611757565b6040830152506060613173848285016118d3565b6060830152506080613187848285016118d3565b60808301525060a061319b848285016118d3565b60a08301525060c06131af848285016118d3565b60c08301525060e06131c3848285016118d3565b60e0830152506101006131d8848285016130f0565b6101008301525061012082013567ffffffffffffffff8111156131fe576131fd611e4c565b5b61320a84828501611884565b61012083015250610140613220848285016118d3565b61014083015250610160613236848285016130f0565b6101608301525092915050565b60006020828403121561325957613258611728565b5b600082013567ffffffffffffffff8111156132775761327661172d565b5b61328384828501613105565b91505092915050565b60008160601b9050919050565b60006132a48261328c565b9050919050565b60006132b682613299565b9050919050565b6132ce6132c9826116e2565b6132ab565b82525050565b60006132e082846132bd565b60148201915081905092915050565b7f4e487b7100000000000000000000000000000000000000000000000000000000600052601160045260246000fd5b6000613329826118b2565b9150613334836118b2565b9250828202613342816118b2565b91508282048414831517613359576133586132ef565b5b5092915050565b7f4e487b7100000000000000000000000000000000000000000000000000000000600052601260045260246000fd5b600061339a826118b2565b91506133a5836118b2565b9250826133b5576133b4613360565b5b828204905092915050565b6133c981611732565b82525050565b6000610140820190506133e5600083018d6125d9565b6133f2602083018c6125d9565b6133ff604083018b6116f4565b61340c606083018a6133c0565b61341960808301896125d9565b61342660a08301886125d9565b61343360c08301876125d9565b61344060e08301866125d9565b61344e6101008301856125d9565b8181036101208301526134618184612d83565b90509b9a5050505050505050505050565b600061347d826116c2565b9050919050565b61348d81613472565b82525050565b60006060830160008301516134ab6000860182611c05565b5060208301516134be6020860182611c05565b50604083015184820360408601526134d68282612752565b9150508091505092915050565b6000610120820190506134f9600083018c6133c0565b613506602083018b6125d9565b613513604083018a6125d9565b6135206060830189613484565b61352d60808301886125d9565b61353a60a08301876125d9565b81810360c083015261354c8186613493565b905081810360e08301526135608185612d83565b90508181036101008301526135758184612d83565b90509a9950505050505050505050565b7f73746172676174652d6272696467650000000000000000000000000000000000600082015250565b60006135bb600f83611da4565b91506135c682613585565b602082019050919050565b600060a08201905081810360008301526135ea816135ae565b90506135f960208301876133c0565b61360660408301866125d9565b81810360608301526136188185612b60565b9050818103608083015261362c8184612d83565b905095945050505050565b600060408201905061364c60008301856116f4565b61365960208301846116f4565b9392505050565b60006020828403121561367657613675611728565b5b600061368484828501611e66565b91505092915050565b6000613698826118b2565b91506136a3836118b2565b92508282019050808211156136bb576136ba6132ef565b5b92915050565b60006040820190506136d660008301856116f4565b6136e360208301846125d9565b9392505050565b600060208284031215613700576136ff611728565b5b600061370e84828501611f0b565b91505092915050565b7f5361666545524332303a204552433230206f7065726174696f6e20646964206e60008201527f6f74207375636365656400000000000000000000000000000000000000000000602082015250565b6000613773602a83611da4565b915061377e82613717565b604082019050919050565b600060208201905081810360008301526137a281613766565b9050919050565b7f416464726573733a20696e73756666696369656e742062616c616e636520666f60008201527f722063616c6c0000000000000000000000000000000000000000000000000000602082015250565b6000613805602683611da4565b9150613810826137a9565b604082019050919050565b60006020820190508181036000830152613834816137f8565b9050919050565b600081905092915050565b600061385182612736565b61385b818561383b565b935061386b8185602086016120a4565b80840191505092915050565b60006138838284613846565b915081905092915050565b7f416464726573733a2063616c6c20746f206e6f6e2d636f6e7472616374000000600082015250565b60006138c4601d83611da4565b91506138cf8261388e565b602082019050919050565b600060208201905081810360008301526138f3816138b7565b905091905056fea2646970667358221220a28d423e0722ec21d99c9955133020e1e37ac09d46c9550f3208f88cdd98d8d064736f6c63430008120033",
  "devdoc": {
    "events": {
      "SgReceiveCalled(address,uint256,(address,uint256,(address,(uint16,address,(bool,bool,(uint8,address),uint256)[],bytes,int16)[],(uint16,address,bytes)[],(uint16,address,bytes)[])))": {
        "params": {
          "bridgePayload": "the payload that was sent along with the erc20.",
          "tokenAddress": "the address of the erc20 that was transfered from the source chain to this chain.abi"
        }
      }
    },
    "kind": "dev",
    "methods": {},
    "version": 1
  },
  "userdoc": {
    "events": {
      "SgReceiveCalled(address,uint256,(address,uint256,(address,(uint16,address,(bool,bool,(uint8,address),uint256)[],bytes,int16)[],(uint16,address,bytes)[],(uint16,address,bytes)[])))": {
        "notice": "This event is emitted on the destination chain when Stargate invokes our sgReceive method"
      }
    },
    "kind": "user",
    "methods": {},
    "version": 1
  },
  "storageLayout": {
    "storage": [],
    "types": null
  }
}