{
  "address": "0x256e8E878B816724aD085D6B12f53e3D97538e78",
  "abi": [
    {
      "inputs": [
        {
          "internalType": "address",
          "name": "_frontDoorAddress",
          "type": "address"
        },
        {
          "internalType": "address",
          "name": "_stargateRouterAddress",
          "type": "address"
        }
      ],
      "stateMutability": "nonpayable",
      "type": "constructor"
    },
    {
      "anonymous": false,
      "inputs": [
        {
          "indexed": false,
          "internalType": "string",
          "name": "reason",
          "type": "string"
        }
      ],
      "name": "ContinuationFailure",
      "type": "event"
    },
    {
      "anonymous": false,
      "inputs": [
        {
          "indexed": false,
          "internalType": "bytes",
          "name": "reason",
          "type": "bytes"
        }
      ],
      "name": "ContinuationFailure",
      "type": "event"
    },
    {
      "anonymous": false,
      "inputs": [
        {
          "indexed": false,
          "internalType": "uint256",
          "name": "errorCode",
          "type": "uint256"
        }
      ],
      "name": "ContinuationFailure",
      "type": "event"
    },
    {
      "anonymous": false,
      "inputs": [],
      "name": "ContinuationSuccess",
      "type": "event"
    },
    {
      "anonymous": false,
      "inputs": [
        {
          "indexed": false,
          "internalType": "address",
          "name": "tokenAddress",
          "type": "address"
        },
        {
          "indexed": false,
          "internalType": "uint256",
          "name": "amount",
          "type": "uint256"
        },
        {
          "components": [
            {
              "internalType": "address",
              "name": "userAddress",
              "type": "address"
            },
            {
              "internalType": "uint256",
              "name": "nonce",
              "type": "uint256"
            },
            {
              "components": [
                {
                  "internalType": "address",
                  "name": "workflowRunnerAddress",
                  "type": "address"
                },
                {
                  "components": [
                    {
                      "internalType": "uint16",
                      "name": "stepTypeId",
                      "type": "uint16"
                    },
                    {
                      "internalType": "address",
                      "name": "stepAddress",
                      "type": "address"
                    },
                    {
                      "components": [
                        {
                          "internalType": "bool",
                          "name": "sourceIsCaller",
                          "type": "bool"
                        },
                        {
                          "internalType": "bool",
                          "name": "amountIsPercent",
                          "type": "bool"
                        },
                        {
                          "components": [
                            {
                              "internalType": "enum AssetType",
                              "name": "assetType",
                              "type": "uint8"
                            },
                            {
                              "internalType": "address",
                              "name": "assetAddress",
                              "type": "address"
                            }
                          ],
                          "internalType": "struct Asset",
                          "name": "asset",
                          "type": "tuple"
                        },
                        {
                          "internalType": "uint256",
                          "name": "amount",
                          "type": "uint256"
                        }
                      ],
                      "internalType": "struct WorkflowStepInputAsset[]",
                      "name": "inputAssets",
                      "type": "tuple[]"
                    },
                    {
                      "internalType": "bytes",
                      "name": "argData",
                      "type": "bytes"
                    },
                    {
                      "internalType": "int16",
                      "name": "nextStepIndex",
                      "type": "int16"
                    }
                  ],
                  "internalType": "struct WorkflowStep[]",
                  "name": "steps",
                  "type": "tuple[]"
                }
              ],
              "internalType": "struct Workflow",
              "name": "workflow",
              "type": "tuple"
            }
          ],
          "indexed": false,
          "internalType": "struct BridgePayload",
          "name": "bridgePayload",
          "type": "tuple"
        }
      ],
      "name": "SgReceiveCalled",
      "type": "event"
    },
    {
      "anonymous": false,
      "inputs": [
        {
          "indexed": false,
          "internalType": "uint256",
          "name": "nativeAmount",
          "type": "uint256"
        },
        {
          "indexed": false,
          "internalType": "uint256",
          "name": "assetAmount",
          "type": "uint256"
        },
        {
          "indexed": false,
          "internalType": "address",
          "name": "dstActionAddress",
          "type": "address"
        },
        {
          "indexed": false,
          "internalType": "uint16",
          "name": "dstChainId",
          "type": "uint16"
        },
        {
          "indexed": false,
          "internalType": "uint256",
          "name": "srcPoolId",
          "type": "uint256"
        },
        {
          "indexed": false,
          "internalType": "uint256",
          "name": "dstPoolId",
          "type": "uint256"
        },
        {
          "indexed": false,
          "internalType": "uint256",
          "name": "dstGasForCall",
          "type": "uint256"
        },
        {
          "indexed": false,
          "internalType": "uint256",
          "name": "dstNativeAmount",
          "type": "uint256"
        },
        {
          "indexed": false,
          "internalType": "uint256",
          "name": "minAmountOut",
          "type": "uint256"
        },
        {
          "indexed": false,
          "internalType": "bytes",
          "name": "continuationWorkflow",
          "type": "bytes"
        }
      ],
      "name": "StargateBridgeParamsEvent",
      "type": "event"
    },
    {
      "anonymous": false,
      "inputs": [
        {
          "indexed": false,
          "internalType": "string",
          "name": "stepType",
          "type": "string"
        },
        {
          "indexed": false,
          "internalType": "uint16",
          "name": "targetChain",
          "type": "uint16"
        },
        {
          "indexed": false,
          "internalType": "uint256",
          "name": "nonce",
          "type": "uint256"
        },
        {
          "components": [
            {
              "components": [
                {
                  "internalType": "enum AssetType",
                  "name": "assetType",
                  "type": "uint8"
                },
                {
                  "internalType": "address",
                  "name": "assetAddress",
                  "type": "address"
                }
              ],
              "internalType": "struct Asset",
              "name": "asset",
              "type": "tuple"
            },
            {
              "internalType": "uint256",
              "name": "amount",
              "type": "uint256"
            }
          ],
          "indexed": false,
          "internalType": "struct AssetAmount[]",
          "name": "expectedAssets",
          "type": "tuple[]"
        },
        {
          "indexed": false,
          "internalType": "bytes",
          "name": "continuationWorkflow",
          "type": "bytes"
        }
      ],
      "name": "WorkflowBridged",
      "type": "event"
    },
    {
      "inputs": [
        {
          "components": [
            {
              "components": [
                {
                  "internalType": "enum AssetType",
                  "name": "assetType",
                  "type": "uint8"
                },
                {
                  "internalType": "address",
                  "name": "assetAddress",
                  "type": "address"
                }
              ],
              "internalType": "struct Asset",
              "name": "asset",
              "type": "tuple"
            },
            {
              "internalType": "uint256",
              "name": "amount",
              "type": "uint256"
            }
          ],
          "internalType": "struct AssetAmount[]",
          "name": "inputAssetAmounts",
          "type": "tuple[]"
        },
        {
          "internalType": "bytes",
          "name": "argData",
          "type": "bytes"
        }
      ],
      "name": "execute",
      "outputs": [
        {
          "components": [
            {
              "components": [
                {
                  "components": [
                    {
                      "internalType": "enum AssetType",
                      "name": "assetType",
                      "type": "uint8"
                    },
                    {
                      "internalType": "address",
                      "name": "assetAddress",
                      "type": "address"
                    }
                  ],
                  "internalType": "struct Asset",
                  "name": "asset",
                  "type": "tuple"
                },
                {
                  "internalType": "uint256",
                  "name": "amount",
                  "type": "uint256"
                }
              ],
              "internalType": "struct AssetAmount[]",
              "name": "inputAssetAmounts",
              "type": "tuple[]"
            },
            {
              "components": [
                {
                  "components": [
                    {
                      "internalType": "enum AssetType",
                      "name": "assetType",
                      "type": "uint8"
                    },
                    {
                      "internalType": "address",
                      "name": "assetAddress",
                      "type": "address"
                    }
                  ],
                  "internalType": "struct Asset",
                  "name": "asset",
                  "type": "tuple"
                },
                {
                  "internalType": "uint256",
                  "name": "amount",
                  "type": "uint256"
                }
              ],
              "internalType": "struct AssetAmount[]",
              "name": "outputAssetAmounts",
              "type": "tuple[]"
            },
            {
              "internalType": "int16",
              "name": "nextStepIndex",
              "type": "int16"
            },
            {
              "internalType": "int24",
              "name": "fee",
              "type": "int24"
            }
          ],
          "internalType": "struct WorkflowStepResult",
          "name": "",
          "type": "tuple"
        }
      ],
      "stateMutability": "payable",
      "type": "function"
    },
    {
      "inputs": [],
      "name": "frontDoorAddress",
      "outputs": [
        {
          "internalType": "address",
          "name": "",
          "type": "address"
        }
      ],
      "stateMutability": "view",
      "type": "function"
    },
    {
      "inputs": [
        {
          "internalType": "uint16",
          "name": "",
          "type": "uint16"
        },
        {
          "internalType": "bytes",
          "name": "",
          "type": "bytes"
        },
        {
          "internalType": "uint256",
          "name": "",
          "type": "uint256"
        },
        {
          "internalType": "address",
          "name": "tokenAddress",
          "type": "address"
        },
        {
          "internalType": "uint256",
          "name": "amount",
          "type": "uint256"
        },
        {
          "internalType": "bytes",
          "name": "payload",
          "type": "bytes"
        }
      ],
      "name": "sgReceive",
      "outputs": [],
      "stateMutability": "nonpayable",
      "type": "function"
    },
    {
      "inputs": [],
      "name": "stargateRouterAddress",
      "outputs": [
        {
          "internalType": "address",
          "name": "",
          "type": "address"
        }
      ],
      "stateMutability": "view",
      "type": "function"
    }
  ],
  "transactionHash": "0x77e3c83da48e7172529912f740b6f4ac187221087835d15fcffa74760a5db393",
  "args": [
    "0x5DE1dF35467c24C024E598ae6a2FB98240e62EC7",
    "0x53Bf833A5d6c4ddA888F69c22C88C9f356a41614"
  ],
  "numDeployments": 6,
  "solcInputHash": "6009b9d942950c5f0567e391552978a1",
  "bytecode": "0x60c06040523480156200001157600080fd5b506040516200360b3803806200360b833981810160405281019062000037919062000111565b8173ffffffffffffffffffffffffffffffffffffffff1660808173ffffffffffffffffffffffffffffffffffffffff16815250508073ffffffffffffffffffffffffffffffffffffffff1660a08173ffffffffffffffffffffffffffffffffffffffff1681525050505062000158565b600080fd5b600073ffffffffffffffffffffffffffffffffffffffff82169050919050565b6000620000d982620000ac565b9050919050565b620000eb81620000cc565b8114620000f757600080fd5b50565b6000815190506200010b81620000e0565b92915050565b600080604083850312156200012b576200012a620000a7565b5b60006200013b85828601620000fa565b92505060206200014e85828601620000fa565b9150509250929050565b60805160a05161346b620001a06000396000818160f50152818161076d01528181610b290152610f4701526000818161011901528181610c130152610d06015261346b6000f3fe60806040526004361061003f5760003560e01c80631d2091bf1461004457806350fd910e1461006f5780637bb26ca71461009a578063ab8236f3146100ca575b600080fd5b34801561005057600080fd5b506100596100f3565b60405161006691906115a7565b60405180910390f35b34801561007b57600080fd5b50610084610117565b60405161009191906115a7565b60405180910390f35b6100b460048036038101906100af9190611691565b61013b565b6040516100c19190611960565b60405180910390f35b3480156100d657600080fd5b506100f160048036038101906100ec9190611b55565b610b27565b005b7f000000000000000000000000000000000000000000000000000000000000000081565b7f000000000000000000000000000000000000000000000000000000000000000081565b6101436113f9565b61014b611427565b60028686905014610191576040517f08c379a000000000000000000000000000000000000000000000000000000000815260040161018890611c77565b60405180910390fd5b600060028111156101a5576101a461173e565b5b868660008181106101b9576101b8611c97565b5b90506060020160000160000160208101906101d49190611ceb565b60028111156101e6576101e561173e565b5b036102e957600160028111156101ff576101fe61173e565b5b8686600181811061021357610212611c97565b5b905060600201600001600001602081019061022e9190611ceb565b60028111156102405761023f61173e565b5b14610280576040517f08c379a000000000000000000000000000000000000000000000000000000000815260040161027790611d64565b60405180910390fd5b8585600081811061029457610293611c97565b5b9050606002018036038101906102aa9190611e2e565b8160800181905250858560018181106102c6576102c5611c97565b5b9050606002018036038101906102dc9190611e2e565b8160a0018190525061047d565b600060028111156102fd576102fc61173e565b5b8686600181811061031157610310611c97565b5b905060600201600001600001602081019061032c9190611ceb565b600281111561033e5761033d61173e565b5b0361044157600160028111156103575761035661173e565b5b8686600081811061036b5761036a611c97565b5b90506060020160000160000160208101906103869190611ceb565b60028111156103985761039761173e565b5b146103d8576040517f08c379a00000000000000000000000000000000000000000000000000000000081526004016103cf90611d64565b60405180910390fd5b858560018181106103ec576103eb611c97565b5b9050606002018036038101906104029190611e2e565b81608001819052508585600081811061041e5761041d611c97565b5b9050606002018036038101906104349190611e2e565b8160a0018190525061047c565b6040517f08c379a000000000000000000000000000000000000000000000000000000000815260040161047390611ea7565b60405180910390fd5b5b600160028111156104915761049061173e565b5b868660008181106104a5576104a4611c97565b5b90506060020160000160000160208101906104c09190611ceb565b60028111156104d2576104d161173e565b5b14806105305750600060028111156104ed576104ec61173e565b5b8686600081811061050157610500611c97565b5b905060600201600001600001602081019061051c9190611ceb565b600281111561052e5761052d61173e565b5b145b61056f576040517f08c379a000000000000000000000000000000000000000000000000000000000815260040161056690611f39565b60405180910390fd5b600160028111156105835761058261173e565b5b8686600081811061059757610596611c97565b5b90506060020160000160000160208101906105b29190611ceb565b60028111156105c4576105c361173e565b5b0361061f5761061e868660008181106105e0576105df611c97565b5b90506060020160000160200160208101906105fb9190611f59565b8787600081811061060f5761060e611c97565b5b90506060020160400135610f24565b5b838381019061062e91906120fc565b816020018190525080602001516000015160405160200161064f919061218d565b604051602081830303815290604052816040018190525080602001516101000151156106c257620186a0816020015160e001518787600081811061069657610695611c97565b5b905060600201604001356106aa91906121d7565b6106b49190612248565b8160600181815250506106d5565b806020015160e001518160600181815250505b7fc919a44972f2a555d7b70313ba420f3ece86780db879b0e70e766c61ae84ad5c8160800151602001518260a0015160200151836020015160000151846020015160400151856020015160600151866020015160800151876020015160a00151886020015160c0015189606001518a6020015161012001516040516107639a99989796959493929190612316565b60405180910390a17f000000000000000000000000000000000000000000000000000000000000000073ffffffffffffffffffffffffffffffffffffffff16639fbf10fc826080015160200151836020015160400151846020015160600151856020015160800151338760a0015160200151886060015160405180606001604052808b6020015160a0015181526020018b6020015160c0015181526020018b602001516020015160405160200161081a919061218d565b6040516020818303038152906040528152508a604001518b6020015161012001516040518b63ffffffff1660e01b815260040161085f99989796959493929190612474565b6000604051808303818588803b15801561087857600080fd5b505af115801561088c573d6000803e3d6000fd5b5050505050600081602001516101200151511115610a0b576000600167ffffffffffffffff8111156108c1576108c06119d2565b5b6040519080825280602002602001820160405280156108fa57816020015b6108e761146f565b8152602001906001900390816108df5790505b5090508160a001518160008151811061091657610915611c97565b5b602002602001018190525081606001518160008151811061093a57610939611c97565b5b602002602001015160200181815250506000826020015161016001516109ad57600067ffffffffffffffff811115610975576109746119d2565b5b6040519080825280601f01601f1916602001820160405280156109a75781602001600182028036833780820191505090505b506109b8565b826020015161012001515b90507f92cabcced306320fcb4c1a1d8c0cec733aea48602b9740e521a95ae20030009d836020015160400151846020015161014001518484604051610a0094939291906125d1565b60405180910390a150505b60405180608001604052808787808060200260200160405190810160405280939291908181526020016000905b82821015610a6857848483905060600201803603810190610a599190611e2e565b81526020019060010190610a38565b50505050508152602001600067ffffffffffffffff811115610a8d57610a8c6119d2565b5b604051908082528060200260200182016040528015610ac657816020015b610ab361146f565b815260200190600190039081610aab5790505b5081526020017ffffffffffffffffffffffffffffffffffffffffffffffffffffffffffffffffe60010b81526020017fffffffffffffffffffffffffffffffffffffffffffffffffffffffffffffffff60020b815250915050949350505050565b7f000000000000000000000000000000000000000000000000000000000000000073ffffffffffffffffffffffffffffffffffffffff163373ffffffffffffffffffffffffffffffffffffffff1614610bb5576040517f08c379a0000000000000000000000000000000000000000000000000000000008152600401610bac906126a9565b60405180910390fd5b600081806020019051810190610bcb9190612bea565b90507f068d4646b1f017626e64e0ec01e0509c83002732d5599a1b5ccacd00d5a3d4ea848483604051610c0093929190612f21565b60405180910390a16000849050610c38817f000000000000000000000000000000000000000000000000000000000000000086610fcd565b6000600167ffffffffffffffff811115610c5557610c546119d2565b5b604051908082528060200260200182016040528015610c8e57816020015b610c7b61146f565b815260200190600190039081610c735790505b5090506040518060400160405280604051806040016040528060016002811115610cbb57610cba61173e565b5b81526020018973ffffffffffffffffffffffffffffffffffffffff1681525081526020018681525081600081518110610cf757610cf6611c97565b5b602002602001018190525060007f0000000000000000000000000000000000000000000000000000000000000000905060008173ffffffffffffffffffffffffffffffffffffffff1663f92b3d15866000015187602001518860400151876040518563ffffffff1660e01b8152600401610d749493929190612f9c565b600060405180830381600087803b158015610d8e57600080fd5b505af1925050508015610d9f575060015b610ed157610dab612ffc565b806308c379a003610e075750610dbf61301e565b80610dca5750610e61565b7ffda340082949e098c3dd025a930d09f52326dc91cc6e06a752d91f7586308b8581604051610df991906130f2565b60405180910390a150610ecc565b634e487b7103610e6157610e19613114565b90610e245750610e61565b7f82bb88474c1b4f5c8c0da3a05d71c0d92f04a6e50a272b0da1ddac3ce649f60b81604051610e539190613135565b60405180910390a150610ecc565b3d8060008114610e8d576040519150601f19603f3d011682016040523d82523d6000602084013e610e92565b606091505b507f12b66dc35d0dae0c1d5c52a2e47be74c041aacb614a7aa119c2a231fb4d4d07a81604051610ec29190613150565b60405180910390a1505b610f02565b7f700d3395f2bce78f97bd5a2b23366c66cfcbc8bac44e35f89af808e63fbc932860405160405180910390a1600190505b80610f1757610f16848660000151896110df565b5b5050505050505050505050565b60008290508073ffffffffffffffffffffffffffffffffffffffff1663095ea7b37f0000000000000000000000000000000000000000000000000000000000000000846040518363ffffffff1660e01b8152600401610f84929190613172565b6020604051808303816000875af1158015610fa3573d6000803e3d6000fd5b505050506040513d601f19601f82011682018060405250810190610fc7919061319b565b50505050565b6000818473ffffffffffffffffffffffffffffffffffffffff1663dd62ed3e30866040518363ffffffff1660e01b815260040161100b9291906131c8565b602060405180830381865afa158015611028573d6000803e3d6000fd5b505050506040513d601f19601f8201168201806040525081019061104c91906131f1565b611056919061321e565b90506110d98463095ea7b360e01b8584604051602401611077929190613172565b604051602081830303815290604052907bffffffffffffffffffffffffffffffffffffffffffffffffffffffff19166020820180517bffffffffffffffffffffffffffffffffffffffffffffffffffffffff8381831617835250505050611165565b50505050565b6111608363a9059cbb60e01b84846040516024016110fe929190613172565b604051602081830303815290604052907bffffffffffffffffffffffffffffffffffffffffffffffffffffffff19166020820180517bffffffffffffffffffffffffffffffffffffffffffffffffffffffff8381831617835250505050611165565b505050565b60006111c7826040518060400160405280602081526020017f5361666545524332303a206c6f772d6c6576656c2063616c6c206661696c65648152508573ffffffffffffffffffffffffffffffffffffffff1661122c9092919063ffffffff16565b905060008151111561122757808060200190518101906111e7919061319b565b611226576040517f08c379a000000000000000000000000000000000000000000000000000000000815260040161121d906132c4565b60405180910390fd5b5b505050565b606061123b8484600085611244565b90509392505050565b606082471015611289576040517f08c379a000000000000000000000000000000000000000000000000000000000815260040161128090613356565b60405180910390fd5b6000808673ffffffffffffffffffffffffffffffffffffffff1685876040516112b291906133b2565b60006040518083038185875af1925050503d80600081146112ef576040519150601f19603f3d011682016040523d82523d6000602084013e6112f4565b606091505b509150915061130587838387611311565b92505050949350505050565b6060831561137357600083510361136b5761132b85611386565b61136a576040517f08c379a000000000000000000000000000000000000000000000000000000000815260040161136190613415565b60405180910390fd5b5b82905061137e565b61137d83836113a9565b5b949350505050565b6000808273ffffffffffffffffffffffffffffffffffffffff163b119050919050565b6000825111156113bc5781518083602001fd5b806040517f08c379a00000000000000000000000000000000000000000000000000000000081526004016113f091906130f2565b60405180910390fd5b60405180608001604052806060815260200160608152602001600060010b8152602001600060020b81525090565b6040518060c001604052806000815260200161144161148f565b8152602001606081526020016000815260200161145c61146f565b815260200161146961146f565b81525090565b6040518060400160405280611482611524565b8152602001600081525090565b604051806101800160405280600073ffffffffffffffffffffffffffffffffffffffff168152602001600073ffffffffffffffffffffffffffffffffffffffff168152602001600061ffff168152602001600081526020016000815260200160008152602001600081526020016000815260200160001515815260200160608152602001600081526020016000151581525090565b6040518060400160405280600060028111156115435761154261173e565b5b8152602001600073ffffffffffffffffffffffffffffffffffffffff1681525090565b600073ffffffffffffffffffffffffffffffffffffffff82169050919050565b600061159182611566565b9050919050565b6115a181611586565b82525050565b60006020820190506115bc6000830184611598565b92915050565b6000604051905090565b600080fd5b600080fd5b600080fd5b600080fd5b600080fd5b60008083601f8401126115fb576115fa6115d6565b5b8235905067ffffffffffffffff811115611618576116176115db565b5b602083019150836060820283011115611634576116336115e0565b5b9250929050565b60008083601f840112611651576116506115d6565b5b8235905067ffffffffffffffff81111561166e5761166d6115db565b5b60208301915083600182028301111561168a576116896115e0565b5b9250929050565b600080600080604085870312156116ab576116aa6115cc565b5b600085013567ffffffffffffffff8111156116c9576116c86115d1565b5b6116d5878288016115e5565b9450945050602085013567ffffffffffffffff8111156116f8576116f76115d1565b5b6117048782880161163b565b925092505092959194509250565b600081519050919050565b600082825260208201905092915050565b6000819050602082019050919050565b7f4e487b7100000000000000000000000000000000000000000000000000000000600052602160045260246000fd5b6003811061177e5761177d61173e565b5b50565b600081905061178f8261176d565b919050565b600061179f82611781565b9050919050565b6117af81611794565b82525050565b6117be81611586565b82525050565b6040820160008201516117da60008501826117a6565b5060208201516117ed60208501826117b5565b50505050565b6000819050919050565b611806816117f3565b82525050565b60608201600082015161182260008501826117c4565b50602082015161183560408501826117fd565b50505050565b6000611847838361180c565b60608301905092915050565b6000602082019050919050565b600061186b82611712565b611875818561171d565b93506118808361172e565b8060005b838110156118b1578151611898888261183b565b97506118a383611853565b925050600181019050611884565b5085935050505092915050565b60008160010b9050919050565b6118d4816118be565b82525050565b60008160020b9050919050565b6118f0816118da565b82525050565b600060808301600083015184820360008601526119138282611860565b9150506020830151848203602086015261192d8282611860565b915050604083015161194260408601826118cb565b50606083015161195560608601826118e7565b508091505092915050565b6000602082019050818103600083015261197a81846118f6565b905092915050565b600061ffff82169050919050565b61199981611982565b81146119a457600080fd5b50565b6000813590506119b681611990565b92915050565b600080fd5b6000601f19601f8301169050919050565b7f4e487b7100000000000000000000000000000000000000000000000000000000600052604160045260246000fd5b611a0a826119c1565b810181811067ffffffffffffffff82111715611a2957611a286119d2565b5b80604052505050565b6000611a3c6115c2565b9050611a488282611a01565b919050565b600067ffffffffffffffff821115611a6857611a676119d2565b5b611a71826119c1565b9050602081019050919050565b82818337600083830152505050565b6000611aa0611a9b84611a4d565b611a32565b905082815260208101848484011115611abc57611abb6119bc565b5b611ac7848285611a7e565b509392505050565b600082601f830112611ae457611ae36115d6565b5b8135611af4848260208601611a8d565b91505092915050565b611b06816117f3565b8114611b1157600080fd5b50565b600081359050611b2381611afd565b92915050565b611b3281611586565b8114611b3d57600080fd5b50565b600081359050611b4f81611b29565b92915050565b60008060008060008060c08789031215611b7257611b716115cc565b5b6000611b8089828a016119a7565b965050602087013567ffffffffffffffff811115611ba157611ba06115d1565b5b611bad89828a01611acf565b9550506040611bbe89828a01611b14565b9450506060611bcf89828a01611b40565b9350506080611be089828a01611b14565b92505060a087013567ffffffffffffffff811115611c0157611c006115d1565b5b611c0d89828a01611acf565b9150509295509295509295565b600082825260208201905092915050565b7f7468657265206d757374206265203220696e7075742061737365747300000000600082015250565b6000611c61601c83611c1a565b9150611c6c82611c2b565b602082019050919050565b60006020820190508181036000830152611c9081611c54565b9050919050565b7f4e487b7100000000000000000000000000000000000000000000000000000000600052603260045260246000fd5b60038110611cd357600080fd5b50565b600081359050611ce581611cc6565b92915050565b600060208284031215611d0157611d006115cc565b5b6000611d0f84828501611cd6565b91505092915050565b7f6f6e6520696e707574206173736574206d75737420626520616e204552433230600082015250565b6000611d4e602083611c1a565b9150611d5982611d18565b602082019050919050565b60006020820190508181036000830152611d7d81611d41565b9050919050565b600080fd5b600080fd5b600060408284031215611da457611da3611d84565b5b611dae6040611a32565b90506000611dbe84828501611cd6565b6000830152506020611dd284828501611b40565b60208301525092915050565b600060608284031215611df457611df3611d84565b5b611dfe6040611a32565b90506000611e0e84828501611d8e565b6000830152506040611e2284828501611b14565b60208301525092915050565b600060608284031215611e4457611e436115cc565b5b6000611e5284828501611dde565b91505092915050565b7f6f6e6520696e707574206173736574206d757374206265206e61746976650000600082015250565b6000611e91601e83611c1a565b9150611e9c82611e5b565b602082019050919050565b60006020820190508181036000830152611ec081611e84565b9050919050565b7f74686520696e707574206173736574206d75737420626520616e20455243323060008201527f206f72204e617469766500000000000000000000000000000000000000000000602082015250565b6000611f23602a83611c1a565b9150611f2e82611ec7565b604082019050919050565b60006020820190508181036000830152611f5281611f16565b9050919050565b600060208284031215611f6f57611f6e6115cc565b5b6000611f7d84828501611b40565b91505092915050565b60008115159050919050565b611f9b81611f86565b8114611fa657600080fd5b50565b600081359050611fb881611f92565b92915050565b60006101808284031215611fd557611fd4611d84565b5b611fe0610180611a32565b90506000611ff084828501611b40565b600083015250602061200484828501611b40565b6020830152506040612018848285016119a7565b604083015250606061202c84828501611b14565b606083015250608061204084828501611b14565b60808301525060a061205484828501611b14565b60a08301525060c061206884828501611b14565b60c08301525060e061207c84828501611b14565b60e08301525061010061209184828501611fa9565b6101008301525061012082013567ffffffffffffffff8111156120b7576120b6611d89565b5b6120c384828501611acf565b610120830152506101406120d984828501611b14565b610140830152506101606120ef84828501611fa9565b6101608301525092915050565b600060208284031215612112576121116115cc565b5b600082013567ffffffffffffffff8111156121305761212f6115d1565b5b61213c84828501611fbe565b91505092915050565b60008160601b9050919050565b600061215d82612145565b9050919050565b600061216f82612152565b9050919050565b61218761218282611586565b612164565b82525050565b60006121998284612176565b60148201915081905092915050565b7f4e487b7100000000000000000000000000000000000000000000000000000000600052601160045260246000fd5b60006121e2826117f3565b91506121ed836117f3565b92508282026121fb816117f3565b91508282048414831517612212576122116121a8565b5b5092915050565b7f4e487b7100000000000000000000000000000000000000000000000000000000600052601260045260246000fd5b6000612253826117f3565b915061225e836117f3565b92508261226e5761226d612219565b5b828204905092915050565b612282816117f3565b82525050565b61229181611982565b82525050565b600081519050919050565b600082825260208201905092915050565b60005b838110156122d15780820151818401526020810190506122b6565b60008484015250505050565b60006122e882612297565b6122f281856122a2565b93506123028185602086016122b3565b61230b816119c1565b840191505092915050565b60006101408201905061232c600083018d612279565b612339602083018c612279565b612346604083018b611598565b612353606083018a612288565b6123606080830189612279565b61236d60a0830188612279565b61237a60c0830187612279565b61238760e0830186612279565b612395610100830185612279565b8181036101208301526123a881846122dd565b90509b9a5050505050505050505050565b60006123c482611566565b9050919050565b6123d4816123b9565b82525050565b600082825260208201905092915050565b60006123f682612297565b61240081856123da565b93506124108185602086016122b3565b612419816119c1565b840191505092915050565b600060608301600083015161243c60008601826117fd565b50602083015161244f60208601826117fd565b506040830151848203604086015261246782826123eb565b9150508091505092915050565b60006101208201905061248a600083018c612288565b612497602083018b612279565b6124a4604083018a612279565b6124b160608301896123cb565b6124be6080830188612279565b6124cb60a0830187612279565b81810360c08301526124dd8186612424565b905081810360e08301526124f181856122dd565b905081810361010083015261250681846122dd565b90509a9950505050505050505050565b7f73746172676174652d6272696467650000000000000000000000000000000000600082015250565b600061254c600f83611c1a565b915061255782612516565b602082019050919050565b600082825260208201905092915050565b600061257e82611712565b6125888185612562565b93506125938361172e565b8060005b838110156125c45781516125ab888261183b565b97506125b683611853565b925050600181019050612597565b5085935050505092915050565b600060a08201905081810360008301526125ea8161253f565b90506125f96020830187612288565b6126066040830186612279565b81810360608301526126188185612573565b9050818103608083015261262c81846122dd565b905095945050505050565b7f6f6e6c79205374617267617465206973207065726d697474656420746f20636160008201527f6c6c207367526563656976650000000000000000000000000000000000000000602082015250565b6000612693602c83611c1a565b915061269e82612637565b604082019050919050565b600060208201905081810360008301526126c281612686565b9050919050565b6000815190506126d881611b29565b92915050565b6000815190506126ed81611afd565b92915050565b600067ffffffffffffffff82111561270e5761270d6119d2565b5b602082029050602081019050919050565b60008151905061272e81611990565b92915050565b600067ffffffffffffffff82111561274f5761274e6119d2565b5b602082029050602081019050919050565b60008151905061276f81611f92565b92915050565b60008151905061278481611cc6565b92915050565b6000604082840312156127a05761279f611d84565b5b6127aa6040611a32565b905060006127ba84828501612775565b60008301525060206127ce848285016126c9565b60208301525092915050565b600060a082840312156127f0576127ef611d84565b5b6127fa6080611a32565b9050600061280a84828501612760565b600083015250602061281e84828501612760565b60208301525060406128328482850161278a565b6040830152506080612846848285016126de565b60608301525092915050565b600061286561286084612734565b611a32565b90508083825260208201905060a08402830185811115612888576128876115e0565b5b835b818110156128b1578061289d88826127da565b84526020840193505060a08101905061288a565b5050509392505050565b600082601f8301126128d0576128cf6115d6565b5b81516128e0848260208601612852565b91505092915050565b60006128fc6128f784611a4d565b611a32565b905082815260208101848484011115612918576129176119bc565b5b6129238482856122b3565b509392505050565b600082601f8301126129405761293f6115d6565b5b81516129508482602086016128e9565b91505092915050565b612962816118be565b811461296d57600080fd5b50565b60008151905061297f81612959565b92915050565b600060a0828403121561299b5761299a611d84565b5b6129a560a0611a32565b905060006129b58482850161271f565b60008301525060206129c9848285016126c9565b602083015250604082015167ffffffffffffffff8111156129ed576129ec611d89565b5b6129f9848285016128bb565b604083015250606082015167ffffffffffffffff811115612a1d57612a1c611d89565b5b612a298482850161292b565b6060830152506080612a3d84828501612970565b60808301525092915050565b6000612a5c612a57846126f3565b611a32565b90508083825260208201905060208402830185811115612a7f57612a7e6115e0565b5b835b81811015612ac657805167ffffffffffffffff811115612aa457612aa36115d6565b5b808601612ab18982612985565b85526020850194505050602081019050612a81565b5050509392505050565b600082601f830112612ae557612ae46115d6565b5b8151612af5848260208601612a49565b91505092915050565b600060408284031215612b1457612b13611d84565b5b612b1e6040611a32565b90506000612b2e848285016126c9565b600083015250602082015167ffffffffffffffff811115612b5257612b51611d89565b5b612b5e84828501612ad0565b60208301525092915050565b600060608284031215612b8057612b7f611d84565b5b612b8a6060611a32565b90506000612b9a848285016126c9565b6000830152506020612bae848285016126de565b602083015250604082015167ffffffffffffffff811115612bd257612bd1611d89565b5b612bde84828501612afe565b60408301525092915050565b600060208284031215612c0057612bff6115cc565b5b600082015167ffffffffffffffff811115612c1e57612c1d6115d1565b5b612c2a84828501612b6a565b91505092915050565b600081519050919050565b600082825260208201905092915050565b6000819050602082019050919050565b612c6881611982565b82525050565b600081519050919050565b600082825260208201905092915050565b6000819050602082019050919050565b612ca381611f86565b82525050565b60a082016000820151612cbf6000850182612c9a565b506020820151612cd26020850182612c9a565b506040820151612ce560408501826117c4565b506060820151612cf860808501826117fd565b50505050565b6000612d0a8383612ca9565b60a08301905092915050565b6000602082019050919050565b6000612d2e82612c6e565b612d388185612c79565b9350612d4383612c8a565b8060005b83811015612d74578151612d5b8882612cfe565b9750612d6683612d16565b925050600181019050612d47565b5085935050505092915050565b600060a083016000830151612d996000860182612c5f565b506020830151612dac60208601826117b5565b5060408301518482036040860152612dc48282612d23565b91505060608301518482036060860152612dde82826123eb565b9150506080830151612df360808601826118cb565b508091505092915050565b6000612e0a8383612d81565b905092915050565b6000602082019050919050565b6000612e2a82612c33565b612e348185612c3e565b935083602082028501612e4685612c4f565b8060005b85811015612e825784840389528151612e638582612dfe565b9450612e6e83612e12565b925060208a01995050600181019050612e4a565b50829750879550505050505092915050565b6000604083016000830151612eac60008601826117b5565b5060208301518482036020860152612ec48282612e1f565b9150508091505092915050565b6000606083016000830151612ee960008601826117b5565b506020830151612efc60208601826117fd565b5060408301518482036040860152612f148282612e94565b9150508091505092915050565b6000606082019050612f366000830186611598565b612f436020830185612279565b8181036040830152612f558184612ed1565b9050949350505050565b6000604083016000830151612f7760008601826117b5565b5060208301518482036020860152612f8f8282612e1f565b9150508091505092915050565b6000608082019050612fb16000830187611598565b612fbe6020830186612279565b8181036040830152612fd08185612f5f565b90508181036060830152612fe48184612573565b905095945050505050565b60008160e01c9050919050565b600060033d111561301b5760046000803e613018600051612fef565b90505b90565b600060443d106130ab576130306115c2565b60043d036004823e80513d602482011167ffffffffffffffff821117156130585750506130ab565b808201805167ffffffffffffffff81111561307657505050506130ab565b80602083010160043d0385018111156130935750505050506130ab565b6130a282602001850186611a01565b82955050505050505b90565b600081519050919050565b60006130c4826130ae565b6130ce8185611c1a565b93506130de8185602086016122b3565b6130e7816119c1565b840191505092915050565b6000602082019050818103600083015261310c81846130b9565b905092915050565b60008060233d1115613131576020600460003e6001915060005190505b9091565b600060208201905061314a6000830184612279565b92915050565b6000602082019050818103600083015261316a81846122dd565b905092915050565b60006040820190506131876000830185611598565b6131946020830184612279565b9392505050565b6000602082840312156131b1576131b06115cc565b5b60006131bf84828501612760565b91505092915050565b60006040820190506131dd6000830185611598565b6131ea6020830184611598565b9392505050565b600060208284031215613207576132066115cc565b5b6000613215848285016126de565b91505092915050565b6000613229826117f3565b9150613234836117f3565b925082820190508082111561324c5761324b6121a8565b5b92915050565b7f5361666545524332303a204552433230206f7065726174696f6e20646964206e60008201527f6f74207375636365656400000000000000000000000000000000000000000000602082015250565b60006132ae602a83611c1a565b91506132b982613252565b604082019050919050565b600060208201905081810360008301526132dd816132a1565b9050919050565b7f416464726573733a20696e73756666696369656e742062616c616e636520666f60008201527f722063616c6c0000000000000000000000000000000000000000000000000000602082015250565b6000613340602683611c1a565b915061334b826132e4565b604082019050919050565b6000602082019050818103600083015261336f81613333565b9050919050565b600081905092915050565b600061338c82612297565b6133968185613376565b93506133a68185602086016122b3565b80840191505092915050565b60006133be8284613381565b915081905092915050565b7f416464726573733a2063616c6c20746f206e6f6e2d636f6e7472616374000000600082015250565b60006133ff601d83611c1a565b915061340a826133c9565b602082019050919050565b6000602082019050818103600083015261342e816133f2565b905091905056fea26469706673582212204c5a0c8f4bb80949d82f50ad97418f630494da3aa9f4c5e6b89ae1d946fc247064736f6c63430008120033",
  "devdoc": {
    "events": {
      "SgReceiveCalled(address,uint256,(address,uint256,(address,(uint16,address,(bool,bool,(uint8,address),uint256)[],bytes,int16)[])))": {
        "params": {
          "bridgePayload": "the payload that was sent along with the erc20.",
          "tokenAddress": "the address of the erc20 that was transfered from the source chain to this chain.abi"
        }
      }
    },
    "kind": "dev",
    "methods": {},
    "version": 1
  },
  "userdoc": {
    "events": {
      "SgReceiveCalled(address,uint256,(address,uint256,(address,(uint16,address,(bool,bool,(uint8,address),uint256)[],bytes,int16)[])))": {
        "notice": "This event is emitted on the destination chain when Stargate invokes our sgReceive method"
      }
    },
    "kind": "user",
    "methods": {},
    "version": 1
  },
  "storageLayout": {
    "storage": [],
    "types": null
  }
}