{
  "contractName": "FrontDoor",
  "abi": [
    {
      "inputs": [],
      "stateMutability": "nonpayable",
      "type": "constructor"
    },
    {
      "anonymous": false,
      "inputs": [
        {
          "indexed": false,
          "internalType": "address",
          "name": "sender",
          "type": "address"
        },
        {
          "indexed": false,
          "internalType": "address",
          "name": "newOwner",
          "type": "address"
        }
      ],
      "name": "LogNewOwner",
      "type": "event"
    },
    {
      "anonymous": false,
      "inputs": [
        {
          "indexed": false,
          "internalType": "address",
          "name": "sender",
          "type": "address"
        },
        {
          "indexed": false,
          "internalType": "address",
          "name": "oldUpstream",
          "type": "address"
        },
        {
          "indexed": false,
          "internalType": "address",
          "name": "newUpstream",
          "type": "address"
        }
      ],
      "name": "LogNewUpstream",
      "type": "event"
    },
    {
      "stateMutability": "payable",
      "type": "fallback"
    },
    {
      "inputs": [],
      "name": "ETERNAL_STORAGE_ADDRESS_SLOT",
      "outputs": [
        {
          "internalType": "uint256",
          "name": "",
          "type": "uint256"
        }
      ],
      "stateMutability": "view",
      "type": "function"
    },
    {
      "inputs": [],
      "name": "FRONTDOOR_ADDRESS_SLOT",
      "outputs": [
        {
          "internalType": "uint256",
          "name": "",
          "type": "uint256"
        }
      ],
      "stateMutability": "view",
      "type": "function"
    },
    {
      "inputs": [],
      "name": "IS_USERPROXY_SLOT",
      "outputs": [
        {
          "internalType": "uint256",
          "name": "",
          "type": "uint256"
        }
      ],
      "stateMutability": "view",
      "type": "function"
    },
    {
      "inputs": [],
      "name": "OWNER_SLOT",
      "outputs": [
        {
          "internalType": "uint256",
          "name": "",
          "type": "uint256"
        }
      ],
      "stateMutability": "view",
      "type": "function"
    },
    {
      "inputs": [],
      "name": "UPSTREAM_SLOT",
      "outputs": [
        {
          "internalType": "uint256",
          "name": "",
          "type": "uint256"
        }
      ],
      "stateMutability": "view",
      "type": "function"
    },
    {
      "inputs": [],
      "name": "getOwner",
      "outputs": [
        {
          "internalType": "address",
          "name": "x",
          "type": "address"
        }
      ],
      "stateMutability": "view",
      "type": "function"
    },
    {
      "inputs": [],
      "name": "getUpstream",
      "outputs": [
        {
          "internalType": "address",
          "name": "x",
          "type": "address"
        }
      ],
      "stateMutability": "view",
      "type": "function"
    },
    {
      "inputs": [],
      "name": "isUserProxy",
      "outputs": [
        {
          "internalType": "bool",
          "name": "x",
          "type": "bool"
        }
      ],
      "stateMutability": "view",
      "type": "function"
    },
    {
      "inputs": [
        {
          "internalType": "address",
          "name": "newOwner",
          "type": "address"
        }
      ],
      "name": "setOwner",
      "outputs": [],
      "stateMutability": "nonpayable",
      "type": "function"
    },
    {
      "inputs": [
        {
          "internalType": "address",
          "name": "newUpstream",
          "type": "address"
        }
      ],
      "name": "setUpstream",
      "outputs": [],
      "stateMutability": "nonpayable",
      "type": "function"
    },
    {
      "stateMutability": "payable",
      "type": "receive"
    },
    {
      "inputs": [],
      "name": "getFrontDoorAddress",
      "outputs": [
        {
          "internalType": "address",
          "name": "x",
          "type": "address"
        }
      ],
      "stateMutability": "view",
      "type": "function"
    },
    {
      "inputs": [],
      "name": "getEternalStorageAddress",
      "outputs": [
        {
          "internalType": "address",
          "name": "x",
          "type": "address"
        }
      ],
      "stateMutability": "view",
      "type": "function"
    }
  ],
  "bytecode": "0x608060405234801561001057600080fd5b50600080339050807f02016836a56b71f0d02689e69e326f4f4c1b9057164ef592671cf0d37c8040c05550807f1b97094c39ac98a2f1db36641197a2f02055ee6d992a889f64e74260e866a1a75550600060405161006d90610108565b604051809103906000f080158015610089573d6000803e3d6000fd5b5090506000819050600030905060007fb498d988805c6f3156e1ebd768061aa2780a74323f2f2d22239ab2852836221d55807f618f1bc4c8f4f99ac8b24d512c92dce5a12e4aa22a9c655d2dcb3c77e17941e755817fedd85ae326febb54e962a94ad0a00fc5f34b30b69695966833f1a8e505211d5f55505050610115565b611c188061097683390190565b610852806101246000396000f3fe6080604052600436106100ab5760003560e01c8063893d20e811610064578063893d20e8146101c2578063963949a3146101ed578063ccb3113e14610218578063cf4b85f514610243578063fb5689661461026e578063ff05c2a814610299576100b2565b80630ead60ac146100c457806313af4035146100ef57806356dececb1461011857806358aa6a0f14610143578063742ec6661461016e5780638925b2ed14610197576100b2565b366100b257005b6100c26100bd6102c4565b6102ed565b005b3480156100d057600080fd5b506100d9610313565b6040516100e6919061066f565b60405180910390f35b3480156100fb57600080fd5b50610116600480360381019061011191906106ed565b610337565b005b34801561012457600080fd5b5061012d6102c4565b60405161013a9190610729565b60405180910390f35b34801561014f57600080fd5b5061015861040e565b604051610165919061066f565b60405180910390f35b34801561017a57600080fd5b50610195600480360381019061019091906106ed565b610432565b005b3480156101a357600080fd5b506101ac610546565b6040516101b9919061066f565b60405180910390f35b3480156101ce57600080fd5b506101d761056a565b6040516101e49190610729565b60405180910390f35b3480156101f957600080fd5b50610202610593565b60405161020f919061066f565b60405180910390f35b34801561022457600080fd5b5061022d6105b7565b60405161023a919061066f565b60405180910390f35b34801561024f57600080fd5b506102586105db565b6040516102659190610729565b60405180910390f35b34801561027a57600080fd5b50610283610604565b6040516102909190610729565b60405180910390f35b3480156102a557600080fd5b506102ae61062d565b6040516102bb919061075f565b60405180910390f35b60007f1b97094c39ac98a2f1db36641197a2f02055ee6d992a889f64e74260e866a1a754905090565b3660008037600080366000845af43d6000803e806000811461030e573d6000f35b3d6000fd5b7f1b97094c39ac98a2f1db36641197a2f02055ee6d992a889f64e74260e866a1a781565b61033f61056a565b73ffffffffffffffffffffffffffffffffffffffff163373ffffffffffffffffffffffffffffffffffffffff161461037657600080fd5b600073ffffffffffffffffffffffffffffffffffffffff168173ffffffffffffffffffffffffffffffffffffffff16036103af57600080fd5b807f02016836a56b71f0d02689e69e326f4f4c1b9057164ef592671cf0d37c8040c0557f1f8d7d25344642d919d55999e4664aa452a5f424bc0936ceb9c2b300db7dcbd9338260405161040392919061077a565b60405180910390a150565b7fb498d988805c6f3156e1ebd768061aa2780a74323f2f2d22239ab2852836221d81565b61043a61056a565b73ffffffffffffffffffffffffffffffffffffffff163373ffffffffffffffffffffffffffffffffffffffff161461047157600080fd5b60003073ffffffffffffffffffffffffffffffffffffffff166356dececb6040518163ffffffff1660e01b8152600401602060405180830381865afa1580156104be573d6000803e3d6000fd5b505050506040513d601f19601f820116820180604052508101906104e291906107b8565b9050817f1b97094c39ac98a2f1db36641197a2f02055ee6d992a889f64e74260e866a1a7557fb3d51b4e19bdb93dfcf43f1951a29eb5eb26e251c1af1550ed9a7b13f8022da733828460405161053a939291906107e5565b60405180910390a15050565b7f618f1bc4c8f4f99ac8b24d512c92dce5a12e4aa22a9c655d2dcb3c77e17941e781565b60007f02016836a56b71f0d02689e69e326f4f4c1b9057164ef592671cf0d37c8040c054905090565b7f02016836a56b71f0d02689e69e326f4f4c1b9057164ef592671cf0d37c8040c081565b7fedd85ae326febb54e962a94ad0a00fc5f34b30b69695966833f1a8e505211d5f81565b60007f618f1bc4c8f4f99ac8b24d512c92dce5a12e4aa22a9c655d2dcb3c77e17941e754905090565b60007fedd85ae326febb54e962a94ad0a00fc5f34b30b69695966833f1a8e505211d5f54905090565b60007fb498d988805c6f3156e1ebd768061aa2780a74323f2f2d22239ab2852836221d54905090565b6000819050919050565b61066981610656565b82525050565b60006020820190506106846000830184610660565b92915050565b600080fd5b600073ffffffffffffffffffffffffffffffffffffffff82169050919050565b60006106ba8261068f565b9050919050565b6106ca816106af565b81146106d557600080fd5b50565b6000813590506106e7816106c1565b92915050565b6000602082840312156107035761070261068a565b5b6000610711848285016106d8565b91505092915050565b610723816106af565b82525050565b600060208201905061073e600083018461071a565b92915050565b60008115159050919050565b61075981610744565b82525050565b60006020820190506107746000830184610750565b92915050565b600060408201905061078f600083018561071a565b61079c602083018461071a565b9392505050565b6000815190506107b2816106c1565b92915050565b6000602082840312156107ce576107cd61068a565b5b60006107dc848285016107a3565b91505092915050565b60006060820190506107fa600083018661071a565b610807602083018561071a565b610814604083018461071a565b94935050505056fea26469706673582212200984107e56ec794abd901540cfb39ebeda32e906662b0bf98c1345c5f45ab8bf64736f6c634300080d00336080604052336000806101000a81548173ffffffffffffffffffffffffffffffffffffffff021916908373ffffffffffffffffffffffffffffffffffffffff16021790555034801561005057600080fd5b50611bb8806100606000396000f3fe608060405234801561001057600080fd5b50600436106101425760003560e01c80638c160095116100b8578063ca446dd91161007c578063ca446dd914610395578063dc97d962146103b1578063e2a4853a146103e1578063e2b202bf146103fd578063f6bb3cc414610419578063fab494d91461043557610142565b80638c160095146102cd578063986e791a146102e9578063abfdcced14610319578063bd02d0f514610335578063c031a1801461036557610142565b80632e28d0841161010a5780632e28d084146101fd5780633e49bed0146102195780634755fa1414610235578063616b59f6146102655780636e899550146102815780637ae1cfca1461029d57610142565b80630e14a3761461014757806321f8a72114610163578063285f19c4146101935780632c62ff2d146101b15780632de74e04146101cd575b600080fd5b610161600480360381019061015c91906112b4565b610451565b005b61017d600480360381019061017891906112b4565b6104e2565b60405161018a9190611322565b60405180910390f35b61019b61051f565b6040516101a89190611356565b60405180910390f35b6101cb60048036038101906101c691906112b4565b610530565b005b6101e760048036038101906101e2919061139d565b6105ae565b6040516101f49190611425565b60405180910390f35b61021760048036038101906102129190611586565b610609565b005b610233600480360381019061022e9190611618565b61068d565b005b61024f600480360381019061024a9190611684565b610701565b60405161025c9190611322565b60405180910390f35b61027f600480360381019061027a91906112b4565b61077b565b005b61029b60048036038101906102969190611752565b6107f5565b005b6102b760048036038101906102b291906112b4565b610879565b6040516102c491906117c9565b60405180910390f35b6102e760048036038101906102e291906112b4565b6108a3565b005b61030360048036038101906102fe91906112b4565b610915565b604051610310919061186c565b60405180910390f35b610333600480360381019061032e91906118ba565b6109ba565b005b61034f600480360381019061034a91906112b4565b610a41565b60405161035c9190611356565b60405180910390f35b61037f600480360381019061037a91906112b4565b610a5e565b60405161038c919061194f565b60405180910390f35b6103af60048036038101906103aa919061199d565b610b03565b005b6103cb60048036038101906103c691906112b4565b610bb1565b6040516103d891906119ec565b60405180910390f35b6103fb60048036038101906103f69190611a07565b610bce565b005b610417600480360381019061041291906112b4565b610c42565b005b610433600480360381019061042e91906112b4565b610cb4565b005b61044f600480360381019061044a9190611a47565b610d2e565b005b60008054906101000a900473ffffffffffffffffffffffffffffffffffffffff1673ffffffffffffffffffffffffffffffffffffffff163373ffffffffffffffffffffffffffffffffffffffff16146104a957600080fd5b6003600082815260200190815260200160002060006101000a81549073ffffffffffffffffffffffffffffffffffffffff021916905550565b60006003600083815260200190815260200160002060009054906101000a900473ffffffffffffffffffffffffffffffffffffffff169050919050565b600061052b6007610da5565b905090565b60008054906101000a900473ffffffffffffffffffffffffffffffffffffffff1673ffffffffffffffffffffffffffffffffffffffff163373ffffffffffffffffffffffffffffffffffffffff161461058857600080fd5b6005600082815260200190815260200160002060006101000a81549060ff021916905550565b6105b661108d565b6000806105cd846007610dba90919063ffffffff16565b9150915060405180604001604052808361ffff1681526020018273ffffffffffffffffffffffffffffffffffffffff1681525092505050919050565b60008054906101000a900473ffffffffffffffffffffffffffffffffffffffff1673ffffffffffffffffffffffffffffffffffffffff163373ffffffffffffffffffffffffffffffffffffffff161461066157600080fd5b806004600084815260200190815260200160002090805190602001906106889291906110c1565b505050565b60008054906101000a900473ffffffffffffffffffffffffffffffffffffffff1673ffffffffffffffffffffffffffffffffffffffff163373ffffffffffffffffffffffffffffffffffffffff16146106e557600080fd5b8060066000848152602001908152602001600020819055505050565b60008060009054906101000a900473ffffffffffffffffffffffffffffffffffffffff1673ffffffffffffffffffffffffffffffffffffffff163373ffffffffffffffffffffffffffffffffffffffff161461075c57600080fd5b6107748261ffff166007610de690919063ffffffff16565b9050919050565b60008054906101000a900473ffffffffffffffffffffffffffffffffffffffff1673ffffffffffffffffffffffffffffffffffffffff163373ffffffffffffffffffffffffffffffffffffffff16146107d357600080fd5b6004600082815260200190815260200160002060006107f29190611147565b50565b60008054906101000a900473ffffffffffffffffffffffffffffffffffffffff1673ffffffffffffffffffffffffffffffffffffffff163373ffffffffffffffffffffffffffffffffffffffff161461084d57600080fd5b80600260008481526020019081526020016000209080519060200190610874929190611187565b505050565b60006005600083815260200190815260200160002060009054906101000a900460ff169050919050565b60008054906101000a900473ffffffffffffffffffffffffffffffffffffffff1673ffffffffffffffffffffffffffffffffffffffff163373ffffffffffffffffffffffffffffffffffffffff16146108fb57600080fd5b600660008281526020019081526020016000206000905550565b606060026000838152602001908152602001600020805461093590611ab6565b80601f016020809104026020016040519081016040528092919081815260200182805461096190611ab6565b80156109ae5780601f10610983576101008083540402835291602001916109ae565b820191906000526020600020905b81548152906001019060200180831161099157829003601f168201915b50505050509050919050565b60008054906101000a900473ffffffffffffffffffffffffffffffffffffffff1673ffffffffffffffffffffffffffffffffffffffff163373ffffffffffffffffffffffffffffffffffffffff1614610a1257600080fd5b806005600084815260200190815260200160002060006101000a81548160ff0219169083151502179055505050565b600060016000838152602001908152602001600020549050919050565b6060600460008381526020019081526020016000208054610a7e90611ab6565b80601f0160208091040260200160405190810160405280929190818152602001828054610aaa90611ab6565b8015610af75780601f10610acc57610100808354040283529160200191610af7565b820191906000526020600020905b815481529060010190602001808311610ada57829003601f168201915b50505050509050919050565b60008054906101000a900473ffffffffffffffffffffffffffffffffffffffff1673ffffffffffffffffffffffffffffffffffffffff163373ffffffffffffffffffffffffffffffffffffffff1614610b5b57600080fd5b806003600084815260200190815260200160002060006101000a81548173ffffffffffffffffffffffffffffffffffffffff021916908373ffffffffffffffffffffffffffffffffffffffff1602179055505050565b600060066000838152602001908152602001600020549050919050565b60008054906101000a900473ffffffffffffffffffffffffffffffffffffffff1673ffffffffffffffffffffffffffffffffffffffff163373ffffffffffffffffffffffffffffffffffffffff1614610c2657600080fd5b8060016000848152602001908152602001600020819055505050565b60008054906101000a900473ffffffffffffffffffffffffffffffffffffffff1673ffffffffffffffffffffffffffffffffffffffff163373ffffffffffffffffffffffffffffffffffffffff1614610c9a57600080fd5b600160008281526020019081526020016000206000905550565b60008054906101000a900473ffffffffffffffffffffffffffffffffffffffff1673ffffffffffffffffffffffffffffffffffffffff163373ffffffffffffffffffffffffffffffffffffffff1614610d0c57600080fd5b600260008281526020019081526020016000206000610d2b919061120d565b50565b60008054906101000a900473ffffffffffffffffffffffffffffffffffffffff1673ffffffffffffffffffffffffffffffffffffffff163373ffffffffffffffffffffffffffffffffffffffff1614610d8657600080fd5b610da08261ffff16826007610e039092919063ffffffff16565b505050565b6000610db382600001610e38565b9050919050565b600080600080610dcd8660000186610e4d565b915091508160001c8160001c9350935050509250929050565b6000610df8836000018360001b610e8d565b60001c905092915050565b6000610e2f846000018460001b8473ffffffffffffffffffffffffffffffffffffffff1660001b610f09565b90509392505050565b6000610e4682600001610f44565b9050919050565b6000806000610e688486600001610f5990919063ffffffff16565b9050808560020160008381526020019081526020016000205492509250509250929050565b6000808360020160008481526020019081526020016000205490506000801b81141580610ec05750610ebf8484610f70565b5b610eff576040517f08c379a0000000000000000000000000000000000000000000000000000000008152600401610ef690611b33565b60405180910390fd5b8091505092915050565b60008184600201600085815260200190815260200160002081905550610f3b8385600001610f9090919063ffffffff16565b90509392505050565b6000610f5282600001610fa7565b9050919050565b6000610f688360000183610fb8565b905092915050565b6000610f888284600001610fe390919063ffffffff16565b905092915050565b6000610f9f8360000183610ffa565b905092915050565b600081600001805490509050919050565b6000826000018281548110610fd057610fcf611b53565b5b9060005260206000200154905092915050565b6000610ff2836000018361106a565b905092915050565b6000611006838361106a565b61105f578260000182908060018154018082558091505060019003906000526020600020016000909190919091505582600001805490508360010160008481526020019081526020016000208190555060019050611064565b600090505b92915050565b600080836001016000848152602001908152602001600020541415905092915050565b6040518060400160405280600061ffff168152602001600073ffffffffffffffffffffffffffffffffffffffff1681525090565b8280546110cd90611ab6565b90600052602060002090601f0160209004810192826110ef5760008555611136565b82601f1061110857805160ff1916838001178555611136565b82800160010185558215611136579182015b8281111561113557825182559160200191906001019061111a565b5b509050611143919061124d565b5090565b50805461115390611ab6565b6000825580601f106111655750611184565b601f016020900490600052602060002090810190611183919061124d565b5b50565b82805461119390611ab6565b90600052602060002090601f0160209004810192826111b557600085556111fc565b82601f106111ce57805160ff19168380011785556111fc565b828001600101855582156111fc579182015b828111156111fb5782518255916020019190600101906111e0565b5b509050611209919061124d565b5090565b50805461121990611ab6565b6000825580601f1061122b575061124a565b601f016020900490600052602060002090810190611249919061124d565b5b50565b5b8082111561126657600081600090555060010161124e565b5090565b6000604051905090565b600080fd5b600080fd5b6000819050919050565b6112918161127e565b811461129c57600080fd5b50565b6000813590506112ae81611288565b92915050565b6000602082840312156112ca576112c9611274565b5b60006112d88482850161129f565b91505092915050565b600073ffffffffffffffffffffffffffffffffffffffff82169050919050565b600061130c826112e1565b9050919050565b61131c81611301565b82525050565b60006020820190506113376000830184611313565b92915050565b6000819050919050565b6113508161133d565b82525050565b600060208201905061136b6000830184611347565b92915050565b61137a8161133d565b811461138557600080fd5b50565b60008135905061139781611371565b92915050565b6000602082840312156113b3576113b2611274565b5b60006113c184828501611388565b91505092915050565b600061ffff82169050919050565b6113e1816113ca565b82525050565b6113f081611301565b82525050565b60408201600082015161140c60008501826113d8565b50602082015161141f60208501826113e7565b50505050565b600060408201905061143a60008301846113f6565b92915050565b600080fd5b600080fd5b6000601f19601f8301169050919050565b7f4e487b7100000000000000000000000000000000000000000000000000000000600052604160045260246000fd5b6114938261144a565b810181811067ffffffffffffffff821117156114b2576114b161145b565b5b80604052505050565b60006114c561126a565b90506114d1828261148a565b919050565b600067ffffffffffffffff8211156114f1576114f061145b565b5b6114fa8261144a565b9050602081019050919050565b82818337600083830152505050565b6000611529611524846114d6565b6114bb565b90508281526020810184848401111561154557611544611445565b5b611550848285611507565b509392505050565b600082601f83011261156d5761156c611440565b5b813561157d848260208601611516565b91505092915050565b6000806040838503121561159d5761159c611274565b5b60006115ab8582860161129f565b925050602083013567ffffffffffffffff8111156115cc576115cb611279565b5b6115d885828601611558565b9150509250929050565b6000819050919050565b6115f5816115e2565b811461160057600080fd5b50565b600081359050611612816115ec565b92915050565b6000806040838503121561162f5761162e611274565b5b600061163d8582860161129f565b925050602061164e85828601611603565b9150509250929050565b611661816113ca565b811461166c57600080fd5b50565b60008135905061167e81611658565b92915050565b60006020828403121561169a57611699611274565b5b60006116a88482850161166f565b91505092915050565b600067ffffffffffffffff8211156116cc576116cb61145b565b5b6116d58261144a565b9050602081019050919050565b60006116f56116f0846116b1565b6114bb565b90508281526020810184848401111561171157611710611445565b5b61171c848285611507565b509392505050565b600082601f83011261173957611738611440565b5b81356117498482602086016116e2565b91505092915050565b6000806040838503121561176957611768611274565b5b60006117778582860161129f565b925050602083013567ffffffffffffffff81111561179857611797611279565b5b6117a485828601611724565b9150509250929050565b60008115159050919050565b6117c3816117ae565b82525050565b60006020820190506117de60008301846117ba565b92915050565b600081519050919050565b600082825260208201905092915050565b60005b8381101561181e578082015181840152602081019050611803565b8381111561182d576000848401525b50505050565b600061183e826117e4565b61184881856117ef565b9350611858818560208601611800565b6118618161144a565b840191505092915050565b600060208201905081810360008301526118868184611833565b905092915050565b611897816117ae565b81146118a257600080fd5b50565b6000813590506118b48161188e565b92915050565b600080604083850312156118d1576118d0611274565b5b60006118df8582860161129f565b92505060206118f0858286016118a5565b9150509250929050565b600081519050919050565b600082825260208201905092915050565b6000611921826118fa565b61192b8185611905565b935061193b818560208601611800565b6119448161144a565b840191505092915050565b600060208201905081810360008301526119698184611916565b905092915050565b61197a81611301565b811461198557600080fd5b50565b60008135905061199781611971565b92915050565b600080604083850312156119b4576119b3611274565b5b60006119c28582860161129f565b92505060206119d385828601611988565b9150509250929050565b6119e6816115e2565b82525050565b6000602082019050611a0160008301846119dd565b92915050565b60008060408385031215611a1e57611a1d611274565b5b6000611a2c8582860161129f565b9250506020611a3d85828601611388565b9150509250929050565b60008060408385031215611a5e57611a5d611274565b5b6000611a6c8582860161166f565b9250506020611a7d85828601611988565b9150509250929050565b7f4e487b7100000000000000000000000000000000000000000000000000000000600052602260045260246000fd5b60006002820490506001821680611ace57607f821691505b602082108103611ae157611ae0611a87565b5b50919050565b7f456e756d657261626c654d61703a206e6f6e6578697374656e74206b65790000600082015250565b6000611b1d601e836117ef565b9150611b2882611ae7565b602082019050919050565b60006020820190508181036000830152611b4c81611b10565b9050919050565b7f4e487b7100000000000000000000000000000000000000000000000000000000600052603260045260246000fdfea264697066735822122084ad4dcf7bef2fe3d4aa6d621a601582d941025bc7f167a4e854d9fa6d3a085964736f6c634300080d0033",
  "immutableReferences": {},
  "source": "// SPDX-License-Identifier: MIT\npragma solidity ^0.8.13;\nimport './proxy/OwnableMutableProxy.sol';\nimport './EternalStorage.sol';\n\ncontract FrontDoor is OwnableMutableProxy {\n  uint256 public constant ETERNAL_STORAGE_ADDRESS_SLOT = 0xedd85ae326febb54e962a94ad0a00fc5f34b30b69695966833f1a8e505211d5f; // keccak256('eternalStorage')\n  uint256 public constant FRONTDOOR_ADDRESS_SLOT = 0x618f1bc4c8f4f99ac8b24d512c92dce5a12e4aa22a9c655d2dcb3c77e17941e7; // keccak256('frontDoor')\n\n  constructor() {\n    EternalStorage eternalStorage = new EternalStorage();\n    address eternalStorageAddress = address(eternalStorage);\n    address thisAddress = address(this);\n    assembly {\n       sstore(IS_USERPROXY_SLOT, false)\n      //  sstore(FRONTDOOR_ADDRESS_SLOT, thisAddress)\n      //  sstore(ETERNAL_STORAGE_ADDRESS_SLOT, eternalStorageAddress)\n    }\n    assembly {\n       sstore(FRONTDOOR_ADDRESS_SLOT, thisAddress)\n    }\n    assembly {\n       sstore(ETERNAL_STORAGE_ADDRESS_SLOT, eternalStorageAddress)\n    }\n  }\n\n  function getFrontDoorAddress() public view returns (address x) {\n    assembly {\n      x := sload(FRONTDOOR_ADDRESS_SLOT)\n    }\n  }\n\n  function getEternalStorageAddress() public view returns (address x) {\n    assembly {\n      x := sload(ETERNAL_STORAGE_ADDRESS_SLOT)\n    }\n  }\n}\n",
  "sourcePath": "/home/asdf/fmp3/platform/evm/contracts/FrontDoor.sol",
  "compiler": {
    "name": "solc",
    "version": "0.8.13+commit.abaa5c0e.Emscripten.clang"
  },
  "schemaVersion": "3.4.11",
  "updatedAt": "2022-12-18T00:00:11.895Z",
  "devdoc": {
    "kind": "dev",
    "methods": {},
    "version": 1
  },
  "userdoc": {
    "kind": "user",
    "methods": {},
    "version": 1
  }
}