{
  "contractName": "FrontDoor",
  "abi": [
    {
      "inputs": [],
      "stateMutability": "nonpayable",
      "type": "constructor"
    },
    {
      "anonymous": false,
      "inputs": [
        {
          "indexed": false,
          "internalType": "address",
          "name": "sender",
          "type": "address"
        },
        {
          "indexed": false,
          "internalType": "address",
          "name": "newOwner",
          "type": "address"
        }
      ],
      "name": "LogNewOwner",
      "type": "event"
    },
    {
      "anonymous": false,
      "inputs": [
        {
          "indexed": false,
          "internalType": "address",
          "name": "sender",
          "type": "address"
        },
        {
          "indexed": false,
          "internalType": "address",
          "name": "oldUpstream",
          "type": "address"
        },
        {
          "indexed": false,
          "internalType": "address",
          "name": "newUpstream",
          "type": "address"
        }
      ],
      "name": "LogNewUpstream",
      "type": "event"
    },
    {
      "stateMutability": "payable",
      "type": "fallback",
      "payable": true
    },
    {
      "inputs": [
        {
          "internalType": "address",
          "name": "newOwner",
          "type": "address"
        }
      ],
      "name": "changeOwner",
      "outputs": [],
      "stateMutability": "nonpayable",
      "type": "function"
    },
    {
      "inputs": [],
      "name": "eternalStorageAddress",
      "outputs": [
        {
          "internalType": "address",
          "name": "",
          "type": "address"
        }
      ],
      "stateMutability": "view",
      "type": "function",
      "constant": true
    },
    {
      "inputs": [],
      "name": "frontDoorAddress",
      "outputs": [
        {
          "internalType": "address",
          "name": "",
          "type": "address"
        }
      ],
      "stateMutability": "view",
      "type": "function",
      "constant": true
    },
    {
      "inputs": [],
      "name": "getUpstream",
      "outputs": [
        {
          "internalType": "address",
          "name": "",
          "type": "address"
        }
      ],
      "stateMutability": "view",
      "type": "function",
      "constant": true
    },
    {
      "inputs": [],
      "name": "owner",
      "outputs": [
        {
          "internalType": "address payable",
          "name": "",
          "type": "address"
        }
      ],
      "stateMutability": "view",
      "type": "function",
      "constant": true
    },
    {
      "inputs": [
        {
          "internalType": "address",
          "name": "newUpstream",
          "type": "address"
        }
      ],
      "name": "setUpstream",
      "outputs": [],
      "stateMutability": "nonpayable",
      "type": "function"
    },
    {
      "inputs": [],
      "name": "upstream",
      "outputs": [
        {
          "internalType": "address",
          "name": "",
          "type": "address"
        }
      ],
      "stateMutability": "view",
      "type": "function",
      "constant": true
    },
    {
      "stateMutability": "payable",
      "type": "receive",
      "payable": true
    }
  ],
  "bytecode": "0x608060405234801561001057600080fd5b5033600080600160006101000a81548173ffffffffffffffffffffffffffffffffffffffff021916908373ffffffffffffffffffffffffffffffffffffffff160217905550816000806101000a81548173ffffffffffffffffffffffffffffffffffffffff021916908373ffffffffffffffffffffffffffffffffffffffff16021790555050506040516100a390610146565b604051809103906000f0801580156100bf573d6000803e3d6000fd5b50600260006101000a81548173ffffffffffffffffffffffffffffffffffffffff021916908373ffffffffffffffffffffffffffffffffffffffff16021790555030600360006101000a81548173ffffffffffffffffffffffffffffffffffffffff021916908373ffffffffffffffffffffffffffffffffffffffff160217905550610153565b6115028061071983390190565b6105b7806101626000396000f3fe6080604052600436106100745760003560e01c80636a99a5231161004e5780636a99a52314610129578063742ec666146101545780638da5cb5b1461017d578063a6f9dae1146101a85761007b565b8063384782fe146100a857806350fd910e146100d357806356dececb146100fe5761007b565b3661007b57005b6100a6600160009054906101000a900473ffffffffffffffffffffffffffffffffffffffff166101d1565b005b3480156100b457600080fd5b506100bd6101f7565b6040516100ca919061046c565b60405180910390f35b3480156100df57600080fd5b506100e861021d565b6040516100f5919061046c565b60405180910390f35b34801561010a57600080fd5b50610113610243565b604051610120919061046c565b60405180910390f35b34801561013557600080fd5b5061013e61026d565b60405161014b919061046c565b60405180910390f35b34801561016057600080fd5b5061017b600480360381019061017691906104b8565b610293565b005b34801561018957600080fd5b5061019261033a565b60405161019f9190610506565b60405180910390f35b3480156101b457600080fd5b506101cf60048036038101906101ca91906104b8565b61035e565b005b3660008037600080366000845af43d6000803e80600081146101f2573d6000f35b3d6000fd5b600260009054906101000a900473ffffffffffffffffffffffffffffffffffffffff1681565b600360009054906101000a900473ffffffffffffffffffffffffffffffffffffffff1681565b6000600160009054906101000a900473ffffffffffffffffffffffffffffffffffffffff16905090565b600160009054906101000a900473ffffffffffffffffffffffffffffffffffffffff1681565b6000600160009054906101000a900473ffffffffffffffffffffffffffffffffffffffff16905081600160006101000a81548173ffffffffffffffffffffffffffffffffffffffff021916908373ffffffffffffffffffffffffffffffffffffffff1602179055507fb3d51b4e19bdb93dfcf43f1951a29eb5eb26e251c1af1550ed9a7b13f8022da733828460405161032e93929190610521565b60405180910390a15050565b60008054906101000a900473ffffffffffffffffffffffffffffffffffffffff1681565b60008054906101000a900473ffffffffffffffffffffffffffffffffffffffff1673ffffffffffffffffffffffffffffffffffffffff163373ffffffffffffffffffffffffffffffffffffffff16146103b657600080fd5b600073ffffffffffffffffffffffffffffffffffffffff168173ffffffffffffffffffffffffffffffffffffffff16036103ef57600080fd5b7f1f8d7d25344642d919d55999e4664aa452a5f424bc0936ceb9c2b300db7dcbd93382604051610420929190610558565b60405180910390a150565b600073ffffffffffffffffffffffffffffffffffffffff82169050919050565b60006104568261042b565b9050919050565b6104668161044b565b82525050565b6000602082019050610481600083018461045d565b92915050565b600080fd5b6104958161044b565b81146104a057600080fd5b50565b6000813590506104b28161048c565b92915050565b6000602082840312156104ce576104cd610487565b5b60006104dc848285016104a3565b91505092915050565b60006104f08261042b565b9050919050565b610500816104e5565b82525050565b600060208201905061051b60008301846104f7565b92915050565b6000606082019050610536600083018661045d565b610543602083018561045d565b610550604083018461045d565b949350505050565b600060408201905061056d600083018561045d565b61057a602083018461045d565b939250505056fea2646970667358221220898dc394c628a2e2eada0df72f3f9a690a25680ee46eff8882605a4a6fd9011564736f6c634300080d00336080604052336000806101000a81548173ffffffffffffffffffffffffffffffffffffffff021916908373ffffffffffffffffffffffffffffffffffffffff16021790555034801561005057600080fd5b506114a2806100606000396000f3fe608060405234801561001057600080fd5b50600436106101165760003560e01c8063986e791a116100a2578063ca446dd911610071578063ca446dd9146102eb578063dc97d96214610307578063e2a4853a14610337578063e2b202bf14610353578063f6bb3cc41461036f57610116565b8063986e791a1461023f578063abfdcced1461026f578063bd02d0f51461028b578063c031a180146102bb57610116565b80633e49bed0116100e95780633e49bed01461019f578063616b59f6146101bb5780636e899550146101d75780637ae1cfca146101f35780638c1600951461022357610116565b80630e14a3761461011b57806321f8a721146101375780632c62ff2d146101675780632e28d08414610183575b600080fd5b61013560048036038101906101309190610d75565b61038b565b005b610151600480360381019061014c9190610d75565b61041c565b60405161015e9190610de3565b60405180910390f35b610181600480360381019061017c9190610d75565b610459565b005b61019d60048036038101906101989190610f44565b6104d7565b005b6101b960048036038101906101b49190610fd6565b61055b565b005b6101d560048036038101906101d09190610d75565b6105cf565b005b6101f160048036038101906101ec91906110b7565b610649565b005b61020d60048036038101906102089190610d75565b6106cd565b60405161021a919061112e565b60405180910390f35b61023d60048036038101906102389190610d75565b6106f7565b005b61025960048036038101906102549190610d75565b610769565b60405161026691906111d1565b60405180910390f35b6102896004803603810190610284919061121f565b61080e565b005b6102a560048036038101906102a09190610d75565b610895565b6040516102b29190611278565b60405180910390f35b6102d560048036038101906102d09190610d75565b6108b2565b6040516102e291906112e8565b60405180910390f35b61030560048036038101906103009190611336565b610957565b005b610321600480360381019061031c9190610d75565b610a05565b60405161032e9190611385565b60405180910390f35b610351600480360381019061034c91906113cc565b610a22565b005b61036d60048036038101906103689190610d75565b610a96565b005b61038960048036038101906103849190610d75565b610b08565b005b60008054906101000a900473ffffffffffffffffffffffffffffffffffffffff1673ffffffffffffffffffffffffffffffffffffffff163373ffffffffffffffffffffffffffffffffffffffff16146103e357600080fd5b6003600082815260200190815260200160002060006101000a81549073ffffffffffffffffffffffffffffffffffffffff021916905550565b60006003600083815260200190815260200160002060009054906101000a900473ffffffffffffffffffffffffffffffffffffffff169050919050565b60008054906101000a900473ffffffffffffffffffffffffffffffffffffffff1673ffffffffffffffffffffffffffffffffffffffff163373ffffffffffffffffffffffffffffffffffffffff16146104b157600080fd5b6005600082815260200190815260200160002060006101000a81549060ff021916905550565b60008054906101000a900473ffffffffffffffffffffffffffffffffffffffff1673ffffffffffffffffffffffffffffffffffffffff163373ffffffffffffffffffffffffffffffffffffffff161461052f57600080fd5b80600460008481526020019081526020016000209080519060200190610556929190610b82565b505050565b60008054906101000a900473ffffffffffffffffffffffffffffffffffffffff1673ffffffffffffffffffffffffffffffffffffffff163373ffffffffffffffffffffffffffffffffffffffff16146105b357600080fd5b8060066000848152602001908152602001600020819055505050565b60008054906101000a900473ffffffffffffffffffffffffffffffffffffffff1673ffffffffffffffffffffffffffffffffffffffff163373ffffffffffffffffffffffffffffffffffffffff161461062757600080fd5b6004600082815260200190815260200160002060006106469190610c08565b50565b60008054906101000a900473ffffffffffffffffffffffffffffffffffffffff1673ffffffffffffffffffffffffffffffffffffffff163373ffffffffffffffffffffffffffffffffffffffff16146106a157600080fd5b806002600084815260200190815260200160002090805190602001906106c8929190610c48565b505050565b60006005600083815260200190815260200160002060009054906101000a900460ff169050919050565b60008054906101000a900473ffffffffffffffffffffffffffffffffffffffff1673ffffffffffffffffffffffffffffffffffffffff163373ffffffffffffffffffffffffffffffffffffffff161461074f57600080fd5b600660008281526020019081526020016000206000905550565b60606002600083815260200190815260200160002080546107899061143b565b80601f01602080910402602001604051908101604052809291908181526020018280546107b59061143b565b80156108025780601f106107d757610100808354040283529160200191610802565b820191906000526020600020905b8154815290600101906020018083116107e557829003601f168201915b50505050509050919050565b60008054906101000a900473ffffffffffffffffffffffffffffffffffffffff1673ffffffffffffffffffffffffffffffffffffffff163373ffffffffffffffffffffffffffffffffffffffff161461086657600080fd5b806005600084815260200190815260200160002060006101000a81548160ff0219169083151502179055505050565b600060016000838152602001908152602001600020549050919050565b60606004600083815260200190815260200160002080546108d29061143b565b80601f01602080910402602001604051908101604052809291908181526020018280546108fe9061143b565b801561094b5780601f106109205761010080835404028352916020019161094b565b820191906000526020600020905b81548152906001019060200180831161092e57829003601f168201915b50505050509050919050565b60008054906101000a900473ffffffffffffffffffffffffffffffffffffffff1673ffffffffffffffffffffffffffffffffffffffff163373ffffffffffffffffffffffffffffffffffffffff16146109af57600080fd5b806003600084815260200190815260200160002060006101000a81548173ffffffffffffffffffffffffffffffffffffffff021916908373ffffffffffffffffffffffffffffffffffffffff1602179055505050565b600060066000838152602001908152602001600020549050919050565b60008054906101000a900473ffffffffffffffffffffffffffffffffffffffff1673ffffffffffffffffffffffffffffffffffffffff163373ffffffffffffffffffffffffffffffffffffffff1614610a7a57600080fd5b8060016000848152602001908152602001600020819055505050565b60008054906101000a900473ffffffffffffffffffffffffffffffffffffffff1673ffffffffffffffffffffffffffffffffffffffff163373ffffffffffffffffffffffffffffffffffffffff1614610aee57600080fd5b600160008281526020019081526020016000206000905550565b60008054906101000a900473ffffffffffffffffffffffffffffffffffffffff1673ffffffffffffffffffffffffffffffffffffffff163373ffffffffffffffffffffffffffffffffffffffff1614610b6057600080fd5b600260008281526020019081526020016000206000610b7f9190610cce565b50565b828054610b8e9061143b565b90600052602060002090601f016020900481019282610bb05760008555610bf7565b82601f10610bc957805160ff1916838001178555610bf7565b82800160010185558215610bf7579182015b82811115610bf6578251825591602001919060010190610bdb565b5b509050610c049190610d0e565b5090565b508054610c149061143b565b6000825580601f10610c265750610c45565b601f016020900490600052602060002090810190610c449190610d0e565b5b50565b828054610c549061143b565b90600052602060002090601f016020900481019282610c765760008555610cbd565b82601f10610c8f57805160ff1916838001178555610cbd565b82800160010185558215610cbd579182015b82811115610cbc578251825591602001919060010190610ca1565b5b509050610cca9190610d0e565b5090565b508054610cda9061143b565b6000825580601f10610cec5750610d0b565b601f016020900490600052602060002090810190610d0a9190610d0e565b5b50565b5b80821115610d27576000816000905550600101610d0f565b5090565b6000604051905090565b600080fd5b600080fd5b6000819050919050565b610d5281610d3f565b8114610d5d57600080fd5b50565b600081359050610d6f81610d49565b92915050565b600060208284031215610d8b57610d8a610d35565b5b6000610d9984828501610d60565b91505092915050565b600073ffffffffffffffffffffffffffffffffffffffff82169050919050565b6000610dcd82610da2565b9050919050565b610ddd81610dc2565b82525050565b6000602082019050610df86000830184610dd4565b92915050565b600080fd5b600080fd5b6000601f19601f8301169050919050565b7f4e487b7100000000000000000000000000000000000000000000000000000000600052604160045260246000fd5b610e5182610e08565b810181811067ffffffffffffffff82111715610e7057610e6f610e19565b5b80604052505050565b6000610e83610d2b565b9050610e8f8282610e48565b919050565b600067ffffffffffffffff821115610eaf57610eae610e19565b5b610eb882610e08565b9050602081019050919050565b82818337600083830152505050565b6000610ee7610ee284610e94565b610e79565b905082815260208101848484011115610f0357610f02610e03565b5b610f0e848285610ec5565b509392505050565b600082601f830112610f2b57610f2a610dfe565b5b8135610f3b848260208601610ed4565b91505092915050565b60008060408385031215610f5b57610f5a610d35565b5b6000610f6985828601610d60565b925050602083013567ffffffffffffffff811115610f8a57610f89610d3a565b5b610f9685828601610f16565b9150509250929050565b6000819050919050565b610fb381610fa0565b8114610fbe57600080fd5b50565b600081359050610fd081610faa565b92915050565b60008060408385031215610fed57610fec610d35565b5b6000610ffb85828601610d60565b925050602061100c85828601610fc1565b9150509250929050565b600067ffffffffffffffff82111561103157611030610e19565b5b61103a82610e08565b9050602081019050919050565b600061105a61105584611016565b610e79565b90508281526020810184848401111561107657611075610e03565b5b611081848285610ec5565b509392505050565b600082601f83011261109e5761109d610dfe565b5b81356110ae848260208601611047565b91505092915050565b600080604083850312156110ce576110cd610d35565b5b60006110dc85828601610d60565b925050602083013567ffffffffffffffff8111156110fd576110fc610d3a565b5b61110985828601611089565b9150509250929050565b60008115159050919050565b61112881611113565b82525050565b6000602082019050611143600083018461111f565b92915050565b600081519050919050565b600082825260208201905092915050565b60005b83811015611183578082015181840152602081019050611168565b83811115611192576000848401525b50505050565b60006111a382611149565b6111ad8185611154565b93506111bd818560208601611165565b6111c681610e08565b840191505092915050565b600060208201905081810360008301526111eb8184611198565b905092915050565b6111fc81611113565b811461120757600080fd5b50565b600081359050611219816111f3565b92915050565b6000806040838503121561123657611235610d35565b5b600061124485828601610d60565b92505060206112558582860161120a565b9150509250929050565b6000819050919050565b6112728161125f565b82525050565b600060208201905061128d6000830184611269565b92915050565b600081519050919050565b600082825260208201905092915050565b60006112ba82611293565b6112c4818561129e565b93506112d4818560208601611165565b6112dd81610e08565b840191505092915050565b6000602082019050818103600083015261130281846112af565b905092915050565b61131381610dc2565b811461131e57600080fd5b50565b6000813590506113308161130a565b92915050565b6000806040838503121561134d5761134c610d35565b5b600061135b85828601610d60565b925050602061136c85828601611321565b9150509250929050565b61137f81610fa0565b82525050565b600060208201905061139a6000830184611376565b92915050565b6113a98161125f565b81146113b457600080fd5b50565b6000813590506113c6816113a0565b92915050565b600080604083850312156113e3576113e2610d35565b5b60006113f185828601610d60565b9250506020611402858286016113b7565b9150509250929050565b7f4e487b7100000000000000000000000000000000000000000000000000000000600052602260045260246000fd5b6000600282049050600182168061145357607f821691505b6020821081036114665761146561140c565b5b5091905056fea26469706673582212201e261a6427da1503e68d50ec348e61f3eba18b6ea202e68cf24237ee7c145fcc64736f6c634300080d0033",
  "immutableReferences": {},
  "source": "// SPDX-License-Identifier: MIT\npragma solidity >=0.4.22 <0.9.0;\nimport './OwnableMutableProxy.sol';\nimport './EternalStorage.sol';\n\ncontract FrontDoor is OwnableMutableProxy {\n  address public eternalStorageAddress;\n  address public frontDoorAddress;\n\n  constructor() {\n    eternalStorageAddress = address(new EternalStorage());\n    frontDoorAddress = address(this);\n  }\n}\n",
  "sourcePath": "C:\\Users\\creeper\\fmp\\platform\\evm\\contracts\\FrontDoor.sol",
  "compiler": {
    "name": "solc",
    "version": "0.8.13+commit.abaa5c0e.Emscripten.clang"
  },
  "schemaVersion": "3.4.7",
  "updatedAt": "2022-06-29T17:40:52.548Z",
  "networkType": "ethereum",
  "devdoc": {
    "kind": "dev",
    "methods": {},
    "version": 1
  },
  "userdoc": {
    "kind": "user",
    "methods": {},
    "version": 1
  }
}