{
  "contractName": "WorkflowRunner",
  "abi": [
    {
      "anonymous": false,
      "inputs": [
        {
          "indexed": false,
          "internalType": "address",
          "name": "sender",
          "type": "address"
        }
      ],
      "name": "Foo",
      "type": "event"
    },
    {
      "anonymous": false,
      "inputs": [
        {
          "indexed": false,
          "internalType": "uint16",
          "name": "actionId",
          "type": "uint16"
        },
        {
          "indexed": false,
          "internalType": "address",
          "name": "actionAddress",
          "type": "address"
        }
      ],
      "name": "LogActionAddressSet",
      "type": "event"
    },
    {
      "anonymous": false,
      "inputs": [
        {
          "indexed": false,
          "internalType": "address",
          "name": "sender",
          "type": "address"
        },
        {
          "indexed": false,
          "internalType": "address",
          "name": "newOwner",
          "type": "address"
        }
      ],
      "name": "LogNewOwner",
      "type": "event"
    },
    {
      "anonymous": false,
      "inputs": [
        {
          "indexed": false,
          "internalType": "address",
          "name": "sender",
          "type": "address"
        },
        {
          "indexed": false,
          "internalType": "address",
          "name": "oldUpstream",
          "type": "address"
        },
        {
          "indexed": false,
          "internalType": "address",
          "name": "newUpstream",
          "type": "address"
        }
      ],
      "name": "LogNewUpstream",
      "type": "event"
    },
    {
      "anonymous": false,
      "inputs": [
        {
          "indexed": false,
          "internalType": "address",
          "name": "sender",
          "type": "address"
        }
      ],
      "name": "WorkflowExecution",
      "type": "event"
    },
    {
      "stateMutability": "payable",
      "type": "fallback"
    },
    {
      "inputs": [],
      "name": "ETERNAL_STORAGE_ADDRESS_SLOT",
      "outputs": [
        {
          "internalType": "uint256",
          "name": "",
          "type": "uint256"
        }
      ],
      "stateMutability": "view",
      "type": "function"
    },
    {
      "inputs": [],
      "name": "FRONTDOOR_ADDRESS_SLOT",
      "outputs": [
        {
          "internalType": "uint256",
          "name": "",
          "type": "uint256"
        }
      ],
      "stateMutability": "view",
      "type": "function"
    },
    {
      "inputs": [],
      "name": "IS_USERPROXY_SLOT",
      "outputs": [
        {
          "internalType": "uint256",
          "name": "",
          "type": "uint256"
        }
      ],
      "stateMutability": "view",
      "type": "function"
    },
    {
      "inputs": [],
      "name": "OWNER_SLOT",
      "outputs": [
        {
          "internalType": "uint256",
          "name": "",
          "type": "uint256"
        }
      ],
      "stateMutability": "view",
      "type": "function"
    },
    {
      "inputs": [],
      "name": "UPSTREAM_SLOT",
      "outputs": [
        {
          "internalType": "uint256",
          "name": "",
          "type": "uint256"
        }
      ],
      "stateMutability": "view",
      "type": "function"
    },
    {
      "inputs": [],
      "name": "getEternalStorageAddress",
      "outputs": [
        {
          "internalType": "address",
          "name": "x",
          "type": "address"
        }
      ],
      "stateMutability": "view",
      "type": "function"
    },
    {
      "inputs": [],
      "name": "getFrontDoorAddress",
      "outputs": [
        {
          "internalType": "address",
          "name": "x",
          "type": "address"
        }
      ],
      "stateMutability": "view",
      "type": "function"
    },
    {
      "inputs": [],
      "name": "getOwner",
      "outputs": [
        {
          "internalType": "address",
          "name": "x",
          "type": "address"
        }
      ],
      "stateMutability": "view",
      "type": "function"
    },
    {
      "inputs": [],
      "name": "getUpstream",
      "outputs": [
        {
          "internalType": "address",
          "name": "x",
          "type": "address"
        }
      ],
      "stateMutability": "view",
      "type": "function"
    },
    {
      "inputs": [],
      "name": "isUserProxy",
      "outputs": [
        {
          "internalType": "bool",
          "name": "x",
          "type": "bool"
        }
      ],
      "stateMutability": "view",
      "type": "function"
    },
    {
      "inputs": [
        {
          "internalType": "address",
          "name": "newOwner",
          "type": "address"
        }
      ],
      "name": "setOwner",
      "outputs": [],
      "stateMutability": "nonpayable",
      "type": "function"
    },
    {
      "inputs": [
        {
          "internalType": "address",
          "name": "newUpstream",
          "type": "address"
        }
      ],
      "name": "setUpstream",
      "outputs": [],
      "stateMutability": "nonpayable",
      "type": "function"
    },
    {
      "stateMutability": "payable",
      "type": "receive"
    },
    {
      "inputs": [],
      "name": "createUserProxy",
      "outputs": [],
      "stateMutability": "nonpayable",
      "type": "function"
    },
    {
      "inputs": [
        {
          "internalType": "uint16",
          "name": "actionId",
          "type": "uint16"
        },
        {
          "internalType": "address",
          "name": "actionAddress",
          "type": "address"
        }
      ],
      "name": "setActionAddress",
      "outputs": [],
      "stateMutability": "nonpayable",
      "type": "function"
    },
    {
      "inputs": [
        {
          "internalType": "uint16",
          "name": "actionId",
          "type": "uint16"
        }
      ],
      "name": "getActionAddress",
      "outputs": [
        {
          "internalType": "address",
          "name": "",
          "type": "address"
        }
      ],
      "stateMutability": "view",
      "type": "function"
    },
    {
      "inputs": [],
      "name": "getActionAddressCount",
      "outputs": [
        {
          "internalType": "uint256",
          "name": "",
          "type": "uint256"
        }
      ],
      "stateMutability": "view",
      "type": "function"
    },
    {
      "inputs": [
        {
          "internalType": "uint256",
          "name": "index",
          "type": "uint256"
        }
      ],
      "name": "getActionInfoAt",
      "outputs": [
        {
          "components": [
            {
              "internalType": "uint16",
              "name": "actionId",
              "type": "uint16"
            },
            {
              "internalType": "address",
              "name": "actionAddres",
              "type": "address"
            }
          ],
          "internalType": "struct ActionInfo",
          "name": "",
          "type": "tuple"
        }
      ],
      "stateMutability": "view",
      "type": "function"
    },
    {
      "inputs": [],
      "name": "getUserProxy",
      "outputs": [
        {
          "internalType": "address",
          "name": "",
          "type": "address"
        }
      ],
      "stateMutability": "view",
      "type": "function"
    },
    {
      "inputs": [
        {
          "components": [
            {
              "components": [
                {
                  "internalType": "uint16",
                  "name": "actionId",
                  "type": "uint16"
                },
                {
                  "internalType": "uint256",
                  "name": "inputAsset",
                  "type": "uint256"
                },
                {
                  "internalType": "uint256",
                  "name": "amount",
                  "type": "uint256"
                },
                {
                  "internalType": "bool",
                  "name": "amountIsPercent",
                  "type": "bool"
                },
                {
                  "internalType": "uint256[]",
                  "name": "args",
                  "type": "uint256[]"
                },
                {
                  "internalType": "uint16",
                  "name": "nextStepIndex",
                  "type": "uint16"
                }
              ],
              "internalType": "struct WorkflowStep[]",
              "name": "steps",
              "type": "tuple[]"
            }
          ],
          "internalType": "struct Workflow",
          "name": "workflow",
          "type": "tuple"
        },
        {
          "components": [
            {
              "internalType": "uint256",
              "name": "key",
              "type": "uint256"
            },
            {
              "internalType": "uint256",
              "name": "value",
              "type": "uint256"
            }
          ],
          "internalType": "struct WorkflowParameter[]",
          "name": "params",
          "type": "tuple[]"
        }
      ],
      "name": "executeWorkflow",
      "outputs": [],
      "stateMutability": "payable",
      "type": "function"
    },
    {
      "inputs": [
        {
          "components": [
            {
              "components": [
                {
                  "internalType": "uint16",
                  "name": "actionId",
                  "type": "uint16"
                },
                {
                  "internalType": "uint256",
                  "name": "inputAsset",
                  "type": "uint256"
                },
                {
                  "internalType": "uint256",
                  "name": "amount",
                  "type": "uint256"
                },
                {
                  "internalType": "bool",
                  "name": "amountIsPercent",
                  "type": "bool"
                },
                {
                  "internalType": "uint256[]",
                  "name": "args",
                  "type": "uint256[]"
                },
                {
                  "internalType": "uint16",
                  "name": "nextStepIndex",
                  "type": "uint16"
                }
              ],
              "internalType": "struct WorkflowStep[]",
              "name": "steps",
              "type": "tuple[]"
            }
          ],
          "internalType": "struct Workflow",
          "name": "workflow",
          "type": "tuple"
        }
      ],
      "name": "foo",
      "outputs": [],
      "stateMutability": "payable",
      "type": "function"
    },
    {
      "inputs": [
        {
          "internalType": "address",
          "name": "tokenAddress",
          "type": "address"
        },
        {
          "internalType": "uint256",
          "name": "amount",
          "type": "uint256"
        },
        {
          "internalType": "uint256[]",
          "name": "",
          "type": "uint256[]"
        }
      ],
      "name": "withdrawal",
      "outputs": [
        {
          "internalType": "address",
          "name": "",
          "type": "address"
        },
        {
          "internalType": "uint256",
          "name": "",
          "type": "uint256"
        }
      ],
      "stateMutability": "payable",
      "type": "function"
    }
  ],
  "bytecode": "0x608060405234801561001057600080fd5b50600080339050807f02016836a56b71f0d02689e69e326f4f4c1b9057164ef592671cf0d37c8040c05550807f1b97094c39ac98a2f1db36641197a2f02055ee6d992a889f64e74260e866a1a75550600060405161006d90610108565b604051809103906000f080158015610089573d6000803e3d6000fd5b5090506000819050600030905060007fb498d988805c6f3156e1ebd768061aa2780a74323f2f2d22239ab2852836221d55807f618f1bc4c8f4f99ac8b24d512c92dce5a12e4aa22a9c655d2dcb3c77e17941e755817fedd85ae326febb54e962a94ad0a00fc5f34b30b69695966833f1a8e505211d5f55505050610116565b611c18806200297d83390190565b61285780620001266000396000f3fe6080604052600436106200014b5760003560e01c8063742ec66611620000bb578063ccb3113e1162000079578063ccb3113e146200043e578063cf4b85f5146200046e578063db8a4a19146200049e578063fab494d914620004be578063fb56896614620004ec578063ff05c2a8146200051c5762000153565b8063742ec66614620003505780638925b2ed146200037e578063893d20e814620003ae57806389f4fd5714620003de578063963949a3146200040e5762000153565b80634755fa1411620001095780634755fa14146200025b57806352f65b26146200029f57806356dececb14620002d657806358aa6a0f1462000306578063674af9d614620003365762000153565b80630ead60ac146200016957806313af40351462000199578063177d14a414620001c7578063285f19c414620001e75780632de74e0414620002175762000153565b366200015357005b62000167620001616200054c565b62000575565b005b3480156200017657600080fd5b50620001816200059c565b6040516200019091906200145c565b60405180910390f35b348015620001a657600080fd5b50620001c56004803603810190620001bf9190620014f2565b620005c0565b005b620001e56004803603810190620001df91906200154b565b6200069d565b005b348015620001f457600080fd5b50620001ff620006d9565b6040516200020e91906200145c565b60405180910390f35b3480156200022457600080fd5b506200024360048036038101906200023d9190620015cd565b62000760565b60405162000252919062001662565b60405180910390f35b3480156200026857600080fd5b50620002876004803603810190620002819190620016b0565b620007fe565b604051620002969190620016f3565b60405180910390f35b620002bd6004803603810190620002b791906200177e565b62000894565b604051620002cd929190620017fe565b60405180910390f35b348015620002e357600080fd5b50620002ee6200054c565b604051620002fd9190620016f3565b60405180910390f35b3480156200031357600080fd5b506200031e620009b9565b6040516200032d91906200145c565b60405180910390f35b3480156200034357600080fd5b506200034e620009dd565b005b3480156200035d57600080fd5b506200037c6004803603810190620003769190620014f2565b62000bea565b005b3480156200038b57600080fd5b506200039662000d06565b604051620003a591906200145c565b60405180910390f35b348015620003bb57600080fd5b50620003c662000d2a565b604051620003d59190620016f3565b60405180910390f35b348015620003eb57600080fd5b50620003f662000d53565b604051620004059190620016f3565b60405180910390f35b3480156200041b57600080fd5b506200042662000e2d565b6040516200043591906200145c565b60405180910390f35b3480156200044b57600080fd5b506200045662000e51565b6040516200046591906200145c565b60405180910390f35b3480156200047b57600080fd5b506200048662000e75565b604051620004959190620016f3565b60405180910390f35b620004bc6004803603810190620004b691906200188a565b62000e9e565b005b348015620004cb57600080fd5b50620004ea6004803603810190620004e4919062001913565b62000f39565b005b348015620004f957600080fd5b50620005046200103a565b604051620005139190620016f3565b60405180910390f35b3480156200052957600080fd5b506200053462001063565b60405162000543919062001977565b60405180910390f35b60007f1b97094c39ac98a2f1db36641197a2f02055ee6d992a889f64e74260e866a1a754905090565b3660008037600080366000845af43d6000803e806000811462000597573d6000f35b3d6000fd5b7f1b97094c39ac98a2f1db36641197a2f02055ee6d992a889f64e74260e866a1a781565b620005ca62000d2a565b73ffffffffffffffffffffffffffffffffffffffff163373ffffffffffffffffffffffffffffffffffffffff16146200060257600080fd5b600073ffffffffffffffffffffffffffffffffffffffff168173ffffffffffffffffffffffffffffffffffffffff16036200063c57600080fd5b807f02016836a56b71f0d02689e69e326f4f4c1b9057164ef592671cf0d37c8040c0557f1f8d7d25344642d919d55999e4664aa452a5f424bc0936ceb9c2b300db7dcbd933826040516200069292919062001994565b60405180910390a150565b7fe773a60b784586770a963a70fa6ba2bdf31c462939b6ba36852ed45f5f72235833604051620006ce9190620016f3565b60405180910390a150565b600080620006e66200103a565b90508073ffffffffffffffffffffffffffffffffffffffff1663285f19c46040518163ffffffff1660e01b8152600401602060405180830381865afa15801562000734573d6000803e3d6000fd5b505050506040513d601f19601f820116820180604052508101906200075a9190620019d8565b91505090565b6200076a620013ff565b6000620007766200103a565b90508073ffffffffffffffffffffffffffffffffffffffff16632de74e04846040518263ffffffff1660e01b8152600401620007b391906200145c565b6040805180830381865afa158015620007d0573d6000803e3d6000fd5b505050506040513d601f19601f82011682018060405250810190620007f6919062001b2b565b915050919050565b6000806200080b6200103a565b90508073ffffffffffffffffffffffffffffffffffffffff16634755fa14846040518263ffffffff1660e01b815260040162000848919062001b6e565b602060405180830381865afa15801562000866573d6000803e3d6000fd5b505050506040513d601f19601f820116820180604052508101906200088c919062001b8b565b915050919050565b6000806000620008a362000d2a565b9050600073ffffffffffffffffffffffffffffffffffffffff168773ffffffffffffffffffffffffffffffffffffffff1603620009945760008173ffffffffffffffffffffffffffffffffffffffff1687604051620009029062001bf2565b60006040518083038185875af1925050503d806000811462000941576040519150601f19603f3d011682016040523d82523d6000602084013e62000946565b606091505b50509050806200098d576040517f08c379a0000000000000000000000000000000000000000000000000000000008152600401620009849062001c6a565b60405180910390fd5b50620009a8565b6000879050620009a68183896200108c565b505b600080925092505094509492505050565b7fb498d988805c6f3156e1ebd768061aa2780a74323f2f2d22239ab2852836221d81565b6000620009e96200103a565b9050600062000a2e6040518060400160405280600b81526020017f7573657250726f786965730000000000000000000000000000000000000000008152503362001116565b905060008273ffffffffffffffffffffffffffffffffffffffff166321f8a721836040518263ffffffff1660e01b815260040162000a6d919062001ca7565b602060405180830381865afa15801562000a8b573d6000803e3d6000fd5b505050506040513d601f19601f8201168201806040525081019062000ab1919062001b8b565b9050600073ffffffffffffffffffffffffffffffffffffffff168173ffffffffffffffffffffffffffffffffffffffff161462000b25576040517f08c379a000000000000000000000000000000000000000000000000000000000815260040162000b1c9062001d14565b60405180910390fd5b60003362000b3262000e75565b60405162000b409062001433565b62000b4d92919062001d5b565b604051809103906000f08015801562000b6a573d6000803e3d6000fd5b50905060008190508473ffffffffffffffffffffffffffffffffffffffff1663ca446dd985836040518363ffffffff1660e01b815260040162000baf92919062001d88565b600060405180830381600087803b15801562000bca57600080fd5b505af115801562000bdf573d6000803e3d6000fd5b505050505050505050565b62000bf462000d2a565b73ffffffffffffffffffffffffffffffffffffffff163373ffffffffffffffffffffffffffffffffffffffff161462000c2c57600080fd5b60003073ffffffffffffffffffffffffffffffffffffffff166356dececb6040518163ffffffff1660e01b8152600401602060405180830381865afa15801562000c7a573d6000803e3d6000fd5b505050506040513d601f19601f8201168201806040525081019062000ca0919062001b8b565b9050817f1b97094c39ac98a2f1db36641197a2f02055ee6d992a889f64e74260e866a1a7557fb3d51b4e19bdb93dfcf43f1951a29eb5eb26e251c1af1550ed9a7b13f8022da733828460405162000cfa9392919062001db5565b60405180910390a15050565b7f618f1bc4c8f4f99ac8b24d512c92dce5a12e4aa22a9c655d2dcb3c77e17941e781565b60007f02016836a56b71f0d02689e69e326f4f4c1b9057164ef592671cf0d37c8040c054905090565b60008062000d606200103a565b9050600062000da56040518060400160405280600b81526020017f7573657250726f786965730000000000000000000000000000000000000000008152503362001116565b90508173ffffffffffffffffffffffffffffffffffffffff166321f8a721826040518263ffffffff1660e01b815260040162000de2919062001ca7565b602060405180830381865afa15801562000e00573d6000803e3d6000fd5b505050506040513d601f19601f8201168201806040525081019062000e26919062001b8b565b9250505090565b7f02016836a56b71f0d02689e69e326f4f4c1b9057164ef592671cf0d37c8040c081565b7fedd85ae326febb54e962a94ad0a00fc5f34b30b69695966833f1a8e505211d5f81565b60007f618f1bc4c8f4f99ac8b24d512c92dce5a12e4aa22a9c655d2dcb3c77e17941e754905090565b7fab733976560259f9d55c1241bbffbf64fab725b4a8e1a9ef7e1ab191c234fc763360405162000ecf9190620016f3565b60405180910390a1600083806000019062000eeb919062001e01565b9050111562000f34573683806000019062000f07919062001e01565b600081811062000f1c5762000f1b62001e6d565b5b905060200281019062000f30919062001e9c565b9050505b505050565b62000f4362000d2a565b73ffffffffffffffffffffffffffffffffffffffff163373ffffffffffffffffffffffffffffffffffffffff161462000f7b57600080fd5b600062000f876200103a565b90508073ffffffffffffffffffffffffffffffffffffffff1663fab494d984846040518363ffffffff1660e01b815260040162000fc692919062001ec7565b600060405180830381600087803b15801562000fe157600080fd5b505af115801562000ff6573d6000803e3d6000fd5b505050507f4d58f6db40c27d306e5fbf99c9055c46f3bf09021f920b810a66edfabfa59ce683836040516200102d92919062001ec7565b60405180910390a1505050565b60007fedd85ae326febb54e962a94ad0a00fc5f34b30b69695966833f1a8e505211d5f54905090565b60007fb498d988805c6f3156e1ebd768061aa2780a74323f2f2d22239ab2852836221d54905090565b620011118363a9059cbb60e01b8484604051602401620010ae929190620017fe565b604051602081830303815290604052907bffffffffffffffffffffffffffffffffffffffffffffffffffffffff19166020820180517bffffffffffffffffffffffffffffffffffffffffffffffffffffffff83818316178352505050506200114b565b505050565b600082826040516020016200112d92919062001fc7565b60405160208183030381529060405280519060200120905092915050565b6000620011af826040518060400160405280602081526020017f5361666545524332303a206c6f772d6c6576656c2063616c6c206661696c65648152508573ffffffffffffffffffffffffffffffffffffffff166200121a9092919063ffffffff16565b9050600081511115620012155780806020019051810190620011d2919062002024565b62001214576040517f08c379a00000000000000000000000000000000000000000000000000000000081526004016200120b90620020cc565b60405180910390fd5b5b505050565b60606200122b848460008562001234565b90509392505050565b6060824710156200127c576040517f08c379a0000000000000000000000000000000000000000000000000000000008152600401620012739062002164565b60405180910390fd5b6000808673ffffffffffffffffffffffffffffffffffffffff168587604051620012a79190620021c8565b60006040518083038185875af1925050503d8060008114620012e6576040519150601f19603f3d011682016040523d82523d6000602084013e620012eb565b606091505b5091509150620012fe878383876200130a565b92505050949350505050565b60608315620013745760008351036200136b57620013288562001389565b6200136a576040517f08c379a0000000000000000000000000000000000000000000000000000000008152600401620013619062002231565b60405180910390fd5b5b82905062001381565b620013808383620013ac565b5b949350505050565b6000808273ffffffffffffffffffffffffffffffffffffffff163b119050919050565b600082511115620013c05781518083602001fd5b806040517f08c379a0000000000000000000000000000000000000000000000000000000008152600401620013f6919062002294565b60405180910390fd5b6040518060400160405280600061ffff168152602001600073ffffffffffffffffffffffffffffffffffffffff1681525090565b61056980620022b983390190565b6000819050919050565b620014568162001441565b82525050565b60006020820190506200147360008301846200144b565b92915050565b6000604051905090565b600080fd5b600080fd5b600073ffffffffffffffffffffffffffffffffffffffff82169050919050565b6000620014ba826200148d565b9050919050565b620014cc81620014ad565b8114620014d857600080fd5b50565b600081359050620014ec81620014c1565b92915050565b6000602082840312156200150b576200150a62001483565b5b60006200151b84828501620014db565b91505092915050565b600080fd5b60006020828403121562001542576200154162001524565b5b81905092915050565b60006020828403121562001564576200156362001483565b5b600082013567ffffffffffffffff81111562001585576200158462001488565b5b620015938482850162001529565b91505092915050565b620015a78162001441565b8114620015b357600080fd5b50565b600081359050620015c7816200159c565b92915050565b600060208284031215620015e657620015e562001483565b5b6000620015f684828501620015b6565b91505092915050565b600061ffff82169050919050565b6200161881620015ff565b82525050565b6200162981620014ad565b82525050565b6040820160008201516200164760008501826200160d565b5060208201516200165c60208501826200161e565b50505050565b60006040820190506200167960008301846200162f565b92915050565b6200168a81620015ff565b81146200169657600080fd5b50565b600081359050620016aa816200167f565b92915050565b600060208284031215620016c957620016c862001483565b5b6000620016d98482850162001699565b91505092915050565b620016ed81620014ad565b82525050565b60006020820190506200170a6000830184620016e2565b92915050565b600080fd5b600080fd5b600080fd5b60008083601f84011262001738576200173762001710565b5b8235905067ffffffffffffffff81111562001758576200175762001715565b5b6020830191508360208202830111156200177757620017766200171a565b5b9250929050565b600080600080606085870312156200179b576200179a62001483565b5b6000620017ab87828801620014db565b9450506020620017be87828801620015b6565b935050604085013567ffffffffffffffff811115620017e257620017e162001488565b5b620017f0878288016200171f565b925092505092959194509250565b6000604082019050620018156000830185620016e2565b6200182460208301846200144b565b9392505050565b60008083601f84011262001844576200184362001710565b5b8235905067ffffffffffffffff81111562001864576200186362001715565b5b6020830191508360408202830111156200188357620018826200171a565b5b9250929050565b600080600060408486031215620018a657620018a562001483565b5b600084013567ffffffffffffffff811115620018c757620018c662001488565b5b620018d58682870162001529565b935050602084013567ffffffffffffffff811115620018f957620018f862001488565b5b62001907868287016200182b565b92509250509250925092565b600080604083850312156200192d576200192c62001483565b5b60006200193d8582860162001699565b92505060206200195085828601620014db565b9150509250929050565b60008115159050919050565b62001971816200195a565b82525050565b60006020820190506200198e600083018462001966565b92915050565b6000604082019050620019ab6000830185620016e2565b620019ba6020830184620016e2565b9392505050565b600081519050620019d2816200159c565b92915050565b600060208284031215620019f157620019f062001483565b5b600062001a0184828501620019c1565b91505092915050565b600080fd5b6000601f19601f8301169050919050565b7f4e487b7100000000000000000000000000000000000000000000000000000000600052604160045260246000fd5b62001a5a8262001a0f565b810181811067ffffffffffffffff8211171562001a7c5762001a7b62001a20565b5b80604052505050565b600062001a9162001479565b905062001a9f828262001a4f565b919050565b60008151905062001ab5816200167f565b92915050565b60008151905062001acc81620014c1565b92915050565b60006040828403121562001aeb5762001aea62001a0a565b5b62001af7604062001a85565b9050600062001b098482850162001aa4565b600083015250602062001b1f8482850162001abb565b60208301525092915050565b60006040828403121562001b445762001b4362001483565b5b600062001b548482850162001ad2565b91505092915050565b62001b6881620015ff565b82525050565b600060208201905062001b85600083018462001b5d565b92915050565b60006020828403121562001ba45762001ba362001483565b5b600062001bb48482850162001abb565b91505092915050565b600081905092915050565b50565b600062001bda60008362001bbd565b915062001be78262001bc8565b600082019050919050565b600062001bff8262001bcb565b9150819050919050565b600082825260208201905092915050565b7f776974686472617720657468206661696c656400000000000000000000000000600082015250565b600062001c5260138362001c09565b915062001c5f8262001c1a565b602082019050919050565b6000602082019050818103600083015262001c858162001c43565b9050919050565b6000819050919050565b62001ca18162001c8c565b82525050565b600060208201905062001cbe600083018462001c96565b92915050565b7f757365722070726f787920616c72656164792065786973747300000000000000600082015250565b600062001cfc60198362001c09565b915062001d098262001cc4565b602082019050919050565b6000602082019050818103600083015262001d2f8162001ced565b9050919050565b600062001d43826200148d565b9050919050565b62001d558162001d36565b82525050565b600060408201905062001d72600083018562001d4a565b62001d816020830184620016e2565b9392505050565b600060408201905062001d9f600083018562001c96565b62001dae6020830184620016e2565b9392505050565b600060608201905062001dcc6000830186620016e2565b62001ddb6020830185620016e2565b62001dea6040830184620016e2565b949350505050565b600080fd5b600080fd5b600080fd5b6000808335600160200384360303811262001e215762001e2062001df2565b5b80840192508235915067ffffffffffffffff82111562001e465762001e4562001df7565b5b60208301925060208202360383131562001e655762001e6462001dfc565b5b509250929050565b7f4e487b7100000000000000000000000000000000000000000000000000000000600052603260045260246000fd5b60008235600160c00383360303811262001ebb5762001eba62001df2565b5b80830191505092915050565b600060408201905062001ede600083018562001b5d565b62001eed6020830184620016e2565b9392505050565b600081519050919050565b600081905092915050565b60005b8381101562001f2a57808201518184015260208101905062001f0d565b8381111562001f3a576000848401525b50505050565b600062001f4d8262001ef4565b62001f59818562001eff565b935062001f6b81856020860162001f0a565b80840191505092915050565b60008160601b9050919050565b600062001f918262001f77565b9050919050565b600062001fa58262001f84565b9050919050565b62001fc162001fbb82620014ad565b62001f98565b82525050565b600062001fd5828562001f40565b915062001fe3828462001fac565b6014820191508190509392505050565b62001ffe816200195a565b81146200200a57600080fd5b50565b6000815190506200201e8162001ff3565b92915050565b6000602082840312156200203d576200203c62001483565b5b60006200204d848285016200200d565b91505092915050565b7f5361666545524332303a204552433230206f7065726174696f6e20646964206e60008201527f6f74207375636365656400000000000000000000000000000000000000000000602082015250565b6000620020b4602a8362001c09565b9150620020c18262002056565b604082019050919050565b60006020820190508181036000830152620020e781620020a5565b9050919050565b7f416464726573733a20696e73756666696369656e742062616c616e636520666f60008201527f722063616c6c0000000000000000000000000000000000000000000000000000602082015250565b60006200214c60268362001c09565b91506200215982620020ee565b604082019050919050565b600060208201905081810360008301526200217f816200213d565b9050919050565b600081519050919050565b60006200219e8262002186565b620021aa818562001bbd565b9350620021bc81856020860162001f0a565b80840191505092915050565b6000620021d6828462002191565b915081905092915050565b7f416464726573733a2063616c6c20746f206e6f6e2d636f6e7472616374000000600082015250565b600062002219601d8362001c09565b91506200222682620021e1565b602082019050919050565b600060208201905081810360008301526200224c816200220a565b9050919050565b6000620022608262001ef4565b6200226c818562001c09565b93506200227e81856020860162001f0a565b620022898162001a0f565b840191505092915050565b60006020820190508181036000830152620022b0818462002253565b90509291505056fe608060405234801561001057600080fd5b5060405161056938038061056983398181016040528101906100329190610176565b60016000806101000a81548160ff02191690831515021790555080600160006101000a81548173ffffffffffffffffffffffffffffffffffffffff021916908373ffffffffffffffffffffffffffffffffffffffff16021790555081600060016101000a81548173ffffffffffffffffffffffffffffffffffffffff021916908373ffffffffffffffffffffffffffffffffffffffff16021790555050506101b6565b600080fd5b600073ffffffffffffffffffffffffffffffffffffffff82169050919050565b6000610105826100da565b9050919050565b610115816100fa565b811461012057600080fd5b50565b6000815190506101328161010c565b92915050565b6000610143826100da565b9050919050565b61015381610138565b811461015e57600080fd5b50565b6000815190506101708161014a565b92915050565b6000806040838503121561018d5761018c6100d5565b5b600061019b85828601610123565b92505060206101ac85828601610161565b9150509250929050565b6103a4806101c56000396000f3fe6080604052600436106100385760003560e01c80636a99a5231461013e5780638da5cb5b14610169578063ff05c2a8146101945761003f565b3661003f57005b3373ffffffffffffffffffffffffffffffffffffffff16600060019054906101000a900473ffffffffffffffffffffffffffffffffffffffff1673ffffffffffffffffffffffffffffffffffffffff161461009957600080fd5b6000600160009054906101000a900473ffffffffffffffffffffffffffffffffffffffff16905060008173ffffffffffffffffffffffffffffffffffffffff166356dececb6040518163ffffffff1660e01b8152600401602060405180830381865afa15801561010d573d6000803e3d6000fd5b505050506040513d601f19601f8201168201806040525081019061013191906102a5565b905061013c816101bf565b005b34801561014a57600080fd5b506101536101e5565b60405161016091906102e1565b60405180910390f35b34801561017557600080fd5b5061017e61020b565b60405161018b919061031d565b60405180910390f35b3480156101a057600080fd5b506101a9610231565b6040516101b69190610353565b60405180910390f35b3660008037600080366000845af43d6000803e80600081146101e0573d6000f35b3d6000fd5b600160009054906101000a900473ffffffffffffffffffffffffffffffffffffffff1681565b600060019054906101000a900473ffffffffffffffffffffffffffffffffffffffff1681565b60008054906101000a900460ff1681565b600080fd5b600073ffffffffffffffffffffffffffffffffffffffff82169050919050565b600061027282610247565b9050919050565b61028281610267565b811461028d57600080fd5b50565b60008151905061029f81610279565b92915050565b6000602082840312156102bb576102ba610242565b5b60006102c984828501610290565b91505092915050565b6102db81610267565b82525050565b60006020820190506102f660008301846102d2565b92915050565b600061030782610247565b9050919050565b610317816102fc565b82525050565b6000602082019050610332600083018461030e565b92915050565b60008115159050919050565b61034d81610338565b82525050565b60006020820190506103686000830184610344565b9291505056fea264697066735822122049e7545af2a272d761ee345b629f3e1003d6bddcb45c2c2636aa5463d93a573864736f6c634300080d0033a26469706673582212206d1c92c4d6d431b7f9bf2c8f5ee41f43075b1e06c95ac6bf26fa32d5c01cdc3864736f6c634300080d00336080604052336000806101000a81548173ffffffffffffffffffffffffffffffffffffffff021916908373ffffffffffffffffffffffffffffffffffffffff16021790555034801561005057600080fd5b50611bb8806100606000396000f3fe608060405234801561001057600080fd5b50600436106101425760003560e01c80638c160095116100b8578063ca446dd91161007c578063ca446dd914610395578063dc97d962146103b1578063e2a4853a146103e1578063e2b202bf146103fd578063f6bb3cc414610419578063fab494d91461043557610142565b80638c160095146102cd578063986e791a146102e9578063abfdcced14610319578063bd02d0f514610335578063c031a1801461036557610142565b80632e28d0841161010a5780632e28d084146101fd5780633e49bed0146102195780634755fa1414610235578063616b59f6146102655780636e899550146102815780637ae1cfca1461029d57610142565b80630e14a3761461014757806321f8a72114610163578063285f19c4146101935780632c62ff2d146101b15780632de74e04146101cd575b600080fd5b610161600480360381019061015c91906112b4565b610451565b005b61017d600480360381019061017891906112b4565b6104e2565b60405161018a9190611322565b60405180910390f35b61019b61051f565b6040516101a89190611356565b60405180910390f35b6101cb60048036038101906101c691906112b4565b610530565b005b6101e760048036038101906101e2919061139d565b6105ae565b6040516101f49190611425565b60405180910390f35b61021760048036038101906102129190611586565b610609565b005b610233600480360381019061022e9190611618565b61068d565b005b61024f600480360381019061024a9190611684565b610701565b60405161025c9190611322565b60405180910390f35b61027f600480360381019061027a91906112b4565b61077b565b005b61029b60048036038101906102969190611752565b6107f5565b005b6102b760048036038101906102b291906112b4565b610879565b6040516102c491906117c9565b60405180910390f35b6102e760048036038101906102e291906112b4565b6108a3565b005b61030360048036038101906102fe91906112b4565b610915565b604051610310919061186c565b60405180910390f35b610333600480360381019061032e91906118ba565b6109ba565b005b61034f600480360381019061034a91906112b4565b610a41565b60405161035c9190611356565b60405180910390f35b61037f600480360381019061037a91906112b4565b610a5e565b60405161038c919061194f565b60405180910390f35b6103af60048036038101906103aa919061199d565b610b03565b005b6103cb60048036038101906103c691906112b4565b610bb1565b6040516103d891906119ec565b60405180910390f35b6103fb60048036038101906103f69190611a07565b610bce565b005b610417600480360381019061041291906112b4565b610c42565b005b610433600480360381019061042e91906112b4565b610cb4565b005b61044f600480360381019061044a9190611a47565b610d2e565b005b60008054906101000a900473ffffffffffffffffffffffffffffffffffffffff1673ffffffffffffffffffffffffffffffffffffffff163373ffffffffffffffffffffffffffffffffffffffff16146104a957600080fd5b6003600082815260200190815260200160002060006101000a81549073ffffffffffffffffffffffffffffffffffffffff021916905550565b60006003600083815260200190815260200160002060009054906101000a900473ffffffffffffffffffffffffffffffffffffffff169050919050565b600061052b6007610da5565b905090565b60008054906101000a900473ffffffffffffffffffffffffffffffffffffffff1673ffffffffffffffffffffffffffffffffffffffff163373ffffffffffffffffffffffffffffffffffffffff161461058857600080fd5b6005600082815260200190815260200160002060006101000a81549060ff021916905550565b6105b661108d565b6000806105cd846007610dba90919063ffffffff16565b9150915060405180604001604052808361ffff1681526020018273ffffffffffffffffffffffffffffffffffffffff1681525092505050919050565b60008054906101000a900473ffffffffffffffffffffffffffffffffffffffff1673ffffffffffffffffffffffffffffffffffffffff163373ffffffffffffffffffffffffffffffffffffffff161461066157600080fd5b806004600084815260200190815260200160002090805190602001906106889291906110c1565b505050565b60008054906101000a900473ffffffffffffffffffffffffffffffffffffffff1673ffffffffffffffffffffffffffffffffffffffff163373ffffffffffffffffffffffffffffffffffffffff16146106e557600080fd5b8060066000848152602001908152602001600020819055505050565b60008060009054906101000a900473ffffffffffffffffffffffffffffffffffffffff1673ffffffffffffffffffffffffffffffffffffffff163373ffffffffffffffffffffffffffffffffffffffff161461075c57600080fd5b6107748261ffff166007610de690919063ffffffff16565b9050919050565b60008054906101000a900473ffffffffffffffffffffffffffffffffffffffff1673ffffffffffffffffffffffffffffffffffffffff163373ffffffffffffffffffffffffffffffffffffffff16146107d357600080fd5b6004600082815260200190815260200160002060006107f29190611147565b50565b60008054906101000a900473ffffffffffffffffffffffffffffffffffffffff1673ffffffffffffffffffffffffffffffffffffffff163373ffffffffffffffffffffffffffffffffffffffff161461084d57600080fd5b80600260008481526020019081526020016000209080519060200190610874929190611187565b505050565b60006005600083815260200190815260200160002060009054906101000a900460ff169050919050565b60008054906101000a900473ffffffffffffffffffffffffffffffffffffffff1673ffffffffffffffffffffffffffffffffffffffff163373ffffffffffffffffffffffffffffffffffffffff16146108fb57600080fd5b600660008281526020019081526020016000206000905550565b606060026000838152602001908152602001600020805461093590611ab6565b80601f016020809104026020016040519081016040528092919081815260200182805461096190611ab6565b80156109ae5780601f10610983576101008083540402835291602001916109ae565b820191906000526020600020905b81548152906001019060200180831161099157829003601f168201915b50505050509050919050565b60008054906101000a900473ffffffffffffffffffffffffffffffffffffffff1673ffffffffffffffffffffffffffffffffffffffff163373ffffffffffffffffffffffffffffffffffffffff1614610a1257600080fd5b806005600084815260200190815260200160002060006101000a81548160ff0219169083151502179055505050565b600060016000838152602001908152602001600020549050919050565b6060600460008381526020019081526020016000208054610a7e90611ab6565b80601f0160208091040260200160405190810160405280929190818152602001828054610aaa90611ab6565b8015610af75780601f10610acc57610100808354040283529160200191610af7565b820191906000526020600020905b815481529060010190602001808311610ada57829003601f168201915b50505050509050919050565b60008054906101000a900473ffffffffffffffffffffffffffffffffffffffff1673ffffffffffffffffffffffffffffffffffffffff163373ffffffffffffffffffffffffffffffffffffffff1614610b5b57600080fd5b806003600084815260200190815260200160002060006101000a81548173ffffffffffffffffffffffffffffffffffffffff021916908373ffffffffffffffffffffffffffffffffffffffff1602179055505050565b600060066000838152602001908152602001600020549050919050565b60008054906101000a900473ffffffffffffffffffffffffffffffffffffffff1673ffffffffffffffffffffffffffffffffffffffff163373ffffffffffffffffffffffffffffffffffffffff1614610c2657600080fd5b8060016000848152602001908152602001600020819055505050565b60008054906101000a900473ffffffffffffffffffffffffffffffffffffffff1673ffffffffffffffffffffffffffffffffffffffff163373ffffffffffffffffffffffffffffffffffffffff1614610c9a57600080fd5b600160008281526020019081526020016000206000905550565b60008054906101000a900473ffffffffffffffffffffffffffffffffffffffff1673ffffffffffffffffffffffffffffffffffffffff163373ffffffffffffffffffffffffffffffffffffffff1614610d0c57600080fd5b600260008281526020019081526020016000206000610d2b919061120d565b50565b60008054906101000a900473ffffffffffffffffffffffffffffffffffffffff1673ffffffffffffffffffffffffffffffffffffffff163373ffffffffffffffffffffffffffffffffffffffff1614610d8657600080fd5b610da08261ffff16826007610e039092919063ffffffff16565b505050565b6000610db382600001610e38565b9050919050565b600080600080610dcd8660000186610e4d565b915091508160001c8160001c9350935050509250929050565b6000610df8836000018360001b610e8d565b60001c905092915050565b6000610e2f846000018460001b8473ffffffffffffffffffffffffffffffffffffffff1660001b610f09565b90509392505050565b6000610e4682600001610f44565b9050919050565b6000806000610e688486600001610f5990919063ffffffff16565b9050808560020160008381526020019081526020016000205492509250509250929050565b6000808360020160008481526020019081526020016000205490506000801b81141580610ec05750610ebf8484610f70565b5b610eff576040517f08c379a0000000000000000000000000000000000000000000000000000000008152600401610ef690611b33565b60405180910390fd5b8091505092915050565b60008184600201600085815260200190815260200160002081905550610f3b8385600001610f9090919063ffffffff16565b90509392505050565b6000610f5282600001610fa7565b9050919050565b6000610f688360000183610fb8565b905092915050565b6000610f888284600001610fe390919063ffffffff16565b905092915050565b6000610f9f8360000183610ffa565b905092915050565b600081600001805490509050919050565b6000826000018281548110610fd057610fcf611b53565b5b9060005260206000200154905092915050565b6000610ff2836000018361106a565b905092915050565b6000611006838361106a565b61105f578260000182908060018154018082558091505060019003906000526020600020016000909190919091505582600001805490508360010160008481526020019081526020016000208190555060019050611064565b600090505b92915050565b600080836001016000848152602001908152602001600020541415905092915050565b6040518060400160405280600061ffff168152602001600073ffffffffffffffffffffffffffffffffffffffff1681525090565b8280546110cd90611ab6565b90600052602060002090601f0160209004810192826110ef5760008555611136565b82601f1061110857805160ff1916838001178555611136565b82800160010185558215611136579182015b8281111561113557825182559160200191906001019061111a565b5b509050611143919061124d565b5090565b50805461115390611ab6565b6000825580601f106111655750611184565b601f016020900490600052602060002090810190611183919061124d565b5b50565b82805461119390611ab6565b90600052602060002090601f0160209004810192826111b557600085556111fc565b82601f106111ce57805160ff19168380011785556111fc565b828001600101855582156111fc579182015b828111156111fb5782518255916020019190600101906111e0565b5b509050611209919061124d565b5090565b50805461121990611ab6565b6000825580601f1061122b575061124a565b601f016020900490600052602060002090810190611249919061124d565b5b50565b5b8082111561126657600081600090555060010161124e565b5090565b6000604051905090565b600080fd5b600080fd5b6000819050919050565b6112918161127e565b811461129c57600080fd5b50565b6000813590506112ae81611288565b92915050565b6000602082840312156112ca576112c9611274565b5b60006112d88482850161129f565b91505092915050565b600073ffffffffffffffffffffffffffffffffffffffff82169050919050565b600061130c826112e1565b9050919050565b61131c81611301565b82525050565b60006020820190506113376000830184611313565b92915050565b6000819050919050565b6113508161133d565b82525050565b600060208201905061136b6000830184611347565b92915050565b61137a8161133d565b811461138557600080fd5b50565b60008135905061139781611371565b92915050565b6000602082840312156113b3576113b2611274565b5b60006113c184828501611388565b91505092915050565b600061ffff82169050919050565b6113e1816113ca565b82525050565b6113f081611301565b82525050565b60408201600082015161140c60008501826113d8565b50602082015161141f60208501826113e7565b50505050565b600060408201905061143a60008301846113f6565b92915050565b600080fd5b600080fd5b6000601f19601f8301169050919050565b7f4e487b7100000000000000000000000000000000000000000000000000000000600052604160045260246000fd5b6114938261144a565b810181811067ffffffffffffffff821117156114b2576114b161145b565b5b80604052505050565b60006114c561126a565b90506114d1828261148a565b919050565b600067ffffffffffffffff8211156114f1576114f061145b565b5b6114fa8261144a565b9050602081019050919050565b82818337600083830152505050565b6000611529611524846114d6565b6114bb565b90508281526020810184848401111561154557611544611445565b5b611550848285611507565b509392505050565b600082601f83011261156d5761156c611440565b5b813561157d848260208601611516565b91505092915050565b6000806040838503121561159d5761159c611274565b5b60006115ab8582860161129f565b925050602083013567ffffffffffffffff8111156115cc576115cb611279565b5b6115d885828601611558565b9150509250929050565b6000819050919050565b6115f5816115e2565b811461160057600080fd5b50565b600081359050611612816115ec565b92915050565b6000806040838503121561162f5761162e611274565b5b600061163d8582860161129f565b925050602061164e85828601611603565b9150509250929050565b611661816113ca565b811461166c57600080fd5b50565b60008135905061167e81611658565b92915050565b60006020828403121561169a57611699611274565b5b60006116a88482850161166f565b91505092915050565b600067ffffffffffffffff8211156116cc576116cb61145b565b5b6116d58261144a565b9050602081019050919050565b60006116f56116f0846116b1565b6114bb565b90508281526020810184848401111561171157611710611445565b5b61171c848285611507565b509392505050565b600082601f83011261173957611738611440565b5b81356117498482602086016116e2565b91505092915050565b6000806040838503121561176957611768611274565b5b60006117778582860161129f565b925050602083013567ffffffffffffffff81111561179857611797611279565b5b6117a485828601611724565b9150509250929050565b60008115159050919050565b6117c3816117ae565b82525050565b60006020820190506117de60008301846117ba565b92915050565b600081519050919050565b600082825260208201905092915050565b60005b8381101561181e578082015181840152602081019050611803565b8381111561182d576000848401525b50505050565b600061183e826117e4565b61184881856117ef565b9350611858818560208601611800565b6118618161144a565b840191505092915050565b600060208201905081810360008301526118868184611833565b905092915050565b611897816117ae565b81146118a257600080fd5b50565b6000813590506118b48161188e565b92915050565b600080604083850312156118d1576118d0611274565b5b60006118df8582860161129f565b92505060206118f0858286016118a5565b9150509250929050565b600081519050919050565b600082825260208201905092915050565b6000611921826118fa565b61192b8185611905565b935061193b818560208601611800565b6119448161144a565b840191505092915050565b600060208201905081810360008301526119698184611916565b905092915050565b61197a81611301565b811461198557600080fd5b50565b60008135905061199781611971565b92915050565b600080604083850312156119b4576119b3611274565b5b60006119c28582860161129f565b92505060206119d385828601611988565b9150509250929050565b6119e6816115e2565b82525050565b6000602082019050611a0160008301846119dd565b92915050565b60008060408385031215611a1e57611a1d611274565b5b6000611a2c8582860161129f565b9250506020611a3d85828601611388565b9150509250929050565b60008060408385031215611a5e57611a5d611274565b5b6000611a6c8582860161166f565b9250506020611a7d85828601611988565b9150509250929050565b7f4e487b7100000000000000000000000000000000000000000000000000000000600052602260045260246000fd5b60006002820490506001821680611ace57607f821691505b602082108103611ae157611ae0611a87565b5b50919050565b7f456e756d657261626c654d61703a206e6f6e6578697374656e74206b65790000600082015250565b6000611b1d601e836117ef565b9150611b2882611ae7565b602082019050919050565b60006020820190508181036000830152611b4c81611b10565b9050919050565b7f4e487b7100000000000000000000000000000000000000000000000000000000600052603260045260246000fdfea264697066735822122084ad4dcf7bef2fe3d4aa6d621a601582d941025bc7f167a4e854d9fa6d3a085964736f6c634300080d0033",
  "immutableReferences": {},
  "source": "// SPDX-License-Identifier: MIT\npragma solidity ^0.8.13;\n\nimport '@openzeppelin/contracts/token/ERC20/IERC20.sol';\nimport '@openzeppelin/contracts/token/ERC20/utils/SafeERC20.sol';\n\nimport './FrontDoor.sol';\nimport './IWorkflowRunner.sol';\nimport './Workflow.sol';\nimport './IUserProxyManager.sol';\nimport './UserProxy.sol';\nimport './libAssetBalances.sol';\n\nimport './actions/curve/Curve.sol';\nimport './actions/wormhole/Wormhole.sol';\n\n/// @dev inheriting from FrontDoor so storage slots align\ncontract WorkflowRunner is FrontDoor, IWorkflowRunner, IUserProxyManager {\n  // mainnet\n  address constant wethAddress = address(0xC02aaA39b223FE8D0A0e5C4F27eAD9083C756Cc2);\n  address constant wbtcAddress = address(0x2260FAC5E5542a773Aa44fBCfeDf7C193bc2C599);\n  address constant usdtAddress = address(0xdAC17F958D2ee523a2206206994597C13D831ec7);\n  address constant usdcAddress = address(0xA0b86991c6218b36c1d19D4a2e9Eb0cE3606eB48);\n  address constant daiAddress = address(0x6B175474E89094C44Da98b954EedeAC495271d0F);\n\n  // goerli\n  // address constant wethAddress = address(0xB4FBF271143F4FBf7B91A5ded31805e42b2208d6);\n\n  IERC20 constant usdt = IERC20(usdtAddress);\n\n  function createUserProxy() external {\n    EternalStorage es = EternalStorage(getEternalStorageAddress());\n    // bytes32 key = keccak256(abi.encodePacked('userProxies', msg.sender));\n    bytes32 key = getAddressKey('userProxies', msg.sender);\n    address currentAddress = es.getAddress(key);\n    require(currentAddress == address(0x0000000000000000), 'user proxy already exists');\n    UserProxy newUserProxy = new UserProxy(payable(msg.sender), getFrontDoorAddress());\n    address userProxyAddress = address(newUserProxy);\n    es.setAddress(key, userProxyAddress);\n  }\n\n  event LogActionAddressSet(uint16 actionId, address actionAddress);\n\n  function setActionAddress(uint16 actionId, address actionAddress) external onlyOwner {\n    EternalStorage eternalStorage = EternalStorage(getEternalStorageAddress());\n    eternalStorage.setActionAddress(actionId, actionAddress);\n    emit LogActionAddressSet(actionId, actionAddress);\n  }\n\n  function getActionAddress(uint16 actionId) external view returns (address) {\n    EternalStorage eternalStorage = EternalStorage(getEternalStorageAddress());\n    return eternalStorage.getActionAddress(actionId);\n  }\n\n  function getActionAddressCount() public view returns (uint256) {\n    EternalStorage eternalStorage = EternalStorage(getEternalStorageAddress());\n    return eternalStorage.getActionAddressCount();\n  }\n\n  function getActionInfoAt(uint256 index) public view returns (ActionInfo memory) {\n    EternalStorage eternalStorage = EternalStorage(getEternalStorageAddress());\n    return eternalStorage.getActionInfoAt(index);\n  }\n\n  function getAddressKey(string memory category, address addr) internal pure returns (bytes32) {\n    return keccak256(abi.encodePacked(category, addr));\n  }\n\n  function getUserProxy() external view returns (address) {\n    EternalStorage eternalStorage = EternalStorage(getEternalStorageAddress());\n    bytes32 key = getAddressKey('userProxies', msg.sender);\n    return eternalStorage.getAddress(key);\n  }\n\n  event WorkflowExecution(address sender);\n\n  // event WorkflowStep()\n\n  function executeWorkflow(Workflow calldata workflow, WorkflowParameter[] calldata params) external payable {\n    // IERC20 weth = IERC20(wethAddress);\n    // uint256 wethBalance = weth.balanceOf(msg.sender);\n    // uint256 beforeAmount = toToken.balanceOf(address(this));\n    emit WorkflowExecution(msg.sender);\n    if (workflow.steps.length > 0) {\n      WorkflowStep calldata first = workflow.steps[0];\n    }\n\n    // libAssetBalances.AssetBalances memory assetBalances;\n    // for (uint8 stepIndex = 0; stepIndex < steps.length; ++stepIndex) {\n    //   WorkflowStepDef calldata step = steps[stepIndex];\n    //   // address fromToken = address(step.inputAsset);\n    //   int256 amount = step.amount;\n    //   // percent means relative to balances created by previous steps, not percent of the caller's total balance of that token\n    //   if (step.amountIsPercent) {\n    //     require(step.amount <= 100, 'invalid workflow, cannot specify a percentage greater than 100');\n    //     uint256 amountFromPreviousSteps = libAsset.get(assetBalances, step.inputAsset);\n    //     require(amountFromPreviousSteps != 0, 'invalid workflow, cannot use a percentage of a token with a 0 balance');\n    //     amount = (amountFromPreviousSteps * amount) / 100;\n    //   }\n    //   (address toToken, uint256 outcomeAmount) = getStepFunc(step.stepId)(fromToken, amount, step.args);\n    //   if (step.amountIsPercent) {\n    //     libAsset.debit(assetBalances, inputAsset, amount);\n    //   }\n    //   libAsset.credit(assetBalances, toToken, outcomeAmount);\n    // }\n  }\n\n  event Foo(address sender);\n\n  function foo(Workflow calldata workflow) external payable {\n    emit Foo(msg.sender);\n  }\n\n  // function executeWorkflow(uint256[] calldata args) external payable {\n  //   // the first arg is the starting amount\n  //   uint256 nextAmount = args[0];\n  //   uint16 argsIndex = 1;\n  //   while (argsIndex < args.length) {\n  //     (uint256 argsConsumed, uint256 outcomeAmount) = getStepFunc(args[argsIndex])(nextAmount, args[argsIndex + 1:]);\n  //     argsIndex += 1 + uint16(argsConsumed);\n  //     nextAmount = outcomeAmount;\n  //   }\n  // }\n\n  function withdrawal(\n    address tokenAddress,\n    uint256 amount,\n    uint256[] calldata\n  ) public payable returns (address, uint256) {\n    address payable user = payable(getOwner());\n    if (tokenAddress == address(0x0)) {\n      (bool success, ) = user.call{value: amount}('');\n      require(success, 'withdraw eth failed');\n    } else {\n      IERC20 token = IERC20(tokenAddress);\n      SafeERC20.safeTransfer(token, user, amount);\n    }\n    // this has to be a terminal step, so returning 0 for amount\n    return (address(0), 0);\n  }\n}\n",
  "sourcePath": "/home/asdf/fmp3/platform/evm/contracts/WorkflowRunner.sol",
  "compiler": {
    "name": "solc",
    "version": "0.8.13+commit.abaa5c0e.Emscripten.clang"
  },
  "schemaVersion": "3.4.11",
  "updatedAt": "2022-12-18T13:09:17.358Z",
  "devdoc": {
    "details": "inheriting from FrontDoor so storage slots align",
    "kind": "dev",
    "methods": {},
    "version": 1
  },
  "userdoc": {
    "kind": "user",
    "methods": {},
    "version": 1
  }
}