{
  "contractName": "WorkflowRunner",
  "abi": [
    {
      "anonymous": false,
      "inputs": [
        {
          "indexed": false,
          "internalType": "address",
          "name": "sender",
          "type": "address"
        },
        {
          "indexed": false,
          "internalType": "address",
          "name": "newOwner",
          "type": "address"
        }
      ],
      "name": "LogNewOwner",
      "type": "event"
    },
    {
      "anonymous": false,
      "inputs": [
        {
          "indexed": false,
          "internalType": "address",
          "name": "sender",
          "type": "address"
        },
        {
          "indexed": false,
          "internalType": "address",
          "name": "oldUpstream",
          "type": "address"
        },
        {
          "indexed": false,
          "internalType": "address",
          "name": "newUpstream",
          "type": "address"
        }
      ],
      "name": "LogNewUpstream",
      "type": "event"
    },
    {
      "stateMutability": "payable",
      "type": "fallback"
    },
    {
      "inputs": [
        {
          "internalType": "address",
          "name": "newOwner",
          "type": "address"
        }
      ],
      "name": "changeOwner",
      "outputs": [],
      "stateMutability": "nonpayable",
      "type": "function"
    },
    {
      "inputs": [],
      "name": "eternalStorageAddress",
      "outputs": [
        {
          "internalType": "address",
          "name": "",
          "type": "address"
        }
      ],
      "stateMutability": "view",
      "type": "function"
    },
    {
      "inputs": [],
      "name": "frontDoorAddress",
      "outputs": [
        {
          "internalType": "address",
          "name": "",
          "type": "address"
        }
      ],
      "stateMutability": "view",
      "type": "function"
    },
    {
      "inputs": [],
      "name": "getUpstream",
      "outputs": [
        {
          "internalType": "address",
          "name": "",
          "type": "address"
        }
      ],
      "stateMutability": "view",
      "type": "function"
    },
    {
      "inputs": [],
      "name": "owner",
      "outputs": [
        {
          "internalType": "address payable",
          "name": "",
          "type": "address"
        }
      ],
      "stateMutability": "view",
      "type": "function"
    },
    {
      "inputs": [
        {
          "internalType": "address",
          "name": "newUpstream",
          "type": "address"
        }
      ],
      "name": "setUpstream",
      "outputs": [],
      "stateMutability": "nonpayable",
      "type": "function"
    },
    {
      "inputs": [],
      "name": "upstream",
      "outputs": [
        {
          "internalType": "address",
          "name": "",
          "type": "address"
        }
      ],
      "stateMutability": "view",
      "type": "function"
    },
    {
      "stateMutability": "payable",
      "type": "receive"
    },
    {
      "inputs": [],
      "name": "createUserProxy",
      "outputs": [],
      "stateMutability": "nonpayable",
      "type": "function"
    },
    {
      "inputs": [],
      "name": "getUserProxy",
      "outputs": [
        {
          "internalType": "address",
          "name": "",
          "type": "address"
        }
      ],
      "stateMutability": "view",
      "type": "function"
    },
    {
      "inputs": [
        {
          "components": [
            {
              "internalType": "uint16",
              "name": "stepId",
              "type": "uint16"
            },
            {
              "internalType": "uint160",
              "name": "fromToken",
              "type": "uint160"
            },
            {
              "internalType": "uint256",
              "name": "amount",
              "type": "uint256"
            },
            {
              "internalType": "bool",
              "name": "amountIsPercent",
              "type": "bool"
            },
            {
              "internalType": "uint256[]",
              "name": "args",
              "type": "uint256[]"
            }
          ],
          "internalType": "struct WorkflowStep[]",
          "name": "steps",
          "type": "tuple[]"
        }
      ],
      "name": "executeWorkflow",
      "outputs": [],
      "stateMutability": "payable",
      "type": "function"
    },
    {
      "inputs": [
        {
          "internalType": "address",
          "name": "",
          "type": "address"
        },
        {
          "internalType": "uint256",
          "name": "amount",
          "type": "uint256"
        },
        {
          "internalType": "uint256[]",
          "name": "",
          "type": "uint256[]"
        }
      ],
      "name": "ethToWeth",
      "outputs": [
        {
          "internalType": "address",
          "name": "",
          "type": "address"
        },
        {
          "internalType": "uint256",
          "name": "",
          "type": "uint256"
        }
      ],
      "stateMutability": "payable",
      "type": "function"
    },
    {
      "inputs": [
        {
          "internalType": "address",
          "name": "tokenAddress",
          "type": "address"
        },
        {
          "internalType": "uint256",
          "name": "amount",
          "type": "uint256"
        },
        {
          "internalType": "uint256[]",
          "name": "",
          "type": "uint256[]"
        }
      ],
      "name": "withdrawal",
      "outputs": [
        {
          "internalType": "address",
          "name": "",
          "type": "address"
        },
        {
          "internalType": "uint256",
          "name": "",
          "type": "uint256"
        }
      ],
      "stateMutability": "payable",
      "type": "function"
    }
  ],
  "bytecode": "0x60806040523480156200001157600080fd5b5033600080600160006101000a81548173ffffffffffffffffffffffffffffffffffffffff021916908373ffffffffffffffffffffffffffffffffffffffff160217905550816000806101000a81548173ffffffffffffffffffffffffffffffffffffffff021916908373ffffffffffffffffffffffffffffffffffffffff1602179055505050604051620000a6906200014b565b604051809103906000f080158015620000c3573d6000803e3d6000fd5b50600260006101000a81548173ffffffffffffffffffffffffffffffffffffffff021916908373ffffffffffffffffffffffffffffffffffffffff16021790555030600360006101000a81548173ffffffffffffffffffffffffffffffffffffffff021916908373ffffffffffffffffffffffffffffffffffffffff16021790555062000159565b6115028062003aee83390190565b61398580620001696000396000f3fe608060405260043610620000bb5760003560e01c80636a99a523116200006d5780636a99a523146200020a578063742ec666146200023a57806389f4fd5714620002685780638da5cb5b1462000298578063a6f9dae114620002c8578063e0f25bc514620002f657620000c3565b80632313c41114620000f2578063384782fe146200012957806350fd910e146200015957806352f65b26146200018957806356dececb14620001c0578063674af9d614620001f057620000c3565b36620000c357005b620000f0600160009054906101000a900473ffffffffffffffffffffffffffffffffffffffff1662000316565b005b6200011060048036038101906200010a91906200212b565b6200033d565b60405162000120929190620021cd565b60405180910390f35b3480156200013657600080fd5b5062000141620003da565b604051620001509190620021fa565b60405180910390f35b3480156200016657600080fd5b506200017162000400565b604051620001809190620021fa565b60405180910390f35b620001a76004803603810190620001a191906200212b565b62000426565b604051620001b7929190620021cd565b60405180910390f35b348015620001cd57600080fd5b50620001d862000563565b604051620001e79190620021fa565b60405180910390f35b348015620001fd57600080fd5b50620002086200058d565b005b3480156200021757600080fd5b5062000222620007d2565b604051620002319190620021fa565b60405180910390f35b3480156200024757600080fd5b5062000266600480360381019062000260919062002217565b620007f8565b005b3480156200027557600080fd5b5062000280620008a1565b6040516200028f9190620021fa565b60405180910390f35b348015620002a557600080fd5b50620002b062000994565b604051620002bf91906200226e565b60405180910390f35b348015620002d557600080fd5b50620002f46004803603810190620002ee919062002217565b620009b8565b005b6200031460048036038101906200030e9190620022ea565b62000a89565b005b3660008037600080366000845af43d6000803e806000811462000338573d6000f35b3d6000fd5b60008073c02aaa39b223fe8d0a0e5c4f27ead9083c756cc273ffffffffffffffffffffffffffffffffffffffff1663d0e30db0866040518263ffffffff1660e01b81526004016000604051808303818588803b1580156200039d57600080fd5b505af1158015620003b2573d6000803e3d6000fd5b505050505073c02aaa39b223fe8d0a0e5c4f27ead9083c756cc2859150915094509492505050565b600260009054906101000a900473ffffffffffffffffffffffffffffffffffffffff1681565b600360009054906101000a900473ffffffffffffffffffffffffffffffffffffffff1681565b60008060008060009054906101000a900473ffffffffffffffffffffffffffffffffffffffff169050600073ffffffffffffffffffffffffffffffffffffffff168773ffffffffffffffffffffffffffffffffffffffff16036200053e5760008173ffffffffffffffffffffffffffffffffffffffff1687604051620004ac9062002374565b60006040518083038185875af1925050503d8060008114620004eb576040519150601f19603f3d011682016040523d82523d6000602084013e620004f0565b606091505b505090508062000537576040517f08c379a00000000000000000000000000000000000000000000000000000000081526004016200052e90620023ec565b60405180910390fd5b5062000552565b60008790506200055081838962000c74565b505b600080925092505094509492505050565b6000600160009054906101000a900473ffffffffffffffffffffffffffffffffffffffff16905090565b6000600260009054906101000a900473ffffffffffffffffffffffffffffffffffffffff16905060008190506000620005fc6040518060400160405280600b81526020017f7573657250726f786965730000000000000000000000000000000000000000008152503362000cfe565b905060008273ffffffffffffffffffffffffffffffffffffffff166321f8a721836040518263ffffffff1660e01b81526004016200063b919062002429565b602060405180830381865afa15801562000659573d6000803e3d6000fd5b505050506040513d601f19601f820116820180604052508101906200067f91906200245d565b9050600073ffffffffffffffffffffffffffffffffffffffff168173ffffffffffffffffffffffffffffffffffffffff1614620006f3576040517f08c379a0000000000000000000000000000000000000000000000000000000008152600401620006ea90620024df565b60405180910390fd5b600033600360009054906101000a900473ffffffffffffffffffffffffffffffffffffffff16604051620007279062001f73565b6200073492919062002501565b604051809103906000f08015801562000751573d6000803e3d6000fd5b50905060008190508473ffffffffffffffffffffffffffffffffffffffff1663ca446dd985836040518363ffffffff1660e01b8152600401620007969291906200252e565b600060405180830381600087803b158015620007b157600080fd5b505af1158015620007c6573d6000803e3d6000fd5b50505050505050505050565b600160009054906101000a900473ffffffffffffffffffffffffffffffffffffffff1681565b6000600160009054906101000a900473ffffffffffffffffffffffffffffffffffffffff16905081600160006101000a81548173ffffffffffffffffffffffffffffffffffffffff021916908373ffffffffffffffffffffffffffffffffffffffff1602179055507fb3d51b4e19bdb93dfcf43f1951a29eb5eb26e251c1af1550ed9a7b13f8022da733828460405162000895939291906200255b565b60405180910390a15050565b600080600260009054906101000a900473ffffffffffffffffffffffffffffffffffffffff16905060006200090c6040518060400160405280600b81526020017f7573657250726f786965730000000000000000000000000000000000000000008152503362000cfe565b90508173ffffffffffffffffffffffffffffffffffffffff166321f8a721826040518263ffffffff1660e01b815260040162000949919062002429565b602060405180830381865afa15801562000967573d6000803e3d6000fd5b505050506040513d601f19601f820116820180604052508101906200098d91906200245d565b9250505090565b60008054906101000a900473ffffffffffffffffffffffffffffffffffffffff1681565b60008054906101000a900473ffffffffffffffffffffffffffffffffffffffff1673ffffffffffffffffffffffffffffffffffffffff163373ffffffffffffffffffffffffffffffffffffffff161462000a1157600080fd5b600073ffffffffffffffffffffffffffffffffffffffff168173ffffffffffffffffffffffffffffffffffffffff160362000a4b57600080fd5b7f1f8d7d25344642d919d55999e4664aa452a5f424bc0936ceb9c2b300db7dcbd9338260405162000a7e92919062002598565b60405180910390a150565b62000a9362001f81565b60005b838390508160ff16101562000c6e573684848360ff1681811062000abf5762000abe620025c5565b5b905060200281019062000ad3919062002603565b9050600081602001602081019062000aec91906200265f565b905060008260400135905082606001602081019062000b0c9190620026ce565b1562000bd35760648360400135111562000b5d576040517f08c379a000000000000000000000000000000000000000000000000000000000815260040162000b549062002776565b60405180910390fd5b600062000b6b868462000d33565b90506000810362000bb3576040517f08c379a000000000000000000000000000000000000000000000000000000000815260040162000baa9062002834565b60405180910390fd5b6064828262000bc3919062002885565b62000bcf919062002915565b9150505b60008062000c19848487806080019062000bee91906200294d565b62000c118a600001602081019062000c079190620029f8565b61ffff1662000df8565b63ffffffff16565b9150915084606001602081019062000c329190620026ce565b1562000c475762000c4587858562000e9e565b505b62000c548783836200109b565b5050505050508062000c669062002a37565b905062000a96565b50505050565b62000cf98363a9059cbb60e01b848460405160240162000c96929190620021cd565b604051602081830303815290604052907bffffffffffffffffffffffffffffffffffffffffffffffffffffffff19166020820180517bffffffffffffffffffffffffffffffffffffffffffffffffffffffff838183161783525050505062001238565b505050565b6000828260405160200162000d1592919062002b38565b60405160208183030381529060405280519060200120905092915050565b6000808360000151905060005b846020015160ff168161ffff16101562000deb578373ffffffffffffffffffffffffffffffffffffffff16828261ffff166014811062000d855762000d84620025c5565b5b60200201516000015173ffffffffffffffffffffffffffffffffffffffff160362000dd757818161ffff166014811062000dc45762000dc3620025c5565b5b6020020151602001519250505062000df2565b8062000de39062002b64565b905062000d40565b5060009150505b92915050565b62001fa6600482101562000e5257600282101562000e31576000820362000e25576200033d905062000e99565b62001307905062000e99565b6002820362000e46576200155b905062000e99565b620017af905062000e99565b600682101562000e7d576004820362000e715762000426905062000e99565b62001955905062000e99565b6006820362000e925762000426905062000e99565b6200042690505b919050565b6000808460000151905060005b856020015160ff1681101562000ff9578473ffffffffffffffffffffffffffffffffffffffff1682826014811062000ee85762000ee7620025c5565b5b60200201516000015173ffffffffffffffffffffffffffffffffffffffff160362000fe557600082826014811062000f255762000f24620025c5565b5b6020020151602001519050848162000f3e919062002b93565b90508083836014811062000f575762000f56620025c5565b5b602002015160200181815250506000810362000fd957826001886020015162000f81919062002bce565b60ff166014811062000f985762000f97620025c5565b5b602002015183836014811062000fb35762000fb2620025c5565b5b602002018190525086602001805162000fcc9062002c09565b60ff16908160ff16815250505b80935050505062001094565b8062000ff19062002c37565b905062000eab565b856020015160ff16811062001045576040517f08c379a00000000000000000000000000000000000000000000000000000000081526004016200103c9062002cfa565b60405180910390fd5b60405180604001604052808673ffffffffffffffffffffffffffffffffffffffff16815260200185815250828260148110620010865762001085620025c5565b5b602002018190525083925050505b9392505050565b6000808460000151905060005b856020015160ff168110156200117c578473ffffffffffffffffffffffffffffffffffffffff16828260148110620010e557620010e4620025c5565b5b60200201516000015173ffffffffffffffffffffffffffffffffffffffff1603620011685783828260148110620011215762001120620025c5565b5b602002015160200181815162001138919062002d1c565b91508181525050818160148110620011555762001154620025c5565b5b6020020151602001519250505062001231565b80620011749062002c37565b9050620010a8565b601460ff168110620011c5576040517f08c379a0000000000000000000000000000000000000000000000000000000008152600401620011bc9062002dc9565b60405180910390fd5b60405180604001604052808673ffffffffffffffffffffffffffffffffffffffff16815260200185815250828260148110620012065762001205620025c5565b5b60200201819052508560200180516200121f9062002a37565b60ff16908160ff168152505083925050505b9392505050565b60006200129c826040518060400160405280602081526020017f5361666545524332303a206c6f772d6c6576656c2063616c6c206661696c65648152508573ffffffffffffffffffffffffffffffffffffffff1662001bc59092919063ffffffff16565b9050600081511115620013025780806020019051810190620012bf919062002e02565b62001301576040517f08c379a0000000000000000000000000000000000000000000000000000000008152600401620012f89062002eaa565b60405180910390fd5b5b505050565b6000806200132b7380466c64868e1ab14a1ddf27a676c3fcbe638fe5878762001bdf565b60006200136a7380466c64868e1ab14a1ddf27a676c3fcbe638fe5868660018181106200135d576200135c620025c5565b5b9050602002013562001d34565b9050600081905060008173ffffffffffffffffffffffffffffffffffffffff166370a08231306040518263ffffffff1660e01b8152600401620013ae9190620021fa565b602060405180830381865afa158015620013cc573d6000803e3d6000fd5b505050506040513d601f19601f82011682018060405250810190620013f2919062002ee3565b90507380466c64868e1ab14a1ddf27a676c3fcbe638fe573ffffffffffffffffffffffffffffffffffffffff16635b41b908888860008181106200143b576200143a620025c5565b5b9050602002013589896001818110620014595762001458620025c5565b5b905060200201358b60016040518563ffffffff1660e01b815260040162001484949392919062002f62565b600060405180830381600087803b1580156200149f57600080fd5b505af1158015620014b4573d6000803e3d6000fd5b5050505060008273ffffffffffffffffffffffffffffffffffffffff166370a08231306040518263ffffffff1660e01b8152600401620014f59190620021fa565b602060405180830381865afa15801562001513573d6000803e3d6000fd5b505050506040513d601f19601f8201168201806040525081019062001539919062002ee3565b90508382826200154a919062002b93565b955095505050505094509492505050565b6000806200157f73bebc44782c7db0a1a60cb6fe97d0b483032ff1c7878762001bdf565b6000620015be73bebc44782c7db0a1a60cb6fe97d0b483032ff1c786866001818110620015b157620015b0620025c5565b5b9050602002013562001d34565b9050600081905060008173ffffffffffffffffffffffffffffffffffffffff166370a08231306040518263ffffffff1660e01b8152600401620016029190620021fa565b602060405180830381865afa15801562001620573d6000803e3d6000fd5b505050506040513d601f19601f8201168201806040525081019062001646919062002ee3565b905073bebc44782c7db0a1a60cb6fe97d0b483032ff1c773ffffffffffffffffffffffffffffffffffffffff16633df02124888860008181106200168f576200168e620025c5565b5b9050602002013589896001818110620016ad57620016ac620025c5565b5b905060200201358b60016040518563ffffffff1660e01b8152600401620016d8949392919062002fcd565b600060405180830381600087803b158015620016f357600080fd5b505af115801562001708573d6000803e3d6000fd5b5050505060008273ffffffffffffffffffffffffffffffffffffffff166370a08231306040518263ffffffff1660e01b8152600401620017499190620021fa565b602060405180830381865afa15801562001767573d6000803e3d6000fd5b505050506040513d601f19601f820116820180604052508101906200178d919062002ee3565b90508382826200179e919062002b93565b955095505050505094509492505050565b6000808573ffffffffffffffffffffffffffffffffffffffff1663095ea7b373f890982f9310df57d00f659cf4fd87e65aded8d7876040518363ffffffff1660e01b815260040162001803929190620021cd565b6020604051808303816000875af115801562001823573d6000803e3d6000fd5b505050506040513d601f19601f8201168201806040525081019062001849919062002e02565b5073f890982f9310df57d00f659cf4fd87e65aded8d773ffffffffffffffffffffffffffffffffffffffff16630f5287b0878787876000818110620018935762001892620025c5565b5b9050602002013588886001818110620018b157620018b0620025c5565b5b9050602002013560001b60008a8a6002818110620018d457620018d3620025c5565b5b905060200201356040518763ffffffff1660e01b8152600401620018fe969594939291906200308f565b6020604051808303816000875af11580156200191e573d6000803e3d6000fd5b505050506040513d601f19601f8201168201806040525081019062001944919062003141565b506000809150915094509492505050565b6000806200197973bebc44782c7db0a1a60cb6fe97d0b483032ff1c7878762001bdf565b600073bebc44782c7db0a1a60cb6fe97d0b483032ff1c7905060006040518060600160405280600081526020016000815260200160008152509050868187876000818110620019cd57620019cc620025c5565b5b9050602002013560038110620019e857620019e7620025c5565b5b6020020181815250506000736c3f90f043a72fa612cbac8115ee7e52bde6e49073ffffffffffffffffffffffffffffffffffffffff166370a08231306040518263ffffffff1660e01b815260040162001a429190620021fa565b602060405180830381865afa15801562001a60573d6000803e3d6000fd5b505050506040513d601f19601f8201168201806040525081019062001a86919062002ee3565b90508273ffffffffffffffffffffffffffffffffffffffff16634515cef38360016040518363ffffffff1660e01b815260040162001ac69291906200322e565b600060405180830381600087803b15801562001ae157600080fd5b505af115801562001af6573d6000803e3d6000fd5b505050506000736c3f90f043a72fa612cbac8115ee7e52bde6e49073ffffffffffffffffffffffffffffffffffffffff166370a08231306040518263ffffffff1660e01b815260040162001b4b9190620021fa565b602060405180830381865afa15801562001b69573d6000803e3d6000fd5b505050506040513d601f19601f8201168201806040525081019062001b8f919062002ee3565b9050736c3f90f043a72fa612cbac8115ee7e52bde6e490828262001bb4919062002b93565b955095505050505094509492505050565b606062001bd6848460008562001dc2565b90509392505050565b73dac17f958d2ee523a2206206994597c13d831ec773ffffffffffffffffffffffffffffffffffffffff168273ffffffffffffffffffffffffffffffffffffffff160362001ca45760008290508073ffffffffffffffffffffffffffffffffffffffff1663095ea7b385846040518363ffffffff1660e01b815260040162001c69929190620021cd565b600060405180830381600087803b15801562001c8457600080fd5b505af115801562001c99573d6000803e3d6000fd5b505050505062001d2f565b60008290508073ffffffffffffffffffffffffffffffffffffffff1663095ea7b385846040518363ffffffff1660e01b815260040162001ce6929190620021cd565b6020604051808303816000875af115801562001d06573d6000803e3d6000fd5b505050506040513d601f19601f8201168201806040525081019062001d2c919062002e02565b50505b505050565b6000808390508073ffffffffffffffffffffffffffffffffffffffff1663c6610657846040518263ffffffff1660e01b815260040162001d7591906200325b565b602060405180830381865afa15801562001d93573d6000803e3d6000fd5b505050506040513d601f19601f8201168201806040525081019062001db991906200245d565b91505092915050565b60608247101562001e0a576040517f08c379a000000000000000000000000000000000000000000000000000000000815260040162001e0190620032ee565b60405180910390fd5b62001e158562001ee4565b62001e57576040517f08c379a000000000000000000000000000000000000000000000000000000000815260040162001e4e9062003360565b60405180910390fd5b6000808673ffffffffffffffffffffffffffffffffffffffff16858760405162001e829190620033c4565b60006040518083038185875af1925050503d806000811462001ec1576040519150601f19603f3d011682016040523d82523d6000602084013e62001ec6565b606091505b509150915062001ed882828662001f07565b92505050949350505050565b6000808273ffffffffffffffffffffffffffffffffffffffff163b119050919050565b6060831562001f195782905062001f6c565b60008351111562001f2d5782518084602001fd5b816040517f08c379a000000000000000000000000000000000000000000000000000000000815260040162001f6391906200342f565b60405180910390fd5b9392505050565b6104cd806200348383390190565b604051806040016040528062001f9662001fb2565b8152602001600060ff1681525090565b62001fb062003453565b565b6040518061028001604052806014905b62001fcc62001fe3565b81526020019060019003908162001fc25790505090565b6040518060400160405280600073ffffffffffffffffffffffffffffffffffffffff168152602001600081525090565b600080fd5b600080fd5b600073ffffffffffffffffffffffffffffffffffffffff82169050919050565b60006200204a826200201d565b9050919050565b6200205c816200203d565b81146200206857600080fd5b50565b6000813590506200207c8162002051565b92915050565b6000819050919050565b620020978162002082565b8114620020a357600080fd5b50565b600081359050620020b7816200208c565b92915050565b600080fd5b600080fd5b600080fd5b60008083601f840112620020e557620020e4620020bd565b5b8235905067ffffffffffffffff811115620021055762002104620020c2565b5b602083019150836020820283011115620021245762002123620020c7565b5b9250929050565b6000806000806060858703121562002148576200214762002013565b5b600062002158878288016200206b565b94505060206200216b87828801620020a6565b935050604085013567ffffffffffffffff8111156200218f576200218e62002018565b5b6200219d87828801620020cc565b925092505092959194509250565b620021b6816200203d565b82525050565b620021c78162002082565b82525050565b6000604082019050620021e46000830185620021ab565b620021f36020830184620021bc565b9392505050565b6000602082019050620022116000830184620021ab565b92915050565b60006020828403121562002230576200222f62002013565b5b600062002240848285016200206b565b91505092915050565b600062002256826200201d565b9050919050565b620022688162002249565b82525050565b60006020820190506200228560008301846200225d565b92915050565b60008083601f840112620022a457620022a3620020bd565b5b8235905067ffffffffffffffff811115620022c457620022c3620020c2565b5b602083019150836020820283011115620022e357620022e2620020c7565b5b9250929050565b6000806020838503121562002304576200230362002013565b5b600083013567ffffffffffffffff81111562002325576200232462002018565b5b62002333858286016200228b565b92509250509250929050565b600081905092915050565b50565b60006200235c6000836200233f565b915062002369826200234a565b600082019050919050565b600062002381826200234d565b9150819050919050565b600082825260208201905092915050565b7f776974686472617720657468206661696c656400000000000000000000000000600082015250565b6000620023d46013836200238b565b9150620023e1826200239c565b602082019050919050565b600060208201905081810360008301526200240781620023c5565b9050919050565b6000819050919050565b62002423816200240e565b82525050565b600060208201905062002440600083018462002418565b92915050565b600081519050620024578162002051565b92915050565b60006020828403121562002476576200247562002013565b5b6000620024868482850162002446565b91505092915050565b7f757365722070726f787920616c72656164792065786973747300000000000000600082015250565b6000620024c76019836200238b565b9150620024d4826200248f565b602082019050919050565b60006020820190508181036000830152620024fa81620024b8565b9050919050565b60006040820190506200251860008301856200225d565b620025276020830184620021ab565b9392505050565b600060408201905062002545600083018562002418565b620025546020830184620021ab565b9392505050565b6000606082019050620025726000830186620021ab565b620025816020830185620021ab565b620025906040830184620021ab565b949350505050565b6000604082019050620025af6000830185620021ab565b620025be6020830184620021ab565b9392505050565b7f4e487b7100000000000000000000000000000000000000000000000000000000600052603260045260246000fd5b600080fd5b600080fd5b600080fd5b60008235600160a003833603038112620026225762002621620025f4565b5b80830191505092915050565b62002639816200201d565b81146200264557600080fd5b50565b60008135905062002659816200262e565b92915050565b60006020828403121562002678576200267762002013565b5b6000620026888482850162002648565b91505092915050565b60008115159050919050565b620026a88162002691565b8114620026b457600080fd5b50565b600081359050620026c8816200269d565b92915050565b600060208284031215620026e757620026e662002013565b5b6000620026f784828501620026b7565b91505092915050565b7f696e76616c696420776f726b666c6f772c2063616e6e6f74207370656369667960008201527f20612070657263656e746167652067726561746572207468616e203130300000602082015250565b60006200275e603e836200238b565b91506200276b8262002700565b604082019050919050565b6000602082019050818103600083015262002791816200274f565b9050919050565b7f696e76616c696420776f726b666c6f772c2063616e6e6f74207573652061207060008201527f657263656e74616765206f66206120746f6b656e20776974682061203020626160208201527f6c616e6365000000000000000000000000000000000000000000000000000000604082015250565b60006200281c6045836200238b565b9150620028298262002798565b606082019050919050565b600060208201905081810360008301526200284f816200280d565b9050919050565b7f4e487b7100000000000000000000000000000000000000000000000000000000600052601160045260246000fd5b6000620028928262002082565b91506200289f8362002082565b9250817fffffffffffffffffffffffffffffffffffffffffffffffffffffffffffffffff0483118215151615620028db57620028da62002856565b5b828202905092915050565b7f4e487b7100000000000000000000000000000000000000000000000000000000600052601260045260246000fd5b6000620029228262002082565b91506200292f8362002082565b925082620029425762002941620028e6565b5b828204905092915050565b600080833560016020038436030381126200296d576200296c620025f4565b5b80840192508235915067ffffffffffffffff821115620029925762002991620025f9565b5b602083019250602082023603831315620029b157620029b0620025fe565b5b509250929050565b600061ffff82169050919050565b620029d281620029b9565b8114620029de57600080fd5b50565b600081359050620029f281620029c7565b92915050565b60006020828403121562002a115762002a1062002013565b5b600062002a2184828501620029e1565b91505092915050565b600060ff82169050919050565b600062002a448262002a2a565b915060ff820362002a5a5762002a5962002856565b5b600182019050919050565b600081519050919050565b600081905092915050565b60005b8381101562002a9b57808201518184015260208101905062002a7e565b8381111562002aab576000848401525b50505050565b600062002abe8262002a65565b62002aca818562002a70565b935062002adc81856020860162002a7b565b80840191505092915050565b60008160601b9050919050565b600062002b028262002ae8565b9050919050565b600062002b168262002af5565b9050919050565b62002b3262002b2c826200203d565b62002b09565b82525050565b600062002b46828562002ab1565b915062002b54828462002b1d565b6014820191508190509392505050565b600062002b7182620029b9565b915061ffff820362002b885762002b8762002856565b5b600182019050919050565b600062002ba08262002082565b915062002bad8362002082565b92508282101562002bc35762002bc262002856565b5b828203905092915050565b600062002bdb8262002a2a565b915062002be88362002a2a565b92508282101562002bfe5762002bfd62002856565b5b828203905092915050565b600062002c168262002a2a565b91506000820362002c2c5762002c2b62002856565b5b600182039050919050565b600062002c448262002082565b91507fffffffffffffffffffffffffffffffffffffffffffffffffffffffffffffffff820362002c795762002c7862002856565b5b600182019050919050565b7f746f6b656e206e6f7420666f756e64207768696c65207375627472616374696e60008201527f6700000000000000000000000000000000000000000000000000000000000000602082015250565b600062002ce26021836200238b565b915062002cef8262002c84565b604082019050919050565b6000602082019050818103600083015262002d158162002cd3565b9050919050565b600062002d298262002082565b915062002d368362002082565b9250827fffffffffffffffffffffffffffffffffffffffffffffffffffffffffffffffff0382111562002d6e5762002d6d62002856565b5b828201905092915050565b7f746f6f206d616e7920746f6b656e2062616c616e636573000000000000000000600082015250565b600062002db16017836200238b565b915062002dbe8262002d79565b602082019050919050565b6000602082019050818103600083015262002de48162002da2565b9050919050565b60008151905062002dfc816200269d565b92915050565b60006020828403121562002e1b5762002e1a62002013565b5b600062002e2b8482850162002deb565b91505092915050565b7f5361666545524332303a204552433230206f7065726174696f6e20646964206e60008201527f6f74207375636365656400000000000000000000000000000000000000000000602082015250565b600062002e92602a836200238b565b915062002e9f8262002e34565b604082019050919050565b6000602082019050818103600083015262002ec58162002e83565b9050919050565b60008151905062002edd816200208c565b92915050565b60006020828403121562002efc5762002efb62002013565b5b600062002f0c8482850162002ecc565b91505092915050565b6000819050919050565b6000819050919050565b600062002f4a62002f4462002f3e8462002f15565b62002f1f565b62002082565b9050919050565b62002f5c8162002f29565b82525050565b600060808201905062002f796000830187620021bc565b62002f886020830186620021bc565b62002f976040830185620021bc565b62002fa6606083018462002f51565b95945050505050565b600081600f0b9050919050565b62002fc78162002faf565b82525050565b600060808201905062002fe4600083018762002fbc565b62002ff3602083018662002fbc565b620030026040830185620021bc565b62003011606083018462002f51565b95945050505050565b6200302581620029b9565b82525050565b6000819050919050565b600062003056620030506200304a846200302b565b62002f1f565b62002082565b9050919050565b620030688162003035565b82525050565b600063ffffffff82169050919050565b62003089816200306e565b82525050565b600060c082019050620030a66000830189620021ab565b620030b56020830188620021bc565b620030c460408301876200301a565b620030d3606083018662002418565b620030e260808301856200305d565b620030f160a08301846200307e565b979650505050505050565b600067ffffffffffffffff82169050919050565b6200311b81620030fc565b81146200312757600080fd5b50565b6000815190506200313b8162003110565b92915050565b6000602082840312156200315a576200315962002013565b5b60006200316a848285016200312a565b91505092915050565b600060039050919050565b600081905092915050565b6000819050919050565b6200319e8162002082565b82525050565b6000620031b2838362003193565b60208301905092915050565b6000602082019050919050565b620031d68162003173565b620031e281846200317e565b9250620031ef8262003189565b8060005b83811015620032265781516200320a8782620031a4565b96506200321783620031be565b925050600181019050620031f3565b505050505050565b6000608082019050620032456000830185620031cb565b62003254606083018462002f51565b9392505050565b6000602082019050620032726000830184620021bc565b92915050565b7f416464726573733a20696e73756666696369656e742062616c616e636520666f60008201527f722063616c6c0000000000000000000000000000000000000000000000000000602082015250565b6000620032d66026836200238b565b9150620032e38262003278565b604082019050919050565b600060208201905081810360008301526200330981620032c7565b9050919050565b7f416464726573733a2063616c6c20746f206e6f6e2d636f6e7472616374000000600082015250565b600062003348601d836200238b565b9150620033558262003310565b602082019050919050565b600060208201905081810360008301526200337b8162003339565b9050919050565b600081519050919050565b60006200339a8262003382565b620033a681856200233f565b9350620033b881856020860162002a7b565b80840191505092915050565b6000620033d282846200338d565b915081905092915050565b6000601f19601f8301169050919050565b6000620033fb8262002a65565b6200340781856200238b565b93506200341981856020860162002a7b565b6200342481620033dd565b840191505092915050565b600060208201905081810360008301526200344b8184620033ee565b905092915050565b7f4e487b7100000000000000000000000000000000000000000000000000000000600052605160045260246000fdfe608060405234801561001057600080fd5b506040516104cd3803806104cd8339818101604052810190610032919061015b565b80600160006101000a81548173ffffffffffffffffffffffffffffffffffffffff021916908373ffffffffffffffffffffffffffffffffffffffff160217905550816000806101000a81548173ffffffffffffffffffffffffffffffffffffffff021916908373ffffffffffffffffffffffffffffffffffffffff160217905550505061019b565b600080fd5b600073ffffffffffffffffffffffffffffffffffffffff82169050919050565b60006100ea826100bf565b9050919050565b6100fa816100df565b811461010557600080fd5b50565b600081519050610117816100f1565b92915050565b6000610128826100bf565b9050919050565b6101388161011d565b811461014357600080fd5b50565b6000815190506101558161012f565b92915050565b60008060408385031215610172576101716100ba565b5b600061018085828601610108565b925050602061019185828601610146565b9150509250929050565b610323806101aa6000396000f3fe60806040526004361061002d5760003560e01c80636a99a523146101315780638da5cb5b1461015c57610034565b3661003457005b3373ffffffffffffffffffffffffffffffffffffffff1660008054906101000a900473ffffffffffffffffffffffffffffffffffffffff1673ffffffffffffffffffffffffffffffffffffffff161461008c57600080fd5b6000600160009054906101000a900473ffffffffffffffffffffffffffffffffffffffff16905060008173ffffffffffffffffffffffffffffffffffffffff166356dececb6040518163ffffffff1660e01b8152600401602060405180830381865afa158015610100573d6000803e3d6000fd5b505050506040513d601f19601f82011682018060405250810190610124919061025a565b905061012f81610187565b005b34801561013d57600080fd5b506101466101ad565b6040516101539190610296565b60405180910390f35b34801561016857600080fd5b506101716101d3565b60405161017e91906102d2565b60405180910390f35b3660008037600080366000845af43d6000803e80600081146101a8573d6000f35b3d6000fd5b600160009054906101000a900473ffffffffffffffffffffffffffffffffffffffff1681565b60008054906101000a900473ffffffffffffffffffffffffffffffffffffffff1681565b600080fd5b600073ffffffffffffffffffffffffffffffffffffffff82169050919050565b6000610227826101fc565b9050919050565b6102378161021c565b811461024257600080fd5b50565b6000815190506102548161022e565b92915050565b6000602082840312156102705761026f6101f7565b5b600061027e84828501610245565b91505092915050565b6102908161021c565b82525050565b60006020820190506102ab6000830184610287565b92915050565b60006102bc826101fc565b9050919050565b6102cc816102b1565b82525050565b60006020820190506102e760008301846102c3565b9291505056fea2646970667358221220b50b0cd857d7618d7087e062d5f342406f7e583f37e1bb01747296eb2684ba9d64736f6c634300080d0033a264697066735822122093d07f8f1c497cfcfcfb0d8c11ed4555ea64d7f62b50f3fbfb096f75a62031de64736f6c634300080d00336080604052336000806101000a81548173ffffffffffffffffffffffffffffffffffffffff021916908373ffffffffffffffffffffffffffffffffffffffff16021790555034801561005057600080fd5b506114a2806100606000396000f3fe608060405234801561001057600080fd5b50600436106101165760003560e01c8063986e791a116100a2578063ca446dd911610071578063ca446dd9146102eb578063dc97d96214610307578063e2a4853a14610337578063e2b202bf14610353578063f6bb3cc41461036f57610116565b8063986e791a1461023f578063abfdcced1461026f578063bd02d0f51461028b578063c031a180146102bb57610116565b80633e49bed0116100e95780633e49bed01461019f578063616b59f6146101bb5780636e899550146101d75780637ae1cfca146101f35780638c1600951461022357610116565b80630e14a3761461011b57806321f8a721146101375780632c62ff2d146101675780632e28d08414610183575b600080fd5b61013560048036038101906101309190610d75565b61038b565b005b610151600480360381019061014c9190610d75565b61041c565b60405161015e9190610de3565b60405180910390f35b610181600480360381019061017c9190610d75565b610459565b005b61019d60048036038101906101989190610f44565b6104d7565b005b6101b960048036038101906101b49190610fd6565b61055b565b005b6101d560048036038101906101d09190610d75565b6105cf565b005b6101f160048036038101906101ec91906110b7565b610649565b005b61020d60048036038101906102089190610d75565b6106cd565b60405161021a919061112e565b60405180910390f35b61023d60048036038101906102389190610d75565b6106f7565b005b61025960048036038101906102549190610d75565b610769565b60405161026691906111d1565b60405180910390f35b6102896004803603810190610284919061121f565b61080e565b005b6102a560048036038101906102a09190610d75565b610895565b6040516102b29190611278565b60405180910390f35b6102d560048036038101906102d09190610d75565b6108b2565b6040516102e291906112e8565b60405180910390f35b61030560048036038101906103009190611336565b610957565b005b610321600480360381019061031c9190610d75565b610a05565b60405161032e9190611385565b60405180910390f35b610351600480360381019061034c91906113cc565b610a22565b005b61036d60048036038101906103689190610d75565b610a96565b005b61038960048036038101906103849190610d75565b610b08565b005b60008054906101000a900473ffffffffffffffffffffffffffffffffffffffff1673ffffffffffffffffffffffffffffffffffffffff163373ffffffffffffffffffffffffffffffffffffffff16146103e357600080fd5b6003600082815260200190815260200160002060006101000a81549073ffffffffffffffffffffffffffffffffffffffff021916905550565b60006003600083815260200190815260200160002060009054906101000a900473ffffffffffffffffffffffffffffffffffffffff169050919050565b60008054906101000a900473ffffffffffffffffffffffffffffffffffffffff1673ffffffffffffffffffffffffffffffffffffffff163373ffffffffffffffffffffffffffffffffffffffff16146104b157600080fd5b6005600082815260200190815260200160002060006101000a81549060ff021916905550565b60008054906101000a900473ffffffffffffffffffffffffffffffffffffffff1673ffffffffffffffffffffffffffffffffffffffff163373ffffffffffffffffffffffffffffffffffffffff161461052f57600080fd5b80600460008481526020019081526020016000209080519060200190610556929190610b82565b505050565b60008054906101000a900473ffffffffffffffffffffffffffffffffffffffff1673ffffffffffffffffffffffffffffffffffffffff163373ffffffffffffffffffffffffffffffffffffffff16146105b357600080fd5b8060066000848152602001908152602001600020819055505050565b60008054906101000a900473ffffffffffffffffffffffffffffffffffffffff1673ffffffffffffffffffffffffffffffffffffffff163373ffffffffffffffffffffffffffffffffffffffff161461062757600080fd5b6004600082815260200190815260200160002060006106469190610c08565b50565b60008054906101000a900473ffffffffffffffffffffffffffffffffffffffff1673ffffffffffffffffffffffffffffffffffffffff163373ffffffffffffffffffffffffffffffffffffffff16146106a157600080fd5b806002600084815260200190815260200160002090805190602001906106c8929190610c48565b505050565b60006005600083815260200190815260200160002060009054906101000a900460ff169050919050565b60008054906101000a900473ffffffffffffffffffffffffffffffffffffffff1673ffffffffffffffffffffffffffffffffffffffff163373ffffffffffffffffffffffffffffffffffffffff161461074f57600080fd5b600660008281526020019081526020016000206000905550565b60606002600083815260200190815260200160002080546107899061143b565b80601f01602080910402602001604051908101604052809291908181526020018280546107b59061143b565b80156108025780601f106107d757610100808354040283529160200191610802565b820191906000526020600020905b8154815290600101906020018083116107e557829003601f168201915b50505050509050919050565b60008054906101000a900473ffffffffffffffffffffffffffffffffffffffff1673ffffffffffffffffffffffffffffffffffffffff163373ffffffffffffffffffffffffffffffffffffffff161461086657600080fd5b806005600084815260200190815260200160002060006101000a81548160ff0219169083151502179055505050565b600060016000838152602001908152602001600020549050919050565b60606004600083815260200190815260200160002080546108d29061143b565b80601f01602080910402602001604051908101604052809291908181526020018280546108fe9061143b565b801561094b5780601f106109205761010080835404028352916020019161094b565b820191906000526020600020905b81548152906001019060200180831161092e57829003601f168201915b50505050509050919050565b60008054906101000a900473ffffffffffffffffffffffffffffffffffffffff1673ffffffffffffffffffffffffffffffffffffffff163373ffffffffffffffffffffffffffffffffffffffff16146109af57600080fd5b806003600084815260200190815260200160002060006101000a81548173ffffffffffffffffffffffffffffffffffffffff021916908373ffffffffffffffffffffffffffffffffffffffff1602179055505050565b600060066000838152602001908152602001600020549050919050565b60008054906101000a900473ffffffffffffffffffffffffffffffffffffffff1673ffffffffffffffffffffffffffffffffffffffff163373ffffffffffffffffffffffffffffffffffffffff1614610a7a57600080fd5b8060016000848152602001908152602001600020819055505050565b60008054906101000a900473ffffffffffffffffffffffffffffffffffffffff1673ffffffffffffffffffffffffffffffffffffffff163373ffffffffffffffffffffffffffffffffffffffff1614610aee57600080fd5b600160008281526020019081526020016000206000905550565b60008054906101000a900473ffffffffffffffffffffffffffffffffffffffff1673ffffffffffffffffffffffffffffffffffffffff163373ffffffffffffffffffffffffffffffffffffffff1614610b6057600080fd5b600260008281526020019081526020016000206000610b7f9190610cce565b50565b828054610b8e9061143b565b90600052602060002090601f016020900481019282610bb05760008555610bf7565b82601f10610bc957805160ff1916838001178555610bf7565b82800160010185558215610bf7579182015b82811115610bf6578251825591602001919060010190610bdb565b5b509050610c049190610d0e565b5090565b508054610c149061143b565b6000825580601f10610c265750610c45565b601f016020900490600052602060002090810190610c449190610d0e565b5b50565b828054610c549061143b565b90600052602060002090601f016020900481019282610c765760008555610cbd565b82601f10610c8f57805160ff1916838001178555610cbd565b82800160010185558215610cbd579182015b82811115610cbc578251825591602001919060010190610ca1565b5b509050610cca9190610d0e565b5090565b508054610cda9061143b565b6000825580601f10610cec5750610d0b565b601f016020900490600052602060002090810190610d0a9190610d0e565b5b50565b5b80821115610d27576000816000905550600101610d0f565b5090565b6000604051905090565b600080fd5b600080fd5b6000819050919050565b610d5281610d3f565b8114610d5d57600080fd5b50565b600081359050610d6f81610d49565b92915050565b600060208284031215610d8b57610d8a610d35565b5b6000610d9984828501610d60565b91505092915050565b600073ffffffffffffffffffffffffffffffffffffffff82169050919050565b6000610dcd82610da2565b9050919050565b610ddd81610dc2565b82525050565b6000602082019050610df86000830184610dd4565b92915050565b600080fd5b600080fd5b6000601f19601f8301169050919050565b7f4e487b7100000000000000000000000000000000000000000000000000000000600052604160045260246000fd5b610e5182610e08565b810181811067ffffffffffffffff82111715610e7057610e6f610e19565b5b80604052505050565b6000610e83610d2b565b9050610e8f8282610e48565b919050565b600067ffffffffffffffff821115610eaf57610eae610e19565b5b610eb882610e08565b9050602081019050919050565b82818337600083830152505050565b6000610ee7610ee284610e94565b610e79565b905082815260208101848484011115610f0357610f02610e03565b5b610f0e848285610ec5565b509392505050565b600082601f830112610f2b57610f2a610dfe565b5b8135610f3b848260208601610ed4565b91505092915050565b60008060408385031215610f5b57610f5a610d35565b5b6000610f6985828601610d60565b925050602083013567ffffffffffffffff811115610f8a57610f89610d3a565b5b610f9685828601610f16565b9150509250929050565b6000819050919050565b610fb381610fa0565b8114610fbe57600080fd5b50565b600081359050610fd081610faa565b92915050565b60008060408385031215610fed57610fec610d35565b5b6000610ffb85828601610d60565b925050602061100c85828601610fc1565b9150509250929050565b600067ffffffffffffffff82111561103157611030610e19565b5b61103a82610e08565b9050602081019050919050565b600061105a61105584611016565b610e79565b90508281526020810184848401111561107657611075610e03565b5b611081848285610ec5565b509392505050565b600082601f83011261109e5761109d610dfe565b5b81356110ae848260208601611047565b91505092915050565b600080604083850312156110ce576110cd610d35565b5b60006110dc85828601610d60565b925050602083013567ffffffffffffffff8111156110fd576110fc610d3a565b5b61110985828601611089565b9150509250929050565b60008115159050919050565b61112881611113565b82525050565b6000602082019050611143600083018461111f565b92915050565b600081519050919050565b600082825260208201905092915050565b60005b83811015611183578082015181840152602081019050611168565b83811115611192576000848401525b50505050565b60006111a382611149565b6111ad8185611154565b93506111bd818560208601611165565b6111c681610e08565b840191505092915050565b600060208201905081810360008301526111eb8184611198565b905092915050565b6111fc81611113565b811461120757600080fd5b50565b600081359050611219816111f3565b92915050565b6000806040838503121561123657611235610d35565b5b600061124485828601610d60565b92505060206112558582860161120a565b9150509250929050565b6000819050919050565b6112728161125f565b82525050565b600060208201905061128d6000830184611269565b92915050565b600081519050919050565b600082825260208201905092915050565b60006112ba82611293565b6112c4818561129e565b93506112d4818560208601611165565b6112dd81610e08565b840191505092915050565b6000602082019050818103600083015261130281846112af565b905092915050565b61131381610dc2565b811461131e57600080fd5b50565b6000813590506113308161130a565b92915050565b6000806040838503121561134d5761134c610d35565b5b600061135b85828601610d60565b925050602061136c85828601611321565b9150509250929050565b61137f81610fa0565b82525050565b600060208201905061139a6000830184611376565b92915050565b6113a98161125f565b81146113b457600080fd5b50565b6000813590506113c6816113a0565b92915050565b600080604083850312156113e3576113e2610d35565b5b60006113f185828601610d60565b9250506020611402858286016113b7565b9150509250929050565b7f4e487b7100000000000000000000000000000000000000000000000000000000600052602260045260246000fd5b6000600282049050600182168061145357607f821691505b6020821081036114665761146561140c565b5b5091905056fea26469706673582212201e261a6427da1503e68d50ec348e61f3eba18b6ea202e68cf24237ee7c145fcc64736f6c634300080d0033",
  "immutableReferences": {},
  "source": "// SPDX-License-Identifier: MIT\npragma solidity >=0.4.22 <0.9.0;\n\nimport '@openzeppelin/contracts/token/ERC20/IERC20.sol';\n// import '@openzeppelin/contracts/token/ERC20/ERC20.sol';\nimport '@openzeppelin/contracts/token/ERC20/utils/SafeERC20.sol';\n\nimport './thirdParty/Weth.sol';\n\nimport './FrontDoor.sol';\nimport './IWorkflowRunner.sol';\nimport './WorkflowStep.sol';\nimport './IUserProxyManager.sol';\nimport './UserProxy.sol';\nimport './TokenAmounts.sol';\n\nimport './integrations/Curve.sol';\nimport './integrations/Wormhole.sol';\n\n/// @dev inheriting from FrontDoor so storage slots align\ncontract WorkflowRunner is FrontDoor, IWorkflowRunner, IUserProxyManager {\n  address constant wethAddress = address(0xC02aaA39b223FE8D0A0e5C4F27eAD9083C756Cc2);\n  address constant wbtcAddress = address(0x2260FAC5E5542a773Aa44fBCfeDf7C193bc2C599);\n  address constant usdtAddress = address(0xdAC17F958D2ee523a2206206994597C13D831ec7);\n  address constant usdcAddress = address(0xA0b86991c6218b36c1d19D4a2e9Eb0cE3606eB48);\n  address constant daiAddress = address(0x6B175474E89094C44Da98b954EedeAC495271d0F);\n\n  Weth constant weth = Weth(wethAddress);\n\n  // IERC20 constant usdt = IERC20(usdtAddress);\n\n  function createUserProxy() external {\n    address a = eternalStorageAddress;\n    EternalStorage es = EternalStorage(a);\n    // bytes32 key = keccak256(abi.encodePacked('userProxies', msg.sender));\n    bytes32 key = getAddressKey('userProxies', msg.sender);\n    address currentAddress = es.getAddress(key);\n    require(currentAddress == address(0x0000000000000000), 'user proxy already exists');\n    UserProxy newUserProxy = new UserProxy(payable(msg.sender), frontDoorAddress);\n    address userProxyAddress = address(newUserProxy);\n    es.setAddress(key, userProxyAddress);\n  }\n\n  function getAddressKey(string memory category, address addr) internal pure returns (bytes32) {\n    return keccak256(abi.encodePacked(category, addr));\n  }\n\n  function getUserProxy() external view returns (address) {\n    EternalStorage eternalStorage = EternalStorage(eternalStorageAddress);\n    bytes32 key = getAddressKey('userProxies', msg.sender);\n    return eternalStorage.getAddress(key);\n  }\n\n  function executeWorkflow(WorkflowStep[] calldata steps) external payable {\n    TokenAmounts.EntrySet memory tokenBalances;\n    for (uint8 stepIndex = 0; stepIndex < steps.length; ++stepIndex) {\n      WorkflowStep calldata step = steps[stepIndex];\n      address fromToken = address(step.fromToken);\n      uint256 amount = step.amount;\n      // percent means relative to balances created by previous steps, not percent of the caller's total balance of that token\n      if (step.amountIsPercent) {\n        require(step.amount <= 100, 'invalid workflow, cannot specify a percentage greater than 100');\n        uint256 amountFromPreviousSteps = TokenAmounts.get(tokenBalances, fromToken);\n        require(amountFromPreviousSteps != 0, 'invalid workflow, cannot use a percentage of a token with a 0 balance');\n        amount = (amountFromPreviousSteps * amount) / 100;\n      }\n      (address toToken, uint256 outcomeAmount) = getStepFunc(step.stepId)(fromToken, amount, step.args);\n      if (step.amountIsPercent) {\n        TokenAmounts.subtract(tokenBalances, fromToken, amount);\n      }\n      TokenAmounts.add(tokenBalances, toToken, outcomeAmount);\n    }\n  }\n\n  // function executeWorkflow(uint256[] calldata args) external payable {\n  //   // the first arg is the starting amount\n  //   uint256 nextAmount = args[0];\n  //   uint16 argsIndex = 1;\n  //   while (argsIndex < args.length) {\n  //     (uint256 argsConsumed, uint256 outcomeAmount) = getStepFunc(args[argsIndex])(nextAmount, args[argsIndex + 1:]);\n  //     argsIndex += 1 + uint16(argsConsumed);\n  //     nextAmount = outcomeAmount;\n  //   }\n  // }\n\n  function ethToWeth(\n    address,\n    uint256 amount,\n    uint256[] calldata\n  ) public payable returns (address, uint256) {\n    weth.deposit{value: amount}();\n    return (wethAddress, amount);\n  }\n\n  function withdrawal(\n    address tokenAddress,\n    uint256 amount,\n    uint256[] calldata\n  ) public payable returns (address, uint256) {\n    address payable user = owner;\n    if (tokenAddress == address(0x0)) {\n      (bool success, ) = user.call{value: amount}('');\n      require(success, 'withdraw eth failed');\n    } else {\n      IERC20 token = IERC20(tokenAddress);\n      SafeERC20.safeTransfer(token, user, amount);\n    }\n    // this has to be a terminal step, so returning 0 for amount\n    return (address(0), 0);\n  }\n\n  function getStepFunc(uint256 index)\n    private\n    pure\n    returns (function(address, uint256, uint256[] calldata) internal returns (address, uint256))\n  {\n    if (index < 4) {\n      // 0..3\n      if (index < 2) {\n        if (index == 0) {\n          return ethToWeth;\n        } else {\n          return Curve.curveTriCryptoPoolSwap;\n        }\n      } else {\n        if (index == 2) {\n          return Curve.curve3PoolSwap;\n        } else {\n          return Wormhole.wormholeTransferTokens;\n        }\n      }\n    } else {\n      // 4..7\n      if (index < 6) {\n        if (index == 4) {\n          return withdrawal;\n        } else {\n          return Curve.curve3PoolAddLiquidity;\n        }\n      } else {\n        if (index == 6) {\n          // TODO return something\n          return withdrawal;\n        } else {\n          // TODO return something\n          return withdrawal;\n        }\n      }\n    }\n  }\n}\n",
  "sourcePath": "C:\\Users\\creeper\\fmp\\platform\\evm\\contracts\\WorkflowRunner.sol",
  "compiler": {
    "name": "solc",
    "version": "0.8.13+commit.abaa5c0e.Emscripten.clang"
  },
  "schemaVersion": "3.4.7",
  "updatedAt": "2022-06-28T12:39:11.694Z",
  "devdoc": {
    "details": "inheriting from FrontDoor so storage slots align",
    "kind": "dev",
    "methods": {},
    "version": 1
  },
  "userdoc": {
    "kind": "user",
    "methods": {},
    "version": 1
  }
}