{
  "contractName": "WorkflowRunner",
  "abi": [
    {
      "anonymous": false,
      "inputs": [
        {
          "indexed": false,
          "internalType": "address",
          "name": "sender",
          "type": "address"
        },
        {
          "indexed": false,
          "internalType": "address",
          "name": "newOwner",
          "type": "address"
        }
      ],
      "name": "LogNewOwner",
      "type": "event"
    },
    {
      "anonymous": false,
      "inputs": [
        {
          "indexed": false,
          "internalType": "address",
          "name": "sender",
          "type": "address"
        },
        {
          "indexed": false,
          "internalType": "address",
          "name": "oldUpstream",
          "type": "address"
        },
        {
          "indexed": false,
          "internalType": "address",
          "name": "newUpstream",
          "type": "address"
        }
      ],
      "name": "LogNewUpstream",
      "type": "event"
    },
    {
      "stateMutability": "payable",
      "type": "fallback",
      "payable": true
    },
    {
      "inputs": [
        {
          "internalType": "address",
          "name": "newOwner",
          "type": "address"
        }
      ],
      "name": "changeOwner",
      "outputs": [],
      "stateMutability": "nonpayable",
      "type": "function"
    },
    {
      "inputs": [],
      "name": "eternalStorageAddress",
      "outputs": [
        {
          "internalType": "address",
          "name": "",
          "type": "address"
        }
      ],
      "stateMutability": "view",
      "type": "function",
      "constant": true
    },
    {
      "inputs": [],
      "name": "frontDoorAddress",
      "outputs": [
        {
          "internalType": "address",
          "name": "",
          "type": "address"
        }
      ],
      "stateMutability": "view",
      "type": "function",
      "constant": true
    },
    {
      "inputs": [],
      "name": "getUpstream",
      "outputs": [
        {
          "internalType": "address",
          "name": "",
          "type": "address"
        }
      ],
      "stateMutability": "view",
      "type": "function",
      "constant": true
    },
    {
      "inputs": [],
      "name": "owner",
      "outputs": [
        {
          "internalType": "address payable",
          "name": "",
          "type": "address"
        }
      ],
      "stateMutability": "view",
      "type": "function",
      "constant": true
    },
    {
      "inputs": [
        {
          "internalType": "address",
          "name": "newUpstream",
          "type": "address"
        }
      ],
      "name": "setUpstream",
      "outputs": [],
      "stateMutability": "nonpayable",
      "type": "function"
    },
    {
      "inputs": [],
      "name": "upstream",
      "outputs": [
        {
          "internalType": "address",
          "name": "",
          "type": "address"
        }
      ],
      "stateMutability": "view",
      "type": "function",
      "constant": true
    },
    {
      "stateMutability": "payable",
      "type": "receive",
      "payable": true
    },
    {
      "inputs": [],
      "name": "createUserProxy",
      "outputs": [],
      "stateMutability": "nonpayable",
      "type": "function"
    },
    {
      "inputs": [],
      "name": "getUserProxy",
      "outputs": [
        {
          "internalType": "address",
          "name": "",
          "type": "address"
        }
      ],
      "stateMutability": "view",
      "type": "function",
      "constant": true
    },
    {
      "inputs": [
        {
          "components": [
            {
              "internalType": "uint16",
              "name": "stepId",
              "type": "uint16"
            },
            {
              "internalType": "uint160",
              "name": "fromToken",
              "type": "uint160"
            },
            {
              "internalType": "uint256",
              "name": "amount",
              "type": "uint256"
            },
            {
              "internalType": "bool",
              "name": "amountIsPercent",
              "type": "bool"
            },
            {
              "internalType": "uint256[]",
              "name": "args",
              "type": "uint256[]"
            }
          ],
          "internalType": "struct WorkflowStep[]",
          "name": "steps",
          "type": "tuple[]"
        }
      ],
      "name": "executeWorkflow",
      "outputs": [],
      "stateMutability": "payable",
      "type": "function",
      "payable": true
    },
    {
      "inputs": [
        {
          "internalType": "address",
          "name": "",
          "type": "address"
        },
        {
          "internalType": "uint256",
          "name": "amount",
          "type": "uint256"
        },
        {
          "internalType": "uint256[]",
          "name": "",
          "type": "uint256[]"
        }
      ],
      "name": "ethToWeth",
      "outputs": [
        {
          "internalType": "address",
          "name": "",
          "type": "address"
        },
        {
          "internalType": "uint256",
          "name": "",
          "type": "uint256"
        }
      ],
      "stateMutability": "payable",
      "type": "function",
      "payable": true
    },
    {
      "inputs": [
        {
          "internalType": "address",
          "name": "tokenAddress",
          "type": "address"
        },
        {
          "internalType": "uint256",
          "name": "amount",
          "type": "uint256"
        },
        {
          "internalType": "uint256[]",
          "name": "",
          "type": "uint256[]"
        }
      ],
      "name": "withdrawal",
      "outputs": [
        {
          "internalType": "address",
          "name": "",
          "type": "address"
        },
        {
          "internalType": "uint256",
          "name": "",
          "type": "uint256"
        }
      ],
      "stateMutability": "payable",
      "type": "function",
      "payable": true
    }
  ],
  "bytecode": "0x60806040523480156200001157600080fd5b5033600080600160006101000a81548173ffffffffffffffffffffffffffffffffffffffff021916908373ffffffffffffffffffffffffffffffffffffffff160217905550816000806101000a81548173ffffffffffffffffffffffffffffffffffffffff021916908373ffffffffffffffffffffffffffffffffffffffff1602179055505050604051620000a6906200014b565b604051809103906000f080158015620000c3573d6000803e3d6000fd5b50600260006101000a81548173ffffffffffffffffffffffffffffffffffffffff021916908373ffffffffffffffffffffffffffffffffffffffff16021790555030600360006101000a81548173ffffffffffffffffffffffffffffffffffffffff021916908373ffffffffffffffffffffffffffffffffffffffff16021790555062000159565b6115028062003bc783390190565b613a5e80620001696000396000f3fe608060405260043610620000bb5760003560e01c80636a99a523116200006d5780636a99a523146200020a578063742ec666146200023a57806389f4fd5714620002685780638da5cb5b1462000298578063a6f9dae114620002c8578063e0f25bc514620002f657620000c3565b80632313c41114620000f2578063384782fe146200012957806350fd910e146200015957806352f65b26146200018957806356dececb14620001c0578063674af9d614620001f057620000c3565b36620000c357005b620000f0600160009054906101000a900473ffffffffffffffffffffffffffffffffffffffff1662000316565b005b6200011060048036038101906200010a91906200216c565b6200033d565b604051620001209291906200220e565b60405180910390f35b3480156200013657600080fd5b5062000141620003da565b6040516200015091906200223b565b60405180910390f35b3480156200016657600080fd5b506200017162000400565b6040516200018091906200223b565b60405180910390f35b620001a76004803603810190620001a191906200216c565b62000426565b604051620001b79291906200220e565b60405180910390f35b348015620001cd57600080fd5b50620001d862000563565b604051620001e791906200223b565b60405180910390f35b348015620001fd57600080fd5b50620002086200058d565b005b3480156200021757600080fd5b5062000222620007d2565b6040516200023191906200223b565b60405180910390f35b3480156200024757600080fd5b5062000266600480360381019062000260919062002258565b620007f8565b005b3480156200027557600080fd5b5062000280620008a1565b6040516200028f91906200223b565b60405180910390f35b348015620002a557600080fd5b50620002b062000994565b604051620002bf9190620022af565b60405180910390f35b348015620002d557600080fd5b50620002f46004803603810190620002ee919062002258565b620009b8565b005b6200031460048036038101906200030e91906200232b565b62000a89565b005b3660008037600080366000845af43d6000803e806000811462000338573d6000f35b3d6000fd5b60008073b4fbf271143f4fbf7b91a5ded31805e42b2208d673ffffffffffffffffffffffffffffffffffffffff1663d0e30db0866040518263ffffffff1660e01b81526004016000604051808303818588803b1580156200039d57600080fd5b505af1158015620003b2573d6000803e3d6000fd5b505050505073b4fbf271143f4fbf7b91a5ded31805e42b2208d6859150915094509492505050565b600260009054906101000a900473ffffffffffffffffffffffffffffffffffffffff1681565b600360009054906101000a900473ffffffffffffffffffffffffffffffffffffffff1681565b60008060008060009054906101000a900473ffffffffffffffffffffffffffffffffffffffff169050600073ffffffffffffffffffffffffffffffffffffffff168773ffffffffffffffffffffffffffffffffffffffff16036200053e5760008173ffffffffffffffffffffffffffffffffffffffff1687604051620004ac90620023b5565b60006040518083038185875af1925050503d8060008114620004eb576040519150601f19603f3d011682016040523d82523d6000602084013e620004f0565b606091505b505090508062000537576040517f08c379a00000000000000000000000000000000000000000000000000000000081526004016200052e906200242d565b60405180910390fd5b5062000552565b60008790506200055081838962000c74565b505b600080925092505094509492505050565b6000600160009054906101000a900473ffffffffffffffffffffffffffffffffffffffff16905090565b6000600260009054906101000a900473ffffffffffffffffffffffffffffffffffffffff16905060008190506000620005fc6040518060400160405280600b81526020017f7573657250726f786965730000000000000000000000000000000000000000008152503362000cfe565b905060008273ffffffffffffffffffffffffffffffffffffffff166321f8a721836040518263ffffffff1660e01b81526004016200063b91906200246a565b602060405180830381865afa15801562000659573d6000803e3d6000fd5b505050506040513d601f19601f820116820180604052508101906200067f91906200249e565b9050600073ffffffffffffffffffffffffffffffffffffffff168173ffffffffffffffffffffffffffffffffffffffff1614620006f3576040517f08c379a0000000000000000000000000000000000000000000000000000000008152600401620006ea9062002520565b60405180910390fd5b600033600360009054906101000a900473ffffffffffffffffffffffffffffffffffffffff16604051620007279062001fb4565b6200073492919062002542565b604051809103906000f08015801562000751573d6000803e3d6000fd5b50905060008190508473ffffffffffffffffffffffffffffffffffffffff1663ca446dd985836040518363ffffffff1660e01b8152600401620007969291906200256f565b600060405180830381600087803b158015620007b157600080fd5b505af1158015620007c6573d6000803e3d6000fd5b50505050505050505050565b600160009054906101000a900473ffffffffffffffffffffffffffffffffffffffff1681565b6000600160009054906101000a900473ffffffffffffffffffffffffffffffffffffffff16905081600160006101000a81548173ffffffffffffffffffffffffffffffffffffffff021916908373ffffffffffffffffffffffffffffffffffffffff1602179055507fb3d51b4e19bdb93dfcf43f1951a29eb5eb26e251c1af1550ed9a7b13f8022da733828460405162000895939291906200259c565b60405180910390a15050565b600080600260009054906101000a900473ffffffffffffffffffffffffffffffffffffffff16905060006200090c6040518060400160405280600b81526020017f7573657250726f786965730000000000000000000000000000000000000000008152503362000cfe565b90508173ffffffffffffffffffffffffffffffffffffffff166321f8a721826040518263ffffffff1660e01b81526004016200094991906200246a565b602060405180830381865afa15801562000967573d6000803e3d6000fd5b505050506040513d601f19601f820116820180604052508101906200098d91906200249e565b9250505090565b60008054906101000a900473ffffffffffffffffffffffffffffffffffffffff1681565b60008054906101000a900473ffffffffffffffffffffffffffffffffffffffff1673ffffffffffffffffffffffffffffffffffffffff163373ffffffffffffffffffffffffffffffffffffffff161462000a1157600080fd5b600073ffffffffffffffffffffffffffffffffffffffff168173ffffffffffffffffffffffffffffffffffffffff160362000a4b57600080fd5b7f1f8d7d25344642d919d55999e4664aa452a5f424bc0936ceb9c2b300db7dcbd9338260405162000a7e929190620025d9565b60405180910390a150565b62000a9362001fc2565b60005b838390508160ff16101562000c6e573684848360ff1681811062000abf5762000abe62002606565b5b905060200281019062000ad3919062002644565b9050600081602001602081019062000aec9190620026a0565b905060008260400135905082606001602081019062000b0c91906200270f565b1562000bd35760648360400135111562000b5d576040517f08c379a000000000000000000000000000000000000000000000000000000000815260040162000b5490620027b7565b60405180910390fd5b600062000b6b868462000d33565b90506000810362000bb3576040517f08c379a000000000000000000000000000000000000000000000000000000000815260040162000baa9062002875565b60405180910390fd5b6064828262000bc39190620028c6565b62000bcf919062002956565b9150505b60008062000c19848487806080019062000bee91906200298e565b62000c118a600001602081019062000c07919062002a39565b61ffff1662000df8565b63ffffffff16565b9150915084606001602081019062000c3291906200270f565b1562000c475762000c4587858562000e9e565b505b62000c548783836200109b565b5050505050508062000c669062002a78565b905062000a96565b50505050565b62000cf98363a9059cbb60e01b848460405160240162000c969291906200220e565b604051602081830303815290604052907bffffffffffffffffffffffffffffffffffffffffffffffffffffffff19166020820180517bffffffffffffffffffffffffffffffffffffffffffffffffffffffff838183161783525050505062001238565b505050565b6000828260405160200162000d1592919062002b79565b60405160208183030381529060405280519060200120905092915050565b6000808360000151905060005b846020015160ff168161ffff16101562000deb578373ffffffffffffffffffffffffffffffffffffffff16828261ffff166014811062000d855762000d8462002606565b5b60200201516000015173ffffffffffffffffffffffffffffffffffffffff160362000dd757818161ffff166014811062000dc45762000dc362002606565b5b6020020151602001519250505062000df2565b8062000de39062002ba5565b905062000d40565b5060009150505b92915050565b62001fe7600482101562000e5257600282101562000e31576000820362000e25576200033d905062000e99565b62001307905062000e99565b6002820362000e46576200155b905062000e99565b620017af905062000e99565b600682101562000e7d576004820362000e715762000426905062000e99565b62001996905062000e99565b6006820362000e925762000426905062000e99565b6200042690505b919050565b6000808460000151905060005b856020015160ff1681101562000ff9578473ffffffffffffffffffffffffffffffffffffffff1682826014811062000ee85762000ee762002606565b5b60200201516000015173ffffffffffffffffffffffffffffffffffffffff160362000fe557600082826014811062000f255762000f2462002606565b5b6020020151602001519050848162000f3e919062002bd4565b90508083836014811062000f575762000f5662002606565b5b602002015160200181815250506000810362000fd957826001886020015162000f81919062002c0f565b60ff166014811062000f985762000f9762002606565b5b602002015183836014811062000fb35762000fb262002606565b5b602002018190525086602001805162000fcc9062002c4a565b60ff16908160ff16815250505b80935050505062001094565b8062000ff19062002c78565b905062000eab565b856020015160ff16811062001045576040517f08c379a00000000000000000000000000000000000000000000000000000000081526004016200103c9062002d3b565b60405180910390fd5b60405180604001604052808673ffffffffffffffffffffffffffffffffffffffff1681526020018581525082826014811062001086576200108562002606565b5b602002018190525083925050505b9392505050565b6000808460000151905060005b856020015160ff168110156200117c578473ffffffffffffffffffffffffffffffffffffffff16828260148110620010e557620010e462002606565b5b60200201516000015173ffffffffffffffffffffffffffffffffffffffff160362001168578382826014811062001121576200112062002606565b5b602002015160200181815162001138919062002d5d565b9150818152505081816014811062001155576200115462002606565b5b6020020151602001519250505062001231565b80620011749062002c78565b9050620010a8565b601460ff168110620011c5576040517f08c379a0000000000000000000000000000000000000000000000000000000008152600401620011bc9062002e0a565b60405180910390fd5b60405180604001604052808673ffffffffffffffffffffffffffffffffffffffff1681526020018581525082826014811062001206576200120562002606565b5b60200201819052508560200180516200121f9062002a78565b60ff16908160ff168152505083925050505b9392505050565b60006200129c826040518060400160405280602081526020017f5361666545524332303a206c6f772d6c6576656c2063616c6c206661696c65648152508573ffffffffffffffffffffffffffffffffffffffff1662001c069092919063ffffffff16565b9050600081511115620013025780806020019051810190620012bf919062002e43565b62001301576040517f08c379a0000000000000000000000000000000000000000000000000000000008152600401620012f89062002eeb565b60405180910390fd5b5b505050565b6000806200132b7380466c64868e1ab14a1ddf27a676c3fcbe638fe5878762001c20565b60006200136a7380466c64868e1ab14a1ddf27a676c3fcbe638fe5868660018181106200135d576200135c62002606565b5b9050602002013562001d75565b9050600081905060008173ffffffffffffffffffffffffffffffffffffffff166370a08231306040518263ffffffff1660e01b8152600401620013ae91906200223b565b602060405180830381865afa158015620013cc573d6000803e3d6000fd5b505050506040513d601f19601f82011682018060405250810190620013f2919062002f24565b90507380466c64868e1ab14a1ddf27a676c3fcbe638fe573ffffffffffffffffffffffffffffffffffffffff16635b41b908888860008181106200143b576200143a62002606565b5b905060200201358989600181811062001459576200145862002606565b5b905060200201358b60016040518563ffffffff1660e01b815260040162001484949392919062002fa3565b600060405180830381600087803b1580156200149f57600080fd5b505af1158015620014b4573d6000803e3d6000fd5b5050505060008273ffffffffffffffffffffffffffffffffffffffff166370a08231306040518263ffffffff1660e01b8152600401620014f591906200223b565b602060405180830381865afa15801562001513573d6000803e3d6000fd5b505050506040513d601f19601f8201168201806040525081019062001539919062002f24565b90508382826200154a919062002bd4565b955095505050505094509492505050565b6000806200157f73bebc44782c7db0a1a60cb6fe97d0b483032ff1c7878762001c20565b6000620015be73bebc44782c7db0a1a60cb6fe97d0b483032ff1c786866001818110620015b157620015b062002606565b5b9050602002013562001d75565b9050600081905060008173ffffffffffffffffffffffffffffffffffffffff166370a08231306040518263ffffffff1660e01b81526004016200160291906200223b565b602060405180830381865afa15801562001620573d6000803e3d6000fd5b505050506040513d601f19601f8201168201806040525081019062001646919062002f24565b905073bebc44782c7db0a1a60cb6fe97d0b483032ff1c773ffffffffffffffffffffffffffffffffffffffff16633df02124888860008181106200168f576200168e62002606565b5b9050602002013589896001818110620016ad57620016ac62002606565b5b905060200201358b60016040518563ffffffff1660e01b8152600401620016d894939291906200300e565b600060405180830381600087803b158015620016f357600080fd5b505af115801562001708573d6000803e3d6000fd5b5050505060008273ffffffffffffffffffffffffffffffffffffffff166370a08231306040518263ffffffff1660e01b81526004016200174991906200223b565b602060405180830381865afa15801562001767573d6000803e3d6000fd5b505050506040513d601f19601f820116820180604052508101906200178d919062002f24565b90508382826200179e919062002bd4565b955095505050505094509492505050565b6000808573ffffffffffffffffffffffffffffffffffffffff1663095ea7b373f890982f9310df57d00f659cf4fd87e65aded8d7876040518363ffffffff1660e01b8152600401620018039291906200220e565b6020604051808303816000875af115801562001823573d6000803e3d6000fd5b505050506040513d601f19601f8201168201806040525081019062001849919062002e43565b6200188b576040517f08c379a00000000000000000000000000000000000000000000000000000000081526004016200188290620030d1565b60405180910390fd5b73f890982f9310df57d00f659cf4fd87e65aded8d773ffffffffffffffffffffffffffffffffffffffff16630f5287b0878787876000818110620018d457620018d362002606565b5b9050602002013588886001818110620018f257620018f162002606565b5b9050602002013560001b60008a8a600281811062001915576200191462002606565b5b905060200201356040518763ffffffff1660e01b81526004016200193f9695949392919062003168565b6020604051808303816000875af11580156200195f573d6000803e3d6000fd5b505050506040513d601f19601f820116820180604052508101906200198591906200321a565b506000809150915094509492505050565b600080620019ba73bebc44782c7db0a1a60cb6fe97d0b483032ff1c7878762001c20565b600073bebc44782c7db0a1a60cb6fe97d0b483032ff1c790506000604051806060016040528060008152602001600081526020016000815250905086818787600081811062001a0e5762001a0d62002606565b5b905060200201356003811062001a295762001a2862002606565b5b6020020181815250506000736c3f90f043a72fa612cbac8115ee7e52bde6e49073ffffffffffffffffffffffffffffffffffffffff166370a08231306040518263ffffffff1660e01b815260040162001a8391906200223b565b602060405180830381865afa15801562001aa1573d6000803e3d6000fd5b505050506040513d601f19601f8201168201806040525081019062001ac7919062002f24565b90508273ffffffffffffffffffffffffffffffffffffffff16634515cef38360016040518363ffffffff1660e01b815260040162001b0792919062003307565b600060405180830381600087803b15801562001b2257600080fd5b505af115801562001b37573d6000803e3d6000fd5b505050506000736c3f90f043a72fa612cbac8115ee7e52bde6e49073ffffffffffffffffffffffffffffffffffffffff166370a08231306040518263ffffffff1660e01b815260040162001b8c91906200223b565b602060405180830381865afa15801562001baa573d6000803e3d6000fd5b505050506040513d601f19601f8201168201806040525081019062001bd0919062002f24565b9050736c3f90f043a72fa612cbac8115ee7e52bde6e490828262001bf5919062002bd4565b955095505050505094509492505050565b606062001c17848460008562001e03565b90509392505050565b73dac17f958d2ee523a2206206994597c13d831ec773ffffffffffffffffffffffffffffffffffffffff168273ffffffffffffffffffffffffffffffffffffffff160362001ce55760008290508073ffffffffffffffffffffffffffffffffffffffff1663095ea7b385846040518363ffffffff1660e01b815260040162001caa9291906200220e565b600060405180830381600087803b15801562001cc557600080fd5b505af115801562001cda573d6000803e3d6000fd5b505050505062001d70565b60008290508073ffffffffffffffffffffffffffffffffffffffff1663095ea7b385846040518363ffffffff1660e01b815260040162001d279291906200220e565b6020604051808303816000875af115801562001d47573d6000803e3d6000fd5b505050506040513d601f19601f8201168201806040525081019062001d6d919062002e43565b50505b505050565b6000808390508073ffffffffffffffffffffffffffffffffffffffff1663c6610657846040518263ffffffff1660e01b815260040162001db6919062003334565b602060405180830381865afa15801562001dd4573d6000803e3d6000fd5b505050506040513d601f19601f8201168201806040525081019062001dfa91906200249e565b91505092915050565b60608247101562001e4b576040517f08c379a000000000000000000000000000000000000000000000000000000000815260040162001e4290620033c7565b60405180910390fd5b62001e568562001f25565b62001e98576040517f08c379a000000000000000000000000000000000000000000000000000000000815260040162001e8f9062003439565b60405180910390fd5b6000808673ffffffffffffffffffffffffffffffffffffffff16858760405162001ec391906200349d565b60006040518083038185875af1925050503d806000811462001f02576040519150601f19603f3d011682016040523d82523d6000602084013e62001f07565b606091505b509150915062001f1982828662001f48565b92505050949350505050565b6000808273ffffffffffffffffffffffffffffffffffffffff163b119050919050565b6060831562001f5a5782905062001fad565b60008351111562001f6e5782518084602001fd5b816040517f08c379a000000000000000000000000000000000000000000000000000000000815260040162001fa4919062003508565b60405180910390fd5b9392505050565b6104cd806200355c83390190565b604051806040016040528062001fd762001ff3565b8152602001600060ff1681525090565b62001ff16200352c565b565b6040518061028001604052806014905b6200200d62002024565b815260200190600190039081620020035790505090565b6040518060400160405280600073ffffffffffffffffffffffffffffffffffffffff168152602001600081525090565b600080fd5b600080fd5b600073ffffffffffffffffffffffffffffffffffffffff82169050919050565b60006200208b826200205e565b9050919050565b6200209d816200207e565b8114620020a957600080fd5b50565b600081359050620020bd8162002092565b92915050565b6000819050919050565b620020d881620020c3565b8114620020e457600080fd5b50565b600081359050620020f881620020cd565b92915050565b600080fd5b600080fd5b600080fd5b60008083601f840112620021265762002125620020fe565b5b8235905067ffffffffffffffff81111562002146576200214562002103565b5b60208301915083602082028301111562002165576200216462002108565b5b9250929050565b6000806000806060858703121562002189576200218862002054565b5b60006200219987828801620020ac565b9450506020620021ac87828801620020e7565b935050604085013567ffffffffffffffff811115620021d057620021cf62002059565b5b620021de878288016200210d565b925092505092959194509250565b620021f7816200207e565b82525050565b6200220881620020c3565b82525050565b6000604082019050620022256000830185620021ec565b620022346020830184620021fd565b9392505050565b6000602082019050620022526000830184620021ec565b92915050565b60006020828403121562002271576200227062002054565b5b60006200228184828501620020ac565b91505092915050565b600062002297826200205e565b9050919050565b620022a9816200228a565b82525050565b6000602082019050620022c660008301846200229e565b92915050565b60008083601f840112620022e557620022e4620020fe565b5b8235905067ffffffffffffffff81111562002305576200230462002103565b5b60208301915083602082028301111562002324576200232362002108565b5b9250929050565b6000806020838503121562002345576200234462002054565b5b600083013567ffffffffffffffff81111562002366576200236562002059565b5b6200237485828601620022cc565b92509250509250929050565b600081905092915050565b50565b60006200239d60008362002380565b9150620023aa826200238b565b600082019050919050565b6000620023c2826200238e565b9150819050919050565b600082825260208201905092915050565b7f776974686472617720657468206661696c656400000000000000000000000000600082015250565b600062002415601383620023cc565b91506200242282620023dd565b602082019050919050565b60006020820190508181036000830152620024488162002406565b9050919050565b6000819050919050565b62002464816200244f565b82525050565b600060208201905062002481600083018462002459565b92915050565b600081519050620024988162002092565b92915050565b600060208284031215620024b757620024b662002054565b5b6000620024c78482850162002487565b91505092915050565b7f757365722070726f787920616c72656164792065786973747300000000000000600082015250565b600062002508601983620023cc565b91506200251582620024d0565b602082019050919050565b600060208201905081810360008301526200253b81620024f9565b9050919050565b60006040820190506200255960008301856200229e565b620025686020830184620021ec565b9392505050565b600060408201905062002586600083018562002459565b620025956020830184620021ec565b9392505050565b6000606082019050620025b36000830186620021ec565b620025c26020830185620021ec565b620025d16040830184620021ec565b949350505050565b6000604082019050620025f06000830185620021ec565b620025ff6020830184620021ec565b9392505050565b7f4e487b7100000000000000000000000000000000000000000000000000000000600052603260045260246000fd5b600080fd5b600080fd5b600080fd5b60008235600160a00383360303811262002663576200266262002635565b5b80830191505092915050565b6200267a816200205e565b81146200268657600080fd5b50565b6000813590506200269a816200266f565b92915050565b600060208284031215620026b957620026b862002054565b5b6000620026c98482850162002689565b91505092915050565b60008115159050919050565b620026e981620026d2565b8114620026f557600080fd5b50565b6000813590506200270981620026de565b92915050565b60006020828403121562002728576200272762002054565b5b60006200273884828501620026f8565b91505092915050565b7f696e76616c696420776f726b666c6f772c2063616e6e6f74207370656369667960008201527f20612070657263656e746167652067726561746572207468616e203130300000602082015250565b60006200279f603e83620023cc565b9150620027ac8262002741565b604082019050919050565b60006020820190508181036000830152620027d28162002790565b9050919050565b7f696e76616c696420776f726b666c6f772c2063616e6e6f74207573652061207060008201527f657263656e74616765206f66206120746f6b656e20776974682061203020626160208201527f6c616e6365000000000000000000000000000000000000000000000000000000604082015250565b60006200285d604583620023cc565b91506200286a82620027d9565b606082019050919050565b6000602082019050818103600083015262002890816200284e565b9050919050565b7f4e487b7100000000000000000000000000000000000000000000000000000000600052601160045260246000fd5b6000620028d382620020c3565b9150620028e083620020c3565b9250817fffffffffffffffffffffffffffffffffffffffffffffffffffffffffffffffff04831182151516156200291c576200291b62002897565b5b828202905092915050565b7f4e487b7100000000000000000000000000000000000000000000000000000000600052601260045260246000fd5b60006200296382620020c3565b91506200297083620020c3565b92508262002983576200298262002927565b5b828204905092915050565b60008083356001602003843603038112620029ae57620029ad62002635565b5b80840192508235915067ffffffffffffffff821115620029d357620029d26200263a565b5b602083019250602082023603831315620029f257620029f16200263f565b5b509250929050565b600061ffff82169050919050565b62002a1381620029fa565b811462002a1f57600080fd5b50565b60008135905062002a338162002a08565b92915050565b60006020828403121562002a525762002a5162002054565b5b600062002a628482850162002a22565b91505092915050565b600060ff82169050919050565b600062002a858262002a6b565b915060ff820362002a9b5762002a9a62002897565b5b600182019050919050565b600081519050919050565b600081905092915050565b60005b8381101562002adc57808201518184015260208101905062002abf565b8381111562002aec576000848401525b50505050565b600062002aff8262002aa6565b62002b0b818562002ab1565b935062002b1d81856020860162002abc565b80840191505092915050565b60008160601b9050919050565b600062002b438262002b29565b9050919050565b600062002b578262002b36565b9050919050565b62002b7362002b6d826200207e565b62002b4a565b82525050565b600062002b87828562002af2565b915062002b95828462002b5e565b6014820191508190509392505050565b600062002bb282620029fa565b915061ffff820362002bc95762002bc862002897565b5b600182019050919050565b600062002be182620020c3565b915062002bee83620020c3565b92508282101562002c045762002c0362002897565b5b828203905092915050565b600062002c1c8262002a6b565b915062002c298362002a6b565b92508282101562002c3f5762002c3e62002897565b5b828203905092915050565b600062002c578262002a6b565b91506000820362002c6d5762002c6c62002897565b5b600182039050919050565b600062002c8582620020c3565b91507fffffffffffffffffffffffffffffffffffffffffffffffffffffffffffffffff820362002cba5762002cb962002897565b5b600182019050919050565b7f746f6b656e206e6f7420666f756e64207768696c65207375627472616374696e60008201527f6700000000000000000000000000000000000000000000000000000000000000602082015250565b600062002d23602183620023cc565b915062002d308262002cc5565b604082019050919050565b6000602082019050818103600083015262002d568162002d14565b9050919050565b600062002d6a82620020c3565b915062002d7783620020c3565b9250827fffffffffffffffffffffffffffffffffffffffffffffffffffffffffffffffff0382111562002daf5762002dae62002897565b5b828201905092915050565b7f746f6f206d616e7920746f6b656e2062616c616e636573000000000000000000600082015250565b600062002df2601783620023cc565b915062002dff8262002dba565b602082019050919050565b6000602082019050818103600083015262002e258162002de3565b9050919050565b60008151905062002e3d81620026de565b92915050565b60006020828403121562002e5c5762002e5b62002054565b5b600062002e6c8482850162002e2c565b91505092915050565b7f5361666545524332303a204552433230206f7065726174696f6e20646964206e60008201527f6f74207375636365656400000000000000000000000000000000000000000000602082015250565b600062002ed3602a83620023cc565b915062002ee08262002e75565b604082019050919050565b6000602082019050818103600083015262002f068162002ec4565b9050919050565b60008151905062002f1e81620020cd565b92915050565b60006020828403121562002f3d5762002f3c62002054565b5b600062002f4d8482850162002f0d565b91505092915050565b6000819050919050565b6000819050919050565b600062002f8b62002f8562002f7f8462002f56565b62002f60565b620020c3565b9050919050565b62002f9d8162002f6a565b82525050565b600060808201905062002fba6000830187620021fd565b62002fc96020830186620021fd565b62002fd86040830185620021fd565b62002fe7606083018462002f92565b95945050505050565b600081600f0b9050919050565b620030088162002ff0565b82525050565b600060808201905062003025600083018762002ffd565b62003034602083018662002ffd565b620030436040830185620021fd565b62003052606083018462002f92565b95945050505050565b7f617070726f76616c20666f7220776f726d686f6c6520746f6b656e206272696460008201527f6765206661696c65640000000000000000000000000000000000000000000000602082015250565b6000620030b9602983620023cc565b9150620030c6826200305b565b604082019050919050565b60006020820190508181036000830152620030ec81620030aa565b9050919050565b620030fe81620029fa565b82525050565b6000819050919050565b60006200312f62003129620031238462003104565b62002f60565b620020c3565b9050919050565b62003141816200310e565b82525050565b600063ffffffff82169050919050565b620031628162003147565b82525050565b600060c0820190506200317f6000830189620021ec565b6200318e6020830188620021fd565b6200319d6040830187620030f3565b620031ac606083018662002459565b620031bb608083018562003136565b620031ca60a083018462003157565b979650505050505050565b600067ffffffffffffffff82169050919050565b620031f481620031d5565b81146200320057600080fd5b50565b6000815190506200321481620031e9565b92915050565b60006020828403121562003233576200323262002054565b5b6000620032438482850162003203565b91505092915050565b600060039050919050565b600081905092915050565b6000819050919050565b6200327781620020c3565b82525050565b60006200328b83836200326c565b60208301905092915050565b6000602082019050919050565b620032af816200324c565b620032bb818462003257565b9250620032c88262003262565b8060005b83811015620032ff578151620032e387826200327d565b9650620032f08362003297565b925050600181019050620032cc565b505050505050565b60006080820190506200331e6000830185620032a4565b6200332d606083018462002f92565b9392505050565b60006020820190506200334b6000830184620021fd565b92915050565b7f416464726573733a20696e73756666696369656e742062616c616e636520666f60008201527f722063616c6c0000000000000000000000000000000000000000000000000000602082015250565b6000620033af602683620023cc565b9150620033bc8262003351565b604082019050919050565b60006020820190508181036000830152620033e281620033a0565b9050919050565b7f416464726573733a2063616c6c20746f206e6f6e2d636f6e7472616374000000600082015250565b600062003421601d83620023cc565b91506200342e82620033e9565b602082019050919050565b60006020820190508181036000830152620034548162003412565b9050919050565b600081519050919050565b600062003473826200345b565b6200347f818562002380565b93506200349181856020860162002abc565b80840191505092915050565b6000620034ab828462003466565b915081905092915050565b6000601f19601f8301169050919050565b6000620034d48262002aa6565b620034e08185620023cc565b9350620034f281856020860162002abc565b620034fd81620034b6565b840191505092915050565b60006020820190508181036000830152620035248184620034c7565b905092915050565b7f4e487b7100000000000000000000000000000000000000000000000000000000600052605160045260246000fdfe608060405234801561001057600080fd5b506040516104cd3803806104cd8339818101604052810190610032919061015b565b80600160006101000a81548173ffffffffffffffffffffffffffffffffffffffff021916908373ffffffffffffffffffffffffffffffffffffffff160217905550816000806101000a81548173ffffffffffffffffffffffffffffffffffffffff021916908373ffffffffffffffffffffffffffffffffffffffff160217905550505061019b565b600080fd5b600073ffffffffffffffffffffffffffffffffffffffff82169050919050565b60006100ea826100bf565b9050919050565b6100fa816100df565b811461010557600080fd5b50565b600081519050610117816100f1565b92915050565b6000610128826100bf565b9050919050565b6101388161011d565b811461014357600080fd5b50565b6000815190506101558161012f565b92915050565b60008060408385031215610172576101716100ba565b5b600061018085828601610108565b925050602061019185828601610146565b9150509250929050565b610323806101aa6000396000f3fe60806040526004361061002d5760003560e01c80636a99a523146101315780638da5cb5b1461015c57610034565b3661003457005b3373ffffffffffffffffffffffffffffffffffffffff1660008054906101000a900473ffffffffffffffffffffffffffffffffffffffff1673ffffffffffffffffffffffffffffffffffffffff161461008c57600080fd5b6000600160009054906101000a900473ffffffffffffffffffffffffffffffffffffffff16905060008173ffffffffffffffffffffffffffffffffffffffff166356dececb6040518163ffffffff1660e01b8152600401602060405180830381865afa158015610100573d6000803e3d6000fd5b505050506040513d601f19601f82011682018060405250810190610124919061025a565b905061012f81610187565b005b34801561013d57600080fd5b506101466101ad565b6040516101539190610296565b60405180910390f35b34801561016857600080fd5b506101716101d3565b60405161017e91906102d2565b60405180910390f35b3660008037600080366000845af43d6000803e80600081146101a8573d6000f35b3d6000fd5b600160009054906101000a900473ffffffffffffffffffffffffffffffffffffffff1681565b60008054906101000a900473ffffffffffffffffffffffffffffffffffffffff1681565b600080fd5b600073ffffffffffffffffffffffffffffffffffffffff82169050919050565b6000610227826101fc565b9050919050565b6102378161021c565b811461024257600080fd5b50565b6000815190506102548161022e565b92915050565b6000602082840312156102705761026f6101f7565b5b600061027e84828501610245565b91505092915050565b6102908161021c565b82525050565b60006020820190506102ab6000830184610287565b92915050565b60006102bc826101fc565b9050919050565b6102cc816102b1565b82525050565b60006020820190506102e760008301846102c3565b9291505056fea2646970667358221220b50b0cd857d7618d7087e062d5f342406f7e583f37e1bb01747296eb2684ba9d64736f6c634300080d0033a2646970667358221220f13a48751e8b3027616b549962b3c66b6732eeb5021f552711b3a5231032a9e364736f6c634300080d00336080604052336000806101000a81548173ffffffffffffffffffffffffffffffffffffffff021916908373ffffffffffffffffffffffffffffffffffffffff16021790555034801561005057600080fd5b506114a2806100606000396000f3fe608060405234801561001057600080fd5b50600436106101165760003560e01c8063986e791a116100a2578063ca446dd911610071578063ca446dd9146102eb578063dc97d96214610307578063e2a4853a14610337578063e2b202bf14610353578063f6bb3cc41461036f57610116565b8063986e791a1461023f578063abfdcced1461026f578063bd02d0f51461028b578063c031a180146102bb57610116565b80633e49bed0116100e95780633e49bed01461019f578063616b59f6146101bb5780636e899550146101d75780637ae1cfca146101f35780638c1600951461022357610116565b80630e14a3761461011b57806321f8a721146101375780632c62ff2d146101675780632e28d08414610183575b600080fd5b61013560048036038101906101309190610d75565b61038b565b005b610151600480360381019061014c9190610d75565b61041c565b60405161015e9190610de3565b60405180910390f35b610181600480360381019061017c9190610d75565b610459565b005b61019d60048036038101906101989190610f44565b6104d7565b005b6101b960048036038101906101b49190610fd6565b61055b565b005b6101d560048036038101906101d09190610d75565b6105cf565b005b6101f160048036038101906101ec91906110b7565b610649565b005b61020d60048036038101906102089190610d75565b6106cd565b60405161021a919061112e565b60405180910390f35b61023d60048036038101906102389190610d75565b6106f7565b005b61025960048036038101906102549190610d75565b610769565b60405161026691906111d1565b60405180910390f35b6102896004803603810190610284919061121f565b61080e565b005b6102a560048036038101906102a09190610d75565b610895565b6040516102b29190611278565b60405180910390f35b6102d560048036038101906102d09190610d75565b6108b2565b6040516102e291906112e8565b60405180910390f35b61030560048036038101906103009190611336565b610957565b005b610321600480360381019061031c9190610d75565b610a05565b60405161032e9190611385565b60405180910390f35b610351600480360381019061034c91906113cc565b610a22565b005b61036d60048036038101906103689190610d75565b610a96565b005b61038960048036038101906103849190610d75565b610b08565b005b60008054906101000a900473ffffffffffffffffffffffffffffffffffffffff1673ffffffffffffffffffffffffffffffffffffffff163373ffffffffffffffffffffffffffffffffffffffff16146103e357600080fd5b6003600082815260200190815260200160002060006101000a81549073ffffffffffffffffffffffffffffffffffffffff021916905550565b60006003600083815260200190815260200160002060009054906101000a900473ffffffffffffffffffffffffffffffffffffffff169050919050565b60008054906101000a900473ffffffffffffffffffffffffffffffffffffffff1673ffffffffffffffffffffffffffffffffffffffff163373ffffffffffffffffffffffffffffffffffffffff16146104b157600080fd5b6005600082815260200190815260200160002060006101000a81549060ff021916905550565b60008054906101000a900473ffffffffffffffffffffffffffffffffffffffff1673ffffffffffffffffffffffffffffffffffffffff163373ffffffffffffffffffffffffffffffffffffffff161461052f57600080fd5b80600460008481526020019081526020016000209080519060200190610556929190610b82565b505050565b60008054906101000a900473ffffffffffffffffffffffffffffffffffffffff1673ffffffffffffffffffffffffffffffffffffffff163373ffffffffffffffffffffffffffffffffffffffff16146105b357600080fd5b8060066000848152602001908152602001600020819055505050565b60008054906101000a900473ffffffffffffffffffffffffffffffffffffffff1673ffffffffffffffffffffffffffffffffffffffff163373ffffffffffffffffffffffffffffffffffffffff161461062757600080fd5b6004600082815260200190815260200160002060006106469190610c08565b50565b60008054906101000a900473ffffffffffffffffffffffffffffffffffffffff1673ffffffffffffffffffffffffffffffffffffffff163373ffffffffffffffffffffffffffffffffffffffff16146106a157600080fd5b806002600084815260200190815260200160002090805190602001906106c8929190610c48565b505050565b60006005600083815260200190815260200160002060009054906101000a900460ff169050919050565b60008054906101000a900473ffffffffffffffffffffffffffffffffffffffff1673ffffffffffffffffffffffffffffffffffffffff163373ffffffffffffffffffffffffffffffffffffffff161461074f57600080fd5b600660008281526020019081526020016000206000905550565b60606002600083815260200190815260200160002080546107899061143b565b80601f01602080910402602001604051908101604052809291908181526020018280546107b59061143b565b80156108025780601f106107d757610100808354040283529160200191610802565b820191906000526020600020905b8154815290600101906020018083116107e557829003601f168201915b50505050509050919050565b60008054906101000a900473ffffffffffffffffffffffffffffffffffffffff1673ffffffffffffffffffffffffffffffffffffffff163373ffffffffffffffffffffffffffffffffffffffff161461086657600080fd5b806005600084815260200190815260200160002060006101000a81548160ff0219169083151502179055505050565b600060016000838152602001908152602001600020549050919050565b60606004600083815260200190815260200160002080546108d29061143b565b80601f01602080910402602001604051908101604052809291908181526020018280546108fe9061143b565b801561094b5780601f106109205761010080835404028352916020019161094b565b820191906000526020600020905b81548152906001019060200180831161092e57829003601f168201915b50505050509050919050565b60008054906101000a900473ffffffffffffffffffffffffffffffffffffffff1673ffffffffffffffffffffffffffffffffffffffff163373ffffffffffffffffffffffffffffffffffffffff16146109af57600080fd5b806003600084815260200190815260200160002060006101000a81548173ffffffffffffffffffffffffffffffffffffffff021916908373ffffffffffffffffffffffffffffffffffffffff1602179055505050565b600060066000838152602001908152602001600020549050919050565b60008054906101000a900473ffffffffffffffffffffffffffffffffffffffff1673ffffffffffffffffffffffffffffffffffffffff163373ffffffffffffffffffffffffffffffffffffffff1614610a7a57600080fd5b8060016000848152602001908152602001600020819055505050565b60008054906101000a900473ffffffffffffffffffffffffffffffffffffffff1673ffffffffffffffffffffffffffffffffffffffff163373ffffffffffffffffffffffffffffffffffffffff1614610aee57600080fd5b600160008281526020019081526020016000206000905550565b60008054906101000a900473ffffffffffffffffffffffffffffffffffffffff1673ffffffffffffffffffffffffffffffffffffffff163373ffffffffffffffffffffffffffffffffffffffff1614610b6057600080fd5b600260008281526020019081526020016000206000610b7f9190610cce565b50565b828054610b8e9061143b565b90600052602060002090601f016020900481019282610bb05760008555610bf7565b82601f10610bc957805160ff1916838001178555610bf7565b82800160010185558215610bf7579182015b82811115610bf6578251825591602001919060010190610bdb565b5b509050610c049190610d0e565b5090565b508054610c149061143b565b6000825580601f10610c265750610c45565b601f016020900490600052602060002090810190610c449190610d0e565b5b50565b828054610c549061143b565b90600052602060002090601f016020900481019282610c765760008555610cbd565b82601f10610c8f57805160ff1916838001178555610cbd565b82800160010185558215610cbd579182015b82811115610cbc578251825591602001919060010190610ca1565b5b509050610cca9190610d0e565b5090565b508054610cda9061143b565b6000825580601f10610cec5750610d0b565b601f016020900490600052602060002090810190610d0a9190610d0e565b5b50565b5b80821115610d27576000816000905550600101610d0f565b5090565b6000604051905090565b600080fd5b600080fd5b6000819050919050565b610d5281610d3f565b8114610d5d57600080fd5b50565b600081359050610d6f81610d49565b92915050565b600060208284031215610d8b57610d8a610d35565b5b6000610d9984828501610d60565b91505092915050565b600073ffffffffffffffffffffffffffffffffffffffff82169050919050565b6000610dcd82610da2565b9050919050565b610ddd81610dc2565b82525050565b6000602082019050610df86000830184610dd4565b92915050565b600080fd5b600080fd5b6000601f19601f8301169050919050565b7f4e487b7100000000000000000000000000000000000000000000000000000000600052604160045260246000fd5b610e5182610e08565b810181811067ffffffffffffffff82111715610e7057610e6f610e19565b5b80604052505050565b6000610e83610d2b565b9050610e8f8282610e48565b919050565b600067ffffffffffffffff821115610eaf57610eae610e19565b5b610eb882610e08565b9050602081019050919050565b82818337600083830152505050565b6000610ee7610ee284610e94565b610e79565b905082815260208101848484011115610f0357610f02610e03565b5b610f0e848285610ec5565b509392505050565b600082601f830112610f2b57610f2a610dfe565b5b8135610f3b848260208601610ed4565b91505092915050565b60008060408385031215610f5b57610f5a610d35565b5b6000610f6985828601610d60565b925050602083013567ffffffffffffffff811115610f8a57610f89610d3a565b5b610f9685828601610f16565b9150509250929050565b6000819050919050565b610fb381610fa0565b8114610fbe57600080fd5b50565b600081359050610fd081610faa565b92915050565b60008060408385031215610fed57610fec610d35565b5b6000610ffb85828601610d60565b925050602061100c85828601610fc1565b9150509250929050565b600067ffffffffffffffff82111561103157611030610e19565b5b61103a82610e08565b9050602081019050919050565b600061105a61105584611016565b610e79565b90508281526020810184848401111561107657611075610e03565b5b611081848285610ec5565b509392505050565b600082601f83011261109e5761109d610dfe565b5b81356110ae848260208601611047565b91505092915050565b600080604083850312156110ce576110cd610d35565b5b60006110dc85828601610d60565b925050602083013567ffffffffffffffff8111156110fd576110fc610d3a565b5b61110985828601611089565b9150509250929050565b60008115159050919050565b61112881611113565b82525050565b6000602082019050611143600083018461111f565b92915050565b600081519050919050565b600082825260208201905092915050565b60005b83811015611183578082015181840152602081019050611168565b83811115611192576000848401525b50505050565b60006111a382611149565b6111ad8185611154565b93506111bd818560208601611165565b6111c681610e08565b840191505092915050565b600060208201905081810360008301526111eb8184611198565b905092915050565b6111fc81611113565b811461120757600080fd5b50565b600081359050611219816111f3565b92915050565b6000806040838503121561123657611235610d35565b5b600061124485828601610d60565b92505060206112558582860161120a565b9150509250929050565b6000819050919050565b6112728161125f565b82525050565b600060208201905061128d6000830184611269565b92915050565b600081519050919050565b600082825260208201905092915050565b60006112ba82611293565b6112c4818561129e565b93506112d4818560208601611165565b6112dd81610e08565b840191505092915050565b6000602082019050818103600083015261130281846112af565b905092915050565b61131381610dc2565b811461131e57600080fd5b50565b6000813590506113308161130a565b92915050565b6000806040838503121561134d5761134c610d35565b5b600061135b85828601610d60565b925050602061136c85828601611321565b9150509250929050565b61137f81610fa0565b82525050565b600060208201905061139a6000830184611376565b92915050565b6113a98161125f565b81146113b457600080fd5b50565b6000813590506113c6816113a0565b92915050565b600080604083850312156113e3576113e2610d35565b5b60006113f185828601610d60565b9250506020611402858286016113b7565b9150509250929050565b7f4e487b7100000000000000000000000000000000000000000000000000000000600052602260045260246000fd5b6000600282049050600182168061145357607f821691505b6020821081036114665761146561140c565b5b5091905056fea26469706673582212201e261a6427da1503e68d50ec348e61f3eba18b6ea202e68cf24237ee7c145fcc64736f6c634300080d0033",
  "immutableReferences": {},
  "source": "// SPDX-License-Identifier: MIT\npragma solidity >=0.4.22 <0.9.0;\n\nimport '@openzeppelin/contracts/token/ERC20/IERC20.sol';\n// import '@openzeppelin/contracts/token/ERC20/ERC20.sol';\nimport '@openzeppelin/contracts/token/ERC20/utils/SafeERC20.sol';\n\nimport './thirdParty/Weth.sol';\n\nimport './FrontDoor.sol';\nimport './IWorkflowRunner.sol';\nimport './WorkflowStep.sol';\nimport './IUserProxyManager.sol';\nimport './UserProxy.sol';\nimport './TokenAmounts.sol';\n\nimport './integrations/Curve.sol';\nimport './integrations/Wormhole.sol';\n\n/// @dev inheriting from FrontDoor so storage slots align\ncontract WorkflowRunner is FrontDoor, IWorkflowRunner, IUserProxyManager {\n  // mainnet\n  // address constant wethAddress = address(0xC02aaA39b223FE8D0A0e5C4F27eAD9083C756Cc2);\n  address constant wbtcAddress = address(0x2260FAC5E5542a773Aa44fBCfeDf7C193bc2C599);\n  address constant usdtAddress = address(0xdAC17F958D2ee523a2206206994597C13D831ec7);\n  address constant usdcAddress = address(0xA0b86991c6218b36c1d19D4a2e9Eb0cE3606eB48);\n  address constant daiAddress = address(0x6B175474E89094C44Da98b954EedeAC495271d0F);\n\n  // goerli\n  address constant wethAddress = address(0xB4FBF271143F4FBf7B91A5ded31805e42b2208d6);\n\n  Weth constant weth = Weth(wethAddress);\n\n  // IERC20 constant usdt = IERC20(usdtAddress);\n\n  function createUserProxy() external {\n    address a = eternalStorageAddress;\n    EternalStorage es = EternalStorage(a);\n    // bytes32 key = keccak256(abi.encodePacked('userProxies', msg.sender));\n    bytes32 key = getAddressKey('userProxies', msg.sender);\n    address currentAddress = es.getAddress(key);\n    require(currentAddress == address(0x0000000000000000), 'user proxy already exists');\n    UserProxy newUserProxy = new UserProxy(payable(msg.sender), frontDoorAddress);\n    address userProxyAddress = address(newUserProxy);\n    es.setAddress(key, userProxyAddress);\n  }\n\n  function getAddressKey(string memory category, address addr) internal pure returns (bytes32) {\n    return keccak256(abi.encodePacked(category, addr));\n  }\n\n  function getUserProxy() external view returns (address) {\n    EternalStorage eternalStorage = EternalStorage(eternalStorageAddress);\n    bytes32 key = getAddressKey('userProxies', msg.sender);\n    return eternalStorage.getAddress(key);\n  }\n\n  function executeWorkflow(WorkflowStep[] calldata steps) external payable {\n    TokenAmounts.EntrySet memory tokenBalances;\n    for (uint8 stepIndex = 0; stepIndex < steps.length; ++stepIndex) {\n      WorkflowStep calldata step = steps[stepIndex];\n      address fromToken = address(step.fromToken);\n      uint256 amount = step.amount;\n      // percent means relative to balances created by previous steps, not percent of the caller's total balance of that token\n      if (step.amountIsPercent) {\n        require(step.amount <= 100, 'invalid workflow, cannot specify a percentage greater than 100');\n        uint256 amountFromPreviousSteps = TokenAmounts.get(tokenBalances, fromToken);\n        require(amountFromPreviousSteps != 0, 'invalid workflow, cannot use a percentage of a token with a 0 balance');\n        amount = (amountFromPreviousSteps * amount) / 100;\n      }\n      (address toToken, uint256 outcomeAmount) = getStepFunc(step.stepId)(fromToken, amount, step.args);\n      if (step.amountIsPercent) {\n        TokenAmounts.subtract(tokenBalances, fromToken, amount);\n      }\n      TokenAmounts.add(tokenBalances, toToken, outcomeAmount);\n    }\n  }\n\n  // function executeWorkflow(uint256[] calldata args) external payable {\n  //   // the first arg is the starting amount\n  //   uint256 nextAmount = args[0];\n  //   uint16 argsIndex = 1;\n  //   while (argsIndex < args.length) {\n  //     (uint256 argsConsumed, uint256 outcomeAmount) = getStepFunc(args[argsIndex])(nextAmount, args[argsIndex + 1:]);\n  //     argsIndex += 1 + uint16(argsConsumed);\n  //     nextAmount = outcomeAmount;\n  //   }\n  // }\n\n  function ethToWeth(\n    address,\n    uint256 amount,\n    uint256[] calldata\n  ) public payable returns (address, uint256) {\n    weth.deposit{value: amount}();\n    return (wethAddress, amount);\n  }\n\n  function withdrawal(\n    address tokenAddress,\n    uint256 amount,\n    uint256[] calldata\n  ) public payable returns (address, uint256) {\n    address payable user = owner;\n    if (tokenAddress == address(0x0)) {\n      (bool success, ) = user.call{value: amount}('');\n      require(success, 'withdraw eth failed');\n    } else {\n      IERC20 token = IERC20(tokenAddress);\n      SafeERC20.safeTransfer(token, user, amount);\n    }\n    // this has to be a terminal step, so returning 0 for amount\n    return (address(0), 0);\n  }\n\n  function getStepFunc(uint256 index)\n    private\n    pure\n    returns (function(address, uint256, uint256[] calldata) internal returns (address, uint256))\n  {\n    if (index < 4) {\n      // 0..3\n      if (index < 2) {\n        if (index == 0) {\n          return ethToWeth;\n        } else {\n          return Curve.curveTriCryptoPoolSwap;\n        }\n      } else {\n        if (index == 2) {\n          return Curve.curve3PoolSwap;\n        } else {\n          return Wormhole.wormholeTransferTokens;\n        }\n      }\n    } else {\n      // 4..7\n      if (index < 6) {\n        if (index == 4) {\n          return withdrawal;\n        } else {\n          return Curve.curve3PoolAddLiquidity;\n        }\n      } else {\n        if (index == 6) {\n          // TODO return something\n          return withdrawal;\n        } else {\n          // TODO return something\n          return withdrawal;\n        }\n      }\n    }\n  }\n}\n",
  "sourcePath": "C:\\Users\\creeper\\fmp\\platform\\evm\\contracts\\WorkflowRunner.sol",
  "compiler": {
    "name": "solc",
    "version": "0.8.13+commit.abaa5c0e.Emscripten.clang"
  },
  "schemaVersion": "3.4.7",
  "updatedAt": "2022-06-29T17:40:52.555Z",
  "networkType": "ethereum",
  "devdoc": {
    "details": "inheriting from FrontDoor so storage slots align",
    "kind": "dev",
    "methods": {},
    "version": 1
  },
  "userdoc": {
    "kind": "user",
    "methods": {},
    "version": 1
  }
}