{
  "address": "0x9eb9E92D0F0DA1bd28BbCf69720452005Fd830Df",
  "abi": [
    {
      "inputs": [
        {
          "internalType": "address payable",
          "name": "_frontDoorAddress",
          "type": "address"
        }
      ],
      "stateMutability": "nonpayable",
      "type": "constructor"
    },
    {
      "anonymous": false,
      "inputs": [
        {
          "indexed": false,
          "internalType": "address",
          "name": "sender",
          "type": "address"
        },
        {
          "indexed": false,
          "internalType": "address",
          "name": "newOwner",
          "type": "address"
        }
      ],
      "name": "LogNewOwner",
      "type": "event"
    },
    {
      "anonymous": false,
      "inputs": [
        {
          "indexed": false,
          "internalType": "uint16",
          "name": "stepTypeId",
          "type": "uint16"
        },
        {
          "indexed": false,
          "internalType": "address",
          "name": "stepAddress",
          "type": "address"
        }
      ],
      "name": "StepAddressSetEvent",
      "type": "event"
    },
    {
      "inputs": [
        {
          "internalType": "address",
          "name": "runnerAddress",
          "type": "address"
        }
      ],
      "name": "addRunnerAddress",
      "outputs": [],
      "stateMutability": "nonpayable",
      "type": "function"
    },
    {
      "inputs": [],
      "name": "eternalStorageAddress",
      "outputs": [
        {
          "internalType": "address",
          "name": "",
          "type": "address"
        }
      ],
      "stateMutability": "view",
      "type": "function"
    },
    {
      "inputs": [],
      "name": "frontDoorAddress",
      "outputs": [
        {
          "internalType": "address",
          "name": "",
          "type": "address"
        }
      ],
      "stateMutability": "view",
      "type": "function"
    },
    {
      "inputs": [],
      "name": "getRunnerAddresses",
      "outputs": [
        {
          "internalType": "address[]",
          "name": "",
          "type": "address[]"
        }
      ],
      "stateMutability": "view",
      "type": "function"
    },
    {
      "inputs": [
        {
          "internalType": "uint16",
          "name": "stepTypeId",
          "type": "uint16"
        }
      ],
      "name": "getStepAddress",
      "outputs": [
        {
          "internalType": "address",
          "name": "",
          "type": "address"
        }
      ],
      "stateMutability": "view",
      "type": "function"
    },
    {
      "inputs": [],
      "name": "getStepCount",
      "outputs": [
        {
          "internalType": "uint256",
          "name": "",
          "type": "uint256"
        }
      ],
      "stateMutability": "view",
      "type": "function"
    },
    {
      "inputs": [
        {
          "internalType": "uint256",
          "name": "index",
          "type": "uint256"
        }
      ],
      "name": "getStepInfoAt",
      "outputs": [
        {
          "components": [
            {
              "internalType": "uint16",
              "name": "stepTypeId",
              "type": "uint16"
            },
            {
              "internalType": "uint24",
              "name": "fee",
              "type": "uint24"
            },
            {
              "internalType": "address",
              "name": "latest",
              "type": "address"
            },
            {
              "internalType": "address[]",
              "name": "whitelist",
              "type": "address[]"
            },
            {
              "internalType": "address[]",
              "name": "blacklist",
              "type": "address[]"
            }
          ],
          "internalType": "struct StepInfo",
          "name": "",
          "type": "tuple"
        }
      ],
      "stateMutability": "view",
      "type": "function"
    },
    {
      "inputs": [],
      "name": "isUserProxy",
      "outputs": [
        {
          "internalType": "bool",
          "name": "",
          "type": "bool"
        }
      ],
      "stateMutability": "view",
      "type": "function"
    },
    {
      "inputs": [],
      "name": "owner",
      "outputs": [
        {
          "internalType": "address payable",
          "name": "",
          "type": "address"
        }
      ],
      "stateMutability": "view",
      "type": "function"
    },
    {
      "inputs": [
        {
          "internalType": "address",
          "name": "runnerAddress",
          "type": "address"
        }
      ],
      "name": "removeRunnerAddress",
      "outputs": [],
      "stateMutability": "nonpayable",
      "type": "function"
    },
    {
      "inputs": [
        {
          "internalType": "uint16",
          "name": "stepTypeId",
          "type": "uint16"
        },
        {
          "internalType": "address",
          "name": "stepAddress",
          "type": "address"
        }
      ],
      "name": "removeStepAddress",
      "outputs": [],
      "stateMutability": "nonpayable",
      "type": "function"
    },
    {
      "inputs": [
        {
          "internalType": "address payable",
          "name": "newOwner",
          "type": "address"
        }
      ],
      "name": "setOwner",
      "outputs": [],
      "stateMutability": "nonpayable",
      "type": "function"
    },
    {
      "inputs": [
        {
          "internalType": "uint16",
          "name": "stepTypeId",
          "type": "uint16"
        },
        {
          "internalType": "address",
          "name": "stepAddress",
          "type": "address"
        }
      ],
      "name": "setStepAddress",
      "outputs": [],
      "stateMutability": "nonpayable",
      "type": "function"
    },
    {
      "inputs": [],
      "name": "upstreamAddress",
      "outputs": [
        {
          "internalType": "address",
          "name": "",
          "type": "address"
        }
      ],
      "stateMutability": "view",
      "type": "function"
    }
  ],
  "transactionHash": "0x8f43a30065055f74686c6df7189b78b2cc331d6de3104bd9aca2c9bac2837296",
  "args": [
    "0x5DE1dF35467c24C024E598ae6a2FB98240e62EC7"
  ],
  "numDeployments": 4,
  "solcInputHash": "ba5ebc40d29cb4232bc2904dee141aea",
  "bytecode": "0x60a06040523480156200001157600080fd5b506040516200248338038062002483833981810160405281019062000037919062000234565b338173ffffffffffffffffffffffffffffffffffffffff1663384782fe6040518163ffffffff1660e01b8152600401602060405180830381865afa15801562000084573d6000803e3d6000fd5b505050506040513d601f19601f82011682018060405250810190620000aa9190620002ab565b60008083806000806101000a81548173ffffffffffffffffffffffffffffffffffffffff021916908373ffffffffffffffffffffffffffffffffffffffff1602179055505082600160006101000a81548173ffffffffffffffffffffffffffffffffffffffff021916908373ffffffffffffffffffffffffffffffffffffffff16021790555081600260006101000a81548173ffffffffffffffffffffffffffffffffffffffff021916908373ffffffffffffffffffffffffffffffffffffffff16021790555080600260146101000a81548160ff021916908315150217905550505050508073ffffffffffffffffffffffffffffffffffffffff1660808173ffffffffffffffffffffffffffffffffffffffff168152505050620002dd565b600080fd5b600073ffffffffffffffffffffffffffffffffffffffff82169050919050565b6000620001fc82620001cf565b9050919050565b6200020e81620001ef565b81146200021a57600080fd5b50565b6000815190506200022e8162000203565b92915050565b6000602082840312156200024d576200024c620001ca565b5b60006200025d848285016200021d565b91505092915050565b60006200027382620001cf565b9050919050565b620002858162000266565b81146200029157600080fd5b50565b600081519050620002a5816200027a565b92915050565b600060208284031215620002c457620002c3620001ca565b5b6000620002d48482850162000294565b91505092915050565b60805161218a620002f96000396000610995015261218a6000f3fe608060405234801561001057600080fd5b50600436106100ea5760003560e01c80636fd633511161008c578063910752cd11610066578063910752cd14610227578063c4006c8114610243578063f90339771461025f578063ff05c2a81461028f576100ea565b80636fd63351146101cf5780638a04867b146101ed5780638da5cb5b14610209576100ea565b806332b56aaf116100c857806332b56aaf14610145578063384782fe1461016357806350fd910e14610181578063699a20571461019f576100ea565b8063073728ea146100ef5780630f53b8541461010d57806313af403514610129575b600080fd5b6100f76102ad565b604051610104919061172d565b60405180910390f35b610127600480360381019061012291906117ba565b6104dc565b005b610143600480360381019061013e9190611838565b61083a565b005b61014d610947565b60405161015a9190611874565b60405180910390f35b61016b61096d565b6040516101789190611874565b60405180910390f35b610189610993565b6040516101969190611874565b60405180910390f35b6101b960048036038101906101b491906118c5565b6109b7565b6040516101c69190611a0b565b60405180910390f35b6101d7610e6a565b6040516101e49190611a3c565b60405180910390f35b61020760048036038101906102029190611a57565b610f35565b005b61021161105d565b60405161021e9190611a93565b60405180910390f35b610241600480360381019061023c9190611a57565b611081565b005b61025d600480360381019061025891906117ba565b611194565b005b61027960048036038101906102749190611aae565b611499565b6040516102869190611874565b60405180910390f35b6102976114ce565b6040516102a49190611af6565b60405180910390f35b60606000600160009054906101000a900473ffffffffffffffffffffffffffffffffffffffff16905060008173ffffffffffffffffffffffffffffffffffffffff16639b0d10fd7f32b7d36eef9191cec628a9b46ddda74b702cf693ad48a065f3f9e5fcc4ea08f560001b6040518263ffffffff1660e01b81526004016103349190611b2a565b602060405180830381865afa158015610351573d6000803e3d6000fd5b505050506040513d601f19601f820116820180604052508101906103759190611b5a565b905060008167ffffffffffffffff81111561039357610392611b87565b5b6040519080825280602002602001820160405280156103c15781602001602082028036833780820191505090505b50905060005b828110156104d25760008473ffffffffffffffffffffffffffffffffffffffff1663619f6cc67f32b7d36eef9191cec628a9b46ddda74b702cf693ad48a065f3f9e5fcc4ea08f560001b846040518363ffffffff1660e01b815260040161042f929190611bb6565b6040805180830381865afa15801561044b573d6000803e3d6000fd5b505050506040513d601f19601f8201168201806040525081019061046f9190611bf4565b5090508083838151811061048657610485611c34565b5b602002602001019073ffffffffffffffffffffffffffffffffffffffff16908173ffffffffffffffffffffffffffffffffffffffff168152505050806104cb90611c92565b90506103c7565b5080935050505090565b60008054906101000a900473ffffffffffffffffffffffffffffffffffffffff1673ffffffffffffffffffffffffffffffffffffffff163373ffffffffffffffffffffffffffffffffffffffff161461053457600080fd5b6000600160009054906101000a900473ffffffffffffffffffffffffffffffffffffffff16905060008173ffffffffffffffffffffffffffffffffffffffff1663a2ccb5227fc94d198e6194ea38dbd900920351d7f8e6c6d85b1d3b803fb93c54be008e11fd60001b866040518363ffffffff1660e01b81526004016105bb929190611d15565b602060405180830381865afa1580156105d8573d6000803e3d6000fd5b505050506040513d601f19601f820116820180604052508101906105fc9190611d3e565b90508073ffffffffffffffffffffffffffffffffffffffff168373ffffffffffffffffffffffffffffffffffffffff160361066c576040517f08c379a000000000000000000000000000000000000000000000000000000000815260040161066390611dee565b60405180910390fd5b8173ffffffffffffffffffffffffffffffffffffffff1663ba4014fd610691866114e1565b8560006040518463ffffffff1660e01b81526004016106b293929190611e49565b6020604051808303816000875af11580156106d1573d6000803e3d6000fd5b505050506040513d601f19601f820116820180604052508101906106f59190611eac565b508173ffffffffffffffffffffffffffffffffffffffff16638142576361071b86611511565b856040518363ffffffff1660e01b8152600401610739929190611ed9565b600060405180830381600087803b15801561075357600080fd5b505af1158015610767573d6000803e3d6000fd5b505050508173ffffffffffffffffffffffffffffffffffffffff1663814257637f18fa4b105101c66136345367eab77cd274c0766ec0596b7e8aadd79e9913955560001b856040518363ffffffff1660e01b81526004016107c9929190611ed9565b600060405180830381600087803b1580156107e357600080fd5b505af11580156107f7573d6000803e3d6000fd5b505050507f5c250b46b4ab7901af16e469d68737ca13fe0eac242b19f323f7d3608565be7f848460405161082c929190611f11565b60405180910390a150505050565b60008054906101000a900473ffffffffffffffffffffffffffffffffffffffff1673ffffffffffffffffffffffffffffffffffffffff163373ffffffffffffffffffffffffffffffffffffffff161461089257600080fd5b600073ffffffffffffffffffffffffffffffffffffffff168173ffffffffffffffffffffffffffffffffffffffff16036108cb57600080fd5b806000806101000a81548173ffffffffffffffffffffffffffffffffffffffff021916908373ffffffffffffffffffffffffffffffffffffffff1602179055507f1f8d7d25344642d919d55999e4664aa452a5f424bc0936ceb9c2b300db7dcbd9338260405161093c929190611f8f565b60405180910390a150565b600260009054906101000a900473ffffffffffffffffffffffffffffffffffffffff1681565b600160009054906101000a900473ffffffffffffffffffffffffffffffffffffffff1681565b7f000000000000000000000000000000000000000000000000000000000000000081565b6109bf6115ef565b6000600160009054906101000a900473ffffffffffffffffffffffffffffffffffffffff1690506000808273ffffffffffffffffffffffffffffffffffffffff16634fcee0497fc94d198e6194ea38dbd900920351d7f8e6c6d85b1d3b803fb93c54be008e11fd60001b876040518363ffffffff1660e01b8152600401610a47929190611bb6565b6040805180830381865afa158015610a63573d6000803e3d6000fd5b505050506040513d601f19601f82011682018060405250810190610a879190611fb8565b915091506000610a9683611511565b905060008473ffffffffffffffffffffffffffffffffffffffff16639b0d10fd836040518263ffffffff1660e01b8152600401610ad39190611b2a565b602060405180830381865afa158015610af0573d6000803e3d6000fd5b505050506040513d601f19601f82011682018060405250810190610b149190611b5a565b905060008167ffffffffffffffff811115610b3257610b31611b87565b5b604051908082528060200260200182016040528015610b605781602001602082028036833780820191505090505b50905060005b82811015610c4e5760008773ffffffffffffffffffffffffffffffffffffffff1663619f6cc686846040518363ffffffff1660e01b8152600401610bab929190611bb6565b6040805180830381865afa158015610bc7573d6000803e3d6000fd5b505050506040513d601f19601f82011682018060405250810190610beb9190611bf4565b50905080838381518110610c0257610c01611c34565b5b602002602001019073ffffffffffffffffffffffffffffffffffffffff16908173ffffffffffffffffffffffffffffffffffffffff16815250505080610c4790611c92565b9050610b66565b506000610c5a866114e1565b905060008773ffffffffffffffffffffffffffffffffffffffff16639b0d10fd836040518263ffffffff1660e01b8152600401610c979190611b2a565b602060405180830381865afa158015610cb4573d6000803e3d6000fd5b505050506040513d601f19601f82011682018060405250810190610cd89190611b5a565b905060008167ffffffffffffffff811115610cf657610cf5611b87565b5b604051908082528060200260200182016040528015610d245781602001602082028036833780820191505090505b50905060005b82811015610e125760008a73ffffffffffffffffffffffffffffffffffffffff1663619f6cc686846040518363ffffffff1660e01b8152600401610d6f929190611bb6565b6040805180830381865afa158015610d8b573d6000803e3d6000fd5b505050506040513d601f19601f82011682018060405250810190610daf9190611bf4565b50905080838381518110610dc657610dc5611c34565b5b602002602001019073ffffffffffffffffffffffffffffffffffffffff16908173ffffffffffffffffffffffffffffffffffffffff16815250505080610e0b90611c92565b9050610d2a565b506040518060a001604052808961ffff168152602001600062ffffff1681526020018873ffffffffffffffffffffffffffffffffffffffff168152602001858152602001828152509950505050505050505050919050565b600080600160009054906101000a900473ffffffffffffffffffffffffffffffffffffffff1690508073ffffffffffffffffffffffffffffffffffffffff1663832860727fc94d198e6194ea38dbd900920351d7f8e6c6d85b1d3b803fb93c54be008e11fd60001b6040518263ffffffff1660e01b8152600401610eee9190611b2a565b602060405180830381865afa158015610f0b573d6000803e3d6000fd5b505050506040513d601f19601f82011682018060405250810190610f2f9190611b5a565b91505090565b60008054906101000a900473ffffffffffffffffffffffffffffffffffffffff1673ffffffffffffffffffffffffffffffffffffffff163373ffffffffffffffffffffffffffffffffffffffff1614610f8d57600080fd5b6000600160009054906101000a900473ffffffffffffffffffffffffffffffffffffffff1690508073ffffffffffffffffffffffffffffffffffffffff1663ba4014fd7f32b7d36eef9191cec628a9b46ddda74b702cf693ad48a065f3f9e5fcc4ea08f560001b8460006040518463ffffffff1660e01b815260040161101593929190611e49565b6020604051808303816000875af1158015611034573d6000803e3d6000fd5b505050506040513d601f19601f820116820180604052508101906110589190611eac565b505050565b60008054906101000a900473ffffffffffffffffffffffffffffffffffffffff1681565b60008054906101000a900473ffffffffffffffffffffffffffffffffffffffff1673ffffffffffffffffffffffffffffffffffffffff163373ffffffffffffffffffffffffffffffffffffffff16146110d957600080fd5b6000600160009054906101000a900473ffffffffffffffffffffffffffffffffffffffff1690508073ffffffffffffffffffffffffffffffffffffffff1663814257637f32b7d36eef9191cec628a9b46ddda74b702cf693ad48a065f3f9e5fcc4ea08f560001b846040518363ffffffff1660e01b815260040161115e929190611ed9565b600060405180830381600087803b15801561117857600080fd5b505af115801561118c573d6000803e3d6000fd5b505050505050565b60008054906101000a900473ffffffffffffffffffffffffffffffffffffffff1673ffffffffffffffffffffffffffffffffffffffff163373ffffffffffffffffffffffffffffffffffffffff16146111ec57600080fd5b6000600160009054906101000a900473ffffffffffffffffffffffffffffffffffffffff1690508073ffffffffffffffffffffffffffffffffffffffff1663107f89ad7fc94d198e6194ea38dbd900920351d7f8e6c6d85b1d3b803fb93c54be008e11fd60001b85856040518463ffffffff1660e01b815260040161127393929190611ff8565b6020604051808303816000875af1158015611292573d6000803e3d6000fd5b505050506040513d601f19601f820116820180604052508101906112b69190611eac565b508073ffffffffffffffffffffffffffffffffffffffff1663ba4014fd6112dc85611511565b8460006040518463ffffffff1660e01b81526004016112fd93929190611e49565b6020604051808303816000875af115801561131c573d6000803e3d6000fd5b505050506040513d601f19601f820116820180604052508101906113409190611eac565b508073ffffffffffffffffffffffffffffffffffffffff1663ba4014fd7f18fa4b105101c66136345367eab77cd274c0766ec0596b7e8aadd79e9913955560001b8460006040518463ffffffff1660e01b81526004016113a293929190611e49565b6020604051808303816000875af11580156113c1573d6000803e3d6000fd5b505050506040513d601f19601f820116820180604052508101906113e59190611eac565b508073ffffffffffffffffffffffffffffffffffffffff16638142576361140b856114e1565b846040518363ffffffff1660e01b8152600401611429929190611ed9565b600060405180830381600087803b15801561144357600080fd5b505af1158015611457573d6000803e3d6000fd5b505050507f5c250b46b4ab7901af16e469d68737ca13fe0eac242b19f323f7d3608565be7f838360405161148c929190611f11565b60405180910390a1505050565b60006114c7600160009054906101000a900473ffffffffffffffffffffffffffffffffffffffff1683611541565b9050919050565b600260149054906101000a900460ff1681565b6000816040516020016114f491906120bc565b604051602081830303815290604052805190602001209050919050565b600081604051602001611524919061212e565b604051602081830303815290604052805190602001209050919050565b6000808390508073ffffffffffffffffffffffffffffffffffffffff1663a2ccb5227fc94d198e6194ea38dbd900920351d7f8e6c6d85b1d3b803fb93c54be008e11fd60001b856040518363ffffffff1660e01b81526004016115a5929190611d15565b602060405180830381865afa1580156115c2573d6000803e3d6000fd5b505050506040513d601f19601f820116820180604052508101906115e69190611d3e565b91505092915050565b6040518060a00160405280600061ffff168152602001600062ffffff168152602001600073ffffffffffffffffffffffffffffffffffffffff16815260200160608152602001606081525090565b600081519050919050565b600082825260208201905092915050565b6000819050602082019050919050565b600073ffffffffffffffffffffffffffffffffffffffff82169050919050565b600061169482611669565b9050919050565b6116a481611689565b82525050565b60006116b6838361169b565b60208301905092915050565b6000602082019050919050565b60006116da8261163d565b6116e48185611648565b93506116ef83611659565b8060005b8381101561172057815161170788826116aa565b9750611712836116c2565b9250506001810190506116f3565b5085935050505092915050565b6000602082019050818103600083015261174781846116cf565b905092915050565b600080fd5b600061ffff82169050919050565b61176b81611754565b811461177657600080fd5b50565b60008135905061178881611762565b92915050565b61179781611689565b81146117a257600080fd5b50565b6000813590506117b48161178e565b92915050565b600080604083850312156117d1576117d061174f565b5b60006117df85828601611779565b92505060206117f0858286016117a5565b9150509250929050565b600061180582611669565b9050919050565b611815816117fa565b811461182057600080fd5b50565b6000813590506118328161180c565b92915050565b60006020828403121561184e5761184d61174f565b5b600061185c84828501611823565b91505092915050565b61186e81611689565b82525050565b60006020820190506118896000830184611865565b92915050565b6000819050919050565b6118a28161188f565b81146118ad57600080fd5b50565b6000813590506118bf81611899565b92915050565b6000602082840312156118db576118da61174f565b5b60006118e9848285016118b0565b91505092915050565b6118fb81611754565b82525050565b600062ffffff82169050919050565b61191981611901565b82525050565b600082825260208201905092915050565b600061193b8261163d565b611945818561191f565b935061195083611659565b8060005b8381101561198157815161196888826116aa565b9750611973836116c2565b925050600181019050611954565b5085935050505092915050565b600060a0830160008301516119a660008601826118f2565b5060208301516119b96020860182611910565b5060408301516119cc604086018261169b565b50606083015184820360608601526119e48282611930565b915050608083015184820360808601526119fe8282611930565b9150508091505092915050565b60006020820190508181036000830152611a25818461198e565b905092915050565b611a368161188f565b82525050565b6000602082019050611a516000830184611a2d565b92915050565b600060208284031215611a6d57611a6c61174f565b5b6000611a7b848285016117a5565b91505092915050565b611a8d816117fa565b82525050565b6000602082019050611aa86000830184611a84565b92915050565b600060208284031215611ac457611ac361174f565b5b6000611ad284828501611779565b91505092915050565b60008115159050919050565b611af081611adb565b82525050565b6000602082019050611b0b6000830184611ae7565b92915050565b6000819050919050565b611b2481611b11565b82525050565b6000602082019050611b3f6000830184611b1b565b92915050565b600081519050611b5481611899565b92915050565b600060208284031215611b7057611b6f61174f565b5b6000611b7e84828501611b45565b91505092915050565b7f4e487b7100000000000000000000000000000000000000000000000000000000600052604160045260246000fd5b6000604082019050611bcb6000830185611b1b565b611bd86020830184611a2d565b9392505050565b600081519050611bee8161178e565b92915050565b60008060408385031215611c0b57611c0a61174f565b5b6000611c1985828601611bdf565b9250506020611c2a85828601611b45565b9150509250929050565b7f4e487b7100000000000000000000000000000000000000000000000000000000600052603260045260246000fd5b7f4e487b7100000000000000000000000000000000000000000000000000000000600052601160045260246000fd5b6000611c9d8261188f565b91507fffffffffffffffffffffffffffffffffffffffffffffffffffffffffffffffff8203611ccf57611cce611c63565b5b600182019050919050565b6000819050919050565b6000611cff611cfa611cf584611754565b611cda565b61188f565b9050919050565b611d0f81611ce4565b82525050565b6000604082019050611d2a6000830185611b1b565b611d376020830184611d06565b9392505050565b600060208284031215611d5457611d5361174f565b5b6000611d6284828501611bdf565b91505092915050565b600082825260208201905092915050565b7f63616e6e6f742072656d6f7665206c617465737420737465702061646472657360008201527f7300000000000000000000000000000000000000000000000000000000000000602082015250565b6000611dd8602183611d6b565b9150611de382611d7c565b604082019050919050565b60006020820190508181036000830152611e0781611dcb565b9050919050565b6000819050919050565b6000611e33611e2e611e2984611e0e565b611cda565b61188f565b9050919050565b611e4381611e18565b82525050565b6000606082019050611e5e6000830186611b1b565b611e6b6020830185611865565b611e786040830184611e3a565b949350505050565b611e8981611adb565b8114611e9457600080fd5b50565b600081519050611ea681611e80565b92915050565b600060208284031215611ec257611ec161174f565b5b6000611ed084828501611e97565b91505092915050565b6000604082019050611eee6000830185611b1b565b611efb6020830184611865565b9392505050565b611f0b81611754565b82525050565b6000604082019050611f266000830185611f02565b611f336020830184611865565b9392505050565b6000611f55611f50611f4b84611669565b611cda565b611669565b9050919050565b6000611f6782611f3a565b9050919050565b6000611f7982611f5c565b9050919050565b611f8981611f6e565b82525050565b6000604082019050611fa46000830185611865565b611fb16020830184611f80565b9392505050565b60008060408385031215611fcf57611fce61174f565b5b6000611fdd85828601611b45565b9250506020611fee85828601611bdf565b9150509250929050565b600060608201905061200d6000830186611b1b565b61201a6020830185611d06565b6120276040830184611865565b949350505050565b600081905092915050565b7f73746570426c61636b4c69737400000000000000000000000000000000000000600082015250565b6000612070600d8361202f565b915061207b8261203a565b600d82019050919050565b60008160f01b9050919050565b600061209e82612086565b9050919050565b6120b66120b182611754565b612093565b82525050565b60006120c782612063565b91506120d382846120a5565b60028201915081905092915050565b7f7374657057686974654c69737400000000000000000000000000000000000000600082015250565b6000612118600d8361202f565b9150612123826120e2565b600d82019050919050565b60006121398261210b565b915061214582846120a5565b6002820191508190509291505056fea2646970667358221220905357e6c563478c691a85aef9d4dc4509b6ce5ed83be236b64479712522efa264736f6c63430008120033",
  "devdoc": {
    "kind": "dev",
    "methods": {},
    "version": 1
  },
  "userdoc": {
    "kind": "user",
    "methods": {},
    "version": 1
  },
  "storageLayout": {
    "storage": [
      {
        "astId": 7577,
        "contract": "contracts/ConfigManager.sol:ConfigManager",
        "label": "owner",
        "offset": 0,
        "slot": "0",
        "type": "t_address_payable"
      },
      {
        "astId": 6255,
        "contract": "contracts/ConfigManager.sol:ConfigManager",
        "label": "eternalStorageAddress",
        "offset": 0,
        "slot": "1",
        "type": "t_address"
      },
      {
        "astId": 6257,
        "contract": "contracts/ConfigManager.sol:ConfigManager",
        "label": "upstreamAddress",
        "offset": 0,
        "slot": "2",
        "type": "t_address"
      },
      {
        "astId": 6259,
        "contract": "contracts/ConfigManager.sol:ConfigManager",
        "label": "isUserProxy",
        "offset": 20,
        "slot": "2",
        "type": "t_bool"
      }
    ],
    "types": {
      "t_address": {
        "encoding": "inplace",
        "label": "address",
        "numberOfBytes": "20"
      },
      "t_address_payable": {
        "encoding": "inplace",
        "label": "address payable",
        "numberOfBytes": "20"
      },
      "t_bool": {
        "encoding": "inplace",
        "label": "bool",
        "numberOfBytes": "1"
      }
    }
  }
}