{
  "address": "0x433007Ba207063FEA449760b43Bdd69c483f3254",
  "abi": [
    {
      "inputs": [
        {
          "internalType": "address payable",
          "name": "frontDoorAddress",
          "type": "address"
        }
      ],
      "stateMutability": "nonpayable",
      "type": "constructor"
    },
    {
      "anonymous": false,
      "inputs": [
        {
          "indexed": false,
          "internalType": "address",
          "name": "sender",
          "type": "address"
        },
        {
          "indexed": false,
          "internalType": "address",
          "name": "newOwner",
          "type": "address"
        }
      ],
      "name": "LogNewOwner",
      "type": "event"
    },
    {
      "anonymous": false,
      "inputs": [
        {
          "components": [
            {
              "internalType": "enum AssetType",
              "name": "assetType",
              "type": "uint8"
            },
            {
              "internalType": "address",
              "name": "assetAddress",
              "type": "address"
            }
          ],
          "indexed": false,
          "internalType": "struct Asset",
          "name": "asset",
          "type": "tuple"
        },
        {
          "indexed": false,
          "internalType": "uint256",
          "name": "totalAmount",
          "type": "uint256"
        },
        {
          "indexed": false,
          "internalType": "uint256",
          "name": "feeAmount",
          "type": "uint256"
        },
        {
          "indexed": false,
          "internalType": "uint256",
          "name": "userAmount",
          "type": "uint256"
        }
      ],
      "name": "RemainingAsset",
      "type": "event"
    },
    {
      "anonymous": false,
      "inputs": [
        {
          "indexed": false,
          "internalType": "uint256",
          "name": "nonce",
          "type": "uint256"
        },
        {
          "indexed": false,
          "internalType": "address",
          "name": "userAddress",
          "type": "address"
        },
        {
          "components": [
            {
              "components": [
                {
                  "internalType": "enum AssetType",
                  "name": "assetType",
                  "type": "uint8"
                },
                {
                  "internalType": "address",
                  "name": "assetAddress",
                  "type": "address"
                }
              ],
              "internalType": "struct Asset",
              "name": "asset",
              "type": "tuple"
            },
            {
              "internalType": "uint256",
              "name": "amount",
              "type": "uint256"
            }
          ],
          "indexed": false,
          "internalType": "struct AssetAmount[]",
          "name": "startingAssets",
          "type": "tuple[]"
        }
      ],
      "name": "WorkflowContinuation",
      "type": "event"
    },
    {
      "anonymous": false,
      "inputs": [
        {
          "indexed": false,
          "internalType": "address",
          "name": "userAddress",
          "type": "address"
        },
        {
          "components": [
            {
              "internalType": "address",
              "name": "workflowRunnerAddress",
              "type": "address"
            },
            {
              "components": [
                {
                  "internalType": "uint16",
                  "name": "stepTypeId",
                  "type": "uint16"
                },
                {
                  "internalType": "address",
                  "name": "stepAddress",
                  "type": "address"
                },
                {
                  "components": [
                    {
                      "internalType": "bool",
                      "name": "sourceIsCaller",
                      "type": "bool"
                    },
                    {
                      "internalType": "bool",
                      "name": "amountIsPercent",
                      "type": "bool"
                    },
                    {
                      "components": [
                        {
                          "internalType": "enum AssetType",
                          "name": "assetType",
                          "type": "uint8"
                        },
                        {
                          "internalType": "address",
                          "name": "assetAddress",
                          "type": "address"
                        }
                      ],
                      "internalType": "struct Asset",
                      "name": "asset",
                      "type": "tuple"
                    },
                    {
                      "internalType": "uint256",
                      "name": "amount",
                      "type": "uint256"
                    }
                  ],
                  "internalType": "struct WorkflowStepInputAsset[]",
                  "name": "inputAssets",
                  "type": "tuple[]"
                },
                {
                  "internalType": "bytes",
                  "name": "argData",
                  "type": "bytes"
                },
                {
                  "internalType": "int16",
                  "name": "nextStepIndex",
                  "type": "int16"
                }
              ],
              "internalType": "struct WorkflowStep[]",
              "name": "steps",
              "type": "tuple[]"
            },
            {
              "components": [
                {
                  "internalType": "uint16",
                  "name": "stepTypeId",
                  "type": "uint16"
                },
                {
                  "internalType": "address",
                  "name": "stepAddress",
                  "type": "address"
                },
                {
                  "internalType": "bytes",
                  "name": "argData",
                  "type": "bytes"
                }
              ],
              "internalType": "struct BeforeAfter[]",
              "name": "beforeAll",
              "type": "tuple[]"
            },
            {
              "components": [
                {
                  "internalType": "uint16",
                  "name": "stepTypeId",
                  "type": "uint16"
                },
                {
                  "internalType": "address",
                  "name": "stepAddress",
                  "type": "address"
                },
                {
                  "internalType": "bytes",
                  "name": "argData",
                  "type": "bytes"
                }
              ],
              "internalType": "struct BeforeAfter[]",
              "name": "afterAll",
              "type": "tuple[]"
            }
          ],
          "indexed": false,
          "internalType": "struct Workflow",
          "name": "workflow",
          "type": "tuple"
        }
      ],
      "name": "WorkflowExecution",
      "type": "event"
    },
    {
      "anonymous": false,
      "inputs": [
        {
          "indexed": false,
          "internalType": "uint16",
          "name": "stepIndex",
          "type": "uint16"
        },
        {
          "components": [
            {
              "internalType": "uint16",
              "name": "stepTypeId",
              "type": "uint16"
            },
            {
              "internalType": "address",
              "name": "stepAddress",
              "type": "address"
            },
            {
              "components": [
                {
                  "internalType": "bool",
                  "name": "sourceIsCaller",
                  "type": "bool"
                },
                {
                  "internalType": "bool",
                  "name": "amountIsPercent",
                  "type": "bool"
                },
                {
                  "components": [
                    {
                      "internalType": "enum AssetType",
                      "name": "assetType",
                      "type": "uint8"
                    },
                    {
                      "internalType": "address",
                      "name": "assetAddress",
                      "type": "address"
                    }
                  ],
                  "internalType": "struct Asset",
                  "name": "asset",
                  "type": "tuple"
                },
                {
                  "internalType": "uint256",
                  "name": "amount",
                  "type": "uint256"
                }
              ],
              "internalType": "struct WorkflowStepInputAsset[]",
              "name": "inputAssets",
              "type": "tuple[]"
            },
            {
              "internalType": "bytes",
              "name": "argData",
              "type": "bytes"
            },
            {
              "internalType": "int16",
              "name": "nextStepIndex",
              "type": "int16"
            }
          ],
          "indexed": false,
          "internalType": "struct WorkflowStep",
          "name": "step",
          "type": "tuple"
        },
        {
          "indexed": false,
          "internalType": "uint16",
          "name": "stepTypeId",
          "type": "uint16"
        },
        {
          "indexed": false,
          "internalType": "address",
          "name": "stepAddress",
          "type": "address"
        },
        {
          "components": [
            {
              "components": [
                {
                  "internalType": "enum AssetType",
                  "name": "assetType",
                  "type": "uint8"
                },
                {
                  "internalType": "address",
                  "name": "assetAddress",
                  "type": "address"
                }
              ],
              "internalType": "struct Asset",
              "name": "asset",
              "type": "tuple"
            },
            {
              "internalType": "uint256",
              "name": "amount",
              "type": "uint256"
            }
          ],
          "indexed": false,
          "internalType": "struct AssetAmount[]",
          "name": "inputAssetAmounts",
          "type": "tuple[]"
        },
        {
          "components": [
            {
              "components": [
                {
                  "components": [
                    {
                      "internalType": "enum AssetType",
                      "name": "assetType",
                      "type": "uint8"
                    },
                    {
                      "internalType": "address",
                      "name": "assetAddress",
                      "type": "address"
                    }
                  ],
                  "internalType": "struct Asset",
                  "name": "asset",
                  "type": "tuple"
                },
                {
                  "internalType": "uint256",
                  "name": "amount",
                  "type": "uint256"
                }
              ],
              "internalType": "struct AssetAmount[]",
              "name": "inputAssetAmounts",
              "type": "tuple[]"
            },
            {
              "components": [
                {
                  "components": [
                    {
                      "internalType": "enum AssetType",
                      "name": "assetType",
                      "type": "uint8"
                    },
                    {
                      "internalType": "address",
                      "name": "assetAddress",
                      "type": "address"
                    }
                  ],
                  "internalType": "struct Asset",
                  "name": "asset",
                  "type": "tuple"
                },
                {
                  "internalType": "uint256",
                  "name": "amount",
                  "type": "uint256"
                }
              ],
              "internalType": "struct AssetAmount[]",
              "name": "outputAssetAmounts",
              "type": "tuple[]"
            },
            {
              "components": [
                {
                  "components": [
                    {
                      "internalType": "enum AssetType",
                      "name": "assetType",
                      "type": "uint8"
                    },
                    {
                      "internalType": "address",
                      "name": "assetAddress",
                      "type": "address"
                    }
                  ],
                  "internalType": "struct Asset",
                  "name": "asset",
                  "type": "tuple"
                },
                {
                  "internalType": "uint256",
                  "name": "amount",
                  "type": "uint256"
                }
              ],
              "internalType": "struct AssetAmount[]",
              "name": "outputAssetAmountsToCaller",
              "type": "tuple[]"
            },
            {
              "internalType": "int16",
              "name": "nextStepIndex",
              "type": "int16"
            },
            {
              "internalType": "int24",
              "name": "fee",
              "type": "int24"
            }
          ],
          "indexed": false,
          "internalType": "struct WorkflowStepResult",
          "name": "result",
          "type": "tuple"
        },
        {
          "indexed": false,
          "internalType": "uint256[]",
          "name": "feesTaken",
          "type": "uint256[]"
        }
      ],
      "name": "WorkflowStepExecution",
      "type": "event"
    },
    {
      "inputs": [
        {
          "internalType": "address",
          "name": "userAddress",
          "type": "address"
        },
        {
          "internalType": "uint256",
          "name": "nonce",
          "type": "uint256"
        },
        {
          "components": [
            {
              "internalType": "address",
              "name": "workflowRunnerAddress",
              "type": "address"
            },
            {
              "components": [
                {
                  "internalType": "uint16",
                  "name": "stepTypeId",
                  "type": "uint16"
                },
                {
                  "internalType": "address",
                  "name": "stepAddress",
                  "type": "address"
                },
                {
                  "components": [
                    {
                      "internalType": "bool",
                      "name": "sourceIsCaller",
                      "type": "bool"
                    },
                    {
                      "internalType": "bool",
                      "name": "amountIsPercent",
                      "type": "bool"
                    },
                    {
                      "components": [
                        {
                          "internalType": "enum AssetType",
                          "name": "assetType",
                          "type": "uint8"
                        },
                        {
                          "internalType": "address",
                          "name": "assetAddress",
                          "type": "address"
                        }
                      ],
                      "internalType": "struct Asset",
                      "name": "asset",
                      "type": "tuple"
                    },
                    {
                      "internalType": "uint256",
                      "name": "amount",
                      "type": "uint256"
                    }
                  ],
                  "internalType": "struct WorkflowStepInputAsset[]",
                  "name": "inputAssets",
                  "type": "tuple[]"
                },
                {
                  "internalType": "bytes",
                  "name": "argData",
                  "type": "bytes"
                },
                {
                  "internalType": "int16",
                  "name": "nextStepIndex",
                  "type": "int16"
                }
              ],
              "internalType": "struct WorkflowStep[]",
              "name": "steps",
              "type": "tuple[]"
            },
            {
              "components": [
                {
                  "internalType": "uint16",
                  "name": "stepTypeId",
                  "type": "uint16"
                },
                {
                  "internalType": "address",
                  "name": "stepAddress",
                  "type": "address"
                },
                {
                  "internalType": "bytes",
                  "name": "argData",
                  "type": "bytes"
                }
              ],
              "internalType": "struct BeforeAfter[]",
              "name": "beforeAll",
              "type": "tuple[]"
            },
            {
              "components": [
                {
                  "internalType": "uint16",
                  "name": "stepTypeId",
                  "type": "uint16"
                },
                {
                  "internalType": "address",
                  "name": "stepAddress",
                  "type": "address"
                },
                {
                  "internalType": "bytes",
                  "name": "argData",
                  "type": "bytes"
                }
              ],
              "internalType": "struct BeforeAfter[]",
              "name": "afterAll",
              "type": "tuple[]"
            }
          ],
          "internalType": "struct Workflow",
          "name": "workflow",
          "type": "tuple"
        },
        {
          "components": [
            {
              "components": [
                {
                  "internalType": "enum AssetType",
                  "name": "assetType",
                  "type": "uint8"
                },
                {
                  "internalType": "address",
                  "name": "assetAddress",
                  "type": "address"
                }
              ],
              "internalType": "struct Asset",
              "name": "asset",
              "type": "tuple"
            },
            {
              "internalType": "uint256",
              "name": "amount",
              "type": "uint256"
            }
          ],
          "internalType": "struct AssetAmount[]",
          "name": "startingAssets",
          "type": "tuple[]"
        }
      ],
      "name": "continueWorkflow",
      "outputs": [],
      "stateMutability": "payable",
      "type": "function"
    },
    {
      "inputs": [],
      "name": "eternalStorageAddress",
      "outputs": [
        {
          "internalType": "address",
          "name": "",
          "type": "address"
        }
      ],
      "stateMutability": "view",
      "type": "function"
    },
    {
      "inputs": [
        {
          "components": [
            {
              "internalType": "address",
              "name": "workflowRunnerAddress",
              "type": "address"
            },
            {
              "components": [
                {
                  "internalType": "uint16",
                  "name": "stepTypeId",
                  "type": "uint16"
                },
                {
                  "internalType": "address",
                  "name": "stepAddress",
                  "type": "address"
                },
                {
                  "components": [
                    {
                      "internalType": "bool",
                      "name": "sourceIsCaller",
                      "type": "bool"
                    },
                    {
                      "internalType": "bool",
                      "name": "amountIsPercent",
                      "type": "bool"
                    },
                    {
                      "components": [
                        {
                          "internalType": "enum AssetType",
                          "name": "assetType",
                          "type": "uint8"
                        },
                        {
                          "internalType": "address",
                          "name": "assetAddress",
                          "type": "address"
                        }
                      ],
                      "internalType": "struct Asset",
                      "name": "asset",
                      "type": "tuple"
                    },
                    {
                      "internalType": "uint256",
                      "name": "amount",
                      "type": "uint256"
                    }
                  ],
                  "internalType": "struct WorkflowStepInputAsset[]",
                  "name": "inputAssets",
                  "type": "tuple[]"
                },
                {
                  "internalType": "bytes",
                  "name": "argData",
                  "type": "bytes"
                },
                {
                  "internalType": "int16",
                  "name": "nextStepIndex",
                  "type": "int16"
                }
              ],
              "internalType": "struct WorkflowStep[]",
              "name": "steps",
              "type": "tuple[]"
            },
            {
              "components": [
                {
                  "internalType": "uint16",
                  "name": "stepTypeId",
                  "type": "uint16"
                },
                {
                  "internalType": "address",
                  "name": "stepAddress",
                  "type": "address"
                },
                {
                  "internalType": "bytes",
                  "name": "argData",
                  "type": "bytes"
                }
              ],
              "internalType": "struct BeforeAfter[]",
              "name": "beforeAll",
              "type": "tuple[]"
            },
            {
              "components": [
                {
                  "internalType": "uint16",
                  "name": "stepTypeId",
                  "type": "uint16"
                },
                {
                  "internalType": "address",
                  "name": "stepAddress",
                  "type": "address"
                },
                {
                  "internalType": "bytes",
                  "name": "argData",
                  "type": "bytes"
                }
              ],
              "internalType": "struct BeforeAfter[]",
              "name": "afterAll",
              "type": "tuple[]"
            }
          ],
          "internalType": "struct Workflow",
          "name": "workflow",
          "type": "tuple"
        }
      ],
      "name": "executeWorkflow",
      "outputs": [],
      "stateMutability": "payable",
      "type": "function"
    },
    {
      "inputs": [
        {
          "internalType": "uint16",
          "name": "stepTypeId",
          "type": "uint16"
        }
      ],
      "name": "getStepAddress",
      "outputs": [
        {
          "internalType": "address",
          "name": "",
          "type": "address"
        }
      ],
      "stateMutability": "view",
      "type": "function"
    },
    {
      "inputs": [],
      "name": "isUserProxy",
      "outputs": [
        {
          "internalType": "bool",
          "name": "",
          "type": "bool"
        }
      ],
      "stateMutability": "view",
      "type": "function"
    },
    {
      "inputs": [],
      "name": "owner",
      "outputs": [
        {
          "internalType": "address payable",
          "name": "",
          "type": "address"
        }
      ],
      "stateMutability": "view",
      "type": "function"
    },
    {
      "inputs": [
        {
          "internalType": "address payable",
          "name": "newOwner",
          "type": "address"
        }
      ],
      "name": "setOwner",
      "outputs": [],
      "stateMutability": "nonpayable",
      "type": "function"
    },
    {
      "inputs": [],
      "name": "upstreamAddress",
      "outputs": [
        {
          "internalType": "address",
          "name": "",
          "type": "address"
        }
      ],
      "stateMutability": "view",
      "type": "function"
    }
  ],
  "transactionHash": "0xb2721d4362cb1a091583d8d3bba7e67afdfdbdae07bdbb3b9f2a468eafc989c1",
  "args": [
    "0x5DE1dF35467c24C024E598ae6a2FB98240e62EC7"
  ],
  "numDeployments": 11,
  "solcInputHash": "11dd9d47cb88433a6594ebb4be07927a",
  "bytecode": "0x60806040523480156200001157600080fd5b5060405162005db038038062005db0833981810160405281019062000037919062000208565b338173ffffffffffffffffffffffffffffffffffffffff1663384782fe6040518163ffffffff1660e01b8152600401602060405180830381865afa15801562000084573d6000803e3d6000fd5b505050506040513d601f19601f82011682018060405250810190620000aa91906200027f565b60008083806000806101000a81548173ffffffffffffffffffffffffffffffffffffffff021916908373ffffffffffffffffffffffffffffffffffffffff1602179055505082600160006101000a81548173ffffffffffffffffffffffffffffffffffffffff021916908373ffffffffffffffffffffffffffffffffffffffff16021790555081600260006101000a81548173ffffffffffffffffffffffffffffffffffffffff021916908373ffffffffffffffffffffffffffffffffffffffff16021790555080600260146101000a81548160ff02191690831515021790555050505050600160038190555050620002b1565b600080fd5b600073ffffffffffffffffffffffffffffffffffffffff82169050919050565b6000620001d082620001a3565b9050919050565b620001e281620001c3565b8114620001ee57600080fd5b50565b6000815190506200020281620001d7565b92915050565b6000602082840312156200022157620002206200019e565b5b60006200023184828501620001f1565b91505092915050565b60006200024782620001a3565b9050919050565b62000259816200023a565b81146200026557600080fd5b50565b60008151905062000279816200024e565b92915050565b6000602082840312156200029857620002976200019e565b5b6000620002a88482850162000268565b91505092915050565b615aef80620002c16000396000f3fe60806040526004361061007b5760003560e01c806349bc3bda1161004e57806349bc3bda1461011b5780638da5cb5b14610137578063f903397714610162578063ff05c2a81461019f5761007b565b806313af4035146100805780631c7b2649146100a957806332b56aaf146100c5578063384782fe146100f0575b600080fd5b34801561008c57600080fd5b506100a760048036038101906100a29190613032565b6101ca565b005b6100c360048036038101906100be9190613968565b6102d7565b005b3480156100d157600080fd5b506100da610623565b6040516100e79190613a16565b60405180910390f35b3480156100fc57600080fd5b50610105610649565b6040516101129190613a16565b60405180910390f35b61013560048036038101906101309190613a55565b61066f565b005b34801561014357600080fd5b5061014c610763565b6040516101599190613aad565b60405180910390f35b34801561016e57600080fd5b5061018960048036038101906101849190613ac8565b610787565b6040516101969190613a16565b60405180910390f35b3480156101ab57600080fd5b506101b46107bc565b6040516101c19190613b04565b60405180910390f35b60008054906101000a900473ffffffffffffffffffffffffffffffffffffffff1673ffffffffffffffffffffffffffffffffffffffff163373ffffffffffffffffffffffffffffffffffffffff161461022257600080fd5b600073ffffffffffffffffffffffffffffffffffffffff168173ffffffffffffffffffffffffffffffffffffffff160361025b57600080fd5b806000806101000a81548173ffffffffffffffffffffffffffffffffffffffff021916908373ffffffffffffffffffffffffffffffffffffffff1602179055507f1f8d7d25344642d919d55999e4664aa452a5f424bc0936ceb9c2b300db7dcbd933826040516102cc929190613b7e565b60405180910390a150565b610303600160009054906101000a900473ffffffffffffffffffffffffffffffffffffffff16336107cf565b610342576040517f08c379a000000000000000000000000000000000000000000000000000000000815260040161033990613c04565b60405180910390fd5b7f5395b5ba48dc644bb58ac1718afd89140de72f86e36ea5c491a7a5d19fd7bc2983858360405161037593929190613dd5565b60405180910390a160005b8151811015610611576000600281111561039d5761039c613c5f565b5b8282815181106103b0576103af613e13565b5b6020026020010151600001516000015160028111156103d2576103d1613c5f565b5b0361043d578181815181106103ea576103e9613e13565b5b602002602001015160200151341015610438576040517f08c379a000000000000000000000000000000000000000000000000000000000815260040161042f90613eb4565b60405180910390fd5b610600565b6001600281111561045157610450613c5f565b5b82828151811061046457610463613e13565b5b60200260200101516000015160000151600281111561048657610485613c5f565b5b036105c45760008282815181106104a05761049f613e13565b5b60200260200101516000015160200151905060008173ffffffffffffffffffffffffffffffffffffffff1663dd62ed3e33306040518363ffffffff1660e01b81526004016104ef929190613ed4565b602060405180830381865afa15801561050c573d6000803e3d6000fd5b505050506040513d601f19601f820116820180604052508101906105309190613f12565b905083838151811061054557610544613e13565b5b602002602001015160200151811015610593576040517f08c379a000000000000000000000000000000000000000000000000000000000815260040161058a90613f8b565b60405180910390fd5b6105bd8233308787815181106105ac576105ab613e13565b5b60200260200101516020015161087d565b50506105ff565b6040517f08c379a00000000000000000000000000000000000000000000000000000000081526004016105f69061401d565b60405180910390fd5b5b8061060a9061406c565b9050610380565b5061061d848383610906565b50505050565b600260009054906101000a900473ffffffffffffffffffffffffffffffffffffffff1681565b600160009054906101000a900473ffffffffffffffffffffffffffffffffffffffff1681565b610677610e5f565b6000600167ffffffffffffffff811115610694576106936130e9565b5b6040519080825280602002602001820160405280156106cd57816020015b6106ba612eb0565b8152602001906001900390816106b25790505b50905060405180604001604052806040518060400160405280600060028111156106fa576106f9613c5f565b5b8152602001600073ffffffffffffffffffffffffffffffffffffffff16815250815260200160008152508160008151811061073857610737613e13565b5b60200260200101819052506107573383610751906140b4565b83610906565b50610760610eae565b50565b60008054906101000a900473ffffffffffffffffffffffffffffffffffffffff1681565b60006107b5600160009054906101000a900473ffffffffffffffffffffffffffffffffffffffff1683610eb8565b9050919050565b600260149054906101000a900460ff1681565b6000808390508073ffffffffffffffffffffffffffffffffffffffff1663931281367f18fa4b105101c66136345367eab77cd274c0766ec0596b7e8aadd79e9913955560001b856040518363ffffffff1660e01b81526004016108339291906140e0565b602060405180830381865afa158015610850573d6000803e3d6000fd5b505050506040513d601f19601f82011682018060405250810190610874919061411e565b91505092915050565b610900846323b872dd60e01b85858560405160240161089e9392919061414b565b604051602081830303815290604052907bffffffffffffffffffffffffffffffffffffffffffffffffffffffff19166020820180517bffffffffffffffffffffffffffffffffffffffffffffffffffffffff8381831617835250505050610f66565b50505050565b7f7d0ad34b602eae9f7989c0d4098383fc3f6a4f75fdb79860c0f58b2c08c4e64d83836040516109379291906145f4565b60405180910390a16000610949612ed0565b60003414610968576109676000348361102d9092919063ffffffff16565b5b60005b83518110156109d257600084828151811061098957610988613e13565b5b602002602001015190506000816020015111156109be576109bd816000015182602001518561112d9092919063ffffffff16565b5b5080806109ca9061406c565b91505061096b565b506109dc84611145565b6000610a0a600160009054906101000a900473ffffffffffffffffffffffffffffffffffffffff1633611199565b9050600081905060008660200151511115610e42575b600115610e4157600086602001518561ffff1681518110610a4457610a43613e13565b5b60200260200101519050600161ffff16816000015161ffff1610158015610a785750600361ffff16816000015161ffff1611155b15610b15576000600161ffff16826000015161ffff1603610aa357610a9c8261123f565b9050610ada565b600261ffff16826000015161ffff1603610aca57610ac382866000611282565b9050610ad9565b610ad682866001611282565b90505b5b7fffffffffffffffffffffffffffffffffffffffffffffffffffffffffffffffff8160010b03610b0b575050610e41565b8095505050610a20565b6000610b29826020015183600001516113e4565b90506000610b3c8a8785604001516114c8565b90506000610b4f83838660600151611675565b905060005b816000015151811015610bcb57610bba82600001518281518110610b7b57610b7a613e13565b5b60200260200101516000015183600001518381518110610b9e57610b9d613e13565b5b6020026020010151602001518a6117c49092919063ffffffff16565b80610bc49061406c565b9050610b54565b50600080600090507fffffffffffffffffffffffffffffffffffffffffffffffffffffffffffffffff836080015160020b14610c1857826080015162ffffff169050600081119150610c51565b610c48600160009054906101000a900473ffffffffffffffffffffffffffffffffffffffff1687600001516117dc565b80935081925050505b600083602001515167ffffffffffffffff811115610c7257610c716130e9565b5b604051908082528060200260200182016040528015610ca05781602001602082028036833780820191505090505b50905060005b846020015151811015610dac5760008a15610cc45760009050610d02565b8415610cfd57610cf686602001518381518110610ce457610ce3613e13565b5b6020026020010151602001518561187a565b9050610d01565b8390505b5b8980610d0e5750600081115b995060008187602001518481518110610d2a57610d29613e13565b5b602002602001015160200151610d409190614624565b9050610d7987602001518481518110610d5c57610d5b613e13565b5b602002602001015160000151828f61112d9092919063ffffffff16565b81848481518110610d8d57610d8c613e13565b5b602002602001018181525050505080610da59061406c565b9050610ca6565b507f612127ca0f87d045e672ff8b536bb955c143468c74f3bd05127b716e676df0198b88896000015189898987604051610dec97969594939291906148a2565b60405180910390a17fffffffffffffffffffffffffffffffffffffffffffffffffffffffffffffffff876080015160010b03610e2e5750505050505050610e41565b86608001519a5050505050505050610a20565b5b610e4b866118f7565b610e5687848361194b565b50505050505050565b600260035403610ea4576040517f08c379a0000000000000000000000000000000000000000000000000000000008152600401610e9b90614979565b60405180910390fd5b6002600381905550565b6001600381905550565b6000808390508073ffffffffffffffffffffffffffffffffffffffff1663a2ccb5227fc94d198e6194ea38dbd900920351d7f8e6c6d85b1d3b803fb93c54be008e11fd60001b856040518363ffffffff1660e01b8152600401610f1c9291906149ca565b602060405180830381865afa158015610f39573d6000803e3d6000fd5b505050506040513d601f19601f82011682018060405250810190610f5d9190614a08565b91505092915050565b6000610fc8826040518060400160405280602081526020017f5361666545524332303a206c6f772d6c6576656c2063616c6c206661696c65648152508573ffffffffffffffffffffffffffffffffffffffff16611bcf9092919063ffffffff16565b90506000815111156110285780806020019051810190610fe8919061411e565b611027576040517f08c379a000000000000000000000000000000000000000000000000000000000815260040161101e90614aa7565b60405180910390fd5b5b505050565b60008111156111285760006110428484611be7565b9050600080611070866000015184600a811061106157611060613e13565b5b60200201516020015185611cfd565b91509150816110da576110d96040518060400160405280600681526020017f637265646974000000000000000000000000000000000000000000000000000081525086886000015186600a81106110ca576110c9613e13565b5b60200201516020015187611d2c565b5b80866000015184600a81106110f2576110f1613e13565b5b6020020151602001818152505083866000015184600a811061111757611116613e13565b5b602002015160400181815250505050505b505050565b6111408361113a84611ded565b8361102d565b505050565b60005b8160400151518110156111955761118463b4110e0a60e01b8360400151838151811061117757611176613e13565b5b6020026020010151611e08565b8061118e9061406c565b9050611148565b5050565b60008273ffffffffffffffffffffffffffffffffffffffff1663931281367f948010e77eb10f7971665add956670a8ef333384c23ce885d3f97f3020357b5d846040518363ffffffff1660e01b81526004016111f69291906140e0565b602060405180830381865afa158015611213573d6000803e3d6000fd5b505050506040513d601f19601f82011682018060405250810190611237919061411e565b905092915050565b600080826060015180602001905181019061125a9190614b2c565b90504681600001510361127457806020015191505061127d565b82608001519150505b919050565b600080846060015180602001905181019061129d9190614c5b565b905060008160200151905060006112b8868460000151611f48565b905060008060028111156112cf576112ce613c5f565b5b8660028111156112e2576112e1613c5f565b5b036112f35781602001519050611334565b6001600281111561130757611306613c5f565b5b86600281111561131a57611319613c5f565b5b0361132b5781604001519050611333565b816060015190505b5b60008460400151905060008460008114611375576001811461137f576002811461138a576003811461139457600481146113a257600581146113ac576113b6565b82841491506113b6565b8284141991506113b6565b82841091506113b6565b8284108385141791506113b6565b82841191506113b6565b8284118385141791505b5080156113cf57856060015196505050505050506113dd565b896080015196505050505050505b9392505050565b60008073ffffffffffffffffffffffffffffffffffffffff168373ffffffffffffffffffffffffffffffffffffffff160361144c57611445600160009054906101000a900473ffffffffffffffffffffffffffffffffffffffff1683610eb8565b90506114c2565b600061147b600160009054906101000a900473ffffffffffffffffffffffffffffffffffffffff16848661200a565b9050806114bd576040517f08c379a00000000000000000000000000000000000000000000000000000000081526004016114b490614cd4565b60405180910390fd5b839150505b92915050565b60606000825167ffffffffffffffff8111156114e7576114e66130e9565b5b60405190808252806020026020018201604052801561152057816020015b61150d612eb0565b8152602001906001900390816115055790505b50905060005b835181101561166957600084828151811061154457611543613e13565b5b60200260200101519050806040015183838151811061156657611565613e13565b5b60200260200101516000018190525080600001511561158b5761158a87828861209e565b5b60006115a482604001518861229b90919063ffffffff16565b90508160200151156115e6576115be81836060015161187a565b8484815181106115d1576115d0613e13565b5b60200260200101516020018181525050611656565b816060015181101561162d576040517f08c379a000000000000000000000000000000000000000000000000000000000815260040161162490614d66565b60405180910390fd5b816060015184848151811061164557611644613e13565b5b602002602001015160200181815250505b5050806116629061406c565b9050611526565b50809150509392505050565b61167d612ef3565b6000808573ffffffffffffffffffffffffffffffffffffffff16637bb26ca760e01b86866040516024016116b2929190614dd0565b604051602081830303815290604052907bffffffffffffffffffffffffffffffffffffffffffffffffffffffff19166020820180517bffffffffffffffffffffffffffffffffffffffffffffffffffffffff838183161783525050505060405161171c9190614e43565b600060405180830381855af49150503d8060008114611757576040519150601f19603f3d011682016040523d82523d6000602084013e61175c565b606091505b50915091508181906117a4576040517f08c379a000000000000000000000000000000000000000000000000000000000815260040161179b9190614e9e565b60405180910390fd5b50808060200190518101906117b991906150b3565b925050509392505050565b6117d7836117d184611ded565b836122b3565b505050565b60008060008473ffffffffffffffffffffffffffffffffffffffff1663bd02d0f5611806866123b3565b6040518263ffffffff1660e01b815260040161182291906150fc565b602060405180830381865afa15801561183f573d6000803e3d6000fd5b505050506040513d601f19601f820116820180604052508101906118639190613f12565b905061186e8161241a565b92509250509250929050565b6000816000111580156118905750620186a08211155b6118cf576040517f08c379a00000000000000000000000000000000000000000000000000000000081526004016118c690615189565b60405180910390fd5b600082846118dd91906151a9565b9050620186a0816118ee919061521a565b91505092915050565b60005b8160600151518110156119475761193663d538a14460e01b8360600151838151811061192957611928613e13565b5b6020026020010151611e08565b806119409061406c565b90506118fa565b5050565b60008082156119615760009150600090506119a4565b61198c600160009054906101000a900473ffffffffffffffffffffffffffffffffffffffff1661247b565b80925081935050508080156119a15750600082115b90505b60005b6119b085612516565b60ff168160ff161015611bc75760006119d2828761252490919063ffffffff16565b9050600081600001519050600084156119fa576119f383602001518761187a565b90506119fe565b8590505b600081846020015110611a2057818460200151611a1b9190614624565b611a26565b83602001515b90507fb57bad0019da5831064de8f296d1458a6ca8403646dd9c362e9ddbb588cb52c08385602001518484604051611a61949392919061527a565b60405180910390a160006002811115611a7d57611a7c613c5f565b5b83600001516002811115611a9457611a93613c5f565b5b03611b2c578360200151471015611ae0576040517f08c379a0000000000000000000000000000000000000000000000000000000008152600401611ad790615331565b60405180910390fd5b8973ffffffffffffffffffffffffffffffffffffffff166108fc829081150290604051600060405180830381858888f19350505050158015611b26573d6000803e3d6000fd5b50611bb2565b60016002811115611b4057611b3f613c5f565b5b83600001516002811115611b5757611b56613c5f565b5b03611b7657600083602001519050611b70818c846125e7565b50611bb1565b6040517f08c379a0000000000000000000000000000000000000000000000000000000008152600401611ba8906153c3565b60405180910390fd5b5b5050505080611bc0906153f0565b90506119a7565b505050505050565b6060611bde848460008561266d565b90509392505050565b600080600090505b836020015160ff16811015611c3e5782846000015182600a8110611c1657611c15613e13565b5b60200201516000015103611c2d5780915050611cf7565b80611c379061406c565b9050611bef565b50600a60ff16836020015160ff1610611c8c576040517f08c379a0000000000000000000000000000000000000000000000000000000008152600401611c8390615465565b60405180910390fd5b6040518060800160405280838152602001600081526020016000815260200160008152508360000151846020015160ff16600a8110611cce57611ccd613e13565b5b6020020181905250826020018051809190611ce8906153f0565b60ff1660ff1681525060ff1690505b92915050565b6000806000838501905084811015611d1c576000809250925050611d25565b60018192509250505b9250929050565b6000611d378461273a565b905084611d5982600001516002811115611d5457611d53613c5f565b5b6127ac565b611d7c836020015173ffffffffffffffffffffffffffffffffffffffff1661287a565b611d85866127ac565b611d8e866127ac565b604051602001611da2959493929190615559565b6040516020818303038152906040526040517f08c379a0000000000000000000000000000000000000000000000000000000008152600401611de49190614e9e565b60405180910390fd5b6000611e0182600001518360200151612898565b9050919050565b6000611e1c826020015183600001516113e4565b90506000808273ffffffffffffffffffffffffffffffffffffffff16858560400151604051602401611e4e91906155e0565b604051602081830303815290604052907bffffffffffffffffffffffffffffffffffffffffffffffffffffffff19166020820180517bffffffffffffffffffffffffffffffffffffffffffffffffffffffff8381831617835250505050604051611eb89190614e43565b600060405180830381855af49150503d8060008114611ef3576040519150601f19603f3d011682016040523d82523d6000602084013e611ef8565b606091505b5091509150818190611f40576040517f08c379a0000000000000000000000000000000000000000000000000000000008152600401611f379190614e9e565b60405180910390fd5b505050505050565b611f50612f28565b6000836000015190506000611f6484611ded565b905060005b856020015160ff168161ffff161015611fd95781838261ffff16600a8110611f9457611f93613e13565b5b60200201516000015103611fc857828161ffff16600a8110611fb957611fb8613e13565b5b60200201519350505050612004565b80611fd290615602565b9050611f69565b5060405180608001604052806000815260200160008152602001600081526020016000815250925050505b92915050565b6000808490508073ffffffffffffffffffffffffffffffffffffffff166393128136612035866128ee565b856040518363ffffffff1660e01b81526004016120539291906140e0565b602060405180830381865afa158015612070573d6000803e3d6000fd5b505050506040513d601f19601f82011682018060405250810190612094919061411e565b9150509392505050565b6000151582602001511515146120e9576040517f08c379a00000000000000000000000000000000000000000000000000000000081526004016120e09061569e565b60405180910390fd5b600060028111156120fd576120fc613c5f565b5b826040015160000151600281111561211857612117613c5f565b5b0315612296576001600281111561213257612131613c5f565b5b826040015160000151600281111561214d5761214c613c5f565b5b0361225a576000826040015160200151905060008173ffffffffffffffffffffffffffffffffffffffff1663dd62ed3e86306040518363ffffffff1660e01b815260040161219c929190613ed4565b602060405180830381865afa1580156121b9573d6000803e3d6000fd5b505050506040513d601f19601f820116820180604052508101906121dd9190613f12565b90508360600151811015612226576040517f08c379a000000000000000000000000000000000000000000000000000000000815260040161221d90613f8b565b60405180910390fd5b612236828630876060015161087d565b612253846040015185606001518561112d9092919063ffffffff16565b5050612295565b6040517f08c379a000000000000000000000000000000000000000000000000000000000815260040161228c90615730565b60405180910390fd5b5b505050565b60006122a78383611f48565b60200151905092915050565b60008111156123ae5760006122c88484611be7565b90506000806122f6866000015184600a81106122e7576122e6613e13565b5b6020020151602001518561291e565b91509150816123605761235f6040518060400160405280600581526020017f646562697400000000000000000000000000000000000000000000000000000081525086886000015186600a81106123505761234f613e13565b5b60200201516020015187611d2c565b5b80866000015184600a811061237857612377613e13565b5b6020020151602001818152505083866000015184600a811061239d5761239c613e13565b5b602002015160600181815250505050505b505050565b60006040518060400160405280600881526020017f7374657046656573000000000000000000000000000000000000000000000000815250826040516020016123fd929190615786565b604051602081830303815290604052805190602001209050919050565b6000806000807f8000000000000000000000000000000000000000000000000000000000000000851611905060007f800000000000000000000000000000000000000000000000000000000000000019851690508082935093505050915091565b60008060008373ffffffffffffffffffffffffffffffffffffffff1663bd02d0f56124a4612946565b6040518263ffffffff1660e01b81526004016124c091906150fc565b602060405180830381865afa1580156124dd573d6000803e3d6000fd5b505050506040513d601f19601f820116820180604052508101906125019190613f12565b905061250c8161241a565b9250925050915091565b600081602001519050919050565b61252c612eb0565b826020015160ff168260ff1610612578576040517f08c379a000000000000000000000000000000000000000000000000000000000815260040161256f90615820565b60405180910390fd5b60006125a584600001518460ff16600a811061259757612596613e13565b5b60200201516000015161273a565b9050604051806040016040528082815260200185600001518560ff16600a81106125d2576125d1613e13565b5b60200201516020015181525091505092915050565b6126688363a9059cbb60e01b8484604051602401612606929190615840565b604051602081830303815290604052907bffffffffffffffffffffffffffffffffffffffffffffffffffffffff19166020820180517bffffffffffffffffffffffffffffffffffffffffffffffffffffffff8381831617835250505050610f66565b505050565b6060824710156126b2576040517f08c379a00000000000000000000000000000000000000000000000000000000081526004016126a9906158db565b60405180910390fd5b6000808673ffffffffffffffffffffffffffffffffffffffff1685876040516126db9190614e43565b60006040518083038185875af1925050503d8060008114612718576040519150601f19603f3d011682016040523d82523d6000602084013e61271d565b606091505b509150915061272e878383876129a9565b92505050949350505050565b612742612f50565b60008261ffff16600281111561275b5761275a613c5f565b5b90506000601084901c9050604051806040016040528083600281111561278457612783613c5f565b5b81526020018273ffffffffffffffffffffffffffffffffffffffff1681525092505050919050565b6060600060016127bb84612a1e565b01905060008167ffffffffffffffff8111156127da576127d96130e9565b5b6040519080825280601f01601f19166020018201604052801561280c5781602001600182028036833780820191505090505b509050600082602001820190505b60011561286f578080600190039150507f3031323334353637383961626364656600000000000000000000000000000000600a86061a8153600a8581612863576128626151eb565b5b0494506000850361281a575b819350505050919050565b606061289182600161288b85612b71565b01612c01565b9050919050565b60008082905060008173ffffffffffffffffffffffffffffffffffffffff1690506000601082901b905060008660028111156128d7576128d6613c5f565b5b905060008183179050809550505050505092915050565b6000816040516020016129019190615947565b604051602081830303815290604052805190602001209050919050565b60008083831115612935576000809150915061293f565b6001838503915091505b9250929050565b60006040518060400160405280600b81526020017f64656661756c744665657300000000000000000000000000000000000000000081525060405160200161298e919061596d565b60405160208183030381529060405280519060200120905090565b60608315612a0b576000835103612a03576129c385612e3d565b612a02576040517f08c379a00000000000000000000000000000000000000000000000000000000081526004016129f9906159d0565b60405180910390fd5b5b829050612a16565b612a158383612e60565b5b949350505050565b600080600090507a184f03e93ff9f4daa797ed6e38ed64bf6a1f0100000000000000008310612a7c577a184f03e93ff9f4daa797ed6e38ed64bf6a1f0100000000000000008381612a7257612a716151eb565b5b0492506040810190505b6d04ee2d6d415b85acef81000000008310612ab9576d04ee2d6d415b85acef81000000008381612aaf57612aae6151eb565b5b0492506020810190505b662386f26fc100008310612ae857662386f26fc100008381612ade57612add6151eb565b5b0492506010810190505b6305f5e1008310612b11576305f5e1008381612b0757612b066151eb565b5b0492506008810190505b6127108310612b36576127108381612b2c57612b2b6151eb565b5b0492506004810190505b60648310612b595760648381612b4f57612b4e6151eb565b5b0492506002810190505b600a8310612b68576001810190505b80915050919050565b600080600090506000608084901c1115612b9357608083901c92506010810190505b6000604084901c1115612bae57604083901c92506008810190505b6000602084901c1115612bc957602083901c92506004810190505b6000601084901c1115612be457601083901c92506002810190505b6000600884901c1115612bf8576001810190505b80915050919050565b606060006002836002612c1491906151a9565b612c1e91906159f0565b67ffffffffffffffff811115612c3757612c366130e9565b5b6040519080825280601f01601f191660200182016040528015612c695781602001600182028036833780820191505090505b5090507f300000000000000000000000000000000000000000000000000000000000000081600081518110612ca157612ca0613e13565b5b60200101907effffffffffffffffffffffffffffffffffffffffffffffffffffffffffffff1916908160001a9053507f780000000000000000000000000000000000000000000000000000000000000081600181518110612d0557612d04613e13565b5b60200101907effffffffffffffffffffffffffffffffffffffffffffffffffffffffffffff1916908160001a90535060006001846002612d4591906151a9565b612d4f91906159f0565b90505b6001811115612def577f3031323334353637383961626364656600000000000000000000000000000000600f861660108110612d9157612d90613e13565b5b1a60f81b828281518110612da857612da7613e13565b5b60200101907effffffffffffffffffffffffffffffffffffffffffffffffffffffffffffff1916908160001a905350600485901c945080612de890615a24565b9050612d52565b5060008414612e33576040517f08c379a0000000000000000000000000000000000000000000000000000000008152600401612e2a90615a99565b60405180910390fd5b8091505092915050565b6000808273ffffffffffffffffffffffffffffffffffffffff163b119050919050565b600082511115612e735781518083602001fd5b806040517f08c379a0000000000000000000000000000000000000000000000000000000008152600401612ea79190614e9e565b60405180910390fd5b6040518060400160405280612ec3612f50565b8152602001600081525090565b6040518060400160405280612ee3612f92565b8152602001600060ff1681525090565b6040518060a00160405280606081526020016060815260200160608152602001600060010b8152602001600060020b81525090565b6040518060800160405280600081526020016000815260200160008152602001600081525090565b604051806040016040528060006002811115612f6f57612f6e613c5f565b5b8152602001600073ffffffffffffffffffffffffffffffffffffffff1681525090565b604051806101400160405280600a905b612faa612f28565b815260200190600190039081612fa25790505090565b6000604051905090565b600080fd5b600080fd5b600073ffffffffffffffffffffffffffffffffffffffff82169050919050565b6000612fff82612fd4565b9050919050565b61300f81612ff4565b811461301a57600080fd5b50565b60008135905061302c81613006565b92915050565b60006020828403121561304857613047612fca565b5b60006130568482850161301d565b91505092915050565b600061306a82612fd4565b9050919050565b61307a8161305f565b811461308557600080fd5b50565b60008135905061309781613071565b92915050565b6000819050919050565b6130b08161309d565b81146130bb57600080fd5b50565b6000813590506130cd816130a7565b92915050565b600080fd5b6000601f19601f8301169050919050565b7f4e487b7100000000000000000000000000000000000000000000000000000000600052604160045260246000fd5b613121826130d8565b810181811067ffffffffffffffff821117156131405761313f6130e9565b5b80604052505050565b6000613153612fc0565b905061315f8282613118565b919050565b600080fd5b600080fd5b600067ffffffffffffffff821115613189576131886130e9565b5b602082029050602081019050919050565b600080fd5b600061ffff82169050919050565b6131b68161319f565b81146131c157600080fd5b50565b6000813590506131d3816131ad565b92915050565b600067ffffffffffffffff8211156131f4576131f36130e9565b5b602082029050602081019050919050565b60008115159050919050565b61321a81613205565b811461322557600080fd5b50565b60008135905061323781613211565b92915050565b6003811061324a57600080fd5b50565b60008135905061325c8161323d565b92915050565b600060408284031215613278576132776130d3565b5b6132826040613149565b905060006132928482850161324d565b60008301525060206132a684828501613088565b60208301525092915050565b600060a082840312156132c8576132c76130d3565b5b6132d26080613149565b905060006132e284828501613228565b60008301525060206132f684828501613228565b602083015250604061330a84828501613262565b604083015250608061331e848285016130be565b60608301525092915050565b600061333d613338846131d9565b613149565b90508083825260208201905060a084028301858111156133605761335f61319a565b5b835b81811015613389578061337588826132b2565b84526020840193505060a081019050613362565b5050509392505050565b600082601f8301126133a8576133a7613169565b5b81356133b884826020860161332a565b91505092915050565b600080fd5b600067ffffffffffffffff8211156133e1576133e06130e9565b5b6133ea826130d8565b9050602081019050919050565b82818337600083830152505050565b6000613419613414846133c6565b613149565b905082815260208101848484011115613435576134346133c1565b5b6134408482856133f7565b509392505050565b600082601f83011261345d5761345c613169565b5b813561346d848260208601613406565b91505092915050565b60008160010b9050919050565b61348c81613476565b811461349757600080fd5b50565b6000813590506134a981613483565b92915050565b600060a082840312156134c5576134c46130d3565b5b6134cf60a0613149565b905060006134df848285016131c4565b60008301525060206134f384828501613088565b602083015250604082013567ffffffffffffffff81111561351757613516613164565b5b61352384828501613393565b604083015250606082013567ffffffffffffffff81111561354757613546613164565b5b61355384828501613448565b60608301525060806135678482850161349a565b60808301525092915050565b60006135866135818461316e565b613149565b905080838252602082019050602084028301858111156135a9576135a861319a565b5b835b818110156135f057803567ffffffffffffffff8111156135ce576135cd613169565b5b8086016135db89826134af565b855260208501945050506020810190506135ab565b5050509392505050565b600082601f83011261360f5761360e613169565b5b813561361f848260208601613573565b91505092915050565b600067ffffffffffffffff821115613643576136426130e9565b5b602082029050602081019050919050565b60006060828403121561366a576136696130d3565b5b6136746060613149565b90506000613684848285016131c4565b600083015250602061369884828501613088565b602083015250604082013567ffffffffffffffff8111156136bc576136bb613164565b5b6136c884828501613448565b60408301525092915050565b60006136e76136e284613628565b613149565b9050808382526020820190506020840283018581111561370a5761370961319a565b5b835b8181101561375157803567ffffffffffffffff81111561372f5761372e613169565b5b80860161373c8982613654565b8552602085019450505060208101905061370c565b5050509392505050565b600082601f8301126137705761376f613169565b5b81356137808482602086016136d4565b91505092915050565b60006080828403121561379f5761379e6130d3565b5b6137a96080613149565b905060006137b984828501613088565b600083015250602082013567ffffffffffffffff8111156137dd576137dc613164565b5b6137e9848285016135fa565b602083015250604082013567ffffffffffffffff81111561380d5761380c613164565b5b6138198482850161375b565b604083015250606082013567ffffffffffffffff81111561383d5761383c613164565b5b6138498482850161375b565b60608301525092915050565b600067ffffffffffffffff8211156138705761386f6130e9565b5b602082029050602081019050919050565b600060608284031215613897576138966130d3565b5b6138a16040613149565b905060006138b184828501613262565b60008301525060406138c5848285016130be565b60208301525092915050565b60006138e46138df84613855565b613149565b905080838252602082019050606084028301858111156139075761390661319a565b5b835b81811015613930578061391c8882613881565b845260208401935050606081019050613909565b5050509392505050565b600082601f83011261394f5761394e613169565b5b813561395f8482602086016138d1565b91505092915050565b6000806000806080858703121561398257613981612fca565b5b600061399087828801613088565b94505060206139a1878288016130be565b935050604085013567ffffffffffffffff8111156139c2576139c1612fcf565b5b6139ce87828801613789565b925050606085013567ffffffffffffffff8111156139ef576139ee612fcf565b5b6139fb8782880161393a565b91505092959194509250565b613a108161305f565b82525050565b6000602082019050613a2b6000830184613a07565b92915050565b600080fd5b600060808284031215613a4c57613a4b613a31565b5b81905092915050565b600060208284031215613a6b57613a6a612fca565b5b600082013567ffffffffffffffff811115613a8957613a88612fcf565b5b613a9584828501613a36565b91505092915050565b613aa781612ff4565b82525050565b6000602082019050613ac26000830184613a9e565b92915050565b600060208284031215613ade57613add612fca565b5b6000613aec848285016131c4565b91505092915050565b613afe81613205565b82525050565b6000602082019050613b196000830184613af5565b92915050565b6000819050919050565b6000613b44613b3f613b3a84612fd4565b613b1f565b612fd4565b9050919050565b6000613b5682613b29565b9050919050565b6000613b6882613b4b565b9050919050565b613b7881613b5d565b82525050565b6000604082019050613b936000830185613a07565b613ba06020830184613b6f565b9392505050565b600082825260208201905092915050565b7f63616c6c6572206973206e6f7420612076616c69642073746570000000000000600082015250565b6000613bee601a83613ba7565b9150613bf982613bb8565b602082019050919050565b60006020820190508181036000830152613c1d81613be1565b9050919050565b613c2d8161309d565b82525050565b600081519050919050565b600082825260208201905092915050565b6000819050602082019050919050565b7f4e487b7100000000000000000000000000000000000000000000000000000000600052602160045260246000fd5b60038110613c9f57613c9e613c5f565b5b50565b6000819050613cb082613c8e565b919050565b6000613cc082613ca2565b9050919050565b613cd081613cb5565b82525050565b613cdf8161305f565b82525050565b604082016000820151613cfb6000850182613cc7565b506020820151613d0e6020850182613cd6565b50505050565b613d1d8161309d565b82525050565b606082016000820151613d396000850182613ce5565b506020820151613d4c6040850182613d14565b50505050565b6000613d5e8383613d23565b60608301905092915050565b6000602082019050919050565b6000613d8282613c33565b613d8c8185613c3e565b9350613d9783613c4f565b8060005b83811015613dc8578151613daf8882613d52565b9750613dba83613d6a565b925050600181019050613d9b565b5085935050505092915050565b6000606082019050613dea6000830186613c24565b613df76020830185613a07565b8181036040830152613e098184613d77565b9050949350505050565b7f4e487b7100000000000000000000000000000000000000000000000000000000600052603260045260246000fd5b7f6d73672e76616c7565206973206c657373207468616e207374617274696e672060008201527f617373657420616d6f756e740000000000000000000000000000000000000000602082015250565b6000613e9e602c83613ba7565b9150613ea982613e42565b604082019050919050565b60006020820190508181036000830152613ecd81613e91565b9050919050565b6000604082019050613ee96000830185613a07565b613ef66020830184613a07565b9392505050565b600081519050613f0c816130a7565b92915050565b600060208284031215613f2857613f27612fca565b5b6000613f3684828501613efd565b91505092915050565b7f696e73756666696369656e7420616c6c6f77616e636520666f72206572633230600082015250565b6000613f75602083613ba7565b9150613f8082613f3f565b602082019050919050565b60006020820190508181036000830152613fa481613f68565b9050919050565b7f756e6b6e6f776e206173736574207479706520696e207374617274696e67417360008201527f7365747300000000000000000000000000000000000000000000000000000000602082015250565b6000614007602483613ba7565b915061401282613fab565b604082019050919050565b6000602082019050818103600083015261403681613ffa565b9050919050565b7f4e487b7100000000000000000000000000000000000000000000000000000000600052601160045260246000fd5b60006140778261309d565b91507fffffffffffffffffffffffffffffffffffffffffffffffffffffffffffffffff82036140a9576140a861403d565b5b600182019050919050565b60006140c03683613789565b9050919050565b6000819050919050565b6140da816140c7565b82525050565b60006040820190506140f560008301856140d1565b6141026020830184613a07565b9392505050565b60008151905061411881613211565b92915050565b60006020828403121561413457614133612fca565b5b600061414284828501614109565b91505092915050565b60006060820190506141606000830186613a07565b61416d6020830185613a07565b61417a6040830184613c24565b949350505050565b600081519050919050565b600082825260208201905092915050565b6000819050602082019050919050565b6141b78161319f565b82525050565b600081519050919050565b600082825260208201905092915050565b6000819050602082019050919050565b6141f281613205565b82525050565b60a08201600082015161420e60008501826141e9565b50602082015161422160208501826141e9565b5060408201516142346040850182613ce5565b5060608201516142476080850182613d14565b50505050565b600061425983836141f8565b60a08301905092915050565b6000602082019050919050565b600061427d826141bd565b61428781856141c8565b9350614292836141d9565b8060005b838110156142c35781516142aa888261424d565b97506142b583614265565b925050600181019050614296565b5085935050505092915050565b600081519050919050565b600082825260208201905092915050565b60005b8381101561430a5780820151818401526020810190506142ef565b60008484015250505050565b6000614321826142d0565b61432b81856142db565b935061433b8185602086016142ec565b614344816130d8565b840191505092915050565b61435881613476565b82525050565b600060a08301600083015161437660008601826141ae565b5060208301516143896020860182613cd6565b50604083015184820360408601526143a18282614272565b915050606083015184820360608601526143bb8282614316565b91505060808301516143d0608086018261434f565b508091505092915050565b60006143e7838361435e565b905092915050565b6000602082019050919050565b600061440782614182565b614411818561418d565b9350836020820285016144238561419e565b8060005b8581101561445f578484038952815161444085826143db565b945061444b836143ef565b925060208a01995050600181019050614427565b50829750879550505050505092915050565b600081519050919050565b600082825260208201905092915050565b6000819050602082019050919050565b60006060830160008301516144b560008601826141ae565b5060208301516144c86020860182613cd6565b50604083015184820360408601526144e08282614316565b9150508091505092915050565b60006144f9838361449d565b905092915050565b6000602082019050919050565b600061451982614471565b614523818561447c565b9350836020820285016145358561448d565b8060005b85811015614571578484038952815161455285826144ed565b945061455d83614501565b925060208a01995050600181019050614539565b50829750879550505050505092915050565b600060808301600083015161459b6000860182613cd6565b50602083015184820360208601526145b382826143fc565b915050604083015184820360408601526145cd828261450e565b915050606083015184820360608601526145e7828261450e565b9150508091505092915050565b60006040820190506146096000830185613a07565b818103602083015261461b8184614583565b90509392505050565b600061462f8261309d565b915061463a8361309d565b92508282039050818111156146525761465161403d565b5b92915050565b6146618161319f565b82525050565b600060a08301600083015161467f60008601826141ae565b5060208301516146926020860182613cd6565b50604083015184820360408601526146aa8282614272565b915050606083015184820360608601526146c48282614316565b91505060808301516146d9608086018261434f565b508091505092915050565b600082825260208201905092915050565b600061470082613c33565b61470a81856146e4565b935061471583613c4f565b8060005b8381101561474657815161472d8882613d52565b975061473883613d6a565b925050600181019050614719565b5085935050505092915050565b60008160020b9050919050565b61476981614753565b82525050565b600060a083016000830151848203600086015261478c82826146f5565b915050602083015184820360208601526147a682826146f5565b915050604083015184820360408601526147c082826146f5565b91505060608301516147d5606086018261434f565b5060808301516147e86080860182614760565b508091505092915050565b600081519050919050565b600082825260208201905092915050565b6000819050602082019050919050565b600061482b8383613d14565b60208301905092915050565b6000602082019050919050565b600061484f826147f3565b61485981856147fe565b93506148648361480f565b8060005b8381101561489557815161487c888261481f565b975061488783614837565b925050600181019050614868565b5085935050505092915050565b600060e0820190506148b7600083018a614658565b81810360208301526148c98189614667565b90506148d86040830188614658565b6148e56060830187613a07565b81810360808301526148f78186613d77565b905081810360a083015261490b818561476f565b905081810360c083015261491f8184614844565b905098975050505050505050565b7f5265656e7472616e637947756172643a207265656e7472616e742063616c6c00600082015250565b6000614963601f83613ba7565b915061496e8261492d565b602082019050919050565b6000602082019050818103600083015261499281614956565b9050919050565b60006149b46149af6149aa8461319f565b613b1f565b61309d565b9050919050565b6149c481614999565b82525050565b60006040820190506149df60008301856140d1565b6149ec60208301846149bb565b9392505050565b600081519050614a0281613071565b92915050565b600060208284031215614a1e57614a1d612fca565b5b6000614a2c848285016149f3565b91505092915050565b7f5361666545524332303a204552433230206f7065726174696f6e20646964206e60008201527f6f74207375636365656400000000000000000000000000000000000000000000602082015250565b6000614a91602a83613ba7565b9150614a9c82614a35565b604082019050919050565b60006020820190508181036000830152614ac081614a84565b9050919050565b600081519050614ad681613483565b92915050565b600060408284031215614af257614af16130d3565b5b614afc6040613149565b90506000614b0c84828501613efd565b6000830152506020614b2084828501614ac7565b60208301525092915050565b600060408284031215614b4257614b41612fca565b5b6000614b5084828501614adc565b91505092915050565b600081519050614b688161323d565b92915050565b600060408284031215614b8457614b836130d3565b5b614b8e6040613149565b90506000614b9e84828501614b59565b6000830152506020614bb2848285016149f3565b60208301525092915050565b60068110614bcb57600080fd5b50565b600081519050614bdd81614bbe565b92915050565b600060a08284031215614bf957614bf86130d3565b5b614c036080613149565b90506000614c1384828501614b6e565b6000830152506040614c2784828501614bce565b6020830152506060614c3b84828501613efd565b6040830152506080614c4f84828501614ac7565b60608301525092915050565b600060a08284031215614c7157614c70612fca565b5b6000614c7f84828501614be3565b91505092915050565b7f737465702061646472657373206e6f7420696e207768697465206c6973740000600082015250565b6000614cbe601e83613ba7565b9150614cc982614c88565b602082019050919050565b60006020820190508181036000830152614ced81614cb1565b9050919050565b7f6162736f6c75746520616d6f756e74206578636565647320776f726b666c6f7760008201527f2061737365742062616c616e6365000000000000000000000000000000000000602082015250565b6000614d50602e83613ba7565b9150614d5b82614cf4565b604082019050919050565b60006020820190508181036000830152614d7f81614d43565b9050919050565b600082825260208201905092915050565b6000614da2826142d0565b614dac8185614d86565b9350614dbc8185602086016142ec565b614dc5816130d8565b840191505092915050565b60006040820190508181036000830152614dea8185613d77565b90508181036020830152614dfe8184614d97565b90509392505050565b600081905092915050565b6000614e1d826142d0565b614e278185614e07565b9350614e378185602086016142ec565b80840191505092915050565b6000614e4f8284614e12565b915081905092915050565b600081519050919050565b6000614e7082614e5a565b614e7a8185613ba7565b9350614e8a8185602086016142ec565b614e93816130d8565b840191505092915050565b60006020820190508181036000830152614eb88184614e65565b905092915050565b600060608284031215614ed657614ed56130d3565b5b614ee06040613149565b90506000614ef084828501614b6e565b6000830152506040614f0484828501613efd565b60208301525092915050565b6000614f23614f1e84613855565b613149565b90508083825260208201905060608402830185811115614f4657614f4561319a565b5b835b81811015614f6f5780614f5b8882614ec0565b845260208401935050606081019050614f48565b5050509392505050565b600082601f830112614f8e57614f8d613169565b5b8151614f9e848260208601614f10565b91505092915050565b614fb081614753565b8114614fbb57600080fd5b50565b600081519050614fcd81614fa7565b92915050565b600060a08284031215614fe957614fe86130d3565b5b614ff360a0613149565b9050600082015167ffffffffffffffff81111561501357615012613164565b5b61501f84828501614f79565b600083015250602082015167ffffffffffffffff81111561504357615042613164565b5b61504f84828501614f79565b602083015250604082015167ffffffffffffffff81111561507357615072613164565b5b61507f84828501614f79565b604083015250606061509384828501614ac7565b60608301525060806150a784828501614fbe565b60808301525092915050565b6000602082840312156150c9576150c8612fca565b5b600082015167ffffffffffffffff8111156150e7576150e6612fcf565b5b6150f384828501614fd3565b91505092915050565b600060208201905061511160008301846140d1565b92915050565b7f70657263656e74206d757374206265206265747765656e203020616e6420313060008201527f3030303000000000000000000000000000000000000000000000000000000000602082015250565b6000615173602483613ba7565b915061517e82615117565b604082019050919050565b600060208201905081810360008301526151a281615166565b9050919050565b60006151b48261309d565b91506151bf8361309d565b92508282026151cd8161309d565b915082820484148315176151e4576151e361403d565b5b5092915050565b7f4e487b7100000000000000000000000000000000000000000000000000000000600052601260045260246000fd5b60006152258261309d565b91506152308361309d565b9250826152405761523f6151eb565b5b828204905092915050565b6040820160008201516152616000850182613cc7565b5060208201516152746020850182613cd6565b50505050565b600060a08201905061528f600083018761524b565b61529c6040830186613c24565b6152a96060830185613c24565b6152b66080830184613c24565b95945050505050565b7f636f6d7075746564206e61746976652062616c616e636520697320677265617460008201527f6572207468616e2061637475616c2062616c616e636500000000000000000000602082015250565b600061531b603683613ba7565b9150615326826152bf565b604082019050919050565b6000602082019050818103600083015261534a8161530e565b9050919050565b7f756e6b6e6f776e206173736574207479706520696e20617373657442616c616e60008201527f6365730000000000000000000000000000000000000000000000000000000000602082015250565b60006153ad602383613ba7565b91506153b882615351565b604082019050919050565b600060208201905081810360008301526153dc816153a0565b9050919050565b600060ff82169050919050565b60006153fb826153e3565b915060ff820361540e5761540d61403d565b5b600182019050919050565b7f746f6f206d616e7920746f6b656e2062616c616e636573000000000000000000600082015250565b600061544f601783613ba7565b915061545a82615419565b602082019050919050565b6000602082019050818103600083015261547e81615442565b9050919050565b600081905092915050565b600061549b82614e5a565b6154a58185615485565b93506154b58185602086016142ec565b80840191505092915050565b7f206173736574547970653d000000000000000000000000000000000000000000815250565b7f206173736574416464726573733d000000000000000000000000000000000000815250565b7f2076616c75657320000000000000000000000000000000000000000000000000815250565b7f2c20000000000000000000000000000000000000000000000000000000000000815250565b60006155658288615490565b9150615570826154c1565b600b820191506155808287615490565b915061558b826154e7565b600e8201915061559b8286615490565b91506155a68261550d565b6008820191506155b68285615490565b91506155c182615533565b6002820191506155d18284615490565b91508190509695505050505050565b600060208201905081810360008301526155fa8184614d97565b905092915050565b600061560d8261319f565b915061ffff82036156215761562061403d565b5b600182019050919050565b7f63616e6e6f74207573652070657263656e7461676520666f7220616d6f756e7460008201527f206f662061737365742066726f6d2063616c6c65720000000000000000000000602082015250565b6000615688603583613ba7565b91506156938261562c565b604082019050919050565b600060208201905081810360008301526156b78161567b565b9050919050565b7f756e6b6e6f776e206173736574207479706520696e20696e707574417373657460008201527f416d6f756e747300000000000000000000000000000000000000000000000000602082015250565b600061571a602783613ba7565b9150615725826156be565b604082019050919050565b600060208201905081810360008301526157498161570d565b9050919050565b60008160f01b9050919050565b600061576882615750565b9050919050565b61578061577b8261319f565b61575d565b82525050565b60006157928285615490565b915061579e828461576f565b6002820191508190509392505050565b7f696e646578206f7574206f6620626f756e6473207768696c652061636365737360008201527f696e672061737365742062616c616e6365730000000000000000000000000000602082015250565b600061580a603283613ba7565b9150615815826157ae565b604082019050919050565b60006020820190508181036000830152615839816157fd565b9050919050565b60006040820190506158556000830185613a07565b6158626020830184613c24565b9392505050565b7f416464726573733a20696e73756666696369656e742062616c616e636520666f60008201527f722063616c6c0000000000000000000000000000000000000000000000000000602082015250565b60006158c5602683613ba7565b91506158d082615869565b604082019050919050565b600060208201905081810360008301526158f4816158b8565b9050919050565b7f7374657057686974654c69737400000000000000000000000000000000000000600082015250565b6000615931600d83615485565b915061593c826158fb565b600d82019050919050565b600061595282615924565b915061595e828461576f565b60028201915081905092915050565b60006159798284615490565b915081905092915050565b7f416464726573733a2063616c6c20746f206e6f6e2d636f6e7472616374000000600082015250565b60006159ba601d83613ba7565b91506159c582615984565b602082019050919050565b600060208201905081810360008301526159e9816159ad565b9050919050565b60006159fb8261309d565b9150615a068361309d565b9250828201905080821115615a1e57615a1d61403d565b5b92915050565b6000615a2f8261309d565b915060008203615a4257615a4161403d565b5b600182039050919050565b7f537472696e67733a20686578206c656e67746820696e73756666696369656e74600082015250565b6000615a83602083613ba7565b9150615a8e82615a4d565b602082019050919050565b60006020820190508181036000830152615ab281615a76565b905091905056fea2646970667358221220f527a2dee0504bc50a9a1a857016d4c9e727bc1303880c31b962925238dae9a764736f6c63430008120033",
  "devdoc": {
    "events": {
      "RemainingAsset((uint8,address),uint256,uint256,uint256)": {
        "params": {
          "asset": "The asset.",
          "feeAmount": "The portion of the total amount that FMP will keep as a fee.",
          "totalAmount": "The total amount of the asset.",
          "userAmount": "The portion of the total amount that is sent to the user."
        }
      },
      "WorkflowContinuation(uint256,address,((uint8,address),uint256)[])": {
        "params": {
          "nonce": "The nonce provided by the caller on the source chain, used to correlate the source chain workflow segment with this segment.",
          "startingAssets": "The asset that was transferred from the source chain to this chain"
        }
      },
      "WorkflowExecution(address,(address,(uint16,address,(bool,bool,(uint8,address),uint256)[],bytes,int16)[],(uint16,address,bytes)[],(uint16,address,bytes)[]))": {
        "params": {
          "userAddress": "The user for which this workflow is executing.",
          "workflow": "The workflow."
        }
      },
      "WorkflowStepExecution(uint16,(uint16,address,(bool,bool,(uint8,address),uint256)[],bytes,int16),uint16,address,((uint8,address),uint256)[],(((uint8,address),uint256)[],((uint8,address),uint256)[],((uint8,address),uint256)[],int16,int24),uint256[])": {
        "params": {
          "inputAssetAmounts": "The input assets, with the absolute amount of each asset.",
          "result": "The result returned form the step invocation.",
          "step": "The step configuration.",
          "stepAddress": "The address of the step used for this invocation.",
          "stepIndex": "The index of the step in the Workflow.steps array.",
          "stepTypeId": "The logical id of the step (also repeated in the step param but duplicated here for convenience)."
        }
      }
    },
    "kind": "dev",
    "methods": {
      "executeWorkflow((address,(uint16,address,(bool,bool,(uint8,address),uint256)[],bytes,int16)[],(uint16,address,bytes)[],(uint16,address,bytes)[]))": {
        "params": {
          "workflow": "The workflow to execute."
        }
      }
    },
    "version": 1
  },
  "userdoc": {
    "events": {
      "RemainingAsset((uint8,address),uint256,uint256,uint256)": {
        "notice": "This event is emitted after the workflow has completed, once for each asset ramining with a non-zero amount."
      },
      "WorkflowContinuation(uint256,address,((uint8,address),uint256)[])": {
        "notice": "This event is emitted when this is a continuation of a workflow from another chain"
      },
      "WorkflowExecution(address,(address,(uint16,address,(bool,bool,(uint8,address),uint256)[],bytes,int16)[],(uint16,address,bytes)[],(uint16,address,bytes)[]))": {
        "notice": "This event is emitted when a workflow execution begins."
      },
      "WorkflowStepExecution(uint16,(uint16,address,(bool,bool,(uint8,address),uint256)[],bytes,int16),uint16,address,((uint8,address),uint256)[],(((uint8,address),uint256)[],((uint8,address),uint256)[],((uint8,address),uint256)[],int16,int24),uint256[])": {
        "notice": "This event is emitted when immediately after invoking a step in the workflow."
      }
    },
    "kind": "user",
    "methods": {
      "continueWorkflow(address,uint256,(address,(uint16,address,(bool,bool,(uint8,address),uint256)[],bytes,int16)[],(uint16,address,bytes)[],(uint16,address,bytes)[]),((uint8,address),uint256)[])": {
        "notice": "Continue a workflow that started on a different chain.This is not callable by 3rd parties, only approved bridge integrations call this method."
      },
      "executeWorkflow((address,(uint16,address,(bool,bool,(uint8,address),uint256)[],bytes,int16)[],(uint16,address,bytes)[],(uint16,address,bytes)[]))": {
        "notice": "Initiate the execution of a workflow."
      }
    },
    "version": 1
  },
  "storageLayout": {
    "storage": [
      {
        "astId": 7378,
        "contract": "contracts/WorkflowRunner.sol:WorkflowRunner",
        "label": "owner",
        "offset": 0,
        "slot": "0",
        "type": "t_address_payable"
      },
      {
        "astId": 5881,
        "contract": "contracts/WorkflowRunner.sol:WorkflowRunner",
        "label": "eternalStorageAddress",
        "offset": 0,
        "slot": "1",
        "type": "t_address"
      },
      {
        "astId": 5883,
        "contract": "contracts/WorkflowRunner.sol:WorkflowRunner",
        "label": "upstreamAddress",
        "offset": 0,
        "slot": "2",
        "type": "t_address"
      },
      {
        "astId": 5885,
        "contract": "contracts/WorkflowRunner.sol:WorkflowRunner",
        "label": "isUserProxy",
        "offset": 20,
        "slot": "2",
        "type": "t_bool"
      },
      {
        "astId": 212,
        "contract": "contracts/WorkflowRunner.sol:WorkflowRunner",
        "label": "_status",
        "offset": 0,
        "slot": "3",
        "type": "t_uint256"
      }
    ],
    "types": {
      "t_address": {
        "encoding": "inplace",
        "label": "address",
        "numberOfBytes": "20"
      },
      "t_address_payable": {
        "encoding": "inplace",
        "label": "address payable",
        "numberOfBytes": "20"
      },
      "t_bool": {
        "encoding": "inplace",
        "label": "bool",
        "numberOfBytes": "1"
      },
      "t_uint256": {
        "encoding": "inplace",
        "label": "uint256",
        "numberOfBytes": "32"
      }
    }
  }
}