{
  "address": "0xfadcb4F4BC8d7Bb2cC687cFAB351324533a55E7a",
  "abi": [
    {
      "inputs": [
        {
          "internalType": "address payable",
          "name": "frontDoorAddress",
          "type": "address"
        }
      ],
      "stateMutability": "nonpayable",
      "type": "constructor"
    },
    {
      "anonymous": false,
      "inputs": [
        {
          "indexed": false,
          "internalType": "address",
          "name": "sender",
          "type": "address"
        },
        {
          "indexed": false,
          "internalType": "address",
          "name": "newOwner",
          "type": "address"
        }
      ],
      "name": "LogNewOwner",
      "type": "event"
    },
    {
      "anonymous": false,
      "inputs": [
        {
          "components": [
            {
              "internalType": "enum AssetType",
              "name": "assetType",
              "type": "uint8"
            },
            {
              "internalType": "address",
              "name": "assetAddress",
              "type": "address"
            }
          ],
          "indexed": false,
          "internalType": "struct Asset",
          "name": "asset",
          "type": "tuple"
        },
        {
          "indexed": false,
          "internalType": "uint256",
          "name": "totalAmount",
          "type": "uint256"
        },
        {
          "indexed": false,
          "internalType": "uint256",
          "name": "feeAmount",
          "type": "uint256"
        },
        {
          "indexed": false,
          "internalType": "uint256",
          "name": "userAmount",
          "type": "uint256"
        }
      ],
      "name": "RemainingAsset",
      "type": "event"
    },
    {
      "anonymous": false,
      "inputs": [
        {
          "indexed": false,
          "internalType": "uint256",
          "name": "nonce",
          "type": "uint256"
        },
        {
          "indexed": false,
          "internalType": "address",
          "name": "userAddress",
          "type": "address"
        },
        {
          "components": [
            {
              "components": [
                {
                  "internalType": "enum AssetType",
                  "name": "assetType",
                  "type": "uint8"
                },
                {
                  "internalType": "address",
                  "name": "assetAddress",
                  "type": "address"
                }
              ],
              "internalType": "struct Asset",
              "name": "asset",
              "type": "tuple"
            },
            {
              "internalType": "uint256",
              "name": "amount",
              "type": "uint256"
            }
          ],
          "indexed": false,
          "internalType": "struct AssetAmount[]",
          "name": "startingAssets",
          "type": "tuple[]"
        }
      ],
      "name": "WorkflowContinuation",
      "type": "event"
    },
    {
      "anonymous": false,
      "inputs": [
        {
          "indexed": false,
          "internalType": "address",
          "name": "userAddress",
          "type": "address"
        },
        {
          "components": [
            {
              "internalType": "address",
              "name": "workflowRunnerAddress",
              "type": "address"
            },
            {
              "components": [
                {
                  "internalType": "uint16",
                  "name": "stepTypeId",
                  "type": "uint16"
                },
                {
                  "internalType": "address",
                  "name": "stepAddress",
                  "type": "address"
                },
                {
                  "components": [
                    {
                      "internalType": "bool",
                      "name": "sourceIsCaller",
                      "type": "bool"
                    },
                    {
                      "internalType": "bool",
                      "name": "amountIsPercent",
                      "type": "bool"
                    },
                    {
                      "components": [
                        {
                          "internalType": "enum AssetType",
                          "name": "assetType",
                          "type": "uint8"
                        },
                        {
                          "internalType": "address",
                          "name": "assetAddress",
                          "type": "address"
                        }
                      ],
                      "internalType": "struct Asset",
                      "name": "asset",
                      "type": "tuple"
                    },
                    {
                      "internalType": "uint256",
                      "name": "amount",
                      "type": "uint256"
                    }
                  ],
                  "internalType": "struct WorkflowStepInputAsset[]",
                  "name": "inputAssets",
                  "type": "tuple[]"
                },
                {
                  "internalType": "bytes",
                  "name": "argData",
                  "type": "bytes"
                },
                {
                  "internalType": "int16",
                  "name": "nextStepIndex",
                  "type": "int16"
                }
              ],
              "internalType": "struct WorkflowStep[]",
              "name": "steps",
              "type": "tuple[]"
            },
            {
              "components": [
                {
                  "internalType": "uint16",
                  "name": "stepTypeId",
                  "type": "uint16"
                },
                {
                  "internalType": "address",
                  "name": "stepAddress",
                  "type": "address"
                },
                {
                  "internalType": "bytes",
                  "name": "argData",
                  "type": "bytes"
                }
              ],
              "internalType": "struct BeforeAfter[]",
              "name": "beforeAll",
              "type": "tuple[]"
            },
            {
              "components": [
                {
                  "internalType": "uint16",
                  "name": "stepTypeId",
                  "type": "uint16"
                },
                {
                  "internalType": "address",
                  "name": "stepAddress",
                  "type": "address"
                },
                {
                  "internalType": "bytes",
                  "name": "argData",
                  "type": "bytes"
                }
              ],
              "internalType": "struct BeforeAfter[]",
              "name": "afterAll",
              "type": "tuple[]"
            }
          ],
          "indexed": false,
          "internalType": "struct Workflow",
          "name": "workflow",
          "type": "tuple"
        }
      ],
      "name": "WorkflowExecution",
      "type": "event"
    },
    {
      "anonymous": false,
      "inputs": [
        {
          "indexed": false,
          "internalType": "uint16",
          "name": "stepIndex",
          "type": "uint16"
        },
        {
          "components": [
            {
              "internalType": "uint16",
              "name": "stepTypeId",
              "type": "uint16"
            },
            {
              "internalType": "address",
              "name": "stepAddress",
              "type": "address"
            },
            {
              "components": [
                {
                  "internalType": "bool",
                  "name": "sourceIsCaller",
                  "type": "bool"
                },
                {
                  "internalType": "bool",
                  "name": "amountIsPercent",
                  "type": "bool"
                },
                {
                  "components": [
                    {
                      "internalType": "enum AssetType",
                      "name": "assetType",
                      "type": "uint8"
                    },
                    {
                      "internalType": "address",
                      "name": "assetAddress",
                      "type": "address"
                    }
                  ],
                  "internalType": "struct Asset",
                  "name": "asset",
                  "type": "tuple"
                },
                {
                  "internalType": "uint256",
                  "name": "amount",
                  "type": "uint256"
                }
              ],
              "internalType": "struct WorkflowStepInputAsset[]",
              "name": "inputAssets",
              "type": "tuple[]"
            },
            {
              "internalType": "bytes",
              "name": "argData",
              "type": "bytes"
            },
            {
              "internalType": "int16",
              "name": "nextStepIndex",
              "type": "int16"
            }
          ],
          "indexed": false,
          "internalType": "struct WorkflowStep",
          "name": "step",
          "type": "tuple"
        },
        {
          "indexed": false,
          "internalType": "uint16",
          "name": "stepTypeId",
          "type": "uint16"
        },
        {
          "indexed": false,
          "internalType": "address",
          "name": "stepAddress",
          "type": "address"
        },
        {
          "components": [
            {
              "components": [
                {
                  "internalType": "enum AssetType",
                  "name": "assetType",
                  "type": "uint8"
                },
                {
                  "internalType": "address",
                  "name": "assetAddress",
                  "type": "address"
                }
              ],
              "internalType": "struct Asset",
              "name": "asset",
              "type": "tuple"
            },
            {
              "internalType": "uint256",
              "name": "amount",
              "type": "uint256"
            }
          ],
          "indexed": false,
          "internalType": "struct AssetAmount[]",
          "name": "inputAssetAmounts",
          "type": "tuple[]"
        },
        {
          "components": [
            {
              "components": [
                {
                  "components": [
                    {
                      "internalType": "enum AssetType",
                      "name": "assetType",
                      "type": "uint8"
                    },
                    {
                      "internalType": "address",
                      "name": "assetAddress",
                      "type": "address"
                    }
                  ],
                  "internalType": "struct Asset",
                  "name": "asset",
                  "type": "tuple"
                },
                {
                  "internalType": "uint256",
                  "name": "amount",
                  "type": "uint256"
                }
              ],
              "internalType": "struct AssetAmount[]",
              "name": "inputAssetAmounts",
              "type": "tuple[]"
            },
            {
              "components": [
                {
                  "components": [
                    {
                      "internalType": "enum AssetType",
                      "name": "assetType",
                      "type": "uint8"
                    },
                    {
                      "internalType": "address",
                      "name": "assetAddress",
                      "type": "address"
                    }
                  ],
                  "internalType": "struct Asset",
                  "name": "asset",
                  "type": "tuple"
                },
                {
                  "internalType": "uint256",
                  "name": "amount",
                  "type": "uint256"
                }
              ],
              "internalType": "struct AssetAmount[]",
              "name": "outputAssetAmounts",
              "type": "tuple[]"
            },
            {
              "components": [
                {
                  "components": [
                    {
                      "internalType": "enum AssetType",
                      "name": "assetType",
                      "type": "uint8"
                    },
                    {
                      "internalType": "address",
                      "name": "assetAddress",
                      "type": "address"
                    }
                  ],
                  "internalType": "struct Asset",
                  "name": "asset",
                  "type": "tuple"
                },
                {
                  "internalType": "uint256",
                  "name": "amount",
                  "type": "uint256"
                }
              ],
              "internalType": "struct AssetAmount[]",
              "name": "outputAssetAmountsToCaller",
              "type": "tuple[]"
            },
            {
              "internalType": "int16",
              "name": "nextStepIndex",
              "type": "int16"
            },
            {
              "internalType": "int24",
              "name": "fee",
              "type": "int24"
            }
          ],
          "indexed": false,
          "internalType": "struct WorkflowStepResult",
          "name": "result",
          "type": "tuple"
        }
      ],
      "name": "WorkflowStepExecution",
      "type": "event"
    },
    {
      "inputs": [
        {
          "internalType": "address",
          "name": "userAddress",
          "type": "address"
        },
        {
          "internalType": "uint256",
          "name": "nonce",
          "type": "uint256"
        },
        {
          "components": [
            {
              "internalType": "address",
              "name": "workflowRunnerAddress",
              "type": "address"
            },
            {
              "components": [
                {
                  "internalType": "uint16",
                  "name": "stepTypeId",
                  "type": "uint16"
                },
                {
                  "internalType": "address",
                  "name": "stepAddress",
                  "type": "address"
                },
                {
                  "components": [
                    {
                      "internalType": "bool",
                      "name": "sourceIsCaller",
                      "type": "bool"
                    },
                    {
                      "internalType": "bool",
                      "name": "amountIsPercent",
                      "type": "bool"
                    },
                    {
                      "components": [
                        {
                          "internalType": "enum AssetType",
                          "name": "assetType",
                          "type": "uint8"
                        },
                        {
                          "internalType": "address",
                          "name": "assetAddress",
                          "type": "address"
                        }
                      ],
                      "internalType": "struct Asset",
                      "name": "asset",
                      "type": "tuple"
                    },
                    {
                      "internalType": "uint256",
                      "name": "amount",
                      "type": "uint256"
                    }
                  ],
                  "internalType": "struct WorkflowStepInputAsset[]",
                  "name": "inputAssets",
                  "type": "tuple[]"
                },
                {
                  "internalType": "bytes",
                  "name": "argData",
                  "type": "bytes"
                },
                {
                  "internalType": "int16",
                  "name": "nextStepIndex",
                  "type": "int16"
                }
              ],
              "internalType": "struct WorkflowStep[]",
              "name": "steps",
              "type": "tuple[]"
            },
            {
              "components": [
                {
                  "internalType": "uint16",
                  "name": "stepTypeId",
                  "type": "uint16"
                },
                {
                  "internalType": "address",
                  "name": "stepAddress",
                  "type": "address"
                },
                {
                  "internalType": "bytes",
                  "name": "argData",
                  "type": "bytes"
                }
              ],
              "internalType": "struct BeforeAfter[]",
              "name": "beforeAll",
              "type": "tuple[]"
            },
            {
              "components": [
                {
                  "internalType": "uint16",
                  "name": "stepTypeId",
                  "type": "uint16"
                },
                {
                  "internalType": "address",
                  "name": "stepAddress",
                  "type": "address"
                },
                {
                  "internalType": "bytes",
                  "name": "argData",
                  "type": "bytes"
                }
              ],
              "internalType": "struct BeforeAfter[]",
              "name": "afterAll",
              "type": "tuple[]"
            }
          ],
          "internalType": "struct Workflow",
          "name": "workflow",
          "type": "tuple"
        },
        {
          "components": [
            {
              "components": [
                {
                  "internalType": "enum AssetType",
                  "name": "assetType",
                  "type": "uint8"
                },
                {
                  "internalType": "address",
                  "name": "assetAddress",
                  "type": "address"
                }
              ],
              "internalType": "struct Asset",
              "name": "asset",
              "type": "tuple"
            },
            {
              "internalType": "uint256",
              "name": "amount",
              "type": "uint256"
            }
          ],
          "internalType": "struct AssetAmount[]",
          "name": "startingAssets",
          "type": "tuple[]"
        }
      ],
      "name": "continueWorkflow",
      "outputs": [],
      "stateMutability": "payable",
      "type": "function"
    },
    {
      "inputs": [],
      "name": "eternalStorageAddress",
      "outputs": [
        {
          "internalType": "address",
          "name": "",
          "type": "address"
        }
      ],
      "stateMutability": "view",
      "type": "function"
    },
    {
      "inputs": [
        {
          "components": [
            {
              "internalType": "address",
              "name": "workflowRunnerAddress",
              "type": "address"
            },
            {
              "components": [
                {
                  "internalType": "uint16",
                  "name": "stepTypeId",
                  "type": "uint16"
                },
                {
                  "internalType": "address",
                  "name": "stepAddress",
                  "type": "address"
                },
                {
                  "components": [
                    {
                      "internalType": "bool",
                      "name": "sourceIsCaller",
                      "type": "bool"
                    },
                    {
                      "internalType": "bool",
                      "name": "amountIsPercent",
                      "type": "bool"
                    },
                    {
                      "components": [
                        {
                          "internalType": "enum AssetType",
                          "name": "assetType",
                          "type": "uint8"
                        },
                        {
                          "internalType": "address",
                          "name": "assetAddress",
                          "type": "address"
                        }
                      ],
                      "internalType": "struct Asset",
                      "name": "asset",
                      "type": "tuple"
                    },
                    {
                      "internalType": "uint256",
                      "name": "amount",
                      "type": "uint256"
                    }
                  ],
                  "internalType": "struct WorkflowStepInputAsset[]",
                  "name": "inputAssets",
                  "type": "tuple[]"
                },
                {
                  "internalType": "bytes",
                  "name": "argData",
                  "type": "bytes"
                },
                {
                  "internalType": "int16",
                  "name": "nextStepIndex",
                  "type": "int16"
                }
              ],
              "internalType": "struct WorkflowStep[]",
              "name": "steps",
              "type": "tuple[]"
            },
            {
              "components": [
                {
                  "internalType": "uint16",
                  "name": "stepTypeId",
                  "type": "uint16"
                },
                {
                  "internalType": "address",
                  "name": "stepAddress",
                  "type": "address"
                },
                {
                  "internalType": "bytes",
                  "name": "argData",
                  "type": "bytes"
                }
              ],
              "internalType": "struct BeforeAfter[]",
              "name": "beforeAll",
              "type": "tuple[]"
            },
            {
              "components": [
                {
                  "internalType": "uint16",
                  "name": "stepTypeId",
                  "type": "uint16"
                },
                {
                  "internalType": "address",
                  "name": "stepAddress",
                  "type": "address"
                },
                {
                  "internalType": "bytes",
                  "name": "argData",
                  "type": "bytes"
                }
              ],
              "internalType": "struct BeforeAfter[]",
              "name": "afterAll",
              "type": "tuple[]"
            }
          ],
          "internalType": "struct Workflow",
          "name": "workflow",
          "type": "tuple"
        }
      ],
      "name": "executeWorkflow",
      "outputs": [],
      "stateMutability": "payable",
      "type": "function"
    },
    {
      "inputs": [
        {
          "internalType": "uint16",
          "name": "stepTypeId",
          "type": "uint16"
        }
      ],
      "name": "getStepAddress",
      "outputs": [
        {
          "internalType": "address",
          "name": "",
          "type": "address"
        }
      ],
      "stateMutability": "view",
      "type": "function"
    },
    {
      "inputs": [],
      "name": "isUserProxy",
      "outputs": [
        {
          "internalType": "bool",
          "name": "",
          "type": "bool"
        }
      ],
      "stateMutability": "view",
      "type": "function"
    },
    {
      "inputs": [],
      "name": "owner",
      "outputs": [
        {
          "internalType": "address payable",
          "name": "",
          "type": "address"
        }
      ],
      "stateMutability": "view",
      "type": "function"
    },
    {
      "inputs": [
        {
          "internalType": "address payable",
          "name": "newOwner",
          "type": "address"
        }
      ],
      "name": "setOwner",
      "outputs": [],
      "stateMutability": "nonpayable",
      "type": "function"
    },
    {
      "inputs": [],
      "name": "upstreamAddress",
      "outputs": [
        {
          "internalType": "address",
          "name": "",
          "type": "address"
        }
      ],
      "stateMutability": "view",
      "type": "function"
    }
  ],
  "transactionHash": "0x26db9f507686d051020ac99cbe05e3f850df390edbb48c0b1b634b49adb4fbc2",
  "args": [
    "0x5DE1dF35467c24C024E598ae6a2FB98240e62EC7"
  ],
  "numDeployments": 10,
  "solcInputHash": "c8f7bebdad4f561f33984b03bb75f445",
  "bytecode": "0x60806040523480156200001157600080fd5b506040516200578a3803806200578a833981810160405281019062000037919062000208565b338173ffffffffffffffffffffffffffffffffffffffff1663384782fe6040518163ffffffff1660e01b8152600401602060405180830381865afa15801562000084573d6000803e3d6000fd5b505050506040513d601f19601f82011682018060405250810190620000aa91906200027f565b60008083806000806101000a81548173ffffffffffffffffffffffffffffffffffffffff021916908373ffffffffffffffffffffffffffffffffffffffff1602179055505082600160006101000a81548173ffffffffffffffffffffffffffffffffffffffff021916908373ffffffffffffffffffffffffffffffffffffffff16021790555081600260006101000a81548173ffffffffffffffffffffffffffffffffffffffff021916908373ffffffffffffffffffffffffffffffffffffffff16021790555080600260146101000a81548160ff02191690831515021790555050505050600160038190555050620002b1565b600080fd5b600073ffffffffffffffffffffffffffffffffffffffff82169050919050565b6000620001d082620001a3565b9050919050565b620001e281620001c3565b8114620001ee57600080fd5b50565b6000815190506200020281620001d7565b92915050565b6000602082840312156200022157620002206200019e565b5b60006200023184828501620001f1565b91505092915050565b60006200024782620001a3565b9050919050565b62000259816200023a565b81146200026557600080fd5b50565b60008151905062000279816200024e565b92915050565b6000602082840312156200029857620002976200019e565b5b6000620002a88482850162000268565b91505092915050565b6154c980620002c16000396000f3fe60806040526004361061007b5760003560e01c806349bc3bda1161004e57806349bc3bda1461011b5780638da5cb5b14610137578063f903397714610162578063ff05c2a81461019f5761007b565b806313af4035146100805780631c7b2649146100a957806332b56aaf146100c5578063384782fe146100f0575b600080fd5b34801561008c57600080fd5b506100a760048036038101906100a29190612b2a565b6101ca565b005b6100c360048036038101906100be9190613460565b6102d7565b005b3480156100d157600080fd5b506100da610623565b6040516100e7919061350e565b60405180910390f35b3480156100fc57600080fd5b50610105610649565b604051610112919061350e565b60405180910390f35b6101356004803603810190610130919061354d565b61066f565b005b34801561014357600080fd5b5061014c610763565b60405161015991906135a5565b60405180910390f35b34801561016e57600080fd5b50610189600480360381019061018491906135c0565b610787565b604051610196919061350e565b60405180910390f35b3480156101ab57600080fd5b506101b46107bc565b6040516101c191906135fc565b60405180910390f35b60008054906101000a900473ffffffffffffffffffffffffffffffffffffffff1673ffffffffffffffffffffffffffffffffffffffff163373ffffffffffffffffffffffffffffffffffffffff161461022257600080fd5b600073ffffffffffffffffffffffffffffffffffffffff168173ffffffffffffffffffffffffffffffffffffffff160361025b57600080fd5b806000806101000a81548173ffffffffffffffffffffffffffffffffffffffff021916908373ffffffffffffffffffffffffffffffffffffffff1602179055507f1f8d7d25344642d919d55999e4664aa452a5f424bc0936ceb9c2b300db7dcbd933826040516102cc929190613676565b60405180910390a150565b610303600160009054906101000a900473ffffffffffffffffffffffffffffffffffffffff16336107cf565b610342576040517f08c379a0000000000000000000000000000000000000000000000000000000008152600401610339906136fc565b60405180910390fd5b7f5395b5ba48dc644bb58ac1718afd89140de72f86e36ea5c491a7a5d19fd7bc29838583604051610375939291906138cd565b60405180910390a160005b8151811015610611576000600281111561039d5761039c613757565b5b8282815181106103b0576103af61390b565b5b6020026020010151600001516000015160028111156103d2576103d1613757565b5b0361043d578181815181106103ea576103e961390b565b5b602002602001015160200151341015610438576040517f08c379a000000000000000000000000000000000000000000000000000000000815260040161042f906139ac565b60405180910390fd5b610600565b6001600281111561045157610450613757565b5b8282815181106104645761046361390b565b5b60200260200101516000015160000151600281111561048657610485613757565b5b036105c45760008282815181106104a05761049f61390b565b5b60200260200101516000015160200151905060008173ffffffffffffffffffffffffffffffffffffffff1663dd62ed3e33306040518363ffffffff1660e01b81526004016104ef9291906139cc565b602060405180830381865afa15801561050c573d6000803e3d6000fd5b505050506040513d601f19601f820116820180604052508101906105309190613a0a565b90508383815181106105455761054461390b565b5b602002602001015160200151811015610593576040517f08c379a000000000000000000000000000000000000000000000000000000000815260040161058a90613a83565b60405180910390fd5b6105bd8233308787815181106105ac576105ab61390b565b5b60200260200101516020015161087d565b50506105ff565b6040517f08c379a00000000000000000000000000000000000000000000000000000000081526004016105f690613b15565b60405180910390fd5b5b8061060a90613b64565b9050610380565b5061061d848383610906565b50505050565b600260009054906101000a900473ffffffffffffffffffffffffffffffffffffffff1681565b600160009054906101000a900473ffffffffffffffffffffffffffffffffffffffff1681565b610677610ce0565b6000600167ffffffffffffffff81111561069457610693612be1565b5b6040519080825280602002602001820160405280156106cd57816020015b6106ba6129a8565b8152602001906001900390816106b25790505b50905060405180604001604052806040518060400160405280600060028111156106fa576106f9613757565b5b8152602001600073ffffffffffffffffffffffffffffffffffffffff1681525081526020016000815250816000815181106107385761073761390b565b5b6020026020010181905250610757338361075190613bac565b83610906565b50610760610d2f565b50565b60008054906101000a900473ffffffffffffffffffffffffffffffffffffffff1681565b60006107b5600160009054906101000a900473ffffffffffffffffffffffffffffffffffffffff1683610d39565b9050919050565b600260149054906101000a900460ff1681565b6000808390508073ffffffffffffffffffffffffffffffffffffffff1663931281367f18fa4b105101c66136345367eab77cd274c0766ec0596b7e8aadd79e9913955560001b856040518363ffffffff1660e01b8152600401610833929190613bd8565b602060405180830381865afa158015610850573d6000803e3d6000fd5b505050506040513d601f19601f820116820180604052508101906108749190613c16565b91505092915050565b610900846323b872dd60e01b85858560405160240161089e93929190613c43565b604051602081830303815290604052907bffffffffffffffffffffffffffffffffffffffffffffffffffffffff19166020820180517bffffffffffffffffffffffffffffffffffffffffffffffffffffffff8381831617835250505050610de7565b50505050565b7f7d0ad34b602eae9f7989c0d4098383fc3f6a4f75fdb79860c0f58b2c08c4e64d83836040516109379291906140ec565b60405180910390a160006109496129c8565b600034146109685761096760003483610eae9092919063ffffffff16565b5b60005b83518110156109d25760008482815181106109895761098861390b565b5b602002602001015190506000816020015111156109be576109bd8160000151826020015185610fae9092919063ffffffff16565b5b5080806109ca90613b64565b91505061096b565b506109dc84610fc6565b6000808560200151511115610cc5575b600115610cc457600085602001518461ffff1681518110610a1057610a0f61390b565b5b60200260200101519050600161ffff16816000015161ffff1610158015610a445750600361ffff16816000015161ffff1611155b15610ae1576000600161ffff16826000015161ffff1603610a6f57610a688261101a565b9050610aa6565b600261ffff16826000015161ffff1603610a9657610a8f8285600061105d565b9050610aa5565b610aa28285600161105d565b90505b5b7fffffffffffffffffffffffffffffffffffffffffffffffffffffffffffffffff8160010b03610ad7575050610cc4565b80945050506109ec565b6000610af5826020015183600001516111bf565b90506000610b08898685604001516112a3565b90506000610b1b83838660600151611450565b90507f0ecf67ee1b222587703c562c1226ba7cbea693bb2a3c5f735127ae90c7ceb47a87858660000151868686604051610b5a969594939291906142b7565b60405180910390a160005b816000015151811015610bdc57610bcb82600001518281518110610b8c57610b8b61390b565b5b60200260200101516000015183600001518381518110610baf57610bae61390b565b5b6020026020010151602001518961159f9092919063ffffffff16565b80610bd590613b64565b9050610b65565b5060005b816020015151811015610c7c57610c4682602001518281518110610c0757610c0661390b565b5b60200260200101516000015183602001518381518110610c2a57610c2961390b565b5b60200260200101516020015189610fae9092919063ffffffff16565b81602001518181518110610c5d57610c5c61390b565b5b602002602001015160200151955080610c7590613b64565b9050610be0565b507fffffffffffffffffffffffffffffffffffffffffffffffffffffffffffffffff846080015160010b03610cb45750505050610cc4565b83608001519650505050506109ec565b5b610cce856115b7565b610cd8868361160b565b505050505050565b600260035403610d25576040517f08c379a0000000000000000000000000000000000000000000000000000000008152600401610d1c90614379565b60405180910390fd5b6002600381905550565b6001600381905550565b6000808390508073ffffffffffffffffffffffffffffffffffffffff1663a2ccb5227fc94d198e6194ea38dbd900920351d7f8e6c6d85b1d3b803fb93c54be008e11fd60001b856040518363ffffffff1660e01b8152600401610d9d9291906143ca565b602060405180830381865afa158015610dba573d6000803e3d6000fd5b505050506040513d601f19601f82011682018060405250810190610dde9190614408565b91505092915050565b6000610e49826040518060400160405280602081526020017f5361666545524332303a206c6f772d6c6576656c2063616c6c206661696c65648152508573ffffffffffffffffffffffffffffffffffffffff166118109092919063ffffffff16565b9050600081511115610ea95780806020019051810190610e699190613c16565b610ea8576040517f08c379a0000000000000000000000000000000000000000000000000000000008152600401610e9f906144a7565b60405180910390fd5b5b505050565b6000811115610fa9576000610ec38484611828565b9050600080610ef1866000015184600a8110610ee257610ee161390b565b5b6020020151602001518561193e565b9150915081610f5b57610f5a6040518060400160405280600681526020017f637265646974000000000000000000000000000000000000000000000000000081525086886000015186600a8110610f4b57610f4a61390b565b5b6020020151602001518761196d565b5b80866000015184600a8110610f7357610f7261390b565b5b6020020151602001818152505083866000015184600a8110610f9857610f9761390b565b5b602002015160400181815250505050505b505050565b610fc183610fbb84611a2e565b83610eae565b505050565b60005b8160400151518110156110165761100563b4110e0a60e01b83604001518381518110610ff857610ff761390b565b5b6020026020010151611a49565b8061100f90613b64565b9050610fc9565b5050565b6000808260600151806020019051810190611035919061452c565b90504681600001510361104f578060200151915050611058565b82608001519150505b919050565b6000808460600151806020019051810190611078919061465b565b90506000816020015190506000611093868460000151611b89565b905060008060028111156110aa576110a9613757565b5b8660028111156110bd576110bc613757565b5b036110ce578160200151905061110f565b600160028111156110e2576110e1613757565b5b8660028111156110f5576110f4613757565b5b03611106578160400151905061110e565b816060015190505b5b60008460400151905060008460008114611150576001811461115a5760028114611165576003811461116f576004811461117d576005811461118757611191565b8284149150611191565b828414199150611191565b8284109150611191565b828410838514179150611191565b8284119150611191565b8284118385141791505b5080156111aa57856060015196505050505050506111b8565b896080015196505050505050505b9392505050565b60008073ffffffffffffffffffffffffffffffffffffffff168373ffffffffffffffffffffffffffffffffffffffff160361122757611220600160009054906101000a900473ffffffffffffffffffffffffffffffffffffffff1683610d39565b905061129d565b6000611256600160009054906101000a900473ffffffffffffffffffffffffffffffffffffffff168486611c4b565b905080611298576040517f08c379a000000000000000000000000000000000000000000000000000000000815260040161128f906146d4565b60405180910390fd5b839150505b92915050565b60606000825167ffffffffffffffff8111156112c2576112c1612be1565b5b6040519080825280602002602001820160405280156112fb57816020015b6112e86129a8565b8152602001906001900390816112e05790505b50905060005b835181101561144457600084828151811061131f5761131e61390b565b5b6020026020010151905080604001518383815181106113415761134061390b565b5b60200260200101516000018190525080600001511561136657611365878288611cdf565b5b600061137f826040015188611edc90919063ffffffff16565b90508160200151156113c157611399818360600151611ef4565b8484815181106113ac576113ab61390b565b5b60200260200101516020018181525050611431565b8160600151811015611408576040517f08c379a00000000000000000000000000000000000000000000000000000000081526004016113ff90614766565b60405180910390fd5b81606001518484815181106114205761141f61390b565b5b602002602001015160200181815250505b50508061143d90613b64565b9050611301565b50809150509392505050565b6114586129eb565b6000808573ffffffffffffffffffffffffffffffffffffffff16637bb26ca760e01b868660405160240161148d9291906147d0565b604051602081830303815290604052907bffffffffffffffffffffffffffffffffffffffffffffffffffffffff19166020820180517bffffffffffffffffffffffffffffffffffffffffffffffffffffffff83818316178352505050506040516114f79190614843565b600060405180830381855af49150503d8060008114611532576040519150601f19603f3d011682016040523d82523d6000602084013e611537565b606091505b509150915081819061157f576040517f08c379a0000000000000000000000000000000000000000000000000000000008152600401611576919061489e565b60405180910390fd5b50808060200190518101906115949190614ab3565b925050509392505050565b6115b2836115ac84611a2e565b83611f71565b505050565b60005b816060015151811015611607576115f663d538a14460e01b836060015183815181106115e9576115e861390b565b5b6020026020010151611a49565b8061160090613b64565b90506115ba565b5050565b60005b61161782612071565b60ff168160ff16101561180b576000611639828461207f90919063ffffffff16565b90506000816000015190506000611656836020015161012c611ef4565b9050600081846020015161166a9190614afc565b90507fb57bad0019da5831064de8f296d1458a6ca8403646dd9c362e9ddbb588cb52c083856020015184846040516116a59493929190614b5f565b60405180910390a1600060028111156116c1576116c0613757565b5b836000015160028111156116d8576116d7613757565b5b03611770578360200151471015611724576040517f08c379a000000000000000000000000000000000000000000000000000000000815260040161171b90614c16565b60405180910390fd5b8673ffffffffffffffffffffffffffffffffffffffff166108fc829081150290604051600060405180830381858888f1935050505015801561176a573d6000803e3d6000fd5b506117f6565b6001600281111561178457611783613757565b5b8360000151600281111561179b5761179a613757565b5b036117ba576000836020015190506117b4818984612142565b506117f5565b6040517f08c379a00000000000000000000000000000000000000000000000000000000081526004016117ec90614ca8565b60405180910390fd5b5b505050508061180490614cd5565b905061160e565b505050565b606061181f84846000856121c8565b90509392505050565b600080600090505b836020015160ff1681101561187f5782846000015182600a81106118575761185661390b565b5b6020020151600001510361186e5780915050611938565b8061187890613b64565b9050611830565b50600a60ff16836020015160ff16106118cd576040517f08c379a00000000000000000000000000000000000000000000000000000000081526004016118c490614d4a565b60405180910390fd5b6040518060800160405280838152602001600081526020016000815260200160008152508360000151846020015160ff16600a811061190f5761190e61390b565b5b602002018190525082602001805180919061192990614cd5565b60ff1660ff1681525060ff1690505b92915050565b600080600083850190508481101561195d576000809250925050611966565b60018192509250505b9250929050565b600061197884612295565b90508461199a8260000151600281111561199557611994613757565b5b612307565b6119bd836020015173ffffffffffffffffffffffffffffffffffffffff166123d5565b6119c686612307565b6119cf86612307565b6040516020016119e3959493929190614e3e565b6040516020818303038152906040526040517f08c379a0000000000000000000000000000000000000000000000000000000008152600401611a25919061489e565b60405180910390fd5b6000611a42826000015183602001516123f3565b9050919050565b6000611a5d826020015183600001516111bf565b90506000808273ffffffffffffffffffffffffffffffffffffffff16858560400151604051602401611a8f9190614ec5565b604051602081830303815290604052907bffffffffffffffffffffffffffffffffffffffffffffffffffffffff19166020820180517bffffffffffffffffffffffffffffffffffffffffffffffffffffffff8381831617835250505050604051611af99190614843565b600060405180830381855af49150503d8060008114611b34576040519150601f19603f3d011682016040523d82523d6000602084013e611b39565b606091505b5091509150818190611b81576040517f08c379a0000000000000000000000000000000000000000000000000000000008152600401611b78919061489e565b60405180910390fd5b505050505050565b611b91612a20565b6000836000015190506000611ba584611a2e565b905060005b856020015160ff168161ffff161015611c1a5781838261ffff16600a8110611bd557611bd461390b565b5b60200201516000015103611c0957828161ffff16600a8110611bfa57611bf961390b565b5b60200201519350505050611c45565b80611c1390614ee7565b9050611baa565b5060405180608001604052806000815260200160008152602001600081526020016000815250925050505b92915050565b6000808490508073ffffffffffffffffffffffffffffffffffffffff166393128136611c7686612449565b856040518363ffffffff1660e01b8152600401611c94929190613bd8565b602060405180830381865afa158015611cb1573d6000803e3d6000fd5b505050506040513d601f19601f82011682018060405250810190611cd59190613c16565b9150509392505050565b600015158260200151151514611d2a576040517f08c379a0000000000000000000000000000000000000000000000000000000008152600401611d2190614f83565b60405180910390fd5b60006002811115611d3e57611d3d613757565b5b8260400151600001516002811115611d5957611d58613757565b5b0315611ed75760016002811115611d7357611d72613757565b5b8260400151600001516002811115611d8e57611d8d613757565b5b03611e9b576000826040015160200151905060008173ffffffffffffffffffffffffffffffffffffffff1663dd62ed3e86306040518363ffffffff1660e01b8152600401611ddd9291906139cc565b602060405180830381865afa158015611dfa573d6000803e3d6000fd5b505050506040513d601f19601f82011682018060405250810190611e1e9190613a0a565b90508360600151811015611e67576040517f08c379a0000000000000000000000000000000000000000000000000000000008152600401611e5e90613a83565b60405180910390fd5b611e77828630876060015161087d565b611e948460400151856060015185610fae9092919063ffffffff16565b5050611ed6565b6040517f08c379a0000000000000000000000000000000000000000000000000000000008152600401611ecd90615015565b60405180910390fd5b5b505050565b6000611ee88383611b89565b60200151905092915050565b600081600011158015611f0a5750620186a08211155b611f49576040517f08c379a0000000000000000000000000000000000000000000000000000000008152600401611f40906150a7565b60405180910390fd5b60008284611f5791906150c7565b9050620186a081611f689190615138565b91505092915050565b600081111561206c576000611f868484611828565b9050600080611fb4866000015184600a8110611fa557611fa461390b565b5b60200201516020015185612479565b915091508161201e5761201d6040518060400160405280600581526020017f646562697400000000000000000000000000000000000000000000000000000081525086886000015186600a811061200e5761200d61390b565b5b6020020151602001518761196d565b5b80866000015184600a81106120365761203561390b565b5b6020020151602001818152505083866000015184600a811061205b5761205a61390b565b5b602002015160600181815250505050505b505050565b600081602001519050919050565b6120876129a8565b826020015160ff168260ff16106120d3576040517f08c379a00000000000000000000000000000000000000000000000000000000081526004016120ca906151db565b60405180910390fd5b600061210084600001518460ff16600a81106120f2576120f161390b565b5b602002015160000151612295565b9050604051806040016040528082815260200185600001518560ff16600a811061212d5761212c61390b565b5b60200201516020015181525091505092915050565b6121c38363a9059cbb60e01b84846040516024016121619291906151fb565b604051602081830303815290604052907bffffffffffffffffffffffffffffffffffffffffffffffffffffffff19166020820180517bffffffffffffffffffffffffffffffffffffffffffffffffffffffff8381831617835250505050610de7565b505050565b60608247101561220d576040517f08c379a000000000000000000000000000000000000000000000000000000000815260040161220490615296565b60405180910390fd5b6000808673ffffffffffffffffffffffffffffffffffffffff1685876040516122369190614843565b60006040518083038185875af1925050503d8060008114612273576040519150601f19603f3d011682016040523d82523d6000602084013e612278565b606091505b5091509150612289878383876124a1565b92505050949350505050565b61229d612a48565b60008261ffff1660028111156122b6576122b5613757565b5b90506000601084901c905060405180604001604052808360028111156122df576122de613757565b5b81526020018273ffffffffffffffffffffffffffffffffffffffff1681525092505050919050565b60606000600161231684612516565b01905060008167ffffffffffffffff81111561233557612334612be1565b5b6040519080825280601f01601f1916602001820160405280156123675781602001600182028036833780820191505090505b509050600082602001820190505b6001156123ca578080600190039150507f3031323334353637383961626364656600000000000000000000000000000000600a86061a8153600a85816123be576123bd615109565b5b04945060008503612375575b819350505050919050565b60606123ec8260016123e685612669565b016126f9565b9050919050565b60008082905060008173ffffffffffffffffffffffffffffffffffffffff1690506000601082901b9050600086600281111561243257612431613757565b5b905060008183179050809550505050505092915050565b60008160405160200161245c9190615338565b604051602081830303815290604052805190602001209050919050565b60008083831115612490576000809150915061249a565b6001838503915091505b9250929050565b606083156125035760008351036124fb576124bb85612935565b6124fa576040517f08c379a00000000000000000000000000000000000000000000000000000000081526004016124f1906153aa565b60405180910390fd5b5b82905061250e565b61250d8383612958565b5b949350505050565b600080600090507a184f03e93ff9f4daa797ed6e38ed64bf6a1f0100000000000000008310612574577a184f03e93ff9f4daa797ed6e38ed64bf6a1f010000000000000000838161256a57612569615109565b5b0492506040810190505b6d04ee2d6d415b85acef810000000083106125b1576d04ee2d6d415b85acef810000000083816125a7576125a6615109565b5b0492506020810190505b662386f26fc1000083106125e057662386f26fc1000083816125d6576125d5615109565b5b0492506010810190505b6305f5e1008310612609576305f5e10083816125ff576125fe615109565b5b0492506008810190505b612710831061262e57612710838161262457612623615109565b5b0492506004810190505b60648310612651576064838161264757612646615109565b5b0492506002810190505b600a8310612660576001810190505b80915050919050565b600080600090506000608084901c111561268b57608083901c92506010810190505b6000604084901c11156126a657604083901c92506008810190505b6000602084901c11156126c157602083901c92506004810190505b6000601084901c11156126dc57601083901c92506002810190505b6000600884901c11156126f0576001810190505b80915050919050565b60606000600283600261270c91906150c7565b61271691906153ca565b67ffffffffffffffff81111561272f5761272e612be1565b5b6040519080825280601f01601f1916602001820160405280156127615781602001600182028036833780820191505090505b5090507f3000000000000000000000000000000000000000000000000000000000000000816000815181106127995761279861390b565b5b60200101907effffffffffffffffffffffffffffffffffffffffffffffffffffffffffffff1916908160001a9053507f7800000000000000000000000000000000000000000000000000000000000000816001815181106127fd576127fc61390b565b5b60200101907effffffffffffffffffffffffffffffffffffffffffffffffffffffffffffff1916908160001a9053506000600184600261283d91906150c7565b61284791906153ca565b90505b60018111156128e7577f3031323334353637383961626364656600000000000000000000000000000000600f8616601081106128895761288861390b565b5b1a60f81b8282815181106128a05761289f61390b565b5b60200101907effffffffffffffffffffffffffffffffffffffffffffffffffffffffffffff1916908160001a905350600485901c9450806128e0906153fe565b905061284a565b506000841461292b576040517f08c379a000000000000000000000000000000000000000000000000000000000815260040161292290615473565b60405180910390fd5b8091505092915050565b6000808273ffffffffffffffffffffffffffffffffffffffff163b119050919050565b60008251111561296b5781518083602001fd5b806040517f08c379a000000000000000000000000000000000000000000000000000000000815260040161299f919061489e565b60405180910390fd5b60405180604001604052806129bb612a48565b8152602001600081525090565b60405180604001604052806129db612a8a565b8152602001600060ff1681525090565b6040518060a00160405280606081526020016060815260200160608152602001600060010b8152602001600060020b81525090565b6040518060800160405280600081526020016000815260200160008152602001600081525090565b604051806040016040528060006002811115612a6757612a66613757565b5b8152602001600073ffffffffffffffffffffffffffffffffffffffff1681525090565b604051806101400160405280600a905b612aa2612a20565b815260200190600190039081612a9a5790505090565b6000604051905090565b600080fd5b600080fd5b600073ffffffffffffffffffffffffffffffffffffffff82169050919050565b6000612af782612acc565b9050919050565b612b0781612aec565b8114612b1257600080fd5b50565b600081359050612b2481612afe565b92915050565b600060208284031215612b4057612b3f612ac2565b5b6000612b4e84828501612b15565b91505092915050565b6000612b6282612acc565b9050919050565b612b7281612b57565b8114612b7d57600080fd5b50565b600081359050612b8f81612b69565b92915050565b6000819050919050565b612ba881612b95565b8114612bb357600080fd5b50565b600081359050612bc581612b9f565b92915050565b600080fd5b6000601f19601f8301169050919050565b7f4e487b7100000000000000000000000000000000000000000000000000000000600052604160045260246000fd5b612c1982612bd0565b810181811067ffffffffffffffff82111715612c3857612c37612be1565b5b80604052505050565b6000612c4b612ab8565b9050612c578282612c10565b919050565b600080fd5b600080fd5b600067ffffffffffffffff821115612c8157612c80612be1565b5b602082029050602081019050919050565b600080fd5b600061ffff82169050919050565b612cae81612c97565b8114612cb957600080fd5b50565b600081359050612ccb81612ca5565b92915050565b600067ffffffffffffffff821115612cec57612ceb612be1565b5b602082029050602081019050919050565b60008115159050919050565b612d1281612cfd565b8114612d1d57600080fd5b50565b600081359050612d2f81612d09565b92915050565b60038110612d4257600080fd5b50565b600081359050612d5481612d35565b92915050565b600060408284031215612d7057612d6f612bcb565b5b612d7a6040612c41565b90506000612d8a84828501612d45565b6000830152506020612d9e84828501612b80565b60208301525092915050565b600060a08284031215612dc057612dbf612bcb565b5b612dca6080612c41565b90506000612dda84828501612d20565b6000830152506020612dee84828501612d20565b6020830152506040612e0284828501612d5a565b6040830152506080612e1684828501612bb6565b60608301525092915050565b6000612e35612e3084612cd1565b612c41565b90508083825260208201905060a08402830185811115612e5857612e57612c92565b5b835b81811015612e815780612e6d8882612daa565b84526020840193505060a081019050612e5a565b5050509392505050565b600082601f830112612ea057612e9f612c61565b5b8135612eb0848260208601612e22565b91505092915050565b600080fd5b600067ffffffffffffffff821115612ed957612ed8612be1565b5b612ee282612bd0565b9050602081019050919050565b82818337600083830152505050565b6000612f11612f0c84612ebe565b612c41565b905082815260208101848484011115612f2d57612f2c612eb9565b5b612f38848285612eef565b509392505050565b600082601f830112612f5557612f54612c61565b5b8135612f65848260208601612efe565b91505092915050565b60008160010b9050919050565b612f8481612f6e565b8114612f8f57600080fd5b50565b600081359050612fa181612f7b565b92915050565b600060a08284031215612fbd57612fbc612bcb565b5b612fc760a0612c41565b90506000612fd784828501612cbc565b6000830152506020612feb84828501612b80565b602083015250604082013567ffffffffffffffff81111561300f5761300e612c5c565b5b61301b84828501612e8b565b604083015250606082013567ffffffffffffffff81111561303f5761303e612c5c565b5b61304b84828501612f40565b606083015250608061305f84828501612f92565b60808301525092915050565b600061307e61307984612c66565b612c41565b905080838252602082019050602084028301858111156130a1576130a0612c92565b5b835b818110156130e857803567ffffffffffffffff8111156130c6576130c5612c61565b5b8086016130d38982612fa7565b855260208501945050506020810190506130a3565b5050509392505050565b600082601f83011261310757613106612c61565b5b813561311784826020860161306b565b91505092915050565b600067ffffffffffffffff82111561313b5761313a612be1565b5b602082029050602081019050919050565b60006060828403121561316257613161612bcb565b5b61316c6060612c41565b9050600061317c84828501612cbc565b600083015250602061319084828501612b80565b602083015250604082013567ffffffffffffffff8111156131b4576131b3612c5c565b5b6131c084828501612f40565b60408301525092915050565b60006131df6131da84613120565b612c41565b9050808382526020820190506020840283018581111561320257613201612c92565b5b835b8181101561324957803567ffffffffffffffff81111561322757613226612c61565b5b808601613234898261314c565b85526020850194505050602081019050613204565b5050509392505050565b600082601f83011261326857613267612c61565b5b81356132788482602086016131cc565b91505092915050565b60006080828403121561329757613296612bcb565b5b6132a16080612c41565b905060006132b184828501612b80565b600083015250602082013567ffffffffffffffff8111156132d5576132d4612c5c565b5b6132e1848285016130f2565b602083015250604082013567ffffffffffffffff81111561330557613304612c5c565b5b61331184828501613253565b604083015250606082013567ffffffffffffffff81111561333557613334612c5c565b5b61334184828501613253565b60608301525092915050565b600067ffffffffffffffff82111561336857613367612be1565b5b602082029050602081019050919050565b60006060828403121561338f5761338e612bcb565b5b6133996040612c41565b905060006133a984828501612d5a565b60008301525060406133bd84828501612bb6565b60208301525092915050565b60006133dc6133d78461334d565b612c41565b905080838252602082019050606084028301858111156133ff576133fe612c92565b5b835b8181101561342857806134148882613379565b845260208401935050606081019050613401565b5050509392505050565b600082601f83011261344757613446612c61565b5b81356134578482602086016133c9565b91505092915050565b6000806000806080858703121561347a57613479612ac2565b5b600061348887828801612b80565b945050602061349987828801612bb6565b935050604085013567ffffffffffffffff8111156134ba576134b9612ac7565b5b6134c687828801613281565b925050606085013567ffffffffffffffff8111156134e7576134e6612ac7565b5b6134f387828801613432565b91505092959194509250565b61350881612b57565b82525050565b600060208201905061352360008301846134ff565b92915050565b600080fd5b60006080828403121561354457613543613529565b5b81905092915050565b60006020828403121561356357613562612ac2565b5b600082013567ffffffffffffffff81111561358157613580612ac7565b5b61358d8482850161352e565b91505092915050565b61359f81612aec565b82525050565b60006020820190506135ba6000830184613596565b92915050565b6000602082840312156135d6576135d5612ac2565b5b60006135e484828501612cbc565b91505092915050565b6135f681612cfd565b82525050565b600060208201905061361160008301846135ed565b92915050565b6000819050919050565b600061363c61363761363284612acc565b613617565b612acc565b9050919050565b600061364e82613621565b9050919050565b600061366082613643565b9050919050565b61367081613655565b82525050565b600060408201905061368b60008301856134ff565b6136986020830184613667565b9392505050565b600082825260208201905092915050565b7f63616c6c6572206973206e6f7420612076616c69642073746570000000000000600082015250565b60006136e6601a8361369f565b91506136f1826136b0565b602082019050919050565b60006020820190508181036000830152613715816136d9565b9050919050565b61372581612b95565b82525050565b600081519050919050565b600082825260208201905092915050565b6000819050602082019050919050565b7f4e487b7100000000000000000000000000000000000000000000000000000000600052602160045260246000fd5b6003811061379757613796613757565b5b50565b60008190506137a882613786565b919050565b60006137b88261379a565b9050919050565b6137c8816137ad565b82525050565b6137d781612b57565b82525050565b6040820160008201516137f360008501826137bf565b50602082015161380660208501826137ce565b50505050565b61381581612b95565b82525050565b60608201600082015161383160008501826137dd565b506020820151613844604085018261380c565b50505050565b6000613856838361381b565b60608301905092915050565b6000602082019050919050565b600061387a8261372b565b6138848185613736565b935061388f83613747565b8060005b838110156138c05781516138a7888261384a565b97506138b283613862565b925050600181019050613893565b5085935050505092915050565b60006060820190506138e2600083018661371c565b6138ef60208301856134ff565b8181036040830152613901818461386f565b9050949350505050565b7f4e487b7100000000000000000000000000000000000000000000000000000000600052603260045260246000fd5b7f6d73672e76616c7565206973206c657373207468616e207374617274696e672060008201527f617373657420616d6f756e740000000000000000000000000000000000000000602082015250565b6000613996602c8361369f565b91506139a18261393a565b604082019050919050565b600060208201905081810360008301526139c581613989565b9050919050565b60006040820190506139e160008301856134ff565b6139ee60208301846134ff565b9392505050565b600081519050613a0481612b9f565b92915050565b600060208284031215613a2057613a1f612ac2565b5b6000613a2e848285016139f5565b91505092915050565b7f696e73756666696369656e7420616c6c6f77616e636520666f72206572633230600082015250565b6000613a6d60208361369f565b9150613a7882613a37565b602082019050919050565b60006020820190508181036000830152613a9c81613a60565b9050919050565b7f756e6b6e6f776e206173736574207479706520696e207374617274696e67417360008201527f7365747300000000000000000000000000000000000000000000000000000000602082015250565b6000613aff60248361369f565b9150613b0a82613aa3565b604082019050919050565b60006020820190508181036000830152613b2e81613af2565b9050919050565b7f4e487b7100000000000000000000000000000000000000000000000000000000600052601160045260246000fd5b6000613b6f82612b95565b91507fffffffffffffffffffffffffffffffffffffffffffffffffffffffffffffffff8203613ba157613ba0613b35565b5b600182019050919050565b6000613bb83683613281565b9050919050565b6000819050919050565b613bd281613bbf565b82525050565b6000604082019050613bed6000830185613bc9565b613bfa60208301846134ff565b9392505050565b600081519050613c1081612d09565b92915050565b600060208284031215613c2c57613c2b612ac2565b5b6000613c3a84828501613c01565b91505092915050565b6000606082019050613c5860008301866134ff565b613c6560208301856134ff565b613c72604083018461371c565b949350505050565b600081519050919050565b600082825260208201905092915050565b6000819050602082019050919050565b613caf81612c97565b82525050565b600081519050919050565b600082825260208201905092915050565b6000819050602082019050919050565b613cea81612cfd565b82525050565b60a082016000820151613d066000850182613ce1565b506020820151613d196020850182613ce1565b506040820151613d2c60408501826137dd565b506060820151613d3f608085018261380c565b50505050565b6000613d518383613cf0565b60a08301905092915050565b6000602082019050919050565b6000613d7582613cb5565b613d7f8185613cc0565b9350613d8a83613cd1565b8060005b83811015613dbb578151613da28882613d45565b9750613dad83613d5d565b925050600181019050613d8e565b5085935050505092915050565b600081519050919050565b600082825260208201905092915050565b60005b83811015613e02578082015181840152602081019050613de7565b60008484015250505050565b6000613e1982613dc8565b613e238185613dd3565b9350613e33818560208601613de4565b613e3c81612bd0565b840191505092915050565b613e5081612f6e565b82525050565b600060a083016000830151613e6e6000860182613ca6565b506020830151613e8160208601826137ce565b5060408301518482036040860152613e998282613d6a565b91505060608301518482036060860152613eb38282613e0e565b9150506080830151613ec86080860182613e47565b508091505092915050565b6000613edf8383613e56565b905092915050565b6000602082019050919050565b6000613eff82613c7a565b613f098185613c85565b935083602082028501613f1b85613c96565b8060005b85811015613f575784840389528151613f388582613ed3565b9450613f4383613ee7565b925060208a01995050600181019050613f1f565b50829750879550505050505092915050565b600081519050919050565b600082825260208201905092915050565b6000819050602082019050919050565b6000606083016000830151613fad6000860182613ca6565b506020830151613fc060208601826137ce565b5060408301518482036040860152613fd88282613e0e565b9150508091505092915050565b6000613ff18383613f95565b905092915050565b6000602082019050919050565b600061401182613f69565b61401b8185613f74565b93508360208202850161402d85613f85565b8060005b85811015614069578484038952815161404a8582613fe5565b945061405583613ff9565b925060208a01995050600181019050614031565b50829750879550505050505092915050565b600060808301600083015161409360008601826137ce565b50602083015184820360208601526140ab8282613ef4565b915050604083015184820360408601526140c58282614006565b915050606083015184820360608601526140df8282614006565b9150508091505092915050565b600060408201905061410160008301856134ff565b8181036020830152614113818461407b565b90509392505050565b61412581612c97565b82525050565b600060a0830160008301516141436000860182613ca6565b50602083015161415660208601826137ce565b506040830151848203604086015261416e8282613d6a565b915050606083015184820360608601526141888282613e0e565b915050608083015161419d6080860182613e47565b508091505092915050565b600082825260208201905092915050565b60006141c48261372b565b6141ce81856141a8565b93506141d983613747565b8060005b8381101561420a5781516141f1888261384a565b97506141fc83613862565b9250506001810190506141dd565b5085935050505092915050565b60008160020b9050919050565b61422d81614217565b82525050565b600060a083016000830151848203600086015261425082826141b9565b9150506020830151848203602086015261426a82826141b9565b9150506040830151848203604086015261428482826141b9565b91505060608301516142996060860182613e47565b5060808301516142ac6080860182614224565b508091505092915050565b600060c0820190506142cc600083018961411c565b81810360208301526142de818861412b565b90506142ed604083018761411c565b6142fa60608301866134ff565b818103608083015261430c818561386f565b905081810360a08301526143208184614233565b9050979650505050505050565b7f5265656e7472616e637947756172643a207265656e7472616e742063616c6c00600082015250565b6000614363601f8361369f565b915061436e8261432d565b602082019050919050565b6000602082019050818103600083015261439281614356565b9050919050565b60006143b46143af6143aa84612c97565b613617565b612b95565b9050919050565b6143c481614399565b82525050565b60006040820190506143df6000830185613bc9565b6143ec60208301846143bb565b9392505050565b60008151905061440281612b69565b92915050565b60006020828403121561441e5761441d612ac2565b5b600061442c848285016143f3565b91505092915050565b7f5361666545524332303a204552433230206f7065726174696f6e20646964206e60008201527f6f74207375636365656400000000000000000000000000000000000000000000602082015250565b6000614491602a8361369f565b915061449c82614435565b604082019050919050565b600060208201905081810360008301526144c081614484565b9050919050565b6000815190506144d681612f7b565b92915050565b6000604082840312156144f2576144f1612bcb565b5b6144fc6040612c41565b9050600061450c848285016139f5565b6000830152506020614520848285016144c7565b60208301525092915050565b60006040828403121561454257614541612ac2565b5b6000614550848285016144dc565b91505092915050565b60008151905061456881612d35565b92915050565b60006040828403121561458457614583612bcb565b5b61458e6040612c41565b9050600061459e84828501614559565b60008301525060206145b2848285016143f3565b60208301525092915050565b600681106145cb57600080fd5b50565b6000815190506145dd816145be565b92915050565b600060a082840312156145f9576145f8612bcb565b5b6146036080612c41565b905060006146138482850161456e565b6000830152506040614627848285016145ce565b602083015250606061463b848285016139f5565b604083015250608061464f848285016144c7565b60608301525092915050565b600060a0828403121561467157614670612ac2565b5b600061467f848285016145e3565b91505092915050565b7f737465702061646472657373206e6f7420696e207768697465206c6973740000600082015250565b60006146be601e8361369f565b91506146c982614688565b602082019050919050565b600060208201905081810360008301526146ed816146b1565b9050919050565b7f6162736f6c75746520616d6f756e74206578636565647320776f726b666c6f7760008201527f2061737365742062616c616e6365000000000000000000000000000000000000602082015250565b6000614750602e8361369f565b915061475b826146f4565b604082019050919050565b6000602082019050818103600083015261477f81614743565b9050919050565b600082825260208201905092915050565b60006147a282613dc8565b6147ac8185614786565b93506147bc818560208601613de4565b6147c581612bd0565b840191505092915050565b600060408201905081810360008301526147ea818561386f565b905081810360208301526147fe8184614797565b90509392505050565b600081905092915050565b600061481d82613dc8565b6148278185614807565b9350614837818560208601613de4565b80840191505092915050565b600061484f8284614812565b915081905092915050565b600081519050919050565b60006148708261485a565b61487a818561369f565b935061488a818560208601613de4565b61489381612bd0565b840191505092915050565b600060208201905081810360008301526148b88184614865565b905092915050565b6000606082840312156148d6576148d5612bcb565b5b6148e06040612c41565b905060006148f08482850161456e565b6000830152506040614904848285016139f5565b60208301525092915050565b600061492361491e8461334d565b612c41565b9050808382526020820190506060840283018581111561494657614945612c92565b5b835b8181101561496f578061495b88826148c0565b845260208401935050606081019050614948565b5050509392505050565b600082601f83011261498e5761498d612c61565b5b815161499e848260208601614910565b91505092915050565b6149b081614217565b81146149bb57600080fd5b50565b6000815190506149cd816149a7565b92915050565b600060a082840312156149e9576149e8612bcb565b5b6149f360a0612c41565b9050600082015167ffffffffffffffff811115614a1357614a12612c5c565b5b614a1f84828501614979565b600083015250602082015167ffffffffffffffff811115614a4357614a42612c5c565b5b614a4f84828501614979565b602083015250604082015167ffffffffffffffff811115614a7357614a72612c5c565b5b614a7f84828501614979565b6040830152506060614a93848285016144c7565b6060830152506080614aa7848285016149be565b60808301525092915050565b600060208284031215614ac957614ac8612ac2565b5b600082015167ffffffffffffffff811115614ae757614ae6612ac7565b5b614af3848285016149d3565b91505092915050565b6000614b0782612b95565b9150614b1283612b95565b9250828203905081811115614b2a57614b29613b35565b5b92915050565b604082016000820151614b4660008501826137bf565b506020820151614b5960208501826137ce565b50505050565b600060a082019050614b746000830187614b30565b614b81604083018661371c565b614b8e606083018561371c565b614b9b608083018461371c565b95945050505050565b7f636f6d7075746564206e61746976652062616c616e636520697320677265617460008201527f6572207468616e2061637475616c2062616c616e636500000000000000000000602082015250565b6000614c0060368361369f565b9150614c0b82614ba4565b604082019050919050565b60006020820190508181036000830152614c2f81614bf3565b9050919050565b7f756e6b6e6f776e206173736574207479706520696e20617373657442616c616e60008201527f6365730000000000000000000000000000000000000000000000000000000000602082015250565b6000614c9260238361369f565b9150614c9d82614c36565b604082019050919050565b60006020820190508181036000830152614cc181614c85565b9050919050565b600060ff82169050919050565b6000614ce082614cc8565b915060ff8203614cf357614cf2613b35565b5b600182019050919050565b7f746f6f206d616e7920746f6b656e2062616c616e636573000000000000000000600082015250565b6000614d3460178361369f565b9150614d3f82614cfe565b602082019050919050565b60006020820190508181036000830152614d6381614d27565b9050919050565b600081905092915050565b6000614d808261485a565b614d8a8185614d6a565b9350614d9a818560208601613de4565b80840191505092915050565b7f206173736574547970653d000000000000000000000000000000000000000000815250565b7f206173736574416464726573733d000000000000000000000000000000000000815250565b7f2076616c75657320000000000000000000000000000000000000000000000000815250565b7f2c20000000000000000000000000000000000000000000000000000000000000815250565b6000614e4a8288614d75565b9150614e5582614da6565b600b82019150614e658287614d75565b9150614e7082614dcc565b600e82019150614e808286614d75565b9150614e8b82614df2565b600882019150614e9b8285614d75565b9150614ea682614e18565b600282019150614eb68284614d75565b91508190509695505050505050565b60006020820190508181036000830152614edf8184614797565b905092915050565b6000614ef282612c97565b915061ffff8203614f0657614f05613b35565b5b600182019050919050565b7f63616e6e6f74207573652070657263656e7461676520666f7220616d6f756e7460008201527f206f662061737365742066726f6d2063616c6c65720000000000000000000000602082015250565b6000614f6d60358361369f565b9150614f7882614f11565b604082019050919050565b60006020820190508181036000830152614f9c81614f60565b9050919050565b7f756e6b6e6f776e206173736574207479706520696e20696e707574417373657460008201527f416d6f756e747300000000000000000000000000000000000000000000000000602082015250565b6000614fff60278361369f565b915061500a82614fa3565b604082019050919050565b6000602082019050818103600083015261502e81614ff2565b9050919050565b7f70657263656e74206d757374206265206265747765656e203020616e6420313060008201527f3030303000000000000000000000000000000000000000000000000000000000602082015250565b600061509160248361369f565b915061509c82615035565b604082019050919050565b600060208201905081810360008301526150c081615084565b9050919050565b60006150d282612b95565b91506150dd83612b95565b92508282026150eb81612b95565b9150828204841483151761510257615101613b35565b5b5092915050565b7f4e487b7100000000000000000000000000000000000000000000000000000000600052601260045260246000fd5b600061514382612b95565b915061514e83612b95565b92508261515e5761515d615109565b5b828204905092915050565b7f696e646578206f7574206f6620626f756e6473207768696c652061636365737360008201527f696e672061737365742062616c616e6365730000000000000000000000000000602082015250565b60006151c560328361369f565b91506151d082615169565b604082019050919050565b600060208201905081810360008301526151f4816151b8565b9050919050565b600060408201905061521060008301856134ff565b61521d602083018461371c565b9392505050565b7f416464726573733a20696e73756666696369656e742062616c616e636520666f60008201527f722063616c6c0000000000000000000000000000000000000000000000000000602082015250565b600061528060268361369f565b915061528b82615224565b604082019050919050565b600060208201905081810360008301526152af81615273565b9050919050565b7f7374657057686974654c69737400000000000000000000000000000000000000600082015250565b60006152ec600d83614d6a565b91506152f7826152b6565b600d82019050919050565b60008160f01b9050919050565b600061531a82615302565b9050919050565b61533261532d82612c97565b61530f565b82525050565b6000615343826152df565b915061534f8284615321565b60028201915081905092915050565b7f416464726573733a2063616c6c20746f206e6f6e2d636f6e7472616374000000600082015250565b6000615394601d8361369f565b915061539f8261535e565b602082019050919050565b600060208201905081810360008301526153c381615387565b9050919050565b60006153d582612b95565b91506153e083612b95565b92508282019050808211156153f8576153f7613b35565b5b92915050565b600061540982612b95565b91506000820361541c5761541b613b35565b5b600182039050919050565b7f537472696e67733a20686578206c656e67746820696e73756666696369656e74600082015250565b600061545d60208361369f565b915061546882615427565b602082019050919050565b6000602082019050818103600083015261548c81615450565b905091905056fea264697066735822122014a9eebc8065dd7cf6419691178092c9c5ed6f093010b79a47a1da77ff10191664736f6c63430008120033",
  "devdoc": {
    "events": {
      "RemainingAsset((uint8,address),uint256,uint256,uint256)": {
        "params": {
          "asset": "The asset.",
          "feeAmount": "The portion of the total amount that FMP will keep as a fee.",
          "totalAmount": "The total amount of the asset.",
          "userAmount": "The portion of the total amount that is sent to the user."
        }
      },
      "WorkflowContinuation(uint256,address,((uint8,address),uint256)[])": {
        "params": {
          "nonce": "The nonce provided by the caller on the source chain, used to correlate the source chain workflow segment with this segment.",
          "startingAssets": "The asset that was transferred from the source chain to this chain"
        }
      },
      "WorkflowExecution(address,(address,(uint16,address,(bool,bool,(uint8,address),uint256)[],bytes,int16)[],(uint16,address,bytes)[],(uint16,address,bytes)[]))": {
        "params": {
          "userAddress": "The user for which this workflow is executing.",
          "workflow": "The workflow."
        }
      },
      "WorkflowStepExecution(uint16,(uint16,address,(bool,bool,(uint8,address),uint256)[],bytes,int16),uint16,address,((uint8,address),uint256)[],(((uint8,address),uint256)[],((uint8,address),uint256)[],((uint8,address),uint256)[],int16,int24))": {
        "params": {
          "inputAssetAmounts": "The input assets, with the absolute amount of each asset.",
          "result": "The result returned form the step invocation.",
          "step": "The step configuration.",
          "stepAddress": "The address of the step used for this invocation.",
          "stepIndex": "The index of the step in the Workflow.steps array.",
          "stepTypeId": "The logical id of the step (also repeated in the step param but duplicated here for convenience)."
        }
      }
    },
    "kind": "dev",
    "methods": {
      "executeWorkflow((address,(uint16,address,(bool,bool,(uint8,address),uint256)[],bytes,int16)[],(uint16,address,bytes)[],(uint16,address,bytes)[]))": {
        "params": {
          "workflow": "The workflow to execute."
        }
      }
    },
    "version": 1
  },
  "userdoc": {
    "events": {
      "RemainingAsset((uint8,address),uint256,uint256,uint256)": {
        "notice": "This event is emitted after the workflow has completed, once for each asset ramining with a non-zero amount."
      },
      "WorkflowContinuation(uint256,address,((uint8,address),uint256)[])": {
        "notice": "This event is emitted when this is a continuation of a workflow from another chain"
      },
      "WorkflowExecution(address,(address,(uint16,address,(bool,bool,(uint8,address),uint256)[],bytes,int16)[],(uint16,address,bytes)[],(uint16,address,bytes)[]))": {
        "notice": "This event is emitted when a workflow execution begins."
      },
      "WorkflowStepExecution(uint16,(uint16,address,(bool,bool,(uint8,address),uint256)[],bytes,int16),uint16,address,((uint8,address),uint256)[],(((uint8,address),uint256)[],((uint8,address),uint256)[],((uint8,address),uint256)[],int16,int24))": {
        "notice": "This event is emitted when immediately after invoking a step in the workflow."
      }
    },
    "kind": "user",
    "methods": {
      "continueWorkflow(address,uint256,(address,(uint16,address,(bool,bool,(uint8,address),uint256)[],bytes,int16)[],(uint16,address,bytes)[],(uint16,address,bytes)[]),((uint8,address),uint256)[])": {
        "notice": "Continue a workflow that started on a different chain.This is not callable by 3rd parties, only approved bridge integrations call this method."
      },
      "executeWorkflow((address,(uint16,address,(bool,bool,(uint8,address),uint256)[],bytes,int16)[],(uint16,address,bytes)[],(uint16,address,bytes)[]))": {
        "notice": "Initiate the execution of a workflow."
      }
    },
    "version": 1
  },
  "storageLayout": {
    "storage": [
      {
        "astId": 7750,
        "contract": "contracts/WorkflowRunner.sol:WorkflowRunner",
        "label": "owner",
        "offset": 0,
        "slot": "0",
        "type": "t_address_payable"
      },
      {
        "astId": 6339,
        "contract": "contracts/WorkflowRunner.sol:WorkflowRunner",
        "label": "eternalStorageAddress",
        "offset": 0,
        "slot": "1",
        "type": "t_address"
      },
      {
        "astId": 6341,
        "contract": "contracts/WorkflowRunner.sol:WorkflowRunner",
        "label": "upstreamAddress",
        "offset": 0,
        "slot": "2",
        "type": "t_address"
      },
      {
        "astId": 6343,
        "contract": "contracts/WorkflowRunner.sol:WorkflowRunner",
        "label": "isUserProxy",
        "offset": 20,
        "slot": "2",
        "type": "t_bool"
      },
      {
        "astId": 212,
        "contract": "contracts/WorkflowRunner.sol:WorkflowRunner",
        "label": "_status",
        "offset": 0,
        "slot": "3",
        "type": "t_uint256"
      }
    ],
    "types": {
      "t_address": {
        "encoding": "inplace",
        "label": "address",
        "numberOfBytes": "20"
      },
      "t_address_payable": {
        "encoding": "inplace",
        "label": "address payable",
        "numberOfBytes": "20"
      },
      "t_bool": {
        "encoding": "inplace",
        "label": "bool",
        "numberOfBytes": "1"
      },
      "t_uint256": {
        "encoding": "inplace",
        "label": "uint256",
        "numberOfBytes": "32"
      }
    }
  }
}