{
  "address": "0x0EAECb5a5cD6037B082b71544Da77349731E2d12",
  "abi": [
    {
      "inputs": [
        {
          "internalType": "address",
          "name": "_frontDoorAddress",
          "type": "address"
        },
        {
          "internalType": "address",
          "name": "_stargateRouterAddress",
          "type": "address"
        }
      ],
      "stateMutability": "nonpayable",
      "type": "constructor"
    },
    {
      "anonymous": false,
      "inputs": [
        {
          "indexed": false,
          "internalType": "string",
          "name": "reason",
          "type": "string"
        }
      ],
      "name": "ContinuationFailure",
      "type": "event"
    },
    {
      "anonymous": false,
      "inputs": [
        {
          "indexed": false,
          "internalType": "bytes",
          "name": "reason",
          "type": "bytes"
        }
      ],
      "name": "ContinuationFailure",
      "type": "event"
    },
    {
      "anonymous": false,
      "inputs": [
        {
          "indexed": false,
          "internalType": "uint256",
          "name": "reason",
          "type": "uint256"
        }
      ],
      "name": "ContinuationFailure",
      "type": "event"
    },
    {
      "anonymous": false,
      "inputs": [],
      "name": "ContinuationSuccess",
      "type": "event"
    },
    {
      "anonymous": false,
      "inputs": [
        {
          "indexed": false,
          "internalType": "address",
          "name": "tokenAddress",
          "type": "address"
        },
        {
          "indexed": false,
          "internalType": "uint256",
          "name": "amount",
          "type": "uint256"
        },
        {
          "components": [
            {
              "internalType": "address",
              "name": "userAddress",
              "type": "address"
            },
            {
              "internalType": "uint256",
              "name": "nonce",
              "type": "uint256"
            },
            {
              "components": [
                {
                  "internalType": "address",
                  "name": "workflowRunnerAddress",
                  "type": "address"
                },
                {
                  "components": [
                    {
                      "internalType": "uint16",
                      "name": "stepTypeId",
                      "type": "uint16"
                    },
                    {
                      "internalType": "address",
                      "name": "stepAddress",
                      "type": "address"
                    },
                    {
                      "components": [
                        {
                          "internalType": "bool",
                          "name": "sourceIsCaller",
                          "type": "bool"
                        },
                        {
                          "internalType": "bool",
                          "name": "amountIsPercent",
                          "type": "bool"
                        },
                        {
                          "components": [
                            {
                              "internalType": "enum AssetType",
                              "name": "assetType",
                              "type": "uint8"
                            },
                            {
                              "internalType": "address",
                              "name": "assetAddress",
                              "type": "address"
                            }
                          ],
                          "internalType": "struct Asset",
                          "name": "asset",
                          "type": "tuple"
                        },
                        {
                          "internalType": "uint256",
                          "name": "amount",
                          "type": "uint256"
                        }
                      ],
                      "internalType": "struct WorkflowStepInputAsset[]",
                      "name": "inputAssets",
                      "type": "tuple[]"
                    },
                    {
                      "internalType": "bytes",
                      "name": "argData",
                      "type": "bytes"
                    },
                    {
                      "internalType": "int16",
                      "name": "nextStepIndex",
                      "type": "int16"
                    }
                  ],
                  "internalType": "struct WorkflowStep[]",
                  "name": "steps",
                  "type": "tuple[]"
                },
                {
                  "components": [
                    {
                      "internalType": "uint16",
                      "name": "stepTypeId",
                      "type": "uint16"
                    },
                    {
                      "internalType": "address",
                      "name": "stepAddress",
                      "type": "address"
                    },
                    {
                      "internalType": "bytes",
                      "name": "argData",
                      "type": "bytes"
                    }
                  ],
                  "internalType": "struct BeforeAfter[]",
                  "name": "beforeAll",
                  "type": "tuple[]"
                },
                {
                  "components": [
                    {
                      "internalType": "uint16",
                      "name": "stepTypeId",
                      "type": "uint16"
                    },
                    {
                      "internalType": "address",
                      "name": "stepAddress",
                      "type": "address"
                    },
                    {
                      "internalType": "bytes",
                      "name": "argData",
                      "type": "bytes"
                    }
                  ],
                  "internalType": "struct BeforeAfter[]",
                  "name": "afterAll",
                  "type": "tuple[]"
                }
              ],
              "internalType": "struct Workflow",
              "name": "workflow",
              "type": "tuple"
            }
          ],
          "indexed": false,
          "internalType": "struct BridgePayload",
          "name": "bridgePayload",
          "type": "tuple"
        }
      ],
      "name": "SgReceiveCalled",
      "type": "event"
    },
    {
      "anonymous": false,
      "inputs": [
        {
          "indexed": false,
          "internalType": "uint256",
          "name": "nativeAmount",
          "type": "uint256"
        },
        {
          "indexed": false,
          "internalType": "uint256",
          "name": "assetAmount",
          "type": "uint256"
        },
        {
          "indexed": false,
          "internalType": "address",
          "name": "dstActionAddress",
          "type": "address"
        },
        {
          "indexed": false,
          "internalType": "uint16",
          "name": "dstChainId",
          "type": "uint16"
        },
        {
          "indexed": false,
          "internalType": "uint256",
          "name": "srcPoolId",
          "type": "uint256"
        },
        {
          "indexed": false,
          "internalType": "uint256",
          "name": "dstPoolId",
          "type": "uint256"
        },
        {
          "indexed": false,
          "internalType": "uint256",
          "name": "dstGasForCall",
          "type": "uint256"
        },
        {
          "indexed": false,
          "internalType": "uint256",
          "name": "dstNativeAmount",
          "type": "uint256"
        },
        {
          "indexed": false,
          "internalType": "uint256",
          "name": "minAmountOut",
          "type": "uint256"
        },
        {
          "indexed": false,
          "internalType": "bytes",
          "name": "continuationWorkflow",
          "type": "bytes"
        }
      ],
      "name": "StargateBridgeParamsEvent",
      "type": "event"
    },
    {
      "anonymous": false,
      "inputs": [
        {
          "indexed": false,
          "internalType": "string",
          "name": "stepType",
          "type": "string"
        },
        {
          "indexed": false,
          "internalType": "uint16",
          "name": "targetChain",
          "type": "uint16"
        },
        {
          "indexed": false,
          "internalType": "uint256",
          "name": "nonce",
          "type": "uint256"
        },
        {
          "components": [
            {
              "components": [
                {
                  "internalType": "enum AssetType",
                  "name": "assetType",
                  "type": "uint8"
                },
                {
                  "internalType": "address",
                  "name": "assetAddress",
                  "type": "address"
                }
              ],
              "internalType": "struct Asset",
              "name": "asset",
              "type": "tuple"
            },
            {
              "internalType": "uint256",
              "name": "amount",
              "type": "uint256"
            }
          ],
          "indexed": false,
          "internalType": "struct AssetAmount[]",
          "name": "expectedAssets",
          "type": "tuple[]"
        },
        {
          "indexed": false,
          "internalType": "bytes",
          "name": "continuationWorkflow",
          "type": "bytes"
        }
      ],
      "name": "WorkflowBridged",
      "type": "event"
    },
    {
      "inputs": [
        {
          "components": [
            {
              "components": [
                {
                  "internalType": "enum AssetType",
                  "name": "assetType",
                  "type": "uint8"
                },
                {
                  "internalType": "address",
                  "name": "assetAddress",
                  "type": "address"
                }
              ],
              "internalType": "struct Asset",
              "name": "asset",
              "type": "tuple"
            },
            {
              "internalType": "uint256",
              "name": "amount",
              "type": "uint256"
            }
          ],
          "internalType": "struct AssetAmount[]",
          "name": "inputAssetAmounts",
          "type": "tuple[]"
        },
        {
          "internalType": "bytes",
          "name": "argData",
          "type": "bytes"
        },
        {
          "internalType": "address",
          "name": "userAddress",
          "type": "address"
        }
      ],
      "name": "execute",
      "outputs": [
        {
          "components": [
            {
              "components": [
                {
                  "components": [
                    {
                      "internalType": "enum AssetType",
                      "name": "assetType",
                      "type": "uint8"
                    },
                    {
                      "internalType": "address",
                      "name": "assetAddress",
                      "type": "address"
                    }
                  ],
                  "internalType": "struct Asset",
                  "name": "asset",
                  "type": "tuple"
                },
                {
                  "internalType": "uint256",
                  "name": "amount",
                  "type": "uint256"
                }
              ],
              "internalType": "struct AssetAmount[]",
              "name": "inputAssetAmounts",
              "type": "tuple[]"
            },
            {
              "components": [
                {
                  "components": [
                    {
                      "internalType": "enum AssetType",
                      "name": "assetType",
                      "type": "uint8"
                    },
                    {
                      "internalType": "address",
                      "name": "assetAddress",
                      "type": "address"
                    }
                  ],
                  "internalType": "struct Asset",
                  "name": "asset",
                  "type": "tuple"
                },
                {
                  "internalType": "uint256",
                  "name": "amount",
                  "type": "uint256"
                }
              ],
              "internalType": "struct AssetAmount[]",
              "name": "outputAssetAmounts",
              "type": "tuple[]"
            },
            {
              "components": [
                {
                  "components": [
                    {
                      "internalType": "enum AssetType",
                      "name": "assetType",
                      "type": "uint8"
                    },
                    {
                      "internalType": "address",
                      "name": "assetAddress",
                      "type": "address"
                    }
                  ],
                  "internalType": "struct Asset",
                  "name": "asset",
                  "type": "tuple"
                },
                {
                  "internalType": "uint256",
                  "name": "amount",
                  "type": "uint256"
                }
              ],
              "internalType": "struct AssetAmount[]",
              "name": "outputAssetAmountsToCaller",
              "type": "tuple[]"
            },
            {
              "internalType": "int16",
              "name": "nextStepIndex",
              "type": "int16"
            },
            {
              "internalType": "int24",
              "name": "fee",
              "type": "int24"
            }
          ],
          "internalType": "struct WorkflowStepResult",
          "name": "",
          "type": "tuple"
        }
      ],
      "stateMutability": "payable",
      "type": "function"
    },
    {
      "inputs": [],
      "name": "frontDoorAddress",
      "outputs": [
        {
          "internalType": "address",
          "name": "",
          "type": "address"
        }
      ],
      "stateMutability": "view",
      "type": "function"
    },
    {
      "inputs": [
        {
          "internalType": "uint16",
          "name": "",
          "type": "uint16"
        },
        {
          "internalType": "bytes",
          "name": "",
          "type": "bytes"
        },
        {
          "internalType": "uint256",
          "name": "",
          "type": "uint256"
        },
        {
          "internalType": "address",
          "name": "tokenAddress",
          "type": "address"
        },
        {
          "internalType": "uint256",
          "name": "amount",
          "type": "uint256"
        },
        {
          "internalType": "bytes",
          "name": "payload",
          "type": "bytes"
        }
      ],
      "name": "sgReceive",
      "outputs": [],
      "stateMutability": "nonpayable",
      "type": "function"
    },
    {
      "inputs": [],
      "name": "stargateRouterAddress",
      "outputs": [
        {
          "internalType": "address",
          "name": "",
          "type": "address"
        }
      ],
      "stateMutability": "view",
      "type": "function"
    }
  ],
  "transactionHash": "0x9e7f0dbb8fc1622e83348096cb853b75f418d04d0eab2fd46fa2f91f841243ac",
  "args": [
    "0x696b93e408acf1c066839690A365e78C4492c276",
    "0xB0D502E938ed5f4df2E681fE6E419ff29631d62b"
  ],
  "numDeployments": 6,
  "solcInputHash": "3a2f7769fdfc7c7b617df95eff8b46b4",
  "bytecode": "0x60c06040523480156200001157600080fd5b50604051620039d6380380620039d6833981810160405281019062000037919062000111565b8173ffffffffffffffffffffffffffffffffffffffff1660808173ffffffffffffffffffffffffffffffffffffffff16815250508073ffffffffffffffffffffffffffffffffffffffff1660a08173ffffffffffffffffffffffffffffffffffffffff1681525050505062000158565b600080fd5b600073ffffffffffffffffffffffffffffffffffffffff82169050919050565b6000620000d982620000ac565b9050919050565b620000eb81620000cc565b8114620000f757600080fd5b50565b6000815190506200010b81620000e0565b92915050565b600080604083850312156200012b576200012a620000a7565b5b60006200013b85828601620000fa565b92505060206200014e85828601620000fa565b9150509250929050565b60805160a051613836620001a06000396000818160f50152818161013d01528181610b6a015261113a01526000818161011901528181610227015261031a01526138366000f3fe60806040526004361061003f5760003560e01c80631d2091bf1461004457806350fd910e1461006f578063ab8236f31461009a578063e025f402146100c3575b600080fd5b34801561005057600080fd5b506100596100f3565b6040516100669190611609565b60405180910390f35b34801561007b57600080fd5b50610084610117565b6040516100919190611609565b60405180910390f35b3480156100a657600080fd5b506100c160048036038101906100bc919061181a565b61013b565b005b6100dd60048036038101906100d89190611995565b610538565b6040516100ea9190611c88565b60405180910390f35b7f000000000000000000000000000000000000000000000000000000000000000081565b7f000000000000000000000000000000000000000000000000000000000000000081565b7f000000000000000000000000000000000000000000000000000000000000000073ffffffffffffffffffffffffffffffffffffffff163373ffffffffffffffffffffffffffffffffffffffff16146101c9576040517f08c379a00000000000000000000000000000000000000000000000000000000081526004016101c090611d2d565b60405180910390fd5b6000818060200190518101906101df9190612496565b90507f4f31af10fbc47589d01f25facb43603bbacc066cf89414bb7bb2575bd33ec06184848360405161021493929190612977565b60405180910390a1600084905061024c817f000000000000000000000000000000000000000000000000000000000000000086610f7f565b6000600167ffffffffffffffff8111156102695761026861168d565b5b6040519080825280602002602001820160405280156102a257816020015b61028f611454565b8152602001906001900390816102875790505b50905060405180604001604052806040518060400160405280600160028111156102cf576102ce611a56565b5b81526020018973ffffffffffffffffffffffffffffffffffffffff168152508152602001868152508160008151811061030b5761030a6129b5565b5b602002602001018190525060007f0000000000000000000000000000000000000000000000000000000000000000905060008173ffffffffffffffffffffffffffffffffffffffff16631c7b2649866000015187602001518860400151876040518563ffffffff1660e01b81526004016103889493929190612ac4565b600060405180830381600087803b1580156103a257600080fd5b505af19250505080156103b3575060015b6104e5576103bf612b24565b806308c379a00361041b57506103d3612b46565b806103de5750610475565b7ffda340082949e098c3dd025a930d09f52326dc91cc6e06a752d91f7586308b858160405161040d9190612c1a565b60405180910390a1506104e0565b634e487b71036104755761042d612c3c565b906104385750610475565b7f82bb88474c1b4f5c8c0da3a05d71c0d92f04a6e50a272b0da1ddac3ce649f60b816040516104679190612c5d565b60405180910390a1506104e0565b3d80600081146104a1576040519150601f19603f3d011682016040523d82523d6000602084013e6104a6565b606091505b507f12b66dc35d0dae0c1d5c52a2e47be74c041aacb614a7aa119c2a231fb4d4d07a816040516104d69190612cc2565b60405180910390a1505b610516565b7f700d3395f2bce78f97bd5a2b23366c66cfcbc8bac44e35f89af808e63fbc932860405160405180910390a1600190505b8061052b5761052a84866000015189611091565b5b5050505050505050505050565b610540611474565b6105486114a9565b6002878790501461058e576040517f08c379a000000000000000000000000000000000000000000000000000000000815260040161058590612d30565b60405180910390fd5b600060028111156105a2576105a1611a56565b5b878760008181106105b6576105b56129b5565b5b90506060020160000160000160208101906105d19190612d65565b60028111156105e3576105e2611a56565b5b036106e657600160028111156105fc576105fb611a56565b5b878760018181106106105761060f6129b5565b5b905060600201600001600001602081019061062b9190612d65565b600281111561063d5761063c611a56565b5b1461067d576040517f08c379a000000000000000000000000000000000000000000000000000000000815260040161067490612dde565b60405180910390fd5b86866000818110610691576106906129b5565b5b9050606002018036038101906106a79190612e9e565b8160800181905250868660018181106106c3576106c26129b5565b5b9050606002018036038101906106d99190612e9e565b8160a0018190525061087a565b600060028111156106fa576106f9611a56565b5b8787600181811061070e5761070d6129b5565b5b90506060020160000160000160208101906107299190612d65565b600281111561073b5761073a611a56565b5b0361083e576001600281111561075457610753611a56565b5b87876000818110610768576107676129b5565b5b90506060020160000160000160208101906107839190612d65565b600281111561079557610794611a56565b5b146107d5576040517f08c379a00000000000000000000000000000000000000000000000000000000081526004016107cc90612dde565b60405180910390fd5b868660018181106107e9576107e86129b5565b5b9050606002018036038101906107ff9190612e9e565b81608001819052508686600081811061081b5761081a6129b5565b5b9050606002018036038101906108319190612e9e565b8160a00181905250610879565b6040517f08c379a000000000000000000000000000000000000000000000000000000000815260040161087090612f17565b60405180910390fd5b5b6001600281111561088e5761088d611a56565b5b878760008181106108a2576108a16129b5565b5b90506060020160000160000160208101906108bd9190612d65565b60028111156108cf576108ce611a56565b5b148061092d5750600060028111156108ea576108e9611a56565b5b878760008181106108fe576108fd6129b5565b5b90506060020160000160000160208101906109199190612d65565b600281111561092b5761092a611a56565b5b145b61096c576040517f08c379a000000000000000000000000000000000000000000000000000000000815260040161096390612fa9565b60405180910390fd5b600160028111156109805761097f611a56565b5b87876000818110610994576109936129b5565b5b90506060020160000160000160208101906109af9190612d65565b60028111156109c1576109c0611a56565b5b03610a1c57610a1b878760008181106109dd576109dc6129b5565b5b90506060020160000160200160208101906109f89190612fc9565b88886000818110610a0c57610a0b6129b5565b5b90506060020160400135611117565b5b8484810190610a2b9190613149565b8160200181905250806020015160000151604051602001610a4c91906131da565b60405160208183030381529060405281604001819052508060200151610100015115610abf57620186a0816020015160e0015188886000818110610a9357610a926129b5565b5b90506060020160400135610aa79190613224565b610ab19190613295565b816060018181525050610ad2565b806020015160e001518160600181815250505b7fc919a44972f2a555d7b70313ba420f3ece86780db879b0e70e766c61ae84ad5c8160800151602001518260a0015160200151836020015160000151846020015160400151856020015160600151866020015160800151876020015160a00151886020015160c0015189606001518a602001516101200151604051610b609a999897969594939291906132d5565b60405180910390a17f000000000000000000000000000000000000000000000000000000000000000073ffffffffffffffffffffffffffffffffffffffff16639fbf10fc826080015160200151836020015160400151846020015160600151856020015160800151888760a0015160200151886060015160405180606001604052808b6020015160a0015181526020018b6020015160c0015181526020018b6020015160200151604051602001610c1791906131da565b6040516020818303038152906040528152508a604001518b6020015161012001516040518b63ffffffff1660e01b8152600401610c5c999897969594939291906133e9565b6000604051808303818588803b158015610c7557600080fd5b505af1158015610c89573d6000803e3d6000fd5b5050505050600081602001516101200151511115610e08576000600167ffffffffffffffff811115610cbe57610cbd61168d565b5b604051908082528060200260200182016040528015610cf757816020015b610ce4611454565b815260200190600190039081610cdc5790505b5090508160a0015181600081518110610d1357610d126129b5565b5b6020026020010181905250816060015181600081518110610d3757610d366129b5565b5b60200260200101516020018181525050600082602001516101600151610daa57600067ffffffffffffffff811115610d7257610d7161168d565b5b6040519080825280601f01601f191660200182016040528015610da45781602001600182028036833780820191505090505b50610db5565b826020015161012001515b90507f92cabcced306320fcb4c1a1d8c0cec733aea48602b9740e521a95ae20030009d836020015160400151846020015161014001518484604051610dfd94939291906134d7565b60405180910390a150505b6040518060a001604052808888808060200260200160405190810160405280939291908181526020016000905b82821015610e6557848483905060600201803603810190610e569190612e9e565b81526020019060010190610e35565b50505050508152602001600067ffffffffffffffff811115610e8a57610e8961168d565b5b604051908082528060200260200182016040528015610ec357816020015b610eb0611454565b815260200190600190039081610ea85790505b508152602001600067ffffffffffffffff811115610ee457610ee361168d565b5b604051908082528060200260200182016040528015610f1d57816020015b610f0a611454565b815260200190600190039081610f025790505b5081526020017ffffffffffffffffffffffffffffffffffffffffffffffffffffffffffffffffe60010b81526020017fffffffffffffffffffffffffffffffffffffffffffffffffffffffffffffffff60020b81525091505095945050505050565b6000818473ffffffffffffffffffffffffffffffffffffffff1663dd62ed3e30866040518363ffffffff1660e01b8152600401610fbd92919061353d565b602060405180830381865afa158015610fda573d6000803e3d6000fd5b505050506040513d601f19601f82011682018060405250810190610ffe9190613566565b6110089190613593565b905061108b8463095ea7b360e01b85846040516024016110299291906135c7565b604051602081830303815290604052907bffffffffffffffffffffffffffffffffffffffffffffffffffffffff19166020820180517bffffffffffffffffffffffffffffffffffffffffffffffffffffffff83818316178352505050506111c0565b50505050565b6111128363a9059cbb60e01b84846040516024016110b09291906135c7565b604051602081830303815290604052907bffffffffffffffffffffffffffffffffffffffffffffffffffffffff19166020820180517bffffffffffffffffffffffffffffffffffffffffffffffffffffffff83818316178352505050506111c0565b505050565b60008290508073ffffffffffffffffffffffffffffffffffffffff1663095ea7b37f0000000000000000000000000000000000000000000000000000000000000000846040518363ffffffff1660e01b81526004016111779291906135c7565b6020604051808303816000875af1158015611196573d6000803e3d6000fd5b505050506040513d601f19601f820116820180604052508101906111ba91906135f0565b50505050565b6000611222826040518060400160405280602081526020017f5361666545524332303a206c6f772d6c6576656c2063616c6c206661696c65648152508573ffffffffffffffffffffffffffffffffffffffff166112879092919063ffffffff16565b9050600081511115611282578080602001905181019061124291906135f0565b611281576040517f08c379a00000000000000000000000000000000000000000000000000000000081526004016112789061368f565b60405180910390fd5b5b505050565b6060611296848460008561129f565b90509392505050565b6060824710156112e4576040517f08c379a00000000000000000000000000000000000000000000000000000000081526004016112db90613721565b60405180910390fd5b6000808673ffffffffffffffffffffffffffffffffffffffff16858760405161130d919061377d565b60006040518083038185875af1925050503d806000811461134a576040519150601f19603f3d011682016040523d82523d6000602084013e61134f565b606091505b50915091506113608783838761136c565b92505050949350505050565b606083156113ce5760008351036113c657611386856113e1565b6113c5576040517f08c379a00000000000000000000000000000000000000000000000000000000081526004016113bc906137e0565b60405180910390fd5b5b8290506113d9565b6113d88383611404565b5b949350505050565b6000808273ffffffffffffffffffffffffffffffffffffffff163b119050919050565b6000825111156114175781518083602001fd5b806040517f08c379a000000000000000000000000000000000000000000000000000000000815260040161144b9190612c1a565b60405180910390fd5b60405180604001604052806114676114f1565b8152602001600081525090565b6040518060a00160405280606081526020016060815260200160608152602001600060010b8152602001600060020b81525090565b6040518060c00160405280600081526020016114c3611533565b815260200160608152602001600081526020016114de611454565b81526020016114eb611454565b81525090565b6040518060400160405280600060028111156115105761150f611a56565b5b8152602001600073ffffffffffffffffffffffffffffffffffffffff1681525090565b604051806101800160405280600073ffffffffffffffffffffffffffffffffffffffff168152602001600073ffffffffffffffffffffffffffffffffffffffff168152602001600061ffff168152602001600081526020016000815260200160008152602001600081526020016000815260200160001515815260200160608152602001600081526020016000151581525090565b600073ffffffffffffffffffffffffffffffffffffffff82169050919050565b60006115f3826115c8565b9050919050565b611603816115e8565b82525050565b600060208201905061161e60008301846115fa565b92915050565b6000604051905090565b600080fd5b600080fd5b600061ffff82169050919050565b61164f81611638565b811461165a57600080fd5b50565b60008135905061166c81611646565b92915050565b600080fd5b600080fd5b6000601f19601f8301169050919050565b7f4e487b7100000000000000000000000000000000000000000000000000000000600052604160045260246000fd5b6116c58261167c565b810181811067ffffffffffffffff821117156116e4576116e361168d565b5b80604052505050565b60006116f7611624565b905061170382826116bc565b919050565b600067ffffffffffffffff8211156117235761172261168d565b5b61172c8261167c565b9050602081019050919050565b82818337600083830152505050565b600061175b61175684611708565b6116ed565b90508281526020810184848401111561177757611776611677565b5b611782848285611739565b509392505050565b600082601f83011261179f5761179e611672565b5b81356117af848260208601611748565b91505092915050565b6000819050919050565b6117cb816117b8565b81146117d657600080fd5b50565b6000813590506117e8816117c2565b92915050565b6117f7816115e8565b811461180257600080fd5b50565b600081359050611814816117ee565b92915050565b60008060008060008060c087890312156118375761183661162e565b5b600061184589828a0161165d565b965050602087013567ffffffffffffffff81111561186657611865611633565b5b61187289828a0161178a565b955050604061188389828a016117d9565b945050606061189489828a01611805565b93505060806118a589828a016117d9565b92505060a087013567ffffffffffffffff8111156118c6576118c5611633565b5b6118d289828a0161178a565b9150509295509295509295565b600080fd5b600080fd5b60008083601f8401126118ff576118fe611672565b5b8235905067ffffffffffffffff81111561191c5761191b6118df565b5b602083019150836060820283011115611938576119376118e4565b5b9250929050565b60008083601f84011261195557611954611672565b5b8235905067ffffffffffffffff811115611972576119716118df565b5b60208301915083600182028301111561198e5761198d6118e4565b5b9250929050565b6000806000806000606086880312156119b1576119b061162e565b5b600086013567ffffffffffffffff8111156119cf576119ce611633565b5b6119db888289016118e9565b9550955050602086013567ffffffffffffffff8111156119fe576119fd611633565b5b611a0a8882890161193f565b93509350506040611a1d88828901611805565b9150509295509295909350565b600081519050919050565b600082825260208201905092915050565b6000819050602082019050919050565b7f4e487b7100000000000000000000000000000000000000000000000000000000600052602160045260246000fd5b60038110611a9657611a95611a56565b5b50565b6000819050611aa782611a85565b919050565b6000611ab782611a99565b9050919050565b611ac781611aac565b82525050565b611ad6816115e8565b82525050565b604082016000820151611af26000850182611abe565b506020820151611b056020850182611acd565b50505050565b611b14816117b8565b82525050565b606082016000820151611b306000850182611adc565b506020820151611b436040850182611b0b565b50505050565b6000611b558383611b1a565b60608301905092915050565b6000602082019050919050565b6000611b7982611a2a565b611b838185611a35565b9350611b8e83611a46565b8060005b83811015611bbf578151611ba68882611b49565b9750611bb183611b61565b925050600181019050611b92565b5085935050505092915050565b60008160010b9050919050565b611be281611bcc565b82525050565b60008160020b9050919050565b611bfe81611be8565b82525050565b600060a0830160008301518482036000860152611c218282611b6e565b91505060208301518482036020860152611c3b8282611b6e565b91505060408301518482036040860152611c558282611b6e565b9150506060830151611c6a6060860182611bd9565b506080830151611c7d6080860182611bf5565b508091505092915050565b60006020820190508181036000830152611ca28184611c04565b905092915050565b600082825260208201905092915050565b7f6f6e6c79205374617267617465206973207065726d697474656420746f20636160008201527f6c6c207367526563656976650000000000000000000000000000000000000000602082015250565b6000611d17602c83611caa565b9150611d2282611cbb565b604082019050919050565b60006020820190508181036000830152611d4681611d0a565b9050919050565b600080fd5b600080fd5b600081519050611d66816117ee565b92915050565b600081519050611d7b816117c2565b92915050565b600067ffffffffffffffff821115611d9c57611d9b61168d565b5b602082029050602081019050919050565b600081519050611dbc81611646565b92915050565b600067ffffffffffffffff821115611ddd57611ddc61168d565b5b602082029050602081019050919050565b60008115159050919050565b611e0381611dee565b8114611e0e57600080fd5b50565b600081519050611e2081611dfa565b92915050565b60038110611e3357600080fd5b50565b600081519050611e4581611e26565b92915050565b600060408284031215611e6157611e60611d4d565b5b611e6b60406116ed565b90506000611e7b84828501611e36565b6000830152506020611e8f84828501611d57565b60208301525092915050565b600060a08284031215611eb157611eb0611d4d565b5b611ebb60806116ed565b90506000611ecb84828501611e11565b6000830152506020611edf84828501611e11565b6020830152506040611ef384828501611e4b565b6040830152506080611f0784828501611d6c565b60608301525092915050565b6000611f26611f2184611dc2565b6116ed565b90508083825260208201905060a08402830185811115611f4957611f486118e4565b5b835b81811015611f725780611f5e8882611e9b565b84526020840193505060a081019050611f4b565b5050509392505050565b600082601f830112611f9157611f90611672565b5b8151611fa1848260208601611f13565b91505092915050565b60005b83811015611fc8578082015181840152602081019050611fad565b60008484015250505050565b6000611fe7611fe284611708565b6116ed565b90508281526020810184848401111561200357612002611677565b5b61200e848285611faa565b509392505050565b600082601f83011261202b5761202a611672565b5b815161203b848260208601611fd4565b91505092915050565b61204d81611bcc565b811461205857600080fd5b50565b60008151905061206a81612044565b92915050565b600060a0828403121561208657612085611d4d565b5b61209060a06116ed565b905060006120a084828501611dad565b60008301525060206120b484828501611d57565b602083015250604082015167ffffffffffffffff8111156120d8576120d7611d52565b5b6120e484828501611f7c565b604083015250606082015167ffffffffffffffff81111561210857612107611d52565b5b61211484828501612016565b60608301525060806121288482850161205b565b60808301525092915050565b600061214761214284611d81565b6116ed565b9050808382526020820190506020840283018581111561216a576121696118e4565b5b835b818110156121b157805167ffffffffffffffff81111561218f5761218e611672565b5b80860161219c8982612070565b8552602085019450505060208101905061216c565b5050509392505050565b600082601f8301126121d0576121cf611672565b5b81516121e0848260208601612134565b91505092915050565b600067ffffffffffffffff8211156122045761220361168d565b5b602082029050602081019050919050565b60006060828403121561222b5761222a611d4d565b5b61223560606116ed565b9050600061224584828501611dad565b600083015250602061225984828501611d57565b602083015250604082015167ffffffffffffffff81111561227d5761227c611d52565b5b61228984828501612016565b60408301525092915050565b60006122a86122a3846121e9565b6116ed565b905080838252602082019050602084028301858111156122cb576122ca6118e4565b5b835b8181101561231257805167ffffffffffffffff8111156122f0576122ef611672565b5b8086016122fd8982612215565b855260208501945050506020810190506122cd565b5050509392505050565b600082601f83011261233157612330611672565b5b8151612341848260208601612295565b91505092915050565b6000608082840312156123605761235f611d4d565b5b61236a60806116ed565b9050600061237a84828501611d57565b600083015250602082015167ffffffffffffffff81111561239e5761239d611d52565b5b6123aa848285016121bb565b602083015250604082015167ffffffffffffffff8111156123ce576123cd611d52565b5b6123da8482850161231c565b604083015250606082015167ffffffffffffffff8111156123fe576123fd611d52565b5b61240a8482850161231c565b60608301525092915050565b60006060828403121561242c5761242b611d4d565b5b61243660606116ed565b9050600061244684828501611d57565b600083015250602061245a84828501611d6c565b602083015250604082015167ffffffffffffffff81111561247e5761247d611d52565b5b61248a8482850161234a565b60408301525092915050565b6000602082840312156124ac576124ab61162e565b5b600082015167ffffffffffffffff8111156124ca576124c9611633565b5b6124d684828501612416565b91505092915050565b6124e8816117b8565b82525050565b600081519050919050565b600082825260208201905092915050565b6000819050602082019050919050565b61252381611638565b82525050565b600081519050919050565b600082825260208201905092915050565b6000819050602082019050919050565b61255e81611dee565b82525050565b60a08201600082015161257a6000850182612555565b50602082015161258d6020850182612555565b5060408201516125a06040850182611adc565b5060608201516125b36080850182611b0b565b50505050565b60006125c58383612564565b60a08301905092915050565b6000602082019050919050565b60006125e982612529565b6125f38185612534565b93506125fe83612545565b8060005b8381101561262f57815161261688826125b9565b9750612621836125d1565b925050600181019050612602565b5085935050505092915050565b600081519050919050565b600082825260208201905092915050565b60006126638261263c565b61266d8185612647565b935061267d818560208601611faa565b6126868161167c565b840191505092915050565b600060a0830160008301516126a9600086018261251a565b5060208301516126bc6020860182611acd565b50604083015184820360408601526126d482826125de565b915050606083015184820360608601526126ee8282612658565b91505060808301516127036080860182611bd9565b508091505092915050565b600061271a8383612691565b905092915050565b6000602082019050919050565b600061273a826124ee565b61274481856124f9565b9350836020820285016127568561250a565b8060005b858110156127925784840389528151612773858261270e565b945061277e83612722565b925060208a0199505060018101905061275a565b50829750879550505050505092915050565b600081519050919050565b600082825260208201905092915050565b6000819050602082019050919050565b60006060830160008301516127e8600086018261251a565b5060208301516127fb6020860182611acd565b50604083015184820360408601526128138282612658565b9150508091505092915050565b600061282c83836127d0565b905092915050565b6000602082019050919050565b600061284c826127a4565b61285681856127af565b935083602082028501612868856127c0565b8060005b858110156128a457848403895281516128858582612820565b945061289083612834565b925060208a0199505060018101905061286c565b50829750879550505050505092915050565b60006080830160008301516128ce6000860182611acd565b50602083015184820360208601526128e6828261272f565b915050604083015184820360408601526129008282612841565b9150506060830151848203606086015261291a8282612841565b9150508091505092915050565b600060608301600083015161293f6000860182611acd565b5060208301516129526020860182611b0b565b506040830151848203604086015261296a82826128b6565b9150508091505092915050565b600060608201905061298c60008301866115fa565b61299960208301856124df565b81810360408301526129ab8184612927565b9050949350505050565b7f4e487b7100000000000000000000000000000000000000000000000000000000600052603260045260246000fd5b60006080830160008301516129fc6000860182611acd565b5060208301518482036020860152612a14828261272f565b91505060408301518482036040860152612a2e8282612841565b91505060608301518482036060860152612a488282612841565b9150508091505092915050565b600082825260208201905092915050565b6000612a7182611a2a565b612a7b8185612a55565b9350612a8683611a46565b8060005b83811015612ab7578151612a9e8882611b49565b9750612aa983611b61565b925050600181019050612a8a565b5085935050505092915050565b6000608082019050612ad960008301876115fa565b612ae660208301866124df565b8181036040830152612af881856129e4565b90508181036060830152612b0c8184612a66565b905095945050505050565b60008160e01c9050919050565b600060033d1115612b435760046000803e612b40600051612b17565b90505b90565b600060443d10612bd357612b58611624565b60043d036004823e80513d602482011167ffffffffffffffff82111715612b80575050612bd3565b808201805167ffffffffffffffff811115612b9e5750505050612bd3565b80602083010160043d038501811115612bbb575050505050612bd3565b612bca826020018501866116bc565b82955050505050505b90565b600081519050919050565b6000612bec82612bd6565b612bf68185611caa565b9350612c06818560208601611faa565b612c0f8161167c565b840191505092915050565b60006020820190508181036000830152612c348184612be1565b905092915050565b60008060233d1115612c59576020600460003e6001915060005190505b9091565b6000602082019050612c7260008301846124df565b92915050565b600082825260208201905092915050565b6000612c948261263c565b612c9e8185612c78565b9350612cae818560208601611faa565b612cb78161167c565b840191505092915050565b60006020820190508181036000830152612cdc8184612c89565b905092915050565b7f7468657265206d757374206265203220696e7075742061737365747300000000600082015250565b6000612d1a601c83611caa565b9150612d2582612ce4565b602082019050919050565b60006020820190508181036000830152612d4981612d0d565b9050919050565b600081359050612d5f81611e26565b92915050565b600060208284031215612d7b57612d7a61162e565b5b6000612d8984828501612d50565b91505092915050565b7f6f6e6520696e707574206173736574206d75737420626520616e204552433230600082015250565b6000612dc8602083611caa565b9150612dd382612d92565b602082019050919050565b60006020820190508181036000830152612df781612dbb565b9050919050565b600060408284031215612e1457612e13611d4d565b5b612e1e60406116ed565b90506000612e2e84828501612d50565b6000830152506020612e4284828501611805565b60208301525092915050565b600060608284031215612e6457612e63611d4d565b5b612e6e60406116ed565b90506000612e7e84828501612dfe565b6000830152506040612e92848285016117d9565b60208301525092915050565b600060608284031215612eb457612eb361162e565b5b6000612ec284828501612e4e565b91505092915050565b7f6f6e6520696e707574206173736574206d757374206265206e61746976650000600082015250565b6000612f01601e83611caa565b9150612f0c82612ecb565b602082019050919050565b60006020820190508181036000830152612f3081612ef4565b9050919050565b7f74686520696e707574206173736574206d75737420626520616e20455243323060008201527f206f72204e617469766500000000000000000000000000000000000000000000602082015250565b6000612f93602a83611caa565b9150612f9e82612f37565b604082019050919050565b60006020820190508181036000830152612fc281612f86565b9050919050565b600060208284031215612fdf57612fde61162e565b5b6000612fed84828501611805565b91505092915050565b60008135905061300581611dfa565b92915050565b6000610180828403121561302257613021611d4d565b5b61302d6101806116ed565b9050600061303d84828501611805565b600083015250602061305184828501611805565b60208301525060406130658482850161165d565b6040830152506060613079848285016117d9565b606083015250608061308d848285016117d9565b60808301525060a06130a1848285016117d9565b60a08301525060c06130b5848285016117d9565b60c08301525060e06130c9848285016117d9565b60e0830152506101006130de84828501612ff6565b6101008301525061012082013567ffffffffffffffff81111561310457613103611d52565b5b6131108482850161178a565b61012083015250610140613126848285016117d9565b6101408301525061016061313c84828501612ff6565b6101608301525092915050565b60006020828403121561315f5761315e61162e565b5b600082013567ffffffffffffffff81111561317d5761317c611633565b5b6131898482850161300b565b91505092915050565b60008160601b9050919050565b60006131aa82613192565b9050919050565b60006131bc8261319f565b9050919050565b6131d46131cf826115e8565b6131b1565b82525050565b60006131e682846131c3565b60148201915081905092915050565b7f4e487b7100000000000000000000000000000000000000000000000000000000600052601160045260246000fd5b600061322f826117b8565b915061323a836117b8565b9250828202613248816117b8565b9150828204841483151761325f5761325e6131f5565b5b5092915050565b7f4e487b7100000000000000000000000000000000000000000000000000000000600052601260045260246000fd5b60006132a0826117b8565b91506132ab836117b8565b9250826132bb576132ba613266565b5b828204905092915050565b6132cf81611638565b82525050565b6000610140820190506132eb600083018d6124df565b6132f8602083018c6124df565b613305604083018b6115fa565b613312606083018a6132c6565b61331f60808301896124df565b61332c60a08301886124df565b61333960c08301876124df565b61334660e08301866124df565b6133546101008301856124df565b8181036101208301526133678184612c89565b90509b9a5050505050505050505050565b6000613383826115c8565b9050919050565b61339381613378565b82525050565b60006060830160008301516133b16000860182611b0b565b5060208301516133c46020860182611b0b565b50604083015184820360408601526133dc8282612658565b9150508091505092915050565b6000610120820190506133ff600083018c6132c6565b61340c602083018b6124df565b613419604083018a6124df565b613426606083018961338a565b61343360808301886124df565b61344060a08301876124df565b81810360c08301526134528186613399565b905081810360e08301526134668185612c89565b905081810361010083015261347b8184612c89565b90509a9950505050505050505050565b7f73746172676174652d6272696467650000000000000000000000000000000000600082015250565b60006134c1600f83611caa565b91506134cc8261348b565b602082019050919050565b600060a08201905081810360008301526134f0816134b4565b90506134ff60208301876132c6565b61350c60408301866124df565b818103606083015261351e8185612a66565b905081810360808301526135328184612c89565b905095945050505050565b600060408201905061355260008301856115fa565b61355f60208301846115fa565b9392505050565b60006020828403121561357c5761357b61162e565b5b600061358a84828501611d6c565b91505092915050565b600061359e826117b8565b91506135a9836117b8565b92508282019050808211156135c1576135c06131f5565b5b92915050565b60006040820190506135dc60008301856115fa565b6135e960208301846124df565b9392505050565b6000602082840312156136065761360561162e565b5b600061361484828501611e11565b91505092915050565b7f5361666545524332303a204552433230206f7065726174696f6e20646964206e60008201527f6f74207375636365656400000000000000000000000000000000000000000000602082015250565b6000613679602a83611caa565b91506136848261361d565b604082019050919050565b600060208201905081810360008301526136a88161366c565b9050919050565b7f416464726573733a20696e73756666696369656e742062616c616e636520666f60008201527f722063616c6c0000000000000000000000000000000000000000000000000000602082015250565b600061370b602683611caa565b9150613716826136af565b604082019050919050565b6000602082019050818103600083015261373a816136fe565b9050919050565b600081905092915050565b60006137578261263c565b6137618185613741565b9350613771818560208601611faa565b80840191505092915050565b6000613789828461374c565b915081905092915050565b7f416464726573733a2063616c6c20746f206e6f6e2d636f6e7472616374000000600082015250565b60006137ca601d83611caa565b91506137d582613794565b602082019050919050565b600060208201905081810360008301526137f9816137bd565b905091905056fea264697066735822122041c3cbe596870b4edf173b32a648eebb5e3ea5459535236678319ecdb7b9610164736f6c63430008120033",
  "devdoc": {
    "events": {
      "SgReceiveCalled(address,uint256,(address,uint256,(address,(uint16,address,(bool,bool,(uint8,address),uint256)[],bytes,int16)[],(uint16,address,bytes)[],(uint16,address,bytes)[])))": {
        "params": {
          "bridgePayload": "the payload that was sent along with the erc20.",
          "tokenAddress": "the address of the erc20 that was transfered from the source chain to this chain.abi"
        }
      }
    },
    "kind": "dev",
    "methods": {},
    "version": 1
  },
  "userdoc": {
    "events": {
      "SgReceiveCalled(address,uint256,(address,uint256,(address,(uint16,address,(bool,bool,(uint8,address),uint256)[],bytes,int16)[],(uint16,address,bytes)[],(uint16,address,bytes)[])))": {
        "notice": "This event is emitted on the destination chain when Stargate invokes our sgReceive method"
      }
    },
    "kind": "user",
    "methods": {},
    "version": 1
  },
  "storageLayout": {
    "storage": [],
    "types": null
  }
}