{
  "address": "0xB1c05b498Cb58568B2470369FEB98B00702063dA",
  "abi": [
    {
      "inputs": [
        {
          "internalType": "address payable",
          "name": "frontDoorAddress",
          "type": "address"
        }
      ],
      "stateMutability": "nonpayable",
      "type": "constructor"
    },
    {
      "anonymous": false,
      "inputs": [
        {
          "indexed": false,
          "internalType": "address",
          "name": "sender",
          "type": "address"
        },
        {
          "indexed": false,
          "internalType": "address",
          "name": "newOwner",
          "type": "address"
        }
      ],
      "name": "LogNewOwner",
      "type": "event"
    },
    {
      "anonymous": false,
      "inputs": [
        {
          "indexed": false,
          "internalType": "uint16",
          "name": "stepTypeId",
          "type": "uint16"
        },
        {
          "indexed": false,
          "internalType": "address",
          "name": "stepAddress",
          "type": "address"
        }
      ],
      "name": "StepAddressSetEvent",
      "type": "event"
    },
    {
      "inputs": [],
      "name": "eternalStorageAddress",
      "outputs": [
        {
          "internalType": "address",
          "name": "",
          "type": "address"
        }
      ],
      "stateMutability": "view",
      "type": "function"
    },
    {
      "inputs": [
        {
          "internalType": "uint16",
          "name": "stepTypeId",
          "type": "uint16"
        }
      ],
      "name": "getStepAddress",
      "outputs": [
        {
          "internalType": "address",
          "name": "",
          "type": "address"
        }
      ],
      "stateMutability": "view",
      "type": "function"
    },
    {
      "inputs": [],
      "name": "getStepCount",
      "outputs": [
        {
          "internalType": "uint256",
          "name": "",
          "type": "uint256"
        }
      ],
      "stateMutability": "view",
      "type": "function"
    },
    {
      "inputs": [
        {
          "internalType": "uint256",
          "name": "index",
          "type": "uint256"
        }
      ],
      "name": "getStepInfoAt",
      "outputs": [
        {
          "components": [
            {
              "internalType": "uint16",
              "name": "stepTypeId",
              "type": "uint16"
            },
            {
              "internalType": "uint24",
              "name": "fee",
              "type": "uint24"
            },
            {
              "internalType": "address",
              "name": "latest",
              "type": "address"
            },
            {
              "internalType": "address[]",
              "name": "whitelist",
              "type": "address[]"
            },
            {
              "internalType": "address[]",
              "name": "blacklist",
              "type": "address[]"
            }
          ],
          "internalType": "struct StepInfo",
          "name": "",
          "type": "tuple"
        }
      ],
      "stateMutability": "view",
      "type": "function"
    },
    {
      "inputs": [],
      "name": "isUserProxy",
      "outputs": [
        {
          "internalType": "bool",
          "name": "",
          "type": "bool"
        }
      ],
      "stateMutability": "view",
      "type": "function"
    },
    {
      "inputs": [],
      "name": "owner",
      "outputs": [
        {
          "internalType": "address payable",
          "name": "",
          "type": "address"
        }
      ],
      "stateMutability": "view",
      "type": "function"
    },
    {
      "inputs": [
        {
          "internalType": "uint16",
          "name": "stepTypeId",
          "type": "uint16"
        },
        {
          "internalType": "address",
          "name": "stepAddress",
          "type": "address"
        }
      ],
      "name": "removeStepAddress",
      "outputs": [],
      "stateMutability": "nonpayable",
      "type": "function"
    },
    {
      "inputs": [
        {
          "internalType": "address payable",
          "name": "newOwner",
          "type": "address"
        }
      ],
      "name": "setOwner",
      "outputs": [],
      "stateMutability": "nonpayable",
      "type": "function"
    },
    {
      "inputs": [
        {
          "internalType": "uint16",
          "name": "stepTypeId",
          "type": "uint16"
        },
        {
          "internalType": "address",
          "name": "stepAddress",
          "type": "address"
        }
      ],
      "name": "setStepAddress",
      "outputs": [],
      "stateMutability": "nonpayable",
      "type": "function"
    },
    {
      "inputs": [],
      "name": "upstreamAddress",
      "outputs": [
        {
          "internalType": "address",
          "name": "",
          "type": "address"
        }
      ],
      "stateMutability": "view",
      "type": "function"
    }
  ],
  "transactionHash": "0xb2087ed18a080ffddee51b441128b796688d9341fee0a8340c935566499c26fe",
  "args": [
    "0x89372b32b8AF3F1272e2efb3088616318D2834cA"
  ],
  "numDeployments": 2,
  "solcInputHash": "26de4f09b6f2ab4ab3f2d695d3b81ee9",
  "bytecode": "0x60806040523480156200001157600080fd5b5060405162001d0238038062001d02833981810160405281019062000037919062000200565b338173ffffffffffffffffffffffffffffffffffffffff1663384782fe6040518163ffffffff1660e01b8152600401602060405180830381865afa15801562000084573d6000803e3d6000fd5b505050506040513d601f19601f82011682018060405250810190620000aa919062000277565b60008083806000806101000a81548173ffffffffffffffffffffffffffffffffffffffff021916908373ffffffffffffffffffffffffffffffffffffffff1602179055505082600160006101000a81548173ffffffffffffffffffffffffffffffffffffffff021916908373ffffffffffffffffffffffffffffffffffffffff16021790555081600260006101000a81548173ffffffffffffffffffffffffffffffffffffffff021916908373ffffffffffffffffffffffffffffffffffffffff16021790555080600260146101000a81548160ff0219169083151502179055505050505050620002a9565b600080fd5b600073ffffffffffffffffffffffffffffffffffffffff82169050919050565b6000620001c8826200019b565b9050919050565b620001da81620001bb565b8114620001e657600080fd5b50565b600081519050620001fa81620001cf565b92915050565b60006020828403121562000219576200021862000196565b5b60006200022984828501620001e9565b91505092915050565b60006200023f826200019b565b9050919050565b620002518162000232565b81146200025d57600080fd5b50565b600081519050620002718162000246565b92915050565b60006020828403121562000290576200028f62000196565b5b6000620002a08482850162000260565b91505092915050565b611a4980620002b96000396000f3fe608060405234801561001057600080fd5b506004361061009e5760003560e01c80636fd63351116100665780636fd63351146101475780638da5cb5b14610165578063c4006c8114610183578063f90339771461019f578063ff05c2a8146101cf5761009e565b80630f53b854146100a357806313af4035146100bf57806332b56aaf146100db578063384782fe146100f9578063699a205714610117575b600080fd5b6100bd60048036038101906100b89190611057565b6101ed565b005b6100d960048036038101906100d491906110d5565b6104bb565b005b6100e36105c8565b6040516100f09190611111565b60405180910390f35b6101016105ee565b60405161010e9190611111565b60405180910390f35b610131600480360381019061012c9190611162565b610614565b60405161013e91906112f7565b60405180910390f35b61014f610ac7565b60405161015c9190611328565b60405180910390f35b61016d610b92565b60405161017a9190611352565b60405180910390f35b61019d60048036038101906101989190611057565b610bb6565b005b6101b960048036038101906101b4919061136d565b610e16565b6040516101c69190611111565b60405180910390f35b6101d7610e4b565b6040516101e491906113b5565b60405180910390f35b60008054906101000a900473ffffffffffffffffffffffffffffffffffffffff1673ffffffffffffffffffffffffffffffffffffffff163373ffffffffffffffffffffffffffffffffffffffff161461024557600080fd5b6000600160009054906101000a900473ffffffffffffffffffffffffffffffffffffffff16905060008173ffffffffffffffffffffffffffffffffffffffff1663a2ccb5227fc94d198e6194ea38dbd900920351d7f8e6c6d85b1d3b803fb93c54be008e11fd60001b866040518363ffffffff1660e01b81526004016102cc929190611424565b602060405180830381865afa1580156102e9573d6000803e3d6000fd5b505050506040513d601f19601f8201168201806040525081019061030d9190611462565b90508073ffffffffffffffffffffffffffffffffffffffff168373ffffffffffffffffffffffffffffffffffffffff160361037d576040517f08c379a000000000000000000000000000000000000000000000000000000000815260040161037490611512565b60405180910390fd5b8173ffffffffffffffffffffffffffffffffffffffff1663ba4014fd6103a286610e5e565b8560006040518463ffffffff1660e01b81526004016103c39392919061156d565b6020604051808303816000875af11580156103e2573d6000803e3d6000fd5b505050506040513d601f19601f8201168201806040525081019061040691906115d0565b508173ffffffffffffffffffffffffffffffffffffffff16638142576361042c86610e8e565b856040518363ffffffff1660e01b815260040161044a9291906115fd565b600060405180830381600087803b15801561046457600080fd5b505af1158015610478573d6000803e3d6000fd5b505050507f5c250b46b4ab7901af16e469d68737ca13fe0eac242b19f323f7d3608565be7f84846040516104ad929190611635565b60405180910390a150505050565b60008054906101000a900473ffffffffffffffffffffffffffffffffffffffff1673ffffffffffffffffffffffffffffffffffffffff163373ffffffffffffffffffffffffffffffffffffffff161461051357600080fd5b600073ffffffffffffffffffffffffffffffffffffffff168173ffffffffffffffffffffffffffffffffffffffff160361054c57600080fd5b806000806101000a81548173ffffffffffffffffffffffffffffffffffffffff021916908373ffffffffffffffffffffffffffffffffffffffff1602179055507f1f8d7d25344642d919d55999e4664aa452a5f424bc0936ceb9c2b300db7dcbd933826040516105bd9291906116b3565b60405180910390a150565b600260009054906101000a900473ffffffffffffffffffffffffffffffffffffffff1681565b600160009054906101000a900473ffffffffffffffffffffffffffffffffffffffff1681565b61061c610f6c565b6000600160009054906101000a900473ffffffffffffffffffffffffffffffffffffffff1690506000808273ffffffffffffffffffffffffffffffffffffffff16634fcee0497fc94d198e6194ea38dbd900920351d7f8e6c6d85b1d3b803fb93c54be008e11fd60001b876040518363ffffffff1660e01b81526004016106a49291906116dc565b6040805180830381865afa1580156106c0573d6000803e3d6000fd5b505050506040513d601f19601f820116820180604052508101906106e4919061171a565b9150915060006106f383610e8e565b905060008473ffffffffffffffffffffffffffffffffffffffff16639b0d10fd836040518263ffffffff1660e01b8152600401610730919061175a565b602060405180830381865afa15801561074d573d6000803e3d6000fd5b505050506040513d601f19601f820116820180604052508101906107719190611775565b905060008167ffffffffffffffff81111561078f5761078e6117a2565b5b6040519080825280602002602001820160405280156107bd5781602001602082028036833780820191505090505b50905060005b828110156108ab5760008773ffffffffffffffffffffffffffffffffffffffff1663619f6cc686846040518363ffffffff1660e01b81526004016108089291906116dc565b6040805180830381865afa158015610824573d6000803e3d6000fd5b505050506040513d601f19601f8201168201806040525081019061084891906117d1565b5090508083838151811061085f5761085e611811565b5b602002602001019073ffffffffffffffffffffffffffffffffffffffff16908173ffffffffffffffffffffffffffffffffffffffff168152505050806108a49061186f565b90506107c3565b5060006108b786610e5e565b905060008773ffffffffffffffffffffffffffffffffffffffff16639b0d10fd836040518263ffffffff1660e01b81526004016108f4919061175a565b602060405180830381865afa158015610911573d6000803e3d6000fd5b505050506040513d601f19601f820116820180604052508101906109359190611775565b905060008167ffffffffffffffff811115610953576109526117a2565b5b6040519080825280602002602001820160405280156109815781602001602082028036833780820191505090505b50905060005b82811015610a6f5760008a73ffffffffffffffffffffffffffffffffffffffff1663619f6cc686846040518363ffffffff1660e01b81526004016109cc9291906116dc565b6040805180830381865afa1580156109e8573d6000803e3d6000fd5b505050506040513d601f19601f82011682018060405250810190610a0c91906117d1565b50905080838381518110610a2357610a22611811565b5b602002602001019073ffffffffffffffffffffffffffffffffffffffff16908173ffffffffffffffffffffffffffffffffffffffff16815250505080610a689061186f565b9050610987565b506040518060a001604052808961ffff168152602001600062ffffff1681526020018873ffffffffffffffffffffffffffffffffffffffff168152602001858152602001828152509950505050505050505050919050565b600080600160009054906101000a900473ffffffffffffffffffffffffffffffffffffffff1690508073ffffffffffffffffffffffffffffffffffffffff1663832860727fc94d198e6194ea38dbd900920351d7f8e6c6d85b1d3b803fb93c54be008e11fd60001b6040518263ffffffff1660e01b8152600401610b4b919061175a565b602060405180830381865afa158015610b68573d6000803e3d6000fd5b505050506040513d601f19601f82011682018060405250810190610b8c9190611775565b91505090565b60008054906101000a900473ffffffffffffffffffffffffffffffffffffffff1681565b60008054906101000a900473ffffffffffffffffffffffffffffffffffffffff1673ffffffffffffffffffffffffffffffffffffffff163373ffffffffffffffffffffffffffffffffffffffff1614610c0e57600080fd5b6000600160009054906101000a900473ffffffffffffffffffffffffffffffffffffffff1690508073ffffffffffffffffffffffffffffffffffffffff1663107f89ad7fc94d198e6194ea38dbd900920351d7f8e6c6d85b1d3b803fb93c54be008e11fd60001b85856040518463ffffffff1660e01b8152600401610c95939291906118b7565b6020604051808303816000875af1158015610cb4573d6000803e3d6000fd5b505050506040513d601f19601f82011682018060405250810190610cd891906115d0565b508073ffffffffffffffffffffffffffffffffffffffff1663ba4014fd610cfe85610e8e565b8460006040518463ffffffff1660e01b8152600401610d1f9392919061156d565b6020604051808303816000875af1158015610d3e573d6000803e3d6000fd5b505050506040513d601f19601f82011682018060405250810190610d6291906115d0565b508073ffffffffffffffffffffffffffffffffffffffff166381425763610d8885610e5e565b846040518363ffffffff1660e01b8152600401610da69291906115fd565b600060405180830381600087803b158015610dc057600080fd5b505af1158015610dd4573d6000803e3d6000fd5b505050507f5c250b46b4ab7901af16e469d68737ca13fe0eac242b19f323f7d3608565be7f8383604051610e09929190611635565b60405180910390a1505050565b6000610e44600160009054906101000a900473ffffffffffffffffffffffffffffffffffffffff1683610ebe565b9050919050565b600260149054906101000a900460ff1681565b600081604051602001610e71919061197b565b604051602081830303815290604052805190602001209050919050565b600081604051602001610ea191906119ed565b604051602081830303815290604052805190602001209050919050565b6000808390508073ffffffffffffffffffffffffffffffffffffffff1663a2ccb5227fc94d198e6194ea38dbd900920351d7f8e6c6d85b1d3b803fb93c54be008e11fd60001b856040518363ffffffff1660e01b8152600401610f22929190611424565b602060405180830381865afa158015610f3f573d6000803e3d6000fd5b505050506040513d601f19601f82011682018060405250810190610f639190611462565b91505092915050565b6040518060a00160405280600061ffff168152602001600062ffffff168152602001600073ffffffffffffffffffffffffffffffffffffffff16815260200160608152602001606081525090565b600080fd5b600061ffff82169050919050565b610fd681610fbf565b8114610fe157600080fd5b50565b600081359050610ff381610fcd565b92915050565b600073ffffffffffffffffffffffffffffffffffffffff82169050919050565b600061102482610ff9565b9050919050565b61103481611019565b811461103f57600080fd5b50565b6000813590506110518161102b565b92915050565b6000806040838503121561106e5761106d610fba565b5b600061107c85828601610fe4565b925050602061108d85828601611042565b9150509250929050565b60006110a282610ff9565b9050919050565b6110b281611097565b81146110bd57600080fd5b50565b6000813590506110cf816110a9565b92915050565b6000602082840312156110eb576110ea610fba565b5b60006110f9848285016110c0565b91505092915050565b61110b81611019565b82525050565b60006020820190506111266000830184611102565b92915050565b6000819050919050565b61113f8161112c565b811461114a57600080fd5b50565b60008135905061115c81611136565b92915050565b60006020828403121561117857611177610fba565b5b60006111868482850161114d565b91505092915050565b61119881610fbf565b82525050565b600062ffffff82169050919050565b6111b68161119e565b82525050565b6111c581611019565b82525050565b600081519050919050565b600082825260208201905092915050565b6000819050602082019050919050565b600061120383836111bc565b60208301905092915050565b6000602082019050919050565b6000611227826111cb565b61123181856111d6565b935061123c836111e7565b8060005b8381101561126d57815161125488826111f7565b975061125f8361120f565b925050600181019050611240565b5085935050505092915050565b600060a083016000830151611292600086018261118f565b5060208301516112a560208601826111ad565b5060408301516112b860408601826111bc565b50606083015184820360608601526112d0828261121c565b915050608083015184820360808601526112ea828261121c565b9150508091505092915050565b60006020820190508181036000830152611311818461127a565b905092915050565b6113228161112c565b82525050565b600060208201905061133d6000830184611319565b92915050565b61134c81611097565b82525050565b60006020820190506113676000830184611343565b92915050565b60006020828403121561138357611382610fba565b5b600061139184828501610fe4565b91505092915050565b60008115159050919050565b6113af8161139a565b82525050565b60006020820190506113ca60008301846113a6565b92915050565b6000819050919050565b6113e3816113d0565b82525050565b6000819050919050565b600061140e61140961140484610fbf565b6113e9565b61112c565b9050919050565b61141e816113f3565b82525050565b600060408201905061143960008301856113da565b6114466020830184611415565b9392505050565b60008151905061145c8161102b565b92915050565b60006020828403121561147857611477610fba565b5b60006114868482850161144d565b91505092915050565b600082825260208201905092915050565b7f63616e6e6f742072656d6f7665206c617465737420737465702061646472657360008201527f7300000000000000000000000000000000000000000000000000000000000000602082015250565b60006114fc60218361148f565b9150611507826114a0565b604082019050919050565b6000602082019050818103600083015261152b816114ef565b9050919050565b6000819050919050565b600061155761155261154d84611532565b6113e9565b61112c565b9050919050565b6115678161153c565b82525050565b600060608201905061158260008301866113da565b61158f6020830185611102565b61159c604083018461155e565b949350505050565b6115ad8161139a565b81146115b857600080fd5b50565b6000815190506115ca816115a4565b92915050565b6000602082840312156115e6576115e5610fba565b5b60006115f4848285016115bb565b91505092915050565b600060408201905061161260008301856113da565b61161f6020830184611102565b9392505050565b61162f81610fbf565b82525050565b600060408201905061164a6000830185611626565b6116576020830184611102565b9392505050565b600061167961167461166f84610ff9565b6113e9565b610ff9565b9050919050565b600061168b8261165e565b9050919050565b600061169d82611680565b9050919050565b6116ad81611692565b82525050565b60006040820190506116c86000830185611102565b6116d560208301846116a4565b9392505050565b60006040820190506116f160008301856113da565b6116fe6020830184611319565b9392505050565b60008151905061171481611136565b92915050565b6000806040838503121561173157611730610fba565b5b600061173f85828601611705565b92505060206117508582860161144d565b9150509250929050565b600060208201905061176f60008301846113da565b92915050565b60006020828403121561178b5761178a610fba565b5b600061179984828501611705565b91505092915050565b7f4e487b7100000000000000000000000000000000000000000000000000000000600052604160045260246000fd5b600080604083850312156117e8576117e7610fba565b5b60006117f68582860161144d565b925050602061180785828601611705565b9150509250929050565b7f4e487b7100000000000000000000000000000000000000000000000000000000600052603260045260246000fd5b7f4e487b7100000000000000000000000000000000000000000000000000000000600052601160045260246000fd5b600061187a8261112c565b91507fffffffffffffffffffffffffffffffffffffffffffffffffffffffffffffffff82036118ac576118ab611840565b5b600182019050919050565b60006060820190506118cc60008301866113da565b6118d96020830185611415565b6118e66040830184611102565b949350505050565b600081905092915050565b7f73746570426c61636b4c69737400000000000000000000000000000000000000600082015250565b600061192f600d836118ee565b915061193a826118f9565b600d82019050919050565b60008160f01b9050919050565b600061195d82611945565b9050919050565b61197561197082610fbf565b611952565b82525050565b600061198682611922565b91506119928284611964565b60028201915081905092915050565b7f7374657057686974654c69737400000000000000000000000000000000000000600082015250565b60006119d7600d836118ee565b91506119e2826119a1565b600d82019050919050565b60006119f8826119ca565b9150611a048284611964565b6002820191508190509291505056fea26469706673582212207bea3718de440f7d90c92aa1c8d7d6762576a42e7bf77054b6f448ba918a3e8c64736f6c63430008120033",
  "devdoc": {
    "kind": "dev",
    "methods": {},
    "version": 1
  },
  "userdoc": {
    "kind": "user",
    "methods": {},
    "version": 1
  },
  "storageLayout": {
    "storage": [
      {
        "astId": 7411,
        "contract": "contracts/ConfigManager.sol:ConfigManager",
        "label": "owner",
        "offset": 0,
        "slot": "0",
        "type": "t_address_payable"
      },
      {
        "astId": 6122,
        "contract": "contracts/ConfigManager.sol:ConfigManager",
        "label": "eternalStorageAddress",
        "offset": 0,
        "slot": "1",
        "type": "t_address"
      },
      {
        "astId": 6124,
        "contract": "contracts/ConfigManager.sol:ConfigManager",
        "label": "upstreamAddress",
        "offset": 0,
        "slot": "2",
        "type": "t_address"
      },
      {
        "astId": 6126,
        "contract": "contracts/ConfigManager.sol:ConfigManager",
        "label": "isUserProxy",
        "offset": 20,
        "slot": "2",
        "type": "t_bool"
      }
    ],
    "types": {
      "t_address": {
        "encoding": "inplace",
        "label": "address",
        "numberOfBytes": "20"
      },
      "t_address_payable": {
        "encoding": "inplace",
        "label": "address payable",
        "numberOfBytes": "20"
      },
      "t_bool": {
        "encoding": "inplace",
        "label": "bool",
        "numberOfBytes": "1"
      }
    }
  }
}