{
  "address": "0x89372b32b8AF3F1272e2efb3088616318D2834cA",
  "abi": [
    {
      "inputs": [],
      "stateMutability": "nonpayable",
      "type": "constructor"
    },
    {
      "anonymous": false,
      "inputs": [
        {
          "indexed": false,
          "internalType": "address",
          "name": "sender",
          "type": "address"
        },
        {
          "indexed": false,
          "internalType": "address",
          "name": "newOwner",
          "type": "address"
        }
      ],
      "name": "LogNewOwner",
      "type": "event"
    },
    {
      "anonymous": false,
      "inputs": [
        {
          "indexed": false,
          "internalType": "address",
          "name": "oldUpstream",
          "type": "address"
        },
        {
          "indexed": false,
          "internalType": "address",
          "name": "newUpstream",
          "type": "address"
        }
      ],
      "name": "UpstreamChanged",
      "type": "event"
    },
    {
      "stateMutability": "payable",
      "type": "fallback"
    },
    {
      "inputs": [],
      "name": "eternalStorageAddress",
      "outputs": [
        {
          "internalType": "address",
          "name": "",
          "type": "address"
        }
      ],
      "stateMutability": "view",
      "type": "function"
    },
    {
      "inputs": [],
      "name": "getUpstream",
      "outputs": [
        {
          "internalType": "address",
          "name": "",
          "type": "address"
        }
      ],
      "stateMutability": "view",
      "type": "function"
    },
    {
      "inputs": [],
      "name": "isUserProxy",
      "outputs": [
        {
          "internalType": "bool",
          "name": "",
          "type": "bool"
        }
      ],
      "stateMutability": "view",
      "type": "function"
    },
    {
      "inputs": [],
      "name": "owner",
      "outputs": [
        {
          "internalType": "address payable",
          "name": "",
          "type": "address"
        }
      ],
      "stateMutability": "view",
      "type": "function"
    },
    {
      "inputs": [
        {
          "internalType": "address payable",
          "name": "newOwner",
          "type": "address"
        }
      ],
      "name": "setOwner",
      "outputs": [],
      "stateMutability": "nonpayable",
      "type": "function"
    },
    {
      "inputs": [
        {
          "internalType": "address",
          "name": "newUpstream",
          "type": "address"
        }
      ],
      "name": "setUpstream",
      "outputs": [],
      "stateMutability": "nonpayable",
      "type": "function"
    },
    {
      "inputs": [],
      "name": "upstreamAddress",
      "outputs": [
        {
          "internalType": "address",
          "name": "",
          "type": "address"
        }
      ],
      "stateMutability": "view",
      "type": "function"
    },
    {
      "stateMutability": "payable",
      "type": "receive"
    }
  ],
  "transactionHash": "0x1d514a5114dfb10650f49fafb32aee1955affdcd69e868413343cfc81d10e05c",
  "args": [],
  "numDeployments": 2,
  "solcInputHash": "26de4f09b6f2ab4ab3f2d695d3b81ee9",
  "bytecode": "0x60806040523480156200001157600080fd5b50333360006040516200002490620002f8565b620000319291906200034b565b604051809103906000f0801580156200004e573d6000803e3d6000fd5b506000808383838383806000806101000a81548173ffffffffffffffffffffffffffffffffffffffff021916908373ffffffffffffffffffffffffffffffffffffffff1602179055505082600160006101000a81548173ffffffffffffffffffffffffffffffffffffffff021916908373ffffffffffffffffffffffffffffffffffffffff16021790555081600260006101000a81548173ffffffffffffffffffffffffffffffffffffffff021916908373ffffffffffffffffffffffffffffffffffffffff16021790555080600260146101000a81548160ff021916908315150217905550505050505050505060006040516020016200014f90620003d3565b604051602081830303815290604052805190602001209050620001a1600160009054906101000a900473ffffffffffffffffffffffffffffffffffffffff168230620001a860201b6200045d1760201c565b5062000556565b6000808473ffffffffffffffffffffffffffffffffffffffff168484604051602401620001d792919062000405565b6040516020818303038152906040527fca446dd9000000000000000000000000000000000000000000000000000000007bffffffffffffffffffffffffffffffffffffffffffffffffffffffff19166020820180517bffffffffffffffffffffffffffffffffffffffffffffffffffffffff8381831617835250505050604051620002639190620004ab565b600060405180830381855af49150503d8060008114620002a0576040519150601f19603f3d011682016040523d82523d6000602084013e620002a5565b606091505b5091509150818190620002f0576040517f08c379a0000000000000000000000000000000000000000000000000000000008152600401620002e7919062000532565b60405180910390fd5b505050505050565b613b818062000ec883390190565b600073ffffffffffffffffffffffffffffffffffffffff82169050919050565b6000620003338262000306565b9050919050565b620003458162000326565b82525050565b60006040820190506200036260008301856200033a565b6200037160208301846200033a565b9392505050565b600081905092915050565b7f66726f6e74446f6f720000000000000000000000000000000000000000000000600082015250565b6000620003bb60098362000378565b9150620003c88262000383565b600982019050919050565b6000620003e082620003ac565b9150819050919050565b6000819050919050565b620003ff81620003ea565b82525050565b60006040820190506200041c6000830185620003f4565b6200042b60208301846200033a565b9392505050565b600081519050919050565b600081905092915050565b60005b83811015620004685780820151818401526020810190506200044b565b60008484015250505050565b6000620004818262000432565b6200048d81856200043d565b93506200049f81856020860162000448565b80840191505092915050565b6000620004b9828462000474565b915081905092915050565b600081519050919050565b600082825260208201905092915050565b6000601f19601f8301169050919050565b6000620004fe82620004c4565b6200050a8185620004cf565b93506200051c81856020860162000448565b6200052781620004e0565b840191505092915050565b600060208201905081810360008301526200054e8184620004f1565b905092915050565b61096280620005666000396000f3fe6080604052600436106100745760003560e01c806356dececb1161004e57806356dececb146100fc578063742ec666146101275780638da5cb5b14610150578063ff05c2a81461017b5761007b565b806313af40351461007d57806332b56aaf146100a6578063384782fe146100d15761007b565b3661007b57005b005b34801561008957600080fd5b506100a4600480360381019061009f9190610607565b6101a6565b005b3480156100b257600080fd5b506100bb6102b3565b6040516100c89190610655565b60405180910390f35b3480156100dd57600080fd5b506100e66102d9565b6040516100f39190610655565b60405180910390f35b34801561010857600080fd5b506101116102ff565b60405161011e9190610655565b60405180910390f35b34801561013357600080fd5b5061014e6004803603810190610149919061069c565b610329565b005b34801561015c57600080fd5b50610165610426565b60405161017291906106d8565b60405180910390f35b34801561018757600080fd5b5061019061044a565b60405161019d919061070e565b60405180910390f35b60008054906101000a900473ffffffffffffffffffffffffffffffffffffffff1673ffffffffffffffffffffffffffffffffffffffff163373ffffffffffffffffffffffffffffffffffffffff16146101fe57600080fd5b600073ffffffffffffffffffffffffffffffffffffffff168173ffffffffffffffffffffffffffffffffffffffff160361023757600080fd5b806000806101000a81548173ffffffffffffffffffffffffffffffffffffffff021916908373ffffffffffffffffffffffffffffffffffffffff1602179055507f1f8d7d25344642d919d55999e4664aa452a5f424bc0936ceb9c2b300db7dcbd933826040516102a8929190610788565b60405180910390a150565b600260009054906101000a900473ffffffffffffffffffffffffffffffffffffffff1681565b600160009054906101000a900473ffffffffffffffffffffffffffffffffffffffff1681565b6000600260009054906101000a900473ffffffffffffffffffffffffffffffffffffffff16905090565b60008054906101000a900473ffffffffffffffffffffffffffffffffffffffff1673ffffffffffffffffffffffffffffffffffffffff163373ffffffffffffffffffffffffffffffffffffffff161461038157600080fd5b6000600260009054906101000a900473ffffffffffffffffffffffffffffffffffffffff16905081600260006101000a81548173ffffffffffffffffffffffffffffffffffffffff021916908373ffffffffffffffffffffffffffffffffffffffff1602179055507f44046d68f1959a9a0df452473181c07837a948176bf1a8a05c24b69c58c806c5818360405161041a9291906107b1565b60405180910390a15050565b60008054906101000a900473ffffffffffffffffffffffffffffffffffffffff1681565b600260149054906101000a900460ff1681565b6000808473ffffffffffffffffffffffffffffffffffffffff16848460405160240161048a9291906107f3565b6040516020818303038152906040527fca446dd9000000000000000000000000000000000000000000000000000000007bffffffffffffffffffffffffffffffffffffffffffffffffffffffff19166020820180517bffffffffffffffffffffffffffffffffffffffffffffffffffffffff8381831617835250505050604051610514919061088d565b600060405180830381855af49150503d806000811461054f576040519150601f19603f3d011682016040523d82523d6000602084013e610554565b606091505b509150915081819061059c576040517f08c379a0000000000000000000000000000000000000000000000000000000008152600401610593919061090a565b60405180910390fd5b505050505050565b600080fd5b600073ffffffffffffffffffffffffffffffffffffffff82169050919050565b60006105d4826105a9565b9050919050565b6105e4816105c9565b81146105ef57600080fd5b50565b600081359050610601816105db565b92915050565b60006020828403121561061d5761061c6105a4565b5b600061062b848285016105f2565b91505092915050565b600061063f826105a9565b9050919050565b61064f81610634565b82525050565b600060208201905061066a6000830184610646565b92915050565b61067981610634565b811461068457600080fd5b50565b60008135905061069681610670565b92915050565b6000602082840312156106b2576106b16105a4565b5b60006106c084828501610687565b91505092915050565b6106d2816105c9565b82525050565b60006020820190506106ed60008301846106c9565b92915050565b60008115159050919050565b610708816106f3565b82525050565b600060208201905061072360008301846106ff565b92915050565b6000819050919050565b600061074e610749610744846105a9565b610729565b6105a9565b9050919050565b600061076082610733565b9050919050565b600061077282610755565b9050919050565b61078281610767565b82525050565b600060408201905061079d6000830185610646565b6107aa6020830184610779565b9392505050565b60006040820190506107c66000830185610646565b6107d36020830184610646565b9392505050565b6000819050919050565b6107ed816107da565b82525050565b600060408201905061080860008301856107e4565b6108156020830184610646565b9392505050565b600081519050919050565b600081905092915050565b60005b83811015610850578082015181840152602081019050610835565b60008484015250505050565b60006108678261081c565b6108718185610827565b9350610881818560208601610832565b80840191505092915050565b6000610899828461085c565b915081905092915050565b600081519050919050565b600082825260208201905092915050565b6000601f19601f8301169050919050565b60006108dc826108a4565b6108e681856108af565b93506108f6818560208601610832565b6108ff816108c0565b840191505092915050565b6000602082019050818103600083015261092481846108d1565b90509291505056fea26469706673582212209448eb263d43b8c501f8aba95f2e91d5c47dc128f9a0d03a0d98785f2036695064736f6c6343000812003360806040523480156200001157600080fd5b5060405162003b8138038062003b8183398181016040528101906200003791906200012c565b81806000806101000a81548173ffffffffffffffffffffffffffffffffffffffff021916908373ffffffffffffffffffffffffffffffffffffffff1602179055505080600160006101000a81548173ffffffffffffffffffffffffffffffffffffffff021916908373ffffffffffffffffffffffffffffffffffffffff160217905550505062000173565b600080fd5b600073ffffffffffffffffffffffffffffffffffffffff82169050919050565b6000620000f482620000c7565b9050919050565b6200010681620000e7565b81146200011257600080fd5b50565b6000815190506200012681620000fb565b92915050565b60008060408385031215620001465762000145620000c2565b5b6000620001568582860162000115565b9250506020620001698582860162000115565b9150509250929050565b6139fe80620001836000396000f3fe608060405234801561001057600080fd5b50600436106103835760003560e01c8063824be251116101de578063b7d3b86f1161010f578063d66e5726116100ad578063e2b202bf1161007c578063e2b202bf14610c1d578063e58bb04114610c39578063e623e6ef14610c6a578063f6bb3cc414610c8657610383565b8063d66e572614610b83578063dc97d96214610ba1578063dcc106d514610bd1578063e2a4853a14610c0157610383565b8063bd02d0f5116100e9578063bd02d0f514610ad7578063c031a18014610b07578063c0ffb7c114610b37578063ca446dd914610b6757610383565b8063b7d3b86f14610a5b578063ba4014fd14610a77578063bb90494014610aa757610383565b806396b209f71161017c578063a2ccb52211610156578063a2ccb522146109af578063a6da2974146109df578063abfdcced14610a0f578063b5c1abfb14610a2b57610383565b806396b209f71461091f578063986e791a1461094f5780639b0d10fd1461097f57610383565b80638c160095116101b85780638c160095146108855780638da5cb5b146108a157806392be3634146108bf57806393128136146108ef57610383565b8063824be251146107f457806383286072146108255780638575b9aa1461085557610383565b806339e20523116102b8578063619f6cc61161025657806374a1fdff1161023057806374a1fdff146107465780637ae1cfca146107775780637cdb6d07146107a757806381425763146107d857610383565b8063619f6cc6146106c95780636e899550146106fa578063736d531a1461071657610383565b80634fcee049116102925780634fcee0491461061c57806351c067241461064d57806354c517cf1461067d578063616b59f6146106ad57610383565b806339e20523146105b35780633e49bed0146105cf5780634f4e14d2146105eb57610383565b806321f8a721116103255780632c62ff2d116102ff5780632c62ff2d146105435780632e28d0841461055f5780633374dac71461057b57806333af9b361461059757610383565b806321f8a721146104b1578063230b331e146104e15780632804dab61461051257610383565b8063107f89ad11610361578063107f89ad1461040457806313af403514610434578063155d86611461045057806316db452c1461048157610383565b80630265de361461038857806305952f7d146103b85780630e14a376146103e8575b600080fd5b6103a2600480360381019061039d9190612948565b610ca2565b6040516103af91906129a3565b60405180910390f35b6103d260048036038101906103cd9190612948565b610cd1565b6040516103df91906129d7565b60405180910390f35b61040260048036038101906103fd91906129f2565b610d00565b005b61041e60048036038101906104199190612aa9565b610d93565b60405161042b91906129a3565b60405180910390f35b61044e60048036038101906104499190612b3a565b610e1f565b005b61046a60048036038101906104659190612b67565b610f2c565b604051610478929190612ba7565b60405180910390f35b61049b600480360381019061049691906129f2565b610f5f565b6040516104a891906129d7565b60405180910390f35b6104cb60048036038101906104c691906129f2565b610f83565b6040516104d89190612bdf565b60405180910390f35b6104fb60048036038101906104f69190612948565b610fc0565b604051610509929190612c09565b60405180910390f35b61052c60048036038101906105279190612c32565b610ff3565b60405161053a929190612ba7565b60405180910390f35b61055d600480360381019061055891906129f2565b611026565b005b61057960048036038101906105749190612db8565b6110a6565b005b61059560048036038101906105909190612c32565b611125565b005b6105b160048036038101906105ac9190612c32565b6111a9565b005b6105cd60048036038101906105c89190612e14565b61122d565b005b6105e960048036038101906105e49190612e77565b611324565b005b61060560048036038101906106009190612c32565b61139a565b604051610613929190612eb7565b60405180910390f35b61063660048036038101906106319190612c32565b6113cd565b604051610644929190612ee0565b60405180910390f35b61066760048036038101906106629190612f09565b611400565b60405161067491906129a3565b60405180910390f35b610697600480360381019061069291906129f2565b61148c565b6040516106a491906129d7565b60405180910390f35b6106c760048036038101906106c291906129f2565b6114b0565b005b6106e360048036038101906106de9190612c32565b61152c565b6040516106f1929190612f5c565b60405180910390f35b610714600480360381019061070f9190613026565b61155f565b005b610730600480360381019061072b9190613082565b6115de565b60405161073d91906129a3565b60405180910390f35b610760600480360381019061075b9190612c32565b61166a565b60405161076e9291906130d5565b60405180910390f35b610791600480360381019061078c91906129f2565b61169d565b60405161079e91906129a3565b60405180910390f35b6107c160048036038101906107bc9190612c32565b6116c7565b6040516107cf9291906130fe565b60405180910390f35b6107f260048036038101906107ed9190612b67565b6116fa565b005b61080e60048036038101906108099190612948565b61177e565b60405161081c929190612ba7565b60405180910390f35b61083f600480360381019061083a91906129f2565b6117b1565b60405161084c91906129d7565b60405180910390f35b61086f600480360381019061086a9190613127565b6117d5565b60405161087c91906129a3565b60405180910390f35b61089f600480360381019061089a91906129f2565b611861565b005b6108a96118d5565b6040516108b69190613189565b60405180910390f35b6108d960048036038101906108d491906129f2565b6118f9565b6040516108e691906129d7565b60405180910390f35b61090960048036038101906109049190612b67565b61191d565b60405161091691906129a3565b60405180910390f35b61093960048036038101906109349190612c32565b61194c565b60405161094691906129a3565b60405180910390f35b610969600480360381019061096491906129f2565b61197b565b6040516109769190613223565b60405180910390f35b610999600480360381019061099491906129f2565b611a20565b6040516109a691906129d7565b60405180910390f35b6109c960048036038101906109c49190612c32565b611a44565b6040516109d69190612bdf565b60405180910390f35b6109f960048036038101906109f49190612b67565b611a73565b604051610a0691906129d7565b60405180910390f35b610a296004803603810190610a249190613271565b611aa2565b005b610a456004803603810190610a409190612948565b611b2b565b604051610a5291906129a3565b60405180910390f35b610a756004803603810190610a709190612948565b611b5a565b005b610a916004803603810190610a8c91906132b1565b611bde565b604051610a9e91906129a3565b60405180910390f35b610ac16004803603810190610abc9190612c32565b611c6a565b604051610ace91906129a3565b60405180910390f35b610af16004803603810190610aec91906129f2565b611c99565b604051610afe91906129d7565b60405180910390f35b610b216004803603810190610b1c91906129f2565b611cb6565b604051610b2e9190613359565b60405180910390f35b610b516004803603810190610b4c9190612948565b611d5b565b604051610b5e919061337b565b60405180910390f35b610b816004803603810190610b7c9190612b67565b611d8a565b005b610b8b611de0565b604051610b989190612bdf565b60405180910390f35b610bbb6004803603810190610bb691906129f2565b611e0a565b604051610bc891906133a5565b60405180910390f35b610beb6004803603810190610be69190612c32565b611e27565b604051610bf891906129d7565b60405180910390f35b610c1b6004803603810190610c169190612c32565b611e56565b005b610c376004803603810190610c3291906129f2565b611ecc565b005b610c536004803603810190610c4e9190612c32565b611f40565b604051610c619291906133c0565b60405180910390f35b610c846004803603810190610c7f9190612948565b611f73565b005b610ca06004803603810190610c9b91906129f2565b611ff7565b005b6000610cc982600a600086815260200190815260200160002061207390919063ffffffff16565b905092915050565b6000610cf882600c600086815260200190815260200160002061209390919063ffffffff16565b905092915050565b600160009054906101000a900473ffffffffffffffffffffffffffffffffffffffff1673ffffffffffffffffffffffffffffffffffffffff163373ffffffffffffffffffffffffffffffffffffffff1614610d5a57600080fd5b6004600082815260200190815260200160002060006101000a81549073ffffffffffffffffffffffffffffffffffffffff021916905550565b6000600160009054906101000a900473ffffffffffffffffffffffffffffffffffffffff1673ffffffffffffffffffffffffffffffffffffffff163373ffffffffffffffffffffffffffffffffffffffff1614610def57600080fd5b610e168383600860008881526020019081526020016000206120ad9092919063ffffffff16565b90509392505050565b60008054906101000a900473ffffffffffffffffffffffffffffffffffffffff1673ffffffffffffffffffffffffffffffffffffffff163373ffffffffffffffffffffffffffffffffffffffff1614610e7757600080fd5b600073ffffffffffffffffffffffffffffffffffffffff168173ffffffffffffffffffffffffffffffffffffffff1603610eb057600080fd5b806000806101000a81548173ffffffffffffffffffffffffffffffffffffffff021916908373ffffffffffffffffffffffffffffffffffffffff1602179055507f1f8d7d25344642d919d55999e4664aa452a5f424bc0936ceb9c2b300db7dcbd93382604051610f21929190613448565b60405180910390a150565b600080610f5483600960008781526020019081526020016000206120e290919063ffffffff16565b915091509250929050565b6000610f7c600c6000848152602001908152602001600020612124565b9050919050565b60006004600083815260200190815260200160002060009054906101000a900473ffffffffffffffffffffffffffffffffffffffff169050919050565b600080610fe883600a600087815260200190815260200160002061213990919063ffffffff16565b915091509250929050565b60008061101b83600b600087815260200190815260200160002061218890919063ffffffff16565b915091509250929050565b600160009054906101000a900473ffffffffffffffffffffffffffffffffffffffff1673ffffffffffffffffffffffffffffffffffffffff163373ffffffffffffffffffffffffffffffffffffffff161461108057600080fd5b6006600082815260200190815260200160002060006101000a81549060ff021916905550565b600160009054906101000a900473ffffffffffffffffffffffffffffffffffffffff1673ffffffffffffffffffffffffffffffffffffffff163373ffffffffffffffffffffffffffffffffffffffff161461110057600080fd5b806005600084815260200190815260200160002090816111209190613673565b505050565b600160009054906101000a900473ffffffffffffffffffffffffffffffffffffffff1673ffffffffffffffffffffffffffffffffffffffff163373ffffffffffffffffffffffffffffffffffffffff161461117f57600080fd5b6111a481600860008581526020019081526020016000206121b490919063ffffffff16565b505050565b600160009054906101000a900473ffffffffffffffffffffffffffffffffffffffff1673ffffffffffffffffffffffffffffffffffffffff163373ffffffffffffffffffffffffffffffffffffffff161461120357600080fd5b61122881600b60008581526020019081526020016000206121ce90919063ffffffff16565b505050565b60008054906101000a900473ffffffffffffffffffffffffffffffffffffffff1673ffffffffffffffffffffffffffffffffffffffff163373ffffffffffffffffffffffffffffffffffffffff161461128557600080fd5b7f2060d2afda92310906958ae6d876026305adfd6c323562957aae47c55ab042f8600160009054906101000a900473ffffffffffffffffffffffffffffffffffffffff16826040516112d8929190613745565b60405180910390a180600160006101000a81548173ffffffffffffffffffffffffffffffffffffffff021916908373ffffffffffffffffffffffffffffffffffffffff16021790555050565b600160009054906101000a900473ffffffffffffffffffffffffffffffffffffffff1673ffffffffffffffffffffffffffffffffffffffff163373ffffffffffffffffffffffffffffffffffffffff161461137e57600080fd5b8060076000848152602001908152602001600020819055505050565b6000806113c283600a60008781526020019081526020016000206121e890919063ffffffff16565b915091509250929050565b6000806113f5836008600087815260200190815260200160002061222890919063ffffffff16565b915091509250929050565b6000600160009054906101000a900473ffffffffffffffffffffffffffffffffffffffff1673ffffffffffffffffffffffffffffffffffffffff163373ffffffffffffffffffffffffffffffffffffffff161461145c57600080fd5b6114838383600c60008881526020019081526020016000206122549092919063ffffffff16565b90509392505050565b60006114a9600b6000848152602001908152602001600020612270565b9050919050565b600160009054906101000a900473ffffffffffffffffffffffffffffffffffffffff1673ffffffffffffffffffffffffffffffffffffffff163373ffffffffffffffffffffffffffffffffffffffff161461150a57600080fd5b6005600082815260200190815260200160002060006115299190612861565b50565b600080611554836009600087815260200190815260200160002061228590919063ffffffff16565b915091509250929050565b600160009054906101000a900473ffffffffffffffffffffffffffffffffffffffff1673ffffffffffffffffffffffffffffffffffffffff163373ffffffffffffffffffffffffffffffffffffffff16146115b957600080fd5b806003600084815260200190815260200160002090816115d991906137c9565b505050565b6000600160009054906101000a900473ffffffffffffffffffffffffffffffffffffffff1673ffffffffffffffffffffffffffffffffffffffff163373ffffffffffffffffffffffffffffffffffffffff161461163a57600080fd5b6116618383600a60008881526020019081526020016000206122b19092919063ffffffff16565b90509392505050565b60008061169283600b60008781526020019081526020016000206122ec90919063ffffffff16565b915091509250929050565b60006006600083815260200190815260200160002060009054906101000a900460ff169050919050565b6000806116ef836008600087815260200190815260200160002061231890919063ffffffff16565b915091509250929050565b600160009054906101000a900473ffffffffffffffffffffffffffffffffffffffff1673ffffffffffffffffffffffffffffffffffffffff163373ffffffffffffffffffffffffffffffffffffffff161461175457600080fd5b611779816009600085815260200190815260200160002061234490919063ffffffff16565b505050565b6000806117a683600c600087815260200190815260200160002061237490919063ffffffff16565b915091509250929050565b60006117ce6008600084815260200190815260200160002061239d565b9050919050565b6000600160009054906101000a900473ffffffffffffffffffffffffffffffffffffffff1673ffffffffffffffffffffffffffffffffffffffff163373ffffffffffffffffffffffffffffffffffffffff161461183157600080fd5b6118588383600b60008881526020019081526020016000206123b29092919063ffffffff16565b90509392505050565b600160009054906101000a900473ffffffffffffffffffffffffffffffffffffffff1673ffffffffffffffffffffffffffffffffffffffff163373ffffffffffffffffffffffffffffffffffffffff16146118bb57600080fd5b600760008281526020019081526020016000206000905550565b60008054906101000a900473ffffffffffffffffffffffffffffffffffffffff1681565b6000611916600a60008481526020019081526020016000206123d1565b9050919050565b600061194482600960008681526020019081526020016000206123e690919063ffffffff16565b905092915050565b6000611973826008600086815260200190815260200160002061241690919063ffffffff16565b905092915050565b606060036000838152602001908152602001600020805461199b906134a0565b80601f01602080910402602001604051908101604052809291908181526020018280546119c7906134a0565b8015611a145780601f106119e957610100808354040283529160200191611a14565b820191906000526020600020905b8154815290600101906020018083116119f757829003601f168201915b50505050509050919050565b6000611a3d60096000848152602001908152602001600020612430565b9050919050565b6000611a6b826008600086815260200190815260200160002061244590919063ffffffff16565b905092915050565b6000611a9a826009600086815260200190815260200160002061246290919063ffffffff16565b905092915050565b600160009054906101000a900473ffffffffffffffffffffffffffffffffffffffff1673ffffffffffffffffffffffffffffffffffffffff163373ffffffffffffffffffffffffffffffffffffffff1614611afc57600080fd5b806006600084815260200190815260200160002060006101000a81548160ff0219169083151502179055505050565b6000611b5282600c600086815260200190815260200160002061249590919063ffffffff16565b905092915050565b600160009054906101000a900473ffffffffffffffffffffffffffffffffffffffff1673ffffffffffffffffffffffffffffffffffffffff163373ffffffffffffffffffffffffffffffffffffffff1614611bb457600080fd5b611bd981600c60008581526020019081526020016000206124ac90919063ffffffff16565b505050565b6000600160009054906101000a900473ffffffffffffffffffffffffffffffffffffffff1673ffffffffffffffffffffffffffffffffffffffff163373ffffffffffffffffffffffffffffffffffffffff1614611c3a57600080fd5b611c618383600960008881526020019081526020016000206124c39092919063ffffffff16565b90509392505050565b6000611c9182600b60008681526020019081526020016000206124f890919063ffffffff16565b905092915050565b600060026000838152602001908152602001600020549050919050565b6060600560008381526020019081526020016000208054611cd6906134a0565b80601f0160208091040260200160405190810160405280929190818152602001828054611d02906134a0565b8015611d4f5780601f10611d2457610100808354040283529160200191611d4f565b820191906000526020600020905b815481529060010190602001808311611d3257829003601f168201915b50505050509050919050565b6000611d8282600a600086815260200190815260200160002061251290919063ffffffff16565b905092915050565b806004600084815260200190815260200160002060006101000a81548173ffffffffffffffffffffffffffffffffffffffff021916908373ffffffffffffffffffffffffffffffffffffffff1602179055505050565b6000600160009054906101000a900473ffffffffffffffffffffffffffffffffffffffff16905090565b600060076000838152602001908152602001600020549050919050565b6000611e4e82600b600086815260200190815260200160002061258e90919063ffffffff16565b905092915050565b600160009054906101000a900473ffffffffffffffffffffffffffffffffffffffff1673ffffffffffffffffffffffffffffffffffffffff163373ffffffffffffffffffffffffffffffffffffffff1614611eb057600080fd5b8060026000848152602001908152602001600020819055505050565b600160009054906101000a900473ffffffffffffffffffffffffffffffffffffffff1673ffffffffffffffffffffffffffffffffffffffff163373ffffffffffffffffffffffffffffffffffffffff1614611f2657600080fd5b600260008281526020019081526020016000206000905550565b600080611f6883600c60008781526020019081526020016000206125ab90919063ffffffff16565b915091509250929050565b600160009054906101000a900473ffffffffffffffffffffffffffffffffffffffff1673ffffffffffffffffffffffffffffffffffffffff163373ffffffffffffffffffffffffffffffffffffffff1614611fcd57600080fd5b611ff281600a60008581526020019081526020016000206125d490919063ffffffff16565b505050565b600160009054906101000a900473ffffffffffffffffffffffffffffffffffffffff1673ffffffffffffffffffffffffffffffffffffffff163373ffffffffffffffffffffffffffffffffffffffff161461205157600080fd5b60036000828152602001908152602001600020600061207091906128a1565b50565b600061208b828460000161260d90919063ffffffff16565b905092915050565b60006120a28360000183612512565b60001c905092915050565b60006120d9846000018460001b8473ffffffffffffffffffffffffffffffffffffffff1660001b6122b1565b90509392505050565b60008060008061210e866000018673ffffffffffffffffffffffffffffffffffffffff1660001b612139565b91509150818160001c9350935050509250929050565b6000612132826000016123d1565b9050919050565b60008060008460020160008581526020019081526020016000205490506000801b81036121785761216a8585612073565b6000801b9250925050612181565b60018192509250505b9250929050565b60008060008061219e866000018660001b612139565b91509150818160001c9350935050509250929050565b60006121c6836000018360001b6125d4565b905092915050565b60006121e0836000018360001b6125d4565b905092915050565b6000806000612203848660000161262490919063ffffffff16565b9050808560020160008381526020019081526020016000205492509250509250929050565b60008060008061223b86600001866121e8565b915091508160001c8160001c9350935050509250929050565b600061226784600001848460001b6122b1565b90509392505050565b600061227e826000016123d1565b9050919050565b60008060008061229886600001866121e8565b915091508160001c8160001c9350935050509250929050565b600081846002016000858152602001908152602001600020819055506122e3838560000161263b90919063ffffffff16565b90509392505050565b6000806000806122ff86600001866121e8565b915091508160001c8160001c9350935050509250929050565b60008060008061232e866000018660001b612139565b91509150818160001c9350935050509250929050565b600061236c836000018373ffffffffffffffffffffffffffffffffffffffff1660001b6125d4565b905092915050565b6000806000806123878660000186612139565b91509150818160001c9350935050509250929050565b60006123ab826000016123d1565b9050919050565b60006123c8846000018460001b8460001b6122b1565b90509392505050565b60006123df82600001612652565b9050919050565b600061240e836000018373ffffffffffffffffffffffffffffffffffffffff1660001b612073565b905092915050565b6000612428836000018360001b612073565b905092915050565b600061243e826000016123d1565b9050919050565b6000612457836000018360001b612512565b60001c905092915050565b600061248a836000018373ffffffffffffffffffffffffffffffffffffffff1660001b612512565b60001c905092915050565b60006124a48360000183612073565b905092915050565b60006124bb83600001836125d4565b905092915050565b60006124ef846000018473ffffffffffffffffffffffffffffffffffffffff1660001b8460001b6122b1565b90509392505050565b600061250a836000018360001b612073565b905092915050565b6000808360020160008481526020019081526020016000205490506000801b8114158061254557506125448484612073565b5b612584576040517f08c379a000000000000000000000000000000000000000000000000000000000815260040161257b906138e7565b60405180910390fd5b8091505092915050565b60006125a0836000018360001b612512565b60001c905092915050565b6000806000806125be86600001866121e8565b91509150818160001c9350935050509250929050565b600082600201600083815260200190815260200160002060009055612605828460000161266790919063ffffffff16565b905092915050565b600061261c836000018361267e565b905092915050565b600061263383600001836126a1565b905092915050565b600061264a83600001836126cc565b905092915050565b60006126608260000161273c565b9050919050565b6000612676836000018361274d565b905092915050565b600080836001016000848152602001908152602001600020541415905092915050565b60008260000182815481106126b9576126b8613907565b5b9060005260206000200154905092915050565b60006126d8838361267e565b612731578260000182908060018154018082558091505060019003906000526020600020016000909190919091505582600001805490508360010160008481526020019081526020016000208190555060019050612736565b600090505b92915050565b600081600001805490509050919050565b6000808360010160008481526020019081526020016000205490506000811461285557600060018261277f9190613965565b90506000600186600001805490506127979190613965565b90508181146128065760008660000182815481106127b8576127b7613907565b5b90600052602060002001549050808760000184815481106127dc576127db613907565b5b90600052602060002001819055508387600101600083815260200190815260200160002081905550505b8560000180548061281a57612819613999565b5b60019003818190600052602060002001600090559055856001016000868152602001908152602001600020600090556001935050505061285b565b60009150505b92915050565b50805461286d906134a0565b6000825580601f1061287f575061289e565b601f01602090049060005260206000209081019061289d91906128e1565b5b50565b5080546128ad906134a0565b6000825580601f106128bf57506128de565b601f0160209004906000526020600020908101906128dd91906128e1565b5b50565b5b808211156128fa5760008160009055506001016128e2565b5090565b6000604051905090565b600080fd5b600080fd5b6000819050919050565b61292581612912565b811461293057600080fd5b50565b6000813590506129428161291c565b92915050565b6000806040838503121561295f5761295e612908565b5b600061296d85828601612933565b925050602061297e85828601612933565b9150509250929050565b60008115159050919050565b61299d81612988565b82525050565b60006020820190506129b86000830184612994565b92915050565b6000819050919050565b6129d1816129be565b82525050565b60006020820190506129ec60008301846129c8565b92915050565b600060208284031215612a0857612a07612908565b5b6000612a1684828501612933565b91505092915050565b612a28816129be565b8114612a3357600080fd5b50565b600081359050612a4581612a1f565b92915050565b600073ffffffffffffffffffffffffffffffffffffffff82169050919050565b6000612a7682612a4b565b9050919050565b612a8681612a6b565b8114612a9157600080fd5b50565b600081359050612aa381612a7d565b92915050565b600080600060608486031215612ac257612ac1612908565b5b6000612ad086828701612933565b9350506020612ae186828701612a36565b9250506040612af286828701612a94565b9150509250925092565b6000612b0782612a4b565b9050919050565b612b1781612afc565b8114612b2257600080fd5b50565b600081359050612b3481612b0e565b92915050565b600060208284031215612b5057612b4f612908565b5b6000612b5e84828501612b25565b91505092915050565b60008060408385031215612b7e57612b7d612908565b5b6000612b8c85828601612933565b9250506020612b9d85828601612a94565b9150509250929050565b6000604082019050612bbc6000830185612994565b612bc960208301846129c8565b9392505050565b612bd981612a6b565b82525050565b6000602082019050612bf46000830184612bd0565b92915050565b612c0381612912565b82525050565b6000604082019050612c1e6000830185612994565b612c2b6020830184612bfa565b9392505050565b60008060408385031215612c4957612c48612908565b5b6000612c5785828601612933565b9250506020612c6885828601612a36565b9150509250929050565b600080fd5b600080fd5b6000601f19601f8301169050919050565b7f4e487b7100000000000000000000000000000000000000000000000000000000600052604160045260246000fd5b612cc582612c7c565b810181811067ffffffffffffffff82111715612ce457612ce3612c8d565b5b80604052505050565b6000612cf76128fe565b9050612d038282612cbc565b919050565b600067ffffffffffffffff821115612d2357612d22612c8d565b5b612d2c82612c7c565b9050602081019050919050565b82818337600083830152505050565b6000612d5b612d5684612d08565b612ced565b905082815260208101848484011115612d7757612d76612c77565b5b612d82848285612d39565b509392505050565b600082601f830112612d9f57612d9e612c72565b5b8135612daf848260208601612d48565b91505092915050565b60008060408385031215612dcf57612dce612908565b5b6000612ddd85828601612933565b925050602083013567ffffffffffffffff811115612dfe57612dfd61290d565b5b612e0a85828601612d8a565b9150509250929050565b600060208284031215612e2a57612e29612908565b5b6000612e3884828501612a94565b91505092915050565b6000819050919050565b612e5481612e41565b8114612e5f57600080fd5b50565b600081359050612e7181612e4b565b92915050565b60008060408385031215612e8e57612e8d612908565b5b6000612e9c85828601612933565b9250506020612ead85828601612e62565b9150509250929050565b6000604082019050612ecc6000830185612bfa565b612ed96020830184612bfa565b9392505050565b6000604082019050612ef560008301856129c8565b612f026020830184612bd0565b9392505050565b600080600060608486031215612f2257612f21612908565b5b6000612f3086828701612933565b9350506020612f4186828701612933565b9250506040612f5286828701612a36565b9150509250925092565b6000604082019050612f716000830185612bd0565b612f7e60208301846129c8565b9392505050565b600067ffffffffffffffff821115612fa057612f9f612c8d565b5b612fa982612c7c565b9050602081019050919050565b6000612fc9612fc484612f85565b612ced565b905082815260208101848484011115612fe557612fe4612c77565b5b612ff0848285612d39565b509392505050565b600082601f83011261300d5761300c612c72565b5b813561301d848260208601612fb6565b91505092915050565b6000806040838503121561303d5761303c612908565b5b600061304b85828601612933565b925050602083013567ffffffffffffffff81111561306c5761306b61290d565b5b61307885828601612ff8565b9150509250929050565b60008060006060848603121561309b5761309a612908565b5b60006130a986828701612933565b93505060206130ba86828701612933565b92505060406130cb86828701612933565b9150509250925092565b60006040820190506130ea60008301856129c8565b6130f760208301846129c8565b9392505050565b60006040820190506131136000830185612994565b6131206020830184612bd0565b9392505050565b6000806000606084860312156131405761313f612908565b5b600061314e86828701612933565b935050602061315f86828701612a36565b925050604061317086828701612a36565b9150509250925092565b61318381612afc565b82525050565b600060208201905061319e600083018461317a565b92915050565b600081519050919050565b600082825260208201905092915050565b60005b838110156131de5780820151818401526020810190506131c3565b60008484015250505050565b60006131f5826131a4565b6131ff81856131af565b935061320f8185602086016131c0565b61321881612c7c565b840191505092915050565b6000602082019050818103600083015261323d81846131ea565b905092915050565b61324e81612988565b811461325957600080fd5b50565b60008135905061326b81613245565b92915050565b6000806040838503121561328857613287612908565b5b600061329685828601612933565b92505060206132a78582860161325c565b9150509250929050565b6000806000606084860312156132ca576132c9612908565b5b60006132d886828701612933565b93505060206132e986828701612a94565b92505060406132fa86828701612a36565b9150509250925092565b600081519050919050565b600082825260208201905092915050565b600061332b82613304565b613335818561330f565b93506133458185602086016131c0565b61334e81612c7c565b840191505092915050565b600060208201905081810360008301526133738184613320565b905092915050565b60006020820190506133906000830184612bfa565b92915050565b61339f81612e41565b82525050565b60006020820190506133ba6000830184613396565b92915050565b60006040820190506133d56000830185612bfa565b6133e260208301846129c8565b9392505050565b6000819050919050565b600061340e61340961340484612a4b565b6133e9565b612a4b565b9050919050565b6000613420826133f3565b9050919050565b600061343282613415565b9050919050565b61344281613427565b82525050565b600060408201905061345d6000830185612bd0565b61346a6020830184613439565b9392505050565b7f4e487b7100000000000000000000000000000000000000000000000000000000600052602260045260246000fd5b600060028204905060018216806134b857607f821691505b6020821081036134cb576134ca613471565b5b50919050565b60008190508160005260206000209050919050565b60006020601f8301049050919050565b600082821b905092915050565b6000600883026135337fffffffffffffffffffffffffffffffffffffffffffffffffffffffffffffffff826134f6565b61353d86836134f6565b95508019841693508086168417925050509392505050565b600061357061356b613566846129be565b6133e9565b6129be565b9050919050565b6000819050919050565b61358a83613555565b61359e61359682613577565b848454613503565b825550505050565b600090565b6135b36135a6565b6135be818484613581565b505050565b5b818110156135e2576135d76000826135ab565b6001810190506135c4565b5050565b601f821115613627576135f8816134d1565b613601846134e6565b81016020851015613610578190505b61362461361c856134e6565b8301826135c3565b50505b505050565b600082821c905092915050565b600061364a6000198460080261362c565b1980831691505092915050565b60006136638383613639565b9150826002028217905092915050565b61367c82613304565b67ffffffffffffffff81111561369557613694612c8d565b5b61369f82546134a0565b6136aa8282856135e6565b600060209050601f8311600181146136dd57600084156136cb578287015190505b6136d58582613657565b86555061373d565b601f1984166136eb866134d1565b60005b82811015613713578489015182556001820191506020850194506020810190506136ee565b86831015613730578489015161372c601f891682613639565b8355505b6001600288020188555050505b505050505050565b600060408201905061375a6000830185612bd0565b6137676020830184612bd0565b9392505050565b60008190508160005260206000209050919050565b601f8211156137c4576137958161376e565b61379e846134e6565b810160208510156137ad578190505b6137c16137b9856134e6565b8301826135c3565b50505b505050565b6137d2826131a4565b67ffffffffffffffff8111156137eb576137ea612c8d565b5b6137f582546134a0565b613800828285613783565b600060209050601f8311600181146138335760008415613821578287015190505b61382b8582613657565b865550613893565b601f1984166138418661376e565b60005b8281101561386957848901518255600182019150602085019450602081019050613844565b868310156138865784890151613882601f891682613639565b8355505b6001600288020188555050505b505050505050565b7f456e756d657261626c654d61703a206e6f6e6578697374656e74206b65790000600082015250565b60006138d1601e836131af565b91506138dc8261389b565b602082019050919050565b60006020820190508181036000830152613900816138c4565b9050919050565b7f4e487b7100000000000000000000000000000000000000000000000000000000600052603260045260246000fd5b7f4e487b7100000000000000000000000000000000000000000000000000000000600052601160045260246000fd5b6000613970826129be565b915061397b836129be565b925082820390508181111561399357613992613936565b5b92915050565b7f4e487b7100000000000000000000000000000000000000000000000000000000600052603160045260246000fdfea2646970667358221220cbec827a06d526c6692244a72b9b7bc63ffe6727d1ee21525296eb535db4cded64736f6c63430008120033",
  "devdoc": {
    "kind": "dev",
    "methods": {},
    "version": 1
  },
  "userdoc": {
    "kind": "user",
    "methods": {},
    "version": 1
  },
  "storageLayout": {
    "storage": [
      {
        "astId": 7411,
        "contract": "contracts/FrontDoor.sol:FrontDoor",
        "label": "owner",
        "offset": 0,
        "slot": "0",
        "type": "t_address_payable"
      },
      {
        "astId": 6122,
        "contract": "contracts/FrontDoor.sol:FrontDoor",
        "label": "eternalStorageAddress",
        "offset": 0,
        "slot": "1",
        "type": "t_address"
      },
      {
        "astId": 6124,
        "contract": "contracts/FrontDoor.sol:FrontDoor",
        "label": "upstreamAddress",
        "offset": 0,
        "slot": "2",
        "type": "t_address"
      },
      {
        "astId": 6126,
        "contract": "contracts/FrontDoor.sol:FrontDoor",
        "label": "isUserProxy",
        "offset": 20,
        "slot": "2",
        "type": "t_bool"
      }
    ],
    "types": {
      "t_address": {
        "encoding": "inplace",
        "label": "address",
        "numberOfBytes": "20"
      },
      "t_address_payable": {
        "encoding": "inplace",
        "label": "address payable",
        "numberOfBytes": "20"
      },
      "t_bool": {
        "encoding": "inplace",
        "label": "bool",
        "numberOfBytes": "1"
      }
    }
  }
}