{
  "address": "0x2f8D338360D095a72680A943A22fE6a0d398a0B4",
  "abi": [
    {
      "inputs": [
        {
          "internalType": "address payable",
          "name": "frontDoorAddress",
          "type": "address"
        }
      ],
      "stateMutability": "nonpayable",
      "type": "constructor"
    },
    {
      "anonymous": false,
      "inputs": [
        {
          "indexed": false,
          "internalType": "address",
          "name": "sender",
          "type": "address"
        },
        {
          "indexed": false,
          "internalType": "address",
          "name": "newOwner",
          "type": "address"
        }
      ],
      "name": "LogNewOwner",
      "type": "event"
    },
    {
      "anonymous": false,
      "inputs": [
        {
          "components": [
            {
              "internalType": "enum AssetType",
              "name": "assetType",
              "type": "uint8"
            },
            {
              "internalType": "address",
              "name": "assetAddress",
              "type": "address"
            }
          ],
          "indexed": false,
          "internalType": "struct Asset",
          "name": "asset",
          "type": "tuple"
        },
        {
          "indexed": false,
          "internalType": "uint256",
          "name": "totalAmount",
          "type": "uint256"
        },
        {
          "indexed": false,
          "internalType": "uint256",
          "name": "feeAmount",
          "type": "uint256"
        },
        {
          "indexed": false,
          "internalType": "uint256",
          "name": "userAmount",
          "type": "uint256"
        }
      ],
      "name": "RemainingAsset",
      "type": "event"
    },
    {
      "anonymous": false,
      "inputs": [
        {
          "indexed": false,
          "internalType": "uint256",
          "name": "nonce",
          "type": "uint256"
        },
        {
          "indexed": false,
          "internalType": "address",
          "name": "userAddress",
          "type": "address"
        },
        {
          "components": [
            {
              "components": [
                {
                  "internalType": "enum AssetType",
                  "name": "assetType",
                  "type": "uint8"
                },
                {
                  "internalType": "address",
                  "name": "assetAddress",
                  "type": "address"
                }
              ],
              "internalType": "struct Asset",
              "name": "asset",
              "type": "tuple"
            },
            {
              "internalType": "uint256",
              "name": "amount",
              "type": "uint256"
            }
          ],
          "indexed": false,
          "internalType": "struct AssetAmount",
          "name": "startingAsset",
          "type": "tuple"
        }
      ],
      "name": "WorkflowContinuation",
      "type": "event"
    },
    {
      "anonymous": false,
      "inputs": [
        {
          "indexed": false,
          "internalType": "address",
          "name": "userAddress",
          "type": "address"
        },
        {
          "components": [
            {
              "internalType": "address",
              "name": "workflowRunnerAddress",
              "type": "address"
            },
            {
              "components": [
                {
                  "internalType": "uint16",
                  "name": "stepTypeId",
                  "type": "uint16"
                },
                {
                  "internalType": "address",
                  "name": "stepAddress",
                  "type": "address"
                },
                {
                  "components": [
                    {
                      "internalType": "bool",
                      "name": "sourceIsCaller",
                      "type": "bool"
                    },
                    {
                      "internalType": "bool",
                      "name": "amountIsPercent",
                      "type": "bool"
                    },
                    {
                      "components": [
                        {
                          "internalType": "enum AssetType",
                          "name": "assetType",
                          "type": "uint8"
                        },
                        {
                          "internalType": "address",
                          "name": "assetAddress",
                          "type": "address"
                        }
                      ],
                      "internalType": "struct Asset",
                      "name": "asset",
                      "type": "tuple"
                    },
                    {
                      "internalType": "uint256",
                      "name": "amount",
                      "type": "uint256"
                    }
                  ],
                  "internalType": "struct WorkflowStepInputAsset[]",
                  "name": "inputAssets",
                  "type": "tuple[]"
                },
                {
                  "internalType": "bytes",
                  "name": "argData",
                  "type": "bytes"
                },
                {
                  "internalType": "int16",
                  "name": "nextStepIndex",
                  "type": "int16"
                }
              ],
              "internalType": "struct WorkflowStep[]",
              "name": "steps",
              "type": "tuple[]"
            }
          ],
          "indexed": false,
          "internalType": "struct Workflow",
          "name": "workflow",
          "type": "tuple"
        }
      ],
      "name": "WorkflowExecution",
      "type": "event"
    },
    {
      "anonymous": false,
      "inputs": [
        {
          "indexed": false,
          "internalType": "uint16",
          "name": "stepIndex",
          "type": "uint16"
        },
        {
          "components": [
            {
              "internalType": "uint16",
              "name": "stepTypeId",
              "type": "uint16"
            },
            {
              "internalType": "address",
              "name": "stepAddress",
              "type": "address"
            },
            {
              "components": [
                {
                  "internalType": "bool",
                  "name": "sourceIsCaller",
                  "type": "bool"
                },
                {
                  "internalType": "bool",
                  "name": "amountIsPercent",
                  "type": "bool"
                },
                {
                  "components": [
                    {
                      "internalType": "enum AssetType",
                      "name": "assetType",
                      "type": "uint8"
                    },
                    {
                      "internalType": "address",
                      "name": "assetAddress",
                      "type": "address"
                    }
                  ],
                  "internalType": "struct Asset",
                  "name": "asset",
                  "type": "tuple"
                },
                {
                  "internalType": "uint256",
                  "name": "amount",
                  "type": "uint256"
                }
              ],
              "internalType": "struct WorkflowStepInputAsset[]",
              "name": "inputAssets",
              "type": "tuple[]"
            },
            {
              "internalType": "bytes",
              "name": "argData",
              "type": "bytes"
            },
            {
              "internalType": "int16",
              "name": "nextStepIndex",
              "type": "int16"
            }
          ],
          "indexed": false,
          "internalType": "struct WorkflowStep",
          "name": "step",
          "type": "tuple"
        },
        {
          "indexed": false,
          "internalType": "uint16",
          "name": "stepTypeId",
          "type": "uint16"
        },
        {
          "indexed": false,
          "internalType": "address",
          "name": "stepAddress",
          "type": "address"
        },
        {
          "components": [
            {
              "components": [
                {
                  "internalType": "enum AssetType",
                  "name": "assetType",
                  "type": "uint8"
                },
                {
                  "internalType": "address",
                  "name": "assetAddress",
                  "type": "address"
                }
              ],
              "internalType": "struct Asset",
              "name": "asset",
              "type": "tuple"
            },
            {
              "internalType": "uint256",
              "name": "amount",
              "type": "uint256"
            }
          ],
          "indexed": false,
          "internalType": "struct AssetAmount[]",
          "name": "inputAssetAmounts",
          "type": "tuple[]"
        },
        {
          "components": [
            {
              "components": [
                {
                  "components": [
                    {
                      "internalType": "enum AssetType",
                      "name": "assetType",
                      "type": "uint8"
                    },
                    {
                      "internalType": "address",
                      "name": "assetAddress",
                      "type": "address"
                    }
                  ],
                  "internalType": "struct Asset",
                  "name": "asset",
                  "type": "tuple"
                },
                {
                  "internalType": "uint256",
                  "name": "amount",
                  "type": "uint256"
                }
              ],
              "internalType": "struct AssetAmount[]",
              "name": "inputAssetAmounts",
              "type": "tuple[]"
            },
            {
              "components": [
                {
                  "components": [
                    {
                      "internalType": "enum AssetType",
                      "name": "assetType",
                      "type": "uint8"
                    },
                    {
                      "internalType": "address",
                      "name": "assetAddress",
                      "type": "address"
                    }
                  ],
                  "internalType": "struct Asset",
                  "name": "asset",
                  "type": "tuple"
                },
                {
                  "internalType": "uint256",
                  "name": "amount",
                  "type": "uint256"
                }
              ],
              "internalType": "struct AssetAmount[]",
              "name": "outputAssetAmounts",
              "type": "tuple[]"
            },
            {
              "internalType": "int16",
              "name": "nextStepIndex",
              "type": "int16"
            },
            {
              "internalType": "int24",
              "name": "fee",
              "type": "int24"
            }
          ],
          "indexed": false,
          "internalType": "struct WorkflowStepResult",
          "name": "result",
          "type": "tuple"
        }
      ],
      "name": "WorkflowStepExecution",
      "type": "event"
    },
    {
      "inputs": [
        {
          "internalType": "address",
          "name": "userAddress",
          "type": "address"
        },
        {
          "internalType": "uint256",
          "name": "nonce",
          "type": "uint256"
        },
        {
          "components": [
            {
              "internalType": "address",
              "name": "workflowRunnerAddress",
              "type": "address"
            },
            {
              "components": [
                {
                  "internalType": "uint16",
                  "name": "stepTypeId",
                  "type": "uint16"
                },
                {
                  "internalType": "address",
                  "name": "stepAddress",
                  "type": "address"
                },
                {
                  "components": [
                    {
                      "internalType": "bool",
                      "name": "sourceIsCaller",
                      "type": "bool"
                    },
                    {
                      "internalType": "bool",
                      "name": "amountIsPercent",
                      "type": "bool"
                    },
                    {
                      "components": [
                        {
                          "internalType": "enum AssetType",
                          "name": "assetType",
                          "type": "uint8"
                        },
                        {
                          "internalType": "address",
                          "name": "assetAddress",
                          "type": "address"
                        }
                      ],
                      "internalType": "struct Asset",
                      "name": "asset",
                      "type": "tuple"
                    },
                    {
                      "internalType": "uint256",
                      "name": "amount",
                      "type": "uint256"
                    }
                  ],
                  "internalType": "struct WorkflowStepInputAsset[]",
                  "name": "inputAssets",
                  "type": "tuple[]"
                },
                {
                  "internalType": "bytes",
                  "name": "argData",
                  "type": "bytes"
                },
                {
                  "internalType": "int16",
                  "name": "nextStepIndex",
                  "type": "int16"
                }
              ],
              "internalType": "struct WorkflowStep[]",
              "name": "steps",
              "type": "tuple[]"
            }
          ],
          "internalType": "struct Workflow",
          "name": "workflow",
          "type": "tuple"
        },
        {
          "components": [
            {
              "components": [
                {
                  "internalType": "enum AssetType",
                  "name": "assetType",
                  "type": "uint8"
                },
                {
                  "internalType": "address",
                  "name": "assetAddress",
                  "type": "address"
                }
              ],
              "internalType": "struct Asset",
              "name": "asset",
              "type": "tuple"
            },
            {
              "internalType": "uint256",
              "name": "amount",
              "type": "uint256"
            }
          ],
          "internalType": "struct AssetAmount",
          "name": "startingAsset",
          "type": "tuple"
        }
      ],
      "name": "continueWorkflow",
      "outputs": [],
      "stateMutability": "payable",
      "type": "function"
    },
    {
      "inputs": [],
      "name": "eternalStorageAddress",
      "outputs": [
        {
          "internalType": "address",
          "name": "",
          "type": "address"
        }
      ],
      "stateMutability": "view",
      "type": "function"
    },
    {
      "inputs": [
        {
          "components": [
            {
              "internalType": "address",
              "name": "workflowRunnerAddress",
              "type": "address"
            },
            {
              "components": [
                {
                  "internalType": "uint16",
                  "name": "stepTypeId",
                  "type": "uint16"
                },
                {
                  "internalType": "address",
                  "name": "stepAddress",
                  "type": "address"
                },
                {
                  "components": [
                    {
                      "internalType": "bool",
                      "name": "sourceIsCaller",
                      "type": "bool"
                    },
                    {
                      "internalType": "bool",
                      "name": "amountIsPercent",
                      "type": "bool"
                    },
                    {
                      "components": [
                        {
                          "internalType": "enum AssetType",
                          "name": "assetType",
                          "type": "uint8"
                        },
                        {
                          "internalType": "address",
                          "name": "assetAddress",
                          "type": "address"
                        }
                      ],
                      "internalType": "struct Asset",
                      "name": "asset",
                      "type": "tuple"
                    },
                    {
                      "internalType": "uint256",
                      "name": "amount",
                      "type": "uint256"
                    }
                  ],
                  "internalType": "struct WorkflowStepInputAsset[]",
                  "name": "inputAssets",
                  "type": "tuple[]"
                },
                {
                  "internalType": "bytes",
                  "name": "argData",
                  "type": "bytes"
                },
                {
                  "internalType": "int16",
                  "name": "nextStepIndex",
                  "type": "int16"
                }
              ],
              "internalType": "struct WorkflowStep[]",
              "name": "steps",
              "type": "tuple[]"
            }
          ],
          "internalType": "struct Workflow",
          "name": "workflow",
          "type": "tuple"
        }
      ],
      "name": "executeWorkflow",
      "outputs": [],
      "stateMutability": "payable",
      "type": "function"
    },
    {
      "inputs": [
        {
          "internalType": "uint16",
          "name": "stepTypeId",
          "type": "uint16"
        }
      ],
      "name": "getStepAddress",
      "outputs": [
        {
          "internalType": "address",
          "name": "",
          "type": "address"
        }
      ],
      "stateMutability": "view",
      "type": "function"
    },
    {
      "inputs": [],
      "name": "isUserProxy",
      "outputs": [
        {
          "internalType": "bool",
          "name": "",
          "type": "bool"
        }
      ],
      "stateMutability": "view",
      "type": "function"
    },
    {
      "inputs": [],
      "name": "owner",
      "outputs": [
        {
          "internalType": "address payable",
          "name": "",
          "type": "address"
        }
      ],
      "stateMutability": "view",
      "type": "function"
    },
    {
      "inputs": [
        {
          "internalType": "address payable",
          "name": "newOwner",
          "type": "address"
        }
      ],
      "name": "setOwner",
      "outputs": [],
      "stateMutability": "nonpayable",
      "type": "function"
    },
    {
      "inputs": [],
      "name": "upstreamAddress",
      "outputs": [
        {
          "internalType": "address",
          "name": "",
          "type": "address"
        }
      ],
      "stateMutability": "view",
      "type": "function"
    }
  ],
  "transactionHash": "0x56a1e57d47ca47c35f2bd3a4fe938f060797e7f1540b22531f534e3bb8b48ced",
  "args": [
    "0x89372b32b8AF3F1272e2efb3088616318D2834cA"
  ],
  "numDeployments": 2,
  "solcInputHash": "26de4f09b6f2ab4ab3f2d695d3b81ee9",
  "bytecode": "0x60806040523480156200001157600080fd5b50604051620047dc380380620047dc833981810160405281019062000037919062000208565b338173ffffffffffffffffffffffffffffffffffffffff1663384782fe6040518163ffffffff1660e01b8152600401602060405180830381865afa15801562000084573d6000803e3d6000fd5b505050506040513d601f19601f82011682018060405250810190620000aa91906200027f565b60008083806000806101000a81548173ffffffffffffffffffffffffffffffffffffffff021916908373ffffffffffffffffffffffffffffffffffffffff1602179055505082600160006101000a81548173ffffffffffffffffffffffffffffffffffffffff021916908373ffffffffffffffffffffffffffffffffffffffff16021790555081600260006101000a81548173ffffffffffffffffffffffffffffffffffffffff021916908373ffffffffffffffffffffffffffffffffffffffff16021790555080600260146101000a81548160ff02191690831515021790555050505050600160038190555050620002b1565b600080fd5b600073ffffffffffffffffffffffffffffffffffffffff82169050919050565b6000620001d082620001a3565b9050919050565b620001e281620001c3565b8114620001ee57600080fd5b50565b6000815190506200020281620001d7565b92915050565b6000602082840312156200022157620002206200019e565b5b60006200023184828501620001f1565b91505092915050565b60006200024782620001a3565b9050919050565b62000259816200023a565b81146200026557600080fd5b50565b60008151905062000279816200024e565b92915050565b6000602082840312156200029857620002976200019e565b5b6000620002a88482850162000268565b91505092915050565b61451b80620002c16000396000f3fe60806040526004361061007b5760003560e01c806352faae301161004e57806352faae301461011b5780638da5cb5b14610137578063f903397714610162578063ff05c2a81461019f5761007b565b806313af40351461008057806332b56aaf146100a957806334192642146100d4578063384782fe146100f0575b600080fd5b34801561008c57600080fd5b506100a760048036038101906100a29190612261565b6101ca565b005b3480156100b557600080fd5b506100be6102d7565b6040516100cb91906122af565b60405180910390f35b6100ee60048036038101906100e9919061293d565b6102fd565b005b3480156100fc57600080fd5b50610105610349565b60405161011291906122af565b60405180910390f35b610135600480360381019061013091906129e4565b61036f565b005b34801561014357600080fd5b5061014c6103ef565b6040516101599190612a3c565b60405180910390f35b34801561016e57600080fd5b5061018960048036038101906101849190612a57565b610413565b60405161019691906122af565b60405180910390f35b3480156101ab57600080fd5b506101b4610448565b6040516101c19190612a93565b60405180910390f35b60008054906101000a900473ffffffffffffffffffffffffffffffffffffffff1673ffffffffffffffffffffffffffffffffffffffff163373ffffffffffffffffffffffffffffffffffffffff161461022257600080fd5b600073ffffffffffffffffffffffffffffffffffffffff168173ffffffffffffffffffffffffffffffffffffffff160361025b57600080fd5b806000806101000a81548173ffffffffffffffffffffffffffffffffffffffff021916908373ffffffffffffffffffffffffffffffffffffffff1602179055507f1f8d7d25344642d919d55999e4664aa452a5f424bc0936ceb9c2b300db7dcbd933826040516102cc929190612b0d565b60405180910390a150565b600260009054906101000a900473ffffffffffffffffffffffffffffffffffffffff1681565b7f5fb75a336a44ceb6f98a3b8492da063de0d7407916807b030a6703bc96c3871283858360405161033093929190612c38565b60405180910390a161034384838361045b565b50505050565b600160009054906101000a900473ffffffffffffffffffffffffffffffffffffffff1681565b6103776107b6565b600060405180604001604052806040518060400160405280600060028111156103a3576103a2612b45565b5b8152602001600073ffffffffffffffffffffffffffffffffffffffff168152508152602001600081525090506103e333836103dd90612c6f565b8361045b565b506103ec610805565b50565b60008054906101000a900473ffffffffffffffffffffffffffffffffffffffff1681565b6000610441600160009054906101000a900473ffffffffffffffffffffffffffffffffffffffff168361080f565b9050919050565b600260149054906101000a900460ff1681565b7fc8094e88bd093f5d416a30bcc4c54a73a490d161daf321f6f5df19920a76d67a838360405161048c929190612fae565b60405180910390a1600061049e6120f4565b600034146104bd576104bc600034836108bd9092919063ffffffff16565b5b6000836020015111156104e8576104e7836000015184602001518361097f9092919063ffffffff16565b5b5b6001156107a557600084602001518361ffff168151811061050d5761050c612fde565b5b60200260200101519050600161ffff16816000015161ffff16148061053e5750600261ffff16816000015161ffff16145b156105b1576000600161ffff16826000015161ffff16036105695761056282610997565b9050610576565b61057382846109da565b90505b7fffffffffffffffffffffffffffffffffffffffffffffffffffffffffffffffff8160010b036105a75750506107a5565b80935050506104e9565b60006105bc82610ac8565b905060006105ce848460400151610bb9565b905060005b81518110156105ed57806105e69061303c565b90506105d3565b5060006105ff83838660600151610d4f565b905060005b816020015151811015610622578061061b9061303c565b9050610604565b507f1754cdb05aef18c5f0e96033a1ff1dc6b452412b60d5699a299da58ab09d127686858660000151868686604051610660969594939291906132e3565b60405180910390a160005b8160000151518110156106e2576106d18260000151828151811061069257610691612fde565b5b602002602001015160000151836000015183815181106106b5576106b4612fde565b5b60200260200101516020015188610e9e9092919063ffffffff16565b806106db9061303c565b905061066b565b5060005b81602001515181101561075d5761074c8260200151828151811061070d5761070c612fde565b5b602002602001015160000151836020015183815181106107305761072f612fde565b5b6020026020010151602001518861097f9092919063ffffffff16565b806107569061303c565b90506106e6565b507fffffffffffffffffffffffffffffffffffffffffffffffffffffffffffffffff846080015160010b0361079557505050506107a5565b83608001519550505050506104e9565b6107af8582610eb6565b5050505050565b6002600354036107fb576040517f08c379a00000000000000000000000000000000000000000000000000000000081526004016107f2906133b6565b60405180910390fd5b6002600381905550565b6001600381905550565b6000808390508073ffffffffffffffffffffffffffffffffffffffff1663a2ccb5227fc94d198e6194ea38dbd900920351d7f8e6c6d85b1d3b803fb93c54be008e11fd60001b856040518363ffffffff1660e01b8152600401610873929190613420565b602060405180830381865afa158015610890573d6000803e3d6000fd5b505050506040513d601f19601f820116820180604052508101906108b4919061345e565b91505092915050565b600081111561097a5760006108d284846111a7565b9050600080610900866000015184600a81106108f1576108f0612fde565b5b602002015160200151856112af565b915091508161096a576109696040518060400160405280600681526020017f637265646974000000000000000000000000000000000000000000000000000081525086886000015186600a811061095a57610959612fde565b5b602002015160200151876112de565b5b61097586848361139f565b505050505b505050565b6109928361098c846113e7565b836108bd565b505050565b60008082606001518060200190518101906109b29190613505565b9050468160000151036109cc5780602001519150506109d5565b82608001519150505b919050565b60008083606001518060200190518101906109f59190613634565b90506000816020015190506000610a1983600001518661140290919063ffffffff16565b905060008360400151905060008360008114610a5c5760018114610a665760028114610a715760038114610a7b5760048114610a895760058114610a9357610a9d565b8284149150610a9d565b828414199150610a9d565b8284109150610a9d565b828410838514179150610a9d565b8284119150610a9d565b8284118385141791505b508015610ab557846060015195505050505050610ac2565b8760800151955050505050505b92915050565b60008073ffffffffffffffffffffffffffffffffffffffff16826020015173ffffffffffffffffffffffffffffffffffffffff1603610b3857610b31600160009054906101000a900473ffffffffffffffffffffffffffffffffffffffff16836000015161080f565b9050610bb4565b610b6d600160009054906101000a900473ffffffffffffffffffffffffffffffffffffffff168360000151846020015161149e565b610bac576040517f08c379a0000000000000000000000000000000000000000000000000000000008152600401610ba3906136ad565b60405180910390fd5b816020015190505b919050565b60606000825167ffffffffffffffff811115610bd857610bd7612342565b5b604051908082528060200260200182016040528015610c1157816020015b610bfe612117565b815260200190600190039081610bf65790505b50905060005b8351811015610d44576000848281518110610c3557610c34612fde565b5b602002602001015190508060400151838381518110610c5757610c56612fde565b5b6020026020010151600001819052506000610c7f82604001518861140290919063ffffffff16565b9050816020015115610cc157610c99818360600151611532565b848481518110610cac57610cab612fde565b5b60200260200101516020018181525050610d31565b8160600151811115610d08576040517f08c379a0000000000000000000000000000000000000000000000000000000008152600401610cff9061373f565b60405180910390fd5b8160600151848481518110610d2057610d1f612fde565b5b602002602001015160200181815250505b505080610d3d9061303c565b9050610c17565b508091505092915050565b610d57612137565b6000808573ffffffffffffffffffffffffffffffffffffffff16637bb26ca760e01b8686604051602401610d8c9291906137a9565b604051602081830303815290604052907bffffffffffffffffffffffffffffffffffffffffffffffffffffffff19166020820180517bffffffffffffffffffffffffffffffffffffffffffffffffffffffff8381831617835250505050604051610df6919061381c565b600060405180830381855af49150503d8060008114610e31576040519150601f19603f3d011682016040523d82523d6000602084013e610e36565b606091505b5091509150818190610e7e576040517f08c379a0000000000000000000000000000000000000000000000000000000008152600401610e759190613877565b60405180910390fd5b5080806020019051810190610e939190613a88565b925050509392505050565b610eb183610eab846113e7565b836115af565b505050565b60005b610ec282611671565b60ff168160ff1610156111a2576000610ee4828461167f90919063ffffffff16565b90506000816000015190506000610f01836020015161012c611532565b90506000818460200151610f159190613ad1565b90507fb57bad0019da5831064de8f296d1458a6ca8403646dd9c362e9ddbb588cb52c08385602001518484604051610f509493929190613b34565b60405180910390a160006002811115610f6c57610f6b612b45565b5b83600001516002811115610f8357610f82612b45565b5b03611088578360200151471015610fcf576040517f08c379a0000000000000000000000000000000000000000000000000000000008152600401610fc690613beb565b60405180910390fd5b6000808873ffffffffffffffffffffffffffffffffffffffff1683604051610ff690613c31565b60006040518083038185875af1925050503d8060008114611033576040519150601f19603f3d011682016040523d82523d6000602084013e611038565b606091505b5091509150818190611080576040517f08c379a00000000000000000000000000000000000000000000000000000000081526004016110779190613877565b60405180910390fd5b50505061118d565b6001600281111561109c5761109b612b45565b5b836000015160028111156110b3576110b2612b45565b5b036111515760008360200151905060008173ffffffffffffffffffffffffffffffffffffffff166370a08231306040518263ffffffff1660e01b81526004016110fc91906122af565b602060405180830381865afa158015611119573d6000803e3d6000fd5b505050506040513d601f19601f8201168201806040525081019061113d9190613c46565b905061114a828a85611742565b505061118c565b6040517f08c379a000000000000000000000000000000000000000000000000000000000815260040161118390613ce5565b60405180910390fd5b5b505050508061119b90613d12565b9050610eb9565b505050565b600080600090505b836020015160ff168110156111fe5782846000015182600a81106111d6576111d5612fde565b5b602002015160000151036111ed57809150506112a9565b806111f79061303c565b90506111af565b50600a60ff16836020015160ff161061124c576040517f08c379a000000000000000000000000000000000000000000000000000000000815260040161124390613d87565b60405180910390fd5b604051806040016040528083815260200160008152508360000151846020015160ff16600a81106112805761127f612fde565b5b602002018190525082602001805180919061129a90613d12565b60ff1660ff1681525060ff1690505b92915050565b60008060008385019050848110156112ce5760008092509250506112d7565b60018192509250505b9250929050565b60006112e9846117c8565b90508461130b8260000151600281111561130657611305612b45565b5b61183a565b61132e836020015173ffffffffffffffffffffffffffffffffffffffff16611908565b6113378661183a565b6113408661183a565b604051602001611354959493929190613e7b565b6040516020818303038152906040526040517f08c379a00000000000000000000000000000000000000000000000000000000081526004016113969190613877565b60405180910390fd5b60008082036113b7576113b28484611926565b6113dd565b81846000015184600a81106113cf576113ce612fde565b5b602002015160200181815250505b8190509392505050565b60006113fb82600001518360200151611993565b9050919050565b600080836000015190506000611417846113e7565b905060005b856020015160ff168161ffff1610156114905781838261ffff16600a811061144757611446612fde565b5b6020020151600001510361147f57828161ffff16600a811061146c5761146b612fde565b5b6020020151602001519350505050611498565b8061148990613f02565b905061141c565b506000925050505b92915050565b6000808490508073ffffffffffffffffffffffffffffffffffffffff1663931281366114c9866119e9565b856040518363ffffffff1660e01b81526004016114e7929190613f2c565b602060405180830381865afa158015611504573d6000803e3d6000fd5b505050506040513d601f19601f820116820180604052508101906115289190613f6a565b9150509392505050565b6000816000111580156115485750620186a08211155b611587576040517f08c379a000000000000000000000000000000000000000000000000000000000815260040161157e90614009565b60405180910390fd5b600082846115959190614029565b9050620186a0816115a6919061409a565b91505092915050565b600081111561166c5760006115c484846111a7565b90506000806115f2866000015184600a81106115e3576115e2612fde565b5b60200201516020015185611a19565b915091508161165c5761165b6040518060400160405280600581526020017f646562697400000000000000000000000000000000000000000000000000000081525086886000015186600a811061164c5761164b612fde565b5b602002015160200151876112de565b5b61166786848361139f565b505050505b505050565b600081602001519050919050565b611687612117565b826020015160ff168260ff16106116d3576040517f08c379a00000000000000000000000000000000000000000000000000000000081526004016116ca9061413d565b60405180910390fd5b600061170084600001518460ff16600a81106116f2576116f1612fde565b5b6020020151600001516117c8565b9050604051806040016040528082815260200185600001518560ff16600a811061172d5761172c612fde565b5b60200201516020015181525091505092915050565b6117c38363a9059cbb60e01b848460405160240161176192919061415d565b604051602081830303815290604052907bffffffffffffffffffffffffffffffffffffffffffffffffffffffff19166020820180517bffffffffffffffffffffffffffffffffffffffffffffffffffffffff8381831617835250505050611a41565b505050565b6117d0612165565b60008261ffff1660028111156117e9576117e8612b45565b5b90506000601084901c9050604051806040016040528083600281111561181257611811612b45565b5b81526020018273ffffffffffffffffffffffffffffffffffffffff1681525092505050919050565b60606000600161184984611b08565b01905060008167ffffffffffffffff81111561186857611867612342565b5b6040519080825280601f01601f19166020018201604052801561189a5781602001600182028036833780820191505090505b509050600082602001820190505b6001156118fd578080600190039150507f3031323334353637383961626364656600000000000000000000000000000000600a86061a8153600a85816118f1576118f061406b565b5b049450600085036118a8575b819350505050919050565b606061191f82600161191985611c5b565b01611ceb565b9050919050565b81600001516001836020015161193c9190614186565b60ff16600a81106119505761194f612fde565b5b6020020151826000015182600a811061196c5761196b612fde565b5b6020020181905250816020018051611983906141bb565b60ff16908160ff16815250505050565b60008082905060008173ffffffffffffffffffffffffffffffffffffffff1690506000601082901b905060008660028111156119d2576119d1612b45565b5b905060008183179050809550505050505092915050565b6000816040516020016119fc9190614266565b604051602081830303815290604052805190602001209050919050565b60008083831115611a305760008091509150611a3a565b6001838503915091505b9250929050565b6000611aa3826040518060400160405280602081526020017f5361666545524332303a206c6f772d6c6576656c2063616c6c206661696c65648152508573ffffffffffffffffffffffffffffffffffffffff16611f279092919063ffffffff16565b9050600081511115611b035780806020019051810190611ac39190613f6a565b611b02576040517f08c379a0000000000000000000000000000000000000000000000000000000008152600401611af9906142fe565b60405180910390fd5b5b505050565b600080600090507a184f03e93ff9f4daa797ed6e38ed64bf6a1f0100000000000000008310611b66577a184f03e93ff9f4daa797ed6e38ed64bf6a1f0100000000000000008381611b5c57611b5b61406b565b5b0492506040810190505b6d04ee2d6d415b85acef81000000008310611ba3576d04ee2d6d415b85acef81000000008381611b9957611b9861406b565b5b0492506020810190505b662386f26fc100008310611bd257662386f26fc100008381611bc857611bc761406b565b5b0492506010810190505b6305f5e1008310611bfb576305f5e1008381611bf157611bf061406b565b5b0492506008810190505b6127108310611c20576127108381611c1657611c1561406b565b5b0492506004810190505b60648310611c435760648381611c3957611c3861406b565b5b0492506002810190505b600a8310611c52576001810190505b80915050919050565b600080600090506000608084901c1115611c7d57608083901c92506010810190505b6000604084901c1115611c9857604083901c92506008810190505b6000602084901c1115611cb357602083901c92506004810190505b6000601084901c1115611cce57601083901c92506002810190505b6000600884901c1115611ce2576001810190505b80915050919050565b606060006002836002611cfe9190614029565b611d08919061431e565b67ffffffffffffffff811115611d2157611d20612342565b5b6040519080825280601f01601f191660200182016040528015611d535781602001600182028036833780820191505090505b5090507f300000000000000000000000000000000000000000000000000000000000000081600081518110611d8b57611d8a612fde565b5b60200101907effffffffffffffffffffffffffffffffffffffffffffffffffffffffffffff1916908160001a9053507f780000000000000000000000000000000000000000000000000000000000000081600181518110611def57611dee612fde565b5b60200101907effffffffffffffffffffffffffffffffffffffffffffffffffffffffffffff1916908160001a90535060006001846002611e2f9190614029565b611e39919061431e565b90505b6001811115611ed9577f3031323334353637383961626364656600000000000000000000000000000000600f861660108110611e7b57611e7a612fde565b5b1a60f81b828281518110611e9257611e91612fde565b5b60200101907effffffffffffffffffffffffffffffffffffffffffffffffffffffffffffff1916908160001a905350600485901c945080611ed290614352565b9050611e3c565b5060008414611f1d576040517f08c379a0000000000000000000000000000000000000000000000000000000008152600401611f14906143c7565b60405180910390fd5b8091505092915050565b6060611f368484600085611f3f565b90509392505050565b606082471015611f84576040517f08c379a0000000000000000000000000000000000000000000000000000000008152600401611f7b90614459565b60405180910390fd5b6000808673ffffffffffffffffffffffffffffffffffffffff168587604051611fad919061381c565b60006040518083038185875af1925050503d8060008114611fea576040519150601f19603f3d011682016040523d82523d6000602084013e611fef565b606091505b50915091506120008783838761200c565b92505050949350505050565b6060831561206e5760008351036120665761202685612081565b612065576040517f08c379a000000000000000000000000000000000000000000000000000000000815260040161205c906144c5565b60405180910390fd5b5b829050612079565b61207883836120a4565b5b949350505050565b6000808273ffffffffffffffffffffffffffffffffffffffff163b119050919050565b6000825111156120b75781518083602001fd5b806040517f08c379a00000000000000000000000000000000000000000000000000000000081526004016120eb9190613877565b60405180910390fd5b60405180604001604052806121076121a7565b8152602001600060ff1681525090565b604051806040016040528061212a612165565b8152602001600081525090565b60405180608001604052806060815260200160608152602001600060010b8152602001600060020b81525090565b60405180604001604052806000600281111561218457612183612b45565b5b8152602001600073ffffffffffffffffffffffffffffffffffffffff1681525090565b604051806101400160405280600a905b6121bf6121d5565b8152602001906001900390816121b75790505090565b604051806040016040528060008152602001600081525090565b6000604051905090565b600080fd5b600080fd5b600073ffffffffffffffffffffffffffffffffffffffff82169050919050565b600061222e82612203565b9050919050565b61223e81612223565b811461224957600080fd5b50565b60008135905061225b81612235565b92915050565b600060208284031215612277576122766121f9565b5b60006122858482850161224c565b91505092915050565b600061229982612203565b9050919050565b6122a98161228e565b82525050565b60006020820190506122c460008301846122a0565b92915050565b6122d38161228e565b81146122de57600080fd5b50565b6000813590506122f0816122ca565b92915050565b6000819050919050565b612309816122f6565b811461231457600080fd5b50565b60008135905061232681612300565b92915050565b600080fd5b6000601f19601f8301169050919050565b7f4e487b7100000000000000000000000000000000000000000000000000000000600052604160045260246000fd5b61237a82612331565b810181811067ffffffffffffffff8211171561239957612398612342565b5b80604052505050565b60006123ac6121ef565b90506123b88282612371565b919050565b600080fd5b600080fd5b600067ffffffffffffffff8211156123e2576123e1612342565b5b602082029050602081019050919050565b600080fd5b600061ffff82169050919050565b61240f816123f8565b811461241a57600080fd5b50565b60008135905061242c81612406565b92915050565b600067ffffffffffffffff82111561244d5761244c612342565b5b602082029050602081019050919050565b60008115159050919050565b6124738161245e565b811461247e57600080fd5b50565b6000813590506124908161246a565b92915050565b600381106124a357600080fd5b50565b6000813590506124b581612496565b92915050565b6000604082840312156124d1576124d061232c565b5b6124db60406123a2565b905060006124eb848285016124a6565b60008301525060206124ff848285016122e1565b60208301525092915050565b600060a082840312156125215761252061232c565b5b61252b60806123a2565b9050600061253b84828501612481565b600083015250602061254f84828501612481565b6020830152506040612563848285016124bb565b604083015250608061257784828501612317565b60608301525092915050565b600061259661259184612432565b6123a2565b90508083825260208201905060a084028301858111156125b9576125b86123f3565b5b835b818110156125e257806125ce888261250b565b84526020840193505060a0810190506125bb565b5050509392505050565b600082601f830112612601576126006123c2565b5b8135612611848260208601612583565b91505092915050565b600080fd5b600067ffffffffffffffff82111561263a57612639612342565b5b61264382612331565b9050602081019050919050565b82818337600083830152505050565b600061267261266d8461261f565b6123a2565b90508281526020810184848401111561268e5761268d61261a565b5b612699848285612650565b509392505050565b600082601f8301126126b6576126b56123c2565b5b81356126c684826020860161265f565b91505092915050565b60008160010b9050919050565b6126e5816126cf565b81146126f057600080fd5b50565b600081359050612702816126dc565b92915050565b600060a0828403121561271e5761271d61232c565b5b61272860a06123a2565b905060006127388482850161241d565b600083015250602061274c848285016122e1565b602083015250604082013567ffffffffffffffff8111156127705761276f6123bd565b5b61277c848285016125ec565b604083015250606082013567ffffffffffffffff8111156127a05761279f6123bd565b5b6127ac848285016126a1565b60608301525060806127c0848285016126f3565b60808301525092915050565b60006127df6127da846123c7565b6123a2565b90508083825260208201905060208402830185811115612802576128016123f3565b5b835b8181101561284957803567ffffffffffffffff811115612827576128266123c2565b5b8086016128348982612708565b85526020850194505050602081019050612804565b5050509392505050565b600082601f830112612868576128676123c2565b5b81356128788482602086016127cc565b91505092915050565b6000604082840312156128975761289661232c565b5b6128a160406123a2565b905060006128b1848285016122e1565b600083015250602082013567ffffffffffffffff8111156128d5576128d46123bd565b5b6128e184828501612853565b60208301525092915050565b6000606082840312156129035761290261232c565b5b61290d60406123a2565b9050600061291d848285016124bb565b600083015250604061293184828501612317565b60208301525092915050565b60008060008060c08587031215612957576129566121f9565b5b6000612965878288016122e1565b945050602061297687828801612317565b935050604085013567ffffffffffffffff811115612997576129966121fe565b5b6129a387828801612881565b92505060606129b4878288016128ed565b91505092959194509250565b600080fd5b6000604082840312156129db576129da6129c0565b5b81905092915050565b6000602082840312156129fa576129f96121f9565b5b600082013567ffffffffffffffff811115612a1857612a176121fe565b5b612a24848285016129c5565b91505092915050565b612a3681612223565b82525050565b6000602082019050612a516000830184612a2d565b92915050565b600060208284031215612a6d57612a6c6121f9565b5b6000612a7b8482850161241d565b91505092915050565b612a8d8161245e565b82525050565b6000602082019050612aa86000830184612a84565b92915050565b6000819050919050565b6000612ad3612ace612ac984612203565b612aae565b612203565b9050919050565b6000612ae582612ab8565b9050919050565b6000612af782612ada565b9050919050565b612b0781612aec565b82525050565b6000604082019050612b2260008301856122a0565b612b2f6020830184612afe565b9392505050565b612b3f816122f6565b82525050565b7f4e487b7100000000000000000000000000000000000000000000000000000000600052602160045260246000fd5b60038110612b8557612b84612b45565b5b50565b6000819050612b9682612b74565b919050565b6000612ba682612b88565b9050919050565b612bb681612b9b565b82525050565b612bc58161228e565b82525050565b604082016000820151612be16000850182612bad565b506020820151612bf46020850182612bbc565b50505050565b612c03816122f6565b82525050565b606082016000820151612c1f6000850182612bcb565b506020820151612c326040850182612bfa565b50505050565b600060a082019050612c4d6000830186612b36565b612c5a60208301856122a0565b612c676040830184612c09565b949350505050565b6000612c7b3683612881565b9050919050565b600081519050919050565b600082825260208201905092915050565b6000819050602082019050919050565b612cb7816123f8565b82525050565b600081519050919050565b600082825260208201905092915050565b6000819050602082019050919050565b612cf28161245e565b82525050565b60a082016000820151612d0e6000850182612ce9565b506020820151612d216020850182612ce9565b506040820151612d346040850182612bcb565b506060820151612d476080850182612bfa565b50505050565b6000612d598383612cf8565b60a08301905092915050565b6000602082019050919050565b6000612d7d82612cbd565b612d878185612cc8565b9350612d9283612cd9565b8060005b83811015612dc3578151612daa8882612d4d565b9750612db583612d65565b925050600181019050612d96565b5085935050505092915050565b600081519050919050565b600082825260208201905092915050565b60005b83811015612e0a578082015181840152602081019050612def565b60008484015250505050565b6000612e2182612dd0565b612e2b8185612ddb565b9350612e3b818560208601612dec565b612e4481612331565b840191505092915050565b612e58816126cf565b82525050565b600060a083016000830151612e766000860182612cae565b506020830151612e896020860182612bbc565b5060408301518482036040860152612ea18282612d72565b91505060608301518482036060860152612ebb8282612e16565b9150506080830151612ed06080860182612e4f565b508091505092915050565b6000612ee78383612e5e565b905092915050565b6000602082019050919050565b6000612f0782612c82565b612f118185612c8d565b935083602082028501612f2385612c9e565b8060005b85811015612f5f5784840389528151612f408582612edb565b9450612f4b83612eef565b925060208a01995050600181019050612f27565b50829750879550505050505092915050565b6000604083016000830151612f896000860182612bbc565b5060208301518482036020860152612fa18282612efc565b9150508091505092915050565b6000604082019050612fc360008301856122a0565b8181036020830152612fd58184612f71565b90509392505050565b7f4e487b7100000000000000000000000000000000000000000000000000000000600052603260045260246000fd5b7f4e487b7100000000000000000000000000000000000000000000000000000000600052601160045260246000fd5b6000613047826122f6565b91507fffffffffffffffffffffffffffffffffffffffffffffffffffffffffffffffff82036130795761307861300d565b5b600182019050919050565b61308d816123f8565b82525050565b600060a0830160008301516130ab6000860182612cae565b5060208301516130be6020860182612bbc565b50604083015184820360408601526130d68282612d72565b915050606083015184820360608601526130f08282612e16565b91505060808301516131056080860182612e4f565b508091505092915050565b600081519050919050565b600082825260208201905092915050565b6000819050602082019050919050565b6060820160008201516131526000850182612bcb565b5060208201516131656040850182612bfa565b50505050565b6000613177838361313c565b60608301905092915050565b6000602082019050919050565b600061319b82613110565b6131a5818561311b565b93506131b08361312c565b8060005b838110156131e15781516131c8888261316b565b97506131d383613183565b9250506001810190506131b4565b5085935050505092915050565b600082825260208201905092915050565b600061320a82613110565b61321481856131ee565b935061321f8361312c565b8060005b83811015613250578151613237888261316b565b975061324283613183565b925050600181019050613223565b5085935050505092915050565b60008160020b9050919050565b6132738161325d565b82525050565b6000608083016000830151848203600086015261329682826131ff565b915050602083015184820360208601526132b082826131ff565b91505060408301516132c56040860182612e4f565b5060608301516132d8606086018261326a565b508091505092915050565b600060c0820190506132f86000830189613084565b818103602083015261330a8188613093565b90506133196040830187613084565b61332660608301866122a0565b81810360808301526133388185613190565b905081810360a083015261334c8184613279565b9050979650505050505050565b600082825260208201905092915050565b7f5265656e7472616e637947756172643a207265656e7472616e742063616c6c00600082015250565b60006133a0601f83613359565b91506133ab8261336a565b602082019050919050565b600060208201905081810360008301526133cf81613393565b9050919050565b6000819050919050565b6133e9816133d6565b82525050565b600061340a613405613400846123f8565b612aae565b6122f6565b9050919050565b61341a816133ef565b82525050565b600060408201905061343560008301856133e0565b6134426020830184613411565b9392505050565b600081519050613458816122ca565b92915050565b600060208284031215613474576134736121f9565b5b600061348284828501613449565b91505092915050565b60008151905061349a81612300565b92915050565b6000815190506134af816126dc565b92915050565b6000604082840312156134cb576134ca61232c565b5b6134d560406123a2565b905060006134e58482850161348b565b60008301525060206134f9848285016134a0565b60208301525092915050565b60006040828403121561351b5761351a6121f9565b5b6000613529848285016134b5565b91505092915050565b60008151905061354181612496565b92915050565b60006040828403121561355d5761355c61232c565b5b61356760406123a2565b9050600061357784828501613532565b600083015250602061358b84828501613449565b60208301525092915050565b600681106135a457600080fd5b50565b6000815190506135b681613597565b92915050565b600060a082840312156135d2576135d161232c565b5b6135dc60806123a2565b905060006135ec84828501613547565b6000830152506040613600848285016135a7565b60208301525060606136148482850161348b565b6040830152506080613628848285016134a0565b60608301525092915050565b600060a0828403121561364a576136496121f9565b5b6000613658848285016135bc565b91505092915050565b7f737465702061646472657373206e6f7420696e207768697465206c6973740000600082015250565b6000613697601e83613359565b91506136a282613661565b602082019050919050565b600060208201905081810360008301526136c68161368a565b9050919050565b7f6162736f6c75746520616d6f756e74206578636565647320776f726b666c6f7760008201527f2061737365742062616c616e6365000000000000000000000000000000000000602082015250565b6000613729602e83613359565b9150613734826136cd565b604082019050919050565b600060208201905081810360008301526137588161371c565b9050919050565b600082825260208201905092915050565b600061377b82612dd0565b613785818561375f565b9350613795818560208601612dec565b61379e81612331565b840191505092915050565b600060408201905081810360008301526137c38185613190565b905081810360208301526137d78184613770565b90509392505050565b600081905092915050565b60006137f682612dd0565b61380081856137e0565b9350613810818560208601612dec565b80840191505092915050565b600061382882846137eb565b915081905092915050565b600081519050919050565b600061384982613833565b6138538185613359565b9350613863818560208601612dec565b61386c81612331565b840191505092915050565b60006020820190508181036000830152613891818461383e565b905092915050565b600067ffffffffffffffff8211156138b4576138b3612342565b5b602082029050602081019050919050565b6000606082840312156138db576138da61232c565b5b6138e560406123a2565b905060006138f584828501613547565b60008301525060406139098482850161348b565b60208301525092915050565b600061392861392384613899565b6123a2565b9050808382526020820190506060840283018581111561394b5761394a6123f3565b5b835b81811015613974578061396088826138c5565b84526020840193505060608101905061394d565b5050509392505050565b600082601f830112613993576139926123c2565b5b81516139a3848260208601613915565b91505092915050565b6139b58161325d565b81146139c057600080fd5b50565b6000815190506139d2816139ac565b92915050565b6000608082840312156139ee576139ed61232c565b5b6139f860806123a2565b9050600082015167ffffffffffffffff811115613a1857613a176123bd565b5b613a248482850161397e565b600083015250602082015167ffffffffffffffff811115613a4857613a476123bd565b5b613a548482850161397e565b6020830152506040613a68848285016134a0565b6040830152506060613a7c848285016139c3565b60608301525092915050565b600060208284031215613a9e57613a9d6121f9565b5b600082015167ffffffffffffffff811115613abc57613abb6121fe565b5b613ac8848285016139d8565b91505092915050565b6000613adc826122f6565b9150613ae7836122f6565b9250828203905081811115613aff57613afe61300d565b5b92915050565b604082016000820151613b1b6000850182612bad565b506020820151613b2e6020850182612bbc565b50505050565b600060a082019050613b496000830187613b05565b613b566040830186612b36565b613b636060830185612b36565b613b706080830184612b36565b95945050505050565b7f636f6d7075746564206e61746976652062616c616e636520697320677265617460008201527f6572207468616e2061637475616c2062616c616e636500000000000000000000602082015250565b6000613bd5603683613359565b9150613be082613b79565b604082019050919050565b60006020820190508181036000830152613c0481613bc8565b9050919050565b50565b6000613c1b6000836137e0565b9150613c2682613c0b565b600082019050919050565b6000613c3c82613c0e565b9150819050919050565b600060208284031215613c5c57613c5b6121f9565b5b6000613c6a8482850161348b565b91505092915050565b7f756e6b6e6f776e206173736574207479706520696e20617373657442616c616e60008201527f6365730000000000000000000000000000000000000000000000000000000000602082015250565b6000613ccf602383613359565b9150613cda82613c73565b604082019050919050565b60006020820190508181036000830152613cfe81613cc2565b9050919050565b600060ff82169050919050565b6000613d1d82613d05565b915060ff8203613d3057613d2f61300d565b5b600182019050919050565b7f746f6f206d616e7920746f6b656e2062616c616e636573000000000000000000600082015250565b6000613d71601783613359565b9150613d7c82613d3b565b602082019050919050565b60006020820190508181036000830152613da081613d64565b9050919050565b600081905092915050565b6000613dbd82613833565b613dc78185613da7565b9350613dd7818560208601612dec565b80840191505092915050565b7f206173736574547970653d000000000000000000000000000000000000000000815250565b7f206173736574416464726573733d000000000000000000000000000000000000815250565b7f2076616c75657320000000000000000000000000000000000000000000000000815250565b7f2c20000000000000000000000000000000000000000000000000000000000000815250565b6000613e878288613db2565b9150613e9282613de3565b600b82019150613ea28287613db2565b9150613ead82613e09565b600e82019150613ebd8286613db2565b9150613ec882613e2f565b600882019150613ed88285613db2565b9150613ee382613e55565b600282019150613ef38284613db2565b91508190509695505050505050565b6000613f0d826123f8565b915061ffff8203613f2157613f2061300d565b5b600182019050919050565b6000604082019050613f4160008301856133e0565b613f4e60208301846122a0565b9392505050565b600081519050613f648161246a565b92915050565b600060208284031215613f8057613f7f6121f9565b5b6000613f8e84828501613f55565b91505092915050565b7f70657263656e74206d757374206265206265747765656e203020616e6420313060008201527f3030303000000000000000000000000000000000000000000000000000000000602082015250565b6000613ff3602483613359565b9150613ffe82613f97565b604082019050919050565b6000602082019050818103600083015261402281613fe6565b9050919050565b6000614034826122f6565b915061403f836122f6565b925082820261404d816122f6565b915082820484148315176140645761406361300d565b5b5092915050565b7f4e487b7100000000000000000000000000000000000000000000000000000000600052601260045260246000fd5b60006140a5826122f6565b91506140b0836122f6565b9250826140c0576140bf61406b565b5b828204905092915050565b7f696e646578206f7574206f6620626f756e6473207768696c652061636365737360008201527f696e672061737365742062616c616e6365730000000000000000000000000000602082015250565b6000614127603283613359565b9150614132826140cb565b604082019050919050565b600060208201905081810360008301526141568161411a565b9050919050565b600060408201905061417260008301856122a0565b61417f6020830184612b36565b9392505050565b600061419182613d05565b915061419c83613d05565b9250828203905060ff8111156141b5576141b461300d565b5b92915050565b60006141c682613d05565b9150600082036141d9576141d861300d565b5b600182039050919050565b7f7374657057686974654c69737400000000000000000000000000000000000000600082015250565b600061421a600d83613da7565b9150614225826141e4565b600d82019050919050565b60008160f01b9050919050565b600061424882614230565b9050919050565b61426061425b826123f8565b61423d565b82525050565b60006142718261420d565b915061427d828461424f565b60028201915081905092915050565b7f5361666545524332303a204552433230206f7065726174696f6e20646964206e60008201527f6f74207375636365656400000000000000000000000000000000000000000000602082015250565b60006142e8602a83613359565b91506142f38261428c565b604082019050919050565b60006020820190508181036000830152614317816142db565b9050919050565b6000614329826122f6565b9150614334836122f6565b925082820190508082111561434c5761434b61300d565b5b92915050565b600061435d826122f6565b9150600082036143705761436f61300d565b5b600182039050919050565b7f537472696e67733a20686578206c656e67746820696e73756666696369656e74600082015250565b60006143b1602083613359565b91506143bc8261437b565b602082019050919050565b600060208201905081810360008301526143e0816143a4565b9050919050565b7f416464726573733a20696e73756666696369656e742062616c616e636520666f60008201527f722063616c6c0000000000000000000000000000000000000000000000000000602082015250565b6000614443602683613359565b915061444e826143e7565b604082019050919050565b6000602082019050818103600083015261447281614436565b9050919050565b7f416464726573733a2063616c6c20746f206e6f6e2d636f6e7472616374000000600082015250565b60006144af601d83613359565b91506144ba82614479565b602082019050919050565b600060208201905081810360008301526144de816144a2565b905091905056fea264697066735822122001c5acb5eb1993402967a4892e270ccc91dbef26b41f7d939d0ac64480f6b09e64736f6c63430008120033",
  "devdoc": {
    "events": {
      "RemainingAsset((uint8,address),uint256,uint256,uint256)": {
        "params": {
          "asset": "The asset.",
          "feeAmount": "The portion of the total amount that FMP will keep as a fee.",
          "totalAmount": "The total amount of the asset.",
          "userAmount": "The portion of the total amount that is sent to the user."
        }
      },
      "WorkflowContinuation(uint256,address,((uint8,address),uint256))": {
        "params": {
          "nonce": "The nonce provided by the caller on the source chain, used to correlate the source chain workflow segment with this segment.",
          "startingAsset": "The asset that was transferred from the source chain to this chain"
        }
      },
      "WorkflowExecution(address,(address,(uint16,address,(bool,bool,(uint8,address),uint256)[],bytes,int16)[]))": {
        "params": {
          "userAddress": "The user for which this workflow is executing.",
          "workflow": "The workflow."
        }
      },
      "WorkflowStepExecution(uint16,(uint16,address,(bool,bool,(uint8,address),uint256)[],bytes,int16),uint16,address,((uint8,address),uint256)[],(((uint8,address),uint256)[],((uint8,address),uint256)[],int16,int24))": {
        "params": {
          "inputAssetAmounts": "The input assets, with the absolute amount of each asset.",
          "result": "The result returned form the step invocation.",
          "step": "The step configuration.",
          "stepAddress": "The address of the step used for this invocation.",
          "stepIndex": "The index of the step in the Workflow.steps array.",
          "stepTypeId": "The logical id of the step (also repeated in the step param but duplicated here for convenience)."
        }
      }
    },
    "kind": "dev",
    "methods": {
      "executeWorkflow((address,(uint16,address,(bool,bool,(uint8,address),uint256)[],bytes,int16)[]))": {
        "params": {
          "workflow": "The workflow to execute."
        }
      }
    },
    "version": 1
  },
  "userdoc": {
    "events": {
      "RemainingAsset((uint8,address),uint256,uint256,uint256)": {
        "notice": "This event is emitted after the workflow has completed, once for each asset ramining with a non-zero amount."
      },
      "WorkflowContinuation(uint256,address,((uint8,address),uint256))": {
        "notice": "This event is emitted when this is a continuation of a workflow from another chain"
      },
      "WorkflowExecution(address,(address,(uint16,address,(bool,bool,(uint8,address),uint256)[],bytes,int16)[]))": {
        "notice": "This event is emitted when a workflow execution begins."
      },
      "WorkflowStepExecution(uint16,(uint16,address,(bool,bool,(uint8,address),uint256)[],bytes,int16),uint16,address,((uint8,address),uint256)[],(((uint8,address),uint256)[],((uint8,address),uint256)[],int16,int24))": {
        "notice": "This event is emitted when immediately after invoking a step in the workflow."
      }
    },
    "kind": "user",
    "methods": {
      "continueWorkflow(address,uint256,(address,(uint16,address,(bool,bool,(uint8,address),uint256)[],bytes,int16)[]),((uint8,address),uint256))": {
        "notice": "Continue a workflow that started on a different chain.This is not callable by 3rd parties, only approved bridge integrations call this method."
      },
      "executeWorkflow((address,(uint16,address,(bool,bool,(uint8,address),uint256)[],bytes,int16)[]))": {
        "notice": "Initiate the execution of a workflow."
      }
    },
    "version": 1
  },
  "storageLayout": {
    "storage": [
      {
        "astId": 7411,
        "contract": "contracts/WorkflowRunner.sol:WorkflowRunner",
        "label": "owner",
        "offset": 0,
        "slot": "0",
        "type": "t_address_payable"
      },
      {
        "astId": 6122,
        "contract": "contracts/WorkflowRunner.sol:WorkflowRunner",
        "label": "eternalStorageAddress",
        "offset": 0,
        "slot": "1",
        "type": "t_address"
      },
      {
        "astId": 6124,
        "contract": "contracts/WorkflowRunner.sol:WorkflowRunner",
        "label": "upstreamAddress",
        "offset": 0,
        "slot": "2",
        "type": "t_address"
      },
      {
        "astId": 6126,
        "contract": "contracts/WorkflowRunner.sol:WorkflowRunner",
        "label": "isUserProxy",
        "offset": 20,
        "slot": "2",
        "type": "t_bool"
      },
      {
        "astId": 172,
        "contract": "contracts/WorkflowRunner.sol:WorkflowRunner",
        "label": "_status",
        "offset": 0,
        "slot": "3",
        "type": "t_uint256"
      }
    ],
    "types": {
      "t_address": {
        "encoding": "inplace",
        "label": "address",
        "numberOfBytes": "20"
      },
      "t_address_payable": {
        "encoding": "inplace",
        "label": "address payable",
        "numberOfBytes": "20"
      },
      "t_bool": {
        "encoding": "inplace",
        "label": "bool",
        "numberOfBytes": "1"
      },
      "t_uint256": {
        "encoding": "inplace",
        "label": "uint256",
        "numberOfBytes": "32"
      }
    }
  }
}