{
  "address": "0x96E44B704cB059d08fd9bd53621e99263E5A2cc3",
  "abi": [
    {
      "inputs": [
        {
          "internalType": "address",
          "name": "_routerAddress",
          "type": "address"
        },
        {
          "internalType": "address",
          "name": "_wethAddress",
          "type": "address"
        }
      ],
      "stateMutability": "nonpayable",
      "type": "constructor"
    },
    {
      "anonymous": false,
      "inputs": [
        {
          "indexed": false,
          "internalType": "address",
          "name": "from",
          "type": "address"
        },
        {
          "indexed": false,
          "internalType": "address",
          "name": "to",
          "type": "address"
        },
        {
          "indexed": false,
          "internalType": "uint256",
          "name": "amount",
          "type": "uint256"
        },
        {
          "indexed": false,
          "internalType": "bool",
          "name": "useNative",
          "type": "bool"
        }
      ],
      "name": "UniswapExactInActionEvent",
      "type": "event"
    },
    {
      "stateMutability": "payable",
      "type": "fallback"
    },
    {
      "inputs": [
        {
          "components": [
            {
              "components": [
                {
                  "internalType": "enum AssetType",
                  "name": "assetType",
                  "type": "uint8"
                },
                {
                  "internalType": "address",
                  "name": "assetAddress",
                  "type": "address"
                }
              ],
              "internalType": "struct Asset",
              "name": "asset",
              "type": "tuple"
            },
            {
              "internalType": "uint256",
              "name": "amount",
              "type": "uint256"
            }
          ],
          "internalType": "struct AssetAmount[]",
          "name": "inputAssetAmounts",
          "type": "tuple[]"
        },
        {
          "internalType": "bytes",
          "name": "argData",
          "type": "bytes"
        }
      ],
      "name": "execute",
      "outputs": [
        {
          "components": [
            {
              "components": [
                {
                  "components": [
                    {
                      "internalType": "enum AssetType",
                      "name": "assetType",
                      "type": "uint8"
                    },
                    {
                      "internalType": "address",
                      "name": "assetAddress",
                      "type": "address"
                    }
                  ],
                  "internalType": "struct Asset",
                  "name": "asset",
                  "type": "tuple"
                },
                {
                  "internalType": "uint256",
                  "name": "amount",
                  "type": "uint256"
                }
              ],
              "internalType": "struct AssetAmount[]",
              "name": "inputAssetAmounts",
              "type": "tuple[]"
            },
            {
              "components": [
                {
                  "components": [
                    {
                      "internalType": "enum AssetType",
                      "name": "assetType",
                      "type": "uint8"
                    },
                    {
                      "internalType": "address",
                      "name": "assetAddress",
                      "type": "address"
                    }
                  ],
                  "internalType": "struct Asset",
                  "name": "asset",
                  "type": "tuple"
                },
                {
                  "internalType": "uint256",
                  "name": "amount",
                  "type": "uint256"
                }
              ],
              "internalType": "struct AssetAmount[]",
              "name": "outputAssetAmounts",
              "type": "tuple[]"
            },
            {
              "components": [
                {
                  "components": [
                    {
                      "internalType": "enum AssetType",
                      "name": "assetType",
                      "type": "uint8"
                    },
                    {
                      "internalType": "address",
                      "name": "assetAddress",
                      "type": "address"
                    }
                  ],
                  "internalType": "struct Asset",
                  "name": "asset",
                  "type": "tuple"
                },
                {
                  "internalType": "uint256",
                  "name": "amount",
                  "type": "uint256"
                }
              ],
              "internalType": "struct AssetAmount[]",
              "name": "outputAssetAmountsToCaller",
              "type": "tuple[]"
            },
            {
              "internalType": "int16",
              "name": "nextStepIndex",
              "type": "int16"
            },
            {
              "internalType": "int24",
              "name": "fee",
              "type": "int24"
            }
          ],
          "internalType": "struct WorkflowStepResult",
          "name": "",
          "type": "tuple"
        }
      ],
      "stateMutability": "payable",
      "type": "function"
    },
    {
      "inputs": [],
      "name": "routerAddress",
      "outputs": [
        {
          "internalType": "address",
          "name": "",
          "type": "address"
        }
      ],
      "stateMutability": "view",
      "type": "function"
    },
    {
      "inputs": [],
      "name": "wethAddress",
      "outputs": [
        {
          "internalType": "address",
          "name": "",
          "type": "address"
        }
      ],
      "stateMutability": "view",
      "type": "function"
    },
    {
      "stateMutability": "payable",
      "type": "receive"
    }
  ],
  "transactionHash": "0x6517d88917a6179a968d15972370df4ea8c6fcda53c4c24468aa0a95653f1166",
  "args": [
    "0x68b3465833fb72A70ecDF485E0e4C7bD8665Fc45",
    "0x82aF49447D8a07e3bd95BD0d56f35241523fBab1"
  ],
  "numDeployments": 5,
  "solcInputHash": "6fa10d5c0a9f548fae3fff637d02ef9b",
  "bytecode": "0x60c06040523480156200001157600080fd5b5060405162002ff738038062002ff7833981810160405281019062000037919062000115565b81818173ffffffffffffffffffffffffffffffffffffffff1660808173ffffffffffffffffffffffffffffffffffffffff16815250508073ffffffffffffffffffffffffffffffffffffffff1660a08173ffffffffffffffffffffffffffffffffffffffff1681525050505050506200015c565b600080fd5b600073ffffffffffffffffffffffffffffffffffffffff82169050919050565b6000620000dd82620000b0565b9050919050565b620000ef81620000d0565b8114620000fb57600080fd5b50565b6000815190506200010f81620000e4565b92915050565b600080604083850312156200012f576200012e620000ab565b5b60006200013f85828601620000fe565b92505060206200015285828601620000fe565b9150509250929050565b60805160a051612e54620001a36000396000818160ed01528181610361015281816104e2015261082401526000818160c9015281816103fd01526117800152612e546000f3fe6080604052600436106100385760003560e01c80633268cc56146100415780634f0e0ef31461006c5780637bb26ca7146100975761003f565b3661003f57005b005b34801561004d57600080fd5b506100566100c7565b6040516100639190611d52565b60405180910390f35b34801561007857600080fd5b506100816100eb565b60405161008e9190611d52565b60405180910390f35b6100b160048036038101906100ac9190611e3c565b61010f565b6040516100be9190612125565b60405180910390f35b7f000000000000000000000000000000000000000000000000000000000000000081565b7f000000000000000000000000000000000000000000000000000000000000000081565b610117611b40565b6001858590501461015d576040517f08c379a0000000000000000000000000000000000000000000000000000000008152600401610154906121ca565b60405180910390fd5b610165611b75565b838381019061017491906125d9565b816000018190525061018d81600001516040015161093d565b81602001906fffffffffffffffffffffffffffffffff191690816fffffffffffffffffffffffffffffffff1916815250508060000151600001516020015173ffffffffffffffffffffffffffffffffffffffff16868660008181106101f5576101f4612622565b5b90506060020160000160200160208101906102109190612651565b73ffffffffffffffffffffffffffffffffffffffff16148015610290575080600001516000015160000151600281111561024d5761024c611ee9565b5b8686600081811061026157610260612622565b5b905060600201600001600001602081019061027c919061267e565b600281111561028e5761028d611ee9565b5b145b156103325761032660405180604001604052808360000151600001518152602001888860008181106102c5576102c4612622565b5b90506060020160400135815250610318888860008181106102e9576102e8612622565b5b9050606002018036038101906102ff9190612727565b61030a6001806109ea565b610b9590919063ffffffff16565b610be190919063ffffffff16565b60600151915050610935565b6103858686600081811061034957610348612622565b5b90506060020180360381019061035f9190612727565b7f0000000000000000000000000000000000000000000000000000000000000000610c2d565b816040019073ffffffffffffffffffffffffffffffffffffffff16908173ffffffffffffffffffffffffffffffffffffffff16815250508060400151816060019073ffffffffffffffffffffffffffffffffffffffff16908173ffffffffffffffffffffffffffffffffffffffff16815250506104647f0000000000000000000000000000000000000000000000000000000000000000878760008181106104305761042f612622565b5b90506060020160400135836060015173ffffffffffffffffffffffffffffffffffffffff16610d509092919063ffffffff16565b80600001516000015160200151816080019073ffffffffffffffffffffffffffffffffffffffff16908173ffffffffffffffffffffffffffffffffffffffff1681525050600060028111156104bc576104bb611ee9565b5b8160000151600001516000015160028111156104db576104da611ee9565b5b03610539577f0000000000000000000000000000000000000000000000000000000000000000816080019073ffffffffffffffffffffffffffffffffffffffff16908173ffffffffffffffffffffffffffffffffffffffff16815250505b6000816080015190508073ffffffffffffffffffffffffffffffffffffffff166370a08231306040518263ffffffff1660e01b815260040161057b9190611d52565b602060405180830381865afa158015610598573d6000803e3d6000fd5b505050506040513d601f19601f820116820180604052508101906105bc9190612769565b82610100018181525050868660008181106105da576105d9612622565b5b905060600201604001358260c00181815250506106138787600081811061060457610603612622565b5b90506060020160400135610dd6565b8260e001906fffffffffffffffffffffffffffffffff191690816fffffffffffffffffffffffffffffffff1916815250506106648260c0015183600001516020015184604001518560800151610e53565b8073ffffffffffffffffffffffffffffffffffffffff166370a08231306040518263ffffffff1660e01b815260040161069d9190611d52565b602060405180830381865afa1580156106ba573d6000803e3d6000fd5b505050506040513d601f19601f820116820180604052508101906106de9190612769565b826101200181815250508161010001518261012001516106fe91906127c5565b8261014001818152505061075161073983602001518460e001516fffffffffffffffffffffffffffffffff1916610f4390919063ffffffff16565b6fffffffffffffffffffffffffffffffff19166113ce565b8261016001818152505081610160015182610140015110156107ea57600061077d8361014001516114cc565b61078b8461016001516114cc565b60405160200161079c929190612931565b6040516020818303038152906040529050806040517f08c379a00000000000000000000000000000000000000000000000000000000081526004016107e191906129a4565b60405180910390fd5b600060028111156107fe576107fd611ee9565b5b82600001516000015160000151600281111561081d5761081c611ee9565b5b036108b3577f000000000000000000000000000000000000000000000000000000000000000073ffffffffffffffffffffffffffffffffffffffff16632e1a7d4d8361014001516040518263ffffffff1660e01b815260040161088091906129d5565b600060405180830381600087803b15801561089a57600080fd5b505af11580156108ae573d6000803e3d6000fd5b505050505b61092c6040518060400160405280846000015160000151815260200184610140015181525061091e898960008181106108ef576108ee612622565b5b9050606002018036038101906109059190612727565b6109106001806109ea565b610b9590919063ffffffff16565b610be190919063ffffffff16565b60600151925050505b949350505050565b600080820361095257600060801b90506109e5565b60008083136109645782600003610966565b825b905060006109738261159a565b9050607081101561098c578060700382901b91506109a0565b607081111561099f576070810382901c91505b5b607081613f7f01901b6dffffffffffffffffffffffffffff831617915060008412156109dc576f80000000000000000000000000000000821791505b8160801b925050505b919050565b6109f2611c5a565b60008367ffffffffffffffff811115610a0e57610a0d612200565b5b604051908082528060200260200182016040528015610a4757816020015b610a34611c88565b815260200190600190039081610a2c5790505b50905060008367ffffffffffffffff811115610a6657610a65612200565b5b604051908082528060200260200182016040528015610a9f57816020015b610a8c611c88565b815260200190600190039081610a845790505b50905060008067ffffffffffffffff811115610abe57610abd612200565b5b604051908082528060200260200182016040528015610af757816020015b610ae4611c88565b815260200190600190039081610adc5790505b50905060405180608001604052806000815260200160008152602001600081526020016040518060a001604052808681526020018581526020018481526020017ffffffffffffffffffffffffffffffffffffffffffffffffffffffffffffffffe60010b81526020017fffffffffffffffffffffffffffffffffffffffffffffffffffffffffffffffff60020b815250815250935050505092915050565b610b9d611c5a565b81836060015160000151846000018051809190610bb9906129f0565b81525081518110610bcd57610bcc612622565b5b602002602001018190525082905092915050565b610be9611c5a565b81836060015160200151846020018051809190610c05906129f0565b81525081518110610c1957610c18612622565b5b602002602001018190525082905092915050565b6000806002811115610c4257610c41611ee9565b5b8360000151600001516002811115610c5d57610c5c611ee9565b5b03610d3e57600073ffffffffffffffffffffffffffffffffffffffff168273ffffffffffffffffffffffffffffffffffffffff1603610cd1576040517f08c379a0000000000000000000000000000000000000000000000000000000008152600401610cc890612a84565b60405180910390fd5b8173ffffffffffffffffffffffffffffffffffffffff1663d0e30db084602001516040518263ffffffff1660e01b81526004016000604051808303818588803b158015610d1d57600080fd5b505af1158015610d31573d6000803e3d6000fd5b5050505050819050610d4a565b82600001516020015190505b92915050565b610dd18363095ea7b360e01b8484604051602401610d6f929190612aa4565b604051602081830303815290604052907bffffffffffffffffffffffffffffffffffffffffffffffffffffffff19166020820180517bffffffffffffffffffffffffffffffffffffffffffffffffffffffff838183161783525050505061167b565b505050565b6000808203610deb57600060801b9050610e4e565b60008290506000610dfb8261159a565b90506070811015610e14578060700382901b9150610e28565b6070811115610e27576070810382901c91505b5b607081613fff01901b6dffffffffffffffffffffffffffff83161791508160801b925050505b919050565b600082905060008290506000610e6887610dd6565b905060005b8651811015610f39576000878281518110610e8b57610e8a612622565b5b602002602001015190506000610ea4826020015161093d565b9050600060018a51610eb691906127c5565b841015610f0557610efe610ee686846fffffffffffffffffffffffffffffffff1916610f4390919063ffffffff16565b6fffffffffffffffffffffffffffffffff19166113ce565b9050610f09565b8a90505b610f17836000015182611742565b808b610f2391906127c5565b9a5050505080610f32906129f0565b9050610e6d565b5050505050505050565b600080617fff60708560801c6fffffffffffffffffffffffffffffffff16901c166fffffffffffffffffffffffffffffffff1690506000617fff60708560801c6fffffffffffffffffffffffffffffffff16901c166fffffffffffffffffffffffffffffffff169050617fff82036110d557617fff810361106457836fffffffffffffffffffffffffffffffff1916856fffffffffffffffffffffffffffffffff19160361100c576f8000000000000000000000000000000060801b84168518925050506113c8565b6f8000000000000000000000000000000060801b8486186fffffffffffffffffffffffffffffffff19160361104757838517925050506113c8565b6f7fff800000000000000000000000000060801b925050506113c8565b600060801b6f7fffffffffffffffffffffffffffffff60801b85166fffffffffffffffffffffffffffffffff1916036110b4576f7fff800000000000000000000000000060801b925050506113c8565b6f8000000000000000000000000000000060801b84168518925050506113c8565b617fff810361114f57600060801b6f7fffffffffffffffffffffffffffffff60801b86166fffffffffffffffffffffffffffffffff19160361112e576f7fff800000000000000000000000000060801b925050506113c8565b6f8000000000000000000000000000000060801b85168418925050506113c8565b60006dffffffffffffffffffffffffffff8660801c166fffffffffffffffffffffffffffffffff1690506000830361118a576001925061119f565b6e010000000000000000000000000000811790505b60006dffffffffffffffffffffffffffff8660801c166fffffffffffffffffffffffffffffffff169050600083036111da57600192506111ef565b6e010000000000000000000000000000811790505b80820291506000820361125b57600060801b6f8000000000000000000000000000000060801b878918166fffffffffffffffffffffffffffffffff19161161123b57600060801b611250565b6f8000000000000000000000000000000060801b5b9450505050506113c8565b828401935060007c02000000000000000000000000000000000000000000000000000000008310156112c2577c01000000000000000000000000000000000000000000000000000000008310156112ba576112b58361159a565b6112bd565b60e05b6112c5565b60e15b905061407081860110156112e0576000945060009250611388565b6140e081860110156113245761407085101561130557846140700383901c925061131b565b61407085111561131a57614070850383901b92505b5b60009450611387565b61c0dd818601111561133e57617fff945060009250611386565b6070811115611355576070810383901c9250611369565b6070811015611368578060700383901b92505b5b6dffffffffffffffffffffffffffff831692506140df8186010394505b5b5b82607086901b6f8000000000000000000000000000000060801b898b181660801c6fffffffffffffffffffffffffffffffff16171760801b955050505050505b92915050565b600080617fff60708460801c6fffffffffffffffffffffffffffffffff16901c166fffffffffffffffffffffffffffffffff169050613fff8110156114175760009150506114c7565b6f800000000000000000000000000000008360801c6fffffffffffffffffffffffffffffffff161061144857600080fd5b6140fe81111561145757600080fd5b60006e0100000000000000000000000000006dffffffffffffffffffffffffffff8560801c6fffffffffffffffffffffffffffffffff161617905061406f8210156114ab578161406f0381901c90506114c1565b61406f8211156114c05761406f820381901b90505b5b80925050505b919050565b6060600060016114db84611820565b01905060008167ffffffffffffffff8111156114fa576114f9612200565b5b6040519080825280601f01601f19166020018201604052801561152c5781602001600182028036833780820191505090505b509050600082602001820190505b60011561158f578080600190039150507f3031323334353637383961626364656600000000000000000000000000000000600a86061a8153600a858161158357611582612acd565b5b0494506000850361153a575b819350505050919050565b60008082116115a857600080fd5b600070010000000000000000000000000000000083106115d057608083901c92506080810190505b6801000000000000000083106115ee57604083901c92506040810190505b640100000000831061160857602083901c92506020810190505b62010000831061162057601083901c92506010810190505b610100831061163757600883901c92506008810190505b6010831061164d57600483901c92506004810190505b6004831061166357600283901c92506002810190505b60028310611672576001810190505b80915050919050565b60006116dd826040518060400160405280602081526020017f5361666545524332303a206c6f772d6c6576656c2063616c6c206661696c65648152508573ffffffffffffffffffffffffffffffffffffffff166119739092919063ffffffff16565b905060008151111561173d57808060200190518101906116fd9190612b34565b61173c576040517f08c379a000000000000000000000000000000000000000000000000000000000815260040161173390612bd3565b60405180910390fd5b5b505050565b600060405180608001604052808481526020013073ffffffffffffffffffffffffffffffffffffffff168152602001838152602001600081525090507f000000000000000000000000000000000000000000000000000000000000000073ffffffffffffffffffffffffffffffffffffffff1663b858183f826040518263ffffffff1660e01b81526004016117d79190612cab565b6020604051808303816000875af11580156117f6573d6000803e3d6000fd5b505050506040513d601f19601f8201168201806040525081019061181a9190612769565b50505050565b600080600090507a184f03e93ff9f4daa797ed6e38ed64bf6a1f010000000000000000831061187e577a184f03e93ff9f4daa797ed6e38ed64bf6a1f010000000000000000838161187457611873612acd565b5b0492506040810190505b6d04ee2d6d415b85acef810000000083106118bb576d04ee2d6d415b85acef810000000083816118b1576118b0612acd565b5b0492506020810190505b662386f26fc1000083106118ea57662386f26fc1000083816118e0576118df612acd565b5b0492506010810190505b6305f5e1008310611913576305f5e100838161190957611908612acd565b5b0492506008810190505b612710831061193857612710838161192e5761192d612acd565b5b0492506004810190505b6064831061195b576064838161195157611950612acd565b5b0492506002810190505b600a831061196a576001810190505b80915050919050565b6060611982848460008561198b565b90509392505050565b6060824710156119d0576040517f08c379a00000000000000000000000000000000000000000000000000000000081526004016119c790612d3f565b60405180910390fd5b6000808673ffffffffffffffffffffffffffffffffffffffff1685876040516119f99190612d9b565b60006040518083038185875af1925050503d8060008114611a36576040519150601f19603f3d011682016040523d82523d6000602084013e611a3b565b606091505b5091509150611a4c87838387611a58565b92505050949350505050565b60608315611aba576000835103611ab257611a7285611acd565b611ab1576040517f08c379a0000000000000000000000000000000000000000000000000000000008152600401611aa890612dfe565b60405180910390fd5b5b829050611ac5565b611ac48383611af0565b5b949350505050565b6000808273ffffffffffffffffffffffffffffffffffffffff163b119050919050565b600082511115611b035781518083602001fd5b806040517f08c379a0000000000000000000000000000000000000000000000000000000008152600401611b3791906129a4565b60405180910390fd5b6040518060a00160405280606081526020016060815260200160608152602001600060010b8152602001600060020b81525090565b604051806101800160405280611b89611ca8565b815260200160006fffffffffffffffffffffffffffffffff19168152602001600073ffffffffffffffffffffffffffffffffffffffff168152602001600073ffffffffffffffffffffffffffffffffffffffff168152602001600073ffffffffffffffffffffffffffffffffffffffff168152602001600073ffffffffffffffffffffffffffffffffffffffff1681526020016000815260200160006fffffffffffffffffffffffffffffffff19168152602001600081526020016000815260200160008152602001600081525090565b6040518060800160405280600081526020016000815260200160008152602001611c82611b40565b81525090565b6040518060400160405280611c9b611ccf565b8152602001600081525090565b6040518060600160405280611cbb611ccf565b815260200160608152602001600081525090565b604051806040016040528060006002811115611cee57611ced611ee9565b5b8152602001600073ffffffffffffffffffffffffffffffffffffffff1681525090565b600073ffffffffffffffffffffffffffffffffffffffff82169050919050565b6000611d3c82611d11565b9050919050565b611d4c81611d31565b82525050565b6000602082019050611d676000830184611d43565b92915050565b6000604051905090565b600080fd5b600080fd5b600080fd5b600080fd5b600080fd5b60008083601f840112611da657611da5611d81565b5b8235905067ffffffffffffffff811115611dc357611dc2611d86565b5b602083019150836060820283011115611ddf57611dde611d8b565b5b9250929050565b60008083601f840112611dfc57611dfb611d81565b5b8235905067ffffffffffffffff811115611e1957611e18611d86565b5b602083019150836001820283011115611e3557611e34611d8b565b5b9250929050565b60008060008060408587031215611e5657611e55611d77565b5b600085013567ffffffffffffffff811115611e7457611e73611d7c565b5b611e8087828801611d90565b9450945050602085013567ffffffffffffffff811115611ea357611ea2611d7c565b5b611eaf87828801611de6565b925092505092959194509250565b600081519050919050565b600082825260208201905092915050565b6000819050602082019050919050565b7f4e487b7100000000000000000000000000000000000000000000000000000000600052602160045260246000fd5b60038110611f2957611f28611ee9565b5b50565b6000819050611f3a82611f18565b919050565b6000611f4a82611f2c565b9050919050565b611f5a81611f3f565b82525050565b611f6981611d31565b82525050565b604082016000820151611f856000850182611f51565b506020820151611f986020850182611f60565b50505050565b6000819050919050565b611fb181611f9e565b82525050565b606082016000820151611fcd6000850182611f6f565b506020820151611fe06040850182611fa8565b50505050565b6000611ff28383611fb7565b60608301905092915050565b6000602082019050919050565b600061201682611ebd565b6120208185611ec8565b935061202b83611ed9565b8060005b8381101561205c5781516120438882611fe6565b975061204e83611ffe565b92505060018101905061202f565b5085935050505092915050565b60008160010b9050919050565b61207f81612069565b82525050565b60008160020b9050919050565b61209b81612085565b82525050565b600060a08301600083015184820360008601526120be828261200b565b915050602083015184820360208601526120d8828261200b565b915050604083015184820360408601526120f2828261200b565b91505060608301516121076060860182612076565b50608083015161211a6080860182612092565b508091505092915050565b6000602082019050818103600083015261213f81846120a1565b905092915050565b600082825260208201905092915050565b7f7468657265206d7573742062652065786163746c79203120696e70757420617360008201527f7365740000000000000000000000000000000000000000000000000000000000602082015250565b60006121b4602383612147565b91506121bf82612158565b604082019050919050565b600060208201905081810360008301526121e3816121a7565b9050919050565b600080fd5b6000601f19601f8301169050919050565b7f4e487b7100000000000000000000000000000000000000000000000000000000600052604160045260246000fd5b612238826121ef565b810181811067ffffffffffffffff8211171561225757612256612200565b5b80604052505050565b600061226a611d6d565b9050612276828261222f565b919050565b600080fd5b6003811061228d57600080fd5b50565b60008135905061229f81612280565b92915050565b6122ae81611d31565b81146122b957600080fd5b50565b6000813590506122cb816122a5565b92915050565b6000604082840312156122e7576122e66121ea565b5b6122f16040612260565b9050600061230184828501612290565b6000830152506020612315848285016122bc565b60208301525092915050565b600067ffffffffffffffff82111561233c5761233b612200565b5b602082029050602081019050919050565b600080fd5b600067ffffffffffffffff82111561236d5761236c612200565b5b612376826121ef565b9050602081019050919050565b82818337600083830152505050565b60006123a56123a084612352565b612260565b9050828152602081018484840111156123c1576123c061234d565b5b6123cc848285612383565b509392505050565b600082601f8301126123e9576123e8611d81565b5b81356123f9848260208601612392565b91505092915050565b6000819050919050565b61241581612402565b811461242057600080fd5b50565b6000813590506124328161240c565b92915050565b60006040828403121561244e5761244d6121ea565b5b6124586040612260565b9050600082013567ffffffffffffffff8111156124785761247761227b565b5b612484848285016123d4565b600083015250602061249884828501612423565b60208301525092915050565b60006124b76124b284612321565b612260565b905080838252602082019050602084028301858111156124da576124d9611d8b565b5b835b8181101561252157803567ffffffffffffffff8111156124ff576124fe611d81565b5b80860161250c8982612438565b855260208501945050506020810190506124dc565b5050509392505050565b600082601f8301126125405761253f611d81565b5b81356125508482602086016124a4565b91505092915050565b60006080828403121561256f5761256e6121ea565b5b6125796060612260565b90506000612589848285016122d1565b600083015250604082013567ffffffffffffffff8111156125ad576125ac61227b565b5b6125b98482850161252b565b60208301525060606125cd84828501612423565b60408301525092915050565b6000602082840312156125ef576125ee611d77565b5b600082013567ffffffffffffffff81111561260d5761260c611d7c565b5b61261984828501612559565b91505092915050565b7f4e487b7100000000000000000000000000000000000000000000000000000000600052603260045260246000fd5b60006020828403121561266757612666611d77565b5b6000612675848285016122bc565b91505092915050565b60006020828403121561269457612693611d77565b5b60006126a284828501612290565b91505092915050565b6126b481611f9e565b81146126bf57600080fd5b50565b6000813590506126d1816126ab565b92915050565b6000606082840312156126ed576126ec6121ea565b5b6126f76040612260565b90506000612707848285016122d1565b600083015250604061271b848285016126c2565b60208301525092915050565b60006060828403121561273d5761273c611d77565b5b600061274b848285016126d7565b91505092915050565b600081519050612763816126ab565b92915050565b60006020828403121561277f5761277e611d77565b5b600061278d84828501612754565b91505092915050565b7f4e487b7100000000000000000000000000000000000000000000000000000000600052601160045260246000fd5b60006127d082611f9e565b91506127db83611f9e565b9250828210156127ee576127ed612796565b5b828203905092915050565b600081905092915050565b7f616d6f756e7420726563656976656420697320776f727365207468616e20776f60008201527f72737420746f6c657261626c6520616d6f756e743a2000000000000000000000602082015250565b60006128606036836127f9565b915061286b82612804565b603682019050919050565b600081519050919050565b60005b8381101561289f578082015181840152602081019050612884565b838111156128ae576000848401525b50505050565b60006128bf82612876565b6128c981856127f9565b93506128d9818560208601612881565b80840191505092915050565b7f203c200000000000000000000000000000000000000000000000000000000000600082015250565b600061291b6003836127f9565b9150612926826128e5565b600382019050919050565b600061293c82612853565b915061294882856128b4565b91506129538261290e565b915061295f82846128b4565b91508190509392505050565b600061297682612876565b6129808185612147565b9350612990818560208601612881565b612999816121ef565b840191505092915050565b600060208201905081810360008301526129be818461296b565b905092915050565b6129cf81611f9e565b82525050565b60006020820190506129ea60008301846129c6565b92915050565b60006129fb82611f9e565b91507fffffffffffffffffffffffffffffffffffffffffffffffffffffffffffffffff8203612a2d57612a2c612796565b5b600182019050919050565b7f77657468206e6f7420737570706f72746564206f6e207468697320636861696e600082015250565b6000612a6e602083612147565b9150612a7982612a38565b602082019050919050565b60006020820190508181036000830152612a9d81612a61565b9050919050565b6000604082019050612ab96000830185611d43565b612ac660208301846129c6565b9392505050565b7f4e487b7100000000000000000000000000000000000000000000000000000000600052601260045260246000fd5b60008115159050919050565b612b1181612afc565b8114612b1c57600080fd5b50565b600081519050612b2e81612b08565b92915050565b600060208284031215612b4a57612b49611d77565b5b6000612b5884828501612b1f565b91505092915050565b7f5361666545524332303a204552433230206f7065726174696f6e20646964206e60008201527f6f74207375636365656400000000000000000000000000000000000000000000602082015250565b6000612bbd602a83612147565b9150612bc882612b61565b604082019050919050565b60006020820190508181036000830152612bec81612bb0565b9050919050565b600081519050919050565b600082825260208201905092915050565b6000612c1a82612bf3565b612c248185612bfe565b9350612c34818560208601612881565b612c3d816121ef565b840191505092915050565b60006080830160008301518482036000860152612c658282612c0f565b9150506020830151612c7a6020860182611f60565b506040830151612c8d6040860182611fa8565b506060830151612ca06060860182611fa8565b508091505092915050565b60006020820190508181036000830152612cc58184612c48565b905092915050565b7f416464726573733a20696e73756666696369656e742062616c616e636520666f60008201527f722063616c6c0000000000000000000000000000000000000000000000000000602082015250565b6000612d29602683612147565b9150612d3482612ccd565b604082019050919050565b60006020820190508181036000830152612d5881612d1c565b9050919050565b600081905092915050565b6000612d7582612bf3565b612d7f8185612d5f565b9350612d8f818560208601612881565b80840191505092915050565b6000612da78284612d6a565b915081905092915050565b7f416464726573733a2063616c6c20746f206e6f6e2d636f6e7472616374000000600082015250565b6000612de8601d83612147565b9150612df382612db2565b602082019050919050565b60006020820190508181036000830152612e1781612ddb565b905091905056fea264697066735822122060a54de5aecdb545094f490725947b429db050bc7830117e2b9a125b60f856b864736f6c634300080d0033",
  "devdoc": {
    "kind": "dev",
    "methods": {},
    "version": 1
  },
  "userdoc": {
    "kind": "user",
    "methods": {},
    "version": 1
  },
  "storageLayout": {
    "storage": [],
    "types": null
  }
}