{
  "address": "0x97fd63D049089cd70D9D139ccf9338c81372DE68",
  "abi": [
    {
      "inputs": [
        {
          "internalType": "address payable",
          "name": "_frontDoorAddress",
          "type": "address"
        }
      ],
      "stateMutability": "nonpayable",
      "type": "constructor"
    },
    {
      "anonymous": false,
      "inputs": [
        {
          "indexed": false,
          "internalType": "address",
          "name": "sender",
          "type": "address"
        },
        {
          "indexed": false,
          "internalType": "address",
          "name": "newOwner",
          "type": "address"
        }
      ],
      "name": "LogNewOwner",
      "type": "event"
    },
    {
      "anonymous": false,
      "inputs": [
        {
          "indexed": false,
          "internalType": "uint16",
          "name": "stepTypeId",
          "type": "uint16"
        },
        {
          "indexed": false,
          "internalType": "address",
          "name": "stepAddress",
          "type": "address"
        }
      ],
      "name": "StepAddressSetEvent",
      "type": "event"
    },
    {
      "inputs": [
        {
          "internalType": "address",
          "name": "runnerAddress",
          "type": "address"
        }
      ],
      "name": "addRunnerAddress",
      "outputs": [],
      "stateMutability": "nonpayable",
      "type": "function"
    },
    {
      "inputs": [],
      "name": "eternalStorageAddress",
      "outputs": [
        {
          "internalType": "address",
          "name": "",
          "type": "address"
        }
      ],
      "stateMutability": "view",
      "type": "function"
    },
    {
      "inputs": [],
      "name": "frontDoorAddress",
      "outputs": [
        {
          "internalType": "address",
          "name": "",
          "type": "address"
        }
      ],
      "stateMutability": "view",
      "type": "function"
    },
    {
      "inputs": [],
      "name": "getRunnerAddresses",
      "outputs": [
        {
          "internalType": "address[]",
          "name": "",
          "type": "address[]"
        }
      ],
      "stateMutability": "view",
      "type": "function"
    },
    {
      "inputs": [
        {
          "internalType": "uint16",
          "name": "stepTypeId",
          "type": "uint16"
        }
      ],
      "name": "getStepAddress",
      "outputs": [
        {
          "internalType": "address",
          "name": "",
          "type": "address"
        }
      ],
      "stateMutability": "view",
      "type": "function"
    },
    {
      "inputs": [],
      "name": "getStepCount",
      "outputs": [
        {
          "internalType": "uint256",
          "name": "",
          "type": "uint256"
        }
      ],
      "stateMutability": "view",
      "type": "function"
    },
    {
      "inputs": [
        {
          "internalType": "uint256",
          "name": "index",
          "type": "uint256"
        }
      ],
      "name": "getStepInfoAt",
      "outputs": [
        {
          "components": [
            {
              "internalType": "uint16",
              "name": "stepTypeId",
              "type": "uint16"
            },
            {
              "internalType": "uint24",
              "name": "fee",
              "type": "uint24"
            },
            {
              "internalType": "address",
              "name": "latest",
              "type": "address"
            },
            {
              "internalType": "address[]",
              "name": "whitelist",
              "type": "address[]"
            },
            {
              "internalType": "address[]",
              "name": "blacklist",
              "type": "address[]"
            }
          ],
          "internalType": "struct StepInfo",
          "name": "",
          "type": "tuple"
        }
      ],
      "stateMutability": "view",
      "type": "function"
    },
    {
      "inputs": [],
      "name": "isUserProxy",
      "outputs": [
        {
          "internalType": "bool",
          "name": "",
          "type": "bool"
        }
      ],
      "stateMutability": "view",
      "type": "function"
    },
    {
      "inputs": [],
      "name": "owner",
      "outputs": [
        {
          "internalType": "address payable",
          "name": "",
          "type": "address"
        }
      ],
      "stateMutability": "view",
      "type": "function"
    },
    {
      "inputs": [
        {
          "internalType": "address",
          "name": "runnerAddress",
          "type": "address"
        }
      ],
      "name": "removeRunnerAddress",
      "outputs": [],
      "stateMutability": "nonpayable",
      "type": "function"
    },
    {
      "inputs": [
        {
          "internalType": "uint16",
          "name": "stepTypeId",
          "type": "uint16"
        },
        {
          "internalType": "address",
          "name": "stepAddress",
          "type": "address"
        }
      ],
      "name": "removeStepAddress",
      "outputs": [],
      "stateMutability": "nonpayable",
      "type": "function"
    },
    {
      "inputs": [
        {
          "internalType": "address payable",
          "name": "newOwner",
          "type": "address"
        }
      ],
      "name": "setOwner",
      "outputs": [],
      "stateMutability": "nonpayable",
      "type": "function"
    },
    {
      "inputs": [
        {
          "internalType": "uint16",
          "name": "stepTypeId",
          "type": "uint16"
        },
        {
          "internalType": "address",
          "name": "stepAddress",
          "type": "address"
        }
      ],
      "name": "setStepAddress",
      "outputs": [],
      "stateMutability": "nonpayable",
      "type": "function"
    },
    {
      "inputs": [],
      "name": "upstreamAddress",
      "outputs": [
        {
          "internalType": "address",
          "name": "",
          "type": "address"
        }
      ],
      "stateMutability": "view",
      "type": "function"
    }
  ],
  "transactionHash": "0x6c6ab581e4afc0711cf6385b4b03a400a2ca634c4326e58f45178ee8e988f1df",
  "args": [
    "0x5E5713a0d915701F464DEbb66015adD62B2e6AE9"
  ],
  "numDeployments": 1,
  "solcInputHash": "4710dbe2a1adc9f73e381c3cbf561516",
  "bytecode": "0x60a06040523480156200001157600080fd5b506040516200234e3803806200234e833981810160405281019062000037919062000234565b338173ffffffffffffffffffffffffffffffffffffffff1663384782fe6040518163ffffffff1660e01b8152600401602060405180830381865afa15801562000084573d6000803e3d6000fd5b505050506040513d601f19601f82011682018060405250810190620000aa9190620002ab565b60008083806000806101000a81548173ffffffffffffffffffffffffffffffffffffffff021916908373ffffffffffffffffffffffffffffffffffffffff1602179055505082600160006101000a81548173ffffffffffffffffffffffffffffffffffffffff021916908373ffffffffffffffffffffffffffffffffffffffff16021790555081600260006101000a81548173ffffffffffffffffffffffffffffffffffffffff021916908373ffffffffffffffffffffffffffffffffffffffff16021790555080600260146101000a81548160ff021916908315150217905550505050508073ffffffffffffffffffffffffffffffffffffffff1660808173ffffffffffffffffffffffffffffffffffffffff168152505050620002dd565b600080fd5b600073ffffffffffffffffffffffffffffffffffffffff82169050919050565b6000620001fc82620001cf565b9050919050565b6200020e81620001ef565b81146200021a57600080fd5b50565b6000815190506200022e8162000203565b92915050565b6000602082840312156200024d576200024c620001ca565b5b60006200025d848285016200021d565b91505092915050565b60006200027382620001cf565b9050919050565b620002858162000266565b81146200029157600080fd5b50565b600081519050620002a5816200027a565b92915050565b600060208284031215620002c457620002c3620001ca565b5b6000620002d48482850162000294565b91505092915050565b608051612055620002f9600039600061090501526120556000f3fe608060405234801561001057600080fd5b50600436106100ea5760003560e01c80636fd633511161008c578063910752cd11610066578063910752cd14610227578063c4006c8114610243578063f90339771461025f578063ff05c2a81461028f576100ea565b80636fd63351146101cf5780638a04867b146101ed5780638da5cb5b14610209576100ea565b806332b56aaf116100c857806332b56aaf14610145578063384782fe1461016357806350fd910e14610181578063699a20571461019f576100ea565b8063073728ea146100ef5780630f53b8541461010d57806313af403514610129575b600080fd5b6100f76102ad565b60405161010491906115f8565b60405180910390f35b61012760048036038101906101229190611685565b6104dc565b005b610143600480360381019061013e9190611703565b6107aa565b005b61014d6108b7565b60405161015a919061173f565b60405180910390f35b61016b6108dd565b604051610178919061173f565b60405180910390f35b610189610903565b604051610196919061173f565b60405180910390f35b6101b960048036038101906101b49190611790565b610927565b6040516101c691906118d6565b60405180910390f35b6101d7610dda565b6040516101e49190611907565b60405180910390f35b61020760048036038101906102029190611922565b610ea5565b005b610211610fcd565b60405161021e919061195e565b60405180910390f35b610241600480360381019061023c9190611922565b610ff1565b005b61025d60048036038101906102589190611685565b611104565b005b61027960048036038101906102749190611979565b611364565b604051610286919061173f565b60405180910390f35b610297611399565b6040516102a491906119c1565b60405180910390f35b60606000600160009054906101000a900473ffffffffffffffffffffffffffffffffffffffff16905060008173ffffffffffffffffffffffffffffffffffffffff16639b0d10fd7f32b7d36eef9191cec628a9b46ddda74b702cf693ad48a065f3f9e5fcc4ea08f560001b6040518263ffffffff1660e01b815260040161033491906119f5565b602060405180830381865afa158015610351573d6000803e3d6000fd5b505050506040513d601f19601f820116820180604052508101906103759190611a25565b905060008167ffffffffffffffff81111561039357610392611a52565b5b6040519080825280602002602001820160405280156103c15781602001602082028036833780820191505090505b50905060005b828110156104d25760008473ffffffffffffffffffffffffffffffffffffffff1663619f6cc67f32b7d36eef9191cec628a9b46ddda74b702cf693ad48a065f3f9e5fcc4ea08f560001b846040518363ffffffff1660e01b815260040161042f929190611a81565b6040805180830381865afa15801561044b573d6000803e3d6000fd5b505050506040513d601f19601f8201168201806040525081019061046f9190611abf565b5090508083838151811061048657610485611aff565b5b602002602001019073ffffffffffffffffffffffffffffffffffffffff16908173ffffffffffffffffffffffffffffffffffffffff168152505050806104cb90611b5d565b90506103c7565b5080935050505090565b60008054906101000a900473ffffffffffffffffffffffffffffffffffffffff1673ffffffffffffffffffffffffffffffffffffffff163373ffffffffffffffffffffffffffffffffffffffff161461053457600080fd5b6000600160009054906101000a900473ffffffffffffffffffffffffffffffffffffffff16905060008173ffffffffffffffffffffffffffffffffffffffff1663a2ccb5227fc94d198e6194ea38dbd900920351d7f8e6c6d85b1d3b803fb93c54be008e11fd60001b866040518363ffffffff1660e01b81526004016105bb929190611be0565b602060405180830381865afa1580156105d8573d6000803e3d6000fd5b505050506040513d601f19601f820116820180604052508101906105fc9190611c09565b90508073ffffffffffffffffffffffffffffffffffffffff168373ffffffffffffffffffffffffffffffffffffffff160361066c576040517f08c379a000000000000000000000000000000000000000000000000000000000815260040161066390611cb9565b60405180910390fd5b8173ffffffffffffffffffffffffffffffffffffffff1663ba4014fd610691866113ac565b8560006040518463ffffffff1660e01b81526004016106b293929190611d14565b6020604051808303816000875af11580156106d1573d6000803e3d6000fd5b505050506040513d601f19601f820116820180604052508101906106f59190611d77565b508173ffffffffffffffffffffffffffffffffffffffff16638142576361071b866113dc565b856040518363ffffffff1660e01b8152600401610739929190611da4565b600060405180830381600087803b15801561075357600080fd5b505af1158015610767573d6000803e3d6000fd5b505050507f5c250b46b4ab7901af16e469d68737ca13fe0eac242b19f323f7d3608565be7f848460405161079c929190611ddc565b60405180910390a150505050565b60008054906101000a900473ffffffffffffffffffffffffffffffffffffffff1673ffffffffffffffffffffffffffffffffffffffff163373ffffffffffffffffffffffffffffffffffffffff161461080257600080fd5b600073ffffffffffffffffffffffffffffffffffffffff168173ffffffffffffffffffffffffffffffffffffffff160361083b57600080fd5b806000806101000a81548173ffffffffffffffffffffffffffffffffffffffff021916908373ffffffffffffffffffffffffffffffffffffffff1602179055507f1f8d7d25344642d919d55999e4664aa452a5f424bc0936ceb9c2b300db7dcbd933826040516108ac929190611e5a565b60405180910390a150565b600260009054906101000a900473ffffffffffffffffffffffffffffffffffffffff1681565b600160009054906101000a900473ffffffffffffffffffffffffffffffffffffffff1681565b7f000000000000000000000000000000000000000000000000000000000000000081565b61092f6114ba565b6000600160009054906101000a900473ffffffffffffffffffffffffffffffffffffffff1690506000808273ffffffffffffffffffffffffffffffffffffffff16634fcee0497fc94d198e6194ea38dbd900920351d7f8e6c6d85b1d3b803fb93c54be008e11fd60001b876040518363ffffffff1660e01b81526004016109b7929190611a81565b6040805180830381865afa1580156109d3573d6000803e3d6000fd5b505050506040513d601f19601f820116820180604052508101906109f79190611e83565b915091506000610a06836113dc565b905060008473ffffffffffffffffffffffffffffffffffffffff16639b0d10fd836040518263ffffffff1660e01b8152600401610a4391906119f5565b602060405180830381865afa158015610a60573d6000803e3d6000fd5b505050506040513d601f19601f82011682018060405250810190610a849190611a25565b905060008167ffffffffffffffff811115610aa257610aa1611a52565b5b604051908082528060200260200182016040528015610ad05781602001602082028036833780820191505090505b50905060005b82811015610bbe5760008773ffffffffffffffffffffffffffffffffffffffff1663619f6cc686846040518363ffffffff1660e01b8152600401610b1b929190611a81565b6040805180830381865afa158015610b37573d6000803e3d6000fd5b505050506040513d601f19601f82011682018060405250810190610b5b9190611abf565b50905080838381518110610b7257610b71611aff565b5b602002602001019073ffffffffffffffffffffffffffffffffffffffff16908173ffffffffffffffffffffffffffffffffffffffff16815250505080610bb790611b5d565b9050610ad6565b506000610bca866113ac565b905060008773ffffffffffffffffffffffffffffffffffffffff16639b0d10fd836040518263ffffffff1660e01b8152600401610c0791906119f5565b602060405180830381865afa158015610c24573d6000803e3d6000fd5b505050506040513d601f19601f82011682018060405250810190610c489190611a25565b905060008167ffffffffffffffff811115610c6657610c65611a52565b5b604051908082528060200260200182016040528015610c945781602001602082028036833780820191505090505b50905060005b82811015610d825760008a73ffffffffffffffffffffffffffffffffffffffff1663619f6cc686846040518363ffffffff1660e01b8152600401610cdf929190611a81565b6040805180830381865afa158015610cfb573d6000803e3d6000fd5b505050506040513d601f19601f82011682018060405250810190610d1f9190611abf565b50905080838381518110610d3657610d35611aff565b5b602002602001019073ffffffffffffffffffffffffffffffffffffffff16908173ffffffffffffffffffffffffffffffffffffffff16815250505080610d7b90611b5d565b9050610c9a565b506040518060a001604052808961ffff168152602001600062ffffff1681526020018873ffffffffffffffffffffffffffffffffffffffff168152602001858152602001828152509950505050505050505050919050565b600080600160009054906101000a900473ffffffffffffffffffffffffffffffffffffffff1690508073ffffffffffffffffffffffffffffffffffffffff1663832860727fc94d198e6194ea38dbd900920351d7f8e6c6d85b1d3b803fb93c54be008e11fd60001b6040518263ffffffff1660e01b8152600401610e5e91906119f5565b602060405180830381865afa158015610e7b573d6000803e3d6000fd5b505050506040513d601f19601f82011682018060405250810190610e9f9190611a25565b91505090565b60008054906101000a900473ffffffffffffffffffffffffffffffffffffffff1673ffffffffffffffffffffffffffffffffffffffff163373ffffffffffffffffffffffffffffffffffffffff1614610efd57600080fd5b6000600160009054906101000a900473ffffffffffffffffffffffffffffffffffffffff1690508073ffffffffffffffffffffffffffffffffffffffff1663ba4014fd7f32b7d36eef9191cec628a9b46ddda74b702cf693ad48a065f3f9e5fcc4ea08f560001b8460006040518463ffffffff1660e01b8152600401610f8593929190611d14565b6020604051808303816000875af1158015610fa4573d6000803e3d6000fd5b505050506040513d601f19601f82011682018060405250810190610fc89190611d77565b505050565b60008054906101000a900473ffffffffffffffffffffffffffffffffffffffff1681565b60008054906101000a900473ffffffffffffffffffffffffffffffffffffffff1673ffffffffffffffffffffffffffffffffffffffff163373ffffffffffffffffffffffffffffffffffffffff161461104957600080fd5b6000600160009054906101000a900473ffffffffffffffffffffffffffffffffffffffff1690508073ffffffffffffffffffffffffffffffffffffffff1663814257637f32b7d36eef9191cec628a9b46ddda74b702cf693ad48a065f3f9e5fcc4ea08f560001b846040518363ffffffff1660e01b81526004016110ce929190611da4565b600060405180830381600087803b1580156110e857600080fd5b505af11580156110fc573d6000803e3d6000fd5b505050505050565b60008054906101000a900473ffffffffffffffffffffffffffffffffffffffff1673ffffffffffffffffffffffffffffffffffffffff163373ffffffffffffffffffffffffffffffffffffffff161461115c57600080fd5b6000600160009054906101000a900473ffffffffffffffffffffffffffffffffffffffff1690508073ffffffffffffffffffffffffffffffffffffffff1663107f89ad7fc94d198e6194ea38dbd900920351d7f8e6c6d85b1d3b803fb93c54be008e11fd60001b85856040518463ffffffff1660e01b81526004016111e393929190611ec3565b6020604051808303816000875af1158015611202573d6000803e3d6000fd5b505050506040513d601f19601f820116820180604052508101906112269190611d77565b508073ffffffffffffffffffffffffffffffffffffffff1663ba4014fd61124c856113dc565b8460006040518463ffffffff1660e01b815260040161126d93929190611d14565b6020604051808303816000875af115801561128c573d6000803e3d6000fd5b505050506040513d601f19601f820116820180604052508101906112b09190611d77565b508073ffffffffffffffffffffffffffffffffffffffff1663814257636112d6856113ac565b846040518363ffffffff1660e01b81526004016112f4929190611da4565b600060405180830381600087803b15801561130e57600080fd5b505af1158015611322573d6000803e3d6000fd5b505050507f5c250b46b4ab7901af16e469d68737ca13fe0eac242b19f323f7d3608565be7f8383604051611357929190611ddc565b60405180910390a1505050565b6000611392600160009054906101000a900473ffffffffffffffffffffffffffffffffffffffff168361140c565b9050919050565b600260149054906101000a900460ff1681565b6000816040516020016113bf9190611f87565b604051602081830303815290604052805190602001209050919050565b6000816040516020016113ef9190611ff9565b604051602081830303815290604052805190602001209050919050565b6000808390508073ffffffffffffffffffffffffffffffffffffffff1663a2ccb5227fc94d198e6194ea38dbd900920351d7f8e6c6d85b1d3b803fb93c54be008e11fd60001b856040518363ffffffff1660e01b8152600401611470929190611be0565b602060405180830381865afa15801561148d573d6000803e3d6000fd5b505050506040513d601f19601f820116820180604052508101906114b19190611c09565b91505092915050565b6040518060a00160405280600061ffff168152602001600062ffffff168152602001600073ffffffffffffffffffffffffffffffffffffffff16815260200160608152602001606081525090565b600081519050919050565b600082825260208201905092915050565b6000819050602082019050919050565b600073ffffffffffffffffffffffffffffffffffffffff82169050919050565b600061155f82611534565b9050919050565b61156f81611554565b82525050565b60006115818383611566565b60208301905092915050565b6000602082019050919050565b60006115a582611508565b6115af8185611513565b93506115ba83611524565b8060005b838110156115eb5781516115d28882611575565b97506115dd8361158d565b9250506001810190506115be565b5085935050505092915050565b60006020820190508181036000830152611612818461159a565b905092915050565b600080fd5b600061ffff82169050919050565b6116368161161f565b811461164157600080fd5b50565b6000813590506116538161162d565b92915050565b61166281611554565b811461166d57600080fd5b50565b60008135905061167f81611659565b92915050565b6000806040838503121561169c5761169b61161a565b5b60006116aa85828601611644565b92505060206116bb85828601611670565b9150509250929050565b60006116d082611534565b9050919050565b6116e0816116c5565b81146116eb57600080fd5b50565b6000813590506116fd816116d7565b92915050565b6000602082840312156117195761171861161a565b5b6000611727848285016116ee565b91505092915050565b61173981611554565b82525050565b60006020820190506117546000830184611730565b92915050565b6000819050919050565b61176d8161175a565b811461177857600080fd5b50565b60008135905061178a81611764565b92915050565b6000602082840312156117a6576117a561161a565b5b60006117b48482850161177b565b91505092915050565b6117c68161161f565b82525050565b600062ffffff82169050919050565b6117e4816117cc565b82525050565b600082825260208201905092915050565b600061180682611508565b61181081856117ea565b935061181b83611524565b8060005b8381101561184c5781516118338882611575565b975061183e8361158d565b92505060018101905061181f565b5085935050505092915050565b600060a08301600083015161187160008601826117bd565b50602083015161188460208601826117db565b5060408301516118976040860182611566565b50606083015184820360608601526118af82826117fb565b915050608083015184820360808601526118c982826117fb565b9150508091505092915050565b600060208201905081810360008301526118f08184611859565b905092915050565b6119018161175a565b82525050565b600060208201905061191c60008301846118f8565b92915050565b6000602082840312156119385761193761161a565b5b600061194684828501611670565b91505092915050565b611958816116c5565b82525050565b6000602082019050611973600083018461194f565b92915050565b60006020828403121561198f5761198e61161a565b5b600061199d84828501611644565b91505092915050565b60008115159050919050565b6119bb816119a6565b82525050565b60006020820190506119d660008301846119b2565b92915050565b6000819050919050565b6119ef816119dc565b82525050565b6000602082019050611a0a60008301846119e6565b92915050565b600081519050611a1f81611764565b92915050565b600060208284031215611a3b57611a3a61161a565b5b6000611a4984828501611a10565b91505092915050565b7f4e487b7100000000000000000000000000000000000000000000000000000000600052604160045260246000fd5b6000604082019050611a9660008301856119e6565b611aa360208301846118f8565b9392505050565b600081519050611ab981611659565b92915050565b60008060408385031215611ad657611ad561161a565b5b6000611ae485828601611aaa565b9250506020611af585828601611a10565b9150509250929050565b7f4e487b7100000000000000000000000000000000000000000000000000000000600052603260045260246000fd5b7f4e487b7100000000000000000000000000000000000000000000000000000000600052601160045260246000fd5b6000611b688261175a565b91507fffffffffffffffffffffffffffffffffffffffffffffffffffffffffffffffff8203611b9a57611b99611b2e565b5b600182019050919050565b6000819050919050565b6000611bca611bc5611bc08461161f565b611ba5565b61175a565b9050919050565b611bda81611baf565b82525050565b6000604082019050611bf560008301856119e6565b611c026020830184611bd1565b9392505050565b600060208284031215611c1f57611c1e61161a565b5b6000611c2d84828501611aaa565b91505092915050565b600082825260208201905092915050565b7f63616e6e6f742072656d6f7665206c617465737420737465702061646472657360008201527f7300000000000000000000000000000000000000000000000000000000000000602082015250565b6000611ca3602183611c36565b9150611cae82611c47565b604082019050919050565b60006020820190508181036000830152611cd281611c96565b9050919050565b6000819050919050565b6000611cfe611cf9611cf484611cd9565b611ba5565b61175a565b9050919050565b611d0e81611ce3565b82525050565b6000606082019050611d2960008301866119e6565b611d366020830185611730565b611d436040830184611d05565b949350505050565b611d54816119a6565b8114611d5f57600080fd5b50565b600081519050611d7181611d4b565b92915050565b600060208284031215611d8d57611d8c61161a565b5b6000611d9b84828501611d62565b91505092915050565b6000604082019050611db960008301856119e6565b611dc66020830184611730565b9392505050565b611dd68161161f565b82525050565b6000604082019050611df16000830185611dcd565b611dfe6020830184611730565b9392505050565b6000611e20611e1b611e1684611534565b611ba5565b611534565b9050919050565b6000611e3282611e05565b9050919050565b6000611e4482611e27565b9050919050565b611e5481611e39565b82525050565b6000604082019050611e6f6000830185611730565b611e7c6020830184611e4b565b9392505050565b60008060408385031215611e9a57611e9961161a565b5b6000611ea885828601611a10565b9250506020611eb985828601611aaa565b9150509250929050565b6000606082019050611ed860008301866119e6565b611ee56020830185611bd1565b611ef26040830184611730565b949350505050565b600081905092915050565b7f73746570426c61636b4c69737400000000000000000000000000000000000000600082015250565b6000611f3b600d83611efa565b9150611f4682611f05565b600d82019050919050565b60008160f01b9050919050565b6000611f6982611f51565b9050919050565b611f81611f7c8261161f565b611f5e565b82525050565b6000611f9282611f2e565b9150611f9e8284611f70565b60028201915081905092915050565b7f7374657057686974654c69737400000000000000000000000000000000000000600082015250565b6000611fe3600d83611efa565b9150611fee82611fad565b600d82019050919050565b600061200482611fd6565b91506120108284611f70565b6002820191508190509291505056fea264697066735822122024809b8f5a8d399b573c95b774a3836ef4937bcb74f30826f0b96038200bb3cb64736f6c63430008120033",
  "devdoc": {
    "kind": "dev",
    "methods": {},
    "version": 1
  },
  "userdoc": {
    "kind": "user",
    "methods": {},
    "version": 1
  },
  "storageLayout": {
    "storage": [
      {
        "astId": 7587,
        "contract": "contracts/ConfigManager.sol:ConfigManager",
        "label": "owner",
        "offset": 0,
        "slot": "0",
        "type": "t_address_payable"
      },
      {
        "astId": 6291,
        "contract": "contracts/ConfigManager.sol:ConfigManager",
        "label": "eternalStorageAddress",
        "offset": 0,
        "slot": "1",
        "type": "t_address"
      },
      {
        "astId": 6293,
        "contract": "contracts/ConfigManager.sol:ConfigManager",
        "label": "upstreamAddress",
        "offset": 0,
        "slot": "2",
        "type": "t_address"
      },
      {
        "astId": 6295,
        "contract": "contracts/ConfigManager.sol:ConfigManager",
        "label": "isUserProxy",
        "offset": 20,
        "slot": "2",
        "type": "t_bool"
      }
    ],
    "types": {
      "t_address": {
        "encoding": "inplace",
        "label": "address",
        "numberOfBytes": "20"
      },
      "t_address_payable": {
        "encoding": "inplace",
        "label": "address payable",
        "numberOfBytes": "20"
      },
      "t_bool": {
        "encoding": "inplace",
        "label": "bool",
        "numberOfBytes": "1"
      }
    }
  }
}