{
  "address": "0x6f2E42BB4176e9A7352a8bF8886255Be9F3D2d13",
  "abi": [
    {
      "inputs": [
        {
          "internalType": "address",
          "name": "_triCryptoAddress",
          "type": "address"
        }
      ],
      "stateMutability": "nonpayable",
      "type": "constructor"
    },
    {
      "inputs": [
        {
          "components": [
            {
              "components": [
                {
                  "internalType": "enum AssetType",
                  "name": "assetType",
                  "type": "uint8"
                },
                {
                  "internalType": "address",
                  "name": "assetAddress",
                  "type": "address"
                }
              ],
              "internalType": "struct Asset",
              "name": "asset",
              "type": "tuple"
            },
            {
              "internalType": "uint256",
              "name": "amount",
              "type": "uint256"
            }
          ],
          "internalType": "struct AssetAmount[]",
          "name": "inputAssetAmounts",
          "type": "tuple[]"
        },
        {
          "components": [
            {
              "internalType": "enum AssetType",
              "name": "assetType",
              "type": "uint8"
            },
            {
              "internalType": "address",
              "name": "assetAddress",
              "type": "address"
            }
          ],
          "internalType": "struct Asset[]",
          "name": "",
          "type": "tuple[]"
        },
        {
          "internalType": "bytes",
          "name": "",
          "type": "bytes"
        }
      ],
      "name": "execute",
      "outputs": [
        {
          "components": [
            {
              "components": [
                {
                  "components": [
                    {
                      "internalType": "enum AssetType",
                      "name": "assetType",
                      "type": "uint8"
                    },
                    {
                      "internalType": "address",
                      "name": "assetAddress",
                      "type": "address"
                    }
                  ],
                  "internalType": "struct Asset",
                  "name": "asset",
                  "type": "tuple"
                },
                {
                  "internalType": "uint256",
                  "name": "amount",
                  "type": "uint256"
                }
              ],
              "internalType": "struct AssetAmount[]",
              "name": "outputAssetAmounts",
              "type": "tuple[]"
            },
            {
              "internalType": "int16",
              "name": "nextStepIndex",
              "type": "int16"
            }
          ],
          "internalType": "struct WorkflowStepResult",
          "name": "",
          "type": "tuple"
        }
      ],
      "stateMutability": "payable",
      "type": "function"
    },
    {
      "inputs": [],
      "name": "triCryptoAddress",
      "outputs": [
        {
          "internalType": "address",
          "name": "",
          "type": "address"
        }
      ],
      "stateMutability": "view",
      "type": "function"
    }
  ],
  "transactionHash": "0x4fca9174ce5a8363dfde38dcfb4a1bca08fbab45b7d85be5fea5f97631358f93",
  "args": [
    "0xd51a44d3fae010294c616388b506acda1bfaae46"
  ],
  "numDeployments": 1,
  "solcInputHash": "c36f01cc572dab71710d5f25cf760322",
  "bytecode": "0x60a060405234801561001057600080fd5b50604051610877380380610877833981810160405281019061003291906100cf565b8073ffffffffffffffffffffffffffffffffffffffff1660808173ffffffffffffffffffffffffffffffffffffffff1681525050506100fc565b600080fd5b600073ffffffffffffffffffffffffffffffffffffffff82169050919050565b600061009c82610071565b9050919050565b6100ac81610091565b81146100b757600080fd5b50565b6000815190506100c9816100a3565b92915050565b6000602082840312156100e5576100e461006c565b5b60006100f3848285016100ba565b91505092915050565b608051610761610116600039600060a701526107616000f3fe6080604052600436106100295760003560e01c80632b5350131461002e578063cb8e44d71461005e575b600080fd5b61004860048036038101906100439190610396565b610089565b6040516100559190610681565b60405180910390f35b34801561006a57600080fd5b506100736100a5565b60405161008091906106b2565b60405180910390f35b6100916101fc565b6100996100c9565b90509695505050505050565b7f000000000000000000000000000000000000000000000000000000000000000081565b6100d16101fc565b6100de60008060006100e3565b905090565b6100eb6101fc565b6000604051806040016040528086600281111561010b5761010a610476565b5b81526020018573ffffffffffffffffffffffffffffffffffffffff1681525090506000600167ffffffffffffffff811115610149576101486106cd565b5b60405190808252806020026020018201604052801561018257816020015b61016f610219565b8152602001906001900390816101675790505b509050604051806040016040528083815260200185815250816000815181106101ae576101ad6106fc565b5b602002602001018190525060405180604001604052808281526020017fffffffffffffffffffffffffffffffffffffffffffffffffffffffffffffffff60010b815250925050509392505050565b604051806040016040528060608152602001600060010b81525090565b604051806040016040528061022c610239565b8152602001600081525090565b60405180604001604052806000600281111561025857610257610476565b5b8152602001600073ffffffffffffffffffffffffffffffffffffffff1681525090565b600080fd5b600080fd5b600080fd5b600080fd5b600080fd5b60008083601f8401126102aa576102a9610285565b5b8235905067ffffffffffffffff8111156102c7576102c661028a565b5b6020830191508360608202830111156102e3576102e261028f565b5b9250929050565b60008083601f840112610300576102ff610285565b5b8235905067ffffffffffffffff81111561031d5761031c61028a565b5b6020830191508360408202830111156103395761033861028f565b5b9250929050565b60008083601f84011261035657610355610285565b5b8235905067ffffffffffffffff8111156103735761037261028a565b5b60208301915083600182028301111561038f5761038e61028f565b5b9250929050565b600080600080600080606087890312156103b3576103b261027b565b5b600087013567ffffffffffffffff8111156103d1576103d0610280565b5b6103dd89828a01610294565b9650965050602087013567ffffffffffffffff811115610400576103ff610280565b5b61040c89828a016102ea565b9450945050604087013567ffffffffffffffff81111561042f5761042e610280565b5b61043b89828a01610340565b92509250509295509295509295565b600081519050919050565b600082825260208201905092915050565b6000819050602082019050919050565b7f4e487b7100000000000000000000000000000000000000000000000000000000600052602160045260246000fd5b600381106104b6576104b5610476565b5b50565b60008190506104c7826104a5565b919050565b60006104d7826104b9565b9050919050565b6104e7816104cc565b82525050565b600073ffffffffffffffffffffffffffffffffffffffff82169050919050565b6000610518826104ed565b9050919050565b6105288161050d565b82525050565b60408201600082015161054460008501826104de565b506020820151610557602085018261051f565b50505050565b6000819050919050565b6105708161055d565b82525050565b60608201600082015161058c600085018261052e565b50602082015161059f6040850182610567565b50505050565b60006105b18383610576565b60608301905092915050565b6000602082019050919050565b60006105d58261044a565b6105df8185610455565b93506105ea83610466565b8060005b8381101561061b57815161060288826105a5565b975061060d836105bd565b9250506001810190506105ee565b5085935050505092915050565b60008160010b9050919050565b61063e81610628565b82525050565b6000604083016000830151848203600086015261066182826105ca565b91505060208301516106766020860182610635565b508091505092915050565b6000602082019050818103600083015261069b8184610644565b905092915050565b6106ac8161050d565b82525050565b60006020820190506106c760008301846106a3565b92915050565b7f4e487b7100000000000000000000000000000000000000000000000000000000600052604160045260246000fd5b7f4e487b7100000000000000000000000000000000000000000000000000000000600052603260045260246000fdfea26469706673582212201a280b2da8e28469c9a2a7f1c89a01b99c8d53ecdf79c8d47ed47778c121947564736f6c63430008120033",
  "devdoc": {
    "kind": "dev",
    "methods": {},
    "version": 1
  },
  "userdoc": {
    "kind": "user",
    "methods": {},
    "version": 1
  },
  "storageLayout": {
    "storage": [],
    "types": null
  }
}