{
  "_format": "hh-sol-artifact-1",
  "contractName": "MockStargateRouter",
  "sourceName": "contracts/MockStargateRouter.sol",
  "abi": [
    {
      "inputs": [
        {
          "internalType": "uint256",
          "name": "_poolId",
          "type": "uint256"
        },
        {
          "internalType": "uint256",
          "name": "_amountLD",
          "type": "uint256"
        },
        {
          "internalType": "address",
          "name": "_to",
          "type": "address"
        }
      ],
      "name": "addLiquidity",
      "outputs": [],
      "stateMutability": "nonpayable",
      "type": "function"
    },
    {
      "inputs": [],
      "name": "clear",
      "outputs": [],
      "stateMutability": "nonpayable",
      "type": "function"
    },
    {
      "inputs": [],
      "name": "factory",
      "outputs": [
        {
          "internalType": "address",
          "name": "",
          "type": "address"
        }
      ],
      "stateMutability": "pure",
      "type": "function"
    },
    {
      "inputs": [
        {
          "internalType": "uint256",
          "name": "i",
          "type": "uint256"
        }
      ],
      "name": "getSwapInvocationAt",
      "outputs": [
        {
          "components": [
            {
              "internalType": "uint16",
              "name": "dstChainId",
              "type": "uint16"
            },
            {
              "internalType": "uint256",
              "name": "srcPoolId",
              "type": "uint256"
            },
            {
              "internalType": "uint256",
              "name": "dstPoolId",
              "type": "uint256"
            },
            {
              "internalType": "address payable",
              "name": "refundAddress",
              "type": "address"
            },
            {
              "internalType": "uint256",
              "name": "amount",
              "type": "uint256"
            },
            {
              "internalType": "uint256",
              "name": "minAmountOut",
              "type": "uint256"
            },
            {
              "internalType": "bytes",
              "name": "to",
              "type": "bytes"
            },
            {
              "components": [
                {
                  "internalType": "uint256",
                  "name": "dstGasForCall",
                  "type": "uint256"
                },
                {
                  "internalType": "uint256",
                  "name": "dstNativeAmount",
                  "type": "uint256"
                },
                {
                  "internalType": "bytes",
                  "name": "dstNativeAddr",
                  "type": "bytes"
                }
              ],
              "internalType": "struct IStargateRouter.lzTxObj",
              "name": "lzTxParams",
              "type": "tuple"
            },
            {
              "internalType": "bytes",
              "name": "payload",
              "type": "bytes"
            }
          ],
          "internalType": "struct MockStargateRouter.MockStargateRouterSwapArgs",
          "name": "",
          "type": "tuple"
        }
      ],
      "stateMutability": "view",
      "type": "function"
    },
    {
      "inputs": [],
      "name": "getSwapInvocationCount",
      "outputs": [
        {
          "internalType": "uint256",
          "name": "",
          "type": "uint256"
        }
      ],
      "stateMutability": "view",
      "type": "function"
    },
    {
      "inputs": [],
      "name": "getSwapInvocations",
      "outputs": [
        {
          "components": [
            {
              "internalType": "uint16",
              "name": "dstChainId",
              "type": "uint16"
            },
            {
              "internalType": "uint256",
              "name": "srcPoolId",
              "type": "uint256"
            },
            {
              "internalType": "uint256",
              "name": "dstPoolId",
              "type": "uint256"
            },
            {
              "internalType": "address payable",
              "name": "refundAddress",
              "type": "address"
            },
            {
              "internalType": "uint256",
              "name": "amount",
              "type": "uint256"
            },
            {
              "internalType": "uint256",
              "name": "minAmountOut",
              "type": "uint256"
            },
            {
              "internalType": "bytes",
              "name": "to",
              "type": "bytes"
            },
            {
              "components": [
                {
                  "internalType": "uint256",
                  "name": "dstGasForCall",
                  "type": "uint256"
                },
                {
                  "internalType": "uint256",
                  "name": "dstNativeAmount",
                  "type": "uint256"
                },
                {
                  "internalType": "bytes",
                  "name": "dstNativeAddr",
                  "type": "bytes"
                }
              ],
              "internalType": "struct IStargateRouter.lzTxObj",
              "name": "lzTxParams",
              "type": "tuple"
            },
            {
              "internalType": "bytes",
              "name": "payload",
              "type": "bytes"
            }
          ],
          "internalType": "struct MockStargateRouter.MockStargateRouterSwapArgs[]",
          "name": "",
          "type": "tuple[]"
        }
      ],
      "stateMutability": "view",
      "type": "function"
    },
    {
      "inputs": [
        {
          "internalType": "uint16",
          "name": "",
          "type": "uint16"
        },
        {
          "internalType": "uint256",
          "name": "",
          "type": "uint256"
        },
        {
          "internalType": "address",
          "name": "",
          "type": "address"
        }
      ],
      "name": "instantRedeemLocal",
      "outputs": [
        {
          "internalType": "uint256",
          "name": "",
          "type": "uint256"
        }
      ],
      "stateMutability": "pure",
      "type": "function"
    },
    {
      "inputs": [
        {
          "internalType": "uint16",
          "name": "",
          "type": "uint16"
        },
        {
          "internalType": "uint8",
          "name": "",
          "type": "uint8"
        },
        {
          "internalType": "bytes",
          "name": "",
          "type": "bytes"
        },
        {
          "internalType": "bytes",
          "name": "",
          "type": "bytes"
        },
        {
          "components": [
            {
              "internalType": "uint256",
              "name": "dstGasForCall",
              "type": "uint256"
            },
            {
              "internalType": "uint256",
              "name": "dstNativeAmount",
              "type": "uint256"
            },
            {
              "internalType": "bytes",
              "name": "dstNativeAddr",
              "type": "bytes"
            }
          ],
          "internalType": "struct IStargateRouter.lzTxObj",
          "name": "",
          "type": "tuple"
        }
      ],
      "name": "quoteLayerZeroFee",
      "outputs": [
        {
          "internalType": "uint256",
          "name": "",
          "type": "uint256"
        },
        {
          "internalType": "uint256",
          "name": "",
          "type": "uint256"
        }
      ],
      "stateMutability": "pure",
      "type": "function"
    },
    {
      "inputs": [
        {
          "internalType": "uint16",
          "name": "_dstChainId",
          "type": "uint16"
        },
        {
          "internalType": "uint256",
          "name": "_srcPoolId",
          "type": "uint256"
        },
        {
          "internalType": "uint256",
          "name": "_dstPoolId",
          "type": "uint256"
        },
        {
          "internalType": "address payable",
          "name": "_refundAddress",
          "type": "address"
        },
        {
          "internalType": "uint256",
          "name": "_amountLP",
          "type": "uint256"
        },
        {
          "internalType": "bytes",
          "name": "_to",
          "type": "bytes"
        },
        {
          "components": [
            {
              "internalType": "uint256",
              "name": "dstGasForCall",
              "type": "uint256"
            },
            {
              "internalType": "uint256",
              "name": "dstNativeAmount",
              "type": "uint256"
            },
            {
              "internalType": "bytes",
              "name": "dstNativeAddr",
              "type": "bytes"
            }
          ],
          "internalType": "struct IStargateRouter.lzTxObj",
          "name": "_lzTxParams",
          "type": "tuple"
        }
      ],
      "name": "redeemLocal",
      "outputs": [],
      "stateMutability": "payable",
      "type": "function"
    },
    {
      "inputs": [
        {
          "internalType": "uint16",
          "name": "_dstChainId",
          "type": "uint16"
        },
        {
          "internalType": "uint256",
          "name": "_srcPoolId",
          "type": "uint256"
        },
        {
          "internalType": "uint256",
          "name": "_dstPoolId",
          "type": "uint256"
        },
        {
          "internalType": "address payable",
          "name": "_refundAddress",
          "type": "address"
        },
        {
          "internalType": "uint256",
          "name": "_amountLP",
          "type": "uint256"
        },
        {
          "internalType": "uint256",
          "name": "_minAmountLD",
          "type": "uint256"
        },
        {
          "internalType": "bytes",
          "name": "_to",
          "type": "bytes"
        },
        {
          "components": [
            {
              "internalType": "uint256",
              "name": "dstGasForCall",
              "type": "uint256"
            },
            {
              "internalType": "uint256",
              "name": "dstNativeAmount",
              "type": "uint256"
            },
            {
              "internalType": "bytes",
              "name": "dstNativeAddr",
              "type": "bytes"
            }
          ],
          "internalType": "struct IStargateRouter.lzTxObj",
          "name": "_lzTxParams",
          "type": "tuple"
        }
      ],
      "name": "redeemRemote",
      "outputs": [],
      "stateMutability": "payable",
      "type": "function"
    },
    {
      "inputs": [
        {
          "internalType": "uint16",
          "name": "_dstChainId",
          "type": "uint16"
        },
        {
          "internalType": "uint256",
          "name": "_srcPoolId",
          "type": "uint256"
        },
        {
          "internalType": "uint256",
          "name": "_dstPoolId",
          "type": "uint256"
        },
        {
          "internalType": "address payable",
          "name": "_refundAddress",
          "type": "address"
        }
      ],
      "name": "sendCredits",
      "outputs": [],
      "stateMutability": "payable",
      "type": "function"
    },
    {
      "inputs": [
        {
          "internalType": "uint16",
          "name": "_dstChainId",
          "type": "uint16"
        },
        {
          "internalType": "uint256",
          "name": "_srcPoolId",
          "type": "uint256"
        },
        {
          "internalType": "uint256",
          "name": "_dstPoolId",
          "type": "uint256"
        },
        {
          "internalType": "address payable",
          "name": "_refundAddress",
          "type": "address"
        },
        {
          "internalType": "uint256",
          "name": "_amountLD",
          "type": "uint256"
        },
        {
          "internalType": "uint256",
          "name": "_minAmountLD",
          "type": "uint256"
        },
        {
          "components": [
            {
              "internalType": "uint256",
              "name": "dstGasForCall",
              "type": "uint256"
            },
            {
              "internalType": "uint256",
              "name": "dstNativeAmount",
              "type": "uint256"
            },
            {
              "internalType": "bytes",
              "name": "dstNativeAddr",
              "type": "bytes"
            }
          ],
          "internalType": "struct IStargateRouter.lzTxObj",
          "name": "_lzTxParams",
          "type": "tuple"
        },
        {
          "internalType": "bytes",
          "name": "_to",
          "type": "bytes"
        },
        {
          "internalType": "bytes",
          "name": "_payload",
          "type": "bytes"
        }
      ],
      "name": "swap",
      "outputs": [],
      "stateMutability": "payable",
      "type": "function"
    }
  ],
  "bytecode": "0x608060405234801561001057600080fd5b50611c81806100206000396000f3fe6080604052600436106100a75760003560e01c80638b68be29116100645780638b68be291461019c5780638f2e1d18146101d95780639ba3aa74146101f55780639fbf10fc14610211578063c45a01551461022d578063c4de93a514610258576100a7565b80630a512369146100ac57806317293c87146100ea57806352efea6e14610115578063617904311461012c57806384d0dba31461015757806387b21efc14610173575b600080fd5b3480156100b857600080fd5b506100d360048036038101906100ce9190610f44565b610295565b6040516100e192919061102b565b60405180910390f35b3480156100f657600080fd5b506100ff6102ab565b60405161010c9190611054565b60405180910390f35b34801561012157600080fd5b5061012a6102b7565b005b34801561013857600080fd5b5061014161039a565b60405161014e9190611332565b60405180910390f35b610171600480360381019061016c9190611380565b610676565b005b34801561017f57600080fd5b5061019a600480360381019061019591906114b0565b610681565b005b3480156101a857600080fd5b506101c360048036038101906101be9190611503565b610686565b6040516101d09190611603565b60405180910390f35b6101f360048036038101906101ee9190611625565b61093f565b005b61020f600480360381019061020a9190611703565b610949565b005b61022b6004803603810190610226919061176a565b61094f565b005b34801561023957600080fd5b50610242610b5f565b60405161024f91906118a1565b60405180910390f35b34801561026457600080fd5b5061027f600480360381019061027a91906118bc565b610b64565b60405161028c9190611054565b60405180910390f35b6000806000809150915097509795505050505050565b60008080549050905090565b5b6000808054905011156103985760008054806102d7576102d661190f565b5b60019003818190600052602060002090600b0201600080820160006101000a81549061ffff0219169055600182016000905560028201600090556003820160006101000a81549073ffffffffffffffffffffffffffffffffffffffff0219169055600482016000905560058201600090556006820160006103589190610b6d565b60078201600080820160009055600182016000905560028201600061037d9190610b6d565b5050600a8201600061038f9190610b6d565b505090556102b8565b565b60606000805480602002602001604051908101604052809291908181526020016000905b8282101561066d57838290600052602060002090600b0201604051806101200160405290816000820160009054906101000a900461ffff1661ffff1661ffff16815260200160018201548152602001600282015481526020016003820160009054906101000a900473ffffffffffffffffffffffffffffffffffffffff1673ffffffffffffffffffffffffffffffffffffffff1673ffffffffffffffffffffffffffffffffffffffff16815260200160048201548152602001600582015481526020016006820180546104909061196d565b80601f01602080910402602001604051908101604052809291908181526020018280546104bc9061196d565b80156105095780601f106104de57610100808354040283529160200191610509565b820191906000526020600020905b8154815290600101906020018083116104ec57829003601f168201915b505050505081526020016007820160405180606001604052908160008201548152602001600182015481526020016002820180546105469061196d565b80601f01602080910402602001604051908101604052809291908181526020018280546105729061196d565b80156105bf5780601f10610594576101008083540402835291602001916105bf565b820191906000526020600020905b8154815290600101906020018083116105a257829003601f168201915b5050505050815250508152602001600a820180546105dc9061196d565b80601f01602080910402602001604051908101604052809291908181526020018280546106089061196d565b80156106555780601f1061062a57610100808354040283529160200191610655565b820191906000526020600020905b81548152906001019060200180831161063857829003601f168201915b505050505081525050815260200190600101906103be565b50505050905090565b505050505050505050565b505050565b61068e610bad565b600082815481106106a2576106a161199e565b5b90600052602060002090600b0201604051806101200160405290816000820160009054906101000a900461ffff1661ffff1661ffff16815260200160018201548152602001600282015481526020016003820160009054906101000a900473ffffffffffffffffffffffffffffffffffffffff1673ffffffffffffffffffffffffffffffffffffffff1673ffffffffffffffffffffffffffffffffffffffff168152602001600482015481526020016005820154815260200160068201805461076a9061196d565b80601f01602080910402602001604051908101604052809291908181526020018280546107969061196d565b80156107e35780601f106107b8576101008083540402835291602001916107e3565b820191906000526020600020905b8154815290600101906020018083116107c657829003601f168201915b505050505081526020016007820160405180606001604052908160008201548152602001600182015481526020016002820180546108209061196d565b80601f016020809104026020016040519081016040528092919081815260200182805461084c9061196d565b80156108995780601f1061086e57610100808354040283529160200191610899565b820191906000526020600020905b81548152906001019060200180831161087c57829003601f168201915b5050505050815250508152602001600a820180546108b69061196d565b80601f01602080910402602001604051908101604052809291908181526020018280546108e29061196d565b801561092f5780601f106109045761010080835404028352916020019161092f565b820191906000526020600020905b81548152906001019060200180831161091257829003601f168201915b5050505050815250509050919050565b5050505050505050565b50505050565b60006040518061012001604052808d61ffff1681526020018c81526020018b81526020018a73ffffffffffffffffffffffffffffffffffffffff16815260200189815260200188815260200186868080601f016020809104026020016040519081016040528093929190818152602001838380828437600081840152601f19601f82011690508083019250505050505050815260200187815260200184848080601f016020809104026020016040519081016040528093929190818152602001838380828437600081840152601f19601f8201169050808301925050505050505081525090806001815401808255809150506001900390600052602060002090600b020160009091909190915060008201518160000160006101000a81548161ffff021916908361ffff160217905550602082015181600101556040820151816002015560608201518160030160006101000a81548173ffffffffffffffffffffffffffffffffffffffff021916908373ffffffffffffffffffffffffffffffffffffffff1602179055506080820151816004015560a0820151816005015560c0820151816006019081610b039190611b79565b5060e08201518160070160008201518160000155602082015181600101556040820151816002019081610b369190611b79565b50505061010082015181600a019081610b4f9190611b79565b5050505050505050505050505050565b600090565b60009392505050565b508054610b799061196d565b6000825580601f10610b8b5750610baa565b601f016020900490600052602060002090810190610ba99190610c19565b5b50565b604051806101200160405280600061ffff1681526020016000815260200160008152602001600073ffffffffffffffffffffffffffffffffffffffff168152602001600081526020016000815260200160608152602001610c0c610c36565b8152602001606081525090565b5b80821115610c32576000816000905550600101610c1a565b5090565b60405180606001604052806000815260200160008152602001606081525090565b6000604051905090565b600080fd5b600080fd5b600061ffff82169050919050565b610c8281610c6b565b8114610c8d57600080fd5b50565b600081359050610c9f81610c79565b92915050565b600060ff82169050919050565b610cbb81610ca5565b8114610cc657600080fd5b50565b600081359050610cd881610cb2565b92915050565b600080fd5b600080fd5b600080fd5b60008083601f840112610d0357610d02610cde565b5b8235905067ffffffffffffffff811115610d2057610d1f610ce3565b5b602083019150836001820283011115610d3c57610d3b610ce8565b5b9250929050565b600080fd5b6000601f19601f8301169050919050565b7f4e487b7100000000000000000000000000000000000000000000000000000000600052604160045260246000fd5b610d9182610d48565b810181811067ffffffffffffffff82111715610db057610daf610d59565b5b80604052505050565b6000610dc3610c57565b9050610dcf8282610d88565b919050565b600080fd5b6000819050919050565b610dec81610dd9565b8114610df757600080fd5b50565b600081359050610e0981610de3565b92915050565b600080fd5b600067ffffffffffffffff821115610e2f57610e2e610d59565b5b610e3882610d48565b9050602081019050919050565b82818337600083830152505050565b6000610e67610e6284610e14565b610db9565b905082815260208101848484011115610e8357610e82610e0f565b5b610e8e848285610e45565b509392505050565b600082601f830112610eab57610eaa610cde565b5b8135610ebb848260208601610e54565b91505092915050565b600060608284031215610eda57610ed9610d43565b5b610ee46060610db9565b90506000610ef484828501610dfa565b6000830152506020610f0884828501610dfa565b602083015250604082013567ffffffffffffffff811115610f2c57610f2b610dd4565b5b610f3884828501610e96565b60408301525092915050565b600080600080600080600060a0888a031215610f6357610f62610c61565b5b6000610f718a828b01610c90565b9750506020610f828a828b01610cc9565b965050604088013567ffffffffffffffff811115610fa357610fa2610c66565b5b610faf8a828b01610ced565b9550955050606088013567ffffffffffffffff811115610fd257610fd1610c66565b5b610fde8a828b01610ced565b9350935050608088013567ffffffffffffffff81111561100157611000610c66565b5b61100d8a828b01610ec4565b91505092959891949750929550565b61102581610dd9565b82525050565b6000604082019050611040600083018561101c565b61104d602083018461101c565b9392505050565b6000602082019050611069600083018461101c565b92915050565b600081519050919050565b600082825260208201905092915050565b6000819050602082019050919050565b6110a481610c6b565b82525050565b6110b381610dd9565b82525050565b600073ffffffffffffffffffffffffffffffffffffffff82169050919050565b60006110e4826110b9565b9050919050565b6110f4816110d9565b82525050565b600081519050919050565b600082825260208201905092915050565b60005b83811015611134578082015181840152602081019050611119565b60008484015250505050565b600061114b826110fa565b6111558185611105565b9350611165818560208601611116565b61116e81610d48565b840191505092915050565b600060608301600083015161119160008601826110aa565b5060208301516111a460208601826110aa565b50604083015184820360408601526111bc8282611140565b9150508091505092915050565b6000610120830160008301516111e2600086018261109b565b5060208301516111f560208601826110aa565b50604083015161120860408601826110aa565b50606083015161121b60608601826110eb565b50608083015161122e60808601826110aa565b5060a083015161124160a08601826110aa565b5060c083015184820360c08601526112598282611140565b91505060e083015184820360e08601526112738282611179565b91505061010083015184820361010086015261128f8282611140565b9150508091505092915050565b60006112a883836111c9565b905092915050565b6000602082019050919050565b60006112c88261106f565b6112d2818561107a565b9350836020820285016112e48561108b565b8060005b858110156113205784840389528151611301858261129c565b945061130c836112b0565b925060208a019950506001810190506112e8565b50829750879550505050505092915050565b6000602082019050818103600083015261134c81846112bd565b905092915050565b61135d816110d9565b811461136857600080fd5b50565b60008135905061137a81611354565b92915050565b60008060008060008060008060006101008a8c0312156113a3576113a2610c61565b5b60006113b18c828d01610c90565b99505060206113c28c828d01610dfa565b98505060406113d38c828d01610dfa565b97505060606113e48c828d0161136b565b96505060806113f58c828d01610dfa565b95505060a06114068c828d01610dfa565b94505060c08a013567ffffffffffffffff81111561142757611426610c66565b5b6114338c828d01610ced565b935093505060e08a013567ffffffffffffffff81111561145657611455610c66565b5b6114628c828d01610ec4565b9150509295985092959850929598565b600061147d826110b9565b9050919050565b61148d81611472565b811461149857600080fd5b50565b6000813590506114aa81611484565b92915050565b6000806000606084860312156114c9576114c8610c61565b5b60006114d786828701610dfa565b93505060206114e886828701610dfa565b92505060406114f98682870161149b565b9150509250925092565b60006020828403121561151957611518610c61565b5b600061152784828501610dfa565b91505092915050565b600061012083016000830151611549600086018261109b565b50602083015161155c60208601826110aa565b50604083015161156f60408601826110aa565b50606083015161158260608601826110eb565b50608083015161159560808601826110aa565b5060a08301516115a860a08601826110aa565b5060c083015184820360c08601526115c08282611140565b91505060e083015184820360e08601526115da8282611179565b9150506101008301518482036101008601526115f68282611140565b9150508091505092915050565b6000602082019050818103600083015261161d8184611530565b905092915050565b60008060008060008060008060e0898b03121561164557611644610c61565b5b60006116538b828c01610c90565b98505060206116648b828c01610dfa565b97505060406116758b828c01610dfa565b96505060606116868b828c0161136b565b95505060806116978b828c01610dfa565b94505060a089013567ffffffffffffffff8111156116b8576116b7610c66565b5b6116c48b828c01610ced565b935093505060c089013567ffffffffffffffff8111156116e7576116e6610c66565b5b6116f38b828c01610ec4565b9150509295985092959890939650565b6000806000806080858703121561171d5761171c610c61565b5b600061172b87828801610c90565b945050602061173c87828801610dfa565b935050604061174d87828801610dfa565b925050606061175e8782880161136b565b91505092959194509250565b60008060008060008060008060008060006101208c8e0312156117905761178f610c61565b5b600061179e8e828f01610c90565b9b505060206117af8e828f01610dfa565b9a505060406117c08e828f01610dfa565b99505060606117d18e828f0161136b565b98505060806117e28e828f01610dfa565b97505060a06117f38e828f01610dfa565b96505060c08c013567ffffffffffffffff81111561181457611813610c66565b5b6118208e828f01610ec4565b95505060e08c013567ffffffffffffffff81111561184157611840610c66565b5b61184d8e828f01610ced565b94509450506101008c013567ffffffffffffffff81111561187157611870610c66565b5b61187d8e828f01610ced565b92509250509295989b509295989b9093969950565b61189b81611472565b82525050565b60006020820190506118b66000830184611892565b92915050565b6000806000606084860312156118d5576118d4610c61565b5b60006118e386828701610c90565b93505060206118f486828701610dfa565b92505060406119058682870161149b565b9150509250925092565b7f4e487b7100000000000000000000000000000000000000000000000000000000600052603160045260246000fd5b7f4e487b7100000000000000000000000000000000000000000000000000000000600052602260045260246000fd5b6000600282049050600182168061198557607f821691505b6020821081036119985761199761193e565b5b50919050565b7f4e487b7100000000000000000000000000000000000000000000000000000000600052603260045260246000fd5b60008190508160005260206000209050919050565b60006020601f8301049050919050565b600082821b905092915050565b600060088302611a2f7fffffffffffffffffffffffffffffffffffffffffffffffffffffffffffffffff826119f2565b611a3986836119f2565b95508019841693508086168417925050509392505050565b6000819050919050565b6000611a76611a71611a6c84610dd9565b611a51565b610dd9565b9050919050565b6000819050919050565b611a9083611a5b565b611aa4611a9c82611a7d565b8484546119ff565b825550505050565b600090565b611ab9611aac565b611ac4818484611a87565b505050565b5b81811015611ae857611add600082611ab1565b600181019050611aca565b5050565b601f821115611b2d57611afe816119cd565b611b07846119e2565b81016020851015611b16578190505b611b2a611b22856119e2565b830182611ac9565b50505b505050565b600082821c905092915050565b6000611b5060001984600802611b32565b1980831691505092915050565b6000611b698383611b3f565b9150826002028217905092915050565b611b82826110fa565b67ffffffffffffffff811115611b9b57611b9a610d59565b5b611ba5825461196d565b611bb0828285611aec565b600060209050601f831160018114611be35760008415611bd1578287015190505b611bdb8582611b5d565b865550611c43565b601f198416611bf1866119cd565b60005b82811015611c1957848901518255600182019150602085019450602081019050611bf4565b86831015611c365784890151611c32601f891682611b3f565b8355505b6001600288020188555050505b50505050505056fea26469706673582212208f4c82bb4e6f9f60bf1ca4eb250222b364684d7ea711c29372104d66b7d85a4d64736f6c63430008120033",
  "linkReferences": {},
  "deployedLinkReferences": {}
}