{
  "address": "0x8b40baa1263bb6469FBdecFE6B80e3789F5f8d4B",
  "abi": [
    {
      "inputs": [
        {
          "internalType": "address payable",
          "name": "frontDoorAddress",
          "type": "address"
        }
      ],
      "stateMutability": "nonpayable",
      "type": "constructor"
    },
    {
      "anonymous": false,
      "inputs": [
        {
          "indexed": false,
          "internalType": "address",
          "name": "sender",
          "type": "address"
        },
        {
          "indexed": false,
          "internalType": "address",
          "name": "newOwner",
          "type": "address"
        }
      ],
      "name": "LogNewOwner",
      "type": "event"
    },
    {
      "anonymous": false,
      "inputs": [
        {
          "components": [
            {
              "internalType": "enum AssetType",
              "name": "assetType",
              "type": "uint8"
            },
            {
              "internalType": "address",
              "name": "assetAddress",
              "type": "address"
            }
          ],
          "indexed": false,
          "internalType": "struct Asset",
          "name": "asset",
          "type": "tuple"
        },
        {
          "indexed": false,
          "internalType": "uint256",
          "name": "totalAmount",
          "type": "uint256"
        },
        {
          "indexed": false,
          "internalType": "uint256",
          "name": "feeAmount",
          "type": "uint256"
        },
        {
          "indexed": false,
          "internalType": "uint256",
          "name": "userAmount",
          "type": "uint256"
        }
      ],
      "name": "RemainingAsset",
      "type": "event"
    },
    {
      "anonymous": false,
      "inputs": [
        {
          "indexed": false,
          "internalType": "uint256",
          "name": "nonce",
          "type": "uint256"
        },
        {
          "indexed": false,
          "internalType": "address",
          "name": "userAddress",
          "type": "address"
        },
        {
          "components": [
            {
              "components": [
                {
                  "internalType": "enum AssetType",
                  "name": "assetType",
                  "type": "uint8"
                },
                {
                  "internalType": "address",
                  "name": "assetAddress",
                  "type": "address"
                }
              ],
              "internalType": "struct Asset",
              "name": "asset",
              "type": "tuple"
            },
            {
              "internalType": "uint256",
              "name": "amount",
              "type": "uint256"
            }
          ],
          "indexed": false,
          "internalType": "struct AssetAmount",
          "name": "startingAsset",
          "type": "tuple"
        }
      ],
      "name": "WorkflowContinuation",
      "type": "event"
    },
    {
      "anonymous": false,
      "inputs": [
        {
          "indexed": false,
          "internalType": "address",
          "name": "userAddress",
          "type": "address"
        },
        {
          "components": [
            {
              "internalType": "address",
              "name": "workflowRunnerAddress",
              "type": "address"
            },
            {
              "components": [
                {
                  "internalType": "uint16",
                  "name": "stepTypeId",
                  "type": "uint16"
                },
                {
                  "internalType": "address",
                  "name": "stepAddress",
                  "type": "address"
                },
                {
                  "components": [
                    {
                      "internalType": "bool",
                      "name": "sourceIsCaller",
                      "type": "bool"
                    },
                    {
                      "internalType": "bool",
                      "name": "amountIsPercent",
                      "type": "bool"
                    },
                    {
                      "components": [
                        {
                          "internalType": "enum AssetType",
                          "name": "assetType",
                          "type": "uint8"
                        },
                        {
                          "internalType": "address",
                          "name": "assetAddress",
                          "type": "address"
                        }
                      ],
                      "internalType": "struct Asset",
                      "name": "asset",
                      "type": "tuple"
                    },
                    {
                      "internalType": "uint256",
                      "name": "amount",
                      "type": "uint256"
                    }
                  ],
                  "internalType": "struct WorkflowStepInputAsset[]",
                  "name": "inputAssets",
                  "type": "tuple[]"
                },
                {
                  "internalType": "bytes",
                  "name": "argData",
                  "type": "bytes"
                },
                {
                  "internalType": "int16",
                  "name": "nextStepIndex",
                  "type": "int16"
                }
              ],
              "internalType": "struct WorkflowStep[]",
              "name": "steps",
              "type": "tuple[]"
            }
          ],
          "indexed": false,
          "internalType": "struct Workflow",
          "name": "workflow",
          "type": "tuple"
        }
      ],
      "name": "WorkflowExecution",
      "type": "event"
    },
    {
      "anonymous": false,
      "inputs": [
        {
          "indexed": false,
          "internalType": "uint16",
          "name": "stepIndex",
          "type": "uint16"
        },
        {
          "components": [
            {
              "internalType": "uint16",
              "name": "stepTypeId",
              "type": "uint16"
            },
            {
              "internalType": "address",
              "name": "stepAddress",
              "type": "address"
            },
            {
              "components": [
                {
                  "internalType": "bool",
                  "name": "sourceIsCaller",
                  "type": "bool"
                },
                {
                  "internalType": "bool",
                  "name": "amountIsPercent",
                  "type": "bool"
                },
                {
                  "components": [
                    {
                      "internalType": "enum AssetType",
                      "name": "assetType",
                      "type": "uint8"
                    },
                    {
                      "internalType": "address",
                      "name": "assetAddress",
                      "type": "address"
                    }
                  ],
                  "internalType": "struct Asset",
                  "name": "asset",
                  "type": "tuple"
                },
                {
                  "internalType": "uint256",
                  "name": "amount",
                  "type": "uint256"
                }
              ],
              "internalType": "struct WorkflowStepInputAsset[]",
              "name": "inputAssets",
              "type": "tuple[]"
            },
            {
              "internalType": "bytes",
              "name": "argData",
              "type": "bytes"
            },
            {
              "internalType": "int16",
              "name": "nextStepIndex",
              "type": "int16"
            }
          ],
          "indexed": false,
          "internalType": "struct WorkflowStep",
          "name": "step",
          "type": "tuple"
        },
        {
          "indexed": false,
          "internalType": "uint16",
          "name": "stepTypeId",
          "type": "uint16"
        },
        {
          "indexed": false,
          "internalType": "address",
          "name": "stepAddress",
          "type": "address"
        },
        {
          "components": [
            {
              "components": [
                {
                  "internalType": "enum AssetType",
                  "name": "assetType",
                  "type": "uint8"
                },
                {
                  "internalType": "address",
                  "name": "assetAddress",
                  "type": "address"
                }
              ],
              "internalType": "struct Asset",
              "name": "asset",
              "type": "tuple"
            },
            {
              "internalType": "uint256",
              "name": "amount",
              "type": "uint256"
            }
          ],
          "indexed": false,
          "internalType": "struct AssetAmount[]",
          "name": "inputAssetAmounts",
          "type": "tuple[]"
        },
        {
          "components": [
            {
              "components": [
                {
                  "components": [
                    {
                      "internalType": "enum AssetType",
                      "name": "assetType",
                      "type": "uint8"
                    },
                    {
                      "internalType": "address",
                      "name": "assetAddress",
                      "type": "address"
                    }
                  ],
                  "internalType": "struct Asset",
                  "name": "asset",
                  "type": "tuple"
                },
                {
                  "internalType": "uint256",
                  "name": "amount",
                  "type": "uint256"
                }
              ],
              "internalType": "struct AssetAmount[]",
              "name": "inputAssetAmounts",
              "type": "tuple[]"
            },
            {
              "components": [
                {
                  "components": [
                    {
                      "internalType": "enum AssetType",
                      "name": "assetType",
                      "type": "uint8"
                    },
                    {
                      "internalType": "address",
                      "name": "assetAddress",
                      "type": "address"
                    }
                  ],
                  "internalType": "struct Asset",
                  "name": "asset",
                  "type": "tuple"
                },
                {
                  "internalType": "uint256",
                  "name": "amount",
                  "type": "uint256"
                }
              ],
              "internalType": "struct AssetAmount[]",
              "name": "outputAssetAmounts",
              "type": "tuple[]"
            },
            {
              "internalType": "int16",
              "name": "nextStepIndex",
              "type": "int16"
            },
            {
              "internalType": "int24",
              "name": "fee",
              "type": "int24"
            }
          ],
          "indexed": false,
          "internalType": "struct WorkflowStepResult",
          "name": "result",
          "type": "tuple"
        }
      ],
      "name": "WorkflowStepExecution",
      "type": "event"
    },
    {
      "inputs": [
        {
          "internalType": "address",
          "name": "userAddress",
          "type": "address"
        },
        {
          "internalType": "uint256",
          "name": "nonce",
          "type": "uint256"
        },
        {
          "components": [
            {
              "internalType": "address",
              "name": "workflowRunnerAddress",
              "type": "address"
            },
            {
              "components": [
                {
                  "internalType": "uint16",
                  "name": "stepTypeId",
                  "type": "uint16"
                },
                {
                  "internalType": "address",
                  "name": "stepAddress",
                  "type": "address"
                },
                {
                  "components": [
                    {
                      "internalType": "bool",
                      "name": "sourceIsCaller",
                      "type": "bool"
                    },
                    {
                      "internalType": "bool",
                      "name": "amountIsPercent",
                      "type": "bool"
                    },
                    {
                      "components": [
                        {
                          "internalType": "enum AssetType",
                          "name": "assetType",
                          "type": "uint8"
                        },
                        {
                          "internalType": "address",
                          "name": "assetAddress",
                          "type": "address"
                        }
                      ],
                      "internalType": "struct Asset",
                      "name": "asset",
                      "type": "tuple"
                    },
                    {
                      "internalType": "uint256",
                      "name": "amount",
                      "type": "uint256"
                    }
                  ],
                  "internalType": "struct WorkflowStepInputAsset[]",
                  "name": "inputAssets",
                  "type": "tuple[]"
                },
                {
                  "internalType": "bytes",
                  "name": "argData",
                  "type": "bytes"
                },
                {
                  "internalType": "int16",
                  "name": "nextStepIndex",
                  "type": "int16"
                }
              ],
              "internalType": "struct WorkflowStep[]",
              "name": "steps",
              "type": "tuple[]"
            }
          ],
          "internalType": "struct Workflow",
          "name": "workflow",
          "type": "tuple"
        },
        {
          "components": [
            {
              "components": [
                {
                  "internalType": "enum AssetType",
                  "name": "assetType",
                  "type": "uint8"
                },
                {
                  "internalType": "address",
                  "name": "assetAddress",
                  "type": "address"
                }
              ],
              "internalType": "struct Asset",
              "name": "asset",
              "type": "tuple"
            },
            {
              "internalType": "uint256",
              "name": "amount",
              "type": "uint256"
            }
          ],
          "internalType": "struct AssetAmount",
          "name": "startingAsset",
          "type": "tuple"
        }
      ],
      "name": "continueWorkflow",
      "outputs": [],
      "stateMutability": "payable",
      "type": "function"
    },
    {
      "inputs": [],
      "name": "eternalStorageAddress",
      "outputs": [
        {
          "internalType": "address",
          "name": "",
          "type": "address"
        }
      ],
      "stateMutability": "view",
      "type": "function"
    },
    {
      "inputs": [
        {
          "components": [
            {
              "internalType": "address",
              "name": "workflowRunnerAddress",
              "type": "address"
            },
            {
              "components": [
                {
                  "internalType": "uint16",
                  "name": "stepTypeId",
                  "type": "uint16"
                },
                {
                  "internalType": "address",
                  "name": "stepAddress",
                  "type": "address"
                },
                {
                  "components": [
                    {
                      "internalType": "bool",
                      "name": "sourceIsCaller",
                      "type": "bool"
                    },
                    {
                      "internalType": "bool",
                      "name": "amountIsPercent",
                      "type": "bool"
                    },
                    {
                      "components": [
                        {
                          "internalType": "enum AssetType",
                          "name": "assetType",
                          "type": "uint8"
                        },
                        {
                          "internalType": "address",
                          "name": "assetAddress",
                          "type": "address"
                        }
                      ],
                      "internalType": "struct Asset",
                      "name": "asset",
                      "type": "tuple"
                    },
                    {
                      "internalType": "uint256",
                      "name": "amount",
                      "type": "uint256"
                    }
                  ],
                  "internalType": "struct WorkflowStepInputAsset[]",
                  "name": "inputAssets",
                  "type": "tuple[]"
                },
                {
                  "internalType": "bytes",
                  "name": "argData",
                  "type": "bytes"
                },
                {
                  "internalType": "int16",
                  "name": "nextStepIndex",
                  "type": "int16"
                }
              ],
              "internalType": "struct WorkflowStep[]",
              "name": "steps",
              "type": "tuple[]"
            }
          ],
          "internalType": "struct Workflow",
          "name": "workflow",
          "type": "tuple"
        }
      ],
      "name": "executeWorkflow",
      "outputs": [],
      "stateMutability": "payable",
      "type": "function"
    },
    {
      "inputs": [
        {
          "internalType": "uint16",
          "name": "stepTypeId",
          "type": "uint16"
        }
      ],
      "name": "getStepAddress",
      "outputs": [
        {
          "internalType": "address",
          "name": "",
          "type": "address"
        }
      ],
      "stateMutability": "view",
      "type": "function"
    },
    {
      "inputs": [],
      "name": "isUserProxy",
      "outputs": [
        {
          "internalType": "bool",
          "name": "",
          "type": "bool"
        }
      ],
      "stateMutability": "view",
      "type": "function"
    },
    {
      "inputs": [],
      "name": "owner",
      "outputs": [
        {
          "internalType": "address payable",
          "name": "",
          "type": "address"
        }
      ],
      "stateMutability": "view",
      "type": "function"
    },
    {
      "inputs": [
        {
          "internalType": "address payable",
          "name": "newOwner",
          "type": "address"
        }
      ],
      "name": "setOwner",
      "outputs": [],
      "stateMutability": "nonpayable",
      "type": "function"
    },
    {
      "inputs": [],
      "name": "upstreamAddress",
      "outputs": [
        {
          "internalType": "address",
          "name": "",
          "type": "address"
        }
      ],
      "stateMutability": "view",
      "type": "function"
    }
  ],
  "transactionHash": "0x45e7abd35ed32fb1023786f926443a6f28ec6d08c32357a317691562ef6a999f",
  "args": [
    "0x6275bCeE6Ac75E13A378bd4d8b97Ff1eD16e2962"
  ],
  "numDeployments": 5,
  "solcInputHash": "91cc0b911eff282ed490a15d58a7a451",
  "bytecode": "0x60806040523480156200001157600080fd5b506040516200457338038062004573833981810160405281019062000037919062000208565b338173ffffffffffffffffffffffffffffffffffffffff1663384782fe6040518163ffffffff1660e01b8152600401602060405180830381865afa15801562000084573d6000803e3d6000fd5b505050506040513d601f19601f82011682018060405250810190620000aa91906200027f565b60008083806000806101000a81548173ffffffffffffffffffffffffffffffffffffffff021916908373ffffffffffffffffffffffffffffffffffffffff1602179055505082600160006101000a81548173ffffffffffffffffffffffffffffffffffffffff021916908373ffffffffffffffffffffffffffffffffffffffff16021790555081600260006101000a81548173ffffffffffffffffffffffffffffffffffffffff021916908373ffffffffffffffffffffffffffffffffffffffff16021790555080600260146101000a81548160ff02191690831515021790555050505050600160038190555050620002b1565b600080fd5b600073ffffffffffffffffffffffffffffffffffffffff82169050919050565b6000620001d082620001a3565b9050919050565b620001e281620001c3565b8114620001ee57600080fd5b50565b6000815190506200020281620001d7565b92915050565b6000602082840312156200022157620002206200019e565b5b60006200023184828501620001f1565b91505092915050565b60006200024782620001a3565b9050919050565b62000259816200023a565b81146200026557600080fd5b50565b60008151905062000279816200024e565b92915050565b6000602082840312156200029857620002976200019e565b5b6000620002a88482850162000268565b91505092915050565b6142b280620002c16000396000f3fe60806040526004361061007b5760003560e01c806352faae301161004e57806352faae301461011b5780638da5cb5b14610137578063f903397714610162578063ff05c2a81461019f5761007b565b806313af40351461008057806332b56aaf146100a957806334192642146100d4578063384782fe146100f0575b600080fd5b34801561008c57600080fd5b506100a760048036038101906100a291906120ca565b6101ca565b005b3480156100b557600080fd5b506100be6102d7565b6040516100cb9190612118565b60405180910390f35b6100ee60048036038101906100e991906127a6565b6102fd565b005b3480156100fc57600080fd5b50610105610349565b6040516101129190612118565b60405180910390f35b6101356004803603810190610130919061284d565b61036f565b005b34801561014357600080fd5b5061014c6103ef565b60405161015991906128a5565b60405180910390f35b34801561016e57600080fd5b50610189600480360381019061018491906128c0565b610413565b6040516101969190612118565b60405180910390f35b3480156101ab57600080fd5b506101b4610448565b6040516101c191906128fc565b60405180910390f35b60008054906101000a900473ffffffffffffffffffffffffffffffffffffffff1673ffffffffffffffffffffffffffffffffffffffff163373ffffffffffffffffffffffffffffffffffffffff161461022257600080fd5b600073ffffffffffffffffffffffffffffffffffffffff168173ffffffffffffffffffffffffffffffffffffffff160361025b57600080fd5b806000806101000a81548173ffffffffffffffffffffffffffffffffffffffff021916908373ffffffffffffffffffffffffffffffffffffffff1602179055507f1f8d7d25344642d919d55999e4664aa452a5f424bc0936ceb9c2b300db7dcbd933826040516102cc929190612976565b60405180910390a150565b600260009054906101000a900473ffffffffffffffffffffffffffffffffffffffff1681565b7f5fb75a336a44ceb6f98a3b8492da063de0d7407916807b030a6703bc96c3871283858360405161033093929190612aa1565b60405180910390a161034384838361045b565b50505050565b600160009054906101000a900473ffffffffffffffffffffffffffffffffffffffff1681565b6103776107c6565b600060405180604001604052806040518060400160405280600060028111156103a3576103a26129ae565b5b8152602001600073ffffffffffffffffffffffffffffffffffffffff168152508152602001600081525090506103e333836103dd90612ad8565b8361045b565b506103ec610815565b50565b60008054906101000a900473ffffffffffffffffffffffffffffffffffffffff1681565b6000610441600160009054906101000a900473ffffffffffffffffffffffffffffffffffffffff168361081f565b9050919050565b600260149054906101000a900460ff1681565b7fc8094e88bd093f5d416a30bcc4c54a73a490d161daf321f6f5df19920a76d67a838360405161048c929190612e17565b60405180910390a1600061049e611f5d565b600034146104bd576104bc600034836108cd9092919063ffffffff16565b5b6000836020015111156104e8576104e7836000015184602001518361098f9092919063ffffffff16565b5b600084602001515111156107b5575b6001156107b457600084602001518361ffff168151811061051b5761051a612e47565b5b60200260200101519050600161ffff16816000015161ffff16148061054c5750600261ffff16816000015161ffff16145b156105bf576000600161ffff16826000015161ffff160361057757610570826109a7565b9050610584565b61058182846109ea565b90505b7fffffffffffffffffffffffffffffffffffffffffffffffffffffffffffffffff8160010b036105b55750506107b4565b80935050506104f7565b60006105ca82610ad8565b905060006105dd88858560400151610bc9565b905060005b81518110156105fc57806105f590612ea5565b90506105e2565b50600061060e83838660600151610d76565b905060005b816020015151811015610631578061062a90612ea5565b9050610613565b507f1754cdb05aef18c5f0e96033a1ff1dc6b452412b60d5699a299da58ab09d12768685866000015186868660405161066f9695949392919061314c565b60405180910390a160005b8160000151518110156106f1576106e0826000015182815181106106a1576106a0612e47565b5b602002602001015160000151836000015183815181106106c4576106c3612e47565b5b60200260200101516020015188610ec59092919063ffffffff16565b806106ea90612ea5565b905061067a565b5060005b81602001515181101561076c5761075b8260200151828151811061071c5761071b612e47565b5b6020026020010151600001518360200151838151811061073f5761073e612e47565b5b6020026020010151602001518861098f9092919063ffffffff16565b8061076590612ea5565b90506106f5565b507fffffffffffffffffffffffffffffffffffffffffffffffffffffffffffffffff846080015160010b036107a457505050506107b4565b83608001519550505050506104f7565b5b6107bf8582610edd565b5050505050565b60026003540361080b576040517f08c379a00000000000000000000000000000000000000000000000000000000081526004016108029061321f565b60405180910390fd5b6002600381905550565b6001600381905550565b6000808390508073ffffffffffffffffffffffffffffffffffffffff1663a2ccb5227fc94d198e6194ea38dbd900920351d7f8e6c6d85b1d3b803fb93c54be008e11fd60001b856040518363ffffffff1660e01b8152600401610883929190613289565b602060405180830381865afa1580156108a0573d6000803e3d6000fd5b505050506040513d601f19601f820116820180604052508101906108c491906132c7565b91505092915050565b600081111561098a5760006108e28484610ee1565b9050600080610910866000015184600a811061090157610900612e47565b5b60200201516020015185610fe9565b915091508161097a576109796040518060400160405280600681526020017f637265646974000000000000000000000000000000000000000000000000000081525086886000015186600a811061096a57610969612e47565b5b60200201516020015187611018565b5b6109858684836110d9565b505050505b505050565b6109a28361099c84611121565b836108cd565b505050565b60008082606001518060200190518101906109c2919061336e565b9050468160000151036109dc5780602001519150506109e5565b82608001519150505b919050565b6000808360600151806020019051810190610a05919061349d565b90506000816020015190506000610a2983600001518661113c90919063ffffffff16565b905060008360400151905060008360008114610a6c5760018114610a765760028114610a815760038114610a8b5760048114610a995760058114610aa357610aad565b8284149150610aad565b828414199150610aad565b8284109150610aad565b828410838514179150610aad565b8284119150610aad565b8284118385141791505b508015610ac557846060015195505050505050610ad2565b8760800151955050505050505b92915050565b60008073ffffffffffffffffffffffffffffffffffffffff16826020015173ffffffffffffffffffffffffffffffffffffffff1603610b4857610b41600160009054906101000a900473ffffffffffffffffffffffffffffffffffffffff16836000015161081f565b9050610bc4565b610b7d600160009054906101000a900473ffffffffffffffffffffffffffffffffffffffff16836000015184602001516111d8565b610bbc576040517f08c379a0000000000000000000000000000000000000000000000000000000008152600401610bb390613516565b60405180910390fd5b816020015190505b919050565b60606000825167ffffffffffffffff811115610be857610be76121ab565b5b604051908082528060200260200182016040528015610c2157816020015b610c0e611f80565b815260200190600190039081610c065790505b50905060005b8351811015610d6a576000848281518110610c4557610c44612e47565b5b602002602001015190508060400151838381518110610c6757610c66612e47565b5b602002602001015160000181905250806000015115610c8c57610c8b87828861126c565b5b6000610ca582604001518861113c90919063ffffffff16565b9050816020015115610ce757610cbf818360600151611469565b848481518110610cd257610cd1612e47565b5b60200260200101516020018181525050610d57565b8160600151811115610d2e576040517f08c379a0000000000000000000000000000000000000000000000000000000008152600401610d25906135a8565b60405180910390fd5b8160600151848481518110610d4657610d45612e47565b5b602002602001015160200181815250505b505080610d6390612ea5565b9050610c27565b50809150509392505050565b610d7e611fa0565b6000808573ffffffffffffffffffffffffffffffffffffffff16637bb26ca760e01b8686604051602401610db3929190613612565b604051602081830303815290604052907bffffffffffffffffffffffffffffffffffffffffffffffffffffffff19166020820180517bffffffffffffffffffffffffffffffffffffffffffffffffffffffff8381831617835250505050604051610e1d9190613685565b600060405180830381855af49150503d8060008114610e58576040519150601f19603f3d011682016040523d82523d6000602084013e610e5d565b606091505b5091509150818190610ea5576040517f08c379a0000000000000000000000000000000000000000000000000000000008152600401610e9c91906136e0565b60405180910390fd5b5080806020019051810190610eba91906138f1565b925050509392505050565b610ed883610ed284611121565b836114e6565b505050565b5050565b600080600090505b836020015160ff16811015610f385782846000015182600a8110610f1057610f0f612e47565b5b60200201516000015103610f275780915050610fe3565b80610f3190612ea5565b9050610ee9565b50600a60ff16836020015160ff1610610f86576040517f08c379a0000000000000000000000000000000000000000000000000000000008152600401610f7d90613986565b60405180910390fd5b604051806040016040528083815260200160008152508360000151846020015160ff16600a8110610fba57610fb9612e47565b5b6020020181905250826020018051809190610fd4906139b3565b60ff1660ff1681525060ff1690505b92915050565b6000806000838501905084811015611008576000809250925050611011565b60018192509250505b9250929050565b6000611023846115a8565b905084611045826000015160028111156110405761103f6129ae565b5b61161a565b611068836020015173ffffffffffffffffffffffffffffffffffffffff166116e8565b6110718661161a565b61107a8661161a565b60405160200161108e959493929190613ab0565b6040516020818303038152906040526040517f08c379a00000000000000000000000000000000000000000000000000000000081526004016110d091906136e0565b60405180910390fd5b60008082036110f1576110ec8484611706565b611117565b81846000015184600a811061110957611108612e47565b5b602002015160200181815250505b8190509392505050565b600061113582600001518360200151611773565b9050919050565b60008083600001519050600061115184611121565b905060005b856020015160ff168161ffff1610156111ca5781838261ffff16600a811061118157611180612e47565b5b602002015160000151036111b957828161ffff16600a81106111a6576111a5612e47565b5b60200201516020015193505050506111d2565b806111c390613b37565b9050611156565b506000925050505b92915050565b6000808490508073ffffffffffffffffffffffffffffffffffffffff166393128136611203866117c9565b856040518363ffffffff1660e01b8152600401611221929190613b61565b602060405180830381865afa15801561123e573d6000803e3d6000fd5b505050506040513d601f19601f820116820180604052508101906112629190613b9f565b9150509392505050565b6000151582602001511515146112b7576040517f08c379a00000000000000000000000000000000000000000000000000000000081526004016112ae90613c3e565b60405180910390fd5b600060028111156112cb576112ca6129ae565b5b82604001516000015160028111156112e6576112e56129ae565b5b03156114645760016002811115611300576112ff6129ae565b5b826040015160000151600281111561131b5761131a6129ae565b5b03611428576000826040015160200151905060008173ffffffffffffffffffffffffffffffffffffffff1663dd62ed3e86306040518363ffffffff1660e01b815260040161136a929190613c5e565b602060405180830381865afa158015611387573d6000803e3d6000fd5b505050506040513d601f19601f820116820180604052508101906113ab9190613c87565b905083606001518110156113f4576040517f08c379a00000000000000000000000000000000000000000000000000000000081526004016113eb90613d00565b60405180910390fd5b61140482863087606001516117f9565b611421846040015185606001518561098f9092919063ffffffff16565b5050611463565b6040517f08c379a000000000000000000000000000000000000000000000000000000000815260040161145a90613d92565b60405180910390fd5b5b505050565b60008160001115801561147f5750620186a08211155b6114be576040517f08c379a00000000000000000000000000000000000000000000000000000000081526004016114b590613e24565b60405180910390fd5b600082846114cc9190613e44565b9050620186a0816114dd9190613eb5565b91505092915050565b60008111156115a35760006114fb8484610ee1565b9050600080611529866000015184600a811061151a57611519612e47565b5b60200201516020015185611882565b9150915081611593576115926040518060400160405280600581526020017f646562697400000000000000000000000000000000000000000000000000000081525086886000015186600a811061158357611582612e47565b5b60200201516020015187611018565b5b61159e8684836110d9565b505050505b505050565b6115b0611fce565b60008261ffff1660028111156115c9576115c86129ae565b5b90506000601084901c905060405180604001604052808360028111156115f2576115f16129ae565b5b81526020018273ffffffffffffffffffffffffffffffffffffffff1681525092505050919050565b606060006001611629846118aa565b01905060008167ffffffffffffffff811115611648576116476121ab565b5b6040519080825280601f01601f19166020018201604052801561167a5781602001600182028036833780820191505090505b509050600082602001820190505b6001156116dd578080600190039150507f3031323334353637383961626364656600000000000000000000000000000000600a86061a8153600a85816116d1576116d0613e86565b5b04945060008503611688575b819350505050919050565b60606116ff8260016116f9856119fd565b01611a8d565b9050919050565b81600001516001836020015161171c9190613ee6565b60ff16600a81106117305761172f612e47565b5b6020020151826000015182600a811061174c5761174b612e47565b5b602002018190525081602001805161176390613f1b565b60ff16908160ff16815250505050565b60008082905060008173ffffffffffffffffffffffffffffffffffffffff1690506000601082901b905060008660028111156117b2576117b16129ae565b5b905060008183179050809550505050505092915050565b6000816040516020016117dc9190613fc6565b604051602081830303815290604052805190602001209050919050565b61187c846323b872dd60e01b85858560405160240161181a93929190613fec565b604051602081830303815290604052907bffffffffffffffffffffffffffffffffffffffffffffffffffffffff19166020820180517bffffffffffffffffffffffffffffffffffffffffffffffffffffffff8381831617835250505050611cc9565b50505050565b6000808383111561189957600080915091506118a3565b6001838503915091505b9250929050565b600080600090507a184f03e93ff9f4daa797ed6e38ed64bf6a1f0100000000000000008310611908577a184f03e93ff9f4daa797ed6e38ed64bf6a1f01000000000000000083816118fe576118fd613e86565b5b0492506040810190505b6d04ee2d6d415b85acef81000000008310611945576d04ee2d6d415b85acef8100000000838161193b5761193a613e86565b5b0492506020810190505b662386f26fc10000831061197457662386f26fc10000838161196a57611969613e86565b5b0492506010810190505b6305f5e100831061199d576305f5e100838161199357611992613e86565b5b0492506008810190505b61271083106119c25761271083816119b8576119b7613e86565b5b0492506004810190505b606483106119e557606483816119db576119da613e86565b5b0492506002810190505b600a83106119f4576001810190505b80915050919050565b600080600090506000608084901c1115611a1f57608083901c92506010810190505b6000604084901c1115611a3a57604083901c92506008810190505b6000602084901c1115611a5557602083901c92506004810190505b6000601084901c1115611a7057601083901c92506002810190505b6000600884901c1115611a84576001810190505b80915050919050565b606060006002836002611aa09190613e44565b611aaa9190614023565b67ffffffffffffffff811115611ac357611ac26121ab565b5b6040519080825280601f01601f191660200182016040528015611af55781602001600182028036833780820191505090505b5090507f300000000000000000000000000000000000000000000000000000000000000081600081518110611b2d57611b2c612e47565b5b60200101907effffffffffffffffffffffffffffffffffffffffffffffffffffffffffffff1916908160001a9053507f780000000000000000000000000000000000000000000000000000000000000081600181518110611b9157611b90612e47565b5b60200101907effffffffffffffffffffffffffffffffffffffffffffffffffffffffffffff1916908160001a90535060006001846002611bd19190613e44565b611bdb9190614023565b90505b6001811115611c7b577f3031323334353637383961626364656600000000000000000000000000000000600f861660108110611c1d57611c1c612e47565b5b1a60f81b828281518110611c3457611c33612e47565b5b60200101907effffffffffffffffffffffffffffffffffffffffffffffffffffffffffffff1916908160001a905350600485901c945080611c7490614057565b9050611bde565b5060008414611cbf576040517f08c379a0000000000000000000000000000000000000000000000000000000008152600401611cb6906140cc565b60405180910390fd5b8091505092915050565b6000611d2b826040518060400160405280602081526020017f5361666545524332303a206c6f772d6c6576656c2063616c6c206661696c65648152508573ffffffffffffffffffffffffffffffffffffffff16611d909092919063ffffffff16565b9050600081511115611d8b5780806020019051810190611d4b9190613b9f565b611d8a576040517f08c379a0000000000000000000000000000000000000000000000000000000008152600401611d819061415e565b60405180910390fd5b5b505050565b6060611d9f8484600085611da8565b90509392505050565b606082471015611ded576040517f08c379a0000000000000000000000000000000000000000000000000000000008152600401611de4906141f0565b60405180910390fd5b6000808673ffffffffffffffffffffffffffffffffffffffff168587604051611e169190613685565b60006040518083038185875af1925050503d8060008114611e53576040519150601f19603f3d011682016040523d82523d6000602084013e611e58565b606091505b5091509150611e6987838387611e75565b92505050949350505050565b60608315611ed7576000835103611ecf57611e8f85611eea565b611ece576040517f08c379a0000000000000000000000000000000000000000000000000000000008152600401611ec59061425c565b60405180910390fd5b5b829050611ee2565b611ee18383611f0d565b5b949350505050565b6000808273ffffffffffffffffffffffffffffffffffffffff163b119050919050565b600082511115611f205781518083602001fd5b806040517f08c379a0000000000000000000000000000000000000000000000000000000008152600401611f5491906136e0565b60405180910390fd5b6040518060400160405280611f70612010565b8152602001600060ff1681525090565b6040518060400160405280611f93611fce565b8152602001600081525090565b60405180608001604052806060815260200160608152602001600060010b8152602001600060020b81525090565b604051806040016040528060006002811115611fed57611fec6129ae565b5b8152602001600073ffffffffffffffffffffffffffffffffffffffff1681525090565b604051806101400160405280600a905b61202861203e565b8152602001906001900390816120205790505090565b604051806040016040528060008152602001600081525090565b6000604051905090565b600080fd5b600080fd5b600073ffffffffffffffffffffffffffffffffffffffff82169050919050565b60006120978261206c565b9050919050565b6120a78161208c565b81146120b257600080fd5b50565b6000813590506120c48161209e565b92915050565b6000602082840312156120e0576120df612062565b5b60006120ee848285016120b5565b91505092915050565b60006121028261206c565b9050919050565b612112816120f7565b82525050565b600060208201905061212d6000830184612109565b92915050565b61213c816120f7565b811461214757600080fd5b50565b60008135905061215981612133565b92915050565b6000819050919050565b6121728161215f565b811461217d57600080fd5b50565b60008135905061218f81612169565b92915050565b600080fd5b6000601f19601f8301169050919050565b7f4e487b7100000000000000000000000000000000000000000000000000000000600052604160045260246000fd5b6121e38261219a565b810181811067ffffffffffffffff82111715612202576122016121ab565b5b80604052505050565b6000612215612058565b905061222182826121da565b919050565b600080fd5b600080fd5b600067ffffffffffffffff82111561224b5761224a6121ab565b5b602082029050602081019050919050565b600080fd5b600061ffff82169050919050565b61227881612261565b811461228357600080fd5b50565b6000813590506122958161226f565b92915050565b600067ffffffffffffffff8211156122b6576122b56121ab565b5b602082029050602081019050919050565b60008115159050919050565b6122dc816122c7565b81146122e757600080fd5b50565b6000813590506122f9816122d3565b92915050565b6003811061230c57600080fd5b50565b60008135905061231e816122ff565b92915050565b60006040828403121561233a57612339612195565b5b612344604061220b565b905060006123548482850161230f565b60008301525060206123688482850161214a565b60208301525092915050565b600060a0828403121561238a57612389612195565b5b612394608061220b565b905060006123a4848285016122ea565b60008301525060206123b8848285016122ea565b60208301525060406123cc84828501612324565b60408301525060806123e084828501612180565b60608301525092915050565b60006123ff6123fa8461229b565b61220b565b90508083825260208201905060a084028301858111156124225761242161225c565b5b835b8181101561244b57806124378882612374565b84526020840193505060a081019050612424565b5050509392505050565b600082601f83011261246a5761246961222b565b5b813561247a8482602086016123ec565b91505092915050565b600080fd5b600067ffffffffffffffff8211156124a3576124a26121ab565b5b6124ac8261219a565b9050602081019050919050565b82818337600083830152505050565b60006124db6124d684612488565b61220b565b9050828152602081018484840111156124f7576124f6612483565b5b6125028482856124b9565b509392505050565b600082601f83011261251f5761251e61222b565b5b813561252f8482602086016124c8565b91505092915050565b60008160010b9050919050565b61254e81612538565b811461255957600080fd5b50565b60008135905061256b81612545565b92915050565b600060a0828403121561258757612586612195565b5b61259160a061220b565b905060006125a184828501612286565b60008301525060206125b58482850161214a565b602083015250604082013567ffffffffffffffff8111156125d9576125d8612226565b5b6125e584828501612455565b604083015250606082013567ffffffffffffffff81111561260957612608612226565b5b6126158482850161250a565b60608301525060806126298482850161255c565b60808301525092915050565b600061264861264384612230565b61220b565b9050808382526020820190506020840283018581111561266b5761266a61225c565b5b835b818110156126b257803567ffffffffffffffff8111156126905761268f61222b565b5b80860161269d8982612571565b8552602085019450505060208101905061266d565b5050509392505050565b600082601f8301126126d1576126d061222b565b5b81356126e1848260208601612635565b91505092915050565b600060408284031215612700576126ff612195565b5b61270a604061220b565b9050600061271a8482850161214a565b600083015250602082013567ffffffffffffffff81111561273e5761273d612226565b5b61274a848285016126bc565b60208301525092915050565b60006060828403121561276c5761276b612195565b5b612776604061220b565b9050600061278684828501612324565b600083015250604061279a84828501612180565b60208301525092915050565b60008060008060c085870312156127c0576127bf612062565b5b60006127ce8782880161214a565b94505060206127df87828801612180565b935050604085013567ffffffffffffffff811115612800576127ff612067565b5b61280c878288016126ea565b925050606061281d87828801612756565b91505092959194509250565b600080fd5b60006040828403121561284457612843612829565b5b81905092915050565b60006020828403121561286357612862612062565b5b600082013567ffffffffffffffff81111561288157612880612067565b5b61288d8482850161282e565b91505092915050565b61289f8161208c565b82525050565b60006020820190506128ba6000830184612896565b92915050565b6000602082840312156128d6576128d5612062565b5b60006128e484828501612286565b91505092915050565b6128f6816122c7565b82525050565b600060208201905061291160008301846128ed565b92915050565b6000819050919050565b600061293c6129376129328461206c565b612917565b61206c565b9050919050565b600061294e82612921565b9050919050565b600061296082612943565b9050919050565b61297081612955565b82525050565b600060408201905061298b6000830185612109565b6129986020830184612967565b9392505050565b6129a88161215f565b82525050565b7f4e487b7100000000000000000000000000000000000000000000000000000000600052602160045260246000fd5b600381106129ee576129ed6129ae565b5b50565b60008190506129ff826129dd565b919050565b6000612a0f826129f1565b9050919050565b612a1f81612a04565b82525050565b612a2e816120f7565b82525050565b604082016000820151612a4a6000850182612a16565b506020820151612a5d6020850182612a25565b50505050565b612a6c8161215f565b82525050565b606082016000820151612a886000850182612a34565b506020820151612a9b6040850182612a63565b50505050565b600060a082019050612ab6600083018661299f565b612ac36020830185612109565b612ad06040830184612a72565b949350505050565b6000612ae436836126ea565b9050919050565b600081519050919050565b600082825260208201905092915050565b6000819050602082019050919050565b612b2081612261565b82525050565b600081519050919050565b600082825260208201905092915050565b6000819050602082019050919050565b612b5b816122c7565b82525050565b60a082016000820151612b776000850182612b52565b506020820151612b8a6020850182612b52565b506040820151612b9d6040850182612a34565b506060820151612bb06080850182612a63565b50505050565b6000612bc28383612b61565b60a08301905092915050565b6000602082019050919050565b6000612be682612b26565b612bf08185612b31565b9350612bfb83612b42565b8060005b83811015612c2c578151612c138882612bb6565b9750612c1e83612bce565b925050600181019050612bff565b5085935050505092915050565b600081519050919050565b600082825260208201905092915050565b60005b83811015612c73578082015181840152602081019050612c58565b60008484015250505050565b6000612c8a82612c39565b612c948185612c44565b9350612ca4818560208601612c55565b612cad8161219a565b840191505092915050565b612cc181612538565b82525050565b600060a083016000830151612cdf6000860182612b17565b506020830151612cf26020860182612a25565b5060408301518482036040860152612d0a8282612bdb565b91505060608301518482036060860152612d248282612c7f565b9150506080830151612d396080860182612cb8565b508091505092915050565b6000612d508383612cc7565b905092915050565b6000602082019050919050565b6000612d7082612aeb565b612d7a8185612af6565b935083602082028501612d8c85612b07565b8060005b85811015612dc85784840389528151612da98582612d44565b9450612db483612d58565b925060208a01995050600181019050612d90565b50829750879550505050505092915050565b6000604083016000830151612df26000860182612a25565b5060208301518482036020860152612e0a8282612d65565b9150508091505092915050565b6000604082019050612e2c6000830185612109565b8181036020830152612e3e8184612dda565b90509392505050565b7f4e487b7100000000000000000000000000000000000000000000000000000000600052603260045260246000fd5b7f4e487b7100000000000000000000000000000000000000000000000000000000600052601160045260246000fd5b6000612eb08261215f565b91507fffffffffffffffffffffffffffffffffffffffffffffffffffffffffffffffff8203612ee257612ee1612e76565b5b600182019050919050565b612ef681612261565b82525050565b600060a083016000830151612f146000860182612b17565b506020830151612f276020860182612a25565b5060408301518482036040860152612f3f8282612bdb565b91505060608301518482036060860152612f598282612c7f565b9150506080830151612f6e6080860182612cb8565b508091505092915050565b600081519050919050565b600082825260208201905092915050565b6000819050602082019050919050565b606082016000820151612fbb6000850182612a34565b506020820151612fce6040850182612a63565b50505050565b6000612fe08383612fa5565b60608301905092915050565b6000602082019050919050565b600061300482612f79565b61300e8185612f84565b935061301983612f95565b8060005b8381101561304a5781516130318882612fd4565b975061303c83612fec565b92505060018101905061301d565b5085935050505092915050565b600082825260208201905092915050565b600061307382612f79565b61307d8185613057565b935061308883612f95565b8060005b838110156130b95781516130a08882612fd4565b97506130ab83612fec565b92505060018101905061308c565b5085935050505092915050565b60008160020b9050919050565b6130dc816130c6565b82525050565b600060808301600083015184820360008601526130ff8282613068565b915050602083015184820360208601526131198282613068565b915050604083015161312e6040860182612cb8565b50606083015161314160608601826130d3565b508091505092915050565b600060c0820190506131616000830189612eed565b81810360208301526131738188612efc565b90506131826040830187612eed565b61318f6060830186612109565b81810360808301526131a18185612ff9565b905081810360a08301526131b581846130e2565b9050979650505050505050565b600082825260208201905092915050565b7f5265656e7472616e637947756172643a207265656e7472616e742063616c6c00600082015250565b6000613209601f836131c2565b9150613214826131d3565b602082019050919050565b60006020820190508181036000830152613238816131fc565b9050919050565b6000819050919050565b6132528161323f565b82525050565b600061327361326e61326984612261565b612917565b61215f565b9050919050565b61328381613258565b82525050565b600060408201905061329e6000830185613249565b6132ab602083018461327a565b9392505050565b6000815190506132c181612133565b92915050565b6000602082840312156132dd576132dc612062565b5b60006132eb848285016132b2565b91505092915050565b60008151905061330381612169565b92915050565b60008151905061331881612545565b92915050565b60006040828403121561333457613333612195565b5b61333e604061220b565b9050600061334e848285016132f4565b600083015250602061336284828501613309565b60208301525092915050565b60006040828403121561338457613383612062565b5b60006133928482850161331e565b91505092915050565b6000815190506133aa816122ff565b92915050565b6000604082840312156133c6576133c5612195565b5b6133d0604061220b565b905060006133e08482850161339b565b60008301525060206133f4848285016132b2565b60208301525092915050565b6006811061340d57600080fd5b50565b60008151905061341f81613400565b92915050565b600060a0828403121561343b5761343a612195565b5b613445608061220b565b90506000613455848285016133b0565b600083015250604061346984828501613410565b602083015250606061347d848285016132f4565b604083015250608061349184828501613309565b60608301525092915050565b600060a082840312156134b3576134b2612062565b5b60006134c184828501613425565b91505092915050565b7f737465702061646472657373206e6f7420696e207768697465206c6973740000600082015250565b6000613500601e836131c2565b915061350b826134ca565b602082019050919050565b6000602082019050818103600083015261352f816134f3565b9050919050565b7f6162736f6c75746520616d6f756e74206578636565647320776f726b666c6f7760008201527f2061737365742062616c616e6365000000000000000000000000000000000000602082015250565b6000613592602e836131c2565b915061359d82613536565b604082019050919050565b600060208201905081810360008301526135c181613585565b9050919050565b600082825260208201905092915050565b60006135e482612c39565b6135ee81856135c8565b93506135fe818560208601612c55565b6136078161219a565b840191505092915050565b6000604082019050818103600083015261362c8185612ff9565b9050818103602083015261364081846135d9565b90509392505050565b600081905092915050565b600061365f82612c39565b6136698185613649565b9350613679818560208601612c55565b80840191505092915050565b60006136918284613654565b915081905092915050565b600081519050919050565b60006136b28261369c565b6136bc81856131c2565b93506136cc818560208601612c55565b6136d58161219a565b840191505092915050565b600060208201905081810360008301526136fa81846136a7565b905092915050565b600067ffffffffffffffff82111561371d5761371c6121ab565b5b602082029050602081019050919050565b60006060828403121561374457613743612195565b5b61374e604061220b565b9050600061375e848285016133b0565b6000830152506040613772848285016132f4565b60208301525092915050565b600061379161378c84613702565b61220b565b905080838252602082019050606084028301858111156137b4576137b361225c565b5b835b818110156137dd57806137c9888261372e565b8452602084019350506060810190506137b6565b5050509392505050565b600082601f8301126137fc576137fb61222b565b5b815161380c84826020860161377e565b91505092915050565b61381e816130c6565b811461382957600080fd5b50565b60008151905061383b81613815565b92915050565b60006080828403121561385757613856612195565b5b613861608061220b565b9050600082015167ffffffffffffffff81111561388157613880612226565b5b61388d848285016137e7565b600083015250602082015167ffffffffffffffff8111156138b1576138b0612226565b5b6138bd848285016137e7565b60208301525060406138d184828501613309565b60408301525060606138e58482850161382c565b60608301525092915050565b60006020828403121561390757613906612062565b5b600082015167ffffffffffffffff81111561392557613924612067565b5b61393184828501613841565b91505092915050565b7f746f6f206d616e7920746f6b656e2062616c616e636573000000000000000000600082015250565b60006139706017836131c2565b915061397b8261393a565b602082019050919050565b6000602082019050818103600083015261399f81613963565b9050919050565b600060ff82169050919050565b60006139be826139a6565b915060ff82036139d1576139d0612e76565b5b600182019050919050565b600081905092915050565b60006139f28261369c565b6139fc81856139dc565b9350613a0c818560208601612c55565b80840191505092915050565b7f206173736574547970653d000000000000000000000000000000000000000000815250565b7f206173736574416464726573733d000000000000000000000000000000000000815250565b7f2076616c75657320000000000000000000000000000000000000000000000000815250565b7f2c20000000000000000000000000000000000000000000000000000000000000815250565b6000613abc82886139e7565b9150613ac782613a18565b600b82019150613ad782876139e7565b9150613ae282613a3e565b600e82019150613af282866139e7565b9150613afd82613a64565b600882019150613b0d82856139e7565b9150613b1882613a8a565b600282019150613b2882846139e7565b91508190509695505050505050565b6000613b4282612261565b915061ffff8203613b5657613b55612e76565b5b600182019050919050565b6000604082019050613b766000830185613249565b613b836020830184612109565b9392505050565b600081519050613b99816122d3565b92915050565b600060208284031215613bb557613bb4612062565b5b6000613bc384828501613b8a565b91505092915050565b7f63616e6e6f74207573652070657263656e7461676520666f7220616d6f756e7460008201527f206f662061737365742066726f6d2063616c6c65720000000000000000000000602082015250565b6000613c286035836131c2565b9150613c3382613bcc565b604082019050919050565b60006020820190508181036000830152613c5781613c1b565b9050919050565b6000604082019050613c736000830185612109565b613c806020830184612109565b9392505050565b600060208284031215613c9d57613c9c612062565b5b6000613cab848285016132f4565b91505092915050565b7f696e73756666696369656e7420616c6c6f77616e636520666f72206572633230600082015250565b6000613cea6020836131c2565b9150613cf582613cb4565b602082019050919050565b60006020820190508181036000830152613d1981613cdd565b9050919050565b7f756e6b6e6f776e206173736574207479706520696e20696e707574417373657460008201527f416d6f756e747300000000000000000000000000000000000000000000000000602082015250565b6000613d7c6027836131c2565b9150613d8782613d20565b604082019050919050565b60006020820190508181036000830152613dab81613d6f565b9050919050565b7f70657263656e74206d757374206265206265747765656e203020616e6420313060008201527f3030303000000000000000000000000000000000000000000000000000000000602082015250565b6000613e0e6024836131c2565b9150613e1982613db2565b604082019050919050565b60006020820190508181036000830152613e3d81613e01565b9050919050565b6000613e4f8261215f565b9150613e5a8361215f565b9250828202613e688161215f565b91508282048414831517613e7f57613e7e612e76565b5b5092915050565b7f4e487b7100000000000000000000000000000000000000000000000000000000600052601260045260246000fd5b6000613ec08261215f565b9150613ecb8361215f565b925082613edb57613eda613e86565b5b828204905092915050565b6000613ef1826139a6565b9150613efc836139a6565b9250828203905060ff811115613f1557613f14612e76565b5b92915050565b6000613f26826139a6565b915060008203613f3957613f38612e76565b5b600182039050919050565b7f7374657057686974654c69737400000000000000000000000000000000000000600082015250565b6000613f7a600d836139dc565b9150613f8582613f44565b600d82019050919050565b60008160f01b9050919050565b6000613fa882613f90565b9050919050565b613fc0613fbb82612261565b613f9d565b82525050565b6000613fd182613f6d565b9150613fdd8284613faf565b60028201915081905092915050565b60006060820190506140016000830186612109565b61400e6020830185612109565b61401b604083018461299f565b949350505050565b600061402e8261215f565b91506140398361215f565b925082820190508082111561405157614050612e76565b5b92915050565b60006140628261215f565b91506000820361407557614074612e76565b5b600182039050919050565b7f537472696e67733a20686578206c656e67746820696e73756666696369656e74600082015250565b60006140b66020836131c2565b91506140c182614080565b602082019050919050565b600060208201905081810360008301526140e5816140a9565b9050919050565b7f5361666545524332303a204552433230206f7065726174696f6e20646964206e60008201527f6f74207375636365656400000000000000000000000000000000000000000000602082015250565b6000614148602a836131c2565b9150614153826140ec565b604082019050919050565b600060208201905081810360008301526141778161413b565b9050919050565b7f416464726573733a20696e73756666696369656e742062616c616e636520666f60008201527f722063616c6c0000000000000000000000000000000000000000000000000000602082015250565b60006141da6026836131c2565b91506141e58261417e565b604082019050919050565b60006020820190508181036000830152614209816141cd565b9050919050565b7f416464726573733a2063616c6c20746f206e6f6e2d636f6e7472616374000000600082015250565b6000614246601d836131c2565b915061425182614210565b602082019050919050565b6000602082019050818103600083015261427581614239565b905091905056fea26469706673582212202ddcc1fbac537514cbff031839eec058fdaa4623be6c90b55d9ff64e0612740a64736f6c63430008120033",
  "devdoc": {
    "events": {
      "RemainingAsset((uint8,address),uint256,uint256,uint256)": {
        "params": {
          "asset": "The asset.",
          "feeAmount": "The portion of the total amount that FMP will keep as a fee.",
          "totalAmount": "The total amount of the asset.",
          "userAmount": "The portion of the total amount that is sent to the user."
        }
      },
      "WorkflowContinuation(uint256,address,((uint8,address),uint256))": {
        "params": {
          "nonce": "The nonce provided by the caller on the source chain, used to correlate the source chain workflow segment with this segment.",
          "startingAsset": "The asset that was transferred from the source chain to this chain"
        }
      },
      "WorkflowExecution(address,(address,(uint16,address,(bool,bool,(uint8,address),uint256)[],bytes,int16)[]))": {
        "params": {
          "userAddress": "The user for which this workflow is executing.",
          "workflow": "The workflow."
        }
      },
      "WorkflowStepExecution(uint16,(uint16,address,(bool,bool,(uint8,address),uint256)[],bytes,int16),uint16,address,((uint8,address),uint256)[],(((uint8,address),uint256)[],((uint8,address),uint256)[],int16,int24))": {
        "params": {
          "inputAssetAmounts": "The input assets, with the absolute amount of each asset.",
          "result": "The result returned form the step invocation.",
          "step": "The step configuration.",
          "stepAddress": "The address of the step used for this invocation.",
          "stepIndex": "The index of the step in the Workflow.steps array.",
          "stepTypeId": "The logical id of the step (also repeated in the step param but duplicated here for convenience)."
        }
      }
    },
    "kind": "dev",
    "methods": {
      "executeWorkflow((address,(uint16,address,(bool,bool,(uint8,address),uint256)[],bytes,int16)[]))": {
        "params": {
          "workflow": "The workflow to execute."
        }
      }
    },
    "version": 1
  },
  "userdoc": {
    "events": {
      "RemainingAsset((uint8,address),uint256,uint256,uint256)": {
        "notice": "This event is emitted after the workflow has completed, once for each asset ramining with a non-zero amount."
      },
      "WorkflowContinuation(uint256,address,((uint8,address),uint256))": {
        "notice": "This event is emitted when this is a continuation of a workflow from another chain"
      },
      "WorkflowExecution(address,(address,(uint16,address,(bool,bool,(uint8,address),uint256)[],bytes,int16)[]))": {
        "notice": "This event is emitted when a workflow execution begins."
      },
      "WorkflowStepExecution(uint16,(uint16,address,(bool,bool,(uint8,address),uint256)[],bytes,int16),uint16,address,((uint8,address),uint256)[],(((uint8,address),uint256)[],((uint8,address),uint256)[],int16,int24))": {
        "notice": "This event is emitted when immediately after invoking a step in the workflow."
      }
    },
    "kind": "user",
    "methods": {
      "continueWorkflow(address,uint256,(address,(uint16,address,(bool,bool,(uint8,address),uint256)[],bytes,int16)[]),((uint8,address),uint256))": {
        "notice": "Continue a workflow that started on a different chain.This is not callable by 3rd parties, only approved bridge integrations call this method."
      },
      "executeWorkflow((address,(uint16,address,(bool,bool,(uint8,address),uint256)[],bytes,int16)[]))": {
        "notice": "Initiate the execution of a workflow."
      }
    },
    "version": 1
  },
  "storageLayout": {
    "storage": [
      {
        "astId": 7013,
        "contract": "contracts/WorkflowRunner.sol:WorkflowRunner",
        "label": "owner",
        "offset": 0,
        "slot": "0",
        "type": "t_address_payable"
      },
      {
        "astId": 5796,
        "contract": "contracts/WorkflowRunner.sol:WorkflowRunner",
        "label": "eternalStorageAddress",
        "offset": 0,
        "slot": "1",
        "type": "t_address"
      },
      {
        "astId": 5798,
        "contract": "contracts/WorkflowRunner.sol:WorkflowRunner",
        "label": "upstreamAddress",
        "offset": 0,
        "slot": "2",
        "type": "t_address"
      },
      {
        "astId": 5800,
        "contract": "contracts/WorkflowRunner.sol:WorkflowRunner",
        "label": "isUserProxy",
        "offset": 20,
        "slot": "2",
        "type": "t_bool"
      },
      {
        "astId": 172,
        "contract": "contracts/WorkflowRunner.sol:WorkflowRunner",
        "label": "_status",
        "offset": 0,
        "slot": "3",
        "type": "t_uint256"
      }
    ],
    "types": {
      "t_address": {
        "encoding": "inplace",
        "label": "address",
        "numberOfBytes": "20"
      },
      "t_address_payable": {
        "encoding": "inplace",
        "label": "address payable",
        "numberOfBytes": "20"
      },
      "t_bool": {
        "encoding": "inplace",
        "label": "bool",
        "numberOfBytes": "1"
      },
      "t_uint256": {
        "encoding": "inplace",
        "label": "uint256",
        "numberOfBytes": "32"
      }
    }
  }
}