{
  "address": "0x2CAae422b848c82fDD29e0689FFCc84d911FF94B",
  "abi": [
    {
      "inputs": [
        {
          "internalType": "address payable",
          "name": "frontDoorAddress",
          "type": "address"
        }
      ],
      "stateMutability": "nonpayable",
      "type": "constructor"
    },
    {
      "anonymous": false,
      "inputs": [
        {
          "indexed": false,
          "internalType": "address",
          "name": "sender",
          "type": "address"
        },
        {
          "indexed": false,
          "internalType": "address",
          "name": "newOwner",
          "type": "address"
        }
      ],
      "name": "LogNewOwner",
      "type": "event"
    },
    {
      "anonymous": false,
      "inputs": [
        {
          "indexed": false,
          "internalType": "uint16",
          "name": "stepTypeId",
          "type": "uint16"
        },
        {
          "indexed": false,
          "internalType": "address",
          "name": "stepAddress",
          "type": "address"
        }
      ],
      "name": "StepAddressSetEvent",
      "type": "event"
    },
    {
      "inputs": [],
      "name": "eternalStorageAddress",
      "outputs": [
        {
          "internalType": "address",
          "name": "",
          "type": "address"
        }
      ],
      "stateMutability": "view",
      "type": "function"
    },
    {
      "inputs": [
        {
          "internalType": "uint16",
          "name": "stepTypeId",
          "type": "uint16"
        }
      ],
      "name": "getStepAddress",
      "outputs": [
        {
          "internalType": "address",
          "name": "",
          "type": "address"
        }
      ],
      "stateMutability": "view",
      "type": "function"
    },
    {
      "inputs": [],
      "name": "getStepCount",
      "outputs": [
        {
          "internalType": "uint256",
          "name": "",
          "type": "uint256"
        }
      ],
      "stateMutability": "view",
      "type": "function"
    },
    {
      "inputs": [
        {
          "internalType": "uint256",
          "name": "index",
          "type": "uint256"
        }
      ],
      "name": "getStepInfoAt",
      "outputs": [
        {
          "components": [
            {
              "internalType": "uint16",
              "name": "stepTypeId",
              "type": "uint16"
            },
            {
              "internalType": "address",
              "name": "latest",
              "type": "address"
            },
            {
              "internalType": "address[]",
              "name": "whitelist",
              "type": "address[]"
            },
            {
              "internalType": "address[]",
              "name": "blacklist",
              "type": "address[]"
            }
          ],
          "internalType": "struct StepInfo",
          "name": "",
          "type": "tuple"
        }
      ],
      "stateMutability": "view",
      "type": "function"
    },
    {
      "inputs": [],
      "name": "isUserProxy",
      "outputs": [
        {
          "internalType": "bool",
          "name": "",
          "type": "bool"
        }
      ],
      "stateMutability": "view",
      "type": "function"
    },
    {
      "inputs": [],
      "name": "owner",
      "outputs": [
        {
          "internalType": "address payable",
          "name": "",
          "type": "address"
        }
      ],
      "stateMutability": "view",
      "type": "function"
    },
    {
      "inputs": [
        {
          "internalType": "uint16",
          "name": "stepTypeId",
          "type": "uint16"
        },
        {
          "internalType": "address",
          "name": "stepAddress",
          "type": "address"
        }
      ],
      "name": "removeStepAddress",
      "outputs": [],
      "stateMutability": "nonpayable",
      "type": "function"
    },
    {
      "inputs": [
        {
          "internalType": "address payable",
          "name": "newOwner",
          "type": "address"
        }
      ],
      "name": "setOwner",
      "outputs": [],
      "stateMutability": "nonpayable",
      "type": "function"
    },
    {
      "inputs": [
        {
          "internalType": "uint16",
          "name": "stepTypeId",
          "type": "uint16"
        },
        {
          "internalType": "address",
          "name": "stepAddress",
          "type": "address"
        }
      ],
      "name": "setStepAddress",
      "outputs": [],
      "stateMutability": "nonpayable",
      "type": "function"
    },
    {
      "inputs": [],
      "name": "upstreamAddress",
      "outputs": [
        {
          "internalType": "address",
          "name": "",
          "type": "address"
        }
      ],
      "stateMutability": "view",
      "type": "function"
    }
  ],
  "transactionHash": "0xe34cf4633a04c181735de007bcd6f069f279508758cffca424dc9b4d2be1fa01",
  "args": [
    "0x25B4670bd2B636Ab8fd40123Ef0B438a10beabc8"
  ],
  "numDeployments": 1,
  "solcInputHash": "be05735ca6ffb88a730b5655d5fc7a9e",
  "bytecode": "0x60806040523480156200001157600080fd5b5060405162001cb938038062001cb9833981810160405281019062000037919062000200565b338173ffffffffffffffffffffffffffffffffffffffff1663384782fe6040518163ffffffff1660e01b8152600401602060405180830381865afa15801562000084573d6000803e3d6000fd5b505050506040513d601f19601f82011682018060405250810190620000aa919062000277565b60008083806000806101000a81548173ffffffffffffffffffffffffffffffffffffffff021916908373ffffffffffffffffffffffffffffffffffffffff1602179055505082600160006101000a81548173ffffffffffffffffffffffffffffffffffffffff021916908373ffffffffffffffffffffffffffffffffffffffff16021790555081600260006101000a81548173ffffffffffffffffffffffffffffffffffffffff021916908373ffffffffffffffffffffffffffffffffffffffff16021790555080600260146101000a81548160ff0219169083151502179055505050505050620002a9565b600080fd5b600073ffffffffffffffffffffffffffffffffffffffff82169050919050565b6000620001c8826200019b565b9050919050565b620001da81620001bb565b8114620001e657600080fd5b50565b600081519050620001fa81620001cf565b92915050565b60006020828403121562000219576200021862000196565b5b60006200022984828501620001e9565b91505092915050565b60006200023f826200019b565b9050919050565b620002518162000232565b81146200025d57600080fd5b50565b600081519050620002718162000246565b92915050565b60006020828403121562000290576200028f62000196565b5b6000620002a08482850162000260565b91505092915050565b611a0080620002b96000396000f3fe608060405234801561001057600080fd5b506004361061009e5760003560e01c80636fd63351116100665780636fd63351146101475780638da5cb5b14610165578063c4006c8114610183578063f90339771461019f578063ff05c2a8146101cf5761009e565b80630f53b854146100a357806313af4035146100bf57806332b56aaf146100db578063384782fe146100f9578063699a205714610117575b600080fd5b6100bd60048036038101906100b8919061103f565b6101ed565b005b6100d960048036038101906100d491906110bd565b6104bb565b005b6100e36105c8565b6040516100f091906110f9565b60405180910390f35b6101016105ee565b60405161010e91906110f9565b60405180910390f35b610131600480360381019061012c919061114a565b610614565b60405161013e91906112ae565b60405180910390f35b61014f610abb565b60405161015c91906112df565b60405180910390f35b61016d610b86565b60405161017a9190611309565b60405180910390f35b61019d6004803603810190610198919061103f565b610baa565b005b6101b960048036038101906101b49190611324565b610e0a565b6040516101c691906110f9565b60405180910390f35b6101d7610e3f565b6040516101e4919061136c565b60405180910390f35b60008054906101000a900473ffffffffffffffffffffffffffffffffffffffff1673ffffffffffffffffffffffffffffffffffffffff163373ffffffffffffffffffffffffffffffffffffffff161461024557600080fd5b6000600160009054906101000a900473ffffffffffffffffffffffffffffffffffffffff16905060008173ffffffffffffffffffffffffffffffffffffffff1663a2ccb5227fc94d198e6194ea38dbd900920351d7f8e6c6d85b1d3b803fb93c54be008e11fd60001b866040518363ffffffff1660e01b81526004016102cc9291906113db565b602060405180830381865afa1580156102e9573d6000803e3d6000fd5b505050506040513d601f19601f8201168201806040525081019061030d9190611419565b90508073ffffffffffffffffffffffffffffffffffffffff168373ffffffffffffffffffffffffffffffffffffffff160361037d576040517f08c379a0000000000000000000000000000000000000000000000000000000008152600401610374906114c9565b60405180910390fd5b8173ffffffffffffffffffffffffffffffffffffffff1663ba4014fd6103a286610e52565b8560006040518463ffffffff1660e01b81526004016103c393929190611524565b6020604051808303816000875af11580156103e2573d6000803e3d6000fd5b505050506040513d601f19601f820116820180604052508101906104069190611587565b508173ffffffffffffffffffffffffffffffffffffffff16638142576361042c86610e82565b856040518363ffffffff1660e01b815260040161044a9291906115b4565b600060405180830381600087803b15801561046457600080fd5b505af1158015610478573d6000803e3d6000fd5b505050507f5c250b46b4ab7901af16e469d68737ca13fe0eac242b19f323f7d3608565be7f84846040516104ad9291906115ec565b60405180910390a150505050565b60008054906101000a900473ffffffffffffffffffffffffffffffffffffffff1673ffffffffffffffffffffffffffffffffffffffff163373ffffffffffffffffffffffffffffffffffffffff161461051357600080fd5b600073ffffffffffffffffffffffffffffffffffffffff168173ffffffffffffffffffffffffffffffffffffffff160361054c57600080fd5b806000806101000a81548173ffffffffffffffffffffffffffffffffffffffff021916908373ffffffffffffffffffffffffffffffffffffffff1602179055507f1f8d7d25344642d919d55999e4664aa452a5f424bc0936ceb9c2b300db7dcbd933826040516105bd92919061166a565b60405180910390a150565b600260009054906101000a900473ffffffffffffffffffffffffffffffffffffffff1681565b600160009054906101000a900473ffffffffffffffffffffffffffffffffffffffff1681565b61061c610f60565b6000600160009054906101000a900473ffffffffffffffffffffffffffffffffffffffff1690506000808273ffffffffffffffffffffffffffffffffffffffff16634fcee0497fc94d198e6194ea38dbd900920351d7f8e6c6d85b1d3b803fb93c54be008e11fd60001b876040518363ffffffff1660e01b81526004016106a4929190611693565b6040805180830381865afa1580156106c0573d6000803e3d6000fd5b505050506040513d601f19601f820116820180604052508101906106e491906116d1565b9150915060006106f383610e82565b905060008473ffffffffffffffffffffffffffffffffffffffff16639b0d10fd836040518263ffffffff1660e01b81526004016107309190611711565b602060405180830381865afa15801561074d573d6000803e3d6000fd5b505050506040513d601f19601f82011682018060405250810190610771919061172c565b905060008167ffffffffffffffff81111561078f5761078e611759565b5b6040519080825280602002602001820160405280156107bd5781602001602082028036833780820191505090505b50905060005b828110156108ab5760008773ffffffffffffffffffffffffffffffffffffffff1663619f6cc686846040518363ffffffff1660e01b8152600401610808929190611693565b6040805180830381865afa158015610824573d6000803e3d6000fd5b505050506040513d601f19601f820116820180604052508101906108489190611788565b5090508083838151811061085f5761085e6117c8565b5b602002602001019073ffffffffffffffffffffffffffffffffffffffff16908173ffffffffffffffffffffffffffffffffffffffff168152505050806108a490611826565b90506107c3565b5060006108b786610e52565b905060008773ffffffffffffffffffffffffffffffffffffffff16639b0d10fd836040518263ffffffff1660e01b81526004016108f49190611711565b602060405180830381865afa158015610911573d6000803e3d6000fd5b505050506040513d601f19601f82011682018060405250810190610935919061172c565b905060008167ffffffffffffffff81111561095357610952611759565b5b6040519080825280602002602001820160405280156109815781602001602082028036833780820191505090505b50905060005b82811015610a6f5760008a73ffffffffffffffffffffffffffffffffffffffff1663619f6cc686846040518363ffffffff1660e01b81526004016109cc929190611693565b6040805180830381865afa1580156109e8573d6000803e3d6000fd5b505050506040513d601f19601f82011682018060405250810190610a0c9190611788565b50905080838381518110610a2357610a226117c8565b5b602002602001019073ffffffffffffffffffffffffffffffffffffffff16908173ffffffffffffffffffffffffffffffffffffffff16815250505080610a6890611826565b9050610987565b5060405180608001604052808961ffff1681526020018873ffffffffffffffffffffffffffffffffffffffff168152602001858152602001828152509950505050505050505050919050565b600080600160009054906101000a900473ffffffffffffffffffffffffffffffffffffffff1690508073ffffffffffffffffffffffffffffffffffffffff1663832860727fc94d198e6194ea38dbd900920351d7f8e6c6d85b1d3b803fb93c54be008e11fd60001b6040518263ffffffff1660e01b8152600401610b3f9190611711565b602060405180830381865afa158015610b5c573d6000803e3d6000fd5b505050506040513d601f19601f82011682018060405250810190610b80919061172c565b91505090565b60008054906101000a900473ffffffffffffffffffffffffffffffffffffffff1681565b60008054906101000a900473ffffffffffffffffffffffffffffffffffffffff1673ffffffffffffffffffffffffffffffffffffffff163373ffffffffffffffffffffffffffffffffffffffff1614610c0257600080fd5b6000600160009054906101000a900473ffffffffffffffffffffffffffffffffffffffff1690508073ffffffffffffffffffffffffffffffffffffffff1663107f89ad7fc94d198e6194ea38dbd900920351d7f8e6c6d85b1d3b803fb93c54be008e11fd60001b85856040518463ffffffff1660e01b8152600401610c899392919061186e565b6020604051808303816000875af1158015610ca8573d6000803e3d6000fd5b505050506040513d601f19601f82011682018060405250810190610ccc9190611587565b508073ffffffffffffffffffffffffffffffffffffffff1663ba4014fd610cf285610e82565b8460006040518463ffffffff1660e01b8152600401610d1393929190611524565b6020604051808303816000875af1158015610d32573d6000803e3d6000fd5b505050506040513d601f19601f82011682018060405250810190610d569190611587565b508073ffffffffffffffffffffffffffffffffffffffff166381425763610d7c85610e52565b846040518363ffffffff1660e01b8152600401610d9a9291906115b4565b600060405180830381600087803b158015610db457600080fd5b505af1158015610dc8573d6000803e3d6000fd5b505050507f5c250b46b4ab7901af16e469d68737ca13fe0eac242b19f323f7d3608565be7f8383604051610dfd9291906115ec565b60405180910390a1505050565b6000610e38600160009054906101000a900473ffffffffffffffffffffffffffffffffffffffff1683610eb2565b9050919050565b600260149054906101000a900460ff1681565b600081604051602001610e659190611932565b604051602081830303815290604052805190602001209050919050565b600081604051602001610e9591906119a4565b604051602081830303815290604052805190602001209050919050565b6000808390508073ffffffffffffffffffffffffffffffffffffffff1663a2ccb5227fc94d198e6194ea38dbd900920351d7f8e6c6d85b1d3b803fb93c54be008e11fd60001b856040518363ffffffff1660e01b8152600401610f169291906113db565b602060405180830381865afa158015610f33573d6000803e3d6000fd5b505050506040513d601f19601f82011682018060405250810190610f579190611419565b91505092915050565b6040518060800160405280600061ffff168152602001600073ffffffffffffffffffffffffffffffffffffffff16815260200160608152602001606081525090565b600080fd5b600061ffff82169050919050565b610fbe81610fa7565b8114610fc957600080fd5b50565b600081359050610fdb81610fb5565b92915050565b600073ffffffffffffffffffffffffffffffffffffffff82169050919050565b600061100c82610fe1565b9050919050565b61101c81611001565b811461102757600080fd5b50565b60008135905061103981611013565b92915050565b6000806040838503121561105657611055610fa2565b5b600061106485828601610fcc565b92505060206110758582860161102a565b9150509250929050565b600061108a82610fe1565b9050919050565b61109a8161107f565b81146110a557600080fd5b50565b6000813590506110b781611091565b92915050565b6000602082840312156110d3576110d2610fa2565b5b60006110e1848285016110a8565b91505092915050565b6110f381611001565b82525050565b600060208201905061110e60008301846110ea565b92915050565b6000819050919050565b61112781611114565b811461113257600080fd5b50565b6000813590506111448161111e565b92915050565b6000602082840312156111605761115f610fa2565b5b600061116e84828501611135565b91505092915050565b61118081610fa7565b82525050565b61118f81611001565b82525050565b600081519050919050565b600082825260208201905092915050565b6000819050602082019050919050565b60006111cd8383611186565b60208301905092915050565b6000602082019050919050565b60006111f182611195565b6111fb81856111a0565b9350611206836111b1565b8060005b8381101561123757815161121e88826111c1565b9750611229836111d9565b92505060018101905061120a565b5085935050505092915050565b600060808301600083015161125c6000860182611177565b50602083015161126f6020860182611186565b506040830151848203604086015261128782826111e6565b915050606083015184820360608601526112a182826111e6565b9150508091505092915050565b600060208201905081810360008301526112c88184611244565b905092915050565b6112d981611114565b82525050565b60006020820190506112f460008301846112d0565b92915050565b6113038161107f565b82525050565b600060208201905061131e60008301846112fa565b92915050565b60006020828403121561133a57611339610fa2565b5b600061134884828501610fcc565b91505092915050565b60008115159050919050565b61136681611351565b82525050565b6000602082019050611381600083018461135d565b92915050565b6000819050919050565b61139a81611387565b82525050565b6000819050919050565b60006113c56113c06113bb84610fa7565b6113a0565b611114565b9050919050565b6113d5816113aa565b82525050565b60006040820190506113f06000830185611391565b6113fd60208301846113cc565b9392505050565b60008151905061141381611013565b92915050565b60006020828403121561142f5761142e610fa2565b5b600061143d84828501611404565b91505092915050565b600082825260208201905092915050565b7f63616e6e6f742072656d6f7665206c617465737420737465702061646472657360008201527f7300000000000000000000000000000000000000000000000000000000000000602082015250565b60006114b3602183611446565b91506114be82611457565b604082019050919050565b600060208201905081810360008301526114e2816114a6565b9050919050565b6000819050919050565b600061150e611509611504846114e9565b6113a0565b611114565b9050919050565b61151e816114f3565b82525050565b60006060820190506115396000830186611391565b61154660208301856110ea565b6115536040830184611515565b949350505050565b61156481611351565b811461156f57600080fd5b50565b6000815190506115818161155b565b92915050565b60006020828403121561159d5761159c610fa2565b5b60006115ab84828501611572565b91505092915050565b60006040820190506115c96000830185611391565b6115d660208301846110ea565b9392505050565b6115e681610fa7565b82525050565b600060408201905061160160008301856115dd565b61160e60208301846110ea565b9392505050565b600061163061162b61162684610fe1565b6113a0565b610fe1565b9050919050565b600061164282611615565b9050919050565b600061165482611637565b9050919050565b61166481611649565b82525050565b600060408201905061167f60008301856110ea565b61168c602083018461165b565b9392505050565b60006040820190506116a86000830185611391565b6116b560208301846112d0565b9392505050565b6000815190506116cb8161111e565b92915050565b600080604083850312156116e8576116e7610fa2565b5b60006116f6858286016116bc565b925050602061170785828601611404565b9150509250929050565b60006020820190506117266000830184611391565b92915050565b60006020828403121561174257611741610fa2565b5b6000611750848285016116bc565b91505092915050565b7f4e487b7100000000000000000000000000000000000000000000000000000000600052604160045260246000fd5b6000806040838503121561179f5761179e610fa2565b5b60006117ad85828601611404565b92505060206117be858286016116bc565b9150509250929050565b7f4e487b7100000000000000000000000000000000000000000000000000000000600052603260045260246000fd5b7f4e487b7100000000000000000000000000000000000000000000000000000000600052601160045260246000fd5b600061183182611114565b91507fffffffffffffffffffffffffffffffffffffffffffffffffffffffffffffffff8203611863576118626117f7565b5b600182019050919050565b60006060820190506118836000830186611391565b61189060208301856113cc565b61189d60408301846110ea565b949350505050565b600081905092915050565b7f73746570426c61636b4c69737400000000000000000000000000000000000000600082015250565b60006118e6600d836118a5565b91506118f1826118b0565b600d82019050919050565b60008160f01b9050919050565b6000611914826118fc565b9050919050565b61192c61192782610fa7565b611909565b82525050565b600061193d826118d9565b9150611949828461191b565b60028201915081905092915050565b7f7374657057686974654c69737400000000000000000000000000000000000000600082015250565b600061198e600d836118a5565b915061199982611958565b600d82019050919050565b60006119af82611981565b91506119bb828461191b565b6002820191508190509291505056fea264697066735822122082d56c2f284664052c1db6133c20aa189a1633d1315df2099b67a6d3ccaa3f3064736f6c63430008120033",
  "devdoc": {
    "kind": "dev",
    "methods": {},
    "version": 1
  },
  "userdoc": {
    "kind": "user",
    "methods": {},
    "version": 1
  },
  "storageLayout": {
    "storage": [
      {
        "astId": 7408,
        "contract": "contracts/ConfigManager.sol:ConfigManager",
        "label": "owner",
        "offset": 0,
        "slot": "0",
        "type": "t_address_payable"
      },
      {
        "astId": 6119,
        "contract": "contracts/ConfigManager.sol:ConfigManager",
        "label": "eternalStorageAddress",
        "offset": 0,
        "slot": "1",
        "type": "t_address"
      },
      {
        "astId": 6121,
        "contract": "contracts/ConfigManager.sol:ConfigManager",
        "label": "upstreamAddress",
        "offset": 0,
        "slot": "2",
        "type": "t_address"
      },
      {
        "astId": 6123,
        "contract": "contracts/ConfigManager.sol:ConfigManager",
        "label": "isUserProxy",
        "offset": 20,
        "slot": "2",
        "type": "t_bool"
      }
    ],
    "types": {
      "t_address": {
        "encoding": "inplace",
        "label": "address",
        "numberOfBytes": "20"
      },
      "t_address_payable": {
        "encoding": "inplace",
        "label": "address payable",
        "numberOfBytes": "20"
      },
      "t_bool": {
        "encoding": "inplace",
        "label": "bool",
        "numberOfBytes": "1"
      }
    }
  }
}