{
  "address": "0x0d9b22deDa314fE07eD13520A8d77567eFFb5DDF",
  "abi": [
    {
      "inputs": [
        {
          "internalType": "address",
          "name": "wrappedEtherContractAddress",
          "type": "address"
        }
      ],
      "stateMutability": "nonpayable",
      "type": "constructor"
    },
    {
      "anonymous": false,
      "inputs": [
        {
          "indexed": false,
          "internalType": "address",
          "name": "thisAddr",
          "type": "address"
        },
        {
          "indexed": false,
          "internalType": "uint256",
          "name": "amount",
          "type": "uint256"
        }
      ],
      "name": "NativeUnwrapped",
      "type": "event"
    },
    {
      "inputs": [
        {
          "components": [
            {
              "components": [
                {
                  "internalType": "enum AssetType",
                  "name": "assetType",
                  "type": "uint8"
                },
                {
                  "internalType": "address",
                  "name": "assetAddress",
                  "type": "address"
                }
              ],
              "internalType": "struct Asset",
              "name": "asset",
              "type": "tuple"
            },
            {
              "internalType": "uint256",
              "name": "amount",
              "type": "uint256"
            }
          ],
          "internalType": "struct AssetAmount[]",
          "name": "assetAmounts",
          "type": "tuple[]"
        },
        {
          "internalType": "bytes",
          "name": "",
          "type": "bytes"
        }
      ],
      "name": "execute",
      "outputs": [
        {
          "components": [
            {
              "components": [
                {
                  "components": [
                    {
                      "internalType": "enum AssetType",
                      "name": "assetType",
                      "type": "uint8"
                    },
                    {
                      "internalType": "address",
                      "name": "assetAddress",
                      "type": "address"
                    }
                  ],
                  "internalType": "struct Asset",
                  "name": "asset",
                  "type": "tuple"
                },
                {
                  "internalType": "uint256",
                  "name": "amount",
                  "type": "uint256"
                }
              ],
              "internalType": "struct AssetAmount[]",
              "name": "inputAssetAmounts",
              "type": "tuple[]"
            },
            {
              "components": [
                {
                  "components": [
                    {
                      "internalType": "enum AssetType",
                      "name": "assetType",
                      "type": "uint8"
                    },
                    {
                      "internalType": "address",
                      "name": "assetAddress",
                      "type": "address"
                    }
                  ],
                  "internalType": "struct Asset",
                  "name": "asset",
                  "type": "tuple"
                },
                {
                  "internalType": "uint256",
                  "name": "amount",
                  "type": "uint256"
                }
              ],
              "internalType": "struct AssetAmount[]",
              "name": "outputAssetAmounts",
              "type": "tuple[]"
            },
            {
              "internalType": "int16",
              "name": "nextStepIndex",
              "type": "int16"
            },
            {
              "internalType": "int24",
              "name": "fee",
              "type": "int24"
            }
          ],
          "internalType": "struct WorkflowStepResult",
          "name": "",
          "type": "tuple"
        }
      ],
      "stateMutability": "payable",
      "type": "function"
    },
    {
      "inputs": [],
      "name": "wethContractAddress",
      "outputs": [
        {
          "internalType": "address",
          "name": "",
          "type": "address"
        }
      ],
      "stateMutability": "view",
      "type": "function"
    }
  ],
  "transactionHash": "0x7f42e1f64721563e459f66152c1b0cfd9fa551135f0e407181895c2ef4f5314e",
  "args": [
    "0x82aF49447D8a07e3bd95BD0d56f35241523fBab1"
  ],
  "numDeployments": 3,
  "solcInputHash": "126f562631ae5a5bc960c9c4528f0e00",
  "bytecode": "0x60a060405234801561001057600080fd5b50604051610bcd380380610bcd833981810160405281019061003291906100cf565b8073ffffffffffffffffffffffffffffffffffffffff1660808173ffffffffffffffffffffffffffffffffffffffff1681525050506100fc565b600080fd5b600073ffffffffffffffffffffffffffffffffffffffff82169050919050565b600061009c82610071565b9050919050565b6100ac81610091565b81146100b757600080fd5b50565b6000815190506100c9816100a3565b92915050565b6000602082840312156100e5576100e461006c565b5b60006100f3848285016100ba565b91505092915050565b608051610aa961012460003960008181608b0152818161011401526101a90152610aa96000f3fe6080604052600436106100295760003560e01c806360b4eb981461002e5780637bb26ca714610059575b600080fd5b34801561003a57600080fd5b50610043610089565b604051610050919061057a565b60405180910390f35b610073600480360381019061006e919061065a565b6100ad565b6040516100809190610929565b60405180910390f35b7f000000000000000000000000000000000000000000000000000000000000000081565b6100b5610482565b6000858560008181106100cb576100ca61094b565b5b9050606002016040013590507fc6db34506f140e2481bf061902098593c6e2737f38b80822a4214fbbb92c49b23082604051610108929190610989565b60405180910390a160007f000000000000000000000000000000000000000000000000000000000000000090508073ffffffffffffffffffffffffffffffffffffffff16632e1a7d4d836040518263ffffffff1660e01b815260040161016e91906109b2565b600060405180830381600087803b15801561018857600080fd5b505af115801561019c573d6000803e3d6000fd5b505050506101f1826101e37f0000000000000000000000000000000000000000000000000000000000000000856101d4600180610201565b6103469092919063ffffffff16565b6103e490919063ffffffff16565b6040015192505050949350505050565b6102096104b0565b60008367ffffffffffffffff811115610225576102246109cd565b5b60405190808252806020026020018201604052801561025e57816020015b61024b6104d7565b8152602001906001900390816102435790505b50905060008367ffffffffffffffff81111561027d5761027c6109cd565b5b6040519080825280602002602001820160405280156102b657816020015b6102a36104d7565b81526020019060019003908161029b5790505b5090506040518060600160405280600081526020016000815260200160405180608001604052808581526020018481526020017ffffffffffffffffffffffffffffffffffffffffffffffffffffffffffffffffe60010b81526020017fffffffffffffffffffffffffffffffffffffffffffffffffffffffffffffffff60020b8152508152509250505092915050565b61034e6104b0565b604051806040016040528060405180604001604052806001600281111561037857610377610707565b5b81526020018673ffffffffffffffffffffffffffffffffffffffff168152508152602001838152508460400151600001518560000180518091906103bb90610a2b565b815250815181106103cf576103ce61094b565b5b60200260200101819052508390509392505050565b6103ec6104b0565b604051806040016040528060405180604001604052806000600281111561041657610415610707565b5b8152602001600073ffffffffffffffffffffffffffffffffffffffff1681525081526020018381525083604001516020015184602001805180919061045a90610a2b565b8152508151811061046e5761046d61094b565b5b602002602001018190525082905092915050565b60405180608001604052806060815260200160608152602001600060010b8152602001600060020b81525090565b604051806060016040528060008152602001600081526020016104d1610482565b81525090565b60405180604001604052806104ea6104f7565b8152602001600081525090565b60405180604001604052806000600281111561051657610515610707565b5b8152602001600073ffffffffffffffffffffffffffffffffffffffff1681525090565b600073ffffffffffffffffffffffffffffffffffffffff82169050919050565b600061056482610539565b9050919050565b61057481610559565b82525050565b600060208201905061058f600083018461056b565b92915050565b600080fd5b600080fd5b600080fd5b600080fd5b600080fd5b60008083601f8401126105c4576105c361059f565b5b8235905067ffffffffffffffff8111156105e1576105e06105a4565b5b6020830191508360608202830111156105fd576105fc6105a9565b5b9250929050565b60008083601f84011261061a5761061961059f565b5b8235905067ffffffffffffffff811115610637576106366105a4565b5b602083019150836001820283011115610653576106526105a9565b5b9250929050565b6000806000806040858703121561067457610673610595565b5b600085013567ffffffffffffffff8111156106925761069161059a565b5b61069e878288016105ae565b9450945050602085013567ffffffffffffffff8111156106c1576106c061059a565b5b6106cd87828801610604565b925092505092959194509250565b600081519050919050565b600082825260208201905092915050565b6000819050602082019050919050565b7f4e487b7100000000000000000000000000000000000000000000000000000000600052602160045260246000fd5b6003811061074757610746610707565b5b50565b600081905061075882610736565b919050565b60006107688261074a565b9050919050565b6107788161075d565b82525050565b61078781610559565b82525050565b6040820160008201516107a3600085018261076f565b5060208201516107b6602085018261077e565b50505050565b6000819050919050565b6107cf816107bc565b82525050565b6060820160008201516107eb600085018261078d565b5060208201516107fe60408501826107c6565b50505050565b600061081083836107d5565b60608301905092915050565b6000602082019050919050565b6000610834826106db565b61083e81856106e6565b9350610849836106f7565b8060005b8381101561087a5781516108618882610804565b975061086c8361081c565b92505060018101905061084d565b5085935050505092915050565b60008160010b9050919050565b61089d81610887565b82525050565b60008160020b9050919050565b6108b9816108a3565b82525050565b600060808301600083015184820360008601526108dc8282610829565b915050602083015184820360208601526108f68282610829565b915050604083015161090b6040860182610894565b50606083015161091e60608601826108b0565b508091505092915050565b6000602082019050818103600083015261094381846108bf565b905092915050565b7f4e487b7100000000000000000000000000000000000000000000000000000000600052603260045260246000fd5b610983816107bc565b82525050565b600060408201905061099e600083018561056b565b6109ab602083018461097a565b9392505050565b60006020820190506109c7600083018461097a565b92915050565b7f4e487b7100000000000000000000000000000000000000000000000000000000600052604160045260246000fd5b7f4e487b7100000000000000000000000000000000000000000000000000000000600052601160045260246000fd5b6000610a36826107bc565b91507fffffffffffffffffffffffffffffffffffffffffffffffffffffffffffffffff8203610a6857610a676109fc565b5b60018201905091905056fea26469706673582212202cc8806dd910001994e34a4fa0e75da535386de73ad03bfe7c4f6ae69365e2c564736f6c63430008120033",
  "devdoc": {
    "kind": "dev",
    "methods": {},
    "version": 1
  },
  "userdoc": {
    "kind": "user",
    "methods": {},
    "version": 1
  },
  "storageLayout": {
    "storage": [],
    "types": null
  }
}