{
  "address": "0xcB497E4DBE194F03643C668bb9A4D725D0eA2E8D",
  "abi": [
    {
      "inputs": [
        {
          "internalType": "address",
          "name": "wrappedEtherContractAddress",
          "type": "address"
        }
      ],
      "stateMutability": "nonpayable",
      "type": "constructor"
    },
    {
      "anonymous": false,
      "inputs": [
        {
          "indexed": false,
          "internalType": "address",
          "name": "thisAddr",
          "type": "address"
        },
        {
          "indexed": false,
          "internalType": "uint256",
          "name": "amount",
          "type": "uint256"
        }
      ],
      "name": "NativeUnwrapped",
      "type": "event"
    },
    {
      "inputs": [
        {
          "components": [
            {
              "components": [
                {
                  "internalType": "enum AssetType",
                  "name": "assetType",
                  "type": "uint8"
                },
                {
                  "internalType": "address",
                  "name": "assetAddress",
                  "type": "address"
                }
              ],
              "internalType": "struct Asset",
              "name": "asset",
              "type": "tuple"
            },
            {
              "internalType": "uint256",
              "name": "amount",
              "type": "uint256"
            }
          ],
          "internalType": "struct AssetAmount[]",
          "name": "assetAmounts",
          "type": "tuple[]"
        },
        {
          "internalType": "bytes",
          "name": "",
          "type": "bytes"
        }
      ],
      "name": "execute",
      "outputs": [
        {
          "components": [
            {
              "components": [
                {
                  "components": [
                    {
                      "internalType": "enum AssetType",
                      "name": "assetType",
                      "type": "uint8"
                    },
                    {
                      "internalType": "address",
                      "name": "assetAddress",
                      "type": "address"
                    }
                  ],
                  "internalType": "struct Asset",
                  "name": "asset",
                  "type": "tuple"
                },
                {
                  "internalType": "uint256",
                  "name": "amount",
                  "type": "uint256"
                }
              ],
              "internalType": "struct AssetAmount[]",
              "name": "inputAssetAmounts",
              "type": "tuple[]"
            },
            {
              "components": [
                {
                  "components": [
                    {
                      "internalType": "enum AssetType",
                      "name": "assetType",
                      "type": "uint8"
                    },
                    {
                      "internalType": "address",
                      "name": "assetAddress",
                      "type": "address"
                    }
                  ],
                  "internalType": "struct Asset",
                  "name": "asset",
                  "type": "tuple"
                },
                {
                  "internalType": "uint256",
                  "name": "amount",
                  "type": "uint256"
                }
              ],
              "internalType": "struct AssetAmount[]",
              "name": "outputAssetAmounts",
              "type": "tuple[]"
            },
            {
              "components": [
                {
                  "components": [
                    {
                      "internalType": "enum AssetType",
                      "name": "assetType",
                      "type": "uint8"
                    },
                    {
                      "internalType": "address",
                      "name": "assetAddress",
                      "type": "address"
                    }
                  ],
                  "internalType": "struct Asset",
                  "name": "asset",
                  "type": "tuple"
                },
                {
                  "internalType": "uint256",
                  "name": "amount",
                  "type": "uint256"
                }
              ],
              "internalType": "struct AssetAmount[]",
              "name": "outputAssetAmountsToCaller",
              "type": "tuple[]"
            },
            {
              "internalType": "int16",
              "name": "nextStepIndex",
              "type": "int16"
            },
            {
              "internalType": "int24",
              "name": "fee",
              "type": "int24"
            }
          ],
          "internalType": "struct WorkflowStepResult",
          "name": "",
          "type": "tuple"
        }
      ],
      "stateMutability": "payable",
      "type": "function"
    },
    {
      "inputs": [],
      "name": "wethContractAddress",
      "outputs": [
        {
          "internalType": "address",
          "name": "",
          "type": "address"
        }
      ],
      "stateMutability": "view",
      "type": "function"
    }
  ],
  "transactionHash": "0xfca4939a2d0b85a7a10d51de1b3eb34a64b6b61d38ae0499f5d99e39457eac07",
  "args": [
    "0x82aF49447D8a07e3bd95BD0d56f35241523fBab1"
  ],
  "numDeployments": 4,
  "solcInputHash": "9515c8b822ee3799fa0690031ac0b6b3",
  "bytecode": "0x60a060405234801561001057600080fd5b50604051610c5b380380610c5b833981810160405281019061003291906100cf565b8073ffffffffffffffffffffffffffffffffffffffff1660808173ffffffffffffffffffffffffffffffffffffffff1681525050506100fc565b600080fd5b600073ffffffffffffffffffffffffffffffffffffffff82169050919050565b600061009c82610071565b9050919050565b6100ac81610091565b81146100b757600080fd5b50565b6000815190506100c9816100a3565b92915050565b6000602082840312156100e5576100e461006c565b5b60006100f3848285016100ba565b91505092915050565b608051610b3761012460003960008181608b0152818161011401526101a90152610b376000f3fe6080604052600436106100295760003560e01c806360b4eb981461002e5780637bb26ca714610059575b600080fd5b34801561003a57600080fd5b50610043610089565b60405161005091906105ee565b60405180910390f35b610073600480360381019061006e91906106ce565b6100ad565b60405161008091906109b7565b60405180910390f35b7f000000000000000000000000000000000000000000000000000000000000000081565b6100b56104e8565b6000858560008181106100cb576100ca6109d9565b5b9050606002016040013590507fc6db34506f140e2481bf061902098593c6e2737f38b80822a4214fbbb92c49b23082604051610108929190610a17565b60405180910390a160007f000000000000000000000000000000000000000000000000000000000000000090508073ffffffffffffffffffffffffffffffffffffffff16632e1a7d4d836040518263ffffffff1660e01b815260040161016e9190610a40565b600060405180830381600087803b15801561018857600080fd5b505af115801561019c573d6000803e3d6000fd5b505050506101f1826101e37f0000000000000000000000000000000000000000000000000000000000000000856101d4600180610201565b6103ac9092919063ffffffff16565b61044a90919063ffffffff16565b6060015192505050949350505050565b61020961051d565b60008367ffffffffffffffff81111561022557610224610a5b565b5b60405190808252806020026020018201604052801561025e57816020015b61024b61054b565b8152602001906001900390816102435790505b50905060008367ffffffffffffffff81111561027d5761027c610a5b565b5b6040519080825280602002602001820160405280156102b657816020015b6102a361054b565b81526020019060019003908161029b5790505b50905060008067ffffffffffffffff8111156102d5576102d4610a5b565b5b60405190808252806020026020018201604052801561030e57816020015b6102fb61054b565b8152602001906001900390816102f35790505b50905060405180608001604052806000815260200160008152602001600081526020016040518060a001604052808681526020018581526020018481526020017ffffffffffffffffffffffffffffffffffffffffffffffffffffffffffffffffe60010b81526020017fffffffffffffffffffffffffffffffffffffffffffffffffffffffffffffffff60020b815250815250935050505092915050565b6103b461051d565b60405180604001604052806040518060400160405280600160028111156103de576103dd61077b565b5b81526020018673ffffffffffffffffffffffffffffffffffffffff1681525081526020018381525084606001516000015185600001805180919061042190610ab9565b81525081518110610435576104346109d9565b5b60200260200101819052508390509392505050565b61045261051d565b604051806040016040528060405180604001604052806000600281111561047c5761047b61077b565b5b8152602001600073ffffffffffffffffffffffffffffffffffffffff168152508152602001838152508360600151602001518460200180518091906104c090610ab9565b815250815181106104d4576104d36109d9565b5b602002602001018190525082905092915050565b6040518060a00160405280606081526020016060815260200160608152602001600060010b8152602001600060020b81525090565b60405180608001604052806000815260200160008152602001600081526020016105456104e8565b81525090565b604051806040016040528061055e61056b565b8152602001600081525090565b60405180604001604052806000600281111561058a5761058961077b565b5b8152602001600073ffffffffffffffffffffffffffffffffffffffff1681525090565b600073ffffffffffffffffffffffffffffffffffffffff82169050919050565b60006105d8826105ad565b9050919050565b6105e8816105cd565b82525050565b600060208201905061060360008301846105df565b92915050565b600080fd5b600080fd5b600080fd5b600080fd5b600080fd5b60008083601f84011261063857610637610613565b5b8235905067ffffffffffffffff81111561065557610654610618565b5b6020830191508360608202830111156106715761067061061d565b5b9250929050565b60008083601f84011261068e5761068d610613565b5b8235905067ffffffffffffffff8111156106ab576106aa610618565b5b6020830191508360018202830111156106c7576106c661061d565b5b9250929050565b600080600080604085870312156106e8576106e7610609565b5b600085013567ffffffffffffffff8111156107065761070561060e565b5b61071287828801610622565b9450945050602085013567ffffffffffffffff8111156107355761073461060e565b5b61074187828801610678565b925092505092959194509250565b600081519050919050565b600082825260208201905092915050565b6000819050602082019050919050565b7f4e487b7100000000000000000000000000000000000000000000000000000000600052602160045260246000fd5b600381106107bb576107ba61077b565b5b50565b60008190506107cc826107aa565b919050565b60006107dc826107be565b9050919050565b6107ec816107d1565b82525050565b6107fb816105cd565b82525050565b60408201600082015161081760008501826107e3565b50602082015161082a60208501826107f2565b50505050565b6000819050919050565b61084381610830565b82525050565b60608201600082015161085f6000850182610801565b506020820151610872604085018261083a565b50505050565b60006108848383610849565b60608301905092915050565b6000602082019050919050565b60006108a88261074f565b6108b2818561075a565b93506108bd8361076b565b8060005b838110156108ee5781516108d58882610878565b97506108e083610890565b9250506001810190506108c1565b5085935050505092915050565b60008160010b9050919050565b610911816108fb565b82525050565b60008160020b9050919050565b61092d81610917565b82525050565b600060a0830160008301518482036000860152610950828261089d565b9150506020830151848203602086015261096a828261089d565b91505060408301518482036040860152610984828261089d565b91505060608301516109996060860182610908565b5060808301516109ac6080860182610924565b508091505092915050565b600060208201905081810360008301526109d18184610933565b905092915050565b7f4e487b7100000000000000000000000000000000000000000000000000000000600052603260045260246000fd5b610a1181610830565b82525050565b6000604082019050610a2c60008301856105df565b610a396020830184610a08565b9392505050565b6000602082019050610a556000830184610a08565b92915050565b7f4e487b7100000000000000000000000000000000000000000000000000000000600052604160045260246000fd5b7f4e487b7100000000000000000000000000000000000000000000000000000000600052601160045260246000fd5b6000610ac482610830565b91507fffffffffffffffffffffffffffffffffffffffffffffffffffffffffffffffff8203610af657610af5610a8a565b5b60018201905091905056fea26469706673582212201c3447223d6de4a64a0b43bfc61d99e078607171fdadb1766a4f4a10b473695c64736f6c63430008120033",
  "devdoc": {
    "kind": "dev",
    "methods": {},
    "version": 1
  },
  "userdoc": {
    "kind": "user",
    "methods": {},
    "version": 1
  },
  "storageLayout": {
    "storage": [],
    "types": null
  }
}