{
  "address": "0x8D4b1F7729d3a25C5344f9Fc499D56758Cac80C8",
  "abi": [
    {
      "inputs": [
        {
          "internalType": "address",
          "name": "wrappedEtherContractAddress",
          "type": "address"
        }
      ],
      "stateMutability": "nonpayable",
      "type": "constructor"
    },
    {
      "anonymous": false,
      "inputs": [
        {
          "indexed": false,
          "internalType": "address",
          "name": "thisAddr",
          "type": "address"
        },
        {
          "indexed": false,
          "internalType": "uint256",
          "name": "amount",
          "type": "uint256"
        }
      ],
      "name": "NativeWrapped",
      "type": "event"
    },
    {
      "inputs": [],
      "name": "contractAddress",
      "outputs": [
        {
          "internalType": "address",
          "name": "",
          "type": "address"
        }
      ],
      "stateMutability": "view",
      "type": "function"
    },
    {
      "inputs": [
        {
          "components": [
            {
              "components": [
                {
                  "internalType": "enum AssetType",
                  "name": "assetType",
                  "type": "uint8"
                },
                {
                  "internalType": "address",
                  "name": "assetAddress",
                  "type": "address"
                }
              ],
              "internalType": "struct Asset",
              "name": "asset",
              "type": "tuple"
            },
            {
              "internalType": "uint256",
              "name": "amount",
              "type": "uint256"
            }
          ],
          "internalType": "struct AssetAmount[]",
          "name": "inputAssetAmounts",
          "type": "tuple[]"
        },
        {
          "internalType": "bytes",
          "name": "",
          "type": "bytes"
        }
      ],
      "name": "execute",
      "outputs": [
        {
          "components": [
            {
              "components": [
                {
                  "components": [
                    {
                      "internalType": "enum AssetType",
                      "name": "assetType",
                      "type": "uint8"
                    },
                    {
                      "internalType": "address",
                      "name": "assetAddress",
                      "type": "address"
                    }
                  ],
                  "internalType": "struct Asset",
                  "name": "asset",
                  "type": "tuple"
                },
                {
                  "internalType": "uint256",
                  "name": "amount",
                  "type": "uint256"
                }
              ],
              "internalType": "struct AssetAmount[]",
              "name": "inputAssetAmounts",
              "type": "tuple[]"
            },
            {
              "components": [
                {
                  "components": [
                    {
                      "internalType": "enum AssetType",
                      "name": "assetType",
                      "type": "uint8"
                    },
                    {
                      "internalType": "address",
                      "name": "assetAddress",
                      "type": "address"
                    }
                  ],
                  "internalType": "struct Asset",
                  "name": "asset",
                  "type": "tuple"
                },
                {
                  "internalType": "uint256",
                  "name": "amount",
                  "type": "uint256"
                }
              ],
              "internalType": "struct AssetAmount[]",
              "name": "outputAssetAmounts",
              "type": "tuple[]"
            },
            {
              "components": [
                {
                  "components": [
                    {
                      "internalType": "enum AssetType",
                      "name": "assetType",
                      "type": "uint8"
                    },
                    {
                      "internalType": "address",
                      "name": "assetAddress",
                      "type": "address"
                    }
                  ],
                  "internalType": "struct Asset",
                  "name": "asset",
                  "type": "tuple"
                },
                {
                  "internalType": "uint256",
                  "name": "amount",
                  "type": "uint256"
                }
              ],
              "internalType": "struct AssetAmount[]",
              "name": "outputAssetAmountsToCaller",
              "type": "tuple[]"
            },
            {
              "internalType": "int16",
              "name": "nextStepIndex",
              "type": "int16"
            },
            {
              "internalType": "int24",
              "name": "fee",
              "type": "int24"
            }
          ],
          "internalType": "struct WorkflowStepResult",
          "name": "",
          "type": "tuple"
        }
      ],
      "stateMutability": "payable",
      "type": "function"
    }
  ],
  "transactionHash": "0x020dcd56f2c91e697d77a73af266b58f5b56af8d6d13d07085d880889e2c807a",
  "args": [
    "0x82aF49447D8a07e3bd95BD0d56f35241523fBab1"
  ],
  "numDeployments": 4,
  "solcInputHash": "9515c8b822ee3799fa0690031ac0b6b3",
  "bytecode": "0x60a060405234801561001057600080fd5b50604051610eb3380380610eb3833981810160405281019061003291906100cf565b8073ffffffffffffffffffffffffffffffffffffffff1660808173ffffffffffffffffffffffffffffffffffffffff1681525050506100fc565b600080fd5b600073ffffffffffffffffffffffffffffffffffffffff82169050919050565b600061009c82610071565b9050919050565b6100ac81610091565b81146100b757600080fd5b50565b6000815190506100c9816100a3565b92915050565b6000602082840312156100e5576100e461006c565b5b60006100f3848285016100ba565b91505092915050565b608051610d8e61012560003960008181610136015281816101bf015261024a0152610d8e6000f3fe6080604052600436106100295760003560e01c80637bb26ca71461002e578063f6b4dfb41461005e575b600080fd5b61004860048036038101906100439190610695565b610089565b60405161005591906109b0565b60405180910390f35b34801561006a57600080fd5b50610073610248565b60405161008091906109e1565b60405180910390f35b610091610501565b600185859050146100d7576040517f08c379a00000000000000000000000000000000000000000000000000000000081526004016100ce90610a7f565b60405180910390fd5b6000858560008181106100ed576100ec610a9f565b5b9050606002016040013590507f2c58f4d3d48c3b93bf8f7fd23f32658ccb97894f02022d2189ffa9903d37bfb8308260405161012a929190610add565b60405180910390a160007f000000000000000000000000000000000000000000000000000000000000000090508073ffffffffffffffffffffffffffffffffffffffff1663d0e30db0836040518263ffffffff1660e01b81526004016000604051808303818588803b15801561019f57600080fd5b505af11580156101b3573d6000803e3d6000fd5b505050505060006102347f0000000000000000000000000000000000000000000000000000000000000000846102258b8b60008181106101f6576101f5610a9f565b5b90506060020180360381019061020c9190610cb4565b61021760018061026c565b61041790919063ffffffff16565b6104639092919063ffffffff16565b606001519050809350505050949350505050565b7f000000000000000000000000000000000000000000000000000000000000000081565b610274610536565b60008367ffffffffffffffff8111156102905761028f610b1c565b5b6040519080825280602002602001820160405280156102c957816020015b6102b6610564565b8152602001906001900390816102ae5790505b50905060008367ffffffffffffffff8111156102e8576102e7610b1c565b5b60405190808252806020026020018201604052801561032157816020015b61030e610564565b8152602001906001900390816103065790505b50905060008067ffffffffffffffff8111156103405761033f610b1c565b5b60405190808252806020026020018201604052801561037957816020015b610366610564565b81526020019060019003908161035e5790505b50905060405180608001604052806000815260200160008152602001600081526020016040518060a001604052808681526020018581526020018481526020017ffffffffffffffffffffffffffffffffffffffffffffffffffffffffffffffffe60010b81526020017fffffffffffffffffffffffffffffffffffffffffffffffffffffffffffffffff60020b815250815250935050505092915050565b61041f610536565b8183606001516000015184600001805180919061043b90610d10565b8152508151811061044f5761044e610a9f565b5b602002602001018190525082905092915050565b61046b610536565b604051806040016040528060405180604001604052806001600281111561049557610494610742565b5b81526020018673ffffffffffffffffffffffffffffffffffffffff168152508152602001838152508460600151602001518560200180518091906104d890610d10565b815250815181106104ec576104eb610a9f565b5b60200260200101819052508390509392505050565b6040518060a00160405280606081526020016060815260200160608152602001600060010b8152602001600060020b81525090565b604051806080016040528060008152602001600081526020016000815260200161055e610501565b81525090565b6040518060400160405280610577610584565b8152602001600081525090565b6040518060400160405280600060028111156105a3576105a2610742565b5b8152602001600073ffffffffffffffffffffffffffffffffffffffff1681525090565b6000604051905090565b600080fd5b600080fd5b600080fd5b600080fd5b600080fd5b60008083601f8401126105ff576105fe6105da565b5b8235905067ffffffffffffffff81111561061c5761061b6105df565b5b602083019150836060820283011115610638576106376105e4565b5b9250929050565b60008083601f840112610655576106546105da565b5b8235905067ffffffffffffffff811115610672576106716105df565b5b60208301915083600182028301111561068e5761068d6105e4565b5b9250929050565b600080600080604085870312156106af576106ae6105d0565b5b600085013567ffffffffffffffff8111156106cd576106cc6105d5565b5b6106d9878288016105e9565b9450945050602085013567ffffffffffffffff8111156106fc576106fb6105d5565b5b6107088782880161063f565b925092505092959194509250565b600081519050919050565b600082825260208201905092915050565b6000819050602082019050919050565b7f4e487b7100000000000000000000000000000000000000000000000000000000600052602160045260246000fd5b6003811061078257610781610742565b5b50565b600081905061079382610771565b919050565b60006107a382610785565b9050919050565b6107b381610798565b82525050565b600073ffffffffffffffffffffffffffffffffffffffff82169050919050565b60006107e4826107b9565b9050919050565b6107f4816107d9565b82525050565b60408201600082015161081060008501826107aa565b50602082015161082360208501826107eb565b50505050565b6000819050919050565b61083c81610829565b82525050565b60608201600082015161085860008501826107fa565b50602082015161086b6040850182610833565b50505050565b600061087d8383610842565b60608301905092915050565b6000602082019050919050565b60006108a182610716565b6108ab8185610721565b93506108b683610732565b8060005b838110156108e75781516108ce8882610871565b97506108d983610889565b9250506001810190506108ba565b5085935050505092915050565b60008160010b9050919050565b61090a816108f4565b82525050565b60008160020b9050919050565b61092681610910565b82525050565b600060a08301600083015184820360008601526109498282610896565b915050602083015184820360208601526109638282610896565b9150506040830151848203604086015261097d8282610896565b91505060608301516109926060860182610901565b5060808301516109a5608086018261091d565b508091505092915050565b600060208201905081810360008301526109ca818461092c565b905092915050565b6109db816107d9565b82525050565b60006020820190506109f660008301846109d2565b92915050565b600082825260208201905092915050565b7f577261704e6174697665416374696f6e3a20696e7075744173736574416d6f7560008201527f6e74732e6c656e677468206d7573742062652031000000000000000000000000602082015250565b6000610a696034836109fc565b9150610a7482610a0d565b604082019050919050565b60006020820190508181036000830152610a9881610a5c565b9050919050565b7f4e487b7100000000000000000000000000000000000000000000000000000000600052603260045260246000fd5b610ad781610829565b82525050565b6000604082019050610af260008301856109d2565b610aff6020830184610ace565b9392505050565b600080fd5b6000601f19601f8301169050919050565b7f4e487b7100000000000000000000000000000000000000000000000000000000600052604160045260246000fd5b610b5482610b0b565b810181811067ffffffffffffffff82111715610b7357610b72610b1c565b5b80604052505050565b6000610b866105c6565b9050610b928282610b4b565b919050565b60038110610ba457600080fd5b50565b600081359050610bb681610b97565b92915050565b610bc5816107d9565b8114610bd057600080fd5b50565b600081359050610be281610bbc565b92915050565b600060408284031215610bfe57610bfd610b06565b5b610c086040610b7c565b90506000610c1884828501610ba7565b6000830152506020610c2c84828501610bd3565b60208301525092915050565b610c4181610829565b8114610c4c57600080fd5b50565b600081359050610c5e81610c38565b92915050565b600060608284031215610c7a57610c79610b06565b5b610c846040610b7c565b90506000610c9484828501610be8565b6000830152506040610ca884828501610c4f565b60208301525092915050565b600060608284031215610cca57610cc96105d0565b5b6000610cd884828501610c64565b91505092915050565b7f4e487b7100000000000000000000000000000000000000000000000000000000600052601160045260246000fd5b6000610d1b82610829565b91507fffffffffffffffffffffffffffffffffffffffffffffffffffffffffffffffff8203610d4d57610d4c610ce1565b5b60018201905091905056fea26469706673582212208372ef16f9e17353a04958c790686d11f3056b4f58c45f9cd6f46322f432ec8864736f6c63430008120033",
  "devdoc": {
    "kind": "dev",
    "methods": {},
    "version": 1
  },
  "userdoc": {
    "kind": "user",
    "methods": {},
    "version": 1
  },
  "storageLayout": {
    "storage": [],
    "types": null
  }
}